:10000000F72FFF1B0B2883137F1883170008840A20
:100010000319FF0A080000308A000408840A8207D6
:100020000034003401340134023402340334043423
:1000300004340534063406340734073408340934EC
:1000400009341934793427340934043419347934AF
:06005000273409340434DA
:100AB800F7007708D9252B30572E05110830F2009A
:100AC8000030802D8611FF304226F200861508007E
:100AD8006625F3003039031D003401346625F30020
:100AE800F31A0034731A0134FF3408309A25F400DD
:100AF8000F30F40574080800F300861120384226E8
:100B0800720842268615080064008001840A0406DB
:100B1800031900340406892D83160614851005115F
:100B2800861106128616831286150800F2008312B3
:100B3800031386117208422600304226F3008615F8
:100B48000800A126003A031D0800CC3085264E3047
:100B5800852600308526003085267F30852E70302A
:100B6800F200073080250A30F200003080252C3052
:100B7800F400F40BBD2DC02D080083160313861452
:100B88000615181118129816981783121816981720
:100B98000C30831699000800F7007708D9252A3009
:100BA80057267708D9253030572EF2000030031D1C
:100BB8008030F3000530F400080083120313851118
:100BC8008316851100001426E92DEA2DEB2D8312DA
:100BD8000313050CF000F00C700C0139080001300B
:100BE800850007309F008316850181150114811443
:100BF8000115831285159025A5250430F800783055
:100C0800DB26C12DF100B8267103031D0D2E0C2E15
:100C180014262230F000F00B0F2E122E1426080096
:100C28008312031385158316851508008611E23093
:100C3800422686157030F2000730802505110B30EA
:100C4800F2000030802505152C30F400F40B2A2E14
:100C58002D2E0800F700831203130511B325831204
:100C680003138611E130422686157708F200F30156
:100C78002908F400A030572605150800F000F101F6
:100C8800F01F482E8514492E85100310F00D061606
:100C980006080139F00406120830F10A7102031C33
:100CA800442E70080800F50086114226F6017408E3
:100CB800760203186A2E7308FF0072088400012068
:100CC8004226F20A0319F30AF60A5B2E8615080073
:100CD800F401F501701C762E7208F4070318F50A62
:100CE8007308F5070310F20DF30D0310F10CF00C67
:100CF80070087104031D6E2E7508F1007408F00069
:100D08000800F300F5017308F200750A8D2E031030
:100D1800F20CFF3E031D8B2E7208F4000130F4051F
:100D2800740806260830F50A7502031C872E22303F
:100D3800F200F20B9D2EA02E0800B826A630F00077
:100D4800F00BA42E000014262130F000F00BAA2E80
:100D580000308312031385190130F1008D30F00043
:100D6800F00BB42E71080800831203138511831643
:100D780085110800F201F301E125003A0319CF2E8D
:100D88000130F100730ACA2E0310F10DFF3E031D56
:100D9800C82E7108F2042730F100F10BD12ED42EA1
:100DA8000830F30A7302031CC02E72080800F90009
:100DB80083120313861505117808A9001630D0256B
:100DC80011305C257908F200053080251130F201D8
:100DD80080257808F200123080251330F201802532
:100DE8001430F20180251530F20180251630F20109
:100DF80080252630F200063080250830F2000030C9
:100E080080250330F200013080250330F2000230E3
:100E180080254F30F200043080251C30F2018025F7
:100E28001A2E83120313B100760884002B30800039
:100E3800A126003A031D0034CC308526443085268F
:100E48000430F900CF30F8000130F700F70B2A2FF3
:100E5800F80B2A2FF90B2A2F312FA126CC30852603
:100E6800BE30852683120313B3013308203E840065
:100E7800BE2683138000023083120313B30A3302A1
:100E8800031C392F2108B5002008B400B51F552FC1
:100E9800B409B509B40A0319B50A760884002D30D7
:100EA80080003408B2000F30B2053208013E8400D9
:100EB8000B20B2000F30B40EB50EB4053508F0396A
:100EC800B4040F30B5053408F0000A30F101F2001F
:100ED800F3016C267108B5007008B4003208B40735
:100EE8000318B50A3108840034088000840A3508DC
:100EF80080000134F32575308312AB00DC30AC0080
:100F08001930AD007930AE0064007D30F6002F3026
:100F18001527003A0319992F7D0883120313AB0094
:100F28002F08AC003008AD009E2FFF30831203134A
:100F3800AB00AC007930AE00051064002B302E26D3
:100F48006C25003A031DA42F7225FC007C080319A8
:100F5800DE2F7C03031DDE2F05148230FB00DD30FD
:100F6800FA00FA0BB52FFB0BB52FBA2F8312031318
:100F780005102130FB007630FA00FA0BC12FFB0B6D
:100F8800C12F00008312031305148230FB00DD30EB
:100F9800FA00FA0BCD2FFB0BCD2FD22F83120313A0
:100FA80005102130FB007630FA00FA0BD92FFB0B25
:100FB800D92F00007925FC006125051483168601C8
:100FC800831286010830831685000130831285005C
:100FD80063000F3083120313AA0A2A02031CEC2FA2
:100FE800AA019025882F2030FC01FD01831384007D
:080FF8003130882583017E2FB2
:02400E0034FF7D
:00000001FF
