:0400000007EF00F016
:1000080070822CED18F0C9EF19F0A3EC1BF046C074
:10001800B4F147C0B5F148C0B6F149C0B7F1D0EC6A
:100028001BF046C0A8F147C0A9F148C0AAF149C0D1
:10003800ABF10B0E09EC05F0D890D935DD6FDA3548
:10004800DE6FDB35DF6FDC35E06F030EE16FB4C1C7
:10005800E2F0B5C1E3F0B6C1E4F0B7C1E5F0E1679D
:1000680001D007D0E535E533E433E333E233E12F5C
:10007800F6D70001DD51E25D0F6EDE51E359106ED7
:10008800DF51E459116EE051E559126EA3C013F027
:10009800A4C014F0DCEC04F0C3EC1CF00001D86739
:1000A80001D004D0A0EC04F0D82FF8D7AFEC04F0BE
:1000B800820E0001D86FDD0EE82EFED7D82FFCD7B0
:1000C80000D0100E3B6EBF0E3C6EC4C13DF0C5C1E2
:1000D8003EF0C6C13FF0C7C140F0F0EC1FF00C0E77
:1000E80009EC05F0040EDD6FB4C1DEF0B5C1DFF038
:1000F800B6C1E0F0B7C1E1F0DD6701D004D012EC81
:1001080005F0DD2FF9D70001D951DE5D0F6EDA5108
:10011800DF59106EDB51E059116EDC51E159126E56
:10012800A551E26FA651E36FE46BE56B040EE66F31
:10013800B4C1E7F0B5C1E8F0B6C1E9F0B7C1EAF07B
:10014800E66701D007D0EA35EA33E933E833E73325
:10015800E62FF6D70001E251E75D136EE351E85947
:10016800146EE451E959156EE551EA59166EC3EC5F
:100178001CF00001D86701D003D0DEDBD82FF9D7F7
:10018800E1DB0E0E0001D86F00EC05F0A1C013F002
:10019800A2C014F0DCEC04F0C3EC1CF00001D8673A
:1001A80001D003D0C9DBD82FF9D7DEDB820E0001DE
:1001B800D86FDD0EE82EFED7D82FFCD700D0A2DBF3
:1001C800F0EC1FF00101BC51C425AC6FBD51C52135
:1001D800AD6FBE51C621AE6FBF51C721AF6FACC165
:1001E8000FF0ADC110F0AEC111F0AFC112F0050EA5
:1001F800136E146A156A166AC3EC1CF0800E0F247D
:100208000001D86F000E1020D96F000E1120DA6F90
:10021800000E1220DB6FD9C0D8F0DAC0D9F0DBC0ED
:10022800DAF0DB6BDABFDB69D8C0B0F1D9C0B1F165
:10023800DAC0B2F1DBC0B3F1820E0001D86FDD0E77
:10024800E82EFED7D82FFCD700D0BA0E3B6EBF0ED3
:100258003C6EB0C13DF0B1C13EF0B2C13FF0B3C198
:1002680040F0F0EC1FF05150D96EDA6AB0C1DEFFF1
:10027800B1C1DEFFB2C1DEFFB3C1DEFFACC1D8F051
:10028800ADC1D9F0AEC1DAF0AFC1DBF00001DB35AA
:10029800CBDB000ED8250101C46F060E0001D92161
:1002A8000101C56FFF0E0001DA210101C66FFF0EC3
:1002B8000001DB210101C76F820E0001D86FDD0E3E
:1002C800E82EFED7D82FFCD700D029DBF0EC1FF0A2
:1002D8000B0EDCDAC3EC1CF00001D86701D003D0A8
:1002E8002BDBD82FF9D72EDB87DB97C013F098C00C
:1002F80014F05EDBC3EC1CF037DB820E0001D86F14
:10030800DD0EE82EFED7D82FFCD700D0FBDAF0ECB4
:100318001FF099C00FF09AC010F02FDBC3EC1CF04F
:10032800D8900F340001D86F1034D96F1134DA6FB8
:100338001234DB6FD8510101BC270001D9510101EA
:10034800BD230001DA510101BE230001DB51010187
:10035800BF23820E0001D86FDD0EE82EFED7D82FFE
:10036800FCD700D0CFDAF0EC1FF000019B51D86F1A
:100378009C51D96FDA6BDB6BD9C0DBF0D8C0DAF0EF
:10038800D96BD86B020EDC6FBCC1DDF0BDC1DEF0ED
:10039800BEC1DFF0BFC1E0F0DC6701D007D0E035B7
:1003A800E033DF33DE33DD33DC2FF6D70001D851FD
:1003B800DD250101BC6F0001D951DE210101BD6FAE
:1003C8000001DA51DF210101BE6F0001DB51E0219C
:1003D8000101BF6F820E0001D86FDD0EE82EFED737
:1003E800D82FFCD700D08EDAF0EC1FF00D0E4EDAC5
:1003F800C3EC1CF00001D86701D003D09DDAD82FD8
:10040800F9D7A0DA120E0001D86F030ED96F9DC07C
:100418000FF09EC010F0000EBEDAC3EC1CF00FC047
:10042800DAF010C0DBF011C0DCF012C0DDF0000122
:10043800D96701D007D0DD35DD33DC33DB33DA3380
:10044800D92FF5D79FC00FF0A0C010F096DAC3ECF3
:100458001CF072DA0F500001DA25DE6F1050DB2134
:10046800DF6F1150DC21E06F1250DD21E16FD8679A
:1004780001D003D0D3DAD82FFAD7DEC0C4F1DFC059
:10048800C5F1E0C0C6F1E1C0C7F1820E0001D86F26
:10049800DD0EE82EFED7D82FFCD700D040DAF0ECDE
:1004A8001FF00F0E0001D86F000E0101C4250F6E5A
:1004B800800EC521106E000EC621116E000EC721D8
:1004C800126ED2C013F0D3C014F0156A166AC3ECCA
:1004D8001CF00001D86701D003D02EDAD82FF9D745
:1004E8003ADA820E0001D86FDD0EE82EFED7D82F3B
:1004F800FCD700D014DAF0EC1FF00101C451C5118B
:10050800C611C71101E112000C0E0001D86FBCC161
:10051800D9F0BDC1DAF0BEC1DBF0BFC1DCF0D867ED
:1005280001D004D0DC3585DAD82FF9D7A8C1DDF0A1
:10053800A9C1DEF0AAC1DFF0ABC1E0F00001DD1F08
:10054800DE1FDF1FE01FDD2B000EDE23DF23E0238D
:10055800D951DD5DE16FDA51DE59E26FDB51DF59C8
:10056800E36FDC51E059E46F000EE1250F6E000ED9
:10057800E221106E100EE321116E000EE421126EBE
:10058800350E136E0C0E146E156A166AC3EC1CF049
:100598000FC0C0F110C0C1F111C0C2F112C0C3F147
:1005A800800E0101C35D15E2D890C0350F6EC135CC
:1005B800106EC235116EC335126E15DA05EC1AF0DD
:1005C8000FC0C0F110C0C1F111C0C2F112C0C3F117
:1005D80015D0C0C10FF0C1C110F0C2C111F0C3C124
:1005E80012F001DA05EC1AF0D8900F340101C06F4F
:1005F8001034C16F1134C26F1234C36F820E000100
:10060800D86FDD0EE82EFED7D82FFCD700D0C60E47
:100618003B6EBF0EDED9F0EC1FF0C0C1D8F0C1C1EF
:10062800D9F0C2C1DAF0C3C1DBF0040E03D0000177
:10063800D890FAD9E82EFBD7D8C00FF0D9C010F05F
:10064800DAC011F0DBC012F0C0C1DCF0C1C1DDF0CE
:10065800C2C1DEF0C3C1DFF0040E05D0D890DF338D
:10066800DE33DD33DC33E82EF9D7DCC013F0DDC030
:1006780014F0DEC015F0DFC016F0C3EC1CF00E0E4F
:1006880005D0D8901232113210320F32E82EF9D735
:1006980059D90C0E0001D86F91C00FF092C010F01C
:1006A800000E79D9C3EC1CF00001D86701D003D043
:1006B80043D9D82FF9D74FD9820E0001D86FDD0E54
:1006C800E82EFED7D82FFCD700D029D9F0EC1FF0A0
:1006D8000D0E0001D86FC0C1D9F0C1C1DAF0C2C196
:1006E800DBF0C3C1DCF0030E02D0D890A2D9E82E0B
:1006F800FCD7D9C00FF0DAC010F0DBC011F0DCC0B5
:1007080012F093C013F094C014F052D9C3EC1CF04B
:100718000001D86701D003D00FD9D82FF9D724D931
:10072800820E0001D86FDD0EE82EFED7D82FFCD739
:1007380000D0E8D8F0EC1FF0040E0001D86F95C087
:10074800D9F096C0DAF0000EDABFFF0EDB6FDC6F6F
:100758000101C4510001D925DD6F0101C551000116
:10076800DA21DE6F0101C6510001DB21DF6F0101D3
:10077800C7510001DC21E06F0101BC510001DD25FA
:10078800E16F0101BD510001DE21E26F0101BE519F
:100798000001DF21E36F0101BF510001E021E46F97
:1007A800D86701D007D0E435E433E333E233E133EB
:1007B800D82FF6D70101C0510001E1250101C06F12
:1007C800C1510001E2210101C16FC2510001E321C1
:1007D8000101C26FC3510001E4210101C36F820E00
:1007E8000001D86FDD0EE82EFED7D82FFCD700D039
:1007F800D10E3B6EBF0EEDD8F0EC1FF0070E236E46
:10080800400E246E3F0E256EC0C117F0C1C118F00E
:10081800C2C119F0C3C11AF0E9EC1CF017C020F0EE
:1008280018C021F019C022F0C5EC15F020C02FF037
:1008380021C030F022C031F029EC16F05050D96EAA
:10084800DA6A2FC0DEFF30C0DEFF31C0DEFF32C003
:10085800DEFF0B0E0001D96F260ED86F5D0EE82E55
:10086800FED7D82FFCD7D92FFAD700D0E60E3B6E8B
:10087800BE0E3C6E5150A2D8F0EC1FF0D70E3B6E66
:10088800BE0E3C6E50509AD8F0EF1FF00001D86FA2
:10089800020ED96FC4C1DAF0C5C1DBF0C6C1DCF005
:1008A800C7C1DDF0D96701D007D0DD35DD33DC33D2
:1008B800DB33DA33D92FF6D7DAC00FF0DBC010F00C
:1008C800DCC011F0DDC012F0020E0001DE6FC4C101
:1008D800DFF0C5C1E0F0C6C1E1F0C7C1E2F0DE67F4
:1008E80001D007D0E235E233E133E033DF33DE2FE6
:1008F800F6D7DFC013F0E0C014F0E1C015F0E2C095
:1009080016F01200020E3B6EBF0E3C6EBCC13DF0ED
:10091800BDC13EF0BEC13FF0BFC140F01200F40EB1
:100928003B6EBE0E3C6EC4C13DF0C5C13EF0C6C1B3
:100938003FF0C7C140F012001234123211321032A7
:100948000F3212000FC0B8F110C0B9F111C0BAF1DE
:1009580012C0BBF112000FC0C4F110C0C5F111C024
:10096800C6F112C0C7F112000FC0BCF110C0BDF132
:1009780011C0BEF112C0BFF11200000E10BEFF0E72
:10098800116E126EC4C113F0C5C114F0C6C115F0C2
:10099800C7C116F0120010BEFF0E116E126EB8C15C
:1009A80013F0B9C114F0BAC115F0BBC116F01200AA
:1009B800000E14BEFF0E156E166E1200D96EDA6A9E
:1009C800DECF3DF0DECF3EF0DECF3FF0DECF40F0B1
:1009D80012003C6EC0C13DF0C1C13EF0C2C13FF043
:1009E800C3C140F01200C4C113F0C5C114F0C6C1A0
:1009F80015F0C7C116F01200B8C10FF0B9C110F058
:100A0800BAC111F0BBC112F012000001D86FA55194
:100A1800D96FA651DA6FDB6BDC6B1200E135E1337D
:100A2800E033DF33DE331200DB33DA33D933D83344
:100A38001200DC33DB33DA33D9331200E6D1250E6A
:100A48003A1817E0F5D9DE50DE100EE0F1D901D8DA
:100A5800DCD10500FA6EDE50FD6EDE50FE6EF850F9
:100A6800FF6EFA503A501200D7D93AC0DFFFE6D9E4
:100A7800CCD1386A396A376A1CDA0800F550C0ECFC
:100A880020F001E294D0386A396A38C00FF039C0D2
:100A980010F0126A0A0E116EB8EC1FF00FC038F091
:100AA80010C039F0D00E296E2A6803DA0800F55014
:100AB8002B6E2C6A29502B262A502C222B50382694
:100AC8002C503922264A272AF4D90800F550C0ECC0
:100AD80020F06DE3DAD737886AD0378E7BD039506B
:100AE80003E1020E385C04E33806D8A0390618D0B2
:100AF800386A396A15D09CD9DE50DE100DE098D9D5
:100B080001D80ED00500FA6EDE50FD6EDE50FE6E86
:100B1800F850FF6EFA50200C7FD9200EDF6E8ED968
:100B28003806D8A039063828E6E139282AE0E3D77C
:100B38007FD9DE50DE1013E07BD901D80ED0050036
:100B4800FA6EDE50FD6EDE50FE6EF850FF6EFA5003
:100B58002E50D96EDA6ADF5012002E2A12D02E508B
:100B6800D96EDA6A2550E16EE26AE6CF29F0E5CF60
:100B78002AF029C0E1FF2AC0E2FFDFCFE7FF2E2AD3
:100B88005DD93106D8A032063128D2E1322801E1F8
:100B98003CD1CED77AD9DF503A6E3A0E2E6E000E7F
:100BA800326E010E316E9BD7C00E371213D081D929
:100BB8008ED901E12ED1580A90E03B0AEBE0070AF2
:100BC80009E00D0A07E0050A86E0190AEDE00D0ABA
:100BD80084E0E3D737C029F0C00E29161BE137A8F7
:100BE80002D033D90AD051D9DECF33F0DDCF34F07B
:100BF800000E34BEFF0E356E366E36AE53D0030E81
:100C08003712361E351E341E336C000E3422352240
:100C1800362248D037A802D018D944D036D9DECFEA
:100C280029F0DDCF2AF029C033F02AC034F0356A24
:100C3800366A38D0010E3A6E0A0E3A183AE03A503F
:100C4800040DC90EF324F66EB70EF420F76E0900F2
:100C5800F550335C0900F55034580900F550355803
:100C68000900F550365825E33A2AE6D7010E3A6EC0
:100C7800080E3A181EE03A50040D140EF324F66ECE
:100C8800B80EF420F76E0900F550335C0900F550F2
:100C980034580900F55035580900F550365809E31D
:100CA8003A2AE6D73750C00BC5E0800ADFE0400A91
:100CB800C1E03850391005E011D903E03806D8A052
:100CC8003906800E3ABE7F0E296E38503A5C39508C
:100CD800800A295807E23A50385E000E3ABEFF0EE5
:100CE800395A02D0386A396A385039101BE0A0D80E
:100CF800DE50DE100DE09CD801D80ED00500FA6E4B
:100D0800DE50FD6EDE50FE6EF850FF6EFA50200C7D
:100D180083D8200EDF6E92D83806D8A0390638500E
:100D28003910E5E1DBD815E083D8DE50DE100DE0A0
:100D38007FD801D80ED00500FA6EDE50FD6EDE5069
:100D4800FE6EF850FF6EFA502D0C66D82D0EDF6E31
:100D580075D83A502F6E306A2FBE30064FD09ED8C5
:100D6800C90E2924F66EB70E81D8A8D805EC1AF05A
:100D78000FC01CF010C01DF011C01EF012C01FF0F3
:100D88000A0E206E216A226A236A15EC1BF01C5099
:100D9800300F3A6E1DD092D881D8140E2924F66EE1
:100DA800B80E64D805EC1AF00F500F0B2D6E970E85
:100DB8002D24F66EF76ABE0EF7220800F5CF3AF03A
:100DC80007D03750C00BCBE0800AE5E0400AC7E007
:100DD8002FD8DE50DE100EE02BD801D80FD005003A
:100DE800FA6EDE50FD6EDE50FE6EF850FF6EFA5061
:100DF8003A50120011D83AC0DFFF20D82F06D8A0E9
:100E080030062F28DEE13028DCE153D860D801E035
:100E180016D6256A266A12002550D96EDA6ADECF00
:100E280029F0DDCF2AF029C0D9FF2AC0DAFF120045
:100E38002550D96EDA6A020ED926020C2550D96ED1
:100E4800DA6ADE2A000EDD22000C2850D96EDA6A32
:100E5800040EDF26DF5CD96EDA6ADECF33F0DECF30
:100E680034F0DECF35F0DECF36F012002A20F76EF0
:100E78000900F5CF13F00900F5CF14F00900F5CFFC
:100E880015F00A00F5CF16F012002850D96EDA6A6C
:100E9800DF50DF2ADF2AD96EDA6A12002FC029F064
:100EA80030C02AF0D89029362A36D89029362A36E2
:100EB800120026C0F6FF27C0F7FF120033C00FF05C
:100EC80034C010F035C011F036C012F01200264AB6
:100ED800272A0800F5CF3AF03A50120037C029F017
:100EE800030E2916030C2D6E39D12E6A68D9C55107
:100EF80040EC1EF0CBEC1FF000090EE060D9C551A4
:100F080040EC1EF0CBEC1FF037D9880E2E24D96E9A
:100F1800DA6A010E5FD905D0880E2E2438EC1FF04E
:100F2800DF6A5BEC0FF0CBEC1FF026D98E0E2E2477
:100F3800D96EDA6A010E4ED942D9C45140EC1EF07E
:100F4800CBEC1FF019D9950E2E24D96EDA6A010E52
:100F580041D945D9CBEC1FF00FD99B0E2E24D96E61
:100F6800DA6A010E37D92E2A040E2E64BFD72E6AEC
:100F780026D9C35140EC1EF0CBEC1FF025D90ED971
:100F8800A10E2E24D96EDA6A010E24D967EC0FF06F
:100F9800CBEC1FF019D902D9A50E2E24D96EDA6A26
:100FA800010E18D92E2A020E2E64E2D701018D6B8C
:100FB800800E936F946F9A6BA06BA46B1200FFD88E
:100FC800C55140EC1EF0CBEC1FF00001BA6F16D9EA
:100FD800CBEC1FF00001B96F0CD940EC1EF0CBEC44
:100FE8001FF00001B86F0ED9CBEC1FF00001B76FEE
:100FF800BA51BE1909E1B951BD1906E1B851BC1978
:1010080003E1B751BB1971E03A0E48EC0BF00D0E35
:10101800ADEC1AF00001B751BB1909E0F3D8CBECDD
:101028001FF045EC0FF0190EE1EC16F007D0EAD8E6
:10103800CBEC1FF09BD8190EADEC1AF00001B8519B
:10104800BC190BE0D6D840EC1EF0CBEC1FF045ECF9
:101058000FF0130EE1EC16F009D0CBD840EC1EF0DF
:10106800CBEC1FF083D8130EADEC1AF00001B95188
:10107800BD1909E0C3D8CBEC1FF045EC0FF0070E03
:10108800E1EC16F007D0BAD8CBEC1FF06FD8070EFA
:10109800ADEC1AF094D8C55140EC1EF0CBEC1FF023
:1010A80000091BE00001BA51BE190CE09DD840ECC4
:1010B8001EF0CBEC1FF045EC0FF0010EE1EC16F042
:1010C80050EF0FF091D840EC1EF0CBEC1FF04ED84B
:1010D800010EADEC1AF050EF0FF01B6A4BEC0FF05D
:1010E800010EE1EC16F050EF0FF07ED840EC1EF048
:1010F800CBEC1FF000090BE062D8C55140EC1EF0A4
:10110800CBEC1FF033D8010EADEC1AF006D0176AFD
:101118009AEC0EF0010EADEC1AF05BEC0FF0CBEC94
:101128001FF024D8070EADEC1AF00001C151170FBB
:1011380048EC0BF00D0EADEC1AF041D8C45140EC60
:101148001EF0CBEC1FF012D8130EADEC1AF047D8F6
:10115800CBEC1FF00BD8190EADEF1AF02D50010A89
:1011680001E1C3D6030A01E12AD71200176E6CC049
:1011780018F06DC019F01200050D6CC02BF06DC091
:101188002CF0F3502B26F4502C222E502B26000E38
:101198002C222BC0F6FF2CC0F7FF000CF3502B2697
:1011A800F4502C222E502B26000E2C22030E2B2618
:1011B800000E2C222BC0F6FF2CC0F7FF000C0A0EE5
:1011C800136E0F6E00010A0C030D3E0E2B6EBE0E41
:1011D8002C6E1200DA220800F5CFDFFF12000A0E8B
:1011E800136E0001C45112000A0E136E0F6EC55122
:1011F80012000A0E136E0F6EC45112000A0E136EFF
:10120800C55112000A0E136EC4511200A1D06F50BE
:1012180077EC07F0050E0001C3650DD0070EC3611A
:101228000AD0D70E466ED60E476ED40E486ED50E2F
:10123800496E14EC10F00E0E0001C36505D0100EB7
:10124800C36102D0030E6E6E270EC3658ED0290EC1
:10125800C3618BD0020E6E6E88D003D9BDEC18F036
:10126800680E0F6E180E106E07D945EC19F0260E91
:101278002FEC11F045EC19F020EEC3F010EE60F001
:10128800060EDBCFE3FFE806FCE2050E6E6E6B94FC
:10129800020E6F186AE1170E48EC0BF00D0EADEC5C
:1012A8001AF063D0CE0E506ECA0E516E09EC00F0E3
:1012B800020E6F1806E1170E48EC0BF00D0EADECA0
:1012C8001AF075EC1BF0CDD8BDEC18F0D80E0F6EE7
:1012D8001E0E97D845EC19F071EC13F046D0020EAB
:1012E8006F1806E1170E48EC0BF00D0EADEC1AF076
:1012F800FDEC1BF0B6D8BDEC18F0D20E0F6E290E1F
:1013080080D845EC19F0E8D7050E6E6E58EC12F04F
:10131800BDEC18F0820E526EDE0EE82EFED7522E6D
:10132800FCD7FCEC20F0000920E0A0D8CEEC20F09F
:101338006FD8F0EC1FF08DD8F0EC1FF082D8F0ECED
:101348001FF06FD8F0EC1FF074D8F0EC1FF00DD040
:101358006E50010A82E0030AA5E0010AC0E0070A0C
:10136800D3E0010A01E153D7030A6BA404D053EC7C
:1013780012F0E2EC1AF069500FE0050E136E00014E
:10138800C351CBEC1FF0000905E16BA003D06B90B3
:10139800B8EC1EF028EC1CF06B84FCEC20F0000983
:1013A80010E0530E156ECEEC20F0E20E68EC1FF044
:1013B80053C0B5F054C0D6F00001A96BAA6B6B926C
:1013C80003D00001A94BAA2B590EA95D020EAA59F8
:1013D80001E36B82FCEC20F00009D8B4120046D877
:1013E800CEEC20F015D8F0EC1FF033D8F0EC1FF05D
:1013F80028D8F0EC1FF015D8F0EC1FF01AD8F0EF51
:101408001FF0106E126A116A146A140E136E140C0F
:10141800EC0E3B6EBF0E3C6EA7C03DF0A8C03EF080
:101428001200F20E3B6EBF0E3C6E55C03DF03E6A98
:101438001200E60E3B6EBF0E3C6E56C03DF03E6A93
:101448001200F70E3B6EBF0E3C6E54C03DF03E6A74
:101458001200FB0E3B6EBF0E3C6E53C03DF03E6A61
:101468001200140E0F6E120E106E12000001A74B20
:10147800A82B530E156E1200126A116A146A320EE6
:10148800136E320C41D006D9BDEC18F0D40E0F6E95
:10149800240E05EC0AF045EC19F0260E2FEC11F09D
:1014A80045EC19F0F3EC12F039D0F4D8BDEC18F093
:1014B80058EC12F0BDEC18F049EC12F045EC19F0BC
:1014C80071EC13F007EC21F029D0652A0C0E656445
:1014D80002D0010E656E260E2FEC11F045EC19F0C6
:1014E800E4EC12F0B6EC1DF019D06506655002E187
:1014F8000C0E656E260E2FEC11F045EC19F0E4EC9D
:1015080012F0B6EC1DF00AD06E50010ABCE0030AD6
:10151800DCE0010AEAE0070AC8E0010A6BA4AED0E1
:10152800CC0EB2D8000EADEC1AF0F10EADD8060E06
:10153800ADEC1AF03A0EA8D80C0EADEC1AF084D027
:10154800D10EA2D8120EADEC1AF0F70E9DD8180ED7
:10155800ADEC1AF093D0CB0E97D8120EADEC1AF072
:10156800F20E92D8180EADEC1AF088D0C10E8CD8B5
:10157800120EADEC1AF0F00E87D8180EADEC1AF07A
:101588007DD0CA0E81D8120EADEC1AF0E20E7CD8CE
:10159800180EADEC1AF072D0D20E76D8120EADEC51
:1015A8001AF0F00E71D8180EADEC1AF067D0D70EFD
:1015B8006BD8120EADEC1AF0F00E66D8180EADEC22
:1015C8001AF05CD0CB0E60D8120EADEC1AF0EF0E0C
:1015D8005BD8180EADEC1AF051D0D10E55D8120EBA
:1015E800ADEC1AF0EF0E50D8180EADEC1AF046D04C
:1015F800C20E4AD8120EADEC1AF0F00E45D8180EED
:10160800ADEC1AF03BD0C60E3FD8120EADEC1AF076
:10161800F20E3AD8180EADEC1AF030D0CB0E34D802
:10162800120EADEC1AF0F10E2FD8180EADEC1AF020
:1016380025D0C30E29D8120EADEC1AF0F00E24D81E
:10164800180EADEC1AF01AD06550010A01E178D7EE
:10165800030A81E0010A8AE0070A93E0010A9CE094
:10166800030AA5E0010AAEE00F0AB7E0010AC0E0EC
:10167800030AC9E0010AD2E0070ADBE053EC12F0E2
:10168800E2EC1AF06B841200176E440E186EB80E56
:10169800196E12008C0E0F6E140E106E1200880E4A
:1016A80077EC1CF012C0A5F013C0A6F08A0E77ECF8
:1016B8001CF012C0A3F013C0A4F08C0E77EC1CF041
:1016C80012C0A1F013C0A2F08E0E77EC1CF012C06D
:1016D800D2F013C0D3F0900E77EC1CF012C09FF03C
:1016E80013C0A0F0920E77EC1CF012C09DF013C04E
:1016F8009EF0940E77EC1CF012C09BF013C09CF087
:10170800960E77EC1CF012C099F013C09AF0980E60
:1017180077EC1CF012C097F013C098F09A0E77EC93
:101728001CF012C095F013C096F09C0E77EC1CF0DC
:1017380012C093F013C094F09E0E77EC1CF012C008
:1017480091F013C092F0CC0E116EF50E88EC20F0DB
:10175800B70E116EF40E88EC20F00B0E476E260EB5
:10176800466E5E0EE82EFED7462EFCD7472EFAD7D9
:10177800AD0E3B6EBF0E3C6EA5C03DF0A6C03EF060
:10178800F0EC1FF02B0E3B6EBF0E3C6EA3C03DF07D
:10179800A4C03EF0F0EC1FF0450E3B6EBF0E3C6E51
:1017A800A1C03DF0A2C03EF0F0EC1FF0A00E3B6ED1
:1017B800BF0E3C6ED2C03DF0D3C03EF0F0EC1FF03F
:1017C8001E0E3B6EBF0E3C6E9FC03DF0A0C03EF0AB
:1017D800F0EC1FF0380E3B6EBF0E3C6E9DC03DF026
:1017E8009EC03EF0F0EC1FF0520E3B6EBF0E3C6EFA
:1017F8009BC03DF09CC03EF0F0EC1FF05F0E3B6ECE
:10180800BF0E3C6E99C03DF09AC03EF0F0EC1FF060
:101818006C0E3B6EBF0E3C6E97C03DF098C03EF01C
:10182800F0EC1FF0790E3B6EBF0E3C6E95C03DF09C
:1018380096C03EF0F0EC1FF0860E3B6EBF0E3C6E7D
:1018480093C03DF094C03EF0F0EC1FF0930E3B6E59
:10185800BF0E3C6E91C03DF092C03EF0F0EF1FF01D
:101868006BB602D06B866FD06B966DD0C8D8BDECC6
:1018780018F0C40E0F6E1B0E106E40EC0AF045EC0B
:1018880019F0260E2FEC11F045EC19F06F0413E156
:10189800B1D840EC1EF0CBEC1FF0BAEC08F00D0EFE
:1018A800ADEC1AF0B1D8CBEC1FF0BAEC08F0130E7F
:1018B800ADEC1AF015D0E3EC08F0C45140EC1EF082
:1018C800CBEC1FF0BAEC08F0130EADEC1AF0F3EC09
:1018D80008F0CBEC1FF0BAEC08F0190EADEC1AF0DA
:1018E80071EC13F03AD08BD8BDEC18F058EC12F02C
:1018F800BDEC18F049EC12F045EC19F0050E6E6ECF
:1019080007EC21F02AD0612A3B0E616401D0616A9C
:10191800260E2FEC11F045EC19F09FEC0EF0A1EC1F
:101928001EF0050E6E6E19D06106612802E13B0EAD
:10193800616E260E2FEC11F045EC19F09FEC0EF0BD
:10194800A1EC1EF0EED76E50010A90E0030ADBE02E
:10195800010AEAE0070AC7E0010A6BA445D06BA6B2
:1019680028D06F0413E146D840EC1EF0CBEC1FF0F2
:10197800BAEC08F00D0EADEC1AF046D8CBEC1FF01F
:10198800BAEC08F0130EADEC1AF02ED033D840ECB8
:101998001EF0CBEC1FF0BAEC08F0130EADEC1AF009
:1019A80033D8CBEC1FF0BAEC08F0190EADEC1AF0F6
:1019B8001BD06F040DE1176A9AEC0EF00D0EADEC1A
:1019C8001AF0176A9AEC0EF0130EADEC1AF00CD060
:1019D800176A9AEC0EF0130EADEC1AF0176A9AEC2F
:1019E8000EF0190EADEC1AF053EC12F0E2EC1AF00E
:1019F8006B8412000A0E136E0F6E61501200680E8F
:101A08000F6E180E106E12000A0E136E615012003F
:101A180041D0CFD8BDEC18F0F40E0F6E260E05ECB1
:101A28000AF045EC19F0260E2FEC11F045EC19F0F0
:101A3800F3EC12F039D0BDD8BDEC18F058EC12F028
:101A4800BDEC18F049EC12F045EC19F071EC13F00C
:101A580007EC21F029D0632A070E636402D0010E37
:101A6800636E260E2FEC11F045EC19F0E4EC12F041
:101A7800B6EC1DF019D06306635002E1070E636EE1
:101A8800260E2FEC11F045EC19F0E4EC12F0B6EC50
:101A98001DF00AD06E50010ABCE0030ADCE0010A1E
:101AA800EAE0070AC8E0010A6BA47DD0C40E48EC3E
:101AB8000BF0000EADEC1AF0ED0E48EC0BF0060E34
:101AC800ADEC1AF03A0E48EC0BF00C0EADEC1AF037
:101AD8005BD0CF0E48EC0BF0120EADEC1AF0ED0E09
:101AE80048EC0BF0180EADEC1AF05DD0C20E48ECC5
:101AF8000BF0120EADEC1AF0F20E48EC0BF0180ECB
:101B0800ADEC1AF050D0D10E48EC0BF0120EADEC43
:101B18001AF0F00E48EC0BF0180EADEC1AF043D0AA
:101B2800D70E48EC0BF0120EADEC1AF0F20E48ECA2
:101B38000BF0180EADEC1AF036D0CF0E48EC0BF0C7
:101B4800120EADEC1AF0F20E48EC0BF0180EADECDC
:101B58001AF029D0D10E48EC0BF0120EADEC1AF0A9
:101B6800E10E48EC0BF0180EADEC1AF01CD0CD0EBF
:101B780048EC0BF0120EADEC1AF0E40E48EC0BF04A
:101B8800180EADEC1AF00FD06350010AF0E0030A0A
:101B9800A0E0010AABE0070AB6E0010AC1E0030AC7
:101BA800CCE0010AD7E053EC12F0E2EC1AF06B84B7
:101BB8001200180E0F6E1A0E106E12006BB602D0BD
:101BC8006B8647D06B9645D0C0D8BDEC18F0EE0EAA
:101BD8000F6E250E05EC0AF045EC19F0260E2FECD9
:101BE80011F045EC19F0050E6E6E07EC21F06B94C0
:101BF8003AD0ABD8BDEC18F058EC12F0BDEC18F0A8
:101C080049EC12F045EC19F0050E6E6E07EC21F068
:101C18002AD0622A170E626401D0626A260E2FEC5F
:101C280011F045EC19F0050E6E6E85D8A1EC1EF08A
:101C38001AD06206622802E1170E626E260E2FEC99
:101C480011F045EC19F0050E6E6E75D8A1EC1EF07A
:101C58000AD06E50010AB8E0030ADBE0010AE9E0A5
:101C6800070AC7E0010A6BA45BD06BA642D06F04D9
:101C780020E166D840EC1EF0CBEC1FF000090BE029
:101C88005FD840EC1EF0CBEC1FF0BAEC08F0000E69
:101C9800ADEC1AF005D0176A49D8000EADEC1AF071
:101CA80059D8CBEC1FF0BAEC08F0060EADEC1AF0E0
:101CB80037D046D840EC1EF0CBEC1FF000090BE003
:101CC8003FD840EC1EF0CBEC1FF0BAEC08F0010E48
:101CD800ADEC1AF005D0176A29D8010EADEC1AF050
:101CE80039D8CBEC1FF0BAEC08F0070EADEC1AF0BF
:101CF80017D06F040BE1176A19D8000EADEC1AF073
:101D0800176A14D8060EADEC1AF00AD0176A0ED866
:101D1800010EADEC1AF0176A09D8070EADEC1AF0EF
:101D280053EC12F0E2EC1AF06B841200440E186EB9
:101D3800B80E196E120061C01CF01D6A62501200C4
:101D48000A0E136E0F6E62501200C40E0F6E1B0E39
:101D5800106E12000A0E136E6250120007EC21F08A
:101D680089D0E3EC08F0C55140EC1EF0CBEC1FF035
:101D780000090CE0E3EC08F0C55140EC1EF0CBEC98
:101D88001FF07FD8000EE1EC16F005D01B6A7FD853
:101D9800000EE1EC16F08BD8CBEC1FF072D8060ED3
:101DA800E1EC16F0E3EC08F0C45140EC1EF0CBEC8B
:101DB8001FF067D80D0EE1EC16F0F3EC08F0CBEC51
:101DC8001FF05FD8130EE1EC16F076D846EC1BF046
:101DD800E3EC08F0C35140EC1EF0CBEC1FF02B6E87
:101DE8002B281A6E190E85EC16F06DD8CBEC1FF067
:101DF8002B6E2B281A6E1D0E85EC16F04DD0E3ECD9
:101E080008F0C55140EC1EF0CBEC1FF000090CE0C7
:101E1800E3EC08F0C55140EC1EF0CBEC1FF031D8D4
:101E2800010EE1EC16F005D01B6A31D8010EE1EC89
:101E380016F03DD8CBEC1FF024D8070EE1EC16F0D5
:101E48003A0ECAEC11F00D0EE1EC16F0E3EC08F0D6
:101E5800C45140EC1EF0CBEC1FF013D8130EE1EC8C
:101E680016F0F3EC08F0CBEC1FF00BD8190EE1ECF0
:101E780016F012D06F50010A01E173D7030ABFE0D0
:101E88000BD01B6E6CC01CF06DC01DF01200440E10
:101E98001C6EB80E1D6E12000001C16BBAC0BEF0F8
:101EA800B9C0BDF0B8C0BCF0B7C0BBF012000A0E94
:101EB800136E0001C5511200C50E146EC40E156EC6
:101EC800C30E166E12000A0E136E0001C3511200E3
:101ED80088D007EC21F095D841E0CEC00FF0CFC0F4
:101EE80010F0D0C011F0D1C012F0640E136E146A55
:101EF800156A166A05EC1AF00FC044F010C045F0D8
:101F08008CD878EC1AF0126A640E81D835EC1DF082
:101F180070D879EC1DF0165045EC0FF00B0EE1EC83
:101F280016F0126A0A0E73D835EC1DF062D879ECF7
:101F38001DF0165045EC0FF0110EE1EC16F044C000
:101F480016F045C017F0AEEC10F079EC1DF0165005
:101F580045EC0FF0170EE1EC16F015D05ED878ECD2
:101F68001AF0450ECAEC11F00B0EE1EC16F0520E09
:101F7800CAEC11F0110EE1EC16F0520ECAEC11F099
:101F8800170EE1EC16F0060E6E6E4CEC15F0010E15
:101F9800126E900E48EC15F045EF19F0050E6E6EB6
:101FA80030D80DE0000E3B6E020E3C6EDC0E3D6E2E
:101FB800BF0E3E6E72EC1EF011EC1FF002D0FDEC6D
:101FC8001BF0B2EC0EF058EC12F0BDEC18F0D80E85
:101FD8000F6E1E0E106EBDEC18F049EC12F045EFB6
:101FE80019F06E50040ADAE0010A01E172D7030A17
:101FF80012000FC016F010C017F0196A0A0E186EFA
:102008000A0C0001CE51CF11D011D1111200116E5E
:1020180044C00FF045C010F01200040E146E030CFB
:102028004750D96EDA6A2B0EDF6E8AD098EC1DF015
:102038000009D8A41200CC0ED3EC1DF0440ED3EC4A
:102048001DF04950D96EDA6ADF6A4850D96EDA6AEB
:10205800020EDF6ECD80020C98EC1DF0CC0ED3EC96
:102068001DF0BE0ED3EC1DF04E6A4E50800FD96E97
:10207800DA6AEFEC1DF0DF6E4E2A010E4E64F5D7DA
:10208800000181514A6E80514F6E4AC050F050AEE7
:1020980009D04F6C501ED8B0502A4750D96EDA6A12
:1020A8002D0EDF6E4F500F0B4D6E340E4D24F66E15
:1020B800F76AB80EF7220800F5CF4DF04F3A503ABC
:1020C8000F0E4F165050F00B4F120F0E50164F5068
:1020D8000A0DF3CF4FF0F4CF50F04D504F26000EBD
:1020E8005022840E3B6EBE0E3C6E4FC03DF050C079
:1020F8003EF0F0EC1FF04FC016F050C017F02AD891
:1021080079EC1DF016504C6E4FC00FF050C010F017
:10211800126A0A0E116E35EC1DF00FC04FF010C098
:1021280050F0050E4C6402D04F4A502A4650D96EE2
:10213800DA6A4FC0DFFF4850D96EDA6ADF6A000CEE
:102148004850D96EDA6ADF5001E170D7010A84E09D
:10215800030A1200196A0A0E186E0A0C3DD069505B
:1021680010E08AD8BDEC18F049EC12F045EC19F0F3
:1021780058EC12F0BDEC18F071EC13F007EC21F0FC
:1021880035D07AD8BDEC18F0B60E0F6E230E05ECDC
:102198000AF045EC19F0260E5ED845EC19F0ECD79C
:1021A8006BD8BDEC18F058EC12F0BDEC18F049EC07
:1021B80012F045EC19F0E0D758D84DD845EC19F095
:1021C80060D802EC20F012D050D845D845EC19F070
:1021D80058D802EC20F00AD06E50010AC0E0030A79
:1021E800EBE0010AF1E0070ADBE0010A6BA42DD05D
:1021F800DF0E48EC0BF0000EADEC1AF0F10E48ECD7
:102208000BF0060EADEC1AF03A0E48EC0BF00C0E83
:10221800ADEC1AF069500DE0C00E48EC0BF0120E50
:10222800ADEC1AF0E20E48EC0BF0180EADEC1AF01B
:102238000CD0CF0E48EC0BF0120EADEC1AF0F10EEC
:1022480048EC0BF0180EADEC1AF053EC12F0E2EC7F
:102258001AF06B8412000F6E430E106E070E126E8A
:10226800D00E116E146A136AD00C6950010ED8A4EE
:10227800000E696E260E1200640E0F6E210E106E8F
:102288001200050E6E6E69C00FF0020C78D007ECD4
:1022980021F06BA213D088D878EC1AF0450E76D8C6
:1022A800090EE1EC16F0720E71D80F0EE1EC16F083
:1022B800720E6CD8150EE1EC16F044D0E3EC08F081
:1022C800B55140EC1EF0CBEC1FF0000918E16CD8BA
:1022D80078EC1AF0D6C01BF04BEC0FF0090EE1ECCD
:1022E80016F05DD8CBEC1FF045EC0FF00F0EE1ECCB
:1022F80016F0B00E4BD8150EE1EC16F023D054D8DA
:1023080078EC1AF0D6C01BF04BEC0FF0090EE1EC9C
:1023180016F0E3EC08F0B55140EC1EF0CBEC1FF0E2
:1023280045EC0FF00F0EE1EC16F039D8CBEC1FF0AE
:1023380045EC0FF0160EE1EC16F0B00E27D81B0E88
:10234800E1EC16F0060E6E6E4CEC15F025D848EC54
:1023580015F045EF19F0050E6E6EFDEC1BF0B2ECB2
:102368000EF058EC12F0BDEC18F0940E0F6E220E21
:10237800106EBDEC18F049EC12F045EF19F06E50F4
:10238800040AE9E0010A83E0030A12001B6E440E06
:102398001C6EB80E1D6E1200020E126E8A0C0A0E0A
:1023A800136E0001B5511200020E146E000C3AD0E3
:1023B80085D8BDEC18F069D845EC19F075D8BDEC96
:1023C80018F071EC13F007EC21F036D077D8BDEC9B
:1023D80018F06AD8BDEC18F058D845EC19F0F1D7C8
:1023E800682A080E686401D0686A260E2FEC11F07E
:1023F80045EC19F05ED802EC20F065D86AEC20F0C4
:102408001BD06806682802E1080E686E260E2FECBD
:1024180011F045EC19F04DD802EC20F054D86AECD4
:1024280020F00AD06E50010AC3E0030AD9E0010A7D
:10243800E8E0070ACBE0010A6BA422D0DF0E48ECE3
:102448000BF0000EADEC1AF0F10E48EC0BF0060E96
:10245800ADEC1AF03A0E48EC0BF00C0EADEC1AF09D
:102468000A0E136E6850CBEC1FF0BAEC08F0120E8F
:10247800ADEC1AF0176A9AEC0EF0180EADEC1AF0E3
:102488000ED8E2EC1AF06B841200140E0F6E120EC6
:10249800106E126A116A146A140E136E140C880EE8
:1024A800116E010E126E1200260E0F6E430E106E84
:1024B8001200050E6E6E68C00FF0030CB60E0F6E9C
:1024C800230E106E120068C011F00A0C3ED082D89C
:1024D800BDEC18F0180E0F6E1A0E05EC0AF045EC5C
:1024E80019F0260E2FEC11F045EC19F078D837D0FA
:1024F80071D8BDEC18F058EC12F0BDEC18F049ECAE
:1025080012F045EC19F071EC13F007EC21F027D02C
:10251800642A1F0E646402D0010E646E260E2FEC2E
:1025280011F045EC19F04CD8B6EC1DF018D0640643
:10253800645002E11F0E646E260E2FEC11F045EC7C
:1025480019F03ED8B6EC1DF00AD06E50010ABFE073
:10255800030ADEE0010AEBE0070ACAE0010A6BA4FD
:1025680029D0D70E48EC0BF0000EADEC1AF0F10EA6
:1025780048EC0BF0060EADEC1AF03A0E48EC0BF0F6
:102588000C0EADEC1AF00A0E136E0F6E645040EC90
:102598001EF0CBEC1FF0BAEC08F0120EADEC1AF0FE
:1025A8000A0E136E6450CBEC1FF0BAEC08F0180E4C
:1025B800ADEC1AF053EC12F0E2EC1AF06B84120056
:1025C800050E6E6E64C01CF065C01DF066C01EF07E
:1025D80063501200D40E0F6E240E106E1200050EFA
:1025E8006E6E6B84050C3ED07CD8BDEC18F08C0E5A
:1025F8000F6E140E05EC0AF045EC19F0260E2FECC0
:1026080011F045EC19F069D837D06BD8BDEC18F04B
:1026180058EC12F0BDEC18F049EC12F045EC19F04A
:102628005CD807EC21F028D0662A630E666401D0D6
:10263800666A260E2FEC11F045EC19F0E4EC12F066
:10264800B6EC1DF019D06606662802E1630E666EC8
:10265800260E2FEC11F045EC19F0E4EC12F0B6EC74
:102668001DF00AD06E50010ABFE0030ADDE0010A3E
:10267800EAE0070ACAE0010A6BA429D0D00E48ECA8
:102688000BF0000EADEC1AF0EA0E48EC0BF0060E5B
:10269800ADEC1AF03A0E48EC0BF00C0EADEC1AF05B
:1026A8000A0E136E0F6E665040EC1EF0CBEC1FF056
:1026B800BAEC08F0120EADEC1AF00A0E136E665062
:1026C800CBEC1FF0BAEC08F0180EADEC1AF053EC96
:1026D80012F0E2EC1AF06B841200050E6E6E6B9429
:1026E800050CEE0E0F6E250E106E12003FD077D837
:1026F800BDEC18F0F00E0F6E270E05EC0AF045EC55
:1027080019F0260E2FEC11F045EC19F071EC13F0CE
:1027180007EC21F035D063D8BDEC18F058EC12F076
:10272800BDEC18F049EC12F045EC19F0EFD76A2A25
:10273800050E6A6402D0010E6A6E260E2FEC11F0A7
:1027480045EC19F047D802EC20F00FEC1DF018D03A
:102758006A066A5002E1050E6A6E260E2FEC11F029
:1027680045EC19F037D802EC20F0EFD76E50010A8B
:10277800BEE0030ADCE0010AEBE0070ACCE0010A4C
:102788006BA422D0D80E48EC0BF0000EADEC1AF07A
:10279800F00E48EC0BF0060EADEC1AF03A0E48ECD1
:1027A8000BF00C0EADEC1AF00A0E136E6A50CBEC5F
:1027B8001FF0BAEC08F0120EADEC1AF0176A9AEC9A
:1027C8000EF0180EADEC1AF053EC12F0E2EC1AF021
:1027D8006B841200050E6E6E6AC00FF0000CF40ECA
:1027E8000F6E260E106E12003DD075D8BDEC18F095
:1027F800640E0F6E210E05EC0AF045EC19F0260E5A
:102808002FEC11F045EC19F071EC13F007EC21F006
:1028180033D061D8BDEC18F058EC12F0BDEC18F0CC
:1028280049EC12F045EC19F0EFD76F2A020E6F64ED
:1028380002D0010E6F6E260E2FEC11F045EC19F048
:1028480045D802EC20F018D06F066F5002E1020E56
:102858006F6E260E2FEC11F045EC19F037D802EC0C
:1028680020F00AD06E50010AC0E0030ADEE0010A37
:10287800EBE0070ACEE0010A6BA422D0D20E48ECA6
:102888000BF0000EADEC1AF0EF0E48EC0BF0060E54
:10289800ADEC1AF03A0E48EC0BF00C0EADEC1AF059
:1028A8000A0E136E6F50CBEC1FF0BAEC08F0120E44
:1028B800ADEC1AF0176A9AEC0EF0180EADEC1AF09F
:1028C80053EC12F0E2EC1AF06B841200050E6E6EF7
:1028D8006FC00FF0010CF00E0F6E270E106E120075
:1028E8000001C25118E0C26B5D6A12D05D505ED81B
:1028F800DE50DE1007E15D50080D60D8010EDE6E77
:10290800DD6A05D05D5052D8DE06000EDD5A5D2A1C
:1029180067505D5CEBE35E6A45D05E50080D4ED8AB
:10292800DE04DE103EE15E506FEC17F0DECF5BF0A8
:10293800DDCF5CF05E5081EC17F0DE50DE100AE16E
:102948005E506FEC17F0DECF0FF0DDCF10F0BDEC6E
:1029580018F01BD05E5077EC17F05E5027D8DE5089
:10296800DE1013E1576858685E5081EC17F0DECF2F
:1029780059F0DDCF5AF05750592658505A225E5018
:1029880015D859C0DEFF5AC0DDFF01D80AD00500AE
:10299800FA6E5B50FD6E5C50FE6EF850FF6EFA509A
:1029A80012005E2A67505E5CB8E31200080D020E42
:1029B800F324D96E010EF420DA6E1200060EF32409
:1029C800D96E010EF420DA6E120057D007EC21F010
:1029D800E3EC08F0D75140EC1EF0CBEC1FF00009F7
:1029E80012E160D878EC1AF058D8CBEC1FF045EC1F
:1029F8000FF00D0EE1EC16F0B00ECAEC11F0130E4C
:102A0800E1EC16F01DD04ED878EC1AF0E3EC08F0A3
:102A1800D75140EC1EF0CBEC1FF045EC0FF00D0E3B
:102A2800E1EC16F03AD8CBEC1FF045EC0FF0130EA2
:102A3800E1EC16F0B00ECAEC11F0190EE1EC16F04C
:102A4800060E6E6E25D8D0EC11F01ED845EF19F0A1
:102A5800050E6E6E75EC1BF058EC12F0BDEC18F01C
:102A6800D20E0F6E290E106EBDEC18F0940E0F6E7C
:102A7800220E05EC0AF045EF19F06E50040AE8E062
:102A8800010AA4E0030A1200116E146A136A120004
:102A9800260E0F6E430E106E12000A0E136E000102
:102AA800D7511200010E146E030C266E2B6A2C6A85
:102AB8002D6A2E6A2F6A61D885EC21F0EC0E77EC2E
:102AC80021F0265077EC21F089EC21F0ED0E77EC1F
:102AD80021F0010E26EC20F0276E286A296A2A6A5E
:102AE800010E26EC20F02B6E2C6A2D6A2E6A000E41
:102AF80026EC20F02F6E41D881EC21F02BC017F086
:102B08002CC018F02DC019F0166A27C01AF028C07A
:102B18001BF029C01CF02AC01DF01BC01DF01AC0F4
:102B28001CF01B6A1A6A16501A241E6E17501B20B6
:102B38001F6E18501C20206E19501D20216E2F501A
:102B48001E24226E30501F20236E31502020246E08
:102B580032502120256E050E05D0D890253224321A
:102B680023322232E82EF9D722C012F023C013F004
:102B780024C014F025C015F01200306A316A326A98
:102B8800120022C026F0276A286A2134263601E37B
:102B980027802650296E295001E153D025C026F000
:102BA800276A286A2434263601E3278026502E6EA9
:102BB8002E5001E146D02E507B0F292622C02EF040
:102BC80025502E1A800E2E16218E248E000E2516C4
:102BD8002A6A2B6A2C6A070E2D6E20B02BD8D89043
:102BE800223221322032D8902336243625362D2E13
:102BF800F4D7090E2D6E20B01DD8D890223221327C
:102C08002032D8902C322B322A322D2EF4D72AC0DB
:102C18000FF02BC010F02CC011F029C012F02EC0FC
:102C280013F002EC19F00FC020F010C021F011C011
:102C380022F0120023502A2624502B2225502C2221
:102C48001200206A216A226A120031C033F0346A05
:102C5800356A3034333601E3348033503D6E3D50AD
:102C680005E12F6A306A316A326A1200170E336E34
:102C78002FC034F030C035F031C036F03328376E0D
:102C880004D0D890363235323432372EFAD7345011
:102C9800386E308E316A2F50396E30503A6E31505E
:102CA8003B6E3C6A8E0E3D5E3DAE0CD03D50800AB8
:102CB8008F0FD7E3D8903C323B323A3239323D3E1F
:102CC800F9D70CD0170E3D6407D0CBD7D89039363A
:102CD8003A363B363C363D063D50F8E1385008E080
:102CE8003C1E3B1E3A1E396C000E3A223B223C2207
:102CF80039C02FF03AC030F03BC031F03CC032F060
:102D08001200246E266A276A880E1B6E010E1C6E3E
:102D180024501B26000E1C2227501B24D96E000E9F
:102D28001C20DA6E265007081D6E1A50030D3E0E41
:102D38001E6EBE0E1F6EF3501E26F4501F22275023
:102D48001E26000E1F221EC0F6FF1FC0F7FF080038
:102D5800F5CF20F01D2A02D0D89020321D2EFCD7A6
:102D6800880E216E010E226E24502126000E22228A
:102D780027502124E16E000E2220E26EE750236ED8
:102D8800D89023342010DF6E272A020E2764BCD780
:102D9800256A0D0E1B6EFC0EE82EFED71B2EFCD7E7
:102DA800252A270E2564F5D753EC12F0E2EC1AF029
:102DB800262A070E2664A7D7070C276E296A2A6ACF
:102DC800880E1E6E010E1F6E27501E26000E1F2233
:102DD8002A501E24D96E000E1F20DA6E29500708CB
:102DE800206E1B50050D1CC021F01DC022F0F350B1
:102DF8002126F45022222A502126000E222221C008
:102E0800F6FF22C0F7FF0800F5CF23F0202A02D0F2
:102E1800D8902332202EFCD7880E246E010E256E02
:102E280027502426000E25222A502424E16E000E65
:102E38002520E26EE750266ED89026342310DF6EE8
:102E48002A2A040E2A64BCD7286A0D0E1E6EFC0EB0
:102E5800E82EFED71E2EFCD7282A270E2864F5D781
:102E680053EC12F0E2EC1AF0292A070E2964A7D7CE
:102E7800070C0150021001E11200096A15D009502F
:102E88002AD80150DE180FE10250DE180CE1F29E3C
:102E98000950DAEC14F03ED809502FD836D809502A
:102EA80022D8F28E000C092A6750095CE8E30F0E5D
:102EB80067600F0CF29E67500ED801C0DEFF02C09B
:102EC800DDFF6750DAEC14F025D8675016D81DD806
:102ED800675009D824D0080D000EF324D96E010ECE
:102EE800F420DA6E1200080D060EF324D96E010ED6
:102EF800F420DA6EDE6ADD6A1200080D040EF3248F
:102F0800D96E010EF420DA6E120005C0DEFF06C08D
:102F1800DDFF120003C0DEFF04C0DDFF1200672AD8
:102F2800F28E000C196E8B848B9218C0ABF0640E75
:102F3800166EBE0E176E5BEC20F05F0E166EBE0EA0
:102F4800176E30EC21F019C011F0050EF1EC20F0ED
:102F5800116A110EF1EC20F018C011F0120EF1EC0C
:102F680020F0116A130EF1EC20F0116A140EF1EC46
:102F780020F0116A150EF1EC20F0116A160EF1EC32
:102F880020F0060E116EF1EC20F0080E116E000E06
:102F9800F1EC20F0030E116E010EF1EC20F0030E9F
:102FA800116E020EF1EC20F04F0E116E040EF1ECD2
:102FB80020F0116A1C0EF1EC20F026EF1EF0116AC9
:102FC800890E11243FD811242ED8112A1E0E1164FF
:102FD800F7D7040E0001BF650FD02CD807E1BF2B2F
:102FE8001F0EBF65010CC06BBF6B000C0101A76B06
:102FF8000001BF6BC02B010C1DD8050D440E0F6ED0
:10300800B80E106EF3500F26F4501022BF510F2641
:10301800000E10220FC0F6FF10C0F7FF0800F5CF12
:10302800A7F1BF2B010CE16EE26A010EE222DFCFAD
:10303800E7FF1200000EC025D96EDA6A020EDA2206
:10304800DF501200D96EDA6A010EDA22880E1200F9
:103058000600D9CF0BF0DACF0CF0F3CF0DF0F4CF98
:103068000EF0F2BAF2A403D062EC21F030D0F2B83C
:10307800F2A211D0F292010EF1AC000EFF0A0A6E14
:103088000A3A0A460A46F1500A18BF0B0A18F16EA6
:103098004AEC20F01CD09DB09EA008D09E903C0E1B
:1030A800CF6EB00ECE6E1DEC21F011D0A0B2A1A251
:1030B80008D0A192EC0EB36E780EB26E79EC20F0C7
:1030C80006D0F2BC9DAA03D09EBA38EC20F00EC000
:1030D800F4FF0DC0F3FF0CC0DAFF0BC0D9FF7092EC
:1030E80011005AEC1DF0E6EC20F05AEC1EF096ECBC
:1030F80020F090EC21F039EC21F07DEC1FF04AEC47
:1031080021F053EC1FF053EC0BF0106A0F6A27EC18
:1031180021F06A6E106A010E0F6E27EC21F06F6EB7
:10312800106A020E0F6E27EC21F0696E106A030E0A
:103138000F6E27EC21F0686E67EC12F06AEC20F055
:103148000FEC1DF08DEC21F042EC21F0040E186E0E
:10315800640E96EC17F0800E0F6E340E106E126A25
:10316800280E116E02D845EF19F0146A140E136E6A
:10317800140C176A3FD017506FEC17F00F50DE1879
:1031880038E11050DE1835E1F29E1750116E126AC0
:10319800136814686750156E166A13501526145074
:1031A80016221150151803E1125016181FE0675027
:1031B800116E126AD89011361236D890113612361E
:1031C800D89011361236F80E1124D96E000E12203E
:1031D800DA6E1750080D000EF324E16E010EF4208C
:1031E800E26E070EDBCFE3FFE806FCE26706F28E2D
:1031F8001200172A6750175CBEE31200125004E051
:103208000F501010111006E10F6A106A116A1200AF
:10321800122A2DD8146A156AFE0E11142DD807E04B
:10322800F7D7122A0F2A000E1022112220D8146A6A
:10323800156A115021D806E0F4D71206D8900F3637
:103248001036113610BE03D0020E1260F6D712A047
:10325800109ED890123212501112135001E0118EA4
:103268000FC00FF010C010F011C011F01200D8906C
:10327800113210320F321200166E1450151016103B
:1032880012000F50101001E11200176A18D01750E1
:103298006FEC17F00F50DE1811E11050DE180EE138
:1032A800F29E1750DAEC14F02AD8175081EC17F078
:1032B80021D8175077EC17F0F28E000C172A6750B8
:1032C800175CE5E30F0E67600F0CF29E67506FEC1A
:1032D80017F00FC0DEFF10C0DDFF6750DAEC14F006
:1032E8000ED8675081EC17F005D8675077EC17F0C7
:1032F80093EF17F013C0DEFF14C0DDFF120011C0FA
:10330800DEFF12C0DDFF12001750D96EDA6A060E12
:103318003DEC1FF0DF6E1750D96EDA6A175022D8CD
:1033280012EC21F02DD8050E3DEC1FF01F0B28D80C
:10333800165018D812EC21F019D8040E3DEC1FF0E5
:103348003F0B14D815500ED812EC21F014D8030EE8
:103358003DEC1FF0070B0FD8145004D812EC21F0E5
:10336800DF6E1200E16EE26AE7501200DF6E155060
:10337800D96EDA6A1200DF6E1450D96EDA6A12005A
:10338800DF6E1650D96EDA6A1200300EF66E430EF2
:10339800F76E000EF86E0900F5CFEBF00900F5CFD7
:1033A800ECF02C0EF66E430EF76E000EF86E00EE83
:1033B8006CF010EE04F00900F5CFEEFFE550E15097
:1033C800FAE102EE00F0640EEE6AE806FDE101EEB5
:1033D80000F0A80EEE6AE806FDE100EE80F0580E57
:1033E800EE6AE806FDE16B6A00EE60F00B0EEE6A2D
:1033F800E806FDE170907092000EF86E000151EF42
:103408001CF0176A186A196A1A6A135014101510F2
:10341800161029E0010E1B6E06D0D890133614360C
:10342800153616361B2A16AEF8D7D8901736183622
:1034380019361A3613500F5C14501058155011587D
:103448001650125809E313500F5E1450105A1550B5
:10345800115A1650125A1780D89016321532143253
:1034680013321B2EE2D717C00FF018C010F019C086
:1034780011F01AC012F012000001B6510BE0E5EC91
:103488001EF01F6EB351890FD96EDA6A1FC0DFFFB5
:10349800B32B1200240E89191EE020D08B510A0D7F
:1034A800F3508C25F00F626E8D510A0DF3508E2566
:1034B800F00F616E9FEC0EF0A1EC1EF04F0E0BECBE
:1034C8001EF04B0E0BEC1EF00D0E0BEC1EF00A0E50
:1034D8000BEC1EF003D08A51740AE0E00001896BFE
:1034E8008A6BB36B7DEF21F0186E010E176E1A6AA6
:1034F800196A1450070DF10E156EB70E166EF350BB
:103508001526F45016221A501526000E162215C03C
:10351800F6FF16C0F7FF0800F550171407E019C0AA
:103528000FF018501A2427EC1FF006D019C00FF01E
:1035380018501A2491EC1FF0D8901736192A070E44
:103548001964D7D7010E176E1A2A060E1A64D0D737
:10355800060C1D6E010E1C6E1F6A1E6A1750050DA3
:1035680018C01AF019C01BF0F3501A26F4501B2289
:103578001F501A26000E1B221AC0F6FF1BC0F7FFA9
:103588000800F5501C1407E01EC00FF01D501F2442
:1035980027EC1FF006D01EC00FF01D501F2491EC21
:1035A8001FF0D8901C361E2A070E1E64D7D7010EAE
:1035B8001C6E1F2A040E1F64D0D7040C196A8C9045
:1035C800186A030E136E146A1850135E000E145A0C
:1035D800D89013361436D89013361436D89013363C
:1035E800143611C015F012C016F0135015261450D9
:1035F800162219501524D96E000E1620DA6EDF50E7
:10360800176E192814EC20F0175014EC20F0182A23
:10361800030E1864D6D78C80192A070E1964CFD7E1
:10362800070C205021102210231023E0010E246ED5
:1036380006D0D8902036213622362336242A23AEC7
:10364800F8D720501C5C21501D5822501E5823507A
:103658001F5808E320501C5E21501D5A22501E5A44
:1036680023501F5AD8902332223221322032242E5E
:10367800E8D71CC01CF01DC01DF01EC01EF01FC0E6
:103688001FF0120016500EEC1FF03DEC1FF0DF6E1D
:103698001650D96EDA6A1650B6EC19F012EC21F011
:1036A80016D8010E3DEC1FF012D81550B6EC19F0E3
:1036B80012EC21F011D8020E3DEC1FF03F0B0CD894
:1036C8001450B6EC19F012EC21F0DF6E1200DF6E28
:1036D8001550D96EDA6A1200DF6E1450D96EDA6AA4
:1036E8001200640E1D6E1C6A1F0E1E6E870E1E24AD
:1036F800D96EDA6A010EDA22880E1E2417EC18F049
:103708001E061E50F3E10101886B53EC12F0E2EC47
:103718001AF01B6A08D00D0E1A6EFC0EE82EFED7A2
:103728001A2EFCD71B2A1D501B5CF5E30A0E1D64DC
:1037380001D01D5E1C2A1F0E1C64D6D71F0CFA0E62
:1037480059EC15F012C04CF013C04DF014C04EF0F7
:1037580015C04FF00B0E4B6E260E4A6E5E0EE82E0D
:10376800FED74A2EFCD74B2EFAD7C80E3B6EBE0E9C
:103778003C6E4CC03DF04DC03EF04EC03FF04FC0D7
:1037880040F0F0EC1FF04CC046F04DC047F04EC082
:1037980048F04FC049F01200F70E59EC15F012C06E
:1037A8004CF013C04DF014C04EF015C04FF00B0E86
:1037B8004B6E260E4A6E5E0EE82EFED74A2EFCD7BA
:1037C8004B2EFAD7A80E3B6EBE0E3C6E4CC03DF099
:1037D8004DC03EF04EC03FF04FC040F0F0EC1FF03F
:1037E8004CC046F04DC047F04EC048F04FC049F0BD
:1037F8001200640E1D6E1C6A1E6A890E1E2426ECB9
:1038080018F01E2417EC18F01E2A1F0E1E64F5D798
:103818000101A76B53EC12F0E2EC1AF01B6A08D016
:103828000D0E1A6EFC0EE82EFED71A2EFCD71B2A98
:103838001D501B5CF5E30A0E1D6401D01D5E1C2A99
:103848001F0E1C64D9D71F0C580E0001EB5D020E29
:10385800EC5902E3040E14D0C20EEB5D010EEC59D4
:1038680002E3030E0DD02C0EEB5D010EEC5902E3C2
:10387800020E06D0EC5103E1960EEB5D03E3010E58
:10388800116E07D0EC5108E1650EEB5DD8B012005F
:10389800116A0A0E6AEF20F01200820E5F6EDE0EC9
:1038A800E82EFED75F2EFCD775EC18F007EC21F058
:1038B800F29E140E0F6E120E106E126A640E116EC6
:1038C800B9EC18F045EC19F03A0E0F6E390E106E7F
:1038D800126A116A146A010E136E45EC19F0F28E21
:1038E80074EC14F0FDD7166E196A1A6A85EC21F08B
:1038F800EC0E77EC21F0165077EC21F089EC21F0F2
:10390800ED0E77EC21F0010E26EC20F0196E1A6A04
:10391800000E26EC20F0176E186A81EC21F0175083
:10392800156E146A19501410126E1A501510136E71
:10393800120081B802D0010E0BD081B202D0020E63
:1039480007D081B402D0030E03D081B603D0040E91
:103958000F6E01D00F6A0F500FE0290E0001B16100
:10396800290CB12B280EB119D8A412000FC06EF083
:10397800B16B010EB26F010C0001B16B1200176A36
:10398800186A196A1A6A0FA008D01350172614501B
:1039980018221550192216501A22D89013361436A8
:1039A80015361636D8901232113210320F320F50A7
:1039B800101011101210E7E117C00FF018C010F026
:1039C80019C011F01AC012F012008E0E1F6E06D028
:1039D800D8901A321932183217321F2A1B6A1C6AF9
:1039E8001D6A1A501E6E1B501C101D101E10F0E18F
:1039F80017C00FF018C010F019C011F01FC012F056
:103A0800000E136E02EC19F00FC017F010C018F07A
:103A180011C019F0120019D00C0E6C6EBE0E6D6E2E
:103A28001200DA0E6C6EBD0E6D6E1200A80E6C6E72
:103A3800BD0E6D6E1200760E6C6EBD0E6D6E1200B0
:103A4800440E6C6EBD0E6D6E12006A50010AE4E001
:103A5800030AE7E0010AEAE0070AEDE0010AF0E0FC
:103A68001200146A156A115012101BE0010E136E31
:103A780004D0D89011361236132A12AEFAD7D8903D
:103A88001436153611500F5C1250105805E31150BA
:103A98000F5E1250105A1480D89012321132132E21
:103AA800EED714C00FF015C010F012008B6A180E74
:103AB800946E8A6A1F0E936EF19E8C6A956A896A63
:103AC800010E926EC30EC216C150F00B0E09C16EE4
:103AD800CF0EC116C050F80B0209C06EC08EC2804E
:103AE800F18CF292F288828012001850191017E0B7
:103AF800010E1A6E04D0D890183619361A2A19AE43
:103B0800FAD71850165C1950175804E31850165E67
:103B18001950175AD890193218321A2EF2D716C0DF
:103B280016F017C017F0120082909490070E0F6ECF
:103B38007D0EE82EFED70F2EFCD700F082809480F1
:103B4800C80E00D0E82EFDD7000E82B0010E106E10
:103B5800060E0F6E800EE82EFED70F2EFCD700D073
:103B6800105012001F6E1F50A5EC1FF01A6E030EA6
:103B7800A4EC20F01C50A5EC1FF01A6E040EA4EC67
:103B880020F01D50A5EC1FF01A6E050EA4EC20F0D5
:103B98001E50A5EC1FF01A6E060EA4EF20F0126E50
:103BA800146A14C010F012C011F0102A02D0D89074
:103BB8001132102EFCD71150136E010E131613502C
:103BC800DEEC1FF0142A070E1464EBD7D20E00D0D7
:103BD800E82EFDD71200116A126AB2EC20F0000933
:103BE8000CE012C00FF0010E106E0F2A02D0D89010
:103BF80010360F2EFCD710501112F00E00D0E82E00
:103C0800FDD7122A070E1264E8D7115012000F6E62
:103C18000001AF51FDE09DB805D09EA8FED70FC0AA
:103C2800ADFF12009D98800EB025D96EDA6A010E9C
:103C3800DA220FC0DFFFB02B070EB06501D0B06BE2
:103C4800AF0712008B94E20E68EC1FF08B84700EA5
:103C5800116E070EF1EC20F08B920B0E116E000E18
:103C6800F1EC20F08B82C00E00D000D0E82EFCD7FB
:103C780000D000D000D01200106E126A0F5014E06D
:103C8800010E116E03D0D8900F36112A0FAEFBD754
:103C9800D89012360F50105C03E30F50105E12805C
:103CA800D8900F32112EF4D7125012008C80010ECA
:103CB800116E0C0E6AEC20F0116A090E6AEC20F005
:103CC800070E116E0B0E6AEC20F0010E116E0A0E33
:103CD8006AEC20F0116A0F0E6AEF20F03BC040F04A
:103CE8003CC041F0426A436A3F0E3F6E400E256E6B
:103CF8003DC026F03EC027F03F0E286E22EC05F0AE
:103D080040C0D9FF41C0DAFFDF6A000C146E8B9403
:103D1800145068EC1FF0156A0BD011C0F6FF12C0E2
:103D2800F7FF0800F55068EC1FF0114A122A152A0F
:103D38001350155CF2E38B8412001E6E1D50A5EC27
:103D48001FF01A6E000EA4EC20F01C50A5EC1FF01A
:103D58001A6E010EA4EC20F01E50A5EC1FF03F0BCC
:103D68001A6E020EA4EF20F0C282C2B2FED7C4506F
:103D7800476E466AC35046240001EB6F000E472089
:103D8800EC6FB80E3B6EBE0E3C6EEBC03DF0ECC067
:103D98003EF0F0EF1FF0C3C0B4F060EC0FF046EC5B
:103DA8001BF0C60E146EC70E156EC80E166EC90E21
:103DB800176E88EC19F00001B451C319D8A46B80B0
:103DC8001200B651FEE0780EAD250CD8DF500F6E0C
:103DD800AD2B070EAD6501D0AD6B9D9AB6079D8AD8
:103DE8000F501200D96EDA6A010EDA221200136E31
:103DF8008B94135068EC1FF0146A07D011501424E8
:103E080009D868EC1FF0DF6E142A1250145CF6E330
:103E18008B841200D96EDA6A000C10D053EC12F0C1
:103E2800E2EC1AF01B6A0D0E1A6EFC0EE82EFED795
:103E38001A2EFCD71B2A310E1B64F5D7E3EC17F0BA
:103E48000009ECE11200126E0FC010F0010E116EA5
:103E5800102A02D0D8901136102EFCD7880E1224C2
:103E680003D81150DF121200D96EDA6A010EDA2275
:103E78001200126E85EC21F0D00E77EC21F0125072
:103E880077EC21F089EC21F0D10E77EC21F0000ECF
:103E980026EC20F0136E81EC21F013501200948C64
:103EA800948EAC84AC98AC8AAB88AB8EB886040E82
:103EB800B06E100EAF6E0001B06B080EAF6FAE6B38
:103EC800AD6BB66B9D8A12000F6E106A0FAE02D0F2
:103ED8008C8801D08C98D8900F368C8A010E83A6D6
:103EE800000E0F128C9A102A070E1064EFD70F508D
:103EF800120098EC1DF00009D8A41200CC0ED3ECE7
:103F08001DF04E0ED3EC1DF0000ED3EC1DF0000E8C
:103F1800D3EC1DF07F0ED3EF1DF0136E0FC010F021
:103F2800010E116E102A02D0D8901136102EFCD72F
:103F3800111C126E880E132438EC1FF01250DF1675
:103F48001200196E0A0E136E1950CBEC1FF0176E83
:103F58000F0E17160A0E0F6E195040EC1EF0186E51
:103F68001838F00B171012000F501102F3CF13F08E
:103F7800F4CF14F00F501202F3501426105011020F
:103F8800F350142613C00FF014C010F01200146E72
:103F9800080E156E166AD89014341634166ED8901A
:103FA80014361350165C02E31350165E152EF3D721
:103FB800165012000F6E829094900F0406E1060EC0
:103FC800E82EFED700D082809480D20E00D0E82E52
:103FD800FDD7828094801200426A436AE20E446EE2
:103FE800420E456E3D0E416E420E256E3BC026F0D8
:103FF8003CC027F0410E286E22EF05F0106EA6B2E5
:10400800FED710C0A9FF0FC0A8FFA69EA69CA68435
:10401800F29E550EA76EAA0EA76EA682F28EAA0C65
:104028000F6E106A0FAE02D08C8401D08C948C82F3
:1040380000F000F08C92D8900F36102A070E10640A
:10404800F1D7070C106E5AEC21F0C5865AEC21F016
:10405800C9CF11F05AEC21F0105002E1C58A01D005
:10406800C59AC58811501200ABA202D0AB98AB8894
:10407800780E0001AE25F6EC1EF0AECFDFFFAE2BBA
:10408800070EAE6501D0AE6BB62B12009E0E016E08
:104098003D0E026E046A036A066A056A3DEC17F073
:1040A8000001C12B080EC119D8B4C16B120007D882
:1040B8002A0E8AEC1EF003D8300E8AEF1EF016C0C6
:1040C80011F017C012F0050E136E050C126E8C90CD
:1040D800136A125014EC20F0115014EC20F0132A3B
:1040E800030E1364F6D78C80030C0001B251D8B4C8
:1040F8001200AC2B140EAC6103D0800E8C1A800C0D
:10410800AC6BB26B8C9E1200126E85EC21F0EC0E3B
:1041180077EC21F0125077EC21F0115077EC21F078
:1041280081EF21F0CD903C0ECF6EB00ECE6E9D800B
:10413800B192B180A082EC0EB36E780EB26E780C9C
:104148001B6E85EC21F0D00E77EC21F01B5077EC3C
:1041580021F01A5077EC21F081EF21F082909490B1
:10416800030EE82EFED700F082809480140EE82E0D
:10417800FED782B0010C000C116E106A3A0E116065
:1041880005D02F0E116402D0010E106E10C00FF072
:104198000F30120015C011F0ABC012F0610EFBEC2D
:1041A8001EF0400E116E070EF1EF20F0116E8B9489
:1041B800115068EC1FF0000E68EC1FF0126E8B8433
:1041C80012501200180E9412280EC66EC76A630E9B
:1041D800C86EC584C5A41200FDD7126E8B94125008
:1041E800200968EC1FF0115068EC1FF08B84120056
:1041F80052EC21F0146E14BC010C6AEC21F0000999
:10420800D8B4010C000C0F6A880E0F2438EC1FF08C
:10421800DF6A0F2A200E0F64F7D7200C106E10C02B
:104228000FF00F0E0F1610380F0B0A0DF3500F2456
:1042380012000001D52B950ED565950CD56B010E96
:10424800D46FCD90010CA6B2FED70FC0A9FFA69ED1
:10425800A69CA680A850120016C011F017C012F034
:10426800050E136E2B0E8AEF1EF01A6A0E0EA4ECC2
:1042780020F0080E1A6E0F0EA4EF20F09586959880
:1042880094929494959A958C8B841200C70ED56E4F
:10429800F28AD76A3D0ED66E676A12008B94FF0EBB
:1042A80068EC1FF0116E8B8411501200C7B4FED752
:1042B800C5CF0FF01F0E0F16F9E11F0CF294D76A45
:1042C8003D0ED66E010E0001C26F010C170EDAEC1E
:1042D80020F0136E1350010B12000F6E9EA8FED72C
:1042E8000FC0ADFF1200106E5AEC21F010C0C9FFCC
:1042F8001200AE6BAD6BB66B12005AEC21F0C584A0
:1043080012005AEC21F0C58012005AEC21F0C58247
:104318001200959E8C9E1200F28EF28C1200040EF2
:0A4328006E6E040C0CBE0501F401DA
:10B7C80000010000000A00000064000000E8030017
:10B7D8000010270000A086010040420F00809698C4
:10B7E8000000E1F50500CA9A3B00000000000000D7
:10B7F800087C4E4F4E7C080426473F070604203E2F
:10B808007F7F3F3E207E121E007010000100000066
:10B8180010000000000100000010000000000100FE
:10B8280000001000000000010000001000010102EB
:10B8380002030404050606070708090900000000BA
:10B84800004551453E006B6F6B3E003E7C3E1C0040
:10B858003C7E3C1800367F363000000000000000B7
:10B8680000000000000000000000000000000000D0
:10B8780000000000000000000000000000000000C0
:10B8880000000000000000000000000000000000B0
:10B8980000000000000000000000000000000000A0
:10B8A8000000000000000000000000000000000090
:10B8B8000036360000002436000000242400000072
:10B8C8002400000000000000000012000000001228
:10B8D80012000000123600000012360000000000BE
:10B8E8000000005F00000007000700147F147F14A9
:10B8F800242A7F2A122313086462364956205000EE
:10B9080008070300001C2241000041221C002A1CD9
:10B918007F1C2A08083E08080080703000080808C4
:10B928000808606000000020100804023E514945E4
:10B938003E00427F400042615149462141454B311A
:10B948001814127F1027454545393C4A49493001AA
:10B95800710905033649494936064949291E000037
:10B968003636000040340000000814224114141434
:10B978001414004122140802015909063E415D5978
:10B988004E7C1211127C7F494949363E4141412281
:10B998007F4141413E7F494949417F090909013EAB
:10B9A800414151727F0808087F00417F41002040D3
:10B9B800413F017F081422417F404040407F0204FC
:10B9C800027F7F0408107F3E4141413E7F090909FB
:10B9D800063E4151215E7F091929462649494932C7
:10B9E80001017F01013F4040403F1F2040201F3F91
:10B9F8004038403F6314081463030478040361511A
:10BA0800494543007F41410002040810200041419C
:10BA18007F00040201020440404040400003070840
:10BA28000020545478407F284444383844444428FB
:10BA3800384444287F3854545418087E09020018A2
:10BA4800A4A49C787F0804047800447D400020402A
:10BA5800403D007F1028440000417F40007C04786E
:10BA680004787C080404783844444438FC182424B6
:10BA78001818242418FC7C0404080048545454243E
:10BA880000043F44203C4040207C1C2040201C3CBB
:10BA98004030403C44281028444C9090907C4464AA
:10BAA800544C44000836410000007700000041363D
:10BAB800080002010204020000000000000000006B
:10BAC800000000000000000000000000000000006E
:10BAD800000000000040004000400000000000009E
:10BAE800000000003E555541220000000000000003
:10BAF800000000000000000000000000000000003E
:10BB0800000000000000000000000000000000002D
:10BB1800000000000000000000000000000000001D
:10BB28000000000000000C1E1E0C000000000000B9
:10BB380000000000000000000000000000000000FD
:10BB480000000000000000000000000000000000ED
:10BB580000000000000000000000000000000000DD
:10BB680000000000000000000000000000000000CD
:10BB780000000000007E0202020300000000000036
:10BB8800000000007E4B4A4B4200000000003E4986
:10BB980049492200000000000000000000000000E9
:10BBA8000000000000000000417E41000006090975
:10BBB8000644445F444400417F410000447D400006
:10BBC800007C0404060000000000000000000000E3
:10BBD8000000000038555455180000000000385483
:10BBE80054544422142A14082040403D0000000008
:10BBF8000000000000000000457C41007E1111118A
:10BC08007E7F494949317F494949367F0101010110
:10BC1800C07E417EC07F4949494177087F08772225
:10BC2800414949367F1008047F7E1109057E7F0847
:10BC3800142241407E01017F7F020C027F7F0808A9
:10BC4800087F3E4141413E7F0101017F7F0909098B
:10BC5800063E4141412201017F0101274848483FF2
:10BC68000E117F110E63140814637F40407FC007D4
:10BC78000808087F7F407E407F7F407E40FF017F2D
:10BC88004444387F4438007F7F4444443822414943
:10BC9800493E7F083E413E462919097F20545454A5
:10BCA800783C4A4A4A317C54545428007C040404A1
:10BCB800C078447CC038545454186C107C106C28DC
:10BCC800445454287C2010087C7C2111097C7C1069
:10BCD800102844403804047C7C0810087C7C101030
:10BCE800107C38444444387C0404047C7C141414C8
:10BCF80008384444442804047C04044C5050503C04
:10BD080018247C2418006C10106C7C40407CC00CFB
:10BD18001010107C7C4078407C7C407840FC047C8F
:10BD28005050207C5020007C007C505020445454BB
:10BD380054387C10384438485434147C3E41417F90
:10BD48003E00027F7F006273594F462263497F3667
:10BD58001814127F7F2F45457D393E49497B3203B0
:10BD680071790F073649497F362649497F3E3E7F1C
:10BD7800417F3E00027F7F006273594F462263492C
:10BD88007F361814127F7F2F6F457D393E7F497BA0
:10BD9800320373790F07367F497F36266F497F3E16
:10BDA8007F41417F7F00017F7F007151515F5F417B
:10BDB80049497F7F1F10107F7F4F494979797F4913
:10BDC8004979790101017F7F7F49497F7F4F49493F
:10BDD8007F7F7F7F417F7F00017F7F007373515F8B
:10BDE8005F636B497F7F1F1F107F7F6F6F49797972
:10BDF8007F7F497B7B0373790F077F7F497F7F6F45
:10BE08006F497F7F7F7F417F7F00017F7F00617166
:10BE1800594F474149497F7F1F1F107F7F4F4F4927
:10BE280079797F7F4979790171790F077F7F497F18
:10BE38007F5F5F517F7F0000007C447C007C007442
:10BE4800545C54547C1C107C5C54747C54740404FE
:10BE58007C7C547C5C547C1979270904197927095E
:10BE680004436C6F636B207631312E31302E3137BD
:10BE7800206279204976616E5F66640054656D7052
:10BE8800657261747572653A2025640A0D20003068
:10BE98003132333435363738394142434445460028
:10BEA800556E6350726573733A20256C640D0A00F1
:10BEB8004144435F524553554C543A25750D0A0089
:10BEC800556E6354656D703A20256C640D0A0050F8
:10BED800726573733238303A20256C750A005465E0
:10BEE8006D703238303A2025640D0A00766172315F
:10BEF800203D2020256C640D0A0076617232203DB9
:10BF08002020256C640D0A0076617231203D2020C6
:10BF1800256C750D0A006469675F50323A20256404
:10BF28000D0A006469675F54323A2025640D0A00DF
:10BF38006469675F50333A2025640D0A00646967B5
:10BF48005F54333A2025640D0A006469675F5034F2
:10BF58003A2025640D0A006469675F50353A202548
:10BF6800640D0A006469675F50363A2025640D0A3B
:10BF7800006469675F50373A2025640D0A006469D8
:10BF8800675F50383A2025640D0A006469675F507E
:10BF9800393A2025640D0A006469675F50313A20F8
:10BFA80025750D0A006469675F54313A2025750DBF
:10BFB8000A005431203D2020256C640D0A005020D1
:10BFC8003D2020256C640D0A0050203D2020256C62
:10BFD800750D0A00ECEC2EF0F22EF1F22E0025324F
:10BFE800580D0A002575203E2000253258200025CE
:08BFF800632000257520000004
:020000040020DA
:08000000FFFFFFFFFFFFFFFF00
:020000040030CA
:0E000000FF061E1EFF8181FF0FC00FE00F40A4
:0200000400F00A
:080000000301000000000000F4
:00000001FF
