:0400000007EF00F016
:1000080071826EED12F0F0EF14F096EC14F03FC030
:10001800EAF040C0EBF041C0ECF042C0EDF0C3ECB8
:1000280014F03FC0D7F040C0D8F041C0D9F042C06A
:10003800DAF0246A800E256E440E266E9DC017F0F5
:100048009EC018F0FFEC17F0C6DA5BEC10F085DA0A
:1000580023C041F0246A800E256E460E6FDAD2EC7A
:1000680013F0ABDA5BEC10F0AFDACAEC16F0BADAE0
:100078009BC017F09CC018F0E5EC16F0D9DA3BEC01
:100088000FF0CFDAB6DAFFEC17F0A5DA5BEC10F078
:1000980064DA5EDA53DAD2EC13F08FDA5BEC10F044
:1000A80093DACAEC16F03CC045F03DC046F03EC0BD
:1000B80047F09FDAFFEC17F08EDA5BEC10F04DDAC0
:1000C80047DA3CDAD2EC13F078DA5BEC10F07CDA41
:1000D800CAEC16F087DA3BEC0FF01BDA28DA99C085
:1000E80017F09AC018F0E5EC16F0A2DA3BEC0FF026
:1000F80042C0EEF043C0EFF044C0F0F0F7C030F07B
:10010800F8C031F0F9C032F0A1DA0AEC0AF030C0D8
:10011800E7F031C0E8F032C0E9F0246AA00E256E9D
:10012800450E266E456A200E466E410E476EE7C0A4
:1001380042F0E8C043F0E9C044F03BEC0FF0F0D9DE
:100148005BEC10F021C051F022C052F023C053F0F4
:100158009FEC0FF05A5018DA246A256A400E266E72
:10016800E7C021F0E8C022F0E9C023F05BEC10F012
:10017800F9D9336A7A0E346EC70E356E0AEC0AF076
:1001880030C0F7F031C0F8F032C0F9F0BBD98FC0F9
:1001980017F090C018F0E5EC16F0ADD93BEC0FF075
:1001A800B8D9B0D9C4D93BEC0FF0BAD95DDA5BEC59
:1001B80010F053DAA7D991C017F092C018F0E5EC07
:1001C80016F099D93BEC0FF0A4D9EEC030F0EFC08F
:1001D80031F0F0C032F0456A466A400E476EA7D942
:1001E8003BEC0FF0E3D90AEC0AF014DA246A800E2B
:1001F800256E400E07DA5BEC10F0B4D9456A800E24
:10020800466E470E476E93C017F094C018F0E5ECA1
:1002180016F071D93BEC0FF0C9D90AEC0AF0FAD9FB
:1002280071D995C017F096C018F0E5EC16F063D9AF
:100238003BEC0FF06ED966D997C017F098C018F04C
:10024800E5EC16F058D93BEC0FF0B0D912DA5AD9D0
:100258006ED93BEC0FF064D95BEC10F083D90AEC53
:100268000AF030C0DBF031C0DCF032C0DDF0DBC0BA
:1002780021F0DCC022F0DDC023F0FBD95BEC10F0EC
:10028800DED9336A800E346E3F0E356EEDD9F7C075
:1002980021F0F8C022F0F9C023F05BEC10F062D92D
:1002A8000AEC0AF030C042F031C043F032C044F0EA
:1002B800CBC017F0CCC018F0FFEC17F017C045F012
:1002C80018C046F019C047F03BEC0FF0AAD93C6AB9
:1002D800800E3D6E490E3E6ED7C017F0D8C018F09C
:1002E800D9C019F0DAC01AF0D2EC13F017C03FF0F9
:1002F80018C040F019C041F0CAEC16F03CC0F4F048
:100308003DC0F5F03EC0F6F0500E456EC30E466E89
:10031800450E476E246A800E256E450E73D95BEC38
:1003280010F01BD923C041F0F4C03CF0F5C03DF0FB
:10033800F6C03EF0CAEC16F055D93BEC0FF042C0BF
:10034800DEF043C0DFF044C0E0F0DEC021F0DFC0E3
:1003580022F0E0C023F0F7C024F0F8C025F0F9C07F
:1003680026F05BEC10F021C0F4F022C0F5F023C0B9
:10037800F6F015D989C017F08AC018F0E5EC16F028
:10038800BAD83BEC0FF0C5D80AD9D1D83BEC0FF05E
:10039800C7D8246A256A4F0E266E5BEC10F04FD939
:1003A800FED88BC017F08CC018F0E5EC16F0A3D877
:1003B8003BEC0FF0B5D858D95BEC10F04ED9F7C02C
:1003C80033F0F8C034F0F9C035F08DC017F08EC0A6
:1003D80018F0E5EC16F017C030F018C031F019C06D
:1003E80032F00AEC0AF030C0E1F031C0E2F032C07D
:1003F800E3F0246A800E256E410E266E27D9E1C0EF
:1004080030F0E2C031F0E3C032F00AEC0AF030C05C
:1004180021F031C022F032C023F05BEC10F021C093
:10042800E4F022C0E5F023C0E6F0F4C030F0F5C0F7
:1004380031F0F6C032F0E4C033F0E5C034F0E6C085
:1004480035F00AEC0AF030C0F4F031C0F5F032C0F3
:10045800F6F0F4C051F0F5C052F0F6C053F09FEC3E
:100468000FF05B5091D85B50D96EDA6ADECF0FF08F
:10047800DECF10F0DECF11F0DECF12F0640E136E77
:10048800146A156A166A8CEC15F00FC01BF010C0C0
:100498001CF011C01DF012C01EF0140E1F6E340E99
:1004A800206E216A226AFDEC0FF05B50D96EDA6A81
:1004B8001BC0DEFF1CC0DEFF1DC0DEFF1EC0DEFF4E
:1004C8000B0E5D6E260E5C6E5E0EE82EFED75C2E61
:1004D800FCD75D2EFAD77D0E346EBE0E356E5A509F
:1004E80048D8EDEC17F05F0E346EBE0E356E5B50DB
:1004F80040D8EDEF17F017C042F018C043F019C00C
:1005080044F01200F7C045F0F8C046F0F9C047F0D3
:10051800120042C0F1F043C0F2F044C0F3F0120000
:1005280042C021F043C022F044C023F01200F1C0C1
:1005380042F0F2C043F0F3C044F01200266EEAC065
:1005480017F0EBC018F0ECC019F0EDC01AF012006B
:1005580023C041F0246A256A480C21C03FF022C01C
:1005680040F0120021C030F022C031F023C032F038
:100578001200D96EDA6ADECF36F0DECF37F0DECF82
:1005880038F0DECF39F01200D96EDA6A51C0DEFFDA
:1005980052C0DEFF53C0DEFF54C0DEFF1200F4C0BD
:1005A80045F0F5C046F0F6C047F0120042C033F0FF
:1005B80043C034F044C035F0120017C021F018C011
:1005C80022F019C023F0120021C03CF022C03DF0F7
:1005D80023C03EF0120017C021F018C022F019C045
:1005E80023F012003CC042F03DC043F03EC044F04E
:1005F8001200246A256A460E266E9DC017F09EC01A
:1006080018F0460C266EEEC021F0EFC022F0F0C0C4
:1006180023F0120030C0EEF031C0EFF032C0F0F03D
:10062800120042C0F7F043C0F8F044C0F9F01200DD
:1006380017C045F018C046F019C047F0120021C095
:10064800F7F022C0F8F023C0F9F01200EEC033F042
:10065800EFC034F0F0C035F0120021C0EEF022C037
:10066800EFF023C0F0F01200246A256A470E266EC8
:10067800470C246A256A490E266E490C16D1250EA8
:10068800331817E035D9DE50DE100EE031D901D825
:100698000CD10500FA6EDE50FD6EDE50FE6EF8508D
:1006A800FF6EFA503350120006D933C0DFFF4BD922
:1006B800FCD0326A07D0328805D0328E11D0C00EF5
:1006C80032120ED02AD901E1F3D0640A09E00D0AEA
:1006D80007E0050AF0E0190AF2E00D0AEEE0E5D0BD
:1006E80032C029F0C00E29161BE132A802D0EFD87B
:1006F8000AD030D9DECF2EF0DDCF2FF0000E2FBE7E
:10070800FF0E306E316E31AE53D0030E3212311EF1
:10071800301E2F1E2E6C000E2F223022312248D080
:1007280032A802D0D4D844D015D9DECF29F0DDCFF5
:100738002AF029C02EF02AC02FF0306A316A38D04A
:10074800010E336E3350040D5F0EF324F66EB70EB0
:10075800F420F76E0900F5502E5C0900F5502F586B
:100768000900F55030580900F550315828E3332A6C
:100778000A0E331824E0E6D7010E336E3350040D09
:10078800AA0EF324F66EB70EF420F76E0900F550A2
:100798002E5C0900F5502F580900F5503058090013
:1007A800F55031580CE3332A080E331808E0E6D721
:1007B8003250C00BC5E0800ADFE0400AC1E032C019
:1007C80029F0030E291615E093D8DE50DE100DE04F
:1007D8008FD801D80ED00500FA6EDE50FD6EDE50BF
:1007E800FE6EF850FF6EFA502D0C65D82D0EDF6E98
:1007F800AAD833502C6E2D6A2CBE2D064FD098D80F
:100808005F0E2924F66EB70E79D8ADD82DEC13F00B
:100818000FC01CF010C01DF011C01EF012C01FF058
:100828000A0E206E216A226A236A05EC14F01C5015
:10083800300F336E1DD097D87BD8AA0E2924F66EB8
:10084800B70E5CD82DEC13F00F500F0B2B6E1F0E4C
:100858002B24F66EF76ABE0EF7220800F5CF33F0A8
:1008680007D03250C00BCBE0800AE5E0400AC7E071
:100878003FD8DE50DE100EE03BD801D80FD005007F
:10088800FA6EDE50FD6EDE50FE6EF850FF6EFA50C6
:100898003350120010D833C0DFFF55D82C06D8A02B
:1008A8002D062C28DEE12D28DCE137D801E0E7D63B
:1008B800256A266A12002550D96EDA6ADECF29F039
:1008C800DDCF2AF029C0D9FF2AC0DAFF120028504C
:1008D800D96EDA6A040EDF26DF5CD96EDA6ADECFFB
:1008E8002EF0DECF2FF0DECF30F0DECF31F0120069
:1008F8002550D96EDA6A020ED926020C2A20F76E24
:100908000900F5CF13F00900F5CF14F00900F5CF71
:1009180015F00A00F5CF16F0120026C0F6FF27C022
:10092800F7FF264A272A0800F5CF33F03350120084
:100938002CC029F02DC02AF0D89029362A36D89014
:1009480029362A3612002550D96EDA6ADE2A000EB8
:10095800DD22000C2850D96EDA6ADF50DF2ADF2A40
:10096800D96EDA6A12002EC00FF02FC010F030C016
:1009780011F031C012F012003DD002D9A3EC11F0F1
:10098800A20E0F6E170E106ED1EC0CF02BEC12F0BD
:100998003FEC09F02BEC12F056EC0CF035D0F0D807
:1009A800A3EC11F04EEC0DF0A3EC11F044EC0DF0BB
:1009B8002BEC12F0050E6F6E27D0642A0C0E6464BF
:1009C80002D0010E646E3FEC09F02BEC12F047ECFC
:1009D8000CF075EC16F018D06406645002E10C0EA9
:1009E800646E3FEC09F02BEC12F047EC0CF075EC60
:1009F80016F00AD06F50010AC0E0030ADEE0010ACF
:100A0800EBE0070ACCE0010A70A0AED0CC0EB2D859
:100A1800000E68EC13F0F10EADD8060E68EC13F07A
:100A28003A0EA8D80C0E68EC13F084D0D10EA2D8D8
:100A3800120E68EC13F0F70E9DD8180E68EC13F040
:100A480093D0CB0E97D8120E68EC13F0F20E92D812
:100A5800180E68EC13F088D0C10E8CD8120E68EC12
:100A680013F0F00E87D8180E68EC13F07DD0CA0E7C
:100A780081D8120E68EC13F0E20E7CD8180E68ECE0
:100A880013F072D0D20E76D8120E68EC13F0F00E76
:100A980071D8180E68EC13F067D0D70E6BD8120E09
:100AA80068EC13F0F00E66D8180E68EC13F05CD002
:100AB800CB0E60D8120E68EC13F0EF0E5BD8180E50
:100AC80068EC13F051D0D10E55D8120E68EC13F023
:100AD800EF0E50D8180E68EC13F046D0C20E4AD864
:100AE800120E68EC13F0F00E45D8180E68EC13F0EF
:100AF8003BD0C60E3FD8120E68EC13F0F20E3AD86F
:100B0800180E68EC13F030D0CB0E34D8120E68EC07
:100B180013F0F10E2FD8180E68EC13F025D0C30E81
:100B280029D8120E68EC13F0F00E24D8180E68ECD1
:100B380013F01AD06450010A01E178D7030A81E062
:100B4800010A8AE0070A93E0010A9CE0030AA5E08B
:100B5800010AAEE00F0AB7E0010AC0E0030AC9E0E3
:100B6800010AD2E0070ADBE0A40E116E3AEC16F097
:100B780070801200176EDA0E186EB70E196E12001A
:100B8800800E0F6E090E106E120099D014EC19F039
:100B9800C1D8D8EC15F0A6D8FDEC15F016501710F2
:100BA80012E1DED89DEC13F0BDD8FDEC15F016501F
:100BB8008ED80D0E59EC11F0B00E66EC08F0130E3D
:100BC80059EC11F01CD0CCD89DEC13F0A3D8D8EC7C
:100BD80015F088D8FDEC15F0165079D80D0E59ECA3
:100BE80011F0A0D8FDEC15F0165071D8130E59EC81
:100BF80011F0B00E66EC08F0190E59EC11F09AD805
:100C0800020E126EEE0E76D82BEF12F0050E6F6EF6
:100C180036EC14F062D8C65100EC17F0C8EC17F0A7
:100C280000090BE05AD8C65100EC17F0C8EC17F0D1
:100C38004ED8000E59EC11F004D01B6A5FD859EC5D
:100C480011F07FD8C8EC17F042D8060E59EC11F015
:100C580044D8C55100EC17F0C8EC17F038D80D0E81
:100C680059EC11F073D8C8EC17F031D8130E59ECC1
:100C780011F049D866EC14F030D8C45100EC17F0E4
:100C8800C8EC17F0276E2728176E190E0FEC11F015
:100C980062D8C8EC17F0276E2728176E1D0E0FECC8
:100CA80011F04EEC0DF0A3EC11F0920E0F6E0B0E3E
:100CB800106EA3EC11F044EC0DF02BEF12F06F5016
:100CC800040AA4E0010A01E161D7030A12001B6EBD
:100CD8006DC01CF06EC01DF012000A0E136E0F6E70
:100CE80000010A0C0FC016F010C017F0196A0A0E9E
:100CF800186E0A0C116E146A136A1200DA0E1C6E52
:100D0800B70E1D6E000CC60E146EC50E156EC40E01
:100D1800166E1200126A0A0E116E6BC00FF06CC0CC
:100D280010F00A0C6BC016F06CC017F0196A0A0EA6
:100D3800186E0A0C060E6F6EA60E0F6E320E106E2F
:100D480012000A0E136E0001C65112000A0E136E2D
:100D58000001C55112000A0E136E0001C4511200A1
:100D6800010E146E030C880E40EC15F012C09DF0B5
:100D780013C09EF08A0E40EC15F012C09BF013C011
:100D88009CF08C0E40EC15F012C099F013C09AF04C
:100D98008E0E40EC15F012C0CBF013C0CCF0900EC4
:100DA80040EC15F012C097F013C098F0920E40EC8A
:100DB80015F012C095F013C096F0940E40EC15F0A3
:100DC80012C093F013C094F0960E40EC15F012C0C8
:100DD80091F013C092F0980E40EC15F012C08FF00D
:100DE80013C090F09A0E40EC15F012C08DF013C0AD
:100DF8008EF09C0E40EC15F012C08BF013C08CF0F6
:100E08009E0E40EC15F012C089F013C08AF0CC0E8B
:100E1800116EF50E77EC18F0B70E116EF40E77EC34
:100E280018F00B0E406E260E3F6E5E0EE82EFED7B3
:100E38003F2EFCD7402EFAD70D0E346EBF0E356EFE
:100E48009DC036F09EC037F0EDEC17F0980E346E6A
:100E5800BE0E356E9BC036F09CC037F0EDEC17F037
:100E6800B20E346EBE0E356E99C036F09AC037F0A9
:100E7800EDEC17F0000E346EBF0E356ECBC036F0B9
:100E8800CCC037F0EDEC17F08B0E346EBE0E356E1D
:100E980097C036F098C037F0EDEC17F0A50E346E19
:100EA800BE0E356E95C036F096C037F0EDEC17F0F3
:100EB800BF0E346EBE0E356E93C036F094C037F058
:100EC800EDEC17F02BD891C036F092C037F0EDEC6E
:100ED80017F0D90E346EBE0E356E8FC036F090C046
:100EE80037F0EDEC17F01AD88DC036F08EC037F019
:100EF800EDEC17F0E60E346EBE0E356E8BC036F094
:100F08008CC037F0EDEC17F0F30E346EBE0E356E74
:100F180089C036F08AC037F0EDEF17F0CC0E346E8A
:100F2800BE0E356E1200C6D014EC19F069506A1066
:100F380030E0D4D89DEC13F0126A640EC9D8D8EC0E
:100F480015F076EC06F0FDEC15F016506BEC06F09B
:100F58000B0E59EC11F0126A0A0EBAD8D8EC15F03B
:100F680076EC06F0FDEC15F016506BEC06F0110E61
:100F780059EC11F069C016F06AC017F043EC0BF099
:100F8800FDEC15F016506BEC06F0170E59EC11F04D
:100F980012D0A4D89DEC13F0450E94D80B0E59EC42
:100FA80011F0520E8FD8110E59EC11F0520E8AD84A
:100FB800170E59EC11F09EEC06F0010E126E900E11
:100FC8007EEC06F02BEF12F0050E6F6E69506A107A
:100FD8000DE0780E346E010E356E920E366EBF0E31
:100FE800376E32EC17F061EC17F002D036EC14F0E3
:100FF80071EC06F0C65100EC17F0C8EC17F00009C8
:101008000DE071EC06F0C65100EC17F0C8EC17F0D3
:101018006BEC06F0000E59EC11F005D01B6A82EC5F
:1010280006F059EC11F0A5EC06F0C8EC17F06BECE3
:1010380006F0060E59EC11F071EC06F0C55100EC03
:1010480017F0C8EC17F06BEC06F00D0E59EC11F028
:10105800AAEC06F0C8EC17F06BEC06F0130E59EC8E
:1010680011F087EC06F066EC14F071EC06F0C45150
:1010780000EC17F0C8EC17F03D6E3D28176E190EFE
:101088000FEC11F0AFEC06F0C8EC17F03D6E3D2800
:10109800176E1D0E0FEC11F04EEC0DF0A3EC11F0D5
:1010A8002E0E0F6E0F0E106EA3EC11F044EC0DF027
:1010B8002BEF12F06F50040A87E0010A01E134D7E0
:1010C800030A12001B6EDA0E1C6EB70E1D6E12009C
:1010D800116E69C00FF06AC010F01200040E146E91
:1010E800030C3AD0D3D8A3EC11F0B80E0F6E190E3A
:1010F800106ED1EC0CF02BEC12F0BDD82BEC12F0EA
:1011080056EC0CF033D0C2D8A3EC11F04EEC0DF035
:10111800A3EC11F044EC0DF02BEC12F0050E6F6E01
:1011280025D0622A070E626402D0010E626EA3D82F
:101138002BEC12F047EC0CF075EC16F017D06206A9
:10114800625002E1070E626E96D82BEC12F047EC63
:101158000CF075EC16F00AD06F50010AC3E0030AD0
:10116800E0E0010AECE0070ACEE0010A70A07DD0B9
:10117800C40EBEEC05F0000E68EC13F0ED0EBEECEC
:1011880005F0060E68EC13F03A0EBEEC05F00C0EF6
:1011980068EC13F05BD0CF0EBEEC05F0120E68ECD5
:1011A80013F0ED0EBEEC05F0180E68EC13F05DD0F0
:1011B800C20EBEEC05F0120E68EC13F0F20EBEEC97
:1011C80005F0180E68EC13F050D0D10EBEEC05F007
:1011D800120E68EC13F0F00EBEEC05F0180E68EC79
:1011E80013F043D0D70EBEEC05F0120E68EC13F0E6
:1011F800F20EBEEC05F0180E68EC13F036D0CF0EE8
:10120800BEEC05F0120E68EC13F0F20EBEEC05F021
:10121800180E68EC13F029D0D10EBEEC05F0120EB2
:1012280068EC13F0E10EBEEC05F0180E68EC13F054
:101238001CD0CD0EBEEC05F0120E68EC13F0E40ED7
:10124800BEEC05F0180E68EC13F00FD06250010ADE
:10125800F0E0030AA0E0010AABE0070AB6E0010AE1
:10126800C1E0030ACCE0010AD7E0A40E116E3AEC03
:1012780016F070801200A60E0F6E320E106E070E5A
:10128800126ED00E116E146A136AD00CEA0E0F6E2D
:10129800100E106E120070B202D0708243D070929D
:1012A80041D0A6D8A3EC11F0BA0E0F6E1A0E106E2C
:1012B800D1EC0CF02BEC12F03FEC09F02BEC12F017
:1012C800050E6F6E14EC19F0709036D091D8A3EC1F
:1012D80011F04EEC0DF0A3EC11F044EC0DF02BECFA
:1012E80012F0050E6F6E28D0612A170E616401D0C6
:1012F800616A3FEC09F02BEC12F0050E6F6E6ED8A8
:101308004AEC17F019D06106612802E1170E616EE8
:101318003FEC09F02BEC12F0050E6F6E5FD84AEC2B
:1013280017F00AD06F50010ABCE0030ADDE0010A99
:10133800EAE0070ACBE0010A70A03FD070A233D0E0
:1013480052D800EC17F0C8EC17F042D80D0E68EC34
:1013580013F058D8C8EC17F03BD8130E68EC13F00C
:101368004CD800EC17F0C8EC17F000090AE045D893
:1013780000EC17F0C8EC17F02BD8000E68EC13F04F
:1013880008D0000E176A6DC018F06EC019F068EC2E
:1013980013F00A0E136E6150C8EC17F019D8060E38
:1013A80068EC13F00AD0176A0ED8000E68EC13F038
:1013B800176A09D8060E68EC13F0A40E116E3AEC01
:1013C80016F070801200DA0E186EB70E196E120041
:1013D800176E6DC018F06EC019F0120060C01CF0D6
:1013E8001D6A615012000A0E136E0F6E60501200D3
:1013F8009E0E0F6E120E106E12000A0E136E0F6EF6
:10140800615012000A0E136E6050120032C036F09E
:10141800376A386A3134363601E3378036503B6EE6
:1014280035C036F0376A386A3434363601E33780E7
:1014380036503A6E3B5009E03A503B5C0DE23B5067
:101448003A5C366E180E366407D033C030F034C0BC
:1014580031F035C032F012003A5009E03B503A5CA6
:101468000DE23A503B5C366E180E366407D030C039
:1014780030F031C031F032C032F01200060E396E51
:1014880032BE398E35BE398C318E326A348E356A29
:101498003A503B5C14E2D8903336343635363A0647
:1014A8003B503A1808E053D806E0F5D7D8903232C6
:1014B800313230323B2A3A503B1817E0F7D73B50CD
:1014C8003A5C13E2D8903036313632363B063B5020
:1014D8003A1808E03CD806E0F5D7D89035323432CF
:1014E80033323A2A3A503B18F8E139AE07D0301E69
:1014F800311E321E302A000E3122322239BC1FD84A
:10150800396A30503326315034223250352235AEC4
:1015180003D015D8010E396E33C00FF034C010F067
:1015280035C011F03BC012F039C013F0E8EC11F0EF
:101538000FC030F010C031F011C032F01200331E6D
:10154800341E351E332A000E34223522000C39068B
:1015580039C036F0070E3616070C87D01CEC16F08B
:101568000009D8A41200CC0E92EC16F0440E92ECAE
:1015780016F04150D96EDA6ADF6A4050D96EDA6ADD
:10158800020EDF6ECD80020C1CEC16F0CC0E92EC35
:1015980016F0BE0E92EC16F0466A4650800FD96ED1
:1015A800DA6AAEEC16F0DF6E462A010E4664F5D70D
:1015B80000018151426E8051476E42C048F048AEEA
:1015C80004D0476C481ED8B0482A47500F0B456EC8
:1015D800CA0E4524F66EF76AB70EF7220800F5CF53
:1015E80045F0473A483A0F0E47164850F00B471255
:1015F8000F0E481647500A0DF3CF47F0F4CF48F0C6
:1016080045504726000E48220C0E346EBE0E356E2D
:1016180047C036F048C037F0EDEC17F047C016F079
:1016280048C017F02CD8FDEC15F01650446E47C092
:101638000FF048C010F0126A0A0E116ED8EC15F0BF
:101648000FC047F010C048F0050E446402D0474A66
:10165800482A3F50D96EDA6A47C0DEFF48C0DDFF2E
:101668004050D96EDA6ADF6A000C4050D96EDA6AE7
:10167800DF5001E173D7010A87E0030A1200196AF3
:101688000A0E186E0A0C196A71EC06F0C65100ECC5
:1016980017F0C8EC17F000090BE071EC06F0C65122
:1016A80000EC17F0C8EC17F042D8A40F6BD802D0A2
:1016B80019506ED8A5EC06F0C8EC17F038D8AA0F68
:1016C80061D871EC06F0C55100EC17F0C8EC17F0C2
:1016D8002ED8B10F57D8AAEC06F0C8EC17F027D8C7
:1016E800B70F50D8192A040E1964CED7196A71ECAD
:1016F80006F0C45100EC17F0C8EC17F03DD82AD812
:10170800BD0F40D8AFEC06F0C8EC17F035D822D89A
:10171800C10F38D8192A020E1964E9D70001A96B3C
:10172800800EAF6FB06FB66BBC6BC06B1200050D4F
:101738006DC017F06EC018F0F3501726F450182239
:1017480019501726000E182217C0F6FF18C0F7FF09
:1017580019501200F3501726F45018221950172662
:10176800000E1822030E1726000E182217C0F6FFC7
:1017780018C0F7FF19501200030DD40E176EBD0ED6
:10178800186E1200D96EDA6A0800F5CFDFFF120072
:10179800A40FD96EDA6ADF6A12003AD07ED8A3ECB9
:1017A80011F0EA0E0F6E100E106ED1EC0CF02BEC4F
:1017B80012F03FEC09F02BEC12F074D833D06DD84E
:1017C800A3EC11F04EEC0DF0A3EC11F044EC0DF08D
:1017D8002BEC12F0050E6F6E25D0632A1F0E636482
:1017E80002D0010E636E3FEC09F02BEC12F04BD8DF
:1017F80075EC16F017D06306635002E11F0E636E96
:101808003FEC09F02BEC12F03ED875EC16F00AD03C
:101818006F50010AC3E0030AE0E0010AECE0070A9E
:10182800CEE0010A70A029D0D70EBEEC05F0000E5C
:1018380068EC13F0F10EBEEC05F0060E68EC13F040
:101848003A0EBEEC05F00C0E68EC13F00A0E136E9F
:101858000F6E635000EC17F0C8EC17F0ECEC09F0D1
:10186800120E68EC13F00A0E136E6350C8EC17F0F2
:10187800ECEC09F0180E68EC13F0A40E116E3AECBB
:1018880016F070801200050E6F6E63C01CF064C005
:101898001DF065C01EF062501200A20E0F6E170EEA
:1018A800106E1200050E6F6E7080050C5FD047EC4D
:1018B8000BF0050EC4650BD0070EC46108D06B0E83
:1018C8003F6ECF0E406ED00E416EB1EC0AF00E0E98
:1018D8000001C46503D00F0EC46506D02D0EC46583
:1018E80051D02F0EC4614ED0030E17D05CD8A3EC94
:1018F80011F0B00E0F6E1C0E49D82BEC12F03FEC15
:1019080009F02BEC12F020EEC4F010EE5FF0060E9A
:10191800DBCFE3FFE806FCE2050E6F6E33D0CD0E99
:101928005A6E690E5B6E09EC00F036EC14F03BD889
:10193800A3EC11F02E0E0F6E0F0E106E2ED82BEC9E
:1019480012F0EAD736EC14F02ED8A3EC11F0920E70
:101958000F6E0B0E106E21D82BEC12F0DDD7050E92
:101968006F6E4EEC0DF0A3EC11F00CD06F50010A25
:10197800BDE0030AD4E0010AE5E0070AF0E0010A45
:1019880096E0030AA40E116E3AEF16F0106E126A72
:10199800116A146A320E136E320C126A116A146AD2
:1019A800140E136E140CB40E0F6E180E106E120077
:1019B80033D07AD8A3EC11F063D82BEC12F06AD8A4
:1019C800A3EC11F0050E6F6E31D06ED8A3EC11F0B8
:1019D80061D8A3EC11F054D82BEC12F0F3D7682A95
:1019E800050E686402D0010E686E3FEC09F02BEC1E
:1019F80012F055D811EC18F0B2EC15F017D06806B3
:101A0800685002E1050E686E3FEC09F02BEC12F00D
:101A180046D811EC18F0F0D76F50010ACAE0030A53
:101A2800DEE0010AECE0070AD0E0010A70A022D04B
:101A3800D80EBEEC05F0000E68EC13F0F00EBEEC0C
:101A480005F0060E68EC13F03A0EBEEC05F00C0E2D
:101A580068EC13F00A0E136E6850C8EC17F0ECEC43
:101A680009F0120E68EC13F0176AE7EC09F0180E8B
:101A780068EC13F0A40E116E3AEC16F070801200A8
:101A8800B40E0F6E180E106E126A116A146A140ED4
:101A9800136E140CA60E0F6E320E106E1200050E89
:101AA8006F6E68C00FF0000CB80E0F6E190E106E36
:101AB80012003DD077D8A3EC11F0800E0F6E090EFE
:101AC800106ED1EC0CF02BEC12F03FEC09F02BEC83
:101AD80012F0050E6F6E709034D064D8A3EC11F03C
:101AE8004EEC0DF0A3EC11F044EC0DF02BEC12F0E1
:101AF800050E6F6E26D0652A630E656401D0656A8F
:101B08003FEC09F02BEC12F047EC0CF075EC16F0FA
:101B180018D06506652802E1630E656E3FEC09F092
:101B28002BEC12F047EC0CF075EC16F00AD06F5065
:101B3800010AC0E0030ADFE0010AEBE0070ACDE092
:101B4800010A70A029D0D00EBEEC05F0000E68EC9A
:101B580013F0EA0EBEEC05F0060E68EC13F03A0E30
:101B6800BEEC05F00C0E68EC13F00A0E136E0F6E47
:101B7800655000EC17F0C8EC17F0ECEC09F0120E09
:101B880068EC13F00A0E136E6550C8EC17F0ECEC15
:101B980009F0180E68EC13F0A40E116E3AEC16F06A
:101BA80070801200BA0E0F6E1A0E106E120000012D
:101BB800A35119E0A36B0101DE6B12D0DE5165D889
:101BC800DE50DE1007E1DE51080D67D8010EDE6E2B
:101BD800DD6A05D0DE5159D8DE06000EDD5ADE2B4F
:101BE8006750DE5DEBE30101DF6B4BD0DF51080D81
:101BF80054D8DE04DE1043E1DF51E8EC10F0DECF0C
:101C0800DCF1DDCFDDF1DF51FAEC10F0DE50DE1053
:101C18000AE1DF51E8EC10F0DECF0FF0DDCF10F075
:101C2800A3EC11F01FD0DF51F0EC10F0DF512DD8EC
:101C3800DE50DE1017E10001FA69FB690101DF518E
:101C4800FAEC10F0DECFFCF0DDCFFDF00001FA5128
:101C5800FC27FB51FD230101DF5117D8FCC0DEFF33
:101C6800FDC0DDFF01D80BD005000101FA6EDC5183
:101C7800FD6EDD51FE6EF850FF6EFA501200010144
:101C8800DF2B6750DF5DB2E31200080D020EF3246C
:101C9800D96E010EF420DA6E1200060EF324D96E06
:101CA800010EF420DA6E120070B202D070823BD0BE
:101CB800709239D06BD8A3EC11F09E0E0F6E120EF5
:101CC800CAEC0CF02BEC12F03FEC09F02BEC12F004
:101CD800050E6F6E32D05AD8A3EC11F04EEC0DF011
:101CE800A3EC11F044EC0DF02BEC12F0F1D7602AC4
:101CF8003B0E606401D0606A3FEC09F02BEC12F0F7
:101D0800F2EC09F04AEC17F0E3D76006602802E12C
:101D18003B0E606E3FEC09F02BEC12F0F2EC09F090
:101D28004AEC17F0D5D76F50010AC4E0030ADFE088
:101D3800010AEBE0070ACFE0010A70A215D0F7EC20
:101D480009F000EC17F0C8EC17F0ECEC09F00D0EF8
:101D580068EC13F006EC0AF0C8EC17F0ECEC09F0AC
:101D6800130E68EC13F00CD0176AE7EC09F00D0EAF
:101D780068EC13F0176AE7EC09F0130E68EC13F03F
:101D8800A40E116E3AEC16F070801200B00E0F6EB1
:101D98001C0E106E1200266E2B6A2C6A2D6A2E6A93
:101DA8002F6A61D845EC19F0EC0E3BEC19F026507F
:101DB8003BEC19F049EC19F0ED0E3BEC19F0010E73
:101DC80047EC18F0276E286A296A2A6A010E47EC40
:101DD80018F02B6E2C6A2D6A2E6A000E47EC18F04C
:101DE8002F6E41D841EC19F02BC017F02CC018F019
:101DF8002DC019F0166A27C01AF028C01BF029C098
:101E08001CF02AC01DF01BC01DF01AC01CF01B6A74
:101E18001A6A16501A241E6E17501B201F6E18506F
:101E28001C20206E19501D20216E2F501E24226E5A
:101E380030501F20236E31502020246E3250212034
:101E4800256E050E05D0D890253224322332223251
:101E5800E82EF9D722C012F023C013F024C014F0E2
:101E680025C015F01200306A316A326A120044C087
:101E780048F0496A4A6A4334483601E34980485081
:101E88004B6E4B5001E153D047C048F0496A4A6A4B
:101E98004634483601E349804850506E505001E1BD
:101EA80046D050507B0F4B2644C050F04750501A34
:101EB800800E5016438E468E000E47164C6A4D6AA9
:101EC8004E6A070E4F6E42B02BD8D8904432433238
:101ED8004232D8904536463647364F2EF4D7090E4B
:101EE8004F6E42B01DD8D890443243324232D89017
:101EF8004E324D324C324F2EF4D74CC00FF04DC0FD
:101F080010F04EC011F04BC012F050C013F0E8ECC6
:101F180011F00FC042F010C043F011C044F012009D
:101F280045504C2646504D2247504E221200426AD8
:101F3800436A446A120053C055F0566A576A5234CD
:101F4800553601E3568055500001D66FD65105E14C
:101F5800516A526A536A546A1200170E556E51C07C
:101F680056F052C057F053C058F05528596E04D057
:101F7800D890583257325632592EFAD75650000157
:101F8800D16F528E536A5150D26F5250D36F535003
:101F9800D46FD56B8E0ED65FD6AF0CD0D651800AD3
:101FA8008F0FD6E3D890D533D433D333D233D63F3B
:101FB800F9D70CD0170ED66507D0CAD7D890D23724
:101FC800D337D437D537D607D651F8E1D15108E001
:101FD800D51FD41FD31FD26D000ED323D423D523EE
:101FE800D2C051F0D3C052F0D4C053F0D5C054F091
:101FF8001200246A22AE0AD0221E211E201E1F6C47
:10200800000E202221222222010E246E1EAE0AD0AA
:102018001E1E1D1E1C1E1B6C000E1C221D221E22B5
:10202800010E241A256A266A276A286A1F5020107A
:102038002110221029E0010E236E06D0D8901F36F9
:10204800203621362236232A22AEF8D7D8902536D4
:102058002636273628361F501B5C20501C58215026
:102068001D5822501E5809E31F501B5E20501C5A51
:1020780021501D5A22501E5A2580D89022322132D2
:1020880020321F32232EE2D7245008E0281E271EB4
:10209800261E256C000E26222722282225C01BF08A
:1020A80026C01CF027C01DF028C01EF0120023C057
:1020B80027F0286A296A2234273601E32880275026
:1020C8002E6E2E5001E14AD026C027F0286A296AD0
:1020D8002534273601E3288027502F6E2F5001E141
:1020E8003DD02B6A2C6A2D6A2F50890F2E5E23C093
:1020F8002FF026502F1A800E2F16228E236A258E37
:10210800266A180E2A6ED8902B362C362D36245077
:10211800215C255022582650235807E32450215E7D
:102128002550225A2650235A2B80D8902136223601
:1021380023362A2EE8D72BC00FF02CC010F02DC064
:1021480011F02EC012F02FC013F0E8EC11F00FC000
:1021580021F010C022F011C023F01200216A226A77
:10216800236A12000150021001E11200096A15D019
:1021780009502AD80150DE180FE10250DE180CE190
:10218800F29E095049EC0EF03ED809502FD836D8A7
:10219800095022D8F28E000C092A6750095CE8E33E
:1021A8000F0E67600F0CF29E67500ED801C0DEFF5D
:1021B80002C0DDFF675049EC0EF025D8675016D8ED
:1021C8001DD8675009D824D0080D000EF324D96E05
:1021D800010EF420DA6E1200080D060EF324D96EF3
:1021E800010EF420DA6EDE6ADD6A1200080D040EB4
:1021F800F324D96E010EF420DA6E120005C0DEFF5A
:1022080006C0DDFF120003C0DEFF04C0DDFF1200C0
:10221800672AF28E000C1D6E1F6A206A1D50A40FDB
:102228002024D96EDA6A1F500708186E1750030D5C
:10223800D40E196EBD0E1A6EF3501926F4501A22D8
:1022480020501926000E1A2219C0F6FF1AC0F7FFEF
:102258000800F5CF1BF0182A02D0D8901B32182E90
:10226800FCD71D50A40F2024E16EE26AE7501C6ED3
:10227800D8901C341B10DF6E202A020E2064CED7A3
:102288001E6A0D0E186EFC0EE82EFED7182EFCD70F
:102298001E2A130E1E64F5D7A40E116E3AEC16F022
:1022A8001F2A070E1F64B9D7070C236E256A266AF2
:1022B8002350A40F2624D96EDA6A255007081E6E0B
:1022C8001B50050D1CC01FF01DC020F0F3501F2629
:1022D800F450202226501F26000E20221FC0F6FF91
:1022E80020C0F7FF0800F5CF21F01E2A02D0D890B1
:1022F80021321E2EFCD72350A40F2624E16EE26A59
:10230800E750226ED89022342110DF6E262A040E60
:102318002664CED7246A0D0E1E6EFC0EE82EFED75C
:102328001E2EFCD7242A130E2464F5D7A40E116E92
:102338003AEC16F0252A070E2564B9D7070C176A58
:102348003FD01750E8EC10F00F50DE1838E110506D
:10235800DE1835E1F29E1750116E126A1368146880
:102368006750156E166A1350152614501622115010
:10237800151803E1125016181FE06750116E126A03
:10238800D89011361236D89011361236D8901136A8
:102398001236F80E1124D96E000E1220DA6E17507C
:1023A800080D000EF324E16E010EF420E26E070E14
:1023B800DBCFE3FFE806FCE26706F28E1200172A7D
:1023C8006750175CBEE31200125004E00F50101063
:1023D800111006E10F6A106A116A1200122A2DD82C
:1023E800146A156AFE0E11142DD807E0F7D7122AC1
:1023F8000F2A000E1022112220D8146A156A1150D3
:1024080021D806E0F4D71206D8900F3610361136C8
:1024180010BE03D0020E1260F6D712A0109ED890FC
:10242800123212501112135001E0118E0FC00FF02A
:1024380010C010F011C011F01200D89011321032F3
:102448000F321200166E14501510161012000F508D
:10245800101001E11200176A18D01750E8EC10F0BC
:102468000F50DE1811E11050DE180EE1F29E1750E1
:1024780049EC0EF025D81750FAEC10F026D8175072
:10248800F0EC10F0F28E000C172A6750175CE5E3A9
:102498000F0E67600F0CF29E6750E8EC10F00FC04B
:1024A800DEFF10C0DDFF675049EC0EF009D8675019
:1024B800FAEC10F00AD86750F0EC10F00CEF11F0BD
:1024C80011C0DEFF12C0DDFF120013C0DEFF14C012
:1024D800DDFF12000600D9CF0BF0DACF0CF0F3CFF6
:1024E8000DF0F4CF0EF0F2BAF2A403D02DEC19F0EF
:1024F80029D0F2B8F2A211D0F292010EF1AC000E7E
:10250800FF0A0A6E0A3A0A460A46F1500A18BF0B31
:102518000A18F16EF8EC18F015D09DB09EA008D0FE
:102528009E903C0ECF6EB00ECE6EEEEC18F00AD038
:10253800A0B2A1A207D0A192EC0EB36E780EB26E33
:1025480068EC18F00EC0F4FF0DC0F3FF0CC0DAFF02
:102558000BC0D9FF719211001750D96EDA6A060EB6
:1025680077EC17F0DF6E1750D96EDA6A175022D859
:10257800E3EC18F023D8050E77EC17F01F0B1ED8E4
:10258800165018D8E3EC18F01ED8040E77EC17F0A4
:102598003F0B19D815500ED8E3EC18F019D8030ED4
:1025A80077EC17F0070B14D8145004D8E3EC18F0A4
:1025B800DF6E1200E16EE26AE7501200DF6E16501D
:1025C800D96EDA6A1200DF6E1550D96EDA6A120017
:1025D800DF6E1450D96EDA6A1200116A1150A50F15
:1025E800D96EDA6A115060EC14F0112A1E0E1164CB
:1025F800F5D7040E66640DD023D807E1662A1F0EAE
:102608006664010CA26B666A000CC36B666AA22B37
:10261800010C16D8050DDA0E0F6EB70E106EF350BA
:102628000F26F450102266500F26000E10220FC0FD
:10263800F6FF10C0F7FF0800F5CFC3F0662A010CBB
:10264800780E0001A225D96EDA6A010EDA22DF506F
:102658001200176A186A196A1A6A135014101510AA
:10266800161029E0010E1B6E06D0D89013361436CA
:10267800153616361B2A16AEF8D7D89017361836E0
:1026880019361A3613500F5C14501058155011583B
:102698001650125809E313500F5E1450105A155073
:1026A800115A1650125A1780D89016321532143211
:1026B80013321B2EE2D717C00FF018C010F019C044
:1026C80011F01AC012F012001D6E010E1C6E1F6A66
:1026D8001E6A1750050D18C01AF019C01BF0F350E8
:1026E8001A26F4501B221F501A26000E1B221AC04D
:1026F800F6FF1BC0F7FF0800F5501C1407E01EC0CA
:102708000FF01D501F2435EC18F006D01EC00FF036
:102718001D501F24A1EC17F0D8901C361E2A070E56
:102728001E64D7D7010E1C6E1F2A040E1F64D0D753
:10273800040C186E010E176E1A6A196A1450070DE8
:10274800870E156EB70E166EF3501526F450162226
:102758001A501526000E162215C0F6FF16C0F7FFF0
:102768000800F550171407E019C00FF018501A2484
:1027780035EC18F006D019C00FF018501A24A1EC47
:1027880017F0D8901736192A070E1964D7D7010EF3
:10279800176E1A2A060E1A64D0D7060C206A8E0EF7
:1027A8001F6E1AAE11D01A1E191E181E176C000EB5
:1027B800182219221A22010E206E06D0D8901A3239
:1027C8001932183217321F2A1B6A1C6A1D6A1A50DE
:1027D8001E6E1B501C101D101E10F0E117C00FF0CC
:1027E80018C010F019C011F01FC012F020C013F06B
:1027F800E8EC11F00FC017F010C018F011C019F074
:102808001200205021102210231023E0010E246E04
:1028180006D0D8902036213622362336242A23AEF5
:10282800F8D720501C5C21501D5822501E582350A8
:102838001F5808E320501C5E21501D5A22501E5A72
:1028480023501F5AD8902332223221322032242E8C
:10285800E8D71CC01CF01DC01DF01EC01EF01FC014
:102868001FF01200640E186E176A196A1950A50F26
:10287800D96EDA6A195020D8192A1F0E1964F6D7AA
:102888000001C36BA40E116E3AEC16F0166A08D05C
:102898000D0E156EFC0EE82EFED7152EFCD7162A47
:1028A8001850165CF5E30A0E186401D0185E172A52
:1028B8001F0E1764DAD71F0CA40FE16EE26ADFCF90
:1028C800E7FF12001650D96EDA6A000E77EC17F09F
:1028D800DF6E1650D96EDA6A1650DEEC12F0E3ECB1
:1028E80018F016D8010E77EC17F012D81550DEEC58
:1028F80012F0E3EC18F011D8020E77EC17F03F0B4A
:102908000CD81450DEEC12F0E3EC18F0DF6E120075
:10291800DF6E1550D96EDA6A1200DF6E1450D96E68
:10292800DA6A1200FA0ECFEC0EF012C045F013C0AE
:1029380046F014C047F015C048F00B0E446E260E42
:10294800436E5E0EE82EFED7432EFCD7442EFAD7F0
:10295800500E346EBE0E356E45C036F046C037F0A8
:1029680047C038F048C039F0EDEC17F045C03FF0EB
:1029780046C040F047C041F048C042F01200F70E90
:10298800CFEC0EF012C045F013C046F014C047F06B
:1029980015C048F00B0E446E260E436E5E0EE82EF0
:1029A800FED7432EFCD7442EFAD7300E346EBE0E17
:1029B800356E45C036F046C037F047C038F048C0DD
:1029C80039F0EDEC17F045C03FF046C040F047C085
:1029D80041F048C042F01200AC0EF66E320EF76EAF
:1029E800000EF86E0900F5CF6DF00900F5CF6EF016
:1029F8000900F5CF6FF001EE00F0DC0EEE6AE80694
:102A0800FDE100EE80F0510EEE6AE806FDE1706A25
:102A180000EE5FF00E0EEE6AE806FDE1719071922D
:102A2800000EF86E000119EF15F0820E5E6EDE0ED4
:102A3800E82EFED75E2EFCD758EC16F014EC19F0F1
:102A4800F29EB40E0F6E180E106E126A640E116E9E
:102A5800146A140E136E2BEC12F0CC0E0F6E2A0EA5
:102A6800106E126A116A146A010E136E2BEC12F0C2
:102A7800F28EDBEC0DF0FDD7166E196A1A6A45EC7A
:102A880019F0EC0E3BEC19F016503BEC19F049EC40
:102A980019F0ED0E3BEC19F0010E47EC18F0196E29
:102AA8001A6A000E47EC18F0176E186A41EC19F014
:102AB8001750156E146A19501410126E1A5015100A
:102AC800136E120081B802D0010E0BD081B202D071
:102AD800020E07D081B402D0030E03D081B603D012
:102AE800040E0F6E01D00F6A0F500FE01F0E000189
:102AF800A0611F0CA02B1E0EA019D8A412000FC095
:102B08006FF0A06B010EA16F010C0001A06B120009
:102B1800176A186A196A1A6A0FA008D0135017267C
:102B2800145018221550192216501A22D89013360C
:102B3800143615361636D8901232113210320F323A
:102B48000F50101011101210E7E117C00FF018C045
:102B580010F019C011F01AC012F0120019D0A20E0C
:102B68006D6EBD0E6E6E1200700E6D6EBD0E6E6EC9
:102B780012003E0E6D6EBD0E6E6E12000C0E6D6E66
:102B8800BD0E6E6E1200DA0E6D6EBC0E6E6E120009
:102B98006850010AE4E0030AE7E0010AEAE0070AEC
:102BA800EDE0010AF0E01200146A156A11501210E3
:102BB8001BE0010E136E04D0D89011361236132A7A
:102BC80012AEFAD7D8901436153611500F5C125041
:102BD800105805E311500F5E1250105A1480D89007
:102BE80012321132132EEED714C00FF015C010F0A8
:102BF80012001850191017E0010E1A6E04D0D89060
:102C0800183619361A2A19AEFAD71850165C195000
:102C1800175804E31850165E1950175AD8901932ED
:102C280018321A2EF2D716C016F017C017F0120075
:102C380082909490070E0F6E7D0EE82EFED70F2E11
:102C4800FCD700F082809480C80E00D0E82EFDD713
:102C5800000E82B0010E106E060E0F6E800EE82E6A
:102C6800FED70F2EFCD700D010501200146A8C909B
:102C7800136A1350F80D1150F3241424D96EDA6A2C
:102C8800180ED926DF50126E142823EC18F01250B3
:102C980023EC18F0132A030E1364EBD78C80142A44
:102CA800070E1464E4D7070C93EC18F0D8EC18F06E
:102CB8001AEC17F085EC18F050EC19F00BEC19F041
:102CC8008DEC17F01DEC19F0CBEC18F0B7EC06F012
:102CD800106A0F6A02EC19F0686EB2EC15F04DEF4D
:102CE80019F01F6E1F50B5EC17F01A6E030EAFECFB
:102CF80018F01C50B5EC17F01A6E040EAFEC18F073
:102D08001D50B5EC17F01A6E050EAFEC18F01E50FA
:102D1800B5EC17F01A6E060EAFEF18F0126E146AC3
:102D280014C010F012C011F0102A02D0D89011323D
:102D3800102EFCD71150136E010E13161350DBEC36
:102D480017F0142A070E1464EBD7D20E00D0E82E21
:102D5800FDD71200116A126ABDEC18F000090CE0E8
:102D680012C00FF0010E106E0F2A02D0D890103644
:102D78000F2EFCD710501112F00E00D0E82EFDD700
:102D8800122A070E1264E8D7115012003F50401063
:102D9800411002E0800E411A3CC030F03DC031F0D5
:102DA8003EC032F03FC033F040C034F041C035F08F
:102DB8000AEC0AF030C03CF031C03DF032C03EF0C1
:102DC80012001A6A18AE06D0176C181ED8B0182A46
:102DD800010E1A6E17C00FF018C010F0116A8E0E8F
:102DE800126E1AC013F0E8EC11F00FC017F010C003
:102DF80018F011C019F01200106E126A0F5014E08A
:102E0800010E116E03D0D8900F36112A0FAEFBD7E2
:102E1800D89012360F50105C03E30F50105E1280EA
:102E2800D8900F32112EF4D7125012008C80010E58
:102E3800116E0C0E59EC18F0116A090E59EC18F0C5
:102E4800070E116E0B0E59EC18F0010E116E0A0EDA
:102E580059EC18F0116A0F0E59EF18F034C039F018
:102E680035C03AF03B6A3C6A380E386E390E256E2A
:102E780036C026F037C027F0380E286E42EC03F033
:102E880039C0D9FF3AC0DAFFDF6A000C1E6E1D5048
:102E9800B5EC17F01A6E000EAFEC18F01C50B5EC3C
:102EA80017F01A6E010EAFEC18F01E50B5EC17F0C3
:102EB8003F0B1A6E020EAFEF18F010D0A40E116E71
:102EC8003AEC16F0166A0D0E156EFC0EE82EFED7BB
:102ED800152EFCD7162A3B0E1664F5D7F1EC12F026
:102EE8000009ECE11200126E45EC19F0D00E3BEC33
:102EF80019F012503BEC19F049EC19F0D10E3BECEB
:102F080019F0000E47EC18F0136E41EC19F013504D
:102F180012001CEC16F00009D8A41200CC0E92EC9A
:102F280016F04E0E92EC16F0000E92EC16F0000E13
:102F380092EC16F07F0E92EF16F0136E0FC010F0A1
:102F4800010E116E102A02D0D8901136102EFCD71F
:102F5800111C126E1350A40FD96EDA6A1250DF16C4
:102F68001200196E0A0E136E1950C8EC17F0176E7E
:102F78000F0E17160A0E0F6E195000EC17F0186E88
:102F88001838F00B17101200146E080E156E166A1A
:102F9800D89014341634166ED89014361350165C24
:102FA80002E31350165E152EF3D7165012000F6E5B
:102FB800829094900F0406E1060EE82EFED700D00A
:102FC80082809480D20E00D0E82EFDD78280948033
:102FD80012003B6A3C6A6A0E3D6E320E3E6E360E39
:102FE8003A6E3B0E256E34C026F035C027F03A0EF7
:102FF800286E42EF03F017C00FF018C010F0116AE6
:103008008E0E126E000E136EE8EC11F00FC017F062
:1030180010C018F011C019F01200106EA6B2FED739
:1030280010C0A9FF0FC0A8FFA69EA69CA684F29E6A
:10303800550EA76EAA0EA76EA682F28EAA0C0F6E68
:10304800106A0FAE02D08C8401D08C948C8200F070
:1030580000F08C92D8900F36102A070E1064F1D722
:10306800070C126E0FC010F0010E116E102A02D05C
:10307800D8901136102EFCD71250A40FD96EDA6AE8
:103088001150DF121200106E25EC19F0C58625ECE0
:1030980019F0C9CF11F025EC19F0105002E1C58ADA
:1030A80001D0C59AC58811501200126E8C90136A0F
:1030B800125023EC18F0115023EC18F0132A030EC9
:1030C8001364F6D78C80030C0001A151D8B4120008
:1030D8009F2B140E9F6103D0800E8C1A800C9F6B5F
:1030E800A16B8C9E1200126E45EC19F0EC0E3BECB5
:1030F80019F012503BEC19F011503BEC19F041EF6C
:1031080019F0CD903C0ECF6EB00ECE6E9D80B19270
:10311800B180A082EC0EB36E780EB26E780C8B6A1A
:10312800180E946E8A6A1F0E936EF19E8C6A956AC9
:10313800F18CF292F2888280120087EC06F066EC3D
:1031480014F0C70E146EC80E156EC90E166ECA0E90
:10315800176EB0EF12F01B6E45EC19F0D00E3BEC79
:1031680019F01B503BEC19F01A503BEC19F041EFE9
:1031780019F082909490030EE82EFED700F082801A
:103188009480140EE82EFED782B0010C000C948CAB
:10319800948EAC84AC98AC8AAB88AB8EB886040E9F
:1031A800B06E100EAF6E100C180E9412280EC66E6C
:1031B800C76A630EC86EC584C5A41200FDD7106E19
:1031C80010C00FF00F0E0F1610380F0B0A0DF3502A
:1031D8000F2412000001D02B950ED065950CD06BF2
:1031E800010ECF6FCD90010C420E016E310E026EB2
:1031F800046A036A066A056AB6EF10F0A6B2FED73B
:103208000FC0A9FFA69EA69CA680A85012001A6A05
:103218000E0EAFEC18F0080E1A6E0F0EAFEF18F086
:103228000F6A0F50CCEC0BF00F2A200E0F64F9D761
:10323800200CC70ED56EF28AD76A3D0ED66E676A25
:103248001200C7B4FED7C5CF0FF01F0E0F16F9E155
:103258001F0CF294D76A3D0ED66E010E0001A36FC3
:10326800010C0F6E9EA8FED70FC0ADFF1200106EA6
:1032780025EC19F010C0C9FF120025EC19F0C5841F
:10328800120025EC19F0C580120025EC19F0C58252
:103298001200959E8C9E1200F28EF28C1200040E83
:0732A8006F6E040CA2BD05CE
:10B75E0000010000000A00000064000000E8030081
:10B76E000010270000A086010040420F008096982E
:10B77E000000E1F50500CA9A3B0000000000000041
:10B78E00087C4E4F4E7C080426473F070604203E99
:10B79E007F7F3F3E207E121E0070100001000000D1
:10B7AE001000000000010000001000000000010069
:10B7BE000000100000000001000000100001010256
:10B7CE000203040405060607070809090000000025
:10B7DE00004551453E006B6F6B3E003E7C3E1C00AB
:10B7EE003C7E3C1800367F36300000000000000022
:10B7FE00000000000000000000000000000000003B
:10B80E00000000000000000000000000000000002A
:10B81E00000000000000000000000000000000001A
:10B82E00000000000000000000000000000000000A
:10B83E0000000000000000000000000000000000FA
:10B84E00000000007C4E4E7C0820347E3420000028
:10B85E00363600000000000000000000000000006E
:10B86E0000000000000000000000000000000000CA
:10B87E000000005F00000007000700147F147F1413
:10B88E00242A7F2A12231308646236495620500058
:10B89E0008070300001C2241000041221C002A1C44
:10B8AE007F1C2A08083E080800807030000808082F
:10B8BE000808606000000020100804023E5149454F
:10B8CE003E00427F400042615149462141454B3185
:10B8DE001814127F1027454545393C4A4949300115
:10B8EE00710905033649494936064949291E0000A2
:10B8FE00363600004034000000081422411414149F
:10B90E001414004122140802015909063E415D59E2
:10B91E004E7C1211127C7F494949363E41414122EB
:10B92E007F4141413E7F494949417F090909013E15
:10B93E00414151727F0808087F00417F410020403D
:10B94E00413F017F081422417F404040407F020466
:10B95E00027F7F0408107F3E4141413E7F09090965
:10B96E00063E4151215E7F09192946264949493231
:10B97E0001017F01013F4040403F1F2040201F3FFB
:10B98E004038403F63140814630304780403615184
:10B99E00494543007F414100020408102000414107
:10B9AE007F000402010204404040404000030708AB
:10B9BE000020545478407F28444438384444442866
:10B9CE00384444287F3854545418087E090200180D
:10B9DE00A4A49C787F0804047800447D4000204095
:10B9EE00403D007F1028440000417F40007C0478D9
:10B9FE0004787C080404783844444438FC18242421
:10BA0E001818242418FC7C040408004854545424A8
:10BA1E0000043F44203C4040207C1C2040201C3C25
:10BA2E004030403C44281028444C9090907C446414
:10BA3E00544C4400083641000000770000004136A7
:10BA4E0008000201020402000000000000000000D5
:10BA5E0000000000000000000000000000000000D8
:10BA6E000000000000400040004000000000000008
:10BA7E00000000003E55554122000000000000006D
:10BA8E0000000000000000000000000000000000A8
:10BA9E000000000000000000000000000000000098
:10BAAE000000000000000000000000000000000088
:10BABE000000000000000C1E1E0C00000000000024
:10BACE000000000000000000000000000000000068
:10BADE000000000000000000000000000000000058
:10BAEE000000000000000000000000000000000048
:10BAFE000000000000000000000000000000000038
:10BB0E0000000000007E02020203000000000000A0
:10BB1E00000000007E4B4A4B4200000000003E49F0
:10BB2E004949220000000000000000000000000053
:10BB3E000000000000000000417E410000060909DF
:10BB4E000644445F444400417F410000447D400070
:10BB5E00007C04040600000000000000000000004D
:10BB6E0000000000385554551800000000003854ED
:10BB7E0054544422142A14082040403D0000000072
:10BB8E000000000000000000457C41007E111111F4
:10BB9E007E7F494949317F494949367F010101017B
:10BBAE00C07E417EC07F4949494177087F08772290
:10BBBE00414949367F1008047F7E1109057E7F08B2
:10BBCE00142241407E01017F7F020C027F7F080814
:10BBDE00087F3E4141413E7F0101017F7F090909F6
:10BBEE00063E4141412201017F0101274848483F5D
:10BBFE000E117F110E63140814637F40407FC0073F
:10BC0E000808087F7F407E407F7F407E40FF017F97
:10BC1E004444387F4438007F7F44444438224149AD
:10BC2E00493E7F083E413E462919097F205454540F
:10BC3E00783C4A4A4A317C54545428007C0404040B
:10BC4E00C078447CC038545454186C107C106C2846
:10BC5E00445454287C2010087C7C2111097C7C10D3
:10BC6E00102844403804047C7C0810087C7C10109A
:10BC7E00107C38444444387C0404047C7C14141432
:10BC8E0008384444442804047C04044C5050503C6E
:10BC9E0018247C2418006C10106C7C40407CC00C66
:10BCAE001010107C7C4078407C7C407840FC047CFA
:10BCBE005050207C5020007C007C50502044545426
:10BCCE0054387C10384438485434147C3E41417FFB
:10BCDE003E00027F7F006273594F462263497F36D2
:10BCEE001814127F7F2F45457D393E49497B32031B
:10BCFE0071790F073649497F362649497F3E3E7F87
:10BD0E00417F3E00027F7F006273594F4622634996
:10BD1E007F361814127F7F2F6F457D393E7F497B0A
:10BD2E00320373790F07367F497F36266F497F3E80
:10BD3E007F41417F7F00017F7F007151515F5F41E5
:10BD4E0049497F7F1F10107F7F4F494979797F497D
:10BD5E004979790101017F7F7F49497F7F4F4949A9
:10BD6E007F7F7F7F417F7F00017F7F007373515FF5
:10BD7E005F636B497F7F1F1F107F7F6F6F497979DC
:10BD8E007F7F497B7B0373790F077F7F497F7F6FAF
:10BD9E006F497F7F7F7F417F7F00017F7F006171D1
:10BDAE00594F474149497F7F1F1F107F7F4F4F4992
:10BDBE0079797F7F4979790171790F077F7F497F83
:10BDCE007F5F5F517F7F0000007C447C007C0074AD
:10BDDE00545C54547C1C107C5C54747C5474040469
:10BDEE007C7C547C5C547C03436C6F636B2076319B
:10BDFE002E30206279204976616E5F66640054654C
:10BE0E006D70657261747572653A2025640A0D2035
:10BE1E000030313233343536373839616263646518
:10BE2E006600556E6350726573733A20256C640A12
:10BE3E000D0054656D706572424D503A2025640AAE
:10BE4E000D00556E6354656D703A20256C640A0DB5
:10BE5E000050726573733238303A2025750A0D0022
:10BE6E00556E6350726573733A2025780A0D00542F
:10BE7E00656D703238303A2025640A0D00646967AA
:10BE8E005F50323A2025640A0D006469675F5432B0
:10BE9E003A2025640A0D006469675F50333A202505
:10BEAE00640A0D006469675F54333A2025640A0DF5
:10BEBE00006469675F50343A2025640A0D00646996
:10BECE00675F50353A2025640A0D006469675F503C
:10BEDE00363A2025640A0D006469675F50383A20AF
:10BEEE0025640A0D006469675F50393A2025640A9B
:10BEFE000D006469675F50313A2025750A0D0064A4
:10BF0E0069675F54313A2025750A0D004143313A75
:10BF1E002025640A0D004143323A2025640A0D00A3
:10BF2E004143333A2025640A0D0058313A20256CDE
:10BF3E00690A0D0058323A20256C690A0D00423309
:10BF4E003A20256C690A0D0042343A20256C690AA4
:10BF5E000D0042373A20256C690A0D0050703A20C8
:10BF6E00256C690A0D004143343A2025750A0D00EF
:10BF7E004143353A2025750A0D004143363A2025B6
:10BF8E00750A0D00ECEC2EF0F22EF1F22E0042317D
:10BF9E003A2025640A0D0058313A2025640A0D0016
:10BFAE0042323A2025640A0D0058323A2025640A9E
:10BFBE000D0058333A2025640A0D0042353A2025EB
:10BFCE00640A0D0042363A2025640A0D004D423AAD
:10BFDE002025640A0D004D433A2025640A0D004DBC
:10BFEE00443A2025640A0D0050703A2025640A0D4B
:02BFFE00000041
:020000040020DA
:08000000FFFFFFFFFFFFFFFF00
:020000040030CA
:0E000000FF061E1EFF8181FF0FC00FE00F40A4
:0200000400F00A
:080000000300000000000000F5
:00000001FF
