:0400000007EF00F016
:10000800718279ED0BF0A8EF0CF0E8D0250E3218CC
:1000180017E007D9DE50DE100EE003D901D8DED094
:100028000500FA6EDE50FD6EDE50FE6EF850FF6E73
:10003800FA5032501200D8D832C0DFFF03D9CED0E0
:10004800316A04D0318802D0318C0CD0F0D801E16B
:10005800C8D0640A07E00D0A05E0050AF3E0190AAA
:10006800F3E0BCD031BC1BD031A802D0C9D80AD02B
:10007800F0D8DECF2DF0DDCF2EF0000E2EBEFF0E15
:100088002F6E306E30AE1AD0030E3112301E2F1E76
:100098002E1E2D6C000E2E222F2230220FD031A8BA
:1000A80002D0AED80BD0D5D8DECF29F0DDCF2AF0DC
:1000B80029C02DF02AC02EF02F6A306A010E326E48
:1000C8003250040DAD0EF324F66EB80EF420F76E20
:1000D8000900F5502D5C0900F5502E580900F5501F
:1000E8002F580900F550305804E3322A0A0E321806
:1000F800E7E131C029F0030E291615E092D8DE5049
:10010800DE100DE08ED801D80ED00500FA6EDE5054
:10011800FD6EDE50FE6EF850FF6EFA502D0C64D85E
:100128002D0EDF6E8FD832502B6E2C6A2BBE2C060C
:100138004ED02BC029F02CC02AF0D89029362A3668
:10014800D89029362A36AD0E2924F66EB80E2A2004
:10015800F76E0900F5CF13F00900F5CF14F0090088
:10016800F5CF15F00A00F5CF16F02DC00FF02EC010
:1001780010F02FC011F030C012F03EEC0BF00FC0A1
:100188001CF010C01DF011C01EF012C01FF00A0EA6
:10019800206E216A226A236A19EC0CF01C50300F79
:1001A800326E3FD8DE50DE100EE03BD801D80FD0BB
:1001B8000500FA6EDE50FD6EDE50FE6EF850FF6EE2
:1001C800FA503250120010D832C0DFFF3BD82B064D
:1001D800D8A02C062B28ADE12C28ABE128D801E0CB
:1001E80015D7256A266A12002550D96EDA6ADECF3D
:1001F80029F0DDCF2AF029C0D9FF2AC0DAFF120082
:100208002850D96EDA6A040EDF26DF5CD96EDA6A06
:10021800DECF2DF0DECF2EF0DECF2FF0DECF30F0A8
:1002280012002550D96EDA6A020ED926020C26C0B1
:10023800F6FF27C0F7FF264A272A0800F5CF32F035
:10024800325012002550D96EDA6ADE2A000EDD22FD
:10025800000C2850D96EDA6ADF50DF2ADF2AD96EFF
:10026800DA6A12003DD002D975EC0AF0400E0F6E22
:100278000D0E106E1FEC07F0BAEC0AF009EC03F053
:10028800BAEC0AF02AEC07F035D0F0D875EC0AF091
:10029800A0EC07F075EC0AF096EC07F0BAEC0AF05F
:1002A800050E6F6E27D0462A0C0E466402D0010E4A
:1002B800466E09EC03F0BAEC0AF015EC07F0E0EC36
:1002C8000DF018D04606465002E10C0E466E09ECB9
:1002D80003F0BAEC0AF015EC07F0E0EC0DF00AD0E8
:1002E8006F50010AC0E0030ADEE0010AEBE0070AEA
:1002F800CCE0010A70A0AED0CC0EB2D8000EAFECA4
:100308000BF0F10EADD8060EAFEC0BF03A0EA8D8F4
:100318000C0EAFEC0BF084D0D10EA2D8120EAFECBD
:100328000BF0F70E9DD8180EAFEC0BF093D0CB0E58
:1003380097D8120EAFEC0BF0F20E92D8180EAFEC65
:100348000BF088D0C10E8CD8120EAFEC0BF0F00E6B
:1003580087D8180EAFEC0BF07DD0CA0E81D8120EDC
:10036800AFEC0BF0E20E7CD8180EAFEC0BF072D0AD
:10037800D20E76D8120EAFEC0BF0F00E71D8180E24
:10038800AFEC0BF067D0D70E6BD8120EAFEC0BF0BA
:10039800F00E66D8180EAFEC0BF05CD0CB0E60D820
:1003A800120EAFEC0BF0EF0E5BD8180EAFEC0BF0A3
:1003B80051D0D10E55D8120EAFEC0BF0EF0E50D82D
:1003C800180EAFEC0BF046D0C20E4AD8120EAFECA6
:1003D8000BF0F00E45D8180EAFEC0BF03BD0C60E64
:1003E8003FD8120EAFEC0BF0F20E3AD8180EAFEC65
:1003F8000BF030D0CB0E34D8120EAFEC0BF0F10E60
:100408002FD8180EAFEC0BF025D0C30E29D8120E3A
:10041800AFEC0BF0F00E24D8180EAFEC0BF01AD09E
:100428004650010A01E178D7030A81E0010A8AE00F
:10043800070A93E0010A9CE0030AA5E0010AAEE07E
:100448000F0AB7E0010AC0E0030AC9E0010AD2E0D6
:10045800070ADBE0890E116EC2EC0DF07080120005
:10046800176E010E186EB90E196E12006C0E0F6E13
:10047800020E106E12003AD0D3D875EC0AF05C0E5A
:100488000F6E0E0E106E1FEC07F0BAEC0AF0BDD816
:10049800BAEC0AF02AEC07F033D0C2D875EC0AF0AF
:1004A800A0EC07F075EC0AF096EC07F0BAEC0AF04D
:1004B800050E6F6E25D0442A070E446402D0010E43
:1004C800446EA3D8BAEC0AF015EC07F0E0EC0DF096
:1004D80017D04406445002E1070E446E96D8BAEC91
:1004E8000AF015EC07F0E0EC0DF00AD06F50010AA5
:1004F800C3E0030AE0E0010AECE0070ACEE0010AE3
:1005080070A07DD0C40E34EC02F0000EAFEC0BF0FE
:10051800ED0E34EC02F0060EAFEC0BF03A0E34ECB4
:1005280002F00C0EAFEC0BF05BD0CF0E34EC02F007
:10053800120EAFEC0BF0ED0E34EC02F0180EAFEC2F
:100548000BF05DD0C20E34EC02F0120EAFEC0BF0E3
:10055800F20E34EC02F0180EAFEC0BF050D0D10EC6
:1005680034EC02F0120EAFEC0BF0F00E34EC02F0AB
:10057800180EAFEC0BF043D0D70E34EC02F0120E8D
:10058800AFEC0BF0F20E34EC02F0180EAFEC0BF0FF
:1005980036D0CF0E34EC02F0120EAFEC0BF0F20EA8
:1005A80034EC02F0180EAFEC0BF029D0D10E34EC7D
:1005B80002F0120EAFEC0BF0E10E34EC02F0180E64
:1005C800AFEC0BF01CD0CD0E34EC02F0120EAFECF9
:1005D8000BF0E40E34EC02F0180EAFEC0BF00FD079
:1005E8004450010AF0E0030AA0E0010AABE0070A60
:1005F800B6E0010AC1E0030ACCE0010AD7E0890E9F
:10060800116EC2EC0DF070801200800E0F6E200E7D
:10061800106E070E126ED00E116E146A136AD00C8B
:100628007E0E0F6E040E106E1200A4D0F5EC0FF0C3
:10063800B7D8FAEC0CF0ACD885EC0DF016501710C2
:1006480010E1C5D8E4EC0BF0B3D885EC0DF01650EA
:1006580099D80D0E2BEC0AF0B3D8130E2BEC0AF038
:100668001AD0B5D8E4EC0BF09BD8FAEC0CF090D883
:1006780085EC0DF0165086D80D0E2BEC0AF098D8A4
:1006880085EC0DF016507ED8130E2BEC0AF098D896
:10069800190E2BEC0AF0060E6F6E800E0F6E200EF0
:1006A800106E020E126EEE0E116E146A136ABAEF15
:1006B8000AF0050E6F6E7AEC0CF0E9EC05F050ECE0
:1006C8000EF0FEEC0EF000090BE0E9EC05F050EC42
:1006D8000EF0FEEC0EF056D8000E2BEC0AF008D007
:1006E800000E1B6A6DC01CF06EC01DF02BEC0AF0EA
:1006F80001EC06F0FEEC0EF045D8060E2BEC0AF0E5
:10070800EEEC05F050EC0EF0FEEC0EF03BD80D0EC2
:100718002BEC0AF005EC06F0FEEC0EF033D8130EC5
:100728002BEC0AF0D0EC0EF04AEC0CF0F8EC05F0EB
:1007380050EC0EF0FEEC0EF0276E2728176E190EFF
:10074800E1EC09F0FDEC05F0FEEC0EF0276E272831
:10075800176E1D0EE1EC09F0A0EC07F075EC0AF03D
:10076800320E0F6E060E106E75EC0AF096EC07F05E
:10077800BAEF0AF06F50040A9CE0010A01E156D76B
:10078800030A12001B6E6DC01CF06EC01DF0120033
:100798000FC016F010C017F0196A0A0E186E0A0C6E
:1007A800126A0A0E116E69C00FF06AC010F00A0CC6
:1007B80069C016F06AC017F0196A0A0E186E0A0C9A
:1007C800B00E1B6E010E1C6EB90E1D6E1200010ECE
:1007D800146E030CAA0E1FEC0DF012C05CF013C0CF
:1007E8005DF0AC0E1FEC0DF012C05AF013C05BF0B8
:1007F800AE0E1FEC0DF012C058F013C059F0B00E39
:100808001FEC0DF012C056F013C057F0B20E1FECDB
:100818000DF012C054F013C055F0B40E1FEC0DF0DB
:1008280012C052F013C053F0B60E1FEC0DF012C0F8
:1008380050F013C051F0B80E1FEC0DF012C04EF07E
:1008480013C04FF0BA0E1FEC0DF012C04CF013C0DD
:100858004DF0BC0E1FEC0DF012C04AF013C04BF067
:10086800BE0E1FEC0DF012C048F013C049F00B0E7D
:100878003D6E260E3C6E5E0EE82EFED73C2EFCD753
:100888003D2EFAD7240E336EBF0E346E5CC035F0A1
:100898005DC036F023EC0FF02E0E336EBF0E346EB3
:1008A8005AC035F05BC036F023EC0FF0380E336ECB
:1008B800BF0E346E58C035F059C036F023EC0FF037
:1008C8007E0E336EBF0E346E56C035F057C036F00C
:1008D80023EC0FF0880E336EBF0E346E54C035F023
:1008E80055C036F023EC0FF0920E336EBF0E346E07
:1008F80052C035F053C036F023EC0FF09C0E336E27
:10090800BF0E346E50C035F051C036F023EC0FF0F6
:10091800AE0E336EBF0E346E4EC035F04FC036F09B
:1009280023EC0FF0DB0E336EBF0E346E4CC035F087
:100938004DC036F023EC0FF0E40E336EBF0E346E6C
:100948004AC035F04BC036F023EC0FF0ED0E336E95
:10095800BF0E346E48C035F049C036F023EF0FF0B3
:1009680070B202D0708243D0709241D0A6D875EC94
:100978000AF05E0E0F6E0F0E106E1FEC07F0BAEC49
:100988000AF009EC03F0BAEC0AF0050E6F6EF5EC0C
:100998000FF0709036D091D875EC0AF0A0EC07F003
:1009A80075EC0AF096EC07F0BAEC0AF0050E6F6EDB
:1009B80028D0432A170E436401D0436A09EC03F098
:1009C800BAEC0AF0050E6F6E6ED882EC0EF019D0F4
:1009D8004306432802E1170E436E09EC03F0BAEC14
:1009E8000AF0050E6F6E5FD882EC0EF00AD06F50D9
:1009F800010ABCE0030ADDE0010AEAE0070ACBE0ED
:100A0800010A70A03FD070A233D052D850EC0EF03B
:100A1800FEEC0EF042D80D0EAFEC0BF058D8FEEC01
:100A28000EF03BD8130EAFEC0BF04CD850EC0EF098
:100A3800FEEC0EF000090AE045D850EC0EF0FEEC92
:100A48000EF02BD8000EAFEC0BF008D0000E176A92
:100A58006DC018F06EC019F0AFEC0BF00A0E136EF3
:100A68004350FEEC0EF019D8060EAFEC0BF00AD08E
:100A7800176A0ED8000EAFEC0BF0176A09D8060EED
:100A8800AFEC0BF0890E116EC2EC0DF07080120005
:100A9800010E186EB90E196E1200176E6DC018F09F
:100AA8006EC019F0120042C01CF01D6A43501200BB
:100AB8000A0E136E0F6E42501200680E0F6E090E6A
:100AC800106E12000A0E136E0F6E435012000A0EBB
:100AD800136E42501200196A78D850EC0EF0FEECF2
:100AE8000EF0000909E071D850EC0EF0FEEC0EF0A3
:100AF8003BD8890F64D802D0195071D87ED8FEEC43
:100B08000EF032D88F0F5BD865D850EC0EF0FEECA3
:100B18000EF02AD8960F53D874D8FEEC0EF024D8CD
:100B28009C0F4DD8192A040E1964D6D7196A5CD8B7
:100B380050EC0EF0FEEC0EF03CD829D8A20F3FD8AE
:100B480058D8FEEC0EF035D822D8A60F38D8192A76
:100B5800020E1964ECD700018E6B800E946F956FAE
:100B68009B6BA16BA56B1200050D6DC017F06EC0D5
:100B780018F0F3501726F450182219501726000EB3
:100B8800182217C0F6FF18C0F7FF19501200F350CB
:100B98001726F450182219501726000E1822030E93
:100BA8001726000E182217C0F6FF18C0F7FF1950B5
:100BB8001200030DC90E176EBE0E186E1200D96E04
:100BC800DA6A0800F5CFDFFF12000A0E136E0F6E07
:100BD800645012000A0E136E0F6E63501200890FD4
:100BE800D96EDA6ADF6A12000A0E136E0F6E62504F
:100BF80012000A0E136E625012000A0E136E645031
:100C080012000A0E136E635012008CD0A4EC0DF083
:100C18000009D8A41200CC0EFDEC0DF0440EFDEC3A
:100C28000DF03E50D96EDA6ADF6A3D50D96EDA6A45
:100C3800020EDF6ECD80020CA4EC0DF0CC0EFDECA4
:100C48000DF0BE0EFDEC0DF00001AB6BAB51800F4B
:100C5800D96EDA6A19EC0EF0DF6E0001AB2B010ECB
:100C6800AB65F4D781513F6E8051AC6F3FC0ADF09A
:100C7800ADAF04D0AC6DAD1FD8B0AD2BAC510F0BE0
:100C8800AA6FF10EAA25F66EF76AB80EF7220800C9
:100C9800F5CFAAF0AC3BAD3B0F0EAC17AD51F00B46
:100CA800AC130F0EAD17AC510A0DF3CFACF0F4CF67
:100CB800ADF0AA51AC27000EAD23010E336EBF0E66
:100CC800346EACC035F0ADC036F023EC0FF0ACC0DC
:100CD80016F0ADC017F0196A0A0E186E85EC0DF003
:100CE80016500001A96FACC00FF0ADC010F0126A29
:100CF8000A0E116EFAEC0CF00FC0ACF010C0ADF09B
:100D0800050E0001A96502D0AC4BAD2B3C50D96E45
:100D1800DA6AACC0DEFFADC0DDFF3D50D96EDA6ADD
:100D2800DF6A000C3D50D96EDA6ADF5001E16ED7F8
:100D3800010A82E0030A120039D083D875EC0AF060
:100D48007E0E0F6E040E106E76D8BAEC0AF009EC1F
:100D580003F0BAEC0AF07AD833D073D875EC0AF0FD
:100D6800A0EC07F075EC0AF096EC07F0BAEC0AF084
:100D7800050E6F6E25D0452A1F0E456402D0010E60
:100D8800456E09EC03F0BAEC0AF04BD8E0EC0DF034
:100D980017D04506455002E11F0E456E09EC03F0D9
:100DA800BAEC0AF03ED8E0EC0DF00AD06F50010A18
:100DB800C4E0030AE0E0010AECE0070ACEE0010A19
:100DC80070A029D0D70E34EC02F0000EAFEC0BF077
:100DD800F10E34EC02F0060EAFEC0BF03A0E34ECE8
:100DE80002F00C0EAFEC0BF00A0E136E0F6E4550AE
:100DF80050EC0EF0FEEC0EF051EC05F0120EAFECDC
:100E08000BF00A0E136E4550FEEC0EF051EC05F097
:100E1800180EAFEC0BF0890E116EC2EC0DF070805D
:100E28001200050E6F6E45C01CF046C01DF047C08D
:100E38001EF044501200126A116A146A140E136EDE
:100E4800140C400E0F6E0D0E106E1200050E6F6E14
:100E58007080050C33D07AD875EC0AF063D8BAECF8
:100E68000AF06AD875EC0AF0050E6F6E31D06ED8AC
:100E780075EC0AF061D875EC0AF054D8BAEC0AF0AF
:100E8800F3D7612A040E616402D0010E616E09EC89
:100E980003F0BAEC0AF055D835EC0FF065EC0DF01C
:100EA80017D06106615002E1040E616E09EC03F08F
:100EB800BAEC0AF046D835EC0FF0F0D76F50010ABB
:100EC800CAE0030ADEE0010AECE0070AD0E0010A02
:100ED80070A022D0D80E34EC02F0000EAFEC0BF06C
:100EE800F00E34EC02F0060EAFEC0BF03A0E34ECD8
:100EF80002F00C0EAFEC0BF00A0E136E6150FEEC14
:100F08000EF051EC05F0120EAFEC0BF0176A4CEC3A
:100F180005F0180EAFEC0BF0890E116EC2EC0DF057
:100F280070801200380E0F6E120E106E126A116A5F
:100F3800146A140E136E140C800E0F6E200E106EB1
:100F48001200050E6F6E61C00FF0000C5C0E0F6E84
:100F58000E0E106E12003DD077D875EC0AF06C0EAC
:100F68000F6E020E106E1FEC07F0BAEC0AF009ECD7
:100F780003F0BAEC0AF0050E6F6E709034D064D8A6
:100F880075EC0AF0A0EC07F075EC0AF096EC07F0A7
:100F9800BAEC0AF0050E6F6E26D0472A630E476436
:100FA80001D0476A09EC03F0BAEC0AF015EC07F037
:100FB800E0EC0DF018D04706472802E1630E476EB3
:100FC80009EC03F0BAEC0AF015EC07F0E0EC0DF0D0
:100FD8000AD06F50010AC0E0030ADFE0010AEBE023
:100FE800070ACDE0010A70A029D0D00E34EC02F037
:100FF800000EAFEC0BF0EA0E34EC02F0060EAFEC8C
:101008000BF03A0E34EC02F00C0EAFEC0BF00A0EBB
:10101800136E0F6E475050EC0EF0FEEC0EF051ECD4
:1010280005F0120EAFEC0BF00A0E136E4750FEECF3
:101038000EF051EC05F0180EAFEC0BF0890E116EA6
:10104800C2EC0DF0708012005E0E0F6E0F0E106E67
:1010580012005F5019E05F6A0001B46B12D0B451FE
:1010680061D8DE50DE1007E1B451080D63D8010ED7
:10107800DE6EDD6A05D0B45155D8DE06000EDD5AA5
:10108800B42B6050B45DEBE30001B56B47D0B551AC
:10109800080D50D8DE04DE103FE1B551BAEC09F076
:1010A800DECFB2F0DDCFB3F0B551CCEC09F0DE50B5
:1010B800DE100AE1B551BAEC09F0DECF0FF0DDCF52
:1010C80010F075EC0AF01BD0B551C2EC09F0B5511F
:1010D80029D8DE50DE1013E1AE69AF69B551CCEC0A
:1010E80009F0DECFB0F0DDCFB1F0AE51B027AF518F
:1010F800B123B55117D8B0C0DEFFB1C0DDFF01D8AC
:101108000BD005000001FA6EB251FD6EB351FE6EB0
:10111800F850FF6EFA5012000001B52B6050B55D13
:10112800B6E31200080D020EF324D96E010EF42066
:10113800DA6E1200060EF324D96E010EF420DA6E70
:10114800120070B202D070823BD0709239D06BD846
:1011580075EC0AF0680E0F6E090E7CEC09F0BAEC1B
:101168000AF009EC03F0BAEC0AF0050E6F6E32D003
:101178005AD875EC0AF0A0EC07F075EC0AF096EC7A
:1011880007F0BAEC0AF0F1D7422A3B0E426401D0CC
:10119800426A09EC03F0BAEC0AF057EC05F082EC6D
:1011A8000EF0E3D74206422802E13B0E426E09ECFC
:1011B80003F0BAEC0AF057EC05F082EC0EF0D5D744
:1011C8006F50010AC4E0030ADFE0010AEBE0070AF6
:1011D800CFE0010A70A215D05CEC05F050EC0EF0DF
:1011E800FEEC0EF051EC05F00D0EAFEC0BF06BECD5
:1011F80005F0FEEC0EF051EC05F0130EAFEC0BF021
:101208000CD0176A4CEC05F00D0EAFEC0BF0176A1A
:101218004CEC05F0130EAFEC0BF0890E116EC2EC1E
:101228000DF0708012004A0E0F6E110E106E120033
:101238004FD06FEC05F0050E62640BD0070E6260AC
:1012480008D0690E3C6E6B0E3D6E6C0E3E6E09EC5E
:1012580006F00E0E626403D00F0E626406D02D0EE7
:10126800626442D02F0E62603FD0030E17D047D879
:1012780075EC0AF04A0E0F6E110E3AD8BAEC0AF065
:1012880009EC03F0BAEC0AF020EE62F010EE41F03F
:10129800060EDBCFE3FFE806FCE2050E6F6E24D0F6
:1012A80080EC0DF0FAD77AEC0CF029D875EC0AF03E
:1012B800320E0F6E060E106E1FEC07F0BAEC0AF035
:1012C800ECD7050E6F6EA0EC07F075EC0AF00CD0A9
:1012D8006F50010ACCE0030AE3E0010AE4E0070AE0
:1012E800F0E0010AA6E0030A890E116EC2EF0DF0C4
:1012F800106E126A116A146A320E136E320C380EAE
:101308000F6E120E106E12000150021001E1120051
:10131800096A15D009502AD80150DE180FE1025089
:10132800DE180CE1F29E095096EC08F03ED8095000
:101338002FD836D8095022D8F28E000C092A6050CE
:10134800095CE8E30F0E60600F0CF29E60500ED847
:1013580001C0DEFF02C0DDFF605096EC08F025D822
:10136800605016D81DD8605009D824D0080D000E3A
:10137800F324D96E010EF420DA6E1200080D060E61
:10138800F324D96E010EF420DA6EDE6ADD6A1200EB
:10139800080D040EF324D96E010EF420DA6E120043
:1013A80005C0DEFF06C0DDFF120003C0DEFF04C07B
:1013B800DDFF1200602AF28E000C1D6E1F6A206A83
:1013C8001D50890F2024D96EDA6A1F500708186E3D
:1013D8001750030DC90E196EBE0E1A6EF35019265A
:1013E800F4501A2220501926000E1A2219C0F6FFAE
:1013F8001AC0F7FF0800F5CF1BF0182A02D0D890C2
:101408001B32182EFCD71D50890F2024E16EE26A8A
:10141800E7501C6ED8901C341B10DF6E202A020E79
:101428002064CED71E6A0D0E186EFC0EE82EFED76D
:10143800182EFCD71E2A130E1E64F5D7890E116EBE
:10144800C2EC0DF01F2A070E1F64B9D7070C236ED4
:10145800256A266A2350890F2624D96EDA6A255010
:1014680007081E6E1B50050D1CC01FF01DC020F084
:10147800F3501F26F450202226501F26000E20224B
:101488001FC0F6FF20C0F7FF0800F5CF21F01E2A85
:1014980002D0D89021321E2EFCD72350890F262443
:1014A800E16EE26AE750226ED89022342110DF6E96
:1014B800262A040E2664CED7246A0D0E1E6EFC0E54
:1014C800E82EFED71E2EFCD7242A130E2464F5D747
:1014D800890E116EC2EC0DF0252A070E2564B9D7C6
:1014E800070C176A3FD01750BAEC09F00F50DE18F6
:1014F80038E11050DE1835E1F29E1750116E126A6D
:10150800136814686050156E166A13501526145027
:1015180016221150151803E1125016181FE06050DA
:10152800116E126AD89011361236D89011361236CA
:10153800D89011361236F80E1124D96E000E1220EA
:10154800DA6E1750080D000EF324E16E010EF42038
:10155800E26E070EDBCFE3FFE806FCE26006F28EE0
:101568001200172A6050175CBEE312000F501010CB
:1015780001E11200176A18D01750BAEC09F00F50A1
:10158800DE1811E11050DE180EE1F29E175096ECAD
:1015980008F025D81750CCEC09F026D81750C2EC23
:1015A80009F0F28E000C172A6050175CE5E30F0E65
:1015B80060600F0CF29E6050BAEC09F00FC0DEFFBD
:1015C80010C0DDFF605096EC08F009D86050CCECF4
:1015D80009F00AD86050C2EC09F0DEEF09F011C03A
:1015E800DEFF12C0DDFF120013C0DEFF14C0DDFFF6
:1015F80012001750D96EDA6A060E99EC0EF0DF6EFB
:101608001750D96EDA6A175022D8CEEC0FF023D8CB
:10161800050E99EC0EF01F0B1ED8165018D8CEECFC
:101628000FF01ED8040E99EC0EF03F0B19D8155088
:101638000ED8CEEC0FF019D8030E99EC0EF0070B6C
:1016480014D8145004D8CEEC0FF0DF6E1200E16EFF
:10165800E26AE7501200DF6E1650D96EDA6A12009D
:10166800DF6E1550D96EDA6A1200DF6E1450D96E2B
:10167800DA6A1200176A186A196A1A6A135014107B
:101688001510161029E0010E1B6E06D0D8901336DF
:101698001436153616361B2A16AEF8D7D8901736D4
:1016A800183619361A3613500F5C14501058155046
:1016B80011581650125809E313500F5E1450105A5F
:1016C8001550115A1650125A1780D89016321532E2
:1016D800143213321B2EE2D717C00FF018C010F0C7
:1016E80019C011F01AC012F012000600D9CF0BF081
:1016F800DACF0CF0F3CF0DF0F4CF0EF0F2BAF2A47B
:1017080003D01EEC10F013D0F2B8F2A210D0F2926F
:10171800010EF1AC000EFF0A0A6E0A3A0A460A46A2
:10172800F1500A18BF0B0A18F16ED9EC0FF09DB0F2
:101738009EA007D09E903C0ECF6EB00ECE6EFEECF3
:101748000FF00EC0F4FF0DC0F3FF0CC0DAFF0BC0A2
:10175800D9FF719211001D6E010E1C6E1F6A1E6A60
:101768001750050D18C01AF019C01BF0F3501A26AF
:10177800F4501B221F501A26000E1B221AC0F6FF17
:101788001BC0F7FF0800F5501C1407E01EC00FF03F
:101798001D501F2459EC0FF006D01EC00FF01D502D
:1017A8001F24D7EC0EF0D8901C361E2A070E1E6494
:1017B800D7D7010E1C6E1F2A040E1F64D0D7040C45
:1017C800186E010E176E1A6A196A1450070DD50E95
:1017D800156EB80E166EF3501526F45016221A50D0
:1017E8001526000E162215C0F6FF16C0F7FF0800D2
:1017F800F550171407E019C00FF018501A2459ECC7
:101808000FF006D019C00FF018501A24D7EC0EF0BC
:10181800D8901736192A070E1964D7D7010E176EF4
:101828001A2A060E1A64D0D7060C2050211022104E
:10183800231023E0010E246E06D0D89020362136DE
:1018480022362336242A23AEF8D720501C5C215098
:101858001D5822501E5823501F5808E320501C5E64
:1018680021501D5A22501E5A23501F5AD8902332F5
:10187800223221322032242EE8D71CC01CF01DC091
:101888001DF01EC01EF01FC01FF012001650D96EAA
:10189800DA6A000E99EC0EF0DF6E1650D96EDA6A2D
:1018A80016502BEC0BF0CEEC0FF016D8010E99EC7D
:1018B8000EF012D815502BEC0BF0CEEC0FF011D81F
:1018C800020E99EC0EF03F0B0CD814502BEC0BF0D9
:1018D800CEEC0FF0DF6E1200DF6E1550D96EDA6AAB
:1018E8001200DF6E1450D96EDA6A1200640E186E98
:1018F800176A196A19508A0FD96EDA6A1950890F4E
:10190800E16EE26ADFCFE7FF192A1F0E1964F2D7EA
:101918000001A86B890E116EC2EC0DF0166A08D092
:101928000D0E156EFC0EE82EFED7152EFCD7162AC6
:101938001850165CF5E30A0E186401D0185E172AD1
:101948001F0E1764D6D71F0C860EF66E200EF76E84
:10195800000EF86E0900F5CF6DF00900F5CF6EF0B6
:101968000900F5CF6FF001EE00F0DC0EEE6AE80634
:10197800FDE100EE80F0290EEE6AE806FDE1706AEE
:1019880000EE41F02C0EEE6AE806FDE171907192CE
:10199800000EF86E0001D1EF0CF0820E0001B66F58
:1019A800DD0EE82EFED7B62FFCD700D035EC0EF0B2
:1019B800F5EC0FF0F29E380E0F6E120E106E126AD2
:1019C800640E116E146A140E136EBAEC0AF0860EC9
:1019D8000F6E1A0E106E126A116A146A010E136ED7
:1019E800BAEC0AF0F28E2DEC08F0FDD7146A156AED
:1019F800115012101BE0010E136E04D0D89011364E
:101A08001236132A12AEFAD7D8901436153611505A
:101A18000F5C1250105805E311500F5E1250105A07
:101A28001480D89012321132132EEED714C00FF052
:101A380015C010F01200166E35EC10F0EE0E2BECFF
:101A480010F016502BEC10F039EC10F0EF0E2BECD8
:101A580010F0010E6BEC0FF0176E186A000E6BECAD
:101A68000FF0196E1A6A31EC10F01750156E146ADF
:101A780019501410126E1A501510136E120081B8F6
:101A880002D0010E0BD081B202D0020E07D081B471
:101A980002D0030E03D081B603D0040E0F6E01D01E
:101AA8000F6A0F500CE01F0E5E601F0C5E2A1E0EA0
:101AB8005E18D8A412000FC06FF05E6A12005E6A4A
:101AC800120010D0970E6D6EBE0E6E6E1200650E6F
:101AD8006D6EBE0E6E6E1200330E6D6EBE0E6E6EA5
:101AE80012000AD06150010AEDE0030AF0E0010A91
:101AF800F3E0070A01E01200010E6D6EBE0E6E6E75
:101B080012001850191017E0010E1A6E04D0D89060
:101B1800183619361A2A19AEFAD71850165C195001
:101B2800175804E31850165E1950175AD8901932EE
:101B380018321A2EF2D716C016F017C017F0120076
:101B480082909490070E0F6E7D0EE82EFED70F2E12
:101B5800FCD700F082809480C80E00D0E82EFDD714
:101B6800000E82B0010E106E060E0F6E800EE82E6B
:101B7800FED70F2EFCD700D010501200146A8C909C
:101B8800136A1350F80D1150F3241424D96EDA6A2D
:101B9800180ED926DF50126E142847EC0FF0125099
:101BA80047EC0FF0132A030E1364EBD78C80142A2A
:101BB800070E1464E4D7070C1F6E1F50EBEC0EF0F1
:101BC8001A6E030E9AEC0FF01C50EBEC0EF01A6E26
:101BD800040E9AEC0FF01D50EBEC0EF01A6E050E89
:101BE8009AEC0FF01E50EBEC0EF01A6E060E9AEF00
:101BF8000FF0126E146A14C010F012C011F0102AFF
:101C080002D0D8901132102EFCD71150136E010E4D
:101C18001316135011EC0FF0142A070E1464EBD7A7
:101C2800D20E00D0E82EFDD71200116A126AA8EC75
:101C38000FF000090CE012C00FF0010E106E0F2A11
:101C480002D0D89010360F2EFCD710501112F00E7B
:101C580000D0E82EFDD7122A070E1264E8D71150DB
:101C680012008CEC0FF0C3EC0FF06AEC0EF017ECDE
:101C780010F03DEC10F0ECEC0FF0AFEC0EF007ECD0
:101C880010F0B6EC0FF0EEEC03F0106A0F6AE3EC1C
:101C98000FF0616E65EF0DF0106E126A0F5014E0D0
:101CA800010E116E03D0D8900F36112A0FAEFBD754
:101CB800D89012360F50105C03E30F50105E12805C
:101CC800D8900F32112EF4D7125012008C80010ECA
:101CD800116E0C0E7DEC0FF0116A090E7DEC0FF001
:101CE800070E116E0B0E7DEC0FF0010E116E0A0E31
:101CF8007DEC0FF0116A0F0E7DEF0FF01E6E1D5078
:101D0800EBEC0EF01A6E000E9AEC0FF01C50EBEC98
:101D18000EF01A6E010E9AEC0FF01E50EBEC0EF05E
:101D28003F0B1A6E020E9AEF0FF0126E35EC10F0A0
:101D3800D00E2BEC10F012502BEC10F039EC10F008
:101D4800D10E2BEC10F0000E6BEC0FF0136E31EC93
:101D580010F013501200A4EC0DF00009D8A41200E2
:101D6800CC0EFDEC0DF04E0EFDEC0DF0000EFDEC72
:101D78000DF0000EFDEC0DF07F0EFDEF0DF00CD810
:101D88004AEC0CF0650E146E660E156E670E166E34
:101D9800680E176EFDEF0AF0640E146E630E156E72
:101DA800620E166E1200136E0FC010F0010E116E47
:101DB800102A02D0D8901136102EFCD7111C126EA2
:101DC8001350890FD96EDA6A1250DF161200196E95
:101DD8000A0E136E1950FEEC0EF0176E0F0E171642
:101DE8000A0E0F6E195050EC0EF0186E1838F00BE2
:101DF80017101200146E080E156E166AD890143457
:101E08001634166ED89014361350165C02E313502D
:101E1800165E152EF3D7165012000F6E829094900E
:101E28000F0406E1060EE82EFED700D082809480CB
:101E3800D20E00D0E82EFDD7828094801200386A36
:101E4800396A4A0E3A6E200E3B6E350E376E380EE2
:101E5800256E33C026F034C027F0370E286E09EF00
:101E680000F0106EA6B2FED710C0A9FF0FC0A8FFE1
:101E7800A69EA69CA684F29E550EA76EAA0EA76ED5
:101E8800A682F28EAA0C0F6E106A0FAE02D08C8456
:101E980001D08C948C8200F000F08C92D8900F3690
:101EA800102A070E1064F1D7070C126E0FC010F03D
:101EB800010E116E102A02D0D8901136102EFCD7C0
:101EC8001250890FD96EDA6A1150DF121200106EA3
:101ED8000FEC10F0C5860FEC10F0C9CF11F00FEC25
:101EE80010F0105002E1C58A01D0C59AC58811507A
:101EF8001200126E8C90136A125047EC0FF01150BA
:101F080047EC0FF0132A030E1364F6D78C80030CEA
:101F18008B6A180E946E8A6A1F0E936EF19E8C6AF5
:101F2800956AF18CF292F288828012001B6E35EC71
:101F380010F0D00E2BEC10F01B502BEC10F01A50B8
:101F48002BEC10F031EF10F082909490030EE82EF5
:101F5800FED700F082809480140EE82EFED782B05F
:101F6800010C000C948C948EAC84AC98AC8AAB8831
:101F7800AB8EB886040EB06E100EAF6E100C180E35
:101F88009412280EC66EC76A630EC86EC584C5A4AF
:101F98001200FDD7106E10C00FF00F0E0F1610387C
:101FA8000F0B0A0DF3500F241200860E016E1D0E42
:101FB800026E046A036A066A056A88EF09F0A6B227
:101FC800FED70FC0A9FFA69EA69CA680A850120007
:101FD8001A6A0E0E9AEC0FF0080E1A6E0F0E9AEF90
:101FE8000FF00F6A0F50F3EC05F00F2A200E0F6464
:101FF800F9D7200C6C2A950E6C64950C6C6A010E4E
:102008006B6ECD90010CC70ED56EF28AD76A3D0E65
:10201800D66E606A1200C7B4FED7C5CF0FF01F0E88
:102028000F16F9E11F0CCD903C0ECF6EB00ECE6EA0
:102038009D80B00CF294D76A3D0ED66E010E5F6E8D
:10204800010C0F6E9EA8FED70FC0ADFF1200106ED8
:102058000FEC10F010C0C9FF12000FEC10F0C5848F
:1020680012000FEC10F0C58012000FEC10F0C582C2
:102078001200F28EF28C1200040E6F6E040C97BEE2
:012088000552
:10B8AC0000010000000A00000064000000E8030032
:10B8BC000010270000A086010040420F00809698DF
:10B8CC000000E1F50500CA9A3B00000000000000F2
:10B8DC00087C4E4F4E7C080426473F070604203E4A
:10B8EC007F7F3F3E2000010102020304040506068F
:10B8FC00070708090900000000004551453E006B90
:10B90C006F6B3E003E7C3E1C003C7E3C1800367F3C
:10B91C0036300000000000000000000000000000B5
:10B92C00000000000000000000000000000000000B
:10B93C0000000000000000000000000000000000FB
:10B94C0000000000000000000000000000000000EB
:10B95C0000000000000000000000000000000000DB
:10B96C00000000000000000000000000007C4E4EB3
:10B97C007C0820347E3420000036360000000000A5
:10B98C0000000000000000000000000000000000AB
:10B99C000000000000000000000000005F0000003C
:10B9AC0007000700147F147F14242A7F2A12231304
:10B9BC0008646236495620500008070300001C2218
:10B9CC0041000041221C002A1C7F1C2A08083E084A
:10B9DC00080080703000080808080860600000004B
:10B9EC0020100804023E5149453E00427F4000426F
:10B9FC00615149462141454B311814127F1027459E
:10BA0C004545393C4A4949300171090503364949D4
:10BA1C004936064949291E000036360000403400DC
:10BA2C0000000814224114141414140041221408A8
:10BA3C0002015909063E415D594E7C1211127C7F60
:10BA4C00494949363E414141227F4141413E7F496E
:10BA5C004949417F090909013E414151727F08085A
:10BA6C00087F00417F41002040413F017F081422A4
:10BA7C00417F404040407F0204027F7F0408107FDA
:10BA8C003E4141413E7F090909063E4151215E7FFD
:10BA9C0009192946264949493201017F01013F40D4
:10BAAC0040403F1F2040201F3F4038403F63140858
:10BABC00146303047804036151494543007F4141F9
:10BACC000002040810200041417F0004020102041E
:10BADC004040404040000307080020545478407F09
:10BAEC00284444383844444428384444287F385443
:10BAFC00545418087E09020018A4A49C787F0804EA
:10BB0C00047800447D40002040403D007F102844D4
:10BB1C000000417F40007C047804787C08040478A1
:10BB2C003844444438FC1824241818242418FC7C69
:10BB3C0004040800485454542400043F44203C405E
:10BB4C0040207C1C2040201C3C4030403C442810B1
:10BB5C0028444C9090907C4464544C4400083641EA
:10BB6C0000000077000000413608000201020402C8
:10BB7C0000000000000000000000000000000000B9
:10BB8C000000000000000000000000000000400069
:10BB9C00400040000000000000000000003E555531
:10BBAC004122000000000000000000000000000026
:10BBBC000000000000000000000000000000000079
:10BBCC000000000000000000000000000000000069
:10BBDC000000000000000000000000000000000C4D
:10BBEC001E1E0C0000000000000000000000000001
:10BBFC000000000000000000000000000000000039
:10BC0C000000000000000000000000000000000028
:10BC1C000000000000000000000000000000000018
:10BC2C0000000000000000000000000000007E0288
:10BC3C00020203000000000000000000007E4B4ADE
:10BC4C004B4200000000003E494949220000000020
:10BC5C0000000000000000000000000000000000D8
:10BC6C0000417E4100000609090644445F4444003B
:10BC7C00417F410000447D4000007C04040600002C
:10BC8C0000000000000000000000000000385554C7
:10BC9C0055180000000000385454544422142A143F
:10BCAC00082040403D0000000000000000000000A3
:10BCBC0000457C41007E1111117E7F494949317F3D
:10BCCC00494949367F01010101C07E417EC07F494F
:10BCDC0049494177087F087722414949367F100846
:10BCEC00047F7E1109057E7F08142241407E0101EC
:10BCFC007F7F020C027F7F0808087F3E4141413E56
:10BD0C007F0101017F7F090909063E414141220162
:10BD1C00017F0101274848483F0E117F110E631423
:10BD2C000814637F40407FC0070808087F7F407E6F
:10BD3C00407F7F407E40FF017F4444387F44380081
:10BD4C007F7F44444438224149493E7F083E413E6E
:10BD5C00462919097F20545454783C4A4A4A317C6C
:10BD6C0054545428007C040404C078447CC03854D7
:10BD7C005454186C107C106C28445454287C20109B
:10BD8C00087C7C2111097C7C101028444038040468
:10BD9C007C7C0810087C7C1010107C38444444389F
:10BDAC007C0404047C7C1414140838444444280493
:10BDBC00047C04044C5050503C18247C2418006C17
:10BDCC0010106C7C40407CC00C1010107C7C4078B7
:10BDDC00407C7C407840FC047C5050207C502000FF
:10BDEC007C007C50502044545454387C10384438D7
:10BDFC00485434147C3E7F417F3E00027F7F0062BA
:10BE0C0073594F462263497F361814127F7F2F6F68
:10BE1C00457D393E7F497B320373790F07367F4965
:10BE2C007F36266F497F3E7F41417F7F00007F7FB9
:10BE3C00006171594F474149497F7F1F10107F7F27
:10BE4C004F494979797F494979790101017F7F7F90
:10BE5C0049497F7F4F49497F7F7F7F417F7F000129
:10BE6C007F7F006373594F47636B497F7F1F1F10A0
:10BE7C007F7F6F6F4979797F7F497B7B0373790F64
:10BE8C00077F7F497F7F6F6F497F7F7F7F417F7FF8
:10BE9C0000007F7F006171594F474149497F7F1FE7
:10BEAC001F107F7F4F4F4979797F7F4979790171D5
:10BEBC00790F077F7F497F7F5F5F517F7F00000095
:10BECC007C447C007C0074545C54547C1C107C5C62
:10BEDC0054747C547404047C7C547C5C547C034308
:10BEEC006C6F636B2076312E30206279204976613D
:10BEFC006E5F66640054656D706572617475726511
:10BF0C003A2025640A0D200054656D706572424D0F
:10BF1C00503A2025640A0D004143313A2025640A29
:10BF2C000D004143323A2025640A0D004143333A57
:10BF3C002025640A0D0058313A20256C690A0D0041
:10BF4C0058323A20256C690A0D0042333A20256C90
:10BF5C00690A0D0042343A20256C690A0D004237FB
:10BF6C003A20256C690A0D0050703A20256C690A3C
:10BF7C000D004143343A2025750A0D004143353AF2
:10BF8C002025750A0D004143363A2025750A0D000F
:10BF9C0042313A2025640A0D0058313A2025640AB2
:10BFAC000D0042323A2025640A0D0058323A202501
:10BFBC00640A0D0058333A2025640A0D0042353AC4
:10BFCC002025640A0D0042363A2025640A0D004DE6
:10BFDC00423A2025640A0D004D433A2025640A0D8F
:10BFEC00004D443A2025640A0D0050703A20256417
:04BFFC000A0D00002A
:020000040020DA
:08000000FFFFFFFFFFFFFFFF00
:020000040030CA
:0E000000FF061E1EFF8181FF0FC00FE00F40A4
:0200000400F00A
:080000000100000000000000F7
:00000001FF
