:0400000007EF00F016
:100008007182FDED17F091EF1AF0E2D2250EC519B5
:1000180017E0F2DADE50DE100EE0EEDA01D8D8D2C0
:100028000500FA6EDE50FD6EDE50FE6EF850FF6E73
:10003800FA50C5511200D4DAC5C0DFFFEDDAC8D2D4
:10004800B46BB56B06D0B48904D0B58511D0B48D26
:100058000FD074DB59DB01E1C0D2640A09E0020A5F
:10006800F4E00F0A05E0050AEEE0190AF0E0B0D264
:10007800070EB51501E11FD2B76B060EB66FAA5170
:10008800D96EDA6ADFCFABF0030EDF26AB51D96E3B
:10009800DA6ADECFC2F0DECFC3F0DDCFC4F0C4AF82
:1000A80010D0C2C00FF0C3C010F0C4C011F01DECD6
:1000B8001FF00FC0C2F010C0C3F011C0C4F0030E8F
:1000C800B413B86BB96BC251C311C4116BE0820E83
:1000D800AB6FAC69C2C0ADF0C3C0AEF0C4C0AFF086
:1000E800C5C0B0F0100E05D0D890B033AF33AE33E2
:1000F800AD33E82EF9D7AD51AB25B86F000EAC2162
:10010800B96FB807D8A0B907B8C01DF0B9C01EF0BC
:10011800206A030E1F6E08EC1EF01DC0B8F01EC04A
:10012800B9F0B8C015F0B9C016F0186A0A0E176E03
:100138007DEC18F015C0B8F016C0B9F00001B9AFE1
:1001480003D0B807D8A0B907B851000845EC07F0A4
:10015800D4DABEC042F0BFC043F0C0C044F0DBDA1E
:100168005DEC14F042C0BEF043C0BFF044C0C0F024
:10017800ABDA126A800E136E3F0E146EBEEC1AF0E4
:1001880005E20001B807D8A0B9070CD09DDA126AB9
:10019800200E136E410E146EBEEC1AF003E300013C
:1001A800B84BB92BC2C030F0C3C031F0C4C032F074
:1001B800060E10EC11F051C033F052C034F053C0A9
:1001C80035F01BEC0EF030C0C2F031C0C3F032C0C5
:1001D800C4F00001B9BF05D0B95116E10A0EB85DE7
:1001E80013E2C251C311C41140E09CDA23EC15F0AC
:1001F800585059105A105B1038E1B9BF36D0B95170
:1002080003E1020EB85D31E35FDA700E126E890EFB
:10021800136E400E146EBEEC1AF003E20001F70EE6
:1002280002D00001F80EB827FF0EB923B85145ECEB
:1002380007F063DAC2C00FF0C3C010F0C4C011F0F9
:10024800BEC012F0BFC013F0C0C014F0F7EC13F03A
:100258000FC0BAF010C0BBF011C0BCF012C0BDF0A6
:100268000001C26BC36BC46B25D05CDA23EC15F0BC
:1002780032DAC2C03CF0C3C03DF0C4C03EF0BAC0E0
:1002880017F0BBC018F0BCC019F0BDC01AF0F6ECEE
:100298001BF017C03FF018C040F019C041F00BEC3C
:1002A8001DF03CC0C2F03DC0C3F03EC0C4F0000128
:1002B800B86BB96B010EC56FA5D9FAD904E3C52B84
:1002C8000A0EC519F9E135DA2CE096D9DE50DE10B0
:1002D8000DE092D901D825D00500FA6EDE50FD6EEA
:1002E800DE50FE6EF850FF6EFA502D0C79D92D0EA7
:1002F80016D0D5D987D9ADD9B9EC18F094D960EC16
:100308001AF0C4D979D9DE50DE1006E075D901D8C3
:1003180008D00500FA6E81D063D9BE51300FDF6E68
:100328007BD90001C507C5291AE0E3D765D9DE5096
:10033800DE100DE061D901D80ED00500FA6EDE504E
:10034800FD6EDE50FE6EF850FF6EFA50300C48D944
:10035800300EDF6E61D90001B807D8A0B907B9BF60
:1003680004D0B951E3E1B805E1E2B7BF08D0B7510D
:1003780003E1090EB65D03E3080EC56F02D0B6C0EF
:10038800C5F0C551B65F000EC5BFFF0EB75BC551BE
:1003980015E032D9DE50DE100DE02ED901D80ED08E
:1003A8000500FA6EDE50FD6EDE50FE6EF850FF6EF0
:1003B800FA502E0C15D92E0EDF6E2ED90001C5511C
:1003C80045EC07F051C0B1F052C0B2F053C0B3F0E1
:1003D800A2D9B1C042F0B2C043F0B3C044F05DEC62
:1003E80014F042C058F043C059F044C05AF023EC0E
:1003F80015F071D93ED053D905D92BD9B9EC18F0DD
:1004080012D960EC1AF042D9F7D8DE50DE100DE0B0
:10041800F3D801D80FD00500FA6EDE50FD6EDE501D
:10042800FE6EF850FF6EFA508ED1DAD8BE51300FFA
:10043800DF6EF2D8BAC09FF0BBC0A0F0BCC0A1F07C
:10044800BDC0A2F00001DED8F5CFA3F00900F5CFBA
:10045800A4F00900F5CFA5F00A00F5CFA6F060ECEE
:100468001AF09FC0BAF0A0C0BBF0A1C0BCF0A2C0F7
:10047800BDF0C507C5291AE0BED7BED8DE50DE10CC
:100488000DE0BAD801D80ED00500FA6EDE50FD6E28
:10049800DE50FE6EF850FF6EFA50300CA1D8300EC8
:1004A800DF6EBAD80001B607D8A0B707B651B711A2
:1004B80001E18ED0E2D7B4BD1BD0B4A902D0D5D803
:1004C8000AD012D9DECFBAF0DDCFBBF0000EBBBF29
:1004D800FF0EBC6FBD6FBDAF1AD0030EB413BD1FA6
:1004E800BC1FBB1FBA6D000EBB23BC23BD230FD09E
:1004F800B4A902D0BAD80BD0F7D8DECFABF0DDCF95
:10050800ACF0ABC0BAF0ACC0BBF0BC6BBD6B010EBD
:10051800C56F78D8CDD804E3C52B0A0EC519F9E103
:1005280008D915E069D8DE50DE100DE065D801D88D
:100538000ED00500FA6EDE50FD6EDE50FE6EF850ED
:10054800FF6EFA502D0C4CD82D0EDF6E65D80001C9
:10055800C551B66FB76BB6BFB70732D0B6C0ABF0F0
:10056800B7C0ACF0D890AB37AC37D890AB37AC3716
:100578006E0EAB25F66EBE0EAC21F76E090069D87B
:100588008ED8B9EC18F066EC0BF060EC1AF09F51BD
:10059800300FC56F31D8DE50DE100EE02DD801D8EF
:1005A8000FD00500FA6EDE50FD6EDE50FE6EF8507C
:1005B800FF6EFA50C551120013D8C5C0DFFF2CD802
:1005C8000001B607D8A0B707B629C8E1B729C6E120
:1005D800B5D8000199D801E019D5A76BA86B12000E
:1005E800A751D96EDA6ADECFABF0DDCFACF0ABC085
:1005F800D9FFACC0DAFF1200A751D96EDA6A020E31
:10060800D926020CC551040D6E0EF324F66EBE0EEB
:10061800F420F76E09001200A751D96EDA6ADE2AB3
:10062800000EDD22000C92C0BEF093C0BFF094C053
:10063800C0F095C0C1F0BEC09FF0BFC0A0F0C0C060
:10064800A1F0C1C0A2F00A0EA36FA46BA56BA66BA4
:100658000A0CF5CF96F00900F5CF97F00900F5CF11
:1006680098F00A00F5CF99F01200AA51D96EDA6A0B
:10067800040EDF26DF5CD96EDA6ADECFBAF0DECF91
:10068800BBF0DECFBCF0DECFBDF012009FC0BEF0E5
:10069800A0C0BFF0A1C0C0F0A2C0C1F01200BAC093
:1006A80092F0BBC093F0BCC094F0BDC095F01200AE
:1006B800F550BA5D0900F550BB590900F550BC5911
:1006C8000900F550BD591200BEC00FF0BFC010F0B0
:1006D800C0C011F0120058C0BAF059C0BBF05AC0DF
:1006E800BCF05BC0BDF01200AA51D96EDA6ADF50C7
:1006F800DF2ADF2AD96EDA6A120051C0BEF052C072
:10070800BFF053C0C0F01200A84BA92B0800F5CFCA
:10071800C5F0C5511200C2C045F0C3C046F0C4C000
:1007280047F01200C2C058F0C3C059F0C4C05AF014
:100738001200B4C0ABF0030EAB17030CA8C0F6FF51
:10074800A9C0F7FF1200BE51300F12005EEC1BF07B
:10075800D1C0DEF1D2C0DFF1D3C0E0F1D4C0E1F105
:1007680084EC1BF0D1C0CEF1D2C0CFF1D3C0D0F110
:10077800D4C0D1F1246A800E256E440E266E95C130
:1007880017F096C118F052EC1EF038DB3AEC16F070
:1007980014DB23C041F0246A800E256E460EEFDA82
:1007A800C8EC19F01DDB3AEC16F021DB0BEC1DF060
:1007B8002CDB93C117F094C118F0F0EC1CF044DB6B
:1007C8005DEC14F0B2DA78DA40EC1EF02CDB52EC77
:1007D8001EF014DB3AEC16F0F0DADBDAD0DAC8EC0B
:1007E80019F0FEDA3AEC16F002DB0BEC1DF03CC017
:1007F80045F03DC046F03EC047F015DB52EC1EF018
:10080800FDDA3AEC16F0D9DAC4DAB9DAC8EC19F03C
:10081800E7DA3AEC16F0EBDA0BEC1DF0F6DA5DEC01
:1008280014F09FDAA5DA91C117F092C118F0F0EC34
:100838001CF00ADB5DEC14F042C0EBF143C0ECF1B4
:1008480044C0EDF145DA40EC1EF0EEC130F0EFC1E6
:1008580031F0F0C132F0FFDA1BEC0EF030C0E2F1FB
:1008680031C0E3F132C0E4F1C60E0001C66FBF0E1D
:10087800C76FE2C1C8F0E3C1C9F0E4C1CAF040ECF7
:100888001EF0246AA00E256E450E266E456A200EBF
:10089800466E410E476EE2C142F0E3C143F0E4C147
:1008A80044F05DEC14F056DA3AEC16F021C058F03A
:1008B80022C059F023C05AF023EC15F0DDC0D9FF4F
:1008C800DEC0DAFF58C0DEFF59C0DEFF5AC0DEFFC7
:1008D8005BC0DEFF1C0EC66FBF0E69DA5FDA40EC44
:1008E8001EF0246A256A400E266EE2C121F0E3C19B
:1008F80022F0E4C123F03AEC16F064DA336A7A0E97
:10090800346EC70E356E1BEC0EF030C0EEF131C000
:10091800EFF132C0F0F1D0D940EC1EF0ECD987C12C
:1009280017F088C118F0F0EC1CF0DED95DEC14F07B
:1009380018DAE1D91DDA5DEC14F00CDA93DA3AEC46
:1009480016F001DAC5D940EC1EF0D5D989C117F0E7
:100958008AC118F0F0EC1CF0C7D95DEC14F001DA8C
:10096800EBC130F0ECC131F0EDC132F0456A466AB6
:10097800400E476EFDD95DEC14F02BDA1BEC0EF03F
:10098800CDD9A6D940EC1EF0246A800E256E400E03
:1009980053DA3AEC16F016DA456A800E466E470EC0
:1009A800476E8BC117F08CC118F0F0EC1CF09CD985
:1009B8005DEC14F00EDA1BEC0EF0B0D989D940ECDE
:1009C8001EF099D98DC117F08EC118F0F0EC1CF00B
:1009D8008BD95DEC14F0C5D98ED98FC117F090C1B1
:1009E80018F0F0EC1CF080D95DEC14F0F2D93FDA85
:1009F80082D9BED95DEC14F0ADD93AEC16F0E2D943
:100A08001BEC0EF030C0D2F131C0D3F132C0D4F1BA
:100A1800D2C121F0D3C122F0D4C123F028DA3AECB4
:100A280016F08AD949D940EC1EF0336A800E346E2C
:100A38003F0E356E17DAEEC121F0EFC122F0F0C19A
:100A480023F03AEC16F0BED91BEC0EF030C042F0A1
:100A580031C043F032C044F0CAC117F0CBC118F01E
:100A680052EC1EF017C045F018C046F019C047F008
:100A78005DEC14F05AD920D940EC1EF03C6A800E87
:100A88003D6E490E3E6ECEC117F0CFC118F0D0C1F1
:100A980019F0D1C11AF0C8EC19F017C03FF018C00E
:100AA80040F019C041F00BEC1DF03CC0E8F13DC02E
:100AB800E9F13EC0EAF126D940EC1EF0500E456E31
:100AC800C30E466E450E476E246A800E256E450E8F
:100AD800B3D93AEC16F071D923C041F0E8C13CF023
:100AE800E9C13DF0EAC13EF00BEC1DF08ED95DEC9A
:100AF80014F042C0D5F143C0D6F144C0D7F1D5C1F6
:100B080021F0D6C122F0D7C123F0EEC124F0EFC105
:100B180025F0F0C126F03AEC16F021C0E8F122C029
:100B2800E9F123C0EAF1EED840EC1EF075D981C195
:100B380017F082C118F0F0EC1CF0D6D85DEC14F078
:100B480010D96AD915D95DEC14F004D9246A256A3C
:100B58004F0E266E3AEC16F0EFD8AED840EC1EF0E9
:100B68005BD983C117F084C118F0F0EC1CF0BCD835
:100B78005DEC14F0EFD876D93AEC16F0E4D8A8D8A2
:100B880040EC1EF0EEC133F0EFC134F0F0C135F0A7
:100B980085C117F086C118F0F0EC1CF017C030F0D2
:100BA80018C031F019C032F01BEC0EF030C0D8F18B
:100BB80031C0D9F132C0DAF1246A800E256E410EB7
:100BC800266E49D9D8C130F0D9C131F0DAC132F036
:100BD8001BEC0EF030C021F031C022F032C023F0FF
:100BE8003AEC16F021C0DBF122C0DCF123C0DDF1C4
:100BF800E8C130F0E9C131F0EAC132F0DBC133F0CD
:100C0800DCC134F0DDC135F01BEC0EF030C0E8F18A
:100C180031C0E9F132C0EAF175D840EC1EF0E8C104
:100C280058F0E9C159F0EAC15AF023EC15F058C060
:100C380086F059C087F05AC088F05BC089F0640E0E
:100C48008A6F8B6B8C6B8D6BAAEC1BF086C092F055
:100C580087C093F088C094F089C095F0140E966F01
:100C6800340E976F986B996BB9EC18F005D992C050
:100C7800DEFF93C0DEFF94C0DEFF95C0DEFF0B0EE3
:100C88000001E06F260EDF6F5D0EE82EFED7DF2F26
:100C9800FCD7E02FFAD700D00E0E0001C66FBF0EAA
:100CA80086D87CD840EC1EF0FF0EC66FBE0EC76F0C
:100CB800E3D874D840EF1EF0D30E0001C66FBF0E04
:100CC800C76FEEC1C8F0EFC1C9F0F0C1CAF0120099
:100CD800DF0E0001C66FBF0EC76FEBC1C8F0ECC1D5
:100CE800C9F0EDC1CAF0120017C042F018C043F0B5
:100CF80019C044F01200EEC145F0EFC146F0F0C152
:100D080047F01200F50E0001C66FBF0EC76FE8C1AD
:100D1800C8F0E9C1C9F0EAC1CAF0120030C0EBF16D
:100D280031C0ECF132C0EDF1120042C0EEF143C027
:100D3800EFF144C0F0F1120021C0EEF122C0EFF152
:100D480023C0F0F1120021C0EBF122C0ECF123C066
:100D5800EDF1120042C021F043C022F044C023F05C
:100D6800120042C0E5F143C0E6F144C0E7F11200C9
:100D7800E5C142F0E6C143F0E7C144F01200266E37
:100D8800DEC117F0DFC118F0E0C119F0E1C11AF0B7
:100D9800120023C041F0246A256A480CDECFC8F04F
:100DA800DECFC9F0DECFCAF0DECFCBF01200C76FBE
:100DB800DDC0D9FFDEC0DAFF120021C03FF022C03B
:100DC80040F0120021C030F022C031F023C032F0D0
:100DD800120042C033F043C034F044C035F0120072
:100DE80017C021F018C022F019C023F0120021C04A
:100DF8003CF022C03DF023C03EF0120017C021F0A5
:100E080018C022F019C023F012003CC042F03DC0C7
:100E180043F03EC044F01200E8C145F0E9C146F095
:100E2800EAC147F01200246A256A460E266E95C16B
:100E380017F096C118F0460C266EEBC121F0ECC1F4
:100E480022F0EDC123F0120017C045F018C046F09B
:100E580019C047F01200EBC133F0ECC134F0EDC11A
:100E680035F01200246A256A470E266E470C246A5C
:100E7800256A490E266E490CDBC0D9FFDCC0DAFFB3
:100E88001200576E57AE59D0576C5750800A120F40
:100E980030E3FED80FBE100694EC19F01BD97DEC98
:100EA80018F015C01DF016C01EF008EC1EF01B0E41
:100EB800D8D8BAD89DD8186A640E07D915BE1606B0
:100EC8007DEC18F0D6D808EC1EF0360ECAD8ACD88F
:100ED8009AD85DEC14F0B8D8ADD80FBE100694ECD3
:100EE80019F0EED808EC1EF09FD882D85DEC14F00B
:100EF800C8D05750800A750F1BE3186A0A0EE5D848
:100F080015BE16067DEC18F0B4D808EC1EF01B0EC2
:100F1800A8D88AD878D88ED80FBE100694EC19F0C5
:100F2800CFD808EC1EF080D863D85DEC14F0A9D0B7
:100F38005750030D74EC11F0B8D05750800A120FB7
:100F480030E3A6D80FBE100694EC19F0C3D87DEC98
:100F580018F015C01DF016C01EF008EC1EF01B0E90
:100F680084D85CD845D8186A640EAFD815BE160662
:100F78007DEC18F07ED808EC1EF0360E76D84ED8E8
:100F880042D85DEC14F060D855D80FBE100694EC2A
:100F980019F096D808EC1EF041D82AD85DEC14F068
:100FA80070D05750800A750F1BE3186A0A0E8DD847
:100FB80015BE16067DEC18F05CD808EC1EF01B0E6A
:100FC80054D82CD820D836D80FBE100694EC19F077
:100FD80077D808EC1EF022D80BD85DEC14F051D06D
:100FE8005750030DF30EF324F66EB70EF4205DD0C0
:100FF800F76E0900F5CF45F00900F5CF46F00A0075
:10100800F5CF47F01200F76E0900F5CF42F009005E
:10101800F5CF43F00A00F5CF44F01200F30E1D247B
:10102800F66EB70E1E2012001A0E1D24F66EB80EAC
:101038001E201200206A030E1F6E126A0A0E116E1D
:1010480057500F6E106A120042C054F043C055F05A
:1010580044C056F054C042F055C043F056C044F066
:1010680012001D26000E1E22000C1D26000E1E2238
:10107800000C15C01DF016C01EF0206A030E1F6E6E
:10108800030C42C051F043C052F044C053F0120068
:10109800206A030E1F6E186A0A0E176E126A640E13
:1010A800116E57500F6E106A1200F76E0900F5CFD7
:1010B80051F00900F5CF52F00A00F5CF53F01200B5
:1010C8000FC01DF010C01EF01200176E5750156E9D
:1010D800166A12000FC015F010C016F01200880E24
:1010E80012EC1BF012C095F113C096F18A0E12ECA7
:1010F8001BF012C093F113C094F18C0E12EC1BF08C
:1011080012C091F113C092F18E0E12EC1BF012C0B6
:10111800CAF113C0CBF1900E12EC1BF012C08FF184
:1011280013C090F1920E12EC1BF012C08DF113C097
:101138008EF1940E12EC1BF012C08BF113C08CF1DF
:10114800960E12EC1BF012C089F113C08AF1980EAA
:1011580012EC1BF012C087F113C088F19A0E12EC42
:101168001BF012C085F113C086F19C0E12EC1BF027
:1011780012C083F113C084F19E0E12EC1BF012C052
:1011880081F113C082F1CC0E116EF50ECAEC1EF07F
:10119800B70E116EF40ECAEC1EF06B0E0101966FBD
:1011A800700E956F670E946F430E936FFC0E926FDF
:1011B800180E916F8E0ECB6F7D0ECA6FD60E906F84
:1011C800430E8F6F0B0E8E6FD00E8D6F0B0E8C6FC4
:1011D800270E8B6F8A6B8C0E896F8869F90E876F63
:1011E8003C0E866F8C0E856FC60E846FF80E836F6B
:1011F800170E826F700E816F0B0E0001D26F260ED4
:10120800D16F5D0EE82EFED7D12FFCD7D22FFAD79B
:1012180000D0B90E0001C66FBF0EC76F95C1C8F0E8
:1012280096C1C9F040EC1EF0370EC66FBF0EC76FEF
:1012380093C1C8F094C1C9F040EC1EF0510EC66FBE
:10124800BF0EC76F91C1C8F092C1C9F040EC1EF043
:10125800AC0EC66FBF0EC76FCAC1C8F0CBC1C9F00C
:1012680040EC1EF02A0EC66FBF0EC76F8FC1C8F0C4
:1012780090C1C9F040EC1EF0440EC66FBF0EC76F98
:101288008DC1C8F08EC1C9F040EC1EF05E0EC66F6D
:10129800BF0EC76F8BC1C8F08CC1C9F040EC1EF0FF
:1012A8006B0EC66FBF0EC76F89C1C8F08AC1C9F07F
:1012B80040EC1EF0780EC66FBF0EC76F87C1C8F02E
:1012C80088C1C9F040EC1EF0850EC66FBF0EC76F0F
:1012D80085C1C8F086C1C9F040EC1EF0920EC66FF9
:1012E800BF0EC76F83C1C8F084C1C9F040EC1EF0BF
:1012F8009F0EC66FBF0EC76F81C1C8F082C1C9F00B
:1013080040EF1EF03DD002D9EEEC16F00E0E0F6E37
:10131800210E106E7CEC10F0BAEC17F050EC0DF0CA
:10132800BAEC17F00CEC11F035D0F0D8EEEC16F062
:101338000EEC12F0EEEC16F0FFEC11F0BAEC17F030
:10134800050E6F6E27D0682A0C0E686402D0010E55
:10135800686E50EC0DF0BAEC17F0FDEC10F09BEC59
:101368001CF018D06806685002E10C0E686E50EC4C
:101378000DF0BAEC17F0FDEC10F09BEC1CF00AD065
:101388006F50010AC0E0030ADEE0010AEBE0070A39
:10139800CCE0010A70A0AED0CC0EB2D8000E2AEC78
:1013A80019F0F10EADD8060E2AEC19F03A0EA8D8AD
:1013B8000C0E2AEC19F084D0D10EA2D8120E2AEC09
:1013C80019F0F70E9DD8180E2AEC19F093D0CB0E11
:1013D80097D8120E2AEC19F0F20E92D8180E2AECB1
:1013E80019F088D0C10E8CD8120E2AEC19F0F00E24
:1013F80087D8180E2AEC19F07DD0CA0E81D8120EA3
:101408002AEC19F0E20E7CD8180E2AEC19F072D0EA
:10141800D20E76D8120E2AEC19F0F00E71D8180EEA
:101428002AEC19F067D0D70E6BD8120E2AEC19F0F7
:10143800F00E66D8180E2AEC19F05CD0CB0E60D8E6
:10144800120E2AEC19F0EF0E5BD8180E2AEC19F0E0
:1014580051D0D10E55D8120E2AEC19F0EF0E50D8F3
:10146800180E2AEC19F046D0C20E4AD8120E2AECF1
:1014780019F0F00E45D8180E2AEC19F03BD0C60E1C
:101488003FD8120E2AEC19F0F20E3AD8180E2AECB0
:1014980019F030D0CB0E34D8120E2AEC19F0F10E18
:1014A8002FD8180E2AEC19F025D0C30E29D8120E01
:1014B8002AEC19F0F00E24D8180E2AEC19F01AD0DC
:1014C8006850010A01E178D7030A81E0010A8AE03D
:1014D800070A93E0010A9CE0030AA5E0010AAEE0CE
:1014E8000F0AB7E0010AC0E0030AC9E0010AD2E026
:1014F800070ADBE009EC12F0FBEC19F0708012002F
:10150800176E740E186EB80E196E12000C0E0F6E50
:10151800130E106E1200C8D035EC1FF0F4D831E06D
:10152800F8D85FEC19F0640E0001E0D8B9EC18F0B7
:10153800C9D860EC1AF09F51BFD80B0EC1EC14F05B
:101548000A0ED4D8B9EC18F0BDD860EC1AF09F5147
:10155800B3D8110EC1EC14F0C6C19FF0C7C1A0F0FA
:10156800C8C1A1F0C9C1A2F00A0EA36FA46BA56BF4
:10157800A66B60EC1AF09F519FD8170EC1EC14F0BF
:1015880013D0C7D85FEC19F0450E0001A9D80B0E8F
:10159800C1EC14F0520EA4D8110EC1EC14F0520E86
:1015A8009FD8170EC1EC14F06DEC0CF0010E126E02
:1015B800900E4CEC0CF0BAEF17F0050E6F6EA3D836
:1015C8000EE0000E0001C66F020EC76FEB0EC86F6B
:1015D800BF0EC96F58EC1DF0B5EC1DF002D0F4EC4D
:1015E80018F047EC0CF0BD5126EC1DF01BEC1EF07A
:1015F80000090DE047EC0CF0BD5126EC1DF01BEC8A
:101608001EF033EC0CF0000EC1EC14F006D0000113
:10161800A76B50EC0CF0C1EC14F074EC0CF01BEC64
:101628001EF033EC0CF0060EC1EC14F047EC0CF095
:10163800BC5126EC1DF01BEC1EF033EC0CF00D0E2B
:10164800C1EC14F079EC0CF01BEC1EF033EC0CF050
:10165800130EC1EC14F03AEC0CF02EEC1AF047EC37
:101668000CF0BB5126EC1DF01BEC1EF0626E6228DC
:101678001A6E190EDEEC15F07EEC0CF01BEC1EF069
:10168800626E62281A6E1D0EDEEC15F00EEC12F07A
:10169800EEEC16F01E0E0F6E150E106EEEEC16F038
:1016A800FFEC11F0BAEF17F06F50040A86E0010A58
:1016B80001E132D7030A1200A76F6DC0A8F06EC00F
:1016C800A9F0120092C09FF093C0A0F094C0A1F0BE
:1016D80095C0A2F00A0EA36FA46BA56BA66B0A0CAB
:1016E800A76F740EA86FB80EA96F1200966F976B4C
:1016F800986B996BC6C192F0C7C193F0C8C194F0BA
:10170800C9C195F012000101C651C711C811C9110C
:101718001200040E146E030C9AD035EC1FF0C9D8D1
:101728001CEC1CF0BED841EC1CF01650171012E14E
:10173800E6D85FEC19F0C5D841EC1CF016508FD8EC
:101748000D0EC1EC14F0B00E74EC0BF0130EC1ECDE
:1017580014F01CD0D4D85FEC19F0ABD81CEC1CF0FA
:10176800A0D841EC1CF016507AD80D0EC1EC14F03C
:10177800A8D841EC1CF0165072D8130EC1EC14F026
:10178800B00E74EC0BF0190EC1EC14F0A2D8020ED6
:10179800126EEE0E7DD8BAEF17F0050E6F6EF4ECF0
:1017A80018F071D8BD5126EC1DF01BEC1EF0000995
:1017B8000BE069D8BD5126EC1DF01BEC1EF04FD88C
:1017C800000EC1EC14F005D00001A76B65D8C1EC80
:1017D80014F086D81BEC1EF042D8060EC1EC14F0AB
:1017E80052D8BC5126EC1DF01BEC1EF038D80D0E5B
:1017F800C1EC14F07AD81BEC1EF031D8130EC1ECF2
:1018080014F034D82EEC1AF03ED8BB5126EC1DF05B
:101818001BEC1EF0626E62281A6E190EDEEC15F0D3
:1018280069D81BEC1EF0626E62281A6E1D0EDEEC83
:1018380015F00EEC12F0EEEC16F0200E0F6E170EEF
:10184800106EEEEC16F0FFEC11F0BAEF17F06F50D7
:10185800040AA3E0010A01E160D7030A12000001AB
:10186800A76F6DC0A8F06EC0A9F01200BD0E146E6F
:10187800010E156EBC0E166E010E176EBB0E186E9D
:10188800010E196E12000A0E136E0F6E01010A0C7A
:10189800116E146A136A1200740EA86FB80EA96F3D
:1018A800000C0FC016F010C017F0196A0A0E186E57
:1018B8000A0C126A0A0E116EEBC00FF0ECC010F0A1
:1018C8000A0CEBC016F0ECC017F0196A0A0E186E75
:1018D8000A0C060E6F6E4E0E0F6E3F0E106E120043
:1018E8000A0E136E0101BD5112000A0E136E01019A
:1018F800BC5112000A0E136E0101BB511200010EF9
:10190800146E030C3AD0D3D8EEEC16F0300E0F6EEE
:10191800230E106E7CEC10F0BAEC17F0BDD8BAECC0
:1019280017F00CEC11F033D0C2D8EEEC16F00EEC38
:1019380012F0EEEC16F0FFEC11F0BAEC17F0050E11
:101948006F6E25D0662A070E666402D0010E666E99
:10195800A3D8BAEC17F0FDEC10F09BEC1CF017D0F4
:101968006606665002E1070E666E96D8BAEC17F066
:10197800FDEC10F09BEC1CF00AD06F50010AC3E09C
:10198800030AE0E0010AECE0070ACEE0010A70A0D1
:101998007DD0C40E84EC0AF0000E2AEC19F0ED0E8E
:1019A80084EC0AF0060E2AEC19F03A0E84EC0AF0E0
:1019B8000C0E2AEC19F05BD0CF0E84EC0AF0120E54
:1019C8002AEC19F0ED0E84EC0AF0180E2AEC19F046
:1019D8005DD0C20E84EC0AF0120E2AEC19F0F20E59
:1019E80084EC0AF0180E2AEC19F050D0D10E84ECD1
:1019F8000AF0120E2AEC19F0F00E84EC0AF0180E18
:101A08002AEC19F043D0D70E84EC0AF0120E2AEC17
:101A180019F0F20E84EC0AF0180E2AEC19F036D000
:101A2800CF0E84EC0AF0120E2AEC19F0F20E84ECB8
:101A38000AF0180E2AEC19F029D0D10E84EC0AF01D
:101A4800120E2AEC19F0E10E84EC0AF0180E2AECBA
:101A580019F01CD0CD0E84EC0AF0120E2AEC19F005
:101A6800E40E84EC0AF0180E2AEC19F00FD0665038
:101A7800010AF0E0030AA0E0010AABE0070AB6E0B9
:101A8800010AC1E0030ACCE0010AD7E009EC12F030
:101A9800FBEC19F0708012004E0E0F6E3F0E106EA8
:101AA800070E126ED00E116E146A136AD00C0C0E4B
:101AB8000F6E190E106E120070B202D0708243D0F1
:101AC800709241D0A1D8EEEC16F03A0E0F6E240EAB
:101AD800106E7CEC10F0BAEC17F050EC0DF0BAEC8C
:101AE80017F0050E6F6E35EC1FF0709036D08CD85D
:101AF800EEEC16F00EEC12F0EEEC16F0FFEC11F036
:101B0800BAEC17F0050E6F6E28D0652A170E6564BB
:101B180001D0656A50EC0DF0BAEC17F0050E6F6E47
:101B28006ED888EC1DF019D06506652802E1170EFD
:101B3800656E50EC0DF0BAEC17F0050E6F6E5FD8BD
:101B480088EC1DF00AD06F50010ABCE0030ADDE002
:101B5800010AEAE0070ACBE0010A70A03FD070A2B0
:101B680033D05CD826EC1DF01BEC1EF042D80D0ECD
:101B78002AEC19F058D81BEC1EF03BD8130E2AECAF
:101B880019F047D826EC1DF01BEC1EF000090AE0FE
:101B980040D826EC1DF01BEC1EF02BD8000E2AECCA
:101BA80019F008D0000E176A6DC018F06EC019F051
:101BB8002AEC19F00A0E136E65501BEC1EF019D8AA
:101BC800060E2AEC19F00AD0176A0ED8000E2AEC75
:101BD80019F0176A09D8060E2AEC19F009EC12F068
:101BE800FBEC19F070801200740E186EB80E196EA6
:101BF8001200176E6DC018F06EC019F0120064C0A4
:101C08001CF01D6A65501200C00E0F6E1A0E106E81
:101C180012000A0E136E0F6E655012000A0E136E34
:101C28000F6E645012000A0E136E6450120032C018
:101C380036F0376A386A3134363601E33780365041
:101C48003B6E35C036F0376A386A3434363601E3CD
:101C5800378036503A6E3B5009E03A503B5C0DE213
:101C68003B503A5C366E180E366407D033C030F0FD
:101C780034C031F035C032F012003A5009E03B5020
:101C88003A5C0DE23A503B5C366E180E366407D06B
:101C980030C030F031C031F032C032F01200060EE0
:101CA800396E32BE398E35BE398C318E326A348EF9
:101CB800356A3A503B5C14E2D890333634363536C0
:101CC8003A063B503A1808E053D806E0F5D7D890C2
:101CD8003232313230323B2A3A503B1817E0F7D7CC
:101CE8003B503A5C13E2D8903036313632363B06F8
:101CF8003B503A1808E03CD806E0F5D7D890353282
:101D0800343233323A2A3A503B18F8E139AE07D028
:101D1800301E311E321E302A000E3122322239BCCA
:101D28001FD8396A30503326315034223250352288
:101D380035AE03D015D8010E396E33C00FF034C05C
:101D480010F035C011F03BC012F039C013F077EC39
:101D580017F00FC030F010C031F011C032F012008F
:101D6800331E341E351E332A000E34223522000C51
:101D7800390639C036F0070E3616070C8FD060ECDE
:101D88001CF00009D8A41200CC0EB8EC1CF0440ECC
:101D9800B8EC1CF0D4C0D9FFD5C0DAFFDF6A86D80A
:101DA800020EDF6ECD80020C60EC1CF0CC0EB8EC9D
:101DB8001CF0BE0EB8EC1CF00001DA6B780EDA25C8
:101DC800D96EDA6A010EDA22D4EC1CF0DF6E00015B
:101DD800DA2B010EDA65F2D7010179510001D66FCD
:101DE800010178510001DB6FD6C0DCF0DCAF04D014
:101DF800DB6DDC1FD8B0DC2BDB510F0BD96F640E09
:101E0800D925F66EF76AB80EF7220800F5CFD9F093
:101E1800DB3BDC3B0F0EDB17DC51F00BDB130F0E4B
:101E2800DC17DB510A0DF3CFDBF0F4CFDCF0D9512E
:101E3800DB27000EDC23CD0EC66FBE0EC76FDBC0DE
:101E4800C8F0DCC0C9F040EC1EF0DBC016F0DCC006
:101E580017F0196A0A0E186E41EC1CF016500001B2
:101E6800D86FDBC00FF0DCC010F0126A0A0E116EDA
:101E78001CEC1CF00FC0DBF010C0DCF0050E0001FC
:101E8800D86502D0DB4BDC2BD151D96EDA6ADBC0C6
:101E9800DEFFDCC0DDFF0AD8DF6A000C07D8DF50A0
:101EA80001E16DD7010A80E0030A1200D2C0D9FF10
:101EB800D3C0DAFF1200196A47EC0CF0BD5126ECCA
:101EC8001DF01BEC1EF000090FE047EC0CF0BD51B3
:101ED80026EC1DF01BEC1EF05DD89B0E1924D96E64
:101EE800DA6A010E80D805D09B0E192483EC1DF008
:101EF800DF6A74EC0CF01BEC1EF04CD8A10E192410
:101F0800D96EDA6A010E6FD847EC0CF0BC5126EC9A
:101F18001DF01BEC1EF03ED8A80E1924D96EDA6A03
:101F2800010E61D879EC0CF01BEC1EF033D8AE0E24
:101F38001924D96EDA6A010E56D8192A040E1964C2
:101F4800BBD7196A47EC0CF0BB5126EC1DF01BEC13
:101F58001EF043D831D8B40E1924D96EDA6A010EAE
:101F680042D87EEC0CF01BEC1EF037D825D8B80E02
:101F78001924D96EDA6A010E36D8192A020E1964A4
:101F8800E1D70101A06B800EA66FA76FAD6BB36B95
:101F9800B76B1200050D6DC017F06EC018F0F35046
:101FA8001726F450182219501726000E182217C0A9
:101FB800F6FF18C0F7FF000CF3501726F45018224C
:101FC80019501726000E1822030E1726000E182285
:101FD80017C0F6FF18C0F7FF000C030D960E176E1A
:101FE800BE0E186E1200DA220800F5CFDFFF1200CD
:101FF80068D05FEC0FF0050EBB6510D0070EBB6113
:102008000DD0EB0E0001D16FCC0ED26F010ED36F45
:10201800CD0ED46F010ED56FC2EC0EF00E0E01017D
:10202800BB6503D00F0EBB6506D02D0EBB6555D022
:102038002F0EBB6152D0030E17D060D8EEEC16F00D
:10204800280E0F6E260E4DD8BAEC17F050EC0DF096
:10205800BAEC17F021EEBBF010EE63F0060EDBCF02
:10206800E3FFE806FCE2050E6F6E37D0C60EDB6FA5
:10207800010EDC6FC20EDD6F010EDE6FAAEC03F0FD
:10208800F4EC18F03BD8EEEC16F01E0E0F6E150EA1
:10209800106E2ED8BAEC17F0E6D7F4EC18F02ED85C
:1020A800EEEC16F0200E0F6E170E106E21D8BAEC5B
:1020B80017F0D9D7050E6F6E0EEC12F0EEEC16F095
:1020C8000CD06F50010AB9E0030AD0E0010AE5E03C
:1020D800070AF0E0010A8DE0030A09EC12F0FBEFB1
:1020E80019F0106E126A116A146A320E136E320CED
:1020F800126A116A146A140E136E140CF80E0F6E1D
:102108001F0E106E12003AD07ED8EEEC16F00C0EB0
:102118000F6E190E106E7CEC10F0BAEC17F050EC44
:102128000DF0BAEC17F074D833D06DD8EEEC16F089
:102138000EEC12F0EEEC16F0FFEC11F0BAEC17F022
:10214800050E6F6E25D0672A1F0E676402D0010E38
:10215800676E50EC0DF0BAEC17F04BD89BEC1CF006
:1021680017D06706675002E11F0E676E50EC0DF03E
:10217800BAEC17F03ED89BEC1CF00AD06F50010A5D
:10218800C3E0030AE0E0010AECE0070ACEE0010A36
:1021980070A029D0D70E84EC0AF0000E2AEC19F0B2
:1021A800F10E84EC0AF0060E2AEC19F03A0E84ECD3
:1021B8000AF00C0E2AEC19F00A0E136E0F6E675017
:1021C80026EC1DF01BEC1EF0FDEC0DF0120E2AECB7
:1021D80019F00A0E136E67501BEC1EF0FDEC0DF0A3
:1021E800180E2AEC19F009EC12F0FBEC19F07080CB
:1021F8001200050E6F6E67C01CF068C01DF069C044
:102208001EF0665012000E0E0F6E210E106E120098
:10221800050E6F6E7080050C5A6E6D0E5A6439D0BB
:102228000A0E0F6E640E136E5A501BEC1EF026EC4D
:102238001DF0030D1B0E5AD853D8FCEC07F0640EA2
:102248000F6E5A5026EC1DF0030D360E4FD848D8A5
:1022580007EC08F05DEC14F05BD80A0E136E5A50C8
:102268001BEC1EF0030D3CD8FCEC07F04AD85DECE3
:1022780014F042C054F043C055F044C056F054C066
:1022880042F055C043F056C044F049D85DEC14F014
:1022980031D00A0E5A641BD0136E5A501BEC1EF034
:1022A800030D1ED8FCEC07F00A0E0F6E5A5026ECF0
:1022B8001DF0030D1B0E1AD813D807EC08F05DECBF
:1022C80014F026D81ED82BD85DEC14F013D05A5031
:1022D800030D06D807EC08F022D85DEC14F00AD0FC
:1022E8001A0EF324F66EB80EF4201200F326000E30
:1022F800F422000C42C051F043C052F044C053F0E5
:10230800120057C042F058C043F059C044F01200C0
:1023180042C057F043C058F044C059F01200456A13
:10232800466A3F0E476E3F0C33D07ED8EEEC16F06F
:1023380062D8BAEC17F06ED8EEEC16F0050E6F6E98
:1023480031D072D8EEEC16F065D8EEEC16F053D812
:10235800BAEC17F0F3D76C2A050E6C6402D0010EA4
:102368006C6E50EC0DF0BAEC17F059D864EC1EF016
:10237800D0EC1BF017D06C066C5002E1050E6C6EA9
:1023880050EC0DF0BAEC17F04AD864EC1EF0F0D718
:102398006F50010ACAE0030ADEE0010AECE0070A0E
:1023A800D0E0010A70A022D0D80E84EC0AF0000E0A
:1023B8002AEC19F0F00E84EC0AF0060E2AEC19F05B
:1023C8003A0E84EC0AF00C0E2AEC19F00A0E136E81
:1023D8006C501BEC1EF0FDEC0DF0120E2AEC19F0FF
:1023E800176AF8EC0DF0180E2AEC19F00ED8FBEC71
:1023F80019F070801200F80E0F6E1F0E106E126A20
:10240800116A146A140E136E140C9B0E116E010ED1
:10241800126E12004E0E0F6E3F0E106E1200050E59
:102428006F6E6CC00FF0000C300E0F6E230E106E26
:1024380012003DD077D8EEEC16F00C0E0F6E130E8E
:10244800106E7CEC10F0BAEC17F050EC0DF0BAEC12
:1024580017F0050E6F6E709034D064D8EEEC16F05D
:102468000EEC12F0EEEC16F0FFEC11F0BAEC17F0EF
:10247800050E6F6E26D0692A630E696401D0696AF9
:1024880050EC0DF0BAEC17F0FDEC10F09BEC1CF0E2
:1024980018D06906692802E1630E696E50EC0DF0E8
:1024A800BAEC17F0FDEC10F09BEC1CF00AD06F5062
:1024B800010AC0E0030ADFE0010AEBE0070ACDE009
:1024C800010A70A029D0D00E84EC0AF0000E2AEC84
:1024D80019F0EA0E84EC0AF0060E2AEC19F03A0E0E
:1024E80084EC0AF00C0E2AEC19F00A0E136E0F6E2B
:1024F800695026EC1DF01BEC1EF0FDEC0DF0120EE1
:102508002AEC19F00A0E136E69501BEC1EF0FDEC54
:102518000DF0180E2AEC19F009EC12F0FBEC19F08A
:10252800708012003A0E0F6E240E106E1200010118
:102538009A5119E09A6B0001E76B12D0E75161D804
:10254800DE50DE1007E1E751080D63D8010EDE6E9C
:10255800DD6A05D0E75155D8DE06000EDD5AE72BB7
:102568006B50E75DEBE30001E86B47D0E851080DDD
:1025780050D8DE04DE103FE1E851C7EC16F0DECF9C
:10258800E5F0DDCFE6F0E851D9EC16F0DE50DE10CC
:102598000AE1E851C7EC16F0DECF0FF0DDCF10F0FE
:1025A800EEEC16F01BD0E851CFEC16F0E85129D824
:1025B800DE50DE1013E1E169E269E851D9EC16F06A
:1025C800DECFE3F0DDCFE4F0E151E327E251E4238D
:1025D800E85117D8E3C0DEFFE4C0DDFF01D80BD017
:1025E80005000001FA6EE551FD6EE651FE6EF850E9
:1025F800FF6EFA5012000001E82B6B50E85DB6E35D
:102608001200080D020EF324D96E010EF420DA6EC2
:102618001200060EF324D96E010EF420DA6E1200B1
:1026280070B202D070823BD0709239D06BD8EEEC89
:1026380016F0C00E0F6E1A0E75EC10F0BAEC17F00B
:1026480050EC0DF0BAEC17F0050E6F6E32D05AD878
:10265800EEEC16F00EEC12F0EEEC16F0FFEC11F0CA
:10266800BAEC17F0F1D7642A3B0E646401D0646AAF
:1026780050EC0DF0BAEC17F003EC0EF088EC1DF0FE
:10268800E3D76406642802E13B0E646E50EC0DF05B
:10269800BAEC17F003EC0EF088EC1DF0D5D76F50AC
:1026A800010AC4E0030ADFE0010AEBE0070ACFE011
:1026B800010A70A215D012EC0EF026EC1DF01BECEE
:1026C8001EF0FDEC0DF00D0E2AEC19F017EC0EF0D3
:1026D8001BEC1EF0FDEC0DF0130E2AEC19F00CD0DB
:1026E800176AF8EC0DF00D0E2AEC19F0176AF8ECE1
:1026F8000DF0130E2AEC19F009EC12F0FBEC19F0AE
:1027080070801200280E0F6E260E106E1200266EB4
:102718002B6A2C6A2D6A2E6A2F6A61D899EC1FF0F1
:10272800EC0E8FEC1FF026508FEC1FF09DEC1FF085
:10273800ED0E8FEC1FF0010E9AEC1EF0276E286A42
:10274800296A2A6A010E9AEC1EF02B6E2C6A2D6AF1
:102758002E6A000E9AEC1EF02F6E41D895EC1FF0F1
:102768002BC017F02CC018F02DC019F0166A27C01E
:102778001AF028C01BF029C01CF02AC01DF01BC08D
:102788001DF01AC01CF01B6A1A6A16501A241E6E15
:1027980017501B201F6E18501C20206E19501D202A
:1027A800216E2F501E24226E30501F20236E315070
:1027B8002020246E32502120256E050E05D0D89099
:1027C8002532243223322232E82EF9D722C012F0E1
:1027D80023C013F024C014F025C015F01200306A8D
:1027E800316A326A120011C015F0166A176A10347D
:1027F800153601E3168015501D6E1D5005E10F6A50
:10280800106A116A126A120014C015F0166A176A63
:102818001334153601E3168015501C6E1C50EFE07A
:10282800108E116A138E146A186A196A1A6A1B6A5A
:102838007F0E1D5E1C50980F1D5E180E1C6E33D83F
:1028480012500F5C135010581450115807E31250CF
:102858000F5E1350105A1450115A1880D8900F3622
:10286800103611361C2EEBD71DAE0CD01D50800A29
:10287800970FC5E3D8901B321A32193218321D3E11
:10288800F9D708D0170E1D6403D0B9D70CD81D0688
:102898001D50FCE118C00FF019C010F01AC011F05B
:1028A8001BC012F01200D890183619361A361B368B
:1028B800120044C048F0496A4A6A4334483601E382
:1028C800498048504B6E4B5001E153D047C048F007
:1028D800496A4A6A4634483601E349804850506E8E
:1028E800505001E146D050507B0F4B2644C050F069
:1028F8004750501A800E5016438E468E000E4716CB
:102908004C6A4D6A4E6A070E4F6E42B02BD8D8906B
:10291800443243324232D8904536463647364F2EF7
:10292800F4D7090E4F6E42B01DD8D89044324332C6
:102938004232D8904E324D324C324F2EF4D74CC0E2
:102948000FF04DC010F04EC011F04BC012F050C047
:1029580013F077EC17F00FC042F010C043F011C02D
:1029680044F0120045504C2646504D2247504E2206
:102978001200426A436A446A1200B36F0001B56BE1
:10298800B66B9B0EAA6F010EAB6FB351AA27000E50
:10299800AB23B651AA25D96E000EAB21DA6EB5511C
:1029A8000708AC6FA751050DA8C0ADF0A9C0AEF0DF
:1029B800F350AD27F450AE23B651AD27000EAE2329
:1029C800ADC0F6FFAEC0F7FF0800F5CFAFF0AC2BF7
:1029D80002D0D890AF33AC2FFCD79B0E0001B06F5C
:1029E800010EB16FB351B027000EB123B651B02517
:1029F800E16E000EB121E26EE750B26FD890B235A9
:102A0800AF11DF6EB62B040EB665BBD7B46B0D0ED7
:102A18000001AA6FFB0EE82EFED7AA2FFCD700D024
:102A28000001B42B130EB465F2D709EC12F0FBECDD
:102A380019F00001B52B070EB565A2D7070C5AC0CF
:102A48005CF05D6A5E6A59345C3601E35D805C5017
:102A58000001856F855105E1586A596A5A6A5B6AAF
:102A68001200170E5C6E58C05DF059C05EF05AC077
:102A78005FF05C28606E04D0D8905F325E325D32C1
:102A8800602EFAD75D500001806F598E5A6A5850EF
:102A9800816F5950826F5A50836F846B8E0E855F99
:102AA80085AF0CD08551800A8F0FD6E3D890843338
:102AB800833382338133853FF9D70CD0170E856570
:102AC80007D0CAD7D89081378237833784378507AC
:102AD8008551F8E1805108E0841F831F821F816DB2
:102AE800000E82238323842381C058F082C059F0CA
:102AF80083C05AF084C05BF01200113412341A6E8D
:102B08001A5005E10F6A106A116A126A1200143429
:102B18001534196E1950F6E0118E126A148E156A62
:102B2800156A166A176A186A7F0E1A5E1950A00F7E
:102B38001A5E200E196E38D812500F5C13501058B8
:102B4800145011581550125809E312500F5E1350C3
:102B5800105A1450115A1550125A1580D8900F3621
:102B6800103611361236192EE6D71AAE0CD01A5076
:102B7800800A9F0FC7E3D8901832173216321532E1
:102B88001A3EF9D708D01F0E1A6403D0BBD70CD849
:102B98001A061A50FCE115C00FF016C010F017C045
:102BA80011F018C012F01200D890153616361736E4
:102BB80018361200246E266A276A9B0E1B6E010EB9
:102BC8001C6E24501B26000E1C2227501B24D96E75
:102BD800000E1C20DA6E265007081D6E1A50030DD1
:102BE800960E1E6EBE0E1F6EF3501E26F4501F2248
:102BF80027501E26000E1F221EC0F6FF1FC0F7FF1B
:102C08000800F5CF20F01D2A02D0D89020321D2EC2
:102C1800FCD79B0E216E010E226E24502126000E39
:102C2800222227502124E16E000E2220E26EE75076
:102C3800236ED89023342010DF6E272A020E2764D3
:102C4800BCD7256A0D0E1B6EFC0EE82EFED71B2E78
:102C5800FCD7252A130E2564F5D709EC12F0FBECF6
:102C680019F0262A070E2664A7D7070C23C027F0D9
:102C7800286A296A2234273601E3288027502E6ED5
:102C88002E5001E14AD026C027F0286A296A253447
:102C9800273601E3288027502F6E2F5001E13DD0C1
:102CA8002B6A2C6A2D6A2F50890F2E5E23C02FF0B5
:102CB80026502F1A800E2F16228E236A258E266AFA
:102CC800180E2A6ED8902B362C362D362450215CBF
:102CD800255022582650235807E32450215E2550BA
:102CE800225A2650235A2B80D89021362236233652
:102CF8002A2EE8D72BC00FF02CC010F02DC011F0F1
:102D08002EC012F02FC013F077EC17F00FC021F08F
:102D180010C022F011C023F01200216A226A236A2F
:102D280012000150021001E11200096A15D0095081
:102D38002AD80150DE180FE10250DE180CE1F29E8D
:102D4800095005EC13F03ED809502FD836D8095051
:102D580022D8F28E000C092A6B50095CE8E30F0EAA
:102D68006B600F0CF29E6B500ED801C0DEFF02C0E4
:102D7800DDFF6B5005EC13F025D86B5016D81DD825
:102D88006B5009D824D0080D000EF324D96E010E1B
:102D9800F420DA6E1200080D060EF324D96E010E27
:102DA800F420DA6EDE6ADD6A1200080D040EF324E0
:102DB800D96E010EF420DA6E120005C0DEFF06C0DF
:102DC800DDFF120003C0DEFF04C0DDFF12006B2A26
:102DD800F28E000C176A3FD01750C7EC16F00F5050
:102DE800DE1838E11050DE1835E1F29E1750116EEA
:102DF800126A136814686B50156E166A13501526FC
:102E0800145016221150151803E1125016181FE01D
:102E18006B50116E126AD89011361236D89011364E
:102E28001236D89011361236F80E1124D96E000ECB
:102E38001220DA6E1750080D000EF324E16E010E11
:102E4800F420E26E070EDBCFE3FFE806FCE26B0638
:102E5800F28E1200172A6B50175CBEE31200060EA2
:102E6800CBEC1DF031D8DF6E2FD8DF5040EC1FF0CF
:102E78002BD8DF6E050ECBEC1DF01F0B20D8DF6EB4
:102E88001ED8DF5040EC1FF01AD8DF6E040ECBECD2
:102E98001DF03F0B1ED8DF6E1CD8DF5040EC1FF032
:102EA80018D8DF6E030ECBEC1DF0070B17D8DF6EBA
:102EB80015D8DF5040EC1FF011D8DF6E120018C093
:102EC800D9FF19C0DAFF12001AC0D9FF1BC0DAFFF8
:102ED800120016C0D9FF17C0DAFF120014C0D9FFBC
:102EE80015C0DAFF1200125004E00F501010111034
:102EF80006E10F6A106A116A1200122A2DD8146AA4
:102F0800156AFE0E11142DD807E0F7D7122A0F2ADA
:102F1800000E1022112220D8146A156A115021D8E7
:102F280006E0F4D71206D8900F361036113610BEC8
:102F380003D0020E1260F6D712A0109ED89012325B
:102F480012501112135001E0118E0FC00FF010C073
:102F580010F011C011F01200D890113210320F3257
:102F68001200166E14501510161012000F50101083
:102F780001E11200176A18D01750C7EC16F00F506D
:102F8800DE1811E11050DE180EE1F29E175005EC24
:102F980013F02AD81750D9EC16F021D81750CFECD7
:102FA80016F0F28E000C172A6B50175CE5E30F0E33
:102FB8006B600F0CF29E6B50C7EC16F00FC0DEFF73
:102FC80010C0DDFF6B5005EC13F00ED86B50D9EC38
:102FD80016F005D86B50CFEC16F0EBEF16F013C0D7
:102FE800DEFF14C0DDFF120011C0DEFF12C0DDFFDE
:102FF80012000600D9CF0BF0DACF0CF0F3CF0DF0AA
:10300800F4CF0EF0F2BAF2A403D081EC1FF029D06D
:10301800F2B8F2A211D0F292010EF1AC000EFF0A42
:103028000A6E0A3A0A460A46F1500A18BF0B0A18ED
:10303800F16E55EC1FF015D09DB09EA008D09E9063
:103048003C0ECF6EB00ECE6E4BEC1FF00AD0A0B285
:10305800A1A207D0A192EC0EB36E780EB26EBBECB3
:103068001EF00EC0F4FF0DC0F3FF0CC0DAFF0BC05A
:10307800D9FF71921100116A9C0E112424EC19F0E9
:1030880011241DEC19F0112A1E0E1164F5D7040E37
:103098006A640FD025D807E16A2A1F0E6A64010CFA
:1030A800EA6B6A6A000C0101BA6B6A6A0001EA2BD2
:1030B800010C16D8050D740E0F6EB80E106EF35075
:1030C8000F26F45010226A500F26000E10220FC04F
:1030D800F6FF10C0F7FF0800F5CFBAF16A2A010C15
:1030E800000E0001EA25D96EDA6A020EDA22DF50F4
:1030F80012001A6A18AE06D0176C181ED8B0182A13
:10310800010E1A6E16AE06D0156C161ED8B0162A09
:10311800010E1A1A1B6A1C6A175018101BE0010EC0
:10312800196E04D0D89017361836192A18AEFAD75F
:10313800D8901B361C361750155C1850165805E3E6
:103148001750155E1850165A1B80D890183217322F
:10315800192EEED71A5004E01B6C1C1ED8B01C2A7E
:103168001BC015F01CC016F012009A6B9B6B9C6B71
:103178009D6B965197119811991129E0010E9E6F38
:1031880006D0D89096379737983799379E2B99AFAE
:10319800F8D7D8909A379B379C379D379651925DD0
:1031A80097519359985194599951955909E39651C2
:1031B800925F9751935B9851945B9951955B9A8173
:1031C800D89099339833973396339E2FE2D79AC085
:1031D80092F09BC093F09CC094F09DC095F01200B3
:1031E800640E1D6E1C6A1E6A9C0E1E2429D81E249D
:1031F80020D81E2A1F0E1E64F7D70101BA6B09ECEE
:1032080012F0FBEC19F01B6A08D00D0E1A6EFC0EBA
:10321800E82EFED71A2EFCD71B2A1D501B5CF5E39F
:103228000A0E1D6401D01D5E1C2A1F0E1C64DBD70C
:103238001F0CE16EE26A010EE222DFCFE7FF120007
:10324800D96EDA6A010EDA229B0E12001D6E010E8B
:103258001C6E1F6A1E6A1750050D18C01AF019C097
:103268001BF0F3501A26F4501B221F501A26000E8A
:103278001B221AC0F6FF1BC0F7FF0800F5501C14EC
:1032880007E01EC00FF01D501F2488EC1EF006D06A
:103298001EC00FF01D501F2470EC1DF0D8901C3676
:1032A8001E2A070E1E64D7D7010E1C6E1F2A040E95
:1032B8001F64D0D7040C186E010E176E1A6A196AAB
:1032C8001450070D410E156EB80E166EF3501526E4
:1032D800F45016221A501526000E162215C0F6FFB5
:1032E80016C0F7FF0800F550171407E019C00FF0D3
:1032F80018501A2488EC1EF006D019C00FF0185088
:103308001A2470EC1DF0D8901736192A070E196484
:10331800D7D7010E176E1A2A060E1A64D0D7060CD4
:10332800146A10AE06D00F6C101ED8B0102A010E09
:10333800146E12AE04D0116C121ED8B0122A11509D
:10334800121017E0010E136E04D0D8901136123601
:10335800132A12AEFAD711500F5C1250105804E31A
:1033680011500F5E1250105AD89012321132132E8B
:10337800F2D7145004E00F6C101ED8B0102A0FC0FA
:103388000FF010C010F01200206A8E0E1F6E1AAED9
:1033980011D01A1E191E181E176C000E1822192299
:1033A8001A22010E206E06D0D8901A32193218321D
:1033B80017321F2A1B6A1C6A1D6A1A501E6E1B5080
:1033C8001C101D101E10F0E117C00FF018C010F0EF
:1033D80019C011F01FC012F020C013F077EC17F0DD
:1033E8000FC017F010C018F011C019F01200196AB8
:1033F8008C90186A030E136E146A1850135E000E30
:10340800145AD89013361436D89013361436D890E8
:103418001336143611C015F012C016F013501526C5
:103428001450162219501524D96E000E1620DA6E83
:10343800DF50176E192876EC1EF0175076EC1EF048
:10344800182A030E1864D6D78C80192A070E196417
:10345800CFD7070C000ECBEC1DF01FD8DF6E1DD8A0
:10346800DF5040EC1FF019D8DF6E010ECBEC1DF0D9
:103478001ED8DF6E1CD8DF5040EC1FF018D8DF6E66
:10348800020ECBEC1DF03F0B0DD8DF6E0BD8DF50D2
:1034980040EC1FF007D8DF6E120018C0D9FF19C022
:1034A800DAFF120014C0D9FF15C0DAFF120016C0E7
:1034B800D9FF17C0DAFF1200A351A411A511A61154
:1034C80023E0010E616E06D0D890A337A437A53744
:1034D800A637612AA6AFF8D7A3519F5DA451A0597A
:1034E800A551A159A651A25908E3A3519F5FA45120
:1034F800A05BA551A15BA651A25BD890A633A533CA
:10350800A433A333612EE8D79FC09FF0A0C0A0F0DA
:10351800A1C0A1F0A2C0A2F01200540EF66E3F0E98
:10352800F76E000EF86E0900F5CF6DF00900F5CFC3
:103538006EF00900F5CF6FF002EE00F0640EEE6A4F
:10354800E806FDE101EE00F0CE0EEE6AE806FDE1C8
:103558000001EC6BEB6BEA6B706A00EE63F00A0E2D
:10356800EE6AE806FDE171907192000EF86E0001B6
:10357800E9EF1AF011AE0AD023D80F50155C0F6E80
:1035880010501658106E11501758116E14AE0AD0FC
:1035980017D81250155C126E13501658136E14502B
:1035A8001758146E800E111A141A12500F5C13500B
:1035B80010581450115802E2D8901200D880120006
:1035C800156A166A800E176E800C820E0001E96F6C
:1035D800DD0EE82EFED7E92FFCD700D07EEC1CF0DC
:1035E80035EC1FF0F29EF80E0F6E1F0E106E126A69
:1035F800640E116E146A140E136EBAEC17F0700E86
:103608000F6E360E106E126A116A146A010E136E6E
:10361800BAEC17F0F28E9BEC12F0FDD7166E196A11
:103628001A6A99EC1FF0EC0E8FEC1FF016508FEC15
:103638001FF09DEC1FF0ED0E8FEC1FF0010E9AECC1
:103648001EF0196E1A6A000E9AEC1EF0176E186AB0
:1036580095EC1FF01750156E146A19501410126E5D
:103668001A501510136E120081B802D0010E0BD03B
:1036780081B202D0020E07D081B402D0030E03D06B
:1036880081B603D0040E0F6E01D00F6A0F500FE001
:103698001F0E010198611F0C982B1E0E9819D8A4B3
:1036A80012000FC06FF0986B010E996F010C0101A9
:1036B800986B1200FA0E8BEC13F00B0E0001D66F0C
:1036C800260ED56F5D0EE82EFED7D52FFCD7D62F48
:1036D800FAD700D0F00E0001C66FBE0EC76FD00E2D
:1036E800C86FEE0EC96F070ECA6FCB6B40EC1EF0A9
:1036F800D00ED16FEE0ED26F070ED36FD46B000CC5
:10370800F70E8BEC13F00B0E0001D66F260ED56F5B
:103718005D0EE82EFED7D52FFCD7D62FFAD700D0CE
:10372800E00E0001C66FBE0EC76FAC0EC86F550E17
:10373800C96F060ECA6FCB6B40EC1EF0AC0ED16F92
:10374800550ED26F060ED36FD46B000C8E6B8F6B39
:10375800906B916B86A108D08A518E278B518F234D
:103768008C5190238D519123D8908A378B378C3781
:103778008D37D890893388338733863386518711BC
:1037880088118911E7E18EC086F08FC087F090C05C
:1037980088F091C089F0120019D03C0E6D6EBE0EF3
:1037A8006E6E12000A0E6D6EBE0E6E6E1200D80E90
:1037B8006D6EBD0E6E6E1200A60E6D6EBD0E6E6E37
:1037C8001200740E6D6EBD0E6E6E12006C50010A02
:1037D800E4E0030AE7E0010AEAE0070AEDE0010A8B
:1037E800F0E012008E0E1F6E06D0D8901A321932F1
:1037F800183217321F2A1B6A1C6A1D6A1A501E6E5D
:103808001B501C101D101E10F0E117C00FF018C03F
:1038180010F019C011F01FC012F0000E136E77ECF3
:1038280017F00FC017F010C018F011C019F01200EF
:10383800136A146A115012101BE0010E156E04D0A1
:10384800D89011361236152A12AEFAD7D8901336F8
:10385800143611500F5C1250105805E311500F5ECA
:103868001250105A1380D89012321132152EEED7FA
:1038780013C00FF014C010F012001850191017E000
:10388800010E1A6E04D0D890183619361A2A19AEB5
:10389800FAD71850165C1950175804E31850165EDA
:1038A8001950175AD890193218321A2EF2D716C052
:1038B80016F017C017F0120082909490070E0F6E42
:1038C8007D0EE82EFED70F2EFCD700F08280948064
:1038D800C80E00D0E82EFDD7000E82B0010E106E83
:1038E800060E0F6E800EE82EFED70F2EFCD700D0E6
:1038F80010501200E6EC1EF02AEC1FF040EC1DF010
:10390800D8EC1EF0A4EC1FF068EC1FF0E1EC1DF001
:1039180071EC1FF010EC1FF073EC08F0106A0F6ADE
:103928005FEC1FF06C6ED0EC1BF0A1EF1FF01F6E68
:103938001F50F5EC1DF01A6E030EF4EC1EF01C502F
:10394800F5EC1DF01A6E040EF4EC1EF01D50F5ECAB
:103958001DF01A6E050EF4EC1EF01E50F5EC1DF06D
:103968001A6E060EF4EF1EF0126E146A14C010F0F0
:1039780012C011F0102A02D0D8901132102EFCD7A4
:103988001150136E010E131613502EEC1EF0142A4C
:10399800070E1464EBD7D20E00D0E82EFDD7120024
:1039A800116A126A02EC1FF000090CE012C00FF055
:1039B800010E106E0F2A02D0D89010360F2EFCD7A9
:1039C80010501112F00E00D0E82EFDD7122A070E63
:1039D8001264E8D7115012001A6A18AE06D0176C94
:1039E800181ED8B0182A010E1A6E17C00FF018C08A
:1039F80010F0116A8E0E126E1AC013F077EC17F0E1
:103A08000FC017F010C018F011C019F012003F5085
:103A18004010411002E0800E411A3CC030F03DC019
:103A280031F03EC032F03FC033F040C034F041C006
:103A380035F01BEC0EF030C03CF031C03DF032C028
:103A48003EF01200106E126A0F5014E0010E116E53
:103A580003D0D8900F36112A0FAEFBD7D890123664
:103A68000F50105C03E30F50105E1280D8900F3295
:103A7800112EF4D7125012008C80010E116E0C0E0C
:103A8800ACEC1EF0116A090EACEC1EF0070E116EBC
:103A98000B0EACEC1EF0010E116E0A0EACEC1EF013
:103AA800116A0F0EACEF1EF0C6C0CBF0C7C0CCF049
:103AB800CD6BCE6BCA0ECA6FCB0EA76FC8C0A8F06D
:103AC800C9C0A9F0CA0EAA6F09EC00F0CBC0D9FF93
:103AD800CCC0DAFFDF6A000C136E0FC010F0010EC5
:103AE800116E102A02D0D8901136102EFCD7111C56
:103AF800126E9B0E132403D81250DF161200D96ED3
:103B0800DA6A010EDA2212001E6E1D50F5EC1DF065
:103B18001A6E000EF4EC1EF01C50F5EC1DF01A6E37
:103B2800010EF4EC1EF01E50F5EC1DF03F0B1A6E62
:103B3800020EF4EF1EF03AEC0CF02EEC1AF0BE0E6A
:103B4800146E010E156EBF0E166E010E176EC00EA6
:103B5800186E010E196EC10E1A6E010E1B6E33EF30
:103B680017F010D009EC12F0FBEC19F01B6A0D0EDF
:103B78001A6EFC0EE82EFED71A2EFCD71B2A310E21
:103B88001B64F5D73FEC18F00009ECE11200126E47
:103B980099EC1FF0D00E8FEC1FF012508FEC1FF035
:103BA8009DEC1FF0D10E8FEC1FF0000E9AEC1EF06A
:103BB800136E95EC1FF01350120060EC1CF0000916
:103BC800D8A41200CC0EB8EC1CF04E0EB8EC1CF0C9
:103BD800000EB8EC1CF0000EB8EC1CF07F0EB8EF2D
:103BE8001CF0196E0A0E136E19501BEC1EF0176E9E
:103BF8000F0E17160A0E0F6E195026EC1DF0186ED0
:103C08001838F00B171012001D501F02F3CF21F0C7
:103C1800F4CF22F01D502002F35022261E501F021E
:103C2800F350222621C01DF022C01EF01200146E8F
:103C3800080E156E166AD89014341634166ED8907D
:103C480014361350165C02E31350165E152EF3D784
:103C5800165012000F6E829094900F0406E1060E23
:103C6800E82EFED700D082809480D20E00D0E82EB5
:103C7800FDD7828094801200CD6BCE6B120ECF6F71
:103C88003F0ED06FC80ECC6FCD0EA76FC6C0A8F080
:103C9800C7C0A9F0CC0EAA6F09EF00F017C00FF04B
:103CA80018C010F0116A8E0E126E000E136E77ECAB
:103CB80017F00FC017F010C018F011C019F012005B
:103CC800106EA6B2FED710C0A9FF0FC0A8FFA69E0F
:103CD800A69CA684F29E550EA76EAA0EA76EA68273
:103CE800F28EAA0C0F6E106A0FAE02D08C8401D02F
:103CF8008C948C8200F000F08C92D8900F36102AA9
:103D0800070E1064F1D7070C126E0FC010F0010EE9
:103D1800116E102A02D0D8901136102EFCD79B0EA7
:103D2800122483EC1DF01150DF121200106E79EC92
:103D38001FF0C58679EC1FF0C9CF11F079EC1FF0A0
:103D4800105002E1C58A01D0C59AC58811501200E9
:103D5800126E8C90136A125076EC1EF0115076ECAD
:103D68001EF0132A030E1364F6D78C80030C01018E
:103D78009951D8B41200972B140E976103D0800E76
:103D88008C1A800C976B996B8C9E1200126E99ECB2
:103D98001FF0EC0E8FEC1FF012508FEC1FF011503B
:103DA8008FEC1FF095EF1FF0CD903C0ECF6EB00E4C
:103DB800CE6E9D80B192B180A082EC0EB36E780E6B
:103DC800B26E780C8B6A180E946E8A6A1F0E936E08
:103DD800F19E8C6A956AF18CF292F28882801200C8
:103DE8001B6E99EC1FF0D00E8FEC1FF01B508FEC60
:103DF8001FF01A508FEC1FF095EF1FF082909490EF
:103E0800030EE82EFED700F082809480140EE82E70
:103E1800FED782B0010C000C948C948EAC84AC98C4
:103E2800AC8AAB88AB8EB886040EB06E100EAF6E3F
:103E3800100C0F501010111002E0800E111A0FC054
:103E48000FF010C010F011C011F01200180E9412EB
:103E5800280EC66EC76A630EC86EC584C5A4120054
:103E6800FDD70F6A9B0E0F2483EC1DF0DF6A0F2A23
:103E7800200E0F64F7D7200C106E10C00FF00F0E35
:103E88000F1610380F0B0A0DF3500F241200010102
:103E9800CD2B950ECD65950CCD6B010ECC6FCD90CD
:103EA800010C3E0E016E3B0E026E046A036A066A3E
:103EB800056A95EF16F0A6B2FED70FC0A9FFA69E19
:103EC800A69CA680A85012001A6A0E0EF4EC1EF0EA
:103ED800080E1A6E0F0EF4EF1EF0C70ED56EF28A9A
:103EE800D76A3D0ED66E6B6A1200C7B4FED7C5CF2F
:103EF8000FF01F0E0F16F9E11F0CF294D76A3D0E52
:103F0800D66E010E01019A6F010C0F6E9EA8FED7A6
:103F18000FC0ADFF1200106E79EC1FF010C0C9FF82
:103F2800120079EC1FF0C584120079EC1FF0C580EF
:103F3800120079EC1FF0C5821200959E8C9E12002B
:0F3F4800F28EF28C1200040E6F6E040C3CBE055C
:10B7F2000000803F00204100C842007A44401C46BD
:10B8020050C34724744997184BBCBE4C6B6E4E0311
:10B81200155079AD60F3497100803FCDCC3DD723FF
:10B822003C12833AB7D138C62737388635C0D6336B
:10B83200CC2B32708930E7DB2EE53C1E42A20D0094
:10B84200000000000000087C4E4F4E7C0804264792
:10B852003F070604203E7F7F3F3E207E121E00707F
:10B86200100000010102020304040506060707088E
:10B87200090900000000004551453E006B6F6B3E18
:10B88200003E7C3E1C003C7E3C1800367F36300079
:10B8920000000000000000000000000000000000A6
:10B8A2000000000000000000000000000000000096
:10B8B2000000000000000000000000000000000086
:10B8C2000000000000000000000000000000000076
:10B8D2000000000000000000000000000000000066
:10B8E200000000000000000000007C4E4E7C08209A
:10B8F200347E3420000036360000000000000000D4
:10B902000000000000000000000000000000000035
:10B912000000000000000000005F000000070007B8
:10B9220000147F147F14242A7F2A122313086462CE
:10B9320036495620500008070300001C224100002F
:10B9420041221C002A1C7F1C2A08083E080800808D
:10B952007030000808080808606000000020100825
:10B9620004023E5149453E00427F40004261514936
:10B97200462141454B311814127F10274545453960
:10B982003C4A49493001710905033649494936069D
:10B992004949291E000036360000403400000008E4
:10B9A20014224114141414140041221408020159DF
:10B9B20009063E415D594E7C1211127C7F4949496C
:10B9C200363E414141227F4141413E7F4949494101
:10B9D2007F090909013E414151727F0808087F0031
:10B9E200417F41002040413F017F081422417F40B6
:10B9F2004040407F0204027F7F0408107F3E4141A5
:10BA0200413E7F090909063E4151215E7F091929FC
:10BA120046264949493201017F01013F4040403FEA
:10BA22001F2040201F3F4038403F63140814630327
:10BA3200047804036151494543007F4141000204F7
:10BA42000810200041417F000402010204404040EE
:10BA52004040000307080020545478407F284444A3
:10BA6200383844444428384444287F3854545418BD
:10BA7200087E09020018A4A49C787F0804047800B8
:10BA8200447D40002040403D007F1028440000419A
:10BA92007F40007C047804787C08040478384444AD
:10BAA2004438FC1824241818242418FC7C040408A4
:10BAB20000485454542400043F44203C4040207C1D
:10BAC2001C2040201C3C4030403C44281028444C60
:10BAD2009090907C4464544C44000836410000002D
:10BAE2007700000041360800020102040200000053
:10BAF2000000000000000000000000000000000044
:10BB02000000000000000000000000400040004073
:10BB1200000000000000000000003E5555412200D8
:10BB22000000000000000000000000000000000013
:10BB32000000000000000000000000000000000003
:10BB420000000000000000000000000000000000F3
:10BB52000000000000000000000000000C1E1E0C8F
:10BB620000000000000000000000000000000000D3
:10BB720000000000000000000000000000000000C3
:10BB820000000000000000000000000000000000B3
:10BB920000000000000000000000000000000000A3
:10BBA20000000000000000000000007E020202030C
:10BBB200000000000000000000007E4B4A4B4200E3
:10BBC200000000003E494949220000000000000038
:10BBD2000000000000000000000000000000417EA4
:10BBE2004100000609090644445F444400417F4184
:10BBF2000000447D4000007C0404060000000000B8
:10BC020000000000000000000000385554551800E4
:10BC120000000000385454544422142A14082040CE
:10BC2200403D000000000000000000000000457CD4
:10BC320041007E1111117E7F494949317F494949AD
:10BC4200367F01010101C07E417EC07F49494941E1
:10BC520077087F087722414949367F1008047F7EA2
:10BC62001109057E7F08142241407E01017F7F0277
:10BC72000C027F7F0808087F3E4141413E7F01015F
:10BC8200017F7F090909063E4141412201017F01ED
:10BC920001274848483F0E117F110E6314081463B0
:10BCA2007F40407FC0070808087F7F407E407F7F3B
:10BCB200407E40FF017F4444387F4438007F7F4408
:10BCC200444438224149493E7F083E413E462919B3
:10BCD200097F20545454783C4A4A4A317C54545483
:10BCE20028007C040404C078447CC038545454189E
:10BCF2006C107C106C28445454287C2010087C7CE6
:10BD02002111097C7C10102844403804047C7C08F2
:10BD120010087C7C1010107C38444444387C0404A5
:10BD2200047C7C14141408384444442804047C041D
:10BD3200044C5050503C18247C2418006C10106C99
:10BD42007C40407CC00C1010107C7C4078407C7C95
:10BD5200407840FC047C5050207C5020007C007CC9
:10BD620050502044545454387C1038443848543489
:10BD7200147C3E41417F3E00027F7F006273594F37
:10BD8200462263497F361814127F7F2F45457D393D
:10BD92003E49497B320371790F073649497F36267E
:10BDA20049497F3E3E7F417F3E00027F7F006273B2
:10BDB200594F462263497F361814127F7F2F6F45F1
:10BDC2007D393E7F497B320373790F07367F497F86
:10BDD20036266F497F3E7F41417F7F00017F7F0092
:10BDE2007151515F5F4149497F7F1F10107F7F4F23
:10BDF200494979797F494979790101017F7F7F49F1
:10BE0200497F7F4F49497F7F7F7F417F7F00017F4D
:10BE12007F007373515F5F636B497F7F1F1F107FCA
:10BE22007F6F6F4979797F7F497B7B0373790F0736
:10BE32007F7F497F7F6F6F497F7F7F7F417F7F0059
:10BE4200017F7F006171594F474149497F7F1F1F21
:10BE5200107F7F4F4F4979797F7F497979017179D5
:10BE62000F077F7F497F7F5F5F517F7F0100000067
:10BE72000A00000064000000E80300001027000030
:10BE8200A086010040420F008096980000E1F5056F
:10BE920000CA9A3B0000007C447C007C0074545C25
:10BEA20054547C1C107C5C54747C547404047C7C5C
:10BEB200547C5C547C436C6F636B2076312E302053
:10BEC2006279204976616E5F66640054656D7065C3
:10BED2007261747572653A2025640A0D2000556EF0
:10BEE2006350726573733A20256C640A0D00556EB7
:10BEF2006354656D703A20256C640A0D00507265BA
:10BF020073733238303A2025750A0D0054656D700E
:10BF12003238303A2025640A0D0074656D706572FE
:10BF2200203D202025750D006469675F50323A205C
:10BF320025640A0D006469675F54323A2025640A59
:10BF42000D006469675F50333A2025640A0D00646E
:10BF520069675F54333A2025640A0D006469675F9C
:10BF620050343A2025640A0D006469675F50353AFF
:10BF72002025640A0D006469675F50363A20256403
:10BF82000A0D006469675F50373A2025640A0D0084
:10BF92006469675F50383A2025640A0D0064696756
:10BFA2005F50393A2025640A0D006469675F503199
:10BFB2003A2025750A0D006469675F54313A2025DD
:10BFC200750A0D007466696E65203D202025660D98
:10BFD2000076617231203D202025660D0076617267
:10BFE20032203D202025660D00ECEC2EF0F22EF1E1
:0DBFF200F22E0050203D202025660D00009D
:020000040020DA
:08000000FFFFFFFFFFFFFFFF00
:020000040030CA
:0E000000FF061E1EFF8181FF0FC00FE00F40A4
:0200000400F00A
:080000000300000000000000F5
:00000001FF
