:0400000007EF00F016
:1000080071822EED0FF0F5EF10F0600E00018D25D6
:10001800566EF00E8E21576EFF0E8F21586EFF0E12
:100028009021596ED20E336EBF0E346E56C035F025
:1000380057C036F058C037F059C038F01CEC13F0F0
:1000480023DA86EC10F0E3D9DFEC0CF0A0DA9FC0DD
:100058000FF0A0C010F041DA88DA86EC10F0D7D99A
:10006800AADADFEC0CF0F1D91CEC13F0ABC00FF0FE
:10007800ACC010F032DA1EDA86EC10F0C8D99BDA80
:10008800DFEC0CF0CDD91CEC13F05E5062245A6EF4
:100098005F5063205B6E605064205C6E6150652029
:1000A8005D6E44DA1CEC13F066C042F067C043F0A2
:1000B800000E43BEFF0E446E456E020ED8904236C7
:1000C800433644364536E82EF9D75A504224466E10
:1000D8005B504320476E5C504420486E5D5045207D
:1000E800496E030ED8904636473648364936E82ECC
:1000F800F9D7020E46241B6E000E47201C6E000E18
:1001080048201D6E000E49201E6E040E4FDADFECEB
:100118000CF01BC095F01CC096F01DC097F01EC0D7
:1001280098F0560E336EBF0E346E95C035F096C0FB
:1001380036F097C037F098C038F01CEC13F0A9C01F
:100148000FF0AAC010F0C9D9B5D986EC10F05FD964
:100158001F6A200E36DADFEC0CF077D91CEC13F0AE
:1001680093D986EC10F053D9DFEC0CF010DAA1C06B
:100178000FF0A2C010F0B1D9F8D986EC10F047D929
:100188000FDADFEC0CF04CD91CEC13F0C2D9020EDC
:1001980042241B6E000ED7D9040E08DADFEC0CF0EF
:1001A8001BC05AF01CC05BF01DC05CF01EC05DF0A7
:1001B800BDD91CEC13F0000E5A240F6E800E5B2084
:1001C800106E000E5C20116E000E5D20126EA7C02E
:1001D80013F0A8C014F0156A166A86EC10F0100E19
:1001E80005D0D8901232113210320F32E82EF9D7DA
:1001F8000FC091F010C092F011C093F012C094F0AB
:10020800600E336EBF0E346E91C035F092C036F07A
:1002180093C037F094C038F01CEC13F000019551EE
:100228003E5C0F6E96513F58106E97514058116EB4
:1002380098514158126E6A0E136E180EC6D986EC84
:1002480010F00FC089F010C08AF011C08BF012C0F6
:100258008CF06A0E336EBF0E346E89C035F08AC0DA
:1002680036F08BC037F08CC038F01CEC13F0800EE1
:1002780000018C5D15E2D89089350F6E8A35106EB5
:100288008B35116E8C35126E79D9F3EC0EF00FC0E8
:10029800D8F010C0D9F011C0DAF012C0DBF015D0D8
:1002A80089C00FF08AC010F08BC011F08CC012F01A
:1002B80065D9F3EC0EF0D8900F340001D86F1034E4
:1002C800D96F1134DA6F1234DB6F1BD9FCD81CECF0
:1002D80013F009D9DFEC0CF01BC00FF01CC010F0B4
:1002E8001DC011F01EC012F0FED8DFEC0CF01BC0D0
:1002F80013F01CC014F01DC015F01EC016F086ECDB
:1003080010F00FC062F010C063F011C064F012C0AA
:1003180065F0FBD8AFD81CEC13F062C00FF063C0D7
:1003280010F064C011F065C012F0DE0E136E0B0EF3
:100338004CD986EC10F06BD833D9DFEC0CF01BC02D
:1003480062F01CC063F01DC064F01EC065F0DDD80B
:1003580091D81CEC13F000D9430E136EE30E146E03
:100368001568166886EC10F052D81AD9DFEC0CF034
:100378001BC05EF01CC05FF01DC060F01EC061F0C5
:100388004C0E336EBF0E346E5EC035F05FC036F073
:1003980060C037F061C038F01CEC13F0BAD8CF0E4B
:1003A80042241B6E0E0ECFD8100E00D9DFEC0CF0D5
:1003B8001B500001D8271C50D9231D50DA231E508A
:1003C800DB239FD880D81CEC13F0C6D8640E136EBC
:1003D800146A156A166A86EC10F019D8140E1F6E86
:1003E800340EEFD8DFEC0CF01BC0D8F01CC0D9F0ED
:1003F8001DC0DAF01EC0DBF0F60E336EBF0E63D8F8
:100408001CEC13F0D8C03EF0D9C03FF012000FC06A
:100418001BF010C01CF011C01DF012C01EF012001D
:100428001BC05EF01CC05FF01DC060F01EC061F014
:10043800B70E336EBF0E346E5EC035F05FC036F057
:1004480060C037F061C038F012001BC062F01CC0F9
:1004580063F01DC064F01EC065F0A50E336EBF0EBC
:10046800346E62C035F063C036F064C037F065C0E2
:1004780038F01200346E62C035F063C036F064C0E4
:1004880037F065C038F012001F6A100E206E216A1E
:10049800226A56C00FF057C010F058C011F059C06A
:1004A80012F056C013F057C014F058C015F059C0D8
:1004B80016F0100C56C013F057C014F058C015F0C1
:1004C80059C016F01200346ED8C035F0D9C036F0D5
:1004D800DAC037F0DBC038F01200000E10BEFF0E95
:1004E800116E126E12001F6A010E206E216A226AB6
:1004F800D8C01BF0D9C01CF0DAC01DF0DBC01EF05C
:10050800010C740E336EBF0E1200420E336EBF0E16
:1005180012005E506224426E5F506320436E60504A
:100528006420446E61506520456E1200C00E336E23
:10053800BF0E346E5AC035F05BC036F05CC037F081
:100548005DC038F0120043201C6E000E44201D6E62
:10055800000E45201E6E1200D8C00FF0D9C010F052
:10056800DAC011F0DBC012F01200D4C013F0D5C00D
:1005780014F0D6C015F0D7C016F0120091C013F0D1
:1005880092C014F093C015F094C016F012001BC06E
:10059800D4F01CC0D5F01DC0D6F01EC0D7F0120094
:1005A8001F6A206A010E216E226A010C1F6E206AE2
:1005B800216A226A12001F6A080E206E216A226AC6
:1005C800080C206E216A226A1200146E156A166AD7
:1005D8001200E8D0250E321817E007D9DE50DE10D9
:1005E8000EE003D901D8DED00500FA6EDE50FD6EAC
:1005F800DE50FE6EF850FF6EFA5032501200D8D816
:1006080032C0DFFF03D9CED0316A04D0318802D09E
:10061800318C0CD0F0D801E1C8D0640A07E00D0A8B
:1006280005E0050AF3E0190AF3E0BCD031BC1BD0A1
:1006380031A802D0C9D80AD0F0D8DECF2DF0DDCF4E
:100648002EF0000E2EBEFF0E2F6E306E30AE1AD07A
:10065800030E3112301E2F1E2E1E2D6C000E2E2260
:100668002F2230220FD031A802D0AED80BD0D5D847
:10067800DECF29F0DDCF2AF029C02DF02AC02EF0D8
:100688002F6A306A010E326E3250040D750EF32453
:10069800F66EB90EF420F76E0900F5502D5C0900CE
:1006A800F5502E580900F5502F580900F5503058CC
:1006B80004E3322A0A0E3218E7E131C029F0030EAA
:1006C800291615E092D8DE50DE100DE08ED801D83C
:1006D8000ED00500FA6EDE50FD6EDE50FE6EF8504C
:1006E800FF6EFA502D0C64D82D0EDF6E8FD8325065
:1006F8002B6E2C6A2BBE2C064ED02BC029F02CC09A
:100708002AF0D89029362A36D89029362A36750EF6
:100718002924F66EB90E2A20F76E0900F5CF13F0DA
:100728000900F5CF14F00900F5CF15F00A00F5CF50
:1007380016F02DC00FF02EC010F02FC011F030C0F1
:1007480012F0F3EC0EF00FC01CF010C01DF011C039
:100758001EF012C01FF00A0E206E216A226A236A58
:10076800CEEC0FF01C50300F326E3FD8DE50DE104A
:100778000EE03BD801D80FD00500FA6EDE50FD6EB2
:10078800DE50FE6EF850FF6EFA503250120010D84C
:1007980032C0DFFF3BD82B06D8A02C062B28ADE1B2
:1007A8002C28ABE128D801E015D7256A266A120063
:1007B8002550D96EDA6ADECF29F0DDCF2AF029C0BC
:1007C800D9FF2AC0DAFF12002850D96EDA6A040E5F
:1007D800DF26DF5CD96EDA6ADECF2DF0DECF2EF0B1
:1007E800DECF2FF0DECF30F012002550D96EDA6A56
:1007F800020ED926020C26C0F6FF27C0F7FF264AAC
:10080800272A0800F5CF32F0325012002550D96E51
:10081800DA6ADE2A000EDD22000C2850D96EDA6A68
:10082800DF50DF2ADF2AD96EDA6A12003CD0E5D819
:100838002AEC0EF0000E0F6E150E106ED2D86FEC6B
:100848000EF0EBEC0AF06FEC0EF008EC0BF035D084
:10085800D4D82AEC0EF057EC07F02AEC0EF04DEC49
:1008680007F06FEC0EF0050E706E27D0542A0C0EB0
:10087800546402D0010E546EEBEC0AF06FEC0EF0EB
:10088800F6EC0AF095EC11F018D05406545002E139
:100898000C0E546EEBEC0AF06FEC0EF0F6EC0AF06E
:1008A80095EC11F00AD07050010AC1E0030ADEE0AD
:1008B800010AEBE0070ACCE0010A6FA08CD0CC0E4D
:1008C800176E000E64EC0FF0A9D864EC0FF005EC7D
:1008D8000BF064EC0FF066D08DD864EC0FF0F70ED7
:1008E800176E180E64EC0FF076D08CD864EC0FF00D
:1008F8005CEC07F064EC0FF06ED0C10E176E120EB0
:1009080064EC0FF074D864EC0FF065D0CA0E176E63
:10091800120E64EC0FF0E20E176E180E64EC0FF076
:100928005AD0D20E176E120E64EC0FF060D864EC39
:100938000FF051D06DD864EC0FF059D864EC0FF07B
:100948004AD060D864EC0FF066D864EC0FF043D05E
:1009580051D864EC0FF05FD864EC0FF03CD055D858
:1009680064EC0FF044D864EC0FF035D0C60E176E67
:10097800120E64EC0FF05CEC07F064EC0FF02BD077
:1009880041D864EC0FF0F10E176E180E64EC0FF0FE
:1009980022D0C30E176E120E64EC0FF028D864EC48
:1009A8000FF019D05450010A97E0030A9EE0010A9B
:1009B800A4E0070AABE0010AB4E0030ABBE0010ABD
:1009C800C0E00F0AC5E0010ACAE0030ACFE0010A45
:1009D800D7E0070ADEE0AD0E116E77EC11F06F80FC
:1009E8001200126A116A146A140E136E140CF00EB7
:1009F800176E180CD10E176E120C340E0F6E080EEF
:100A0800106E1200CB0E176E120CC20E176E120C5F
:100A1800D70E176E120CEF0E176E180CF10E176E1C
:100A2800060CA3D0E1EC13F0B0D8ACEC10F0A5D8CC
:100A38003AEC11F0165017100FE1BBD899EC0FF0F3
:100A4800ACD83AEC11F0B1D8E0EC0DF0B00E1B6E5A
:100A5800130EE0EC0DF018D0ACD899EC0FF095D847
:100A6800ACEC10F08AD83AEC11F09FD8E0EC0DF01D
:100A780094D83AEC11F016509FD8E0EC0DF0B00E77
:100A88001B6E190EE0EC0DF0060E706E580E0F6E10
:100A9800280E106E020E126EEE0E116E146A136A94
:100AA8006FEF0EF0050E706E2FEC10F040EC09F0B1
:100AB800CF511FEC12F0F7EC12F000090DE040ECFA
:100AC80009F0CF511FEC12F0F7EC12F0300F1B6E4B
:100AD800000EE0EC0DF004D0000E1B6AE0EC0DF007
:100AE8004AEC09F0F7EC12F0300F1B6E060EE0EC42
:100AF8000DF040EC09F0CE511FEC12F0F7EC12F0BB
:100B0800300F1B6E0D0EE0EC0DF04FEC09F0F7EC1A
:100B180012F052D8E0EC0DF0C9EC12F0FFEC0FF037
:100B280040EC09F0CD511FEC12F0F7EC12F0256EF5
:100B38002528176E190E96EC0DF054EC09F0F7EC19
:100B480012F0256E2528176E1D0E96EC0DF057EC49
:100B580007F02AEC0EF02A0E0F6E0A0E106E2AEC21
:100B68000EF04DEC07F06FEF0EF07050040A9AE0AB
:100B7800010A01E157D7030A12000FC016F010C08E
:100B880017F0196A0A0E186E0A0C126A0A0E116E0C
:100B98006BC00FF06CC010F00A0C6BC016F06CC084
:100BA80017F0196A0A0E186E0A0C1650300F1B6ED1
:100BB8000D0C010E146E030C300F1B6E130CAA0ED5
:100BC800D1EC10F012C066F013C067F0AC0ED1EC97
:100BD80010F012C0ABF013C0ACF0AE0ED1EC10F0B8
:100BE80012C0A9F013C0AAF0B00ED1EC10F012C0D8
:100BF800A7F013C0A8F0B20ED1EC10F012C0A5F007
:100C080013C0A6F0B40ED1EC10F012C0A3F013C0BC
:100C1800A4F0B60ED1EC10F012C0A1F013C0A2F0EF
:100C2800B80ED1EC10F012C09FF013C0A0F0BA0EAD
:100C3800D1EC10F012C09DF013C09EF0BC0ED1ECA8
:100C480010F012C09BF013C09CF0BE0ED1EC10F057
:100C580012C099F013C09AF00B0E3F6E260E3E6E2E
:100C68005E0EE82EFED73E2EFCD73F2EFAD7240E76
:100C7800336EBF0E346E66C035F067C036F01CECBC
:100C880013F02E0E336EBF0E346EABC035F0ACC011
:100C980036F01CEC13F0380E336EBF0E346EA9C05C
:100CA80035F0AAC036F01CEC13F07E0E336EBF0E82
:100CB800346EA7C035F0A8C036F01CEC13F0880ECF
:100CC800336EBF0E346EA5C035F0A6C036F01CECEE
:100CD80013F0920E336EBF0E346EA3C035F0A4C06D
:100CE80036F01CEC13F09C0E336EBF0E346EA1C0B0
:100CF80035F0A2C036F01CEC13F0AE0E336EBF0E0A
:100D0800346E9FC035F0A0C036F01CEC13F0DB0E3B
:100D1800336EBF0E346E9DC035F09EC036F01CECAD
:100D280013F0E40E336EBF0E346E9BC035F09CC0DA
:100D380036F01CEC13F0ED0E336EBF0E346E99C016
:100D480035F09AC036F01CEF13F035D0B4D82AEC41
:100D58000EF09FD86FEC0EF0A6D82AEC0EF008EC37
:100D68000BF033D0A8D82AEC0EF09DD82AEC0EF060
:100D780090D86FEC0EF0050E706E27D0522A070E31
:100D8800526402D0010E526EEBEC0AF06FEC0EF0DA
:100D9800F6EC0AF095EC11F018D05206525002E128
:100DA800070E526EEBEC0AF06FEC0EF0F6EC0AF060
:100DB80095EC11F00AD07050010AC8E0030ADEE091
:100DC800010AEBE0070ACEE0010A6FA05CD0C40E6E
:100DD800176E000E64EC0FF0ED0E176E060E64EC45
:100DE8000FF005EC0BF064EC0FF03ED069D864EC22
:100DF8000FF0ED0E176E180E64EC0FF044D009ECEE
:100E080005F064EC0FF054D864EC0FF03CD0FEEC25
:100E180004F064EC0FF0FBEC04F064EC0FF033D05A
:100E28000CEC05F064EC0FF043D864EC0FF02BD019
:100E380047D864EC0FF03CD864EC0FF024D0FEECFB
:100E480004F064EC0FF0E10E176E180E64EC0FF06E
:100E58001AD0CD0E176E120E64EC0FF0E40E176E5A
:100E6800180E64EC0FF00FD05250010AF2E0030A9A
:100E7800BDE0010AC4E0070ACAE0010AD1E0030A9A
:100E8800D7E0010ADCE0AD0E116E77EC11F06F804F
:100E98001200E20E0F6E180E106E126A116A146AB2
:100EA800140E136E140C580E0F6E280E106E1200CE
:100EB800F20E176E180C520E0F6E0D0E106E1200F9
:100EC800CF0E176E120C6FB202D06F8243D06F92A2
:100ED80041D090D82AEC0EF0180E0F6E160E106E38
:100EE800F5EC04F06FEC0EF0EBEC0AF06FEC0EF0A2
:100EF800050E706EE1EC13F06F9036D07BD82AECBB
:100F08000EF057EC07F02AEC0EF04DEC07F06FEC02
:100F18000EF0050E706E28D0512A170E516401D0BC
:100F2800516AEBEC0AF06FEC0EF0050E706E5DD8AE
:100F380051EC12F019D05106512802E1170E516EEA
:100F4800EBEC0AF06FEC0EF0050E706E4ED851EC1B
:100F580012F00AD07050010ABCE0030ADDE0010A71
:100F6800EAE0070ACBE0010A6FA039D06FA22FD0C0
:100F78004BD81FEC12F0F7EC12F052D864EC0FF0DB
:100F88004BD8F7EC12F045D864EC0FF038D81FECCA
:100F980012F0F7EC12F000090BE031D81FEC12F058
:100FA800F7EC12F0300F176E000E64EC0FF004D05F
:100FB800000E176A64EC0FF00A0E136E5150F7EC2E
:100FC80012F0300F176E060E64EC0FF008D0000E0A
:100FD800176A64EC0FF0176A060E64EC0FF0AD0E9A
:100FE800116E77EC11F06F80120050C01CF01D6A72
:100FF80051501200CE0E0F6E0E0E106E12000A0E19
:10100800136E0F6E515012000A0E136E0F6E505071
:101018001200300F176E130C0A0E136E5050120088
:10102800300F176E0D0C0001A351426EA451436E90
:10103800446A456A42503E5C0F6E43503F58106EFA
:1010480044504058116E45504158126EA5C013F0D7
:10105800A6C014F0156A166A86EC10F00BEC02F0C4
:101068001F6A800EE5EC02F0DFEC0CF029EC02F0D0
:101078001CEC13F09BC042F09CC043F0000E43BE32
:10108800FF0E446E456E0B0ED890423643364436FA
:101098004536E82EF9D742C01BF043C01CF044C0C7
:1010A8001DF045C01EF099C046F09AC047F0000EEA
:1010B80047BEFF0E486E496E625046241F6E63504D
:1010C8004720206E64504820216E65504920226ECA
:1010D800DFEC0CF014EC02F01CEC13F05E50622410
:1010E80000018D6F5F5063208E6F605064208F6F9A
:1010F80061506520906FC90E336EBF0E346E8DC07F
:1011080035F08EC036F08FC037F090C038F01CEC48
:1011180013F0080E00018D251B6E000E8E211C6E2B
:10112800000E8F211D6E000E90211E6E100EDAEC3F
:1011380002F0DFEC0CF01BC04AF01CC04BF01DC0E5
:101148004CF01EC04DF0140E336EBF0E346E4AC004
:1011580035F04BC036F04CC037F04DC038F01CECC1
:1011680013F04AC03EF04BC03FF04CC040F04DC0B9
:1011780041F01200196A80D8CF511FEC12F0F7EC39
:1011880012F000090AE078D8CF511FEC12F0F7EC02
:1011980012F03DD8AD0F6AD802D0195072D876D85F
:1011A800F7EC12F034D8B30F61D866D8CE511FECE3
:1011B80012F0F7EC12F02BD8BA0F58D86CD8F7EC1D
:1011C80012F025D8C00F52D8192A040E1964D3D7A3
:1011D800196A52D8CD511FEC12F0F7EC12F041D831
:1011E8002DD8C60F43D85CD8F7EC12F03AD826D8D9
:1011F800CA0F3CD8192A020E1964EBD70001B26B4A
:10120800800EB86FB96FBF6BC56BC96B1200050D47
:10121800C90E176EB90E186EF3501726F45018221F
:1012280019501726000E1822F00E1726000E182245
:1012380017C0F6FF18C0F7FF19501200186EF350C8
:101248001726F450182219501726000E1822030EDC
:101258001726000E182217C0F6FF18C0F7FF1950FE
:101268001200030DC90E176EBE0E1200D96EDA6A8F
:101278000800F5CFDFFF12000A0E136E0F6E000193
:101288000A0CAD0FD96EDA6ADF6A12000A0E136E05
:101298000001CF5112000A0E136E0001CE51120048
:1012A8000A0E136E0001CD51120089D059EC11F0CD
:1012B8000009D8A41200CC0EB2EC11F0440EB2EC26
:1012C80011F04050D96EDA6ADF6A3F50D96EDA6A97
:1012D800020EDF6ECD80020C59EC11F0CC0EB2EC90
:1012E80011F0BE0EB2EC11F0456A4550800FD96E70
:1012F800DA6ACEEC11F0DF6E452A010E4564F5D7A7
:1013080000018151416E8051466E41C047F047AEA1
:1013180004D0466C471ED8B0472A46500F0B446E7F
:10132800B90E4424F66EF76AB90EF7220800F5CF15
:1013380044F0463A473A0F0E46164750F00B46120D
:101348000F0E471646500A0DF3CF46F0F4CF47F07C
:1013580044504626000E4722010E336EBF0E346EEF
:1013680046C035F047C036F01CEC13F046C016F006
:1013780047C017F0196A0A0E186E3AEC11F01650A9
:10138800436E46C00FF047C010F0126A0A0E116E85
:10139800ACEC10F00FC046F010C047F0050E4364E7
:1013A80002D0464A472A3E50D96EDA6A46C0DEFF66
:1013B80047C0DDFF3F50D96EDA6ADF6A000C3F5044
:1013C800D96EDA6ADF5001E171D7010A85E0030AB4
:1013D8001200F40E116E9DEC13F025D0410E186E1C
:1013E800EE0EE82EFED7182EFCD71BD0680E186E0E
:1013F800E40EE82EFED7182EFCD713D0B60E186EC2
:10140800D00EE82EFED7182EFCD70BD0020E196E80
:10141800520E186EA60EE82EFED7182EFCD7192EDF
:10142800FAD700D00DD0EA0EF66EBE0EF76E0800A1
:10143800F550D4E0010ADAE0030AE0E0010AE6E048
:10144800F60E68EC12F0286E296A2A6A2B6AF70EE3
:1014580068EC12F02C6E2D6A2E6A2F6AF80E68EC72
:1014680012F0306E316A326A336A2CC019F02DC01E
:101478001AF02EC01BF0186A28C01CF029C01DF0F5
:101488002AC01EF02BC01FF01DC01FF01CC01EF08C
:101498001D6A1C6A18501C24206E19501D20216ECC
:1014A8001A501E20226E1B501F20236E30502024FD
:1014B800246E31502120256E32502220266E335062
:1014C8002320276E060E05D0D890273226322532E3
:1014D8002432E82EF9D724C034F025C035F026C0D0
:1014E80036F027C037F034C014F035C015F036C0D8
:1014F80016F037C017F0120037D07ED82AEC0EF05D
:10150800520E0F6E0D0E106EF5EC04F06FEC0EF02F
:101518005ED86FEC0EF078D831D06ED82AEC0EF089
:1015280057EC07F02AEC0EF04DEC07F06FEC0EF0DC
:10153800050E706E23D0532A1F0E536402D0010E7D
:10154800536E45D86FEC0EF04DD895EC11F016D0CF
:101558005306535002E11F0E536E39D86FEC0EF04C
:1015680041D895EC11F00AD07050010AC6E0030A80
:10157800E2E0010AEDE0070AD0E0010A6FA021D0FD
:10158800D70E176E000E64EC0FF012EC05F064EC49
:101598000FF037D864EC0FF00A0E136E0F6E53502D
:1015A8001FEC12F0F7EC12F082EC0BF064EC0FF089
:1015B8000A0E136E5350F7EC12F085EC0BF064EC46
:1015C8000FF0AD0E116E77EC11F06F801200580E0F
:1015D8000F6E280E106E070E126ED00E116E146A62
:1015E800136AD00C050E706E53C01CF054C01DF069
:1015F80055C01EF052501200000E0F6E150E106EE0
:1016080012003A0E176E0C0C050E706E6F80050CEA
:101618003DD06FD82AEC0EF0340E0F6E080E106E07
:10162800F5EC04F06FEC0EF0EBEC0AF06FEC0EF05A
:10163800050E706E6F9034D05CD82AEC0EF057EC23
:1016480007F02AEC0EF04DEC07F06FEC0EF0050EEB
:10165800706E26D0552A630E556401D0556AEBEC9E
:101668000AF06FEC0EF0F6EC0AF095EC11F018D0D9
:101678005506552802E1630E556EEBEC0AF06FEC47
:101688000EF0F6EC0AF095EC11F00AD07050010A51
:10169800C0E0030ADFE0010AEBE0070ACDE0010A37
:1016A8006FA021D0D00E176E000E64EC0FF0EA0E7A
:1016B800176E060E64EC0FF005EC0BF064EC0FF0FF
:1016C8000A0E136E0F6E55501FEC12F0F7EC12F065
:1016D80015D864EC0FF00A0E136E5550F7EC12F0A3
:1016E80010D864EC0FF0AD0E116E77EC11F06F802E
:1016F8001200180E0F6E160E106E1200300F176EB5
:10170800120C300F176E180C695019E0696A000145
:10171800E26B12D0E25161D8DE50DE1007E1E251EF
:10172800080D63D8010EDE6EDD6A05D0E25155D88A
:10173800DE06000EDD5AE22B6A50E25DEBE30001A3
:10174800E36B47D0E351080D50D8DE04DE103FE1CB
:10175800E3516FEC0DF0DECFE0F0DDCFE1F0E351C7
:1017680081EC0DF0DE50DE100AE1E3516FEC0DF074
:10177800DECF0FF0DDCF10F02AEC0EF01BD0E351D6
:1017880077EC0DF0E35129D8DE50DE1013E1DC6967
:10179800DD69E35181EC0DF0DECFDEF0DDCFDFF067
:1017A800DC51DE27DD51DF23E35117D8DEC0DEFF31
:1017B800DFC0DDFF01D80BD005000001FA6EE05153
:1017C800FD6EE151FE6EF850FF6EFA5012000001F6
:1017D800E32B6A50E35DB6E31200080D020EF32412
:1017E800D96E010EF420DA6E1200060EF324D96EBB
:1017F800010EF420DA6E12006FB202D06F823BD075
:101808006F9239D065D82AEC0EF0CE0E0F6E0E0E00
:10181800D3EC0CF06FEC0EF0EBEC0AF06FEC0EF082
:10182800050E706E32D054D82AEC0EF057EC07F043
:101838002AEC0EF04DEC07F06FEC0EF0F1D7502AC1
:101848003B0E506401D0506AEBEC0AF06FEC0EF0DE
:10185800F9EC07F051EC12F0E3D75006502802E1FA
:101868003B0E506EEBEC0AF06FEC0EF0F9EC07F063
:1018780051EC12F0D5D77050010AC4E0030ADFE03A
:10188800010AEBE0070ACFE0010A6FA213D008ECC7
:1018980008F01FEC12F0F7EC12F014EC08F064EC0E
:1018A8000FF010EC08F0F7EC12F00DEC08F064EC17
:1018B8000FF008D0176A0D0E64EC0FF0176A130EBC
:1018C80064EC0FF0AD0E116E77EC11F06F80120022
:1018D800000E0F6E180E106E120051D0BEEC08F0FC
:1018E800050ECD650BD0070ECD6108D06B0E3E6E90
:1018F8006D0E3F6E6E0E406E59EC09F00E0E000133
:10190800CD6503D00F0ECD6506D02D0ECD6543D025
:101918002F0ECD6140D0030E17D048D82AEC0EF018
:10192800000E0F6E180E3BD86FEC0EF0EBEC0AF0C1
:101938006FEC0EF020EECDF010EE4FF0060EDBCF80
:10194800E3FFE806FCE2050E706E25D0010EEAEC16
:1019580011F0F9D72FEC10F029D82AEC0EF02A0E46
:101968000F6E0A0E106EF5EC04F06FEC0EF0EBD76C
:10197800050E706E57EC07F02AEC0EF00CD0705084
:10198800010ACBE0030AE2E0010AE4E0070AF0E01A
:10199800010AA4E0030AAD0E116E77EF11F0106E84
:1019A800126A116A146A320E136E320CE20E0F6E4E
:1019B800180E106E1200246A22AE0AD0221E211EB2
:1019C800201E1F6C000E202221222222010E246ECE
:1019D8001EAE0AD01E1E1D1E1C1E1B6C000E1C22D5
:1019E8001D221E22010E241A256A266A276A286AE1
:1019F8001F5020102110221029E0010E236E06D05E
:101A0800D8901F36203621362236232A22AEF8D720
:101A1800D89025362636273628361F501B5C20508E
:101A28001C5821501D5822501E5809E31F501B5E98
:101A380020501C5A21501D5A22501E5A2580D890D9
:101A48002232213220321F32232EE2D7245008E0DE
:101A5800281E271E261E256C000E26222722282235
:101A680025C01BF026C01CF027C01DF028C01EF0A2
:101A780012000150021001E11200096A15D0095044
:101A88002AD80150DE180FE10250DE180CE1F29E50
:101A98000950F1EC0BF03ED809502FD836D8095030
:101AA80022D8F28E000C092A6A50095CE8E30F0E6E
:101AB8006A600F0CF29E6A500ED801C0DEFF02C0A9
:101AC800DDFF6A50F1EC0BF025D86A5016D81DD806
:101AD8006A5009D824D0080D000EF324D96E010EDF
:101AE800F420DA6E1200080D060EF324D96E010EEA
:101AF800F420DA6EDE6ADD6A1200080D040EF324A3
:101B0800D96E010EF420DA6E120005C0DEFF06C0A1
:101B1800DDFF120003C0DEFF04C0DDFF12006A2AE9
:101B2800F28E000C1D6E1F6A206A1D50AD0F202416
:101B3800D96EDA6A1F500708186E1750030DC90EC0
:101B4800196EBE0E1A6EF3501926F4501A22205040
:101B58001926000E1A2219C0F6FF1AC0F7FF08004E
:101B6800F5CF1BF0182A02D0D8901B32182EFCD7BC
:101B78001D50AD0F2024E16EE26AE7501C6ED8902C
:101B88001C341B10DF6E202A020E2064CED71E6A7A
:101B98000D0E186EFC0EE82EFED7182EFCD71E2A46
:101BA800130E1E64F5D7AD0E116E77EC11F01F2AD7
:101BB800070E1F64B9D7070C216E236A246A2150C7
:101BC800AD0F2424D96EDA6A235007081C6E1B5007
:101BD800050DC90E1D6EB90E1E6EF3501D26F4506C
:101BE8001E2224501D26000E1E221DC0F6FF1EC0F8
:101BF800F7FF0800F5CF1FF01C2A02D0D8901F323B
:101C08001C2EFCD72150AD0F2424E16EE26AE75068
:101C1800206ED89020341F10DF6E242A040E24640E
:101C2800CED7226A0D0E1C6EFC0EE82EFED71C2E97
:101C3800FCD7222A130E2264F5D7AD0E116E77EC6D
:101C480011F0232A070E2364B9D7070C176A3FD06F
:101C580017506FEC0DF00F50DE1838E11050DE18F9
:101C680035E1F29E1750116E126A136814686A50B3
:101C7800156E166A13501526145016221150151891
:101C880003E1125016181FE06A50116E126AD890BC
:101C980011361236D89011361236D89011361236BF
:101CA800F80E1124D96E000E1220DA6E1750080DA6
:101CB800000EF324E16E010EF420E26E070EDBCF76
:101CC800E3FFE806FCE26A06F28E1200172A6A5061
:101CD800175CBEE312000F50101001E11200176AE2
:101CE80018D017506FEC0DF00F50DE1811E110509E
:101CF800DE180EE1F29E1750F1EC0BF02AD81750BF
:101D080081EC0DF021D8175077EC0DF0F28E000C15
:101D1800172A6A50175CE5E30F0E6A600F0CF29EF3
:101D28006A506FEC0DF00FC0DEFF10C0DDFF6A5087
:101D3800F1EC0BF00ED86A5081EC0DF005D86A5022
:101D480077EC0DF093EF0DF013C0DEFF14C0DDFF4C
:101D5800120011C0DEFF12C0DDFF12001750D96E4D
:101D6800DA6A060E7EEC12F0DF6E1750D96EDA6A68
:101D7800175022D8C3EC13F02DD8050E7EEC12F0C4
:101D88001F0B28D8165018D8C3EC13F019D8040E16
:101D98007EEC12F03F0B14D815500ED8C3EC13F09C
:101DA80014D8030E7EEC12F0070B0FD8145004D889
:101DB800C3EC13F0DF6E1200E16EE26AE750120026
:101DC800DF6E1550D96EDA6A1200DF6E1450D96EC4
:101DD800DA6A1200DF6E1650D96EDA6A1200176AD4
:101DE800186A196A1A6A135014101510161029E087
:101DF800010E1B6E06D0D8901336143615361636DB
:101E08001B2A16AEF8D7D8901736183619361A3650
:101E180013500F5C14501058155011581650125882
:101E280009E313500F5E1450105A1550115A1650EA
:101E3800125A1780D89016321532143213321B2ECC
:101E4800E2D717C00FF018C010F019C011F01AC06F
:101E580012F012000600D9CF0BF0DACF0CF0F3CF56
:101E68000DF0F4CF0EF0F2BAF2A403D00AEC14F09D
:101E780013D0F2B8F2A210D0F292010EF1AC000E1B
:101E8800FF0A0A6E0A3A0A460A46F1500A18BF0BB8
:101E98000A18F16ECEEC13F09DB09EA007D09E906C
:101EA8003C0ECF6EB00ECE6EEAEC13F00EC0F4FF0F
:101EB8000DC0F3FF0CC0DAFF0BC0D9FF71921100FF
:101EC8001B6E010E1A6E1D6A1C6A1750050DC90E8D
:101ED800186EB90E196EF3501826F45019221D50B9
:101EE8001826000E192218C0F6FF19C0F7FF0800BF
:101EF800F5501A1407E01CC00FF01B501D2440ECCD
:101F080013F006D01CC00FF01B501D24D0EC12F0AB
:101F1800D8901A361C2A070E1C64D7D7010E1A6EE1
:101F28001D2A040E1D64D0D7040C186E010E176EFE
:101F38001A6A196A1450070D9D0E156EB90E166EA1
:101F4800F3501526F45016221A501526000E1622A4
:101F580015C0F6FF16C0F7FF0800F550171407E084
:101F680019C00FF018501A2440EC13F006D019C00D
:101F78000FF018501A24D0EC12F0D8901736192AFE
:101F8800070E1964D7D7010E176E1A2A060E1A649F
:101F9800D0D7060C205021102210231023E0010E68
:101FA800246E06D0D8902036213622362336242AAD
:101FB80023AEF8D720501C5C21501D5822501E58C3
:101FC80023501F5808E320501C5E21501D5A2250F0
:101FD8001E5A23501F5AD8902332223221322032DF
:101FE800242EE8D71CC01CF01DC01DF01EC01EF01A
:101FF8001FC01FF012001650D96EDA6A000E7EEC70
:1020080012F0DF6E1650D96EDA6A1650E0EC0EF058
:10201800C3EC13F016D8010E7EEC12F012D815504E
:10202800E0EC0EF0C3EC13F011D8020E7EEC12F0C7
:102038003F0B0CD81450E0EC0EF0C3EC13F0DF6E3D
:102048001200DF6E1550D96EDA6A1200DF6E145076
:10205800D96EDA6A1200640E186E176A196A195076
:10206800AE0FD96EDA6A1950AD0FE16EE26ADFCFB2
:10207800E7FF192A1F0E1964F2D70001CC6BAD0EC9
:10208800116E77EC11F0166A08D00D0E156EFC0E65
:10209800E82EFED7152EFCD7162A1850165CF5E345
:1020A8000A0E186401D0185E172A1F0E1764D6D7B7
:1020B8001F0C820E0001E46FDD0EE82EFED7E42F20
:1020C800FCD700D094EC12F0E1EC13F0F29EE20E93
:1020D8000F6E180E106E126A640E116E146A140ECA
:1020E800136E6FEC0EF0300E0F6E220E106E126A29
:1020F800116A146A010E136E6FEC0EF0F28E88EC02
:102108000BF0FDD7176A186A196A1A6A0FA008D067
:1021180013501726145018221550192216501A2237
:10212800D8901336143615361636D8901232113226
:1021380010320F320F50101011101210E7E117C0B3
:102148000FF018C010F019C011F01AC012F01200E8
:10215800146A156A115012101BE0010E136E04D098
:10216800D89011361236132A12AEFAD7D8901436F0
:10217800153611500F5C1250105805E311500F5EC0
:102188001250105A1480D89012321132132EEED7F2
:1021980014C00FF015C010F01200166E21EC14F0E8
:1021A800EE0E17EC14F0165017EC14F025EC14F0A2
:1021B800EF0E17EC14F0010E52EC13F0176E186ABC
:1021C800000E52EC13F0196E1A6A1DEC14F0175039
:1021D800156E146A19501410126E1A501510136ED9
:1021E80012005E0EF66E280EF76E000EF86E0900ED
:1021F800F5CF70F001EE00F0DC0EEE6AE806FDE1C6
:1022080000EE80F0540EEE6AE806FDE16F6A00EE1B
:102218004FF0200EEE6AE806FDE171907192000E13
:10222800F86E00015DEF10F081B802D0010E0BD0FE
:1022380081B202D0020E07D081B402D0030E03D0BF
:1022480081B603D0040E0F6E01D00F6A0F500CE058
:102258001F0E68601F0C682A1E0E6818D8A412008A
:102268000FC070F0686A1200686A120018501910DE
:1022780017E0010E1A6E04D0D890183619361A2AAB
:1022880019AEFAD71850165C1950175804E31850AD
:10229800165E1950175AD890193218321A2EF2D7DA
:1022A80016C016F017C017F0120082909490070E0F
:1022B8000F6E7D0EE82EFED70F2EFCD700F0828021
:1022C8009480C80E00D0E82EFDD7000E82B0010E13
:1022D800106E060E0F6E800EE82EFED70F2EFCD75E
:1022E80000D010501200146A8C90136A1350F80D25
:1022F8001150F3241424D96EDA6A180ED926DF5047
:10230800126E14282EEC13F012502EEC13F0132A30
:10231800030E1364EBD78C80142A070E1464E4D7D9
:10232800070C1F6E1F50E4EC12F01A6E030E81ECBE
:1023380013F01C50E4EC12F01A6E040E81EC13F04A
:102348001D50E4EC12F01A6E050E81EC13F01E50CD
:10235800E4EC12F01A6E060E81EF13F0126E146A96
:1023680014C010F012C011F0102A02D0D890113207
:10237800102EFCD71150136E010E131613500AECD1
:1023880013F0142A070E1464EBD7D20E00D0E82EEF
:10239800FDD71200116A126A8FEC13F000090CE0E5
:1023A80012C00FF0010E106E0F2A02D0D89010360E
:1023B8000F2EFCD710501112F00E00D0E82EFDD7CA
:1023C800122A070E1264E8D7115012004E6E4E50B2
:1023D8000CE005EC12F01BC03EF01CC03FF01DC025
:1023E80040F01EC041F017EC08F0EDEC09F014C005
:1023F8003EF015C03FF016C040F017C041F009EF9D
:1024080000F02E0E116EF40E9DEC13F0410E1F6EAF
:10241800EE0EE82EFED71F2EFCD700D0F60ED1EC1C
:1024280010F012C01BF013C01CF0000E1CBEFF0EF3
:102438001D6E1E6E1200106E126A0F5014E0010E0F
:10244800116E03D0D8900F36112A0FAEFBD7D89053
:1024580012360F50105C03E30F50105E1280D890B4
:102468000F32112EF4D7125012008C80010E116E0B
:102478000C0E64EC13F0116A090E64EC13F0070EED
:10248800116E0B0E64EC13F0010E116E0A0E64EC63
:1024980013F0116A0F0E64EF13F01E6E1D50E4EC7A
:1024A80012F01A6E000E81EC13F01C50E4EC12F0DE
:1024B8001A6E010E81EC13F01E50E4EC12F03F0B83
:1024C8001A6E020E81EF13F0126E21EC14F0EE0E6C
:1024D80017EC14F0125017EC14F025EC14F0EF0E72
:1024E80017EC14F0000E52EC13F0136E1DEC14F000
:1024F80013501200126E21EC14F0D00E17EC14F0E9
:10250800125017EC14F025EC14F0D10E17EC14F05F
:10251800000E52EC13F0136E1DEC14F01350120061
:1025280073EC13F0B8EC13F039EC12F003EC14F080
:1025380029EC14F0D8EC13F0A8EC12F0F3EC13F03B
:10254800ABEC13F0E3EF05F059EC11F00009D8A457
:102558001200CC0EB2EC11F04E0EB2EC11F0000EDF
:10256800B2EC11F0000EB2EC11F07F0EB2EF11F0E8
:102578000CD8FFEC0FF0D00E146ED10E156ED20EE3
:10258800166ED30E176EB2EF0EF0CF0E146ECE0E7F
:10259800156ECD0E166E1200136E0FC010F0010EE0
:1025A800116E102A02D0D8901136102EFCD7111CAB
:1025B800126E1350AD0FD96EDA6A1250DF16120080
:1025C800196E0A0E136E1950F7EC12F0176E0F0EF3
:1025D80017160A0E0F6E19501FEC12F0186E1838E5
:1025E800F00B17101200146E080E156E166AD890AC
:1025F80014341634166ED89014361350165C02E351
:102608001350165E152EF3D7165012000F6E8290D7
:1026180094900F0406E1060EE82EFED700D08280C3
:102628009480D20E00D0E82EFDD7828094801200CC
:102638003A6A3B6A220E3C6E280E3D6E350E396EA4
:102648003A0E256E33C026F034C027F0390E286EB6
:10265800EDEF02F00F6E106A0FAE02D08C8401D03D
:102668008C948C8200F000F08C92D8900F36102A4F
:10267800070E1064F1D7070C126E0FC010F0010E90
:10268800116E102A02D0D8901136102EFCD7125095
:10269800AD0FD96EDA6A1150DF121200106EFBEC22
:1026A80013F0C586FBEC13F0C9CF11F0FBEC13F067
:1026B800105002E1C58A01D0C59AC5881150120090
:1026C800126E8C90136A12502EEC13F011502EECEF
:1026D80013F0132A030E1364F6D78C80030C8B6A4D
:1026E800180E946E8A6A1F0E936EF19E8C6A956A14
:1026F800F18CF292F288828012001B6E21EC14F0A9
:10270800D00E17EC14F01B5017EC14F01A5017ECFD
:1027180014F01DEF14F082909490030EE82EFED76B
:1027280000F082809480140EE82EFED782B0010C4F
:10273800000C126E21EC14F0EE0E17EC14F012508F
:1027480017EC14F0115017EC14F01DEF14F0948CE2
:10275800948EAC84AC98AC8AAB88AB8EB886040EE9
:10276800B06E100EAF6E100C180E9412280EC66EB6
:10277800C76A630EC86EC584C5A41200FDD7106E63
:1027880010C00FF00F0E0F1610380F0B0A0DF35074
:102798000F241200780E016E250E026E046A036A79
:1027A800066A056A3DEF0DF01A6A0E0E81EC13F009
:1027B800080E1A6E0F0E81EF13F00F6A0F5045ECDA
:1027C80009F00F2A200E0F64F9D7200C6E2A950EF7
:1027D8006E64950C6E6A010E6D6ECD90010CC70E7D
:1027E800D56EF28AD76A3D0ED66E6A6A1200C7B4F1
:1027F800FED7C5CF0FF01F0E0F16F9E11F0CCD90B5
:102808003C0ECF6EB00ECE6E9D80B00CF294D76A9F
:102818003D0ED66E010E696E010C0F6E9EA8FED796
:102828000FC0ADFF1200106EFBEC13F010C0C9FF13
:102838001200FBEC13F0C5841200FBEC13F0C5800A
:102848001200FBEC13F0C5821200F28EF28C12001B
:07285800040E706E040C0574
:10B9740000010000000A00000064000000E8030069
:10B984000010270000A086010040420F0080969816
:10B994000000E1F50500CA9A3B0000000000000029
:10B9A400087C4E4F4E7C080426473F070604203E81
:10B9B4007F7F3F3E200001010202030404050606C6
:10B9C400070708090900000000004551453E006BC7
:10B9D4006F6B3E003E7C3E1C003C7E3C1800367F74
:10B9E40036300000000000000000000000000000ED
:10B9F4000000000000000000000000000000000043
:10BA04000000000000000000000000000000000032
:10BA14000000000000000000000000000000000022
:10BA24000000000000000000000000000000000012
:10BA3400000000000000000000000000007C4E4EEA
:10BA44007C0820347E3420000036360000000000DC
:10BA540000000000000000000000000000000000E2
:10BA64000000000000000000000000005F00000073
:10BA740007000700147F147F14242A7F2A1223133B
:10BA840008646236495620500008070300001C224F
:10BA940041000041221C002A1C7F1C2A08083E0881
:10BAA4000800807030000808080808606000000082
:10BAB40020100804027F7F417F7F00017F7F0063A5
:10BAC40073594F476363497F771F1F107F7F6F6FE1
:10BAD4004979797F7F497B7B0373790F07777F49A6
:10BAE4007F776F6F497F7F00003636000040340057
:10BAF40000000814224114141414140041221408E0
:10BB040002015909063E415D594E7C1211127C7F97
:10BB1400494949363E414141227F4141413E7F49A5
:10BB24004949417F090909013E414151727F080891
:10BB3400087F00417F41002040413F017F081422DB
:10BB4400417F404040407F0204027F7F0408107F11
:10BB54003E4141413E7F090909063E4151215E7F34
:10BB640009192946264949493201017F01013F400B
:10BB740040403F1F2040201F3F4038403F6314088F
:10BB8400146303047804036151494543007F414130
:10BB94000002040810200041417F00040201020455
:10BBA4004040404040000307080020545478407F40
:10BBB400284444383844444428384444287F38547A
:10BBC400545418087E09020018A4A49C787F080421
:10BBD400047800447D40002040403D007F1028440C
:10BBE4000000417F40007C047804787C08040478D9
:10BBF4003844444438FC1824241818242418FC7CA1
:10BC040004040800485454542400043F44203C4095
:10BC140040207C1C2040201C3C4030403C442810E8
:10BC240028444C9090907C4464544C440008364121
:10BC340000000077000000413608000201020402FF
:10BC440000000000000000000000000000000000F0
:10BC540000000000000000000000000000004000A0
:10BC6400400040000000000000000000003E555568
:10BC7400412200000000000000000000000000005D
:10BC840000000000000000000000000000000000B0
:10BC940000000000000000000000000000000000A0
:10BCA4000000000000000000000000000000000C84
:10BCB4001E1E0C0000000000000000000000000038
:10BCC4000000000000000000000000000000000070
:10BCD4000000000000000000000000000000000060
:10BCE4000000000000000000000000000000000050
:10BCF40000000000000000000000000000007E02C0
:10BD0400020203000000000000000000007E4B4A15
:10BD14004B4200000000003E494949220000000057
:10BD2400000000000000000000000000000000000F
:10BD340000417E4100000609090644445F44440072
:10BD4400417F410000447D4000007C040406000063
:10BD540000000000000000000000000000385554FE
:10BD640055180000000000385454544422142A1476
:10BD7400082040403D0000000000000000000000DA
:10BD840000457C41007E1111117E7F494949317F74
:10BD9400494949367F01010101C07E417EC07F4986
:10BDA40049494177087F087722414949367F10087D
:10BDB400047F7E1109057E7F08142241407E010123
:10BDC4007F7F020C027F7F0808087F3E4141413E8D
:10BDD4007F0101017F7F090909063E41414122019A
:10BDE400017F0101274848483F0E117F110E63145B
:10BDF4000814637F40407FC0070808087F7F407EA7
:10BE0400407F7F407E40FF017F4444387F443800B8
:10BE14007F7F44444438224149493E7F083E413EA5
:10BE2400462919097F20545454783C4A4A4A317CA3
:10BE340054545428007C040404C078447CC038540E
:10BE44005454186C107C106C28445454287C2010D2
:10BE5400087C7C2111097C7C10102844403804049F
:10BE64007C7C0810087C7C1010107C3844444438D6
:10BE74007C0404047C7C14141408384444442804CA
:10BE8400047C04044C5050503C18247C2418006C4E
:10BE940010106C7C40407CC00C1010107C7C4078EE
:10BEA400407C7C407840FC047C5050207C50200036
:10BEB4007C007C50502044545454387C103844380E
:10BEC400485434147C0000007C447C007C0074548E
:10BED4005C54547C1C107C5C54747C547404047C4A
:10BEE4007C547C5C547C03436C6F636B2076312EF2
:10BEF40030206279204976616E5F66640054656D16
:10BF040070657261747572653A2025640A0D2000AB
:10BF140054656D706572424D503A2025640A0D00D7
:10BF24004143313A2025640A0D004143323A202529
:10BF3400640A0D004143333A2025640A0D00583148
:10BF44003A20256C690A0D0058323A20256C690A9A
:10BF54000D0042333A20256C690A0D0042343A2020
:10BF6400256C690A0D0042373A20256C690A0D00D8
:10BF740050703A20256C690A0D004143343A20255B
:10BF8400750A0D004143353A2025750A0D004143D9
:10BF9400363A2025750A0D0042313A2025640A0DEF
:10BFA4000058313A2025640A0D0042323A202564B3
:10BFB4000A0D0058323A2025640A0D0058333A20FD
:10BFC40025640A0D0042353A2025640A0D004236E4
:10BFD4003A2025640A0D004D423A2025640A0D00DA
:10BFE4004D433A2025640A0D004D443A2025640A45
:0CBFF4000D0050703A2025640A0D00007A
:020000040020DA
:08000000FFFFFFFFFFFFFFFF00
:020000040030CA
:0E000000FF061E1EFF8181FF0FC00FE00F40A4
:00000001FF
