:0400000007EF00F016
:1000080067829FED0EF0CFEF10F067EC13F033C06E
:10001800E5F034C0E6F035C0E7F036C0E8F07BEC38
:1000280013F033C0D9F034C0DAF035C0DBF036C095
:10003800DCF00B0E81DBD8903E34426E3F34436EC9
:100048004034446E4134456E030E466EE5C047F0B9
:10005800E6C048F0E7C049F0E8C04AF0466601D07B
:1000680007D04A344A32493248324732462EF6D708
:100078004250475C0F6E43504858106E44504958E0
:10008800116E45504A58126E9BC013F09CC014F074
:100098004DDB6BEC11F03D6601D003D00BDB3D2E40
:1000A800FAD717DB0C0E48DB040E426EE5C043F0AE
:1000B800E6C044F0E7C045F0E8C046F0426601D02B
:1000C80003D055DB422EFAD73E50435C0F6E3F50AB
:1000D8004458106E40504558116E41504658126EA3
:1000E80000019D51476E9E51486E496A4A6A040E46
:1000F8004B6EE5C04CF0E6C04DF0E7C04EF0E8C0EE
:100108004FF04B6601D007D04F344F324E324D324C
:100118004C324B2EF6D747504C5C136E48504D5816
:10012800146E49504E58156E4A504F58166E6BEC67
:1001380011F03D6601D003D0BDDA3D2EFAD7C0DA02
:100148000E0E3D6E0BDB99C013F09AC014F0EEDA78
:100158006BEC11F03D6601D003D0ACDA3D2EFAD736
:10016800C1DA0001ED51F525E16FEE51F621E26F9C
:10017800EF51F721E36FF051F821E46FE1C00FF080
:10018800E2C010F0E3C011F0E4C012F0050EFADA94
:100198006BEC11F0800E0F243D6E000E10203E6EA9
:1001A800000E11203F6E000E1220406E3EC03DF042
:1001B8003FC03EF040C03FF0406A3FBE40683DC08F
:1001C800DDF03EC0DEF03FC0DFF040C0E0F03C5064
:1001D800D96EDA6ADDC0DEFFDEC0DEFFDFC0DEFF1B
:1001E800E0C0DEFFE1C03DF0E2C03EF0E3C03FF01A
:1001F800E4C040F04034CBDA000E3D240001F56F36
:10020800060E3E20F66FFF0E3F20F76FFF0E4020D0
:10021800F86F0B0E15DA6BEC11F03D6601D003D0C8
:1002280049DA3D2EFAD74CDA99DA8FC013F090C02C
:1002380014F07CDA6BEC11F055DA91C00FF092C033
:1002480010F059DA6BEC11F0D8900F343D6E103481
:100258003E6E11343F6E1234406E3D500001ED2762
:100268003E50EE233F50EF234050F02393513D6E14
:1002780094513E6E3F6A406A3EC040F03DC03FF038
:100288003E6A3D6A020E416EEDC042F0EEC043F098
:10029800EFC044F0F0C045F0416601D007D04534C6
:1002A8004532443243324232412EF6D73D50422441
:1002B8000001ED6F3E504320EE6F3F504420EF6F3A
:1002C80040504520F06F0D0EBBD96BEC11F03D6628
:1002D80001D003D0EFD93D2EFAD7F2D9120E3D6ED8
:1002E800030E3E6E95C00FF096C010F0000E11DAA6
:1002F8006BEC11F00FC03FF010C040F011C041F09E
:1003080012C042F03E6601D007D042344232413238
:1003180040323F323E2EF6D797C00FF098C010F00B
:10032800EAD96BEC11F0C6D90F503F24436E105038
:100338004020446E11504120456E12504220466EB6
:100348003D6601D003D013DA3D2EFAD743C0F5F04D
:1003580044C0F6F045C0F7F046C0F8F00F0E3D6E09
:10036800000E0001F5250F6E800EF621106E000EAE
:10037800F721116E000EF821126ED3C013F0D4C00D
:1003880014F0156A166A6BEC11F03D6601D003D0C3
:1003980091D93D2EFAD79DD90001F551F611F711E3
:1003A800F81101E112000C0E3D6EEDC03EF0EEC0FA
:1003B8003FF0EFC040F0F0C041F03D6601D004D0FE
:1003C8004134DBD93D2EF9D7D9C042F0DAC043F029
:1003D800DBC044F0DCC045F0421E431E441E451EEF
:1003E800422A000E4322442245223E50425C466E79
:1003F8003F504358476E40504458486E4150455806
:10040800496E000E46240F6E000E4720106E100E27
:100418004820116E000E4920126E350E136E0C0E18
:10042800146E156A166A6BEC11F00FC0F1F010C06B
:10043800F2F011C0F3F012C0F4F0800E0001F45D88
:1004480015E2D890F1351B6EF2351C6EF3351D6E32
:10045800F4351E6E7AD999EC0FF01BC0F1F01CC070
:10046800F2F01DC0F3F01EC0F4F015D0F1C01BF07F
:10047800F2C01CF0F3C01DF0F4C01EF066D999EC70
:100488000FF0D8901B340001F16F1C34F26F1D344B
:10049800F36F1E34F46FF1C03DF0F2C03EF0F3C0CC
:1004A8003FF0F4C040F0040E02D0D89070D9E82E86
:1004B800FCD73DC00FF03EC010F03FC011F040C067
:1004C80012F0F1C041F0F2C042F0F3C043F0F4C0C2
:1004D80044F0040E05D0D8904432433242324132BF
:1004E800E82EF9D741C013F042C014F043C015F00C
:1004F80044C016F06BEC11F00E0E05D0D8901232F5
:10050800113210320F32E82EF9D7DAD80C0E3D6EC0
:1005180089C00FF08AC010F0000EFBD86BEC11F008
:100528003D6601D003D0C6D83D2EFAD7D2D80D0EDD
:100538003D6EF1C03EF0F2C03FF0F3C040F0F4C0B1
:1005480041F0030E02D0D89018D9E82EFCD73EC04F
:100558000FF03FC010F040C011F041C012F08BC046
:1005680013F08CC014F0E2D86BEC11F03D6601D0AA
:1005780003D0A0D83D2EFAD7B5D8040E3D6E8DC055
:100588003EF08EC03FF0000E3FBEFF0E406E416E43
:100598000001F5513E24426EF6513F20436EF7515B
:1005A8004020446EF8514120456EED514224466E7C
:1005B800EE514320476EEF514420486EF0514520DC
:1005C800496E3D6601D007D0493449324832473236
:1005D80046323D2EF6D70001F1514624F16FF25113
:1005E8004720F26FF3514820F36FF4514920F46F1C
:1005F800F1C00FF0F2C010F0F3C011F0F4C012F027
:10060800640EC0D86BEC11F00FC01BF010C01CF0CA
:1006180011C01DF012C01EF0140E1F6E340E206E95
:10062800216A226A99EC0FF03B50D96EDA6A1BC036
:10063800DEFF1CC0DEFF1DC0DEFF1EC0DEFF120095
:100648003D6E020E3E6EF5C03FF0F6C040F0F7C0BA
:1006580041F0F8C042F03E6601D007D04234423241
:10066800413240323F323E2EF6D73FC00FF040C0F5
:1006780010F041C011F042C012F0020E436EF5C0F6
:1006880044F0F6C045F0F7C046F0F8C047F04366BE
:1006980001D007D047344732463245324432432EE0
:1006A800F6D744C013F045C014F046C015F047C053
:1006B80016F0120012341232113210320F321200B8
:1006C8000FC0E9F010C0EAF011C0EBF012C0ECF076
:1006D80012000FC0F5F010C0F6F011C0F7F012C00C
:1006E800F8F012000FC0EDF010C0EEF011C0EFF0FE
:1006F80012C0F0F01200000E10BEFF0E116E126E46
:10070800F5C013F0F6C014F0F7C015F0F8C016F0F5
:10071800120010BEFF0E116E126EE9C013F0EAC08F
:1007280014F0EBC015F0ECC016F01200000E14BE69
:10073800FF0E156E166E12003D6E00019D513E6E45
:100748009E513F6E406A416A1200F5C01FF0F6C024
:1007580020F0F7C021F0F8C022F01200E9C00FF035
:10076800EAC010F0EBC011F0ECC012F012004634F1
:1007780046324532443243321200413240323F322F
:100788003E321200136E146A156A166A120040325D
:100798003F323E323D3212003DD002D917EC0EF006
:1007A800D40E0F6E120E106E6AEC0AF05CEC0EF0AE
:1007B8008BEC07F05CEC0EF0EFEC09F035D0F0D8DC
:1007C80017EC0EF0E7EC0AF017EC0EF0DDEC0AF08F
:1007D8005CEC0EF0050E656E27D05E2A0C0E5E648A
:1007E80002D0010E5E6E8BEC07F05CEC0EF0E0ECD4
:1007F80009F05BEC12F018D05E065E5002E10C0EB8
:100808005E6E8BEC07F05CEC0EF0E0EC09F05BEC54
:1008180012F00AD06550010AC0E0030ADEE0010ABE
:10082800EBE0070ACCE0010A66A0AED0CC0EB2D845
:10083800000ED4EC0FF0F10EADD8060ED4EC0FF08C
:100848003A0EA8D80C0ED4EC0FF084D0D10EA2D852
:10085800120ED4EC0FF0F70E9DD8180ED4EC0FF052
:1008680093D0CB0E97D8120ED4EC0FF0F20E92D88C
:10087800180ED4EC0FF088D0C10E8CD8120ED4EC20
:100888000FF0F00E87D8180ED4EC0FF07DD0CA0EFA
:1008980081D8120ED4EC0FF0E20E7CD8180ED4ECEE
:1008A8000FF072D0D20E76D8120ED4EC0FF0F00EF4
:1008B80071D8180ED4EC0FF067D0D70E6BD8120E83
:1008C800D4EC0FF0F00E66D8180ED4EC0FF05CD014
:1008D800CB0E60D8120ED4EC0FF0EF0E5BD8180ECA
:1008E800D4EC0FF051D0D10E55D8120ED4EC0FF035
:1008F800EF0E50D8180ED4EC0FF046D0C20E4AD8DE
:10090800120ED4EC0FF0F00E45D8180ED4EC0FF000
:100918003BD0C60E3FD8120ED4EC0FF0F20E3AD8E8
:10092800180ED4EC0FF030D0CB0E34D8120ED4EC15
:100938000FF0F10E2FD8180ED4EC0FF025D0C30EFF
:1009480029D8120ED4EC0FF0F00E24D8180ED4ECDF
:100958000FF01AD05E50010A01E178D7030A81E04E
:10096800010A8AE0070A93E0010A9CE0030AA5E06D
:10097800010AAEE00F0AB7E0010AC0E0030AC9E0C5
:10098800010AD2E0070ADBE0A40E116E3DEC12F07A
:1009980066801200176EB60E186EB90E196E120028
:1009A800A00E0F6E070E106E1200C7D0E9EC14F0FF
:1009B800EDD833E0F1D809EC10F0640EDAD899ECF0
:1009C8000FF0C3D83EEC10F0285075EC06F00B0E73
:1009D800CDEC0DF00A0ECDD899EC0FF0B6D83EEC60
:1009E80010F0285075EC06F0110ECDEC0DF0CFC0CC
:1009F80028F0D0C029F0D1C02AF0D2C02BF00A0EBE
:100A08002C6E2D6A2E6A2F6A3EEC10F0285075EC79
:100A180006F0170ECDEC0DF012D0BED809EC10F090
:100A2800450EA1D80B0ECDEC0DF0520E9CD8110E30
:100A3800CDEC0DF0520E97D8170ECDEC0DF0A8ECBA
:100A480006F0010E126E900E80EC06F05CEF0EF0D0
:100A5800050E656E9BD80DE0780E0F6E010E106EB8
:100A6800F50E116EBF0E126ECAEC12F012EC13F0F6
:100A780002D06FEC10F07BEC06F0C651B0EC12F02F
:100A8800B6EC13F000090DE07BEC06F0C651B0ECB3
:100A980012F0B6EC13F075EC06F0000ECDEC0DF08C
:100AA80005D0316A84EC06F0CDEC0DF0AFEC06F021
:100AB800B6EC13F075EC06F0060ECDEC0DF07BEC01
:100AC80006F0C551B0EC12F0B6EC13F075EC06F078
:100AD8000D0ECDEC0DF0B4EC06F0B6EC13F075ECA1
:100AE80006F0130ECDEC0DF089EC06F09FEC10F03B
:100AF8007BEC06F0C451B0EC12F0B6EC13F03D6E8E
:100B08003D28176E190E83EC0DF0B9EC06F0B6EC23
:100B180013F03D6E3D28176E1D0E83EC0DF0E7ECCB
:100B28000AF017EC0EF0B20E0F6E090E106E17ECED
:100B38000EF0DDEC0AF05CEF0EF06550040A88E078
:100B4800010A01E133D7030A12001BC028F01CC0B8
:100B580029F01DC02AF01EC02BF00A0E2C6E2D6A3B
:100B68002E6A2F6A0A0C316EB60E326EB90E336ECB
:100B780012001F6E206A216A226ACFC01BF0D0C003
:100B88001CF0D1C01DF0D2C01EF012000001CF51E0
:100B9800D011D111D2111200040E146E030C99D089
:100BA800E9EC14F0B9D8B7EC11F0C6D800EC12F0A3
:100BB8001650171012E1DED809EC10F0B5D800EC89
:100BC80012F016508ED80D0ECDEC0DF0B00EB7EC1D
:100BD80005F0130ECDEC0DF01CD0CCD809EC10F0BC
:100BE8009BD8B7EC11F0A8D800EC12F0165079D8C1
:100BF8000D0ECDEC0DF098D800EC12F0165071D80F
:100C0800130ECDEC0DF0B00EB7EC05F0190ECDECCF
:100C18000DF09AD8020E126EEE0E6ED85CEF0EF042
:100C2800050E656E6FEC10F062D8C651B0EC12F08C
:100C3800B6EC13F000090BE05AD8C651B0EC12F02C
:100C4800B6EC13F04ED8000ECDEC0DF004D0316A9E
:100C580057D8CDEC0DF07FD8B6EC13F042D8060E7D
:100C6800CDEC0DF044D8C551B0EC12F0B6EC13F051
:100C780038D80D0ECDEC0DF073D8B6EC13F031D892
:100C8800130ECDEC0DF041D89FEC10F030D8C451C4
:100C9800B0EC12F0B6EC13F03D6E3D28176E190E4D
:100CA80083EC0DF062D8B6EC13F03D6E3D28176E5C
:100CB8001D0E83EC0DF0E7EC0AF017EC0EF0A60E13
:100CC8000F6E0B0E106E17EC0EF0DDEC0AF05CEFF9
:100CD8000EF06550040AA4E0010A01E161D7030A95
:100CE8001200316E63C032F064C033F012000A0E95
:100CF800136E0F6E00010A0C116E146A136A12004B
:100D0800B60E326EB90E336E000CC60E146EC50EDA
:100D1800156EC40E166E1200126A0A0E116ED5C038
:100D28000FF0D6C010F00A0CD5C016F0D6C017F0D8
:100D3800196A0A0E186E0A0C0FC016F010C017F0C8
:100D4800196A0A0E186E0A0C060E656E540E0F6E9E
:100D58002A0E106E12000A0E136E0001C651120000
:100D68000A0E136E0001C55112000A0E136E00011F
:100D7800C4511200010E146E030C3AD0D3D817ECEC
:100D88000EF0EA0E0F6E140E106E6AEC0AF05CECB0
:100D98000EF0BDD85CEC0EF0EFEC09F033D0C2D801
:100DA80017EC0EF0E7EC0AF017EC0EF0DDEC0AF0A9
:100DB8005CEC0EF0050E656E25D05C2A070E5C64AF
:100DC80002D0010E5C6EA3D85CEC0EF0E0EC09F0EA
:100DD8005BEC12F017D05C065C5002E1070E5C6E0B
:100DE80096D85CEC0EF0E0EC09F05BEC12F00AD05F
:100DF8006550010AC3E0030AE0E0010AECE0070AD3
:100E0800CEE0010A66A07DD0C40ECEEC04F0000E40
:100E1800D4EC0FF0ED0ECEEC04F0060ED4EC0FF08F
:100E28003A0ECEEC04F00C0ED4EC0FF05BD0CF0EE3
:100E3800CEEC04F0120ED4EC0FF0ED0ECEEC04F074
:100E4800180ED4EC0FF05DD0C20ECEEC04F0120EEA
:100E5800D4EC0FF0F20ECEEC04F0180ED4EC0FF038
:100E680050D0D10ECEEC04F0120ED4EC0FF0F00EF0
:100E7800CEEC04F0180ED4EC0FF043D0D70ECEEC25
:100E880004F0120ED4EC0FF0F20ECEEC04F0180EB3
:100E9800D4EC0FF036D0CF0ECEEC04F0120ED4EC1A
:100EA8000FF0F20ECEEC04F0180ED4EC0FF029D0AF
:100EB800D10ECEEC04F0120ED4EC0FF0E10ECEEC15
:100EC80004F0180ED4EC0FF01CD0CD0ECEEC04F0CC
:100ED800120ED4EC0FF0E40ECEEC04F0180ED4ECA5
:100EE8000FF00FD05C50010AF0E0030AA0E0010AFD
:100EF800ABE0070AB6E0010AC1E0030ACCE0010A48
:100F0800D7E0A40E116E3DEC12F066801200540E6C
:100F18000F6E2A0E106E070E126ED00E116E146A26
:100F2800136AD00C820E0F6E0D0E106E120066B290
:100F380002D0668243D0669241D0A1D817EC0EF059
:100F4800EC0E0F6E150E106E6AEC0AF05CEC0EF0EB
:100F58008BEC07F05CEC0EF0050E656EE9EC14F016
:100F6800669036D08CD817EC0EF0E7EC0AF017EC48
:100F78000EF0DDEC0AF05CEC0EF0050E656E28D084
:100F88005B2A170E5B6401D05B6A8BEC07F05CECA4
:100F98000EF0050E656E6ED8FBEC12F019D05B06EC
:100FA8005B2802E1170E5B6E8BEC07F05CEC0EF031
:100FB800050E656E5FD8FBEC12F00AD06550010A89
:100FC800BCE0030ADDE0010AEAE0070ACBE0010A17
:100FD80066A03FD066A233D05CD8B0EC12F0B6EC75
:100FE80013F042D80D0ED4EC0FF058D8B6EC13F02D
:100FF8003BD8130ED4EC0FF047D8B0EC12F0B6EC97
:1010080013F000090AE040D8B0EC12F0B6EC13F087
:101018002BD8000ED4EC0FF008D0000E176A63C06E
:1010280018F064C019F0D4EC0FF00A0E136E5B5080
:10103800B6EC13F019D8060ED4EC0FF00AD0176AE4
:101048000ED8000ED4EC0FF0176A09D8060ED4ECAF
:101058000FF0A40E116E3DEC12F066801200B60E71
:10106800186EB90E196E1200176E63C018F064C0BE
:1010780019F012005AC01CF01D6A5B501200360E9F
:101088000F6E0F0E106E12000A0E136E0F6E5B506D
:1010980012000A0E136E0F6E5A5012000A0E136ECB
:1010A8005A5012007FD01FEC12F00009D8A4120089
:1010B800CC0E78EC12F0440E78EC12F01D50D96E7C
:1010C800DA6ADF6A1C50D96EDA6A020EDF6ECD80EA
:1010D800020C1FEC12F0CC0E78EC12F0BE0E78EC7D
:1010E80012F0226A2250800FD96EDA6A94EC12F05C
:1010F800DF6E222A010E2264F5D7000181511E6E8F
:101108008051236E1EC024F024AE04D0236C241E0C
:10111800D8B0242A23500F0B216EA60E2124F66E78
:10112800F76AB90EF7220800F5CF21F0233A243ADE
:101138000F0E23162450F00B23120F0E24162350E3
:101148000A0DF3CF23F0F4CF24F021502326000E0C
:10115800242223C016F024C017F0196A0A0E186E4C
:1011680000EC12F01650206E23C00FF024C010F0CF
:10117800126A0A0E116EB7EC11F00FC023F010C0FE
:1011880024F0050E206402D0234A242A1B50D96E6D
:10119800DA6A23C0DEFF24C0DDFF1C50D96EDA6A8C
:1011A800DF6A000C1C50D96EDA6ADF5001E17BD788
:1011B800010A8FE0030A1200196A7BEC06F0C65197
:1011C800B0EC12F0B6EC13F000090BE07BEC06F083
:1011D800C651B0EC12F0B6EC13F042D8A40F6BD89D
:1011E80002D019506ED8AFEC06F0B6EC13F038D830
:1011F800AA0F61D87BEC06F0C551B0EC12F0B6EC42
:1012080013F02ED8B10F57D8B4EC06F0B6EC13F0A3
:1012180027D8B70F50D8192A040E1964CED7196ADF
:101228007BEC06F0C451B0EC12F0B6EC13F03DD8EC
:101238002AD8BD0F40D8B9EC06F0B6EC13F035D873
:1012480022D8C10F38D8192A020E1964E9D700012B
:10125800A96B800EAF6FB06FB66BBC6BC06B120022
:10126800050D63C017F064C018F0F3501726F4504A
:10127800182219501726000E182217C0F6FF18C09A
:10128800F7FF19501200F3501726F450182219507E
:101298001726000E1822030E1726000E182217C054
:1012A800F6FF18C0F7FF19501200030DB00E176EA5
:1012B800BF0E186E1200D96EDA6A0800F5CFDFFF8C
:1012C8001200A40FD96EDA6ADF6A12003AD07ED80B
:1012D80017EC0EF0820E0F6E0D0E106E6AEC0AF00F
:1012E8005CEC0EF08BEC07F05CEC0EF074D833D0AD
:1012F8006DD817EC0EF0E7EC0AF017EC0EF0DDEC09
:101308000AF05CEC0EF0050E656E25D05D2A1F0E06
:101318005D6402D0010E5D6E8BEC07F05CEC0EF0A4
:101328004BD85BEC12F017D05D065D5002E11F0E42
:101338005D6E8BEC07F05CEC0EF03ED85BEC12F0C7
:101348000AD06550010AC3E0030AE0E0010AECE0B4
:10135800070ACEE0010A66A029D0D70ECEEC04F029
:10136800000ED4EC0FF0F10ECEEC04F0060ED4EC27
:101378000FF03A0ECEEC04F00C0ED4EC0FF00A0E7F
:10138800136E0F6E5D50B0EC12F0B6EC13F038EC43
:1013980008F0120ED4EC0FF00A0E136E5D50B6EC86
:1013A80013F038EC08F0180ED4EC0FF0A40E116E00
:1013B8003DEC12F066801200050E656E5DC01CF0F3
:1013C8005EC01DF05FC01EF05C501200D40E0F6EA0
:1013D800120E106E1200050E656E6680050C5FD049
:1013E800E0EC08F0050EC4650BD0070EC46108D008
:1013F800D50E1B6ED70E1C6ED80E1D6E56EC08F05F
:101408000E0E0001C46503D00F0EC46506D02D0E64
:10141800C46551D02F0EC4614ED0030E17D05CD8CE
:1014280017EC0EF0E80E0F6E160E49D85CEC0EF0B5
:101438008BEC07F05CEC0EF020EEC4F010EE59F0E7
:10144800060EDBCFE3FFE806FCE2050E656E33D03F
:10145800CF0E3B6ECB0E3C6E09EC00F06FEC10F03B
:101468003BD817EC0EF0B20E0F6E090E106E2ED888
:101478005CEC0EF0EAD76FEC10F02ED817EC0EF0FB
:10148800A60E0F6E0B0E106E21D85CEC0EF0DDD799
:10149800050E656EE7EC0AF017EC0EF00CD06550FF
:1014A800010ABDE0030AD4E0010AE5E0070AF0E01A
:1014B800010A96E0030AA40E116E3DEF12F0106EB9
:1014C800126A116A146A320E136E320C126A116AA9
:1014D800146A140E136E140CE60E0F6E130E106EB3
:1014E800120033D07AD817EC0EF063D85CEC0EF00B
:1014F8006AD817EC0EF0050E656E31D06ED817EC71
:101508000EF061D817EC0EF054D85CEC0EF0F3D75F
:10151800622A050E626402D0010E626E8BEC07F03F
:101528005CEC0EF055D8DBEC13F091EC11F017D011
:101538006206625002E1050E626E8BEC07F05CEC0D
:101548000EF046D8DBEC13F0F0D76550010ACAE07C
:10155800030ADEE0010AECE0070AD0E0010A66A00F
:1015680022D0D80ECEEC04F0000ED4EC0FF0F00E22
:10157800CEEC04F0060ED4EC0FF03A0ECEEC04F0EC
:101588000C0ED4EC0FF00A0E136E6250B6EC13F08A
:1015980038EC08F0120ED4EC0FF0176A33EC08F0B0
:1015A800180ED4EC0FF0A40E116E3DEC12F066800C
:1015B8001200E60E0F6E130E106E126A116A146A8C
:1015C800140E136E140C540E0F6E2A0E106E1200A9
:1015D800050E656E62C00FF0000CEA0E0F6E140E59
:1015E800106E12003DD077D817EC0EF0A00E0F6EDB
:1015F800070E106E6AEC0AF05CEC0EF08BEC07F04C
:101608005CEC0EF0050E656E669034D064D817EC6D
:101618000EF0E7EC0AF017EC0EF0DDEC0AF05CECEB
:101628000EF0050E656E26D05F2A630E5F6401D04A
:101638005F6A8BEC07F05CEC0EF0E0EC09F05BEC19
:1016480012F018D05F065F2802E1630E5F6E8BEC24
:1016580007F05CEC0EF0E0EC09F05BEC12F00AD05D
:101668006550010AC0E0030ADFE0010AEBE0070A5F
:10167800CDE0010A66A029D0D00ECEEC04F0000E11
:10168800D4EC0FF0EA0ECEEC04F0060ED4EC0FF01A
:101698003A0ECEEC04F00C0ED4EC0FF00A0E136EDA
:1016A8000F6E5F50B0EC12F0B6EC13F038EC08F0A7
:1016B800120ED4EC0FF00A0E136E5F50B6EC13F056
:1016C80038EC08F0180ED4EC0FF0A40E116E3DECB7
:1016D80012F066801200EC0E0F6E150E106E1200DE
:1016E80066B202D066823BD0669239D06BD817ECCE
:1016F8000EF0360E0F6E0F0E63EC0AF05CEC0EF077
:101708008BEC07F05CEC0EF0050E656E32D05AD803
:1017180017EC0EF0E7EC0AF017EC0EF0DDEC0AF02F
:101728005CEC0EF0F1D75A2A3B0E5A6401D05A6A83
:101738008BEC07F05CEC0EF03EEC08F0FBEC12F0E2
:10174800E3D75A065A2802E13B0E5A6E8BEC07F093
:101758005CEC0EF03EEC08F0FBEC12F0D5D76550CF
:10176800010AC4E0030ADFE0010AEBE0070ACFE060
:10177800010A66A215D04DEC08F0B0EC12F0B6ECF8
:1017880013F038EC08F00D0ED4EC0FF052EC08F022
:10179800B6EC13F038EC08F0130ED4EC0FF00CD0C4
:1017A800176A33EC08F00D0ED4EC0FF0176A33EC1F
:1017B80008F0130ED4EC0FF0A40E116E3DEC12F0ED
:1017C80066801200E80E0F6E160E106E12000001F1
:1017D800A35118E0A36B566A12D056505ED8DE505B
:1017E800DE1007E15650080D60D8010EDE6EDD6A86
:1017F80005D0565052D8DE06000EDD5A562A6150E2
:10180800565CEBE3576A45D05750080D4ED8DE04B6
:10181800DE103EE157505CEC0DF0DECF54F0DDCF2A
:1018280055F057506EEC0DF0DE50DE100AE15750BF
:101838005CEC0DF0DECF0FF0DDCF10F017EC0EF002
:101848001BD0575064EC0DF0575027D8DE50DE10EF
:1018580013E15068516857506EEC0DF0DECF52F02E
:10186800DDCF53F05050522651505322575015D8BF
:1018780052C0DEFF53C0DDFF01D80AD00500FA6E62
:101888005450FD6E5550FE6EF850FF6EFA5012001F
:10189800572A6150575CB8E31200080D020EF32472
:1018A800D96E010EF420DA6E1200060EF324D96EFA
:1018B800010EF420DA6E1200266E2B6A2C6A2D6A4D
:1018C8002E6A2F6A61D81CEC15F0EC0E12EC15F09C
:1018D800265012EC15F020EC15F0ED0E12EC15F078
:1018E800010E11EC14F0276E286A296A2A6A010E83
:1018F80011EC14F02B6E2C6A2D6A2E6A000E11EC76
:1019080014F02F6E41D818EC15F02BC017F02CC02E
:1019180018F02DC019F0166A27C01AF028C01BF05D
:1019280029C01CF02AC01DF01BC01DF01AC01CF0F5
:101938001B6A1A6A16501A241E6E17501B201F6E37
:1019480018501C20206E19501D20216E2F501E2467
:10195800226E30501F20236E31502020246E3250CA
:101968002120256E050E05D0D89025322432233249
:101978002232E82EF9D722C012F023C013F024C077
:1019880014F025C015F01200306A316A326A12006C
:10199800880E1FEC11F012C09DF013C09EF08A0E45
:1019A8001FEC11F012C09BF013C09CF08C0E1FECC2
:1019B80011F012C099F013C09AF08E0E1FEC11F0BE
:1019C80012C0D3F013C0D4F0900E1FEC11F012C067
:1019D80097F013C098F0920E1FEC11F012C095F01A
:1019E80013C096F0940E1FEC11F012C093F013C0C0
:1019F80094F0960E1FEC11F012C091F013C092F003
:101A0800980E1FEC11F012C08FF013C090F09A0ED0
:101A18001FEC11F012C08DF013C08EF09C0E1FEC5D
:101A280011F012C08BF013C08CF09E0E1FEC11F059
:101A380012C089F013C08AF0CC0E116EF50E41EC7D
:101A480014F0B70E116EF40E41EF14F001500210AD
:101A580001E11200096A15D009502AD80150DE1890
:101A68000FE10250DE180CE1F29E095051EC0CF027
:101A78003ED809502FD836D8095022D8F28E000CFB
:101A8800092A6150095CE8E30F0E61600F0CF29EB1
:101A980061500ED801C0DEFF02C0DDFF615051EC7D
:101AA8000CF025D8615016D81DD8615009D824D01B
:101AB800080D000EF324D96E010EF420DA6E120020
:101AC800080D060EF324D96E010EF420DA6EDE6AD4
:101AD800DD6A1200080D040EF324D96E010EF420FD
:101AE800DA6E120005C0DEFF06C0DDFF120003C07B
:101AF800DEFF04C0DDFF1200612AF28E000C1D6EAD
:101B08001F6A206A1D50A40F2024D96EDA6A1F505C
:101B18000708186E1750030DB00E196EBF0E1A6E17
:101B2800F3501926F4501A2220501926000E1A22B2
:101B380019C0F6FF1AC0F7FF0800F5CF1BF0182AE6
:101B480002D0D8901B32182EFCD71D50A40F202489
:101B5800E16EE26AE7501C6ED8901C341B10DF6EF1
:101B6800202A020E2064CED71E6A0D0E186EFC0EB7
:101B7800E82EFED7182EFCD71E2A130E1E64F5D7A2
:101B8800A40E116E3DEC12F01F2A070E1F64B9D780
:101B9800070C396E3B6A3C6A3950A40F3C24D96E55
:101BA800DA6A3B500708346E3150050D32C035F003
:101BB80033C036F0F3503526F45036223C503526E3
:101BC800000E362235C0F6FF36C0F7FF0800F5CF05
:101BD80037F0342A02D0D8903732342EFCD7395017
:101BE800A40F3C24E16EE26AE750386ED89038348E
:101BF8003710DF6E3C2A040E3C64CED73A6A0D0ECD
:101C0800346EFC0EE82EFED7342EFCD73A2A130E7B
:101C18003A64F5D7A40E116E3DEC12F03B2A070E7C
:101C28003B64B9D7070C176A3FD017505CEC0DF02E
:101C38000F50DE1838E11050DE1835E1F29E1750CB
:101C4800116E126A136814686150156E166A135083
:101C58001526145016221150151803E112501618A3
:101C68001FE06150116E126AD89011361236D89062
:101C780011361236D89011361236F80E1124D96E54
:101C8800000E1220DA6E1750080D000EF324E16ED4
:101C9800010EF420E26E070EDBCFE3FFE806FCE25C
:101CA8006106F28E1200172A6150175CBEE312001B
:101CB8000F50101001E11200176A18D017505CEC91
:101CC8000DF00F50DE1811E11050DE180EE1F29EF3
:101CD800175051EC0CF02AD817506EEC0DF021D8A3
:101CE800175064EC0DF0F28E000C172A6150175C47
:101CF800E5E30F0E61600F0CF29E61505CEC0DF095
:101D08000FC0DEFF10C0DDFF615051EC0CF00ED8A3
:101D180061506EEC0DF005D8615064EC0DF080EF69
:101D28000DF013C0DEFF14C0DDFF120011C0DEFF8E
:101D380012C0DDFF12000600D9CF0BF0DACF0CF08D
:101D4800F3CF0DF0F4CF0EF0F2BAF2A403D00AEC00
:101D580015F029D0F2B8F2A211D0F292010EF1AC2E
:101D6800000EFF0A0A6E0A3A0A460A46F1500A1895
:101D7800BF0B0A18F16ECDEC14F015D09DB09EA0E3
:101D880008D09E903C0ECF6EB00ECE6EC3EC14F011
:101D98000AD0A0B2A1A207D0A192EC0EB36E780E21
:101DA800B26E32EC14F00EC0F4FF0DC0F3FF0CC09D
:101DB800DAFF0BC0D9FF679211001750D96EDA6AA3
:101DC800060E28EC13F0DF6E1750D96EDA6A17503A
:101DD80022D8B8EC14F02DD8050E28EC13F01F0B00
:101DE80028D8165018D8B8EC14F019D8040E28ECD6
:101DF80013F03F0B14D815500ED8B8EC14F014D8C3
:101E0800030E28EC13F0070B0FD8145004D8B8ECC5
:101E180014F0DF6E1200E16EE26AE7501200DF6E26
:101E28001550D96EDA6A1200DF6E1450D96EDA6A6C
:101E38001200DF6E1650D96EDA6A1200116A11505C
:101E4800A50FD96EDA6A115099EC10F0112A1E0EFE
:101E58001164F5D7040E60640DD023D807E1602A19
:101E68001F0E6064010CA26B606A000CC36B606A91
:101E7800A22B010C16D8050DB60E0F6EB90E106EFA
:101E8800F3500F26F450102260500F26000E102237
:101E98000FC0F6FF10C0F7FF0800F5CFC3F0602AA7
:101EA800010C780E0001A225D96EDA6A010EDA2239
:101EB800DF501200146E14C011F0050EA2EC14F0DD
:101EC800116A110EA2EC14F013C011F0120EA2EC5C
:101ED80014F0116A130EA2EC14F0116A140EA2EC9D
:101EE80014F0116A150EA2EC14F0116A160EA2EC89
:101EF80014F0060E116EA2EC14F0080E116E000E0E
:101F0800A2EC14F0030E116E010EA2EC14F0030EF5
:101F1800116E020EA2EC14F04F0E116E040EA2EC1C
:101F280014F0116A1C0EA2EF14F0236A246A256AC1
:101F3800266A1F5020102110221029E0010E276E5A
:101F480006D0D8901F36203621362236272A22AED0
:101F5800F8D7D89023362436253626361F501B5CF2
:101F680020501C5821501D5822501E5809E31F505C
:101F78001B5E20501C5A21501D5A22501E5A238085
:101F8800D8902232213220321F32272EE2D723C0A6
:101F98001BF024C01CF025C01DF026C01EF0120046
:101FA8001D6E010E1C6E1F6A1E6A1750050D18C0A3
:101FB8001AF019C01BF0F3501A26F4501B221F50B8
:101FC8001A26000E1B221AC0F6FF1BC0F7FF0800D6
:101FD800F5501C1407E01EC00FF01D501F24FFEC25
:101FE80013F006D01EC00FF01D501F248FEC13F005
:101FF800D8901C361E2A070E1E64D7D7010E1C6EF9
:102008001F2A040E1F64D0D7040C186E010E176E19
:102018001A6A196A1450070D830E156EB90E166EDA
:10202800F3501526F45016221A501526000E1622C3
:1020380015C0F6FF16C0F7FF0800F550171407E0A3
:1020480019C00FF018501A24FFEC13F006D019C06D
:102058000FF018501A248FEC13F0D8901736192A5D
:10206800070E1964D7D7010E176E1A2A060E1A64BE
:10207800D0D7060C2C502D102E102F1023E0010E57
:10208800306E06D0D8902C362D362E362F36302A84
:102098002FAEF8D72C50285C2D5029582E502A588E
:1020A8002F502B5808E32C50285E2D50295A2E50BB
:1020B8002A5A2F502B5AD8902F322E322D322C32AA
:1020C800302EE8D728C028F029C029F02AC02AF0E5
:1020D8002BC02BF01200640E186E176A196A19507B
:1020E800A50FD96EDA6A195020D8192A1F0E19645B
:1020F800F6D70001C36BA40E116E3DEC12F0166A00
:1021080008D00D0E156EFC0EE82EFED7152EFCD746
:10211800162A1850165CF5E30A0E186401D0185EEA
:10212800172A1F0E1764DAD71F0CA40FE16EE26A94
:10213800DFCFE7FF12001650D96EDA6A000E28ECDE
:1021480013F0DF6E1650D96EDA6A16500FEC0FF0E6
:10215800B8EC14F016D8010E28EC13F012D815506C
:102168000FEC0FF0B8EC14F011D8020E28EC13F0B5
:102178003F0B0CD814500FEC0FF0B8EC14F0DF6ED6
:102188001200DF6E1550D96EDA6A1200DF6E145035
:10219800D96EDA6A12005A0EF66E2A0EF76E000E23
:1021A800F86E0900F5CF63F00900F5CF64F0090077
:1021B800F5CF65F001EE00F0DC0EEE6AE806FDE111
:1021C80000EE80F0590EEE6AE806FDE1666A00EE60
:1021D80059F00A0EEE6AE806FDE167906792000E74
:1021E800F86E0001F8EF10F0820E586EDE0EE82E41
:1021F800FED7582EFCD7DCEC11F0E9EC14F0F29E77
:10220800E60E0F6E130E106E126A640E116E146ACB
:10221800140E136E5CEC0EF08A0E0F6E220E106E0A
:10222800126A116A146A010E136E5CEC0EF0F28EDB
:10223800EBEC0BF0FDD7166E196A1A6A1CEC15F058
:10224800EC0E12EC15F0165012EC15F020EC15F00F
:10225800ED0E12EC15F0010E11EC14F0196E1A6A5D
:10226800000E11EC14F0176E186A18EC15F01750E0
:10227800156E146A19501410126E1A501510136E38
:10228800120081B802D0010E0BD081B202D0020E2A
:1022980007D081B402D0030E03D081B603D0040E58
:1022A8000F6E01D00F6A0F500FE01F0E0001A061E2
:1022B8001F0CA02B1E0EA019D8A412000FC065F089
:1022C800A06B010EA16F010C0001A06B1200176A30
:1022D800186A196A1A6A0FA008D0135017261450E2
:1022E80018221550192216501A22D890133614366F
:1022F80015361636D8901232113210320F320F506E
:10230800101011101210E7E117C00FF018C010F0EC
:1023180019C011F01AC012F0120019D07E0E636EA7
:10232800BF0E646E12004C0E636EBF0E646E120018
:102338001A0E636EBF0E646E1200E80E636EBE0E58
:10234800646E1200B60E636EBE0E646E12006250AA
:10235800010AE4E0030AE7E0010AEAE0070AEDE01F
:10236800010AF0E01200146A156A115012101BE0FD
:10237800010E136E04D0D89011361236132A12AEFD
:10238800FAD7D8901436153611500F5C12501058E1
:1023980005E311500F5E1250105A1480D890123273
:1023A8001132132EEED714C00FF015C010F0120022
:1023B8005DEC14F0ADEC14F0E3EC12F04FEC14F01B
:1023C80027EC15F0E0EC14F053EC13F0FAEC14F0F1
:1023D80095EC14F0CCEC0CF0106A0F6AD7EC14F002
:1023E800626E91EC11F024EC15F0F2EC14F0020E90
:1023F800136E640E5EEF0FF01850191017E0010EFF
:102408001A6E04D0D890183619361A2A19AEFAD787
:102418001850165C1950175804E31850165E1950D6
:10242800175AD890193218321A2EF2D716C016F049
:1024380017C017F0120082909490070E0F6E7D0E51
:10244800E82EFED70F2EFCD700F082809480C80EAD
:1024580000D0E82EFDD7000E82B0010E106E060ED9
:102468000F6E800EE82EFED70F2EFCD700D010502E
:102478001200146A8C90136A1350F80D1150F3244B
:102488001424D96EDA6A180ED926DF50126E142871
:10249800EDEC13F01250EDEC13F0132A030E136455
:1024A800EBD78C80142A070E1464E4D7070C1F6E30
:1024B8001F50A3EC13F01A6E030E79EC14F01C50A5
:1024C800A3EC13F01A6E040E79EC14F01D50A3EC73
:1024D80013F01A6E050E79EC14F01E50A3EC13F0ED
:1024E8001A6E060E79EF14F0126E146A14C010F00A
:1024F80012C011F0102A02D0D8901132102EFCD739
:102508001150136E010E13161350C9EC13F0142A50
:10251800070E1464EBD7D20E00D0E82EFDD71200B8
:10252800116A126A87EC14F000090CE012C00FF06F
:10253800010E106E0F2A02D0D89010360F2EFCD73D
:1025480010501112F00E00D0E82EFDD7122A070EF7
:102558001264E8D711501200106E126A0F5014E07E
:10256800010E116E03D0D8900F36112A0FAEFBD78B
:10257800D89012360F50105C03E30F50105E128093
:10258800D8900F32112EF4D71250120005D012D85D
:1025980013C0DFFF0F4A102A11C0F6FF12C0F7FF61
:1025A800114A122A0800F5CF13F01350F0E102D8AF
:1025B800DF6A000C0FC0D9FF10C0DAFF12008C8050
:1025C800010E116E0C0E23EC14F0116A090E23ECA7
:1025D80014F0070E116E0B0E23EC14F0010E116EA1
:1025E8000A0E23EC14F0116A0F0E23EF14F01E6E7E
:1025F8001D50A3EC13F01A6E000E79EC14F01C5069
:10260800A3EC13F01A6E010E79EC14F01E50A3EC33
:1026180013F03F0B1A6E020E79EF14F010D0A40ECF
:10262800116E3DEC12F0166A0D0E156EFC0EE82EBA
:10263800FED7152EFCD7162A310E1664F5D722ECD4
:102648000FF00009ECE11200126E1CEC15F0D00E30
:1026580012EC15F0125012EC15F020EC15F0D10E1A
:1026680012EC15F0000E11EC14F0136E18EC15F0C6
:10267800135012000F6E106A0FAE02D08C8801D072
:102688008C98D8900F368C8A010E83A6000E0F12F4
:102698008C9A102A070E1064EFD70F5012001FEC07
:1026A80012F00009D8A41200CC0E78EC12F04E0EED
:1026B80078EC12F0000E78EC12F0000E78EC12F0C4
:1026C8007F0E78EF12F0FA0E60EC0CF012C037F0C3
:1026D80013C038F014C039F015C03AF037C033F0E1
:1026E80038C034F039C035F03AC036F01200F70E71
:1026F80060EC0CF012C037F013C038F014C039F099
:1027080015C03AF037C033F038C034F039C035F06E
:102718003AC036F01200136E0FC010F0010E116EA1
:10272800102A02D0D8901136102EFCD7111C126E28
:102738001350A40FD96EDA6A1250DF161200196E00
:102748000A0E136E1950B6EC13F0176E0F0E17160B
:102758000A0E0F6E1950B0EC12F0186E1838F00B04
:1027680017101200146E080E156E166AD8901434DD
:102778001634166ED89014361350165C02E31350B4
:10278800165E152EF3D7165012000F6E8290949095
:102798000F0406E1060EE82EFED700D08280948052
:1027A800D20E00D0E82EFDD7828094801200106EE1
:1027B800A6B2FED710C0A9FF0FC0A8FFA69EA69C70
:1027C800A684F29E550EA76EAA0EA76EA682F28E5A
:1027D800AA0C0F6E106A0FAE02D08C8401D08C94B4
:1027E8008C8200F000F08C92D8900F36102A070ED9
:1027F8001064F1D7070C126E0FC010F0010E116EA5
:10280800102A02D0D8901136102EFCD71250A40FDF
:10281800D96EDA6A1150DF121200106E02EC15F050
:10282800C58602EC15F0C9CF11F002EC15F0105076
:1028380002E1C58A01D0C59AC58811501200126EEE
:102848008C90136A1250EDEC13F01150EDEC13F06C
:10285800132A030E1364F6D78C80030C0001A151D0
:10286800D8B412009F2B140E9F6103D0800E8C1ACF
:10287800800C9F6BA16B8C9E1200126E1CEC15F0E5
:10288800EC0E12EC15F0125012EC15F0115012EC7F
:1028980015F018EF15F0CD903C0ECF6EB00ECE6E41
:1028A8009D80B192B180A082EC0EB36E780EB26EAC
:1028B800780C8B6A180E946E8A6A1F0E936EF19EBE
:1028C8008C6A956AF18CF292F2888280120089EC07
:1028D80006F09FEC10F0C70E146EC80E156EC90EE8
:1028E800166ECA0E176EE1EF0EF01B6E1CEC15F09B
:1028F800D00E12EC15F01B5012EC15F01A5012EC19
:1029080015F018EF15F082909490030EE82EFED77C
:1029180000F082809480140EE82EFED782B0010C5D
:10292800000C948C948EAC84AC98AC8AAB88AB8E3B
:10293800B886040EB06E100EAF6E100C126E8B942B
:10294800125020093EEC13F011503EEC13F08B842A
:102958001200180E9412280EC66EC76A630EC86E4F
:10296800C584C5A41200FDD7106E10C00FF00F0E5D
:102978000F1610380F0B0A0DF3500F241200000128
:10298800D82B950ED865950CD86B010ED76FCD90C6
:10299800010CD60E016E280E026E046A036A066ADE
:1029A800056A2AEF0DF0A6B2FED70FC0A9FFA69EB2
:1029B800A69CA680A85012001A6A0E0E79EC14F094
:1029C800080E1A6E0F0E79EF14F00F6A0F5065ECAF
:1029D80009F00F2A200E0F64F9D7200C95869598D8
:1029E80094929494959A958C8B841200C70ED56E08
:1029F800F28AD76A3D0ED66E616A1200C7B4FED756
:102A0800C5CF0FF01F0E0F16F9E11F0CF294D76A0D
:102A18003D0ED66E010E0001A36F010C106E02EC84
:102A280015F010C0C9FF120002EC15F0C5841200A1
:102A380002EC15F0C580120002EC15F0C5821200F8
:102A4800959E8C9E1200F28EF28C1200040E656E1A
:052A5800040C7EBF0527
:10B982000000000000000000087C4E4F4E7C0804BE
:10B9920026473F070604203E7F7F3F3E207E121E41
:10B9A20000701000000101020203040405060607EC
:10B9B2000708090900000000004551453E006B6F71
:10B9C2006B3E003E7C3E1C003C7E3C1800367F36BF
:10B9D2003000000000000000000000000000000035
:10B9E2000000000000000000000000000000000055
:10B9F2000000000000000000000000000000000045
:10BA02000000000000000000000000000000000034
:10BA12000000000000000000000000000000000024
:10BA22000000000000000000000000007C4E4E7C80
:10BA32000820347E3420000036360000000000006A
:10BA420000000000000000000000000000000000F4
:10BA520000000000000000000000005F000000077E
:10BA6200000700147F147F14242A7F2A122313084C
:10BA7200646236495620500008070300001C224128
:10BA8200000041221C002A1C7F1C2A08083E0808CC
:10BA9200008070300008080808086060000000207C
:10BAA200100804023E5149453E00427F4000426177
:10BAB2005149462141454B311814127F1027454503
:10BAC20045393C4A4949300171090503364949491A
:10BAD20036064949291E000036360000403400006F
:10BAE20000081422411414141414004122140802F0
:10BAF200015909063E415D594E7C1211127C7F4963
:10BB02004949363E414141227F4141413E7F4949B7
:10BB120049417F090909013E414151727F080808E4
:10BB22007F00417F41002040413F017F08142241B4
:10BB32007F404040407F0204027F7F0408107F3E26
:10BB42004141413E7F090909063E4151215E7F097B
:10BB5200192946264949493201017F01013F4040E6
:10BB6200403F1F2040201F3F4038403F63140814CD
:10BB72006303047804036151494543007F41410056
:10BB820002040810200041417F0004020102044027
:10BB920040404040000307080020545478407F286A
:10BBA2004444383844444428384444287F38545460
:10BBB2005418087E09020018A4A49C787F08040483
:10BBC2007800447D40002040403D007F1028440022
:10BBD20000417F40007C047804787C0804047838B3
:10BBE20044444438FC1824241818242418FC7C04E7
:10BBF200040800485454542400043F44203C40406C
:10BC0200207C1C2040201C3C4030403C4428102812
:10BC1200444C9090907C4464544C4400083641005B
:10BC22000000770000004136080002010204020011
:10BC32000000000000000000000000000000000002
:10BC42000000000000000000000000000040004072
:10BC52000040000000000000000000003E55554179
:10BC620022000000000000000000000000000000B0
:10BC720000000000000000000000000000000000C2
:10BC820000000000000000000000000000000000B2
:10BC920000000000000000000000000000000C1E78
:10BCA2001E0C000000000000000000000000000068
:10BCB2000000000000000000000000000000000082
:10BCC2000000000000000000000000000000000072
:10BCD2000000000000000000000000000000000062
:10BCE200000000000000000000000000007E0202D0
:10BCF2000203000000000000000000007E4B4A4BDF
:10BD02004200000000003E494949220000000000B4
:10BD12000000000000000000000000000000000021
:10BD2200417E4100000609090644445F4444004143
:10BD32007F410000447D4000007C040406000000B6
:10BD420000000000000000000000000038555455BB
:10BD5200180000000000385454544422142A1408D5
:10BD62002040403D000000000000000000000000F4
:10BD7200457C41007E1111117E7F494949317F493D
:10BD82004949367F01010101C07E417EC07F494998
:10BD9200494177087F087722414949367F100804D4
:10BDA2007F7E1109057E7F08142241407E01017FBA
:10BDB2007F020C027F7F0808087F3E4141413E7F9F
:10BDC2000101017F7F090909063E4141412201012A
:10BDD2007F0101274848483F0E117F110E63140866
:10BDE20014637F40407FC0070808087F7F407E4081
:10BDF2007F7F407E40FF017F4444387F4438007F8C
:10BE02007F44444438224149493E7F083E413E46F0
:10BE12002919097F20545454783C4A4A4A317C54A7
:10BE2200545428007C040404C078447CC038545420
:10BE320054186C107C106C28445454287C20100830
:10BE42007C7C2111097C7C10102844403804047C3D
:10BE52007C0810087C7C1010107C38444444387CE8
:10BE62000404047C7C141414083844444428040454
:10BE72007C04044C5050503C18247C2418006C1054
:10BE8200106C7C40407CC00C1010107C7C407840D0
:10BE92007C7C407840FC047C5050207C5020007C0C
:10BEA200007C50502044545454387C103844384854
:10BEB2005434147C3E41417F3E00027F7F00627316
:10BEC200594F462263497F361814127F7F2F45450A
:10BED2007D393E49497B320371790F073649497FE3
:10BEE200362649497F3E3E7F417F3E00027F7F00EA
:10BEF2006273594F462263497F361814127F7F2F8F
:10BF02006F457D393E7F497B320373790F07367F58
:10BF1200497F36266F497F3E7F41417F7F00017F07
:10BF22007F007151515F5F4149497F7F1F10107F30
:10BF32007F4F494979797F494979790101017F7FA9
:10BF42007F49497F7F4F49497F7F7F7F417F7F00C4
:10BF5200017F7F007373515F5F636B497F7F1F1F98
:10BF6200107F7F6F6F4979797F7F497B7B0373797C
:10BF72000F077F7F497F7F6F6F497F7F7F7F417F81
:10BF82007F00017F7F006171594F474149497F7F9F
:10BF92001F1F107F7F4F4F4979797F7F4979790140
:10BFA20071790F077F7F497F7F5F5F517F7F00003D
:10BFB200007C447C007C0074545C54547C1C107CD7
:10BFC2005C54747C547404047C7C547C5C547C43C8
:10BFD2006C6F636B207630312E30362E3137203144
:10BFE200362E31312E3132206279204976616E5FF0
:0EBFF200666400ECEC2EF0F22EF1F22E000050
:020000040020DA
:08000000FFFFFFFFFFFFFFFF00
:020000040030CA
:0E000000FF061E1EFF8181FF0FC00FE00F40A4
:0200000400F00A
:080000000300000000000000F5
:00000001FF
