:0400000007EF00F016
:100008007182ECED0DF0E2EF0FF0600E89254A6E7B
:10001800F00E8A214B6EFF0E8B214C6EFF0E8C2149
:100028004D6E8DD934EC10F076D9CFEC0BF0E0D9C9
:100038009DC00FF09EC010F0AAD9D1D934EC10F0B1
:100048006AD9FCD9CFEC0BF090D9A9C00FF0AAC09F
:1000580010F09DD993D934EC10F05DD9EFD9CFECDD
:100068000BF062D90001956F4F505320966F505096
:100078005420976F51505520986F56C02DF057C097
:100088002EF0000E2EBEFF0E2F6E306E020ED89090
:100098002D362E362F363036E82EF9D795512D24A9
:1000A800316E96512E20326E97512F20336E985113
:1000B8003020346E030ED89031363236333634362B
:1000C800E82EF9D7020E31241B6E000E32201C6E6A
:1000D800000E33201D6E000E34201E6E040EA9D9AA
:1000E800CFEC0BF01BC091F01CC092F01DC093F038
:1000F8001EC094F0A7C00FF0A8C010F048D93ED990
:1001080034EC10F008D91F6A200E9ED9CFEC0BF002
:100118002CD915D934EC10F0FED8CFEC0BF068D9F7
:100128009FC00FF0A0C010F032D959D934EC10F0AC
:10013800F2D879D9CFEC0BF0F7D83DD9020E2D249F
:100148001B6E000E67D9040E74D9CFEC0BF01BC0E0
:1001580095F01CC096F01DC097F01EC098F0000ED8
:10016800000195250F6E800E9621106E000E9721C6
:10017800116E000E9821126EA5C013F0A6C014F0DF
:10018800156A166A34EC10F0100E05D0D8901232A9
:10019800113210320F32E82EF9D70FC08DF010C08F
:1001A8008EF011C08FF012C090F000019151295CBF
:1001B8000F6E92512A58106E93512B58116E94510C
:1001C8002C58126E6A0E136E180E42D934EC10F0C9
:1001D8000FC046F010C047F011C048F012C049F0F7
:1001E800800E495C15E2D89046340F6E4734106E85
:1001F8004834116E4934126E04D9ABEC0EF00FC0BE
:1002080039F010C03AF011C03BF012C03CF014D0E5
:1002180046C00FF047C010F048C011F049C012F0B6
:10022800F0D8ABEC0EF0D8900F34396E10343A6E2B
:1002380011343B6E12343C6EB0D8CFEC0BF01BC0BF
:100248000FF01CC010F01DC011F01EC012F0A5D890
:10025800CFEC0BF01BC013F01CC014F01DC015F040
:100268001EC016F034EC10F00FC052F010C053F05E
:1002780011C054F012C055F052C00FF053C010F026
:1002880054C011F055C012F0DE0E136E0B0EE0D8FC
:1002980034EC10F040D8C7D8CFEC0BF066D896D81D
:1002A800430E136EE30E146E1568166834EC10F0E6
:1002B80032D8B9D8CFEC0BF037D87DD8CF0E2D2453
:1002C8001B6E0E0EA7D8100EB4D8CFEC0BF01B5037
:1002D80039261C503A221D503B221E503C2276D80B
:1002E800640E136E146A156A166A34EC10F013D88B
:1002F800140E1F6E340EA8D8CFEC0BF01BC039F0CB
:100308001CC03AF01DC03BF01EC03CF039C029F0BB
:100318003AC02AF012000FC01BF010C01CF011C028
:100328001DF012C01EF012001BC04EF01CC04FF092
:100338001DC050F01EC051F04E50522412001F6ACA
:10034800100E206E216A226A4AC00FF04BC010F0CE
:100358004CC011F04DC012F04AC013F04BC014F05D
:100368004CC015F04DC016F0100C1BC052F01CC04C
:1003780053F01DC054F01EC055F012004AC013F0CF
:100388004BC014F04CC015F04DC016F01200000E12
:1003980010BEFF0E116E126E12001F6A010E206E43
:1003A800216A226A39C01BF03AC01CF03BC01DF01C
:1003B8003CC01EF0010C2D6E4F5053202E6E505035
:1003C80054202F6E51505520306E120039C00FF056
:1003D8003AC010F03BC011F03CC012F0120035C01A
:1003E80013F036C014F037C015F038C016F01200FC
:1003F8001BC035F01CC036F01DC037F01EC038F0E9
:1004080012008DC013F08EC014F08FC015F090C08C
:1004180016F012002E201C6E000E2F201D6E000EEE
:1004280030201E6E12001F6A206A010E216E226A99
:10043800010C1F6E206A216A226A12001F6A080EC8
:10044800206E216A226A080C206E216A226A120034
:10045800146E156A166A12003DD002D964EC0DF0CC
:10046800980E0F6E0F0E106ED6EC09F0A9EC0DF079
:10047800CEEC05F0A9EC0DF051EC08F035D0F0D831
:1004880064EC0DF053EC0AF064EC0DF049EC0AF062
:10049800A9EC0DF0050E6F6E27D0442A0C0E4464AB
:1004A80002D0010E446ECEEC05F0A9EC0DF042EC42
:1004B80008F065EC11F018D04406445002E10C0E27
:1004C800446ECEEC05F0A9EC0DF042EC08F065ECBA
:1004D80011F00AD06F50010AC0E0030ADEE0010AF9
:1004E800EBE0070ACCE0010A70A0AED0CC0EB2D87F
:1004F800000EE6EC0EF0F10EADD8060EE6EC0EF0AE
:100508003A0EA8D80C0EE6EC0EF084D0D10EA2D884
:10051800120EE6EC0EF0F70E9DD8180EE6EC0EF073
:1005280093D0CB0E97D8120EE6EC0EF0F20E92D8BE
:10053800180EE6EC0EF088D0C10E8CD8120EE6EC40
:100548000EF0F00E87D8180EE6EC0EF07DD0CA0E2D
:1005580081D8120EE6EC0EF0E20E7CD8180EE6EC0E
:100568000EF072D0D20E76D8120EE6EC0EF0F00E27
:1005780071D8180EE6EC0EF067D0D70E6BD8120EB5
:10058800E6EC0EF0F00E66D8180EE6EC0EF05CD035
:10059800CB0E60D8120EE6EC0EF0EF0E5BD8180EFC
:1005A800E6EC0EF051D0D10E55D8120EE6EC0EF056
:1005B800EF0E50D8180EE6EC0EF046D0C20E4AD810
:1005C800120EE6EC0EF0F00E45D8180EE6EC0EF022
:1005D8003BD0C60E3FD8120EE6EC0EF0F20E3AD81B
:1005E800180EE6EC0EF030D0CB0E34D8120EE6EC36
:1005F8000EF0F10E2FD8180EE6EC0EF025D0C30E33
:1006080029D8120EE6EC0EF0F00E24D8180EE6ECFF
:100618000EF01AD04450010A01E178D7030A81E0AC
:10062800010A8AE0070A93E0010A9CE0030AA5E0B0
:10063800010AAEE00F0AB7E0010AC0E0030AC9E008
:10064800010AD2E0070ADBE0AB0E116E2AEC11F0CA
:1006580070801200176EC20E186EB90E196E120055
:10066800600E0F6E040E106E120095D0D0EC13F0D1
:10067800C5D880EC10F09DD8EDEC10F0165017108E
:1006880012E1E1D81BEC0FF0B1D8EDEC10F01650E8
:100698008AD80D0E1AEC0DF0B00EF5EC04F0130E1E
:1006A8001AEC0DF01CD0CFD81BEC0FF0A7D880ECBB
:1006B80010F07FD8EDEC10F0165075D80D0E1AEC2E
:1006C8000DF094D8EDEC10F016506DD8130E1AEC0E
:1006D8000DF0B00EF5EC04F0190E1AEC0DF096D8EA
:1006E800020E126EEE0E6DD8A9EF0DF0050E6F6EAC
:1006F80082EC0FF06FD8D4EC11F0B3EC12F00009D3
:100708000AE068D8D4EC11F0B3EC12F04CD8000E23
:100718001AEC0DF004D01B6A58D81AEC0DF08FD8DB
:10072800B3EC12F040D8060E1AEC0DF076D8D4ECE3
:1007380011F0B3EC12F037D80D0E1AEC0DF077D893
:10074800B3EC12F030D8130E1AEC0DF048D8B2EC16
:100758000FF068D8D4EC11F0B3EC12F0276E27280C
:10076800176E190ED0EC0CF066D8B3EC12F0276EA9
:100778002728176E1D0ED0EC0CF053EC0AF064EC31
:100788000DF0720E0F6E060E106E64EC0DF049EC53
:100798000AF0A9EF0DF06F50040AA8E0010A01E180
:1007A80065D7030A12001B6E6DC01CF06EC01DF0E9
:1007B80012000FC016F010C017F0196A0A0E186E52
:1007C8000A0C116E146A136A1200C20E1C6EB90E5E
:1007D8001D6E000C0A0E136E0F6E64501200640E2C
:1007E800146E630E156E620E166E120069C016F056
:1007F8006AC017F0196A0A0E186E0A0C126A0A0EF5
:10080800116E69C00FF06AC010F00A0C060E6F6E08
:10081800220E0F6E280E106E12000A0E136E0F6E47
:10082800635012000A0E136E0F6E625012000A0E09
:10083800136E635012000A0E136E625012000A0EF5
:10084800136E64501200010E146E030CC2D0D0EC6B
:1008580013F05850591030E0D0D81BEC0FF0126A42
:10086800640EC5D880EC10F0DDEC03F0EDEC10F070
:100878001650D7EC03F00B0E1AEC0DF0126A0A0EA4
:10088800B6D880EC10F0DDEC03F0EDEC10F016506B
:10089800D7EC03F0110E1AEC0DF058C016F059C041
:1008A80017F0C8EC07F0EDEC10F01650D7EC03F099
:1008B800170E1AEC0DF012D0A0D81BEC0FF0450E55
:1008C80090D80B0E1AEC0DF0520E8BD8110E1AECB4
:1008D8000DF0520E86D8170E1AEC0DF00AEC04F043
:1008E800010E126E900EE5EC03F0A9EF0DF0050E67
:1008F8006F6E585059100DE0780E0F6E010E106E85
:10090800F40E116EBF0E126EEEEC11F04CEC12F0FC
:1009180002D082EC0FF0EEEC03F0D4EC11F0B3EC63
:1009280012F000090CE0EEEC03F0D4EC11F0B3EC9B
:1009380012F0D7EC03F0000E1AEC0DF005D01B6A8C
:10094800E9EC03F01AEC0DF023EC04F0B3EC12F030
:10095800D7EC03F0060E1AEC0DF011EC04F0D4EC11
:1009680011F0B3EC12F0D7EC03F00D0E1AEC0DF009
:100978001BEC04F0B3EC12F0D7EC03F0130E1AECF6
:100988000DF0F3EC03F0B2EC0FF016EC04F0D4EC3D
:1009980011F0B3EC12F0276E2728176E190ED0EC61
:1009A8000CF01FEC04F0B3EC12F0276E2728176E3A
:1009B8001D0ED0EC0CF053EC0AF064EC0DF0540E64
:1009C8000F6E080E106E64EC0DF049EC0AF0A9EFFA
:1009D8000DF06F50040A8BE0010A01E138D7030AD1
:1009E80012001B6EC20E1C6EB90E1D6E1200116E27
:1009F80058C00FF059C010F01200040E146E030C0A
:100A08003AD0D3D864EC0DF0C20E0F6E130E106EF0
:100A1800D6EC09F0A9EC0DF0BDD8A9EC0DF051EC1D
:100A280008F033D0C2D864EC0DF053EC0AF064EC53
:100A38000DF049EC0AF0A9EC0DF0050E6F6E25D00B
:100A4800422A070E426402D0010E426EA3D8A9ECD6
:100A58000DF042EC08F065EC11F017D04206425058
:100A680002E1070E426E96D8A9EC0DF042EC08F0B0
:100A780065EC11F00AD06F50010AC3E0030AE0E008
:100A8800010AECE0070ACEE0010A70A07DD0C40E8E
:100A98002EEC03F0000EE6EC0EF0ED0E2EEC03F05B
:100AA800060EE6EC0EF03A0E2EEC03F00C0EE6EC19
:100AB8000EF05BD0CF0E2EEC03F0120EE6EC0EF02B
:100AC800ED0E2EEC03F0180EE6EC0EF05DD0C20E23
:100AD8002EEC03F0120EE6EC0EF0F20E2EEC03F004
:100AE800180EE6EC0EF050D0D10E2EEC03F0120EDC
:100AF800E6EC0EF0F00E2EEC03F0180EE6EC0EF01D
:100B080043D0D70E2EEC03F0120EE6EC0EF0F20EE8
:100B18002EEC03F0180EE6EC0EF036D0CF0E2EECCD
:100B280003F0120EE6EC0EF0F20E2EEC03F0180EA7
:100B3800E6EC0EF029D0D10E2EEC03F0120EE6EC06
:100B48000EF0E10E2EEC03F0180EE6EC0EF01CD0C1
:100B5800CD0E2EEC03F0120EE6EC0EF0E40E2EECA9
:100B680003F0180EE6EC0EF00FD04250010AF0E048
:100B7800030AA0E0010AABE0070AB6E0010AC1E0F7
:100B8800030ACCE0010AD7E0AB0E116E2AEC11F093
:100B980070801200220E0F6E280E106E070E126E55
:100BA800D00E116E146A136AD00C080E0F6E0A0E5E
:100BB800106E120070B202D0708243D0709241D091
:100BC800A6D864EC0DF0C40E0F6E140E106ED6ECA1
:100BD80009F0A9EC0DF0CEEC05F0A9EC0DF0050E2E
:100BE8006F6ED0EC13F0709036D091D864EC0DF0A5
:100BF80053EC0AF064EC0DF049EC0AF0A9EC0DF0A6
:100C0800050E6F6E28D0412A170E416401D0416A43
:100C1800CEEC05F0A9EC0DF0050E6F6E6ED81FEC4A
:100C280012F019D04106412802E1170E416ECEECB0
:100C380005F0A9EC0DF0050E6F6E5FD81FEC12F0F1
:100C48000AD06F50010ABCE0030ADDE0010AEAE0BD
:100C5800070ACBE0010A70A03FD070A233D052D867
:100C6800D4EC11F0B3EC12F042D80D0EE6EC0EF015
:100C780058D8B3EC12F03BD8130EE6EC0EF04CD873
:100C8800D4EC11F0B3EC12F000090AE045D8D4EC2A
:100C980011F0B3EC12F02BD8000EE6EC0EF008D0F1
:100CA800000E176A6DC018F06EC019F0E6EC0EF071
:100CB8000A0E136E4150B3EC12F019D8060EE6EC8A
:100CC8000EF00AD0176A0ED8000EE6EC0EF0176A7E
:100CD80009D8060EE6EC0EF0AB0E116E2AEC11F0F8
:100CE80070801200C20E186EB90E196E1200176EBF
:100CF8006DC018F06EC019F0120040C01CF01D6ADB
:100D0800415012000A0E136E0F6E40501200BC0EB6
:100D18000F6E0B0E106E12000A0E136E0F6E4150FE
:100D280012000A0E136E40501200F40E116E75EC8C
:100D380013F025D0410E186EEE0EE82EFED7182EB1
:100D4800FCD71BD0680E186EE40EE82EFED7182EBE
:100D5800FCD713D0B60E186ED00EE82EFED7182E7C
:100D6800FCD70BD0020E196E520E186EA60EE82E86
:100D7800FED7182EFCD7192EFAD700D00DD0DD0ECD
:100D8800F66EBF0EF76E0800F550D4E0010ADAE0FF
:100D9800030AE0E0010AE6E0F60E36EC12F02C6EEB
:100DA8002D6A2E6A2F6AF70E36EC12F0306E316A11
:100DB800326A336AF80E36EC12F0346E356A366AE7
:100DC800376A2C282D102E102F100FE130283110E3
:100DD800321033100AE1342835103610371005E187
:100DE800146A156A166A176A120030C019F031C001
:100DF8001AF032C01BF0186A2CC01CF02DC01DF070
:100E08002EC01EF02FC01FF01DC01FF01CC01EF00A
:100E18001D6A1C6A18501C24206E19501D20216E52
:100E28001A501E20226E1B501F20236E345020247F
:100E3800246E35502120256E36502220266E3750DC
:100E48002320276E060E05D0D89027322632253269
:100E58002432E82EF9D724C028F025C029F026C06E
:100E68002AF027C02BF028C014F029C015F02AC09A
:100E780016F02BC017F012007DD00CEC11F0000911
:100E8800D8A41200CC0E82EC11F0440E82EC11F0C2
:100E98001D50D96EDA6ADF6A1C50D96EDA6A020E02
:100EA800DF6ECD80020C0CEC11F0CC0E82EC11F050
:100EB800BE0E82EC11F0226A2250800FD96EDA6AD7
:100EC8009EEC11F0DF6E222A010E2264F5D7000194
:100ED80081511E6E8051236E1EC024F024AE04D0B2
:100EE800236C241ED8B0242A23500F0B216EB20E77
:100EF8002124F66EF76AB90EF7220800F5CF21F023
:100F0800233A243A0F0E23162450F00B23120F0E07
:100F1800241623500A0DF3CF23F0F4CF24F02150E8
:100F28002326000E242223C016F024C017F02CD844
:100F3800EDEC10F01650206E23C00FF024C010F016
:100F4800126A0A0E116E80EC10F00FC023F010C068
:100F580024F0050E206402D0234A242A1B50D96E9F
:100F6800DA6A23C0DEFF24C0DDFF1C50D96EDA6ABE
:100F7800DF6A000C1C50D96EDA6ADF5001E17DD7B8
:100F8800010A91E0030A1200196A0A0E186E0A0C87
:100F98003AD07ED864EC0DF0080E0F6E0A0E106E73
:100FA800D6EC09F0A9EC0DF0CEEC05F0A9EC0DF0AB
:100FB80074D833D06DD864EC0DF053EC0AF064ECBF
:100FC8000DF049EC0AF0A9EC0DF0050E6F6E25D076
:100FD800432A1F0E436402D0010E436ECEEC05F087
:100FE800A9EC0DF04BD865EC11F017D0430643502F
:100FF80002E11F0E436ECEEC05F0A9EC0DF03ED8D1
:1010080065EC11F00AD06F50010AC3E0030AE0E072
:10101800010AECE0070ACEE0010A70A029D0D70E39
:101028002EEC03F0000EE6EC0EF0F10E2EEC03F0C1
:10103800060EE6EC0EF03A0E2EEC03F00C0EE6EC83
:101048000EF00A0E136E0F6E4350D4EC11F0B3EC91
:1010580012F07BEC06F0120EE6EC0EF00A0E136EA0
:101068004350B3EC12F07BEC06F0180EE6EC0EF0F1
:10107800AB0E116E2AEC11F070801200050E6F6E27
:1010880043C01CF044C01DF045C01EF04250120081
:10109800980E0F6E0F0E106E1200050E6F6E708098
:1010A800050C196AEEEC03F0D4EC11F0B3EC12F075
:1010B80000090AE0EEEC03F0D4EC11F0B3EC12F006
:1010C80040D8AB0F69D802D019506CD823EC04F083
:1010D800B3EC12F036D8B10F5FD811EC04F0D4ECB1
:1010E80011F0B3EC12F02DD8B80F56D81BEC04F061
:1010F800B3EC12F026D8BE0F4FD8192A040E196483
:10110800D1D7196A16EC04F0D4EC11F0B3EC12F054
:101118003DD82AD8C40F40D81FEC04F0B3EC12F025
:1011280035D822D8C80F38D8192A020E1964EAD738
:101138000001B06B800EB66FB76FBD6BC36BC76B2A
:101148001200050D6DC017F06EC018F0F350172689
:10115800F450182219501726000E182217C0F6FF4F
:1011680018C0F7FF19501200F3501726F450182230
:1011780019501726000E1822030E1726000E1822E3
:1011880017C0F6FF18C0F7FF19501200030DBC0E68
:10119800176EBF0E186E1200D96EDA6A0800F5CF06
:1011A800DFFF1200AB0FD96EDA6ADF6A12000001A6
:1011B800A1512D6EA2512E6E2F6A306A2D50295CD6
:1011C8000F6E2E502A58106E2F502B58116E30501B
:1011D8002C58126EA3C013F0A4C014F0156A166A36
:1011E80034EC10F08FEC01F01F6A800E28EC02F04E
:1011F800CFEC0BF0B9EC01F09BC02DF09CC02EF0A9
:10120800000E2EBEFF0E2F6E306E0B0ED8902D36B0
:101218002E362F363036E82EF9D72DC01BF02EC0CB
:101228001CF02FC01DF030C01EF099C031F09AC0DC
:1012380032F0000E32BEFF0E336E346E525031243F
:101248001F6E53503220206E54503320216E55505B
:101258003420226ECFEC0BF098EC01F00001896F7E
:101268004F5053208A6F505054208B6F5150552047
:101278008C6F080E89251B6E000E8A211C6E000ECD
:101288008B211D6E000E8C211E6E100E1DEC02F0BF
:10129800CFEC0BF01BC035F01CC036F01DC037F08A
:1012A8001EC038F035C029F036C02AF037C02BF000
:1012B80038C02CF012005FD055EC08F0050E6264BF
:1012C8000BD0070E626008D0690E1B6E6B0E1C6E89
:1012D8006C0E1D6E40EC07F00E0E626403D00F0E0C
:1012E800626406D02D0E626452D02F0E62604FD019
:1012F800030E17D05DD864EC0DF0B00E0F6E160E0D
:101308004AD8A9EC0DF0CEEC05F0A9EC0DF020EED2
:1013180062F010EE3FF0060EDBCFE3FFE806FCE2DA
:10132800050E6F6E34D0010E50EC0FF03DC058F032
:101338003EC059F082EC0FF03BD864EC0DF0540E2F
:101348000F6E080E106E2ED8A9EC0DF0E9D782ECBE
:101358000FF02ED864EC0DF0720E0F6E060E106EA4
:1013680021D8A9EC0DF0DCD7050E6F6E53EC0AF00E
:1013780064EC0DF00CD06F50010ABCE0030AD3E016
:10138800010AE5E0070AF0E0010A96E0030AAB0E5D
:10139800116E2AEF11F0106E126A116A146A320E79
:1013A800136E320C126A116A146A140E136E140C3E
:1013B800BE0E0F6E120E106E120033D07AD864EC87
:1013C8000DF063D8A9EC0DF06AD864EC0DF0050EA9
:1013D8006F6E31D06ED864EC0DF061D864EC0DF00E
:1013E80054D8A9EC0DF0F3D7612A050E616402D038
:1013F800010E616ECEEC05F0A9EC0DF055D8D8ECD5
:1014080012F05AEC10F017D06106615002E1050E97
:10141800616ECEEC05F0A9EC0DF046D8D8EC12F0D0
:10142800F0D76F50010ACAE0030ADEE0010AECE0D7
:10143800070AD0E0010A70A022D0D80E2EEC03F0E3
:10144800000EE6EC0EF0F00E2EEC03F0060EE6ECC5
:101458000EF03A0E2EEC03F00C0EE6EC0EF00A0E2F
:10146800136E6150B3EC12F07BEC06F0120EE6EC52
:101478000EF0176A76EC06F0180EE6EC0EF0AB0EDE
:10148800116E2AEC11F070801200BE0E0F6E120E53
:10149800106E126A116A146A140E136E140C220E5E
:1014A8000F6E280E106E1200050E6F6E61C00FF0E1
:1014B800000CC20E0F6E130E106E12003DD077D8BE
:1014C80064EC0DF0600E0F6E040E106ED6EC09F091
:1014D800A9EC0DF0CEEC05F0A9EC0DF0050E6F6E41
:1014E800709034D064D864EC0DF053EC0AF064ECDE
:1014F8000DF049EC0AF0A9EC0DF0050E6F6E26D040
:10150800452A630E456401D0456ACEEC05F0A9EC86
:101518000DF042EC08F065EC11F018D045064528AE
:1015280002E1630E456ECEEC05F0A9EC0DF042EC3D
:1015380008F065EC11F00AD06F50010AC0E0030A08
:10154800DFE0010AEBE0070ACDE0010A70A029D02C
:10155800D00E2EEC03F0000EE6EC0EF0EA0E2EECA8
:1015680003F0060EE6EC0EF03A0E2EEC03F00C0E2D
:10157800E6EC0EF00A0E136E0F6E4550D4EC11F027
:10158800B3EC12F07BEC06F0120EE6EC0EF00A0E4D
:10159800136E4550B3EC12F07BEC06F0180EE6EC37
:1015A8000EF0AB0E116E2AEC11F070801200C40E12
:1015B8000F6E140E106E12005F5019E05F6A000182
:1015C800D66B12D0D65161D8DE50DE1007E1D65165
:1015D800080D63D8010EDE6EDD6A05D0D65155D8E8
:1015E800DE06000EDD5AD62B6050D65DEBE3000117
:1015F800D76B47D0D751080D50D8DE04DE103FE135
:10160800D7515FEC0CF0DECFD4F0DDCFD5F0D75159
:1016180071EC0CF0DE50DE100AE1D7515FEC0CF0F3
:10162800DECF0FF0DDCF10F064EC0DF01BD0D751FA
:1016380067EC0CF0D75129D8DE50DE1013E1D069E1
:10164800D169D75171EC0CF0DECFD2F0DDCFD3F0F9
:10165800D051D227D151D323D75117D8D2C0DEFFCA
:10166800D3C0DDFF01D80BD005000001FA6ED451BC
:10167800FD6ED551FE6EF850FF6EFA501200000153
:10168800D72B6050D75DB6E31200080D020EF32485
:10169800D96E010EF420DA6E1200060EF324D96E0C
:1016A800010EF420DA6E120070B202D070823BD0C4
:1016B800709239D06BD864EC0DF0BC0E0F6E0B0E27
:1016C800CFEC09F0A9EC0DF0CEEC05F0A9EC0DF08B
:1016D800050E6F6E32D05AD864EC0DF053EC0AF058
:1016E80064EC0DF049EC0AF0A9EC0DF0F1D7402AB2
:1016F8003B0E406401D0406ACEEC05F0A9EC0DF039
:1017080081EC06F01FEC12F0E3D74006402802E116
:101718003B0E406ECEEC05F0A9EC0DF081EC06F026
:101728001FEC12F0D5D76F50010AC4E0030ADFE0BE
:10173800010AEBE0070ACFE0010A70A215D086EC97
:1017480006F0D4EC11F0B3EC12F07BEC06F00D0EC1
:10175800E6EC0EF095EC06F0B3EC12F07BEC06F03C
:10176800130EE6EC0EF00CD0176A76EC06F00D0EB0
:10177800E6EC0EF0176A76EC06F0130EE6EC0EF0C7
:10178800AB0E116E2AEC11F070801200B00E0F6EC5
:10179800160E106E1200246A22AE0AD0221E211ED6
:1017A800201E1F6C000E202221222222010E246EF0
:1017B8001EAE0AD01E1E1D1E1C1E1B6C000E1C22F7
:1017C8001D221E22010E241A256A266A276A286A03
:1017D8001F5020102110221029E0010E236E06D080
:1017E800D8901F36203621362236232A22AEF8D743
:1017F800D89025362636273628361F501B5C2050B1
:101808001C5821501D5822501E5809E31F501B5EBA
:1018180020501C5A21501D5A22501E5A2580D890FB
:101828002232213220321F32232EE2D7245008E000
:10183800281E271E261E256C000E26222722282257
:1018480025C01BF026C01CF027C01DF028C01EF0C4
:1018580012000150021001E11200096A15D0095066
:101868002AD80150DE180FE10250DE180CE1F29E72
:10187800095049EC0BF039D809502FD83BD80950FA
:1018880022D8F28E000C092A6050095CE8E30F0E9A
:1018980060600F0CF29E60500ED801C0DEFF02C0DF
:1018A800DDFF605049EC0BF020D8605016D822D8E4
:1018B800605009D824D0080D000EF324D96E010E0B
:1018C800F420DA6E1200080D060EF324D96E010E0C
:1018D800F420DA6EDE6ADD6A1200080D040EF324C5
:1018E800D96E010EF420DA6E120003C0DEFF04C0C8
:1018F800DDFF120005C0DEFF06C0DDFF1200602A12
:10190800F28E000CAA0EC9EC10F012C056F013C0EB
:1019180057F0AC0EC9EC10F012C0A9F013C0AAF031
:10192800AE0EC9EC10F012C0A7F013C0A8F0B00EAC
:10193800C9EC10F012C0A5F013C0A6F0B20EC9ECA5
:1019480010F012C0A3F013C0A4F0B40EC9EC10F04C
:1019580012C0A1F013C0A2F0B60EC9EC10F012C06C
:101968009FF013C0A0F0B80EC9EC10F012C09DF0A3
:1019780013C09EF0BA0EC9EC10F0BC0EC9EC10F002
:1019880012C09BF013C09CF0BE0EC9EC10F012C040
:1019980099F013C09AF012001D6E1F6A206A1D503C
:1019A800AB0F2024D96EDA6A1F500708186E17503B
:1019B800030DBC0E196EBF0E1A6EF3501926F450A3
:1019C8001A2220501926000E1A2219C0F6FF1AC032
:1019D800F7FF0800F5CF1BF0182A02D0D8901B3269
:1019E800182EFCD71D50AB0F2024E16EE26AE75099
:1019F8001C6ED8901C341B10DF6E202A020E206447
:101A0800CED71E6A0D0E186EFC0EE82EFED7182EC5
:101A1800FCD71E2A130E1E64F5D7AB0E116E2AECE6
:101A280011F01F2A070E1F64B9D7070C236E256A09
:101A3800266A2350AB0F2624D96EDA6A2550070888
:101A48001E6E1B50050D1CC01FF01DC020F0F3506A
:101A58001F26F450202226501F26000E20221FC0C9
:101A6800F6FF20C0F7FF0800F5CF21F01E2A02D0AC
:101A7800D89021321E2EFCD72350AB0F2624E16EBE
:101A8800E26AE750226ED89022342110DF6E262AAF
:101A9800040E2664CED7246A0D0E1E6EFC0EE82EA8
:101AA800FED71E2EFCD7242A130E2464F5D7AB0EBE
:101AB800116E2AEC11F0252A070E2564B9D7070CF8
:101AC800176A3FD017505FEC0CF00F50DE1838E162
:101AD8001050DE1835E1F29E1750116E126A136825
:101AE80014686050156E166A135015261450162285
:101AF8001150151803E1125016181FE06050116EAE
:101B0800126AD89011361236D89011361236D890FB
:101B180011361236F80E1124D96E000E1220DA6E24
:101B28001750080D000EF324E16E010EF420E26E4A
:101B3800070EDBCFE3FFE806FCE26006F28E120038
:101B4800172A6050175CBEE312000F50101001E115
:101B58001200176A18D017505FEC0CF00F50DE18FF
:101B680011E11050DE180EE1F29E175049EC0BF00F
:101B780025D8175071EC0CF026D8175067EC0CF0EC
:101B8800F28E000C172A6050175CE5E30F0E6060B8
:101B98000F0CF29E60505FEC0CF00FC0DEFF10C01F
:101BA800DDFF605049EC0BF009D8605071EC0CF087
:101BB8000AD8605067EC0CF083EF0CF011C0DEFF20
:101BC80012C0DDFF120013C0DEFF14C0DDFF1200DB
:101BD8000600D9CF0BF0DACF0CF0F3CF0DF0F4CF2D
:101BE8000EF0F2BAF2A403D0F2EC13F029D0F2B856
:101BF800F2A211D0F292010EF1AC000EFF0A0A6EA9
:101C08000A3A0A460A46F1500A18BF0B0A18F16E3A
:101C1800B4EC13F015D09DB09EA008D09E903C0E59
:101C2800CF6EB00ECE6ED9EC13F00AD0A0B2A1A23E
:101C380007D0A192EC0EB36E780EB26E83EC13F05F
:101C48000EC0F4FF0DC0F3FF0CC0DAFF0BC0D9FFC4
:101C5800719211001750D96EDA6A060E62EC12F012
:101C6800DF6E1750D96EDA6A175022D8A9EC13F034
:101C78002DD8050E62EC12F01F0B28D8165018D874
:101C8800A9EC13F019D8040E62EC12F03F0B14D82B
:101C980015500ED8A9EC13F014D8030E62EC12F00C
:101CA800070B0FD8145004D8A9EC13F0DF6E1200FC
:101CB800E16EE26AE7501200DF6E1550D96EDA6AFB
:101CC8001200DF6E1450D96EDA6A1200DF6E1650F9
:101CD800D96EDA6A1200116A1150AC0FD96EDA6A3D
:101CE8001150ACEC0FF0112A1E0E1164F5D7040E3A
:101CF8005D640ED024D807E15D2A1F0E5D64010CD7
:101D08005E6A5D6A000C0001CA6B5D6A5E2A010C9E
:101D180016D8050DC20E0F6EB90E106EF3500F26B1
:101D2800F45010225D500F26000E10220FC0F6FF4F
:101D380010C0F7FF0800F5CFCAF05D2A010C780E35
:101D48005E24D96EDA6A010EDA22DF501200176AB1
:101D5800186A196A1A6A135014101510161029E017
:101D6800010E1B6E06D0D89013361436153616366B
:101D78001B2A16AEF8D7D8901736183619361A36E1
:101D880013500F5C14501058155011581650125813
:101D980009E313500F5E1450105A1550115A16507B
:101DA800125A1780D89016321532143213321B2E5D
:101DB800E2D717C00FF018C010F019C011F01AC000
:101DC80012F012001D6E010E1C6E1F6A1E6A17505B
:101DD800050D18C01AF019C01BF0F3501A26F4505C
:101DE8001B221F501A26000E1B221AC0F6FF1BC00A
:101DF800F7FF0800F5501C1407E01EC00FF01D5037
:101E08001F24FCEC12F006D01EC00FF01D501F243A
:101E18008CEC12F0D8901C361E2A070E1E64D7D7F9
:101E2800010E1C6E1F2A040E1F64D0D7040C186EF6
:101E3800010E176E1A6A196A1450070D8F0E156E67
:101E4800B90E166EF3501526F45016221A501526A0
:101E5800000E162215C0F6FF16C0F7FF0800F55051
:101E6800171407E019C00FF018501A24FCEC12F0F0
:101E780006D019C00FF018501A248CEC12F0D89024
:101E88001736192A070E1964D7D7010E176E1A2AA2
:101E9800060E1A64D0D7060CCB6F0001CB510CE0AC
:101EA800BAEC11F01BC029F01CC02AF01DC02BF0A1
:101EB8001EC02CF0DBEC08F099EC06F014C0CCF056
:101EC80015C0CDF016C0CEF017C0CFF00001CC5130
:101ED800CD11CE11CF1103E13D6A3E6A1200CCC08C
:101EE80029F0CDC02AF0CEC02BF0CFC02CF009ECE1
:101EF80000F029C03DF02AC03EF01200640E186EB2
:101F0800176A196A1950AC0FD96EDA6A195020D8B5
:101F1800192A1F0E1964F6D70001CA6BAB0E116E91
:101F28002AEC11F0166A08D00D0E156EFC0EE82E7C
:101F3800FED7152EFCD7162A1850165CF5E30A0EA4
:101F4800186401D0185E172A1F0E1764DAD71F0C01
:101F5800AB0FE16EE26ADFCFE7FF12001650D96ED1
:101F6800DA6A000E62EC12F0DF6E1650D96EDA6A89
:101F780016505CEC0EF0A9EC13F016D8010E62ECCA
:101F880012F012D815505CEC0EF0A9EC13F011D831
:101F9800020E62EC12F03F0B0CD814505CEC0EF001
:101FA800A9EC13F0DF6E1200DF6E1550D96EDA6AF5
:101FB8001200DF6E1450D96EDA6A1200280EF66E1F
:101FC800280EF76E000EF86E0900F5CF6DF00900C7
:101FD800F5CF6EF00900F5CF6FF001EE00F0DC0EE2
:101FE800EE6AE806FDE100EE80F04B0EEE6AE806C8
:101FF800FDE1706A00EE3FF02E0EEE6AE806FDE1A4
:1020080071907192000EF86E00010BEF10F0820EC5
:102018000001D86FDD0EE82EFED7D82FFCD700D0F0
:1020280048EC11F0D0EC13F0F29EBE0E0F6E120EBB
:10203800106E126A640E116E146A140E136EA9ECF7
:102048000DF04A0E0F6E210E106E126A116A146A94
:10205800010E136EA9EC0DF0F28EE0EC0AF0FDD73C
:10206800176A186A196A1A6A0FA008D01350172637
:10207800145018221550192216501A22D8901336C7
:10208800143615361636D8901232113210320F32F5
:102098000F50101011101210E7E117C00FF018C000
:1020A80010F019C011F01AC012F0120019D08A0EDF
:1020B8006D6EBF0E6E6E1200580E6D6EBF0E6E6E98
:1020C8001200260E6D6EBF0E6E6E1200F40E6D6E4F
:1020D800BE0E6E6E1200C20E6D6EBE0E6E6E1200D9
:1020E8006150010AE4E0030AE7E0010AEAE0070AAE
:1020F800EDE0010AF0E01200146A156A115012109E
:102108001BE0010E136E04D0D89011361236132A34
:1021180012AEFAD7D8901436153611500F5C1250FB
:10212800105805E311500F5E1250105A1480D890C1
:1021380012321132132EEED714C00FF015C010F062
:10214800120081B802D0010E0BD081B202D0020E6B
:1021580007D081B402D0030E03D081B603D0040E99
:102168000F6E01D00F6A0F500EE01F0E5B601F0C40
:102178005B2A1E0E5B18D8A412000FC06FF05B6AB2
:10218800010E5C6E010C5B6A1200166E03EC14F013
:10219800EE0EF9EC13F01650F9EC13F007EC14F00E
:1021A800EF0EF9EC13F0010E0EEC13F0176E186A2F
:1021B800000E0EEC13F0196E1A6AFFEC13F01750AC
:1021C800156E146A19501410126E1A501510136EE9
:1021D80012001850191017E0010E1A6E04D0D8908A
:1021E800183619361A2A19AEFAD71850165C19502B
:1021F800175804E31850165E1950175AD890193218
:1022080018321A2EF2D716C016F017C017F012009F
:1022180082909490070E0F6E7D0EE82EFED70F2E3B
:10222800FCD700F082809480C80E00D0E82EFDD73D
:10223800000E82B0010E106E060E0F6E800EE82E94
:10224800FED70F2EFCD700D010501200146A8C90C5
:10225800136A1350F80D1150F3241424D96EDA6A56
:10226800180ED926DF50126E1428EAEC12F012501C
:10227800EAEC12F0132A030E1364EBD78C80142AAD
:10228800070E1464E4D7070C3DEC13F09EEC13F032
:1022980007EC12F02FEC13F00EEC14F0C7EC13F06F
:1022A80078EC12F0E2EC13F091EC13F086EC0CF001
:1022B800106A0F6ABEEC13F0616E5AEC10F00BEF67
:1022C80014F01F6E1F50A0EC12F01A6E030E59EC9A
:1022D80013F01C50A0EC12F01A6E040E59EC13F017
:1022E8001D50A0EC12F01A6E050E59EC13F01E509A
:1022F800A0EC12F01A6E060E59EF13F0126E146A63
:1023080014C010F012C011F0102A02D0D890113267
:10231800102EFCD71150136E010E13161350C6EC75
:1023280012F0142A070E1464EBD7D20E00D0E82E50
:10233800FDD71200116A126A67EC13F000090CE06D
:1023480012C00FF0010E106E0F2A02D0D89010366E
:102358000F2EFCD710501112F00E00D0E82EFDD72A
:10236800122A070E1264E8D7115012002E0E116EB1
:10237800F40E75EC13F0410E1F6EEE0EE82EFED72C
:102388001F2EFCD700D0F60EC9EC10F012C01BF0BF
:1023980013C01CF0000E1CBEFF0E1D6E1E6E120038
:1023A800106E126A0F5014E0010E116E03D0D8900F
:1023B8000F36112A0FAEFBD7D89012360F50105C8B
:1023C80003E30F50105E1280D8900F32112EF4D70D
:1023D8001250120005D012D813C0DFFF0F4A102A7E
:1023E80011C0F6FF12C0F7FF114A122A0800F5CFF4
:1023F80013F01350F0E102D8DF6A000C0FC0D9FFC8
:1024080010C0DAFF12008C80010E116E0C0E20EC49
:1024180013F0116A090E20EC13F0070E116E0B0E63
:1024280020EC13F0010E116E0A0E20EC13F0116A65
:102438000F0E20EF13F01E6E1D50A0EC12F01A6E56
:10244800000E59EC13F01C50A0EC12F01A6E010E9D
:1024580059EC13F01E50A0EC12F03F0B1A6E020E4E
:1024680059EF13F0126E03EC14F0EE0EF9EC13F0C2
:102478001250F9EC13F007EC14F0EF0EF9EC13F02E
:10248800000E0EEC13F0136EFFEC13F01350120055
:1024980010D0AB0E116E2AEC11F0166A0D0E156EE7
:1024A800FC0EE82EFED7152EFCD7162A3B0E166416
:1024B800F5D76FEC0EF00009ECE11200126E03EC98
:1024C80014F0D00EF9EC13F01250F9EC13F007ECFD
:1024D80014F0D10EF9EC13F0000E0EEC13F0136E9D
:1024E800FFEC13F0135012000CEC11F00009D8A403
:1024F8001200CC0E82EC11F04E0E82EC11F0000EA0
:1025080082EC11F0000E82EC11F07F0E82EF11F0D8
:10251800136E0FC010F0010E116E102A02D0D89061
:102528001136102EFCD7111C126E1350AB0FD96E3A
:10253800DA6A1250DF161200196E0A0E136E19505D
:10254800B3EC12F0176E0F0E17160A0E0F6E195015
:10255800D4EC11F0186E1838F00B17101200146E26
:10256800080E156E166AD89014341634166ED89064
:1025780014361350165C02E31350165E152EF3D76B
:10258800165012000F6E829094900F0406E1060E0A
:10259800E82EFED700D082809480D20E00D0E82E9C
:1025A800FDD7828094801200106EA6B2FED710C0AC
:1025B800A9FF0FC0A8FFA69EA69CA684F29E550E52
:1025C800A76EAA0EA76EA682F28EAA0C0F6E106ACC
:1025D8000FAE02D08C8401D08C948C8200F000F075
:1025E8008C92D8900F36102A070E1064F1D7070C7A
:1025F800126E0FC010F0010E116E102A02D0D89082
:102608001136102EFCD71250AB0FD96EDA6A115062
:10261800DF121200106EEAEC13F0C586EAEC13F034
:10262800C9CF11F0EAEC13F0105002E1C58A01D0CD
:10263800C59AC58811501200126E8C90136A1250F8
:10264800EAEC12F01150EAEC12F0132A030E1364AC
:10265800F6D78C80030CCD903C0ECF6EB00ECE6EAC
:102668009D80B192B180A082EC0EB36E780EB26EEE
:10267800780C8B6A180E946E8A6A1F0E936EF19E00
:102688008C6A956AF18CF292F28882801200F3ECDF
:1026980003F0B2EC0FF0650E146E660E156E670E41
:1026A800166E680E176E2EEF0EF01B6E03EC14F00C
:1026B800D00EF9EC13F01B50F9EC13F01A50F9ECAA
:1026C80013F0FFEF13F082909490030EE82EFED7DC
:1026D80000F082809480140EE82EFED782B0010CA0
:1026E800000C126E03EC14F0EE0EF9EC13F012501D
:1026F800F9EC13F01150F9EC13F0FFEF13F05C5004
:10270800D8B412005A2A140E5A6003D0800E8C1ABC
:10271800800C5A6A5C6A8C9E1200948C948EAC84ED
:10272800AC98AC8AAB88AB8EB886040EB06E100E2F
:10273800AF6E100C180E9412280EC66EC76A630E80
:10274800C86EC584C5A41200FDD7106E10C00FF066
:102758000F0E0F1610380F0B0A0DF3500F2412002E
:10276800960E016E260E026E046A036A066A056AF0
:102778002DEF0CF0A6B2FED70FC0A9FFA69EA69C0F
:10278800A680A85012001A6A0E0E59EC13F0080E13
:102798001A6E0F0E59EF13F00F6A0F50D6EC08F0AF
:1027A8000F2A200E0F64F9D7200C6C2A950E6C6442
:1027B800950C6C6A010E6B6ECD90010CC70ED56E30
:1027C800F28AD76A3D0ED66E606A1200C7B4FED789
:1027D800C5CF0FF01F0E0F16F9E11F0CF294D76A40
:1027E8003D0ED66E010E5F6E010C106EEAEC13F012
:1027F80010C0C9FF1200EAEC13F0C5841200EAEC1D
:1028080013F0C5801200EAEC13F0C5821200959E01
:102818008C9E1200F28EF28C1200040E6F6E040C65
:032828008ABF055F
:10B98E000000000000000000087C4E4F4E7C0804B2
:10B99E0026473F070604203E7F7F3F3E207E121E35
:10B9AE0000701000000101020203040405060607E0
:10B9BE000708090900000000004551453E006B6F65
:10B9CE006B3E003E7C3E1C003C7E3C1800367F36B3
:10B9DE003000000000000000000000000000000029
:10B9EE000000000000000000000000000000000049
:10B9FE000000000000000000000000000000000039
:10BA0E000000000000000000000000000000000028
:10BA1E000000000000000000000000000000000018
:10BA2E000000000000000000000000007C4E4E7C74
:10BA3E000820347E3420000036360000000000005E
:10BA4E0000000000000000000000000000000000E8
:10BA5E0000000000000000000000005F0000000772
:10BA6E00000700147F147F14242A7F2A1223130840
:10BA7E00646236495620500008070300001C22411C
:10BA8E00000041221C002A1C7F1C2A08083E0808C0
:10BA9E000080703000080808080860600000002070
:10BAAE00100804023E5149453E00427F400042616B
:10BABE005149462141454B311814127F10274545F7
:10BACE0045393C4A4949300171090503364949490E
:10BADE0036064949291E0000363600004034000063
:10BAEE0000081422411414141414004122140802E4
:10BAFE00015909063E415D594E7C1211127C7F4957
:10BB0E004949363E414141227F4141413E7F4949AB
:10BB1E0049417F090909013E414151727F080808D8
:10BB2E007F00417F41002040413F017F08142241A8
:10BB3E007F404040407F0204027F7F0408107F3E1A
:10BB4E004141413E7F090909063E4151215E7F096F
:10BB5E00192946264949493201017F01013F4040DA
:10BB6E00403F1F2040201F3F4038403F63140814C1
:10BB7E006303047804036151494543007F4141004A
:10BB8E0002040810200041417F000402010204401B
:10BB9E0040404040000307080020545478407F285E
:10BBAE004444383844444428384444287F38545454
:10BBBE005418087E09020018A4A49C787F08040477
:10BBCE007800447D40002040403D007F1028440016
:10BBDE0000417F40007C047804787C0804047838A7
:10BBEE0044444438FC1824241818242418FC7C04DB
:10BBFE00040800485454542400043F44203C404060
:10BC0E00207C1C2040201C3C4030403C4428102806
:10BC1E00444C9090907C4464544C4400083641004F
:10BC2E000000770000004136080002010204020005
:10BC3E0000000000000000000000000000000000F6
:10BC4E000000000000000000000000000040004066
:10BC5E000040000000000000000000003E5555416D
:10BC6E0022000000000000000000000000000000A4
:10BC7E0000000000000000000000000000000000B6
:10BC8E0000000000000000000000000000000000A6
:10BC9E0000000000000000000000000000000C1E6C
:10BCAE001E0C00000000000000000000000000005C
:10BCBE000000000000000000000000000000000076
:10BCCE000000000000000000000000000000000066
:10BCDE000000000000000000000000000000000056
:10BCEE00000000000000000000000000007E0202C4
:10BCFE000203000000000000000000007E4B4A4BD3
:10BD0E004200000000003E494949220000000000A8
:10BD1E000000000000000000000000000000000015
:10BD2E00417E4100000609090644445F4444004137
:10BD3E007F410000447D4000007C040406000000AA
:10BD4E0000000000000000000000000038555455AF
:10BD5E00180000000000385454544422142A1408C9
:10BD6E002040403D000000000000000000000000E8
:10BD7E00457C41007E1111117E7F494949317F4931
:10BD8E004949367F01010101C07E417EC07F49498C
:10BD9E00494177087F087722414949367F100804C8
:10BDAE007F7E1109057E7F08142241407E01017FAE
:10BDBE007F020C027F7F0808087F3E4141413E7F93
:10BDCE000101017F7F090909063E4141412201011E
:10BDDE007F0101274848483F0E117F110E6314085A
:10BDEE0014637F40407FC0070808087F7F407E4075
:10BDFE007F7F407E40FF017F4444387F4438007F80
:10BE0E007F44444438224149493E7F083E413E46E4
:10BE1E002919097F20545454783C4A4A4A317C549B
:10BE2E00545428007C040404C078447CC038545414
:10BE3E0054186C107C106C28445454287C20100824
:10BE4E007C7C2111097C7C10102844403804047C31
:10BE5E007C0810087C7C1010107C38444444387CDC
:10BE6E000404047C7C141414083844444428040448
:10BE7E007C04044C5050503C18247C2418006C1048
:10BE8E00106C7C40407CC00C1010107C7C407840C4
:10BE9E007C7C407840FC047C5050207C5020007C00
:10BEAE00007C50502044545454387C103844384848
:10BEBE005434147C3E41417F3E00027F7F0062730A
:10BECE00594F462263497F361814127F7F2F4545FE
:10BEDE007D393E49497B320371790F073649497FD7
:10BEEE00362649497F3E3E7F417F3E00027F7F00DE
:10BEFE006273594F462263497F361814127F7F2F83
:10BF0E006F457D393E7F497B320373790F07367F4C
:10BF1E00497F36266F497F3E7F41417F7F00017FFB
:10BF2E007F007151515F5F4149497F7F1F10107F24
:10BF3E007F4F494979797F494979790101017F7F9D
:10BF4E007F49497F7F4F49497F7F7F7F417F7F00B8
:10BF5E00017F7F007373515F5F636B497F7F1F1F8C
:10BF6E00107F7F6F6F4979797F7F497B7B03737970
:10BF7E000F077F7F497F7F6F6F497F7F7F7F417F75
:10BF8E007F00017F7F006171594F474149497F7F93
:10BF9E001F1F107F7F4F4F4979797F7F4979790134
:10BFAE0071790F077F7F497F7F5F5F517F7F000031
:10BFBE00007C447C007C0074545C54547C1C107CCB
:10BFCE005C54747C547404047C7C547C5C547C03FC
:10BFDE00436C6F636B2076312E3020627920497668
:10BFEE00616E5F666400ECEC2EF0F22EF1F22E0024
:01BFFE000042
:020000040020DA
:08000000FFFFFFFFFFFFFFFF00
:020000040030CA
:0E000000FF061E1EFF8181FF0FC00FE00F40A4
:0200000400F00A
:080000000300000000000000F5
:00000001FF
