:0400000007EF00F016
:100008007B8232ED20F09FEF1DF00001A6510DE03C
:1000180028EC28F0176E000EA125D96EDA6A020EB8
:10002800DA2217C0DFFFA12B1200240E02010019EB
:1000380001E15BD384D3B2DB0001826F0201A2DB52
:100048000001816FF5510CE0825105E167EC0FF07A
:10005800D7EC26F009D062EC0FF0D7EC26F004D0EC
:100068005DEC0FF0D7EC26F04F0E3EEC26F04B0E71
:100078003EEC26F00D0E3EEC26F00A0E3EEC26F085
:100088005ED365DB19041A1005E061DB020E19184E
:100098001A101FE10251D00F786E78C005F0010EDA
:1000A8004CEC28F03EEC29F0780403E10001BC6B2D
:1000B80002D09AEC16F0A56B4F0E3EEC26F04B0ED4
:1000C8003EEC26F00D0E3EEC26F00A0E3EEC26F035
:1000D80036D3450E3EEC26F0520E3EEC26F00D0EC1
:1000E8003EEC26F00A0E3EEC26F029D3010E46DB44
:1000F8004CEC28F0BEEC24F022D0020E3FDB4CEC96
:1001080028F0F8D7030E3ADB4CEC28F0F3D7040EAE
:1001180035DB4CEC28F0EED7050E30DB4CEC28F044
:10012800E9D715DB1A500BE11950010ADFE0030A81
:10013800E4E0010AE7E0070AEAE0010AEDE0D00E90
:10014800176E1868020102510DDB1ABE05D01A504D
:1001580007E1060E195C04E2FADA19501A100DE1EB
:10016800450E3EEC26F0520E3EEC26F00D0E3EEC0F
:1001780026F00A0E3EEC26F0E2D24F0E3EEC26F0B8
:100188004B0E3EEC26F00D0E3EEC26F00A0E3EEC31
:1001980026F0D5D2F7DA126E06510A0DF35007256C
:1001A800F00F136E08510A0DF3500925F00F146E65
:1001B800F5DACDEC25F04F0E3EEC26F04B0E3EEC7A
:1001C80026F00D0E3EEC26F00A0E3EEC26F0B7D2D5
:1001D800BEDA19501A1004E0BADA19041A100CE140
:1001E8000251D00F0001BB6FDFDABA6FBBC005F058
:1001F800020E4CEC28F00DD0450E3EEC26F0520EC7
:100208003EEC26F00D0E3EEC26F00A0E3EEC26F0F3
:1002180096D20001BB5109E1BAC005F0030E4CECBF
:1002280028F032EC18F08EEC28F04F0E3EEC26F059
:100238004B0E3EEC26F00D0E3EEC26F00A0E3EEC80
:1002480026F07DD284DA19501A1004E080DA1904F5
:100258001A100AE10251D00F0001B96FB9C005F0B8
:10026800040E4CEC28F00DD0450E3EEC26F0520E54
:100278003EEC26F00D0E3EEC26F00A0E3EEC26F083
:100288005ED24F0E3EEC26F04B0E3EEC26F00D0EE5
:100298003EEC26F00A0E3EEC26F051D258DA195000
:1002A8001A1004E054DA19041A101BE162DA5ADA57
:1002B80019501A1005E05DDA55DA19041A1011E11F
:1002C8000251D00F0001B86F6FDAB76FB8C005F0F0
:1002D800050E4CEC28F0B7C005F0060E4CEC28F0E3
:1002E8000DD0450E3EEC26F0520E3EEC26F00D0EDB
:1002F8003EEC26F00A0E3EEC26F021D24F0E3EECE4
:1003080026F04B0E3EEC26F00D0E3EEC26F00A0EC3
:100318003EEC26F014D21BDA19501A1004E017DA52
:1003280019041A100AE10251D00F0001B66FB6C0C5
:1003380005F0070E4CEC28F00DD0450E3EEC26F0EB
:10034800520E3EEC26F00D0E3EEC26F00A0E3EEC68
:1003580026F0F5D14F0E3EEC26F04B0E3EEC26F083
:100368000D0E3EEC26F00A0E3EEC26F0E8D1EFD951
:1003780019501A1004E0EBD919041A100AE10251B5
:10038800D00F0001B56FB5C005F0080E4CEC28F091
:100398000DD0450E3EEC26F0520E3EEC26F00D0E2A
:1003A8003EEC26F00A0E3EEC26F0C9D14F0E3EEC8C
:1003B80026F04B0E3EEC26F00D0E3EEC26F00A0E13
:1003C8003EEC26F0BCD1C3D919041A1005E0BFD9F8
:1003D800020E19181A100AE10251D00F0001FE6F1F
:1003E800FEC005F0090E4CEC28F00DD0450E3EEC91
:1003F80026F0520E3EEC26F00D0E3EEC26F00A0ECC
:100408003EEC26F09CD14F0E3EEC26F04B0E3EEC17
:1004180026F00D0E3EEC26F00A0E3EEC26F08FD1AB
:100428004F0E3EEC26F04B0E3EEC26F00D0E3EEC49
:1004380026F00A0E3EEC26F0330E186EBB0E176E31
:10044800E00EE82EFED7172EFCD7182EFAD7330E5B
:10045800186EBB0E176EE00EE82EFED7172EFCD7CF
:10046800182EFAD7330E186EBB0E176EE00EE82E54
:10047800FED7172EFCD7182EFAD7330E186EBB0EE0
:10048800176EE00EE82EFED7172EFCD7182EFAD7D7
:10049800FF0055D1740E021902E1030E04D0700E4C
:1004A800021903E1020E776E0DD0450E3EEC26F0E0
:1004B800520E3EEC26F00D0E3EEC26F00A0E3EECF7
:1004C80026F03DD14F0E3EEC26F04B0E3EEC26F0CA
:1004D8000D0E3EEC26F00A0E3EEC26F030D1610EF1
:1004E800021920E11B6A0BD0030E1B24D96EDA6AAD
:1004F800020EDA22960E1B249BEC12F01B2AFD0E2C
:10050800176E1868000E056E020E066EB2EC27F024
:1005180017500526185006221B50055C000E065879
:100528001CE3E2D7750E021907E1000E096E020EF0
:100538000A6E01EC12F011D06F0E02190EE17490E0
:100548004F0E3EEC26F04B0E3EEC26F00D0E3EEC28
:1005580026F00A0E3EEC26F0F2D04F0E3EEC26F0C6
:100568004B0E3EEC26F00D0E3EEC26F00A0E3EEC4D
:1005780026F0ECC0A2F074800001BC6BBAEC1BF052
:1005880069EC1FF059EC09F069EC1FF070EC0DF004
:1005980073EC26F045EC23F0CDEC11F021EC1FF0C4
:1005A8009AEC16F0CCD0086A640EF2D80AEC25F062
:1005B8001FEC09F072EC25F00C50300F3EEC26F0E1
:1005C800086A0A0EE5D80AEC25F01FEC09F072EC6F
:1005D80025F00C50300F3EEC26F0FAC00CF0FBC0B2
:1005E8000DF061EC14F072EC25F00C50300F3EEC7D
:1005F80026F05F0E3EEC26F06BD01B6A0B0E1B64D8
:1006080001D00AD0050E1B24F66EF76ABE0ED1D8AB
:100618003EEC26F01B2AF2D70D0E3EEC26F00A0E11
:100628003EEC26F01B6A080E1B6401D00AD0110E9E
:100638001B24F66EF76ABE0EBCD83EEC26F01B2AC9
:10064800F2D70D0E3EEC26F00A0E3EEC26F040D016
:100658000001FC513EEC26F0086A640E42EC09F0F9
:100668000AEC25F01FEC09F072EC25F00C50300F65
:100678003EEC26F03AEC09F00AEC25F01FEC09F004
:1006880072EC25F00C50300F3EEC26F032EC09F0FD
:1006980072EC25F00C50300F3EEC26F05F0E3EEC6D
:1006A80026F016D0450E3EEC26F0520E3EEC26F013
:1006B8000D0E3EEC26F00A0E3EEC26F009D0025153
:1006C800610A01E170D7150AC3E0020A96E0EAD789
:1006D8004F0E3EEC26F04B0E3EEC26F00D0E3EEC97
:1006E80026F00A0E3EEC26F02AD00151530A01E109
:1006F800F6D6320A01E1D2D5030A01E169D5010A29
:1007080001E1BFD4070A01E145D5010A01E103D699
:10071800030A01E106D5170A01E1BCD6030ACFE0B6
:10072800010A01E18FD5070A01E185D4020A01E136
:100738004AD6010A01E11BD60D0A01E171D6020170
:10074800006B016B026B0001A16B84EF29F0D00EE6
:10075800176E18680251196E1A6A17501926185020
:100768001A221200196E1A6A1750192618501A22DE
:100778001200D00E176E1868035112007A6E7AC0F4
:1007880005F0000C04510A0DF3500525F00F120076
:10079800076EFAC005F0FBC006F0120002510A0D00
:1007A800F3500325F00F120002010351D00F00018E
:1007B8001200F7220800F5501200C6EC27F029C0F5
:1007C80056F02AC057F02BC058F02CC059F0DAEC7C
:1007D80027F029C04AF02AC04BF02BC04CF02CC09F
:1007E8004DF00B0E80DBD89038343C6E39343D6EBA
:1007F8003A343E6E3B343F6E030E406E56C041F0B5
:1008080057C042F058C043F059C044F0406601D088
:1008180007D044344432433242324132402EF6D774
:100828003C50415C056E3D504258066E3E50435860
:10083800076E3F504458086E8BC009F08CC00AF010
:100848004CDBE4EC24F0376601D003D00ADB372E0A
:10085800FAD716DB0C0E47DB040E3C6E56C03DF093
:1008680057C03EF058C03FF059C040F03C6601D038
:1008780003D054DB3C2EFAD738503D5C056E395016
:100888003E58066E3A503F58076E3B504058086E27
:1008980000018D51416E8E51426E436A446A040EC6
:1008A800456E56C046F057C047F058C048F059C08A
:1008B80049F0456601D007D04934493248324732B9
:1008C8004632452EF6D74150465C096E425047588D
:1008D8000A6E435048580B6E445049580C6EE4EC6D
:1008E80024F0376601D003D0BCDA372EFAD7BFDA46
:1008F8000E0E376E01DB89C009F08AC00AF0EDDA06
:10090800E4EC24F0376601D003D0ABDA372EFAD7FF
:10091800C0DA5E506624526E5F506720536E605096
:100928006820546E61506920556E52C005F053C05E
:1009380006F054C007F055C008F0050E096E0A6AA3
:100948000B6A0C6AE4EC24F0800E0524376E000E66
:100958000620386E000E0720396E000E08203A6E09
:1009680038C037F039C038F03AC039F03A6A39BE81
:100978003A6837C04EF038C04FF039C050F03AC02E
:1009880051F035C0D9FF36C0DAFF4EC0DEFF4FC088
:10099800DEFF50C0DEFF51C0DEFF52C037F053C04B
:1009A80038F054C039F055C03AF03A34BDDA000E88
:1009B8003724666E060E3820676EFF0E3920686E83
:1009C800FF0E3A20696E0B0E12DAE4EC24F037665B
:1009D80001D003D046DA372EFAD749DA8DDA97C133
:1009E80009F098C10AF079DAE4EC24F052DA99C1F6
:1009F80005F09AC106F056DAE4EC24F0D8900534F4
:100A0800376E0634386E0734396E08343A6E37500C
:100A18005E2638505F22395060223A506122010127
:100A28009B51376E9C51386E396A3A6A38C03AF031
:100A380037C039F0386A376A020E3B6E5EC03CF048
:100A48005FC03DF060C03EF061C03FF03B6601D042
:100A580007D03F343F323E323D323C323B2EF6D750
:100A680037503C245E6E38503D205F6E39503E2032
:100A7800606E3A503F20616E0D0EB9D9E4EC24F057
:100A8800376601D003D0EDD9372EFAD7F0D9120E38
:100A9800376E030E386E9DC105F09EC106F0000E3C
:100AA8000FDAE4EC24F005C039F006C03AF007C0CC
:100AB8003BF008C03CF0386601D007D03C343C32EB
:100AC8003B323A323932382EF6D787C005F088C023
:100AD80006F0E8D9E4EC24F0C4D9055039243D6E79
:100AE80006503A203E6E07503B203F6E08503C208F
:100AF800406E376601D003D011DA372EFAD73DC0E1
:100B080066F03EC067F03FC068F040C069F00F0E65
:100B1800376E000E6624056E800E6720066E000E86
:100B28006820076E000E6920086EF3C009F0F4C053
:100B38000AF00B6A0C6AE4EC24F0376601D003D0A3
:100B480090D9372EFAD79CD966506710681069106B
:100B580001E112000C0E376E5EC038F05FC039F04C
:100B680060C03AF061C03BF0376601D004D03B3436
:100B7800E0D9372EF9D74AC03CF04BC03DF04CC005
:100B88003EF04DC03FF03C1E3D1E3E1E3F1E3C2A1F
:100B9800000E3D223E223F2238503C5C406E3950C8
:100BA8003D58416E3A503E58426E3B503F58436E56
:100BB800000E4024056E000E4120066E100E4220E5
:100BC800076E000E4320086E350E096E0C0E0A6E75
:100BD8000B6A0C6AE4EC24F005C062F006C063F00E
:100BE80007C064F008C065F0800E655C15E2D89017
:100BF8006234056E6334066E6434076E6534086EBD
:100C080084D9A3EC21F005C062F006C063F007C0E8
:100C180064F008C065F014D062C005F063C006F047
:100C280064C007F065C008F070D9A3EC21F0D89033
:100C38000534626E0634636E0734646E0834656E7C
:100C480062C037F063C038F064C039F065C03AF06C
:100C5800040E02D0D89068D9E82EFCD737C005F02A
:100C680038C006F039C007F03AC008F062C03BF05F
:100C780063C03CF064C03DF065C03EF0040E05D092
:100C8800D8903E323D323C323B32E82EF9D73BC059
:100C980009F03CC00AF03DC00BF03EC00CF0E4EC9B
:100CA80024F00E0E05D0D8900832073206320532ED
:100CB800E82EF9D7DCD80C0E376E91C105F092C139
:100CC80006F0000EFDD8E4EC24F0376601D003D01E
:100CD800C8D8372EFAD7D4D80D0E376E62C038F080
:100CE80063C039F064C03AF065C03BF0030E02D02F
:100CF800D8901FD9E82EFCD738C005F039C006F0C7
:100D08003AC007F03BC008F093C109F094C10AF05B
:100D1800E4D8E4EC24F0376601D003D0A2D8372E0B
:100D2800FAD7B7D8040E376E95C138F096C139F0A6
:100D3800000E39BEFF0E3A6E3B6E665038243C6E8C
:100D4800675039203D6E68503A203E6E69503B200E
:100D58003F6E5E503C24406E5F503D20416E6050B7
:100D68003E20426E61503F20436E376601D007D067
:100D780043344332423241324032372EF6D7625042
:100D88004024626E63504120636E64504220646E5A
:100D980065504320656E070E196E400E1A6E3F0EA1
:100DA8001B6E62C00DF063C00EF064C00FF065C02A
:100DB80010F098EC24F00DC016F00EC017F00FC01C
:100DC80018F02BEC1CF016C025F017C026F018C040
:100DD80027F0EDEC1CF03450D96EDA6A25C0DEFF3E
:100DE80026C0DEFF27C0DEFF28C0DEFF1200376EF8
:100DF800020E386E66C039F067C03AF068C03BF042
:100E080069C03CF0386601D007D03C343C323B32F4
:100E18003A323932382EF6D739C005F03AC006F0E2
:100E28003BC007F03CC008F0020E3D6E66C03EF0C5
:100E380067C03FF068C040F069C041F03D6601D02E
:100E480007D04134413240323F323E323D2EF6D750
:100E58003EC009F03FC00AF040C00BF041C00CF0A2
:100E6800120008340832073206320532120005C073
:100E78005AF006C05BF007C05CF008C05DF01200D5
:100E880005C066F006C067F007C068F008C069F0E2
:100E9800120005C05EF006C05FF007C060F008C031
:100EA80061F01200000E06BEFF0E076E086E66C0E7
:100EB80009F067C00AF068C00BF069C00CF01200B6
:100EC80006BEFF0E076E086E5AC009F05BC00AF036
:100ED8005CC00BF05DC00CF01200000E0ABEFF0EE5
:100EE8000B6E0C6E1200376E00018D51386E8E51EC
:100EF800396E3A6A3B6A12005AC005F05BC006F0C8
:100F08005CC007F05DC008F0120066C009F067C059
:100F18000AF068C00BF069C00CF01200403440328F
:100F28003F323E323D3212003A32393238323732AD
:100F380012003B323A3239323832120074D13EEC68
:100F480029F074A414D0A0D9000EB1EC20F0450EFD
:100F58007AD9090ED7EC1EF0720E75D90F0ED7ECA0
:100F68001EF0720E70D9150ED7EC1EF044D1000198
:100F7800932903E1942901E12BD1FE0503E0935164
:100F8800941170E16BD972EC25F00C502F6E93C060
:100F980005F094C006F08ED90AEC25F005C093F050
:100FA80006C094F0050E2F6403D00001934B942BD8
:100FB8005DD90AEC25F03FD972EC25F00C500D10E4
:100FC8002CE162D9030EB1EC20F000019351941189
:100FD80015E0FCC011F03DD90D0ED7EC1EF03ED93E
:100FE80072EC25F00C5038EC10F0130ED7EC1EF014
:100FF800B00E29D9190ED7EC1EF0FDD02FD972ECFE
:1010080025F00C5038EC10F00D0ED7EC1EF0B00E99
:101018001AD9130ED7EC1EF0EED036D9000EB1EC6B
:1010280020F0FCC011F015D9090ED7EC1EF01ED91E
:101038000AEC25F000D972EC25F00C5038EC10F0D1
:101048000F0ED7EC1EF00AD972EC25F00C5038ECD4
:1010580010F0150ED7EC1EF0B00EF5D81B0ED7EC1D
:101068001EF0C9D0200E306E30504EEC25F0302ADC
:101078002A0E3064F9D7086A640E00D90AEC25F004
:10108800DAD872EC25F00CC029F00DC02AF0EED8A1
:101098000AEC25F0D0D872EC25F00CC02BF00DC06E
:1010A8002CF0DCD872EC25F00CC02DF00DC02EF021
:1010B80033EC1BF03C0E136EBE0E146E29C015F0F7
:1010C8002AC016F02BC017F02CC018F0000E1A6EAC
:1010D8002E0E196E2DC01BF02EC01CF0000E1E6EB9
:1010E800B00E1D6E65EC14F0300E01019F193CE046
:1010F800CBD8030EB1EC20F0FCC011F0AAD80B0E2F
:10110800D7EC1EF001019F51D00F38EC10F0110EF2
:10111800D7EC1EF0BFD838EC10F0170ED7EC1EF045
:10112800A1C111F096D81D0ED7EC1EF00101A251F5
:10113800D00F25EC11F0200EEEEC20F0A3C111F039
:1011480055EC0FF0260EEEEC20F0330E286EBB0E99
:10115800276EE00EE82EFED7272EFCD7282EFAD7CA
:101168000A0EA3EC23F047D08FD8010EB1EC20F083
:10117800FCC011F06ED80B0ED7EC1EF08BD838ECF3
:1011880010F0110ED7EC1EF0A1C111F062D8170EA5
:10119800D7EC1EF00101A251D00F38EC10F01A0E56
:1011A800D7EC1EF0A3C111F055EC0FF0200EEEECB9
:1011B80020F0330E286EBB0E276EE00EE82EFED709
:1011C800272EFCD7282EFAD7080EA3EC23F013D02D
:1011D8005BD8000EB1EC20F02D0E35D8090ED7ECF7
:1011E8001EF02D0E30D80F0ED7EC1EF02D0E2BD87A
:1011F800150ED7EC1EF0AEEC1BF050D821EF1FF007
:10120800050E776E49EC23F07AEC0FF0BAEC13F088
:1012180069EC1FF04AD869EC1FF045EC23F0CDECDF
:1012280011F021EF1FF07750040AEAE0010A01E10A
:1012380086D6030A120005C00CF006C00DF00F6A2E
:101248000A0E0E6E0A0C116EEA0E126EB70E136EAF
:101258001200EA0E126EB70E136E120093C00CF055
:1012680094C00DF00F6A0A0E0E6E0A0C086A0A0E78
:10127800076E93C005F094C006F00A0C076E93C081
:1012880005F094C006F01200020E0C6EBD0E0D6E35
:101298000E6A12000101A051D00F1200020E086E52
:1012A8008A0E076E0A6A096A8A0C440E056E0F0ECA
:1012B800066E1200086A0A0E076E0A0C1F6E2AD103
:1012C8000001BC6B206A3EEC10F0EA518DEC26F070
:1012D80015EC28F000090BE03EEC10F0EA518DEC1B
:1012E80026F015EC28F01ED9BD0F47D903D02050A1
:1012F8004EEC25F04FEC10F015EC28F013D9C30F85
:101308003CD93EEC10F0E9518DEC26F015EC28F0B4
:1013180009D9CA0F32D94AEC10F015EC28F002D9D5
:10132800D00F2BD9202A040E2064CDD7206A3EEC9A
:1013380010F0E8518DEC26F015EC28F018D905D9F5
:10134800D60F1BD959EC10F015EC28F010D9FDD8A0
:10135800DA0F13D9202A020E2064E9D70001C26BE4
:10136800800EC86FC96FCF6BD56BD96B1200010E99
:101378000001BC6F08D98DEC26F015EC28F00001AF
:10138800B36F0BD915EC28F00001B26F01D98DECC1
:1013980026F015EC28F00001B16F03D915EC28F000
:1013A8000001B06FB351AD1909E1B251AC1906E1B2
:1013B800B151AB1903E1B051AA1974E0B051AA199F
:1013C80009E0EFD815EC28F038EC10F0190ED7EC3E
:1013D8001EF008D0E6D815EC28F025EC11F0190E0F
:1013E800EEEC20F00001B151AB190BE0D1D88DEC37
:1013F80026F015EC28F038EC10F0130ED7EC1EF0A0
:101408000AD0C6D88DEC26F015EC28F025EC11F0A2
:10141800130EEEEC20F00001B251AC1909E0BDD872
:1014280015EC28F038EC10F0070ED7EC1EF008D0B9
:10143800B4D815EC28F025EC11F0070EEEEC20F0EE
:101448003EEC10F0EA518DEC26F015EC28F000097E
:101458001AE00001B351AD190BE095D88DEC26F0D8
:1014680015EC28F038EC10F0010ED7EC1EF011D076
:101478008AD88DEC26F015EC28F025EC11F0010E39
:10148800EEEC20F006D0116A2DEC09F0010ED7EC35
:101498001EF0B3C0ADF0B2C0ACF0B1C0ABF0B0C09C
:1014A800AAF0120070D88DEC26F015EC28F000098F
:1014B8000DE03EEC10F0EA518DEC26F015EC28F02A
:1014C80025EC11F0010EEEEC20F006D0116A55EC77
:1014D8000FF0010EEEEC20F04FEC10F015EC28F0B8
:1014E80025EC11F0070EEEEC20F03EEC10F0E9517F
:1014F8008DEC26F015EC28F025EC11F0130EEEEC2F
:1015080020F04AEC10F015EC28F025EC11F0190E3B
:10151800EEEF20F01F50010A01E1D2D6030A01E1E3
:1015280026D71200050D75C01DF076C01EF0F350C9
:101538001D26F4501E2220501D26000E1E221DC0FE
:10154800F6FF1EC0F7FF20501200F3501D26F4507E
:101558001E2220501D26000E1E22030E1D26000EE0
:101568001E221DC0F6FF1EC0F7FF20501200030DFB
:10157800E40E1D6EBD0E1E6E1200D96EDA6A0800EA
:10158800F5CFDFFF12000A0E096E056EEA51120050
:101598000A0E096E056EE95112000A0E096EEA512B
:1015A80012000A0E096EE951120042D067D969EC9F
:1015B8001FF0440E056E250ECDEC11F021EC1FF046
:1015C800AFEC13F021EC1FF036EC13F03BD056D9FA
:1015D80069EC1FF0BAEC13F069EC1FF045EC23F04E
:1015E800CDEC11F021EC1FF00AEC16F03EEC29F0DE
:1015F80029D00001852B0C0E856502D0010E856F60
:10160800AFEC13F021EC1FF026EC13F0CDEC25F035
:1016180019D000018507855102E10C0E856FAFECEA
:1016280013F021EC1FF026EC13F0CDEC25F00AD0D6
:101638007750010ABBE0030ADCE0010AEAE0070A86
:10164800C6E0010A74A6FFD07A0EF66EBE0EF76EDB
:1016580000D9000EEEEC20F07B0EF66EBE0EF76E93
:10166800F8D8060EEEEC20F07C0EF66EBE0EF76E85
:10167800F0D80C0EEEEC20F0C6D0CB0EF66EBE0EF7
:10168800F76EE7D8120EEEEC20F0CC0EF66EBE0E1A
:10169800F76EDFD8180EEEEC20F0D5D0C20EF66E3D
:1016A800BE0EF76ED6D8120EEEEC20F0C30EF66E14
:1016B800BE0EF76ECED8180EEEEC20F0C4D0A70EF2
:1016C800F66EBE0EF76EC5D8120EEEEC20F0A80E20
:1016D800F66EBE0EF76EBDD8180EEEEC20F0B3D045
:1016E8009B0EF66EBE0EF76EB4D8120EEEEC20F01E
:1016F8009C0EF66EBE0EF76EACD8180EEEEC20F00F
:10170800A2D0B30EF66EBE0EF76EA3D8120EEEEC94
:1017180020F0B40EF66EBE0EF76E9BD8180EEEECE7
:1017280020F091D0B60EF66EBE0EF76E92D8120E5D
:10173800EEEC20F0B70EF66EBE0EF76E8AD8180ED5
:10174800EEEC20F080D0A40EF66EBE0EF76E81D8B7
:10175800120EEEEC20F0A50EF66EBE0EF76E79D8DE
:10176800180EEEEC20F06FD084D873D8120EEEEC81
:1017780020F07AD86ED8180EEEEC20F064D0AA0EBD
:10178800F66EBE0EF76E65D8120EEEEC20F0AB0EBC
:10179800F66EBE0EF76E5DD8180EEEEC20F053D044
:1017A800980EF66EBE0EF76E54D8120EEEEC20F0C0
:1017B800990EF66EBE0EF76E4CD8180EEEEC20F0B1
:1017C80042D0B90EF66EBE0EF76E43D8120EEEEC8E
:1017D80020F0BA0EF66EBE0EF76E3BD8180EEEEC81
:1017E80020F031D0AD0EF66EBE0EF76E32D8120E66
:1017F800EEEC20F0AE0EF66EBE0EF76E2AD8180E7E
:10180800EEEC20F020D000018551010A01E135D726
:10181800030A01E143D7010A01E151D7070A01E1AF
:101828005FD7010A01E16DD7030A01E17BD7010AFD
:101838008AE00F0A99E0010AA2E0030AB1E0010A6E
:10184800C0E0070ACFE0BD0E076EAFEC25F0748646
:1018580012000800F5CF11F0EA0E126EB70E136EE3
:10186800BD0E146E156A1200B10EF66EBE0EF76E3E
:101878001200B00EF66EBE0EF76E1200B20E056EB6
:10188800150E066E1200B4D0785062EC09F0020E04
:10189800781803E19AEC16F002D00001BC6B050E33
:1018A800E8650DD0070EE8610AD0F90E116EF80E42
:1018B800126EF60E136EF70E146ED0EC13F00E0EB9
:1018C8000001E86505D0100EE86102D0030E776EBE
:1018D800B65101E19BD0270EE86598D0290EE86142
:1018E80095D0E9B193D0020E7AD0EBD869EC1FF00D
:1018F800BC0E056E200E066EE9D821EC1FF0AFEC89
:1019080013F021EC1FF020EEE8F010EE80F0060E48
:10191800DBCFE3FFE806FCE2050E776E7496020E55
:10192800781874E10001C9D855EC0FF00D0EEEECF3
:1019380020F06CD00001BC6BEF0E346EF10E356EEA
:10194800010E366EE1EC03F0020E781807E1170E6F
:10195800116E55EC0FF00D0EEEEC20F049EC23F073
:10196800B0D869EC1FF08E0E056E350ECDEC11F077
:1019780021EC1FF00AEC16F049D00001B85120E024
:10198800BC6B6E506A6E6D50936F6AC094F0020E15
:10199800781807E1170E116E55EC0FF00D0EEEECEE
:1019A80020F049EC23F08DD869EC1FF0860E056E07
:1019B800360ECDEC11F021EC1FF00AEC16F00ED02B
:1019C800B7510CE0BC6B020E7818EBE1170E116EE4
:1019D80055EC0FF00D0EEEEC20F0E3D7050E776E08
:1019E80015D0050E776EBAEC13F069EC1FF00ED027
:1019F8007750010A01E179D7030A9CE0010ABDE0AA
:101A0800070AEFE0010A01E13FD7030A74A604D0F0
:101A1800BD0E076EAFEC25F00001BB5108E0E8A150
:101A280074A205D0749270EC28F032EC27F074861A
:101A380003EC29F0000913E06C0E0B6ED5EC28F0CE
:101A480059EC26F06E506A6E6D500001936F6AC0B3
:101A580094F06CC0FCF0916B926B749403D000010D
:101A6800914B922BE90E915D030E925906E3748413
:101A780059EC26F036D8F1EC1DF00001A251EC1912
:101A88001AE1050E096EE95115EC28F00009D8A4F1
:101A98001200230E0001E819D8B474A012000DD862
:101AA80055EC0FF00D0EEEEC20F016D873EC26F086
:101AB800010EBC6F010C74901200BC6B170E116EF6
:101AC800170C8E0E056E180E066E1200086A076A4D
:101AD8000A6A320E096E320C960E0B6E020E0C6EEE
:101AE8001200040E0E6E780C42D001D969EC1FF07A
:101AF800740E056E300ECDEC11F021EC1FF0AFEC3A
:101B080013F021EC1FF036EC13F03BD0F0D869EC61
:101B18001FF0BAEC13F069EC1FF045EC23F0CDECA4
:101B280011F021EC1FF00AEC16F03EEC29F029D058
:101B38000001832B070E836502D0010E836FAFEC83
:101B480013F021EC1FF026EC13F0CDEC25F019D0A2
:101B580000018307835102E1070E836FAFEC13F096
:101B680021EC1FF026EC13F0CDEC25F00AD07750CD
:101B7800010ABBE0030ADCE0010AEAE0070AC6E062
:101B8800010A74A6AED06E0EF66EBE0EF76E2DEC80
:101B98000CF0000EEEEC20F06F0EF66EBE0EF76E37
:101BA8002DEC0CF0060EEEEC20F0700EF66EBE0E6C
:101BB800F76E2DEC0CF00C0EEEEC20F081D0A10E9F
:101BC800F66EBE0EF76E2DEC0CF0120EEEEC20F059
:101BD800A20EF66EBE0EF76E2DEC0CF0180EEEECA3
:101BE80020F07FD0BF0EF66EBE0EF76E2DEC0CF017
:101BF800120EEEEC20F0C00EF66EBE0EF76E2DEC57
:101C08000CF0180EEEEC20F06CD03DEC0CF02DEC46
:101C18000CF0120EEEEC20F038EC0CF02DEC0CF081
:101C2800180EEEEC20F05DD0C80EF66EBE0EF76E04
:101C38002DEC0CF0120EEEEC20F0C90EF66EBE0E76
:101C4800F76E2DEC0CF0180EEEEC20F04AD0C50E15
:101C5800F66EBE0EF76E2DEC0CF0120EEEEC20F0C8
:101C6800C60EF66EBE0EF76E2DEC0CF0180EEEECEE
:101C780020F037D0920EF66EBE0EF76E2DEC0CF0FB
:101C8800120EEEEC20F0930EF66EBE0EF76E2DECF3
:101C98000CF0180EEEEC20F024D09E0EF66EBE0E60
:101CA800F76E2DEC0CF0120EEEEC20F09F0EF66E97
:101CB800BE0EF76E2DEC0CF0180EEEEC20F011D0E5
:101CC80000018351010AE9E0030A01E178D7010A1A
:101CD80089E0070A9AE0010AA7E0030AB8E0010AC6
:101CE800C9E0BD0E076EAFEC25F074861200F00E49
:101CF800056E1A0E066E120074B802D074885CD095
:101D080074985AD0EED869EC1FF00C0E056E2B0EA5
:101D1800CDEC11F021EC1FF0AFEC13F021EC1FF02B
:101D2800050E776E3EEC29F0749650D0DAD869EC3F
:101D38001FF0BAEC13F069EC1FF045EC23F0CDEC82
:101D480011F021EC1FF0050E776E3EEC29F03ED025
:101D58000001822B170E826501D0826BAFEC13F065
:101D680021EC1FF0B9D80AE0825104E1ACD8D7ECD5
:101D780026F02CD0A3D8D7EC26F028D09AD8D7ECC8
:101D880026F024D000018207822902E1170E826F13
:101D9800AFEC13F021EC1FF09FD80AE0825104E168
:101DA80092D8D7EC26F012D089D8D7EC26F00ED0EE
:101DB80080D8D7EC26F00AD07750010AA3E0030AAE
:101DC800C7E0010ADFE0070AB1E0010A74A663D0A0
:101DD80074A84AD0780424E13EEC10F082518DECCE
:101DE80026F015EC28F000090DE03EEC10F08251C9
:101DF8008DEC26F015EC28F025EC11F0000EEEEC39
:101E080020F005D0116A4DD8000EEEEC20F05FD816
:101E180015EC28F025EC11F0060EEEEC20F03BD086
:101E28003EEC10F082518DEC26F015EC28F00009FC
:101E38000DE03EEC10F082518DEC26F015EC28F008
:101E480025EC11F0010EEEEC20F005D0116A29D82E
:101E5800010EEEEC20F03BD815EC28F025EC11F043
:101E6800070EEEEC20F017D078040BE1116A19D8B0
:101E7800000EEEEC20F0116A14D8060EEEEC20F0FD
:101E88000AD0116A0ED8010EEEEC20F0116A09D8BA
:101E9800070EEEEC20F0BD0E076EAFEC25F0748651
:101EA8001200EA0E126EB70E136EBD0E146E156A8E
:101EB800120081C012F0136A8251120081C012F020
:101EC800136A8205120081C012F0136A170C0A0EF9
:101ED800096E000182511200050E776E0001F5515E
:101EE8001200000E056E1D0E066E12003EEC29F063
:101EF800B4D0C0D8EA518DEC26F015EC28F00009D2
:101F08000BE0B8D8EA518DEC26F015EC28F0ACD8E7
:101F1800000ED7EC1EF006D0116A2DEC09F0000E69
:101F2800D7EC1EF0B8D815EC28F09ED8060ED7ECE2
:101F38001EF0A0D8E9518DEC26F015EC28F094D8C5
:101F48000D0ED7EC1EF0A2D815EC28F08DD8130E84
:101F5800D7EC1EF094D8ECEC22F08CD8E8518DEC3C
:101F680026F015EC28F0266E26280D6E190E8DEC3D
:101F78001EF09BD815EC28F0266E26280D6E1D0E37
:101F88008DEC1EF00001B55102E183EF15F088D801
:101F9800CDEC19F083EF15F06DD8EA518DEC26F0F1
:101FA80015EC28F000090BE065D8EA518DEC26F015
:101FB80015EC28F059D8010ED7EC1EF006D0116A9E
:101FC8002DEC09F0010ED7EC1EF065D815EC28F0C1
:101FD8004BD8070ED7EC1EF03A0E27EC09F00D0E81
:101FE800D7EC1EF04CD8ECEC22F044D8E9518DEC3B
:101FF80026F015EC28F038D8130ED7EC1EF046D88A
:1020080015EC28F031D8190ED7EC1EF00001B551A7
:1020180003E046D8CDEC19F0010E0001BC6FA56BAA
:10202800C7EC0AF08DEC26F015EC28F00001AD6F36
:10203800D1EC0AF015EC28F00001AC6FCCEC0AF0FA
:102048008DEC26F015EC28F00001AB6FD5EC0AF00A
:1020580015EC28F00001AA6F12007850010A01E17E
:1020680048D7030A99E01200116E75C012F076C0C5
:1020780013F012000A0E096E056E00010A0CEA0E32
:102088000A6EE90E0B6EE80E0C6E12000A0E096E4F
:102098000001E95112000A0E096E0001EA5112000E
:1020A800E80E216EF50E226E12000A0E096E00016E
:1020B800E851120074B802D074886CD074986AD051
:1020C800D4D869EC1FF0000E056E1D0E066E6AEC82
:1020D8000DF021EC1FF0AFEC13F021EC1FF07804A9
:1020E80013E13EEC10F081518DEC26F015EC28F050
:1020F800A8D80D0EEEEC20F0ADD815EC28F0A1D83C
:10210800130EEEEC20F013D03EEC10F0E9518DECFC
:1021180026F015EC28F095D8130EEEEC20F04AECDA
:1021280010F015EC28F08DD8190EEEEC20F00AEC22
:1021380016F03AD09AD869EC1FF0BAEC13F069ECB3
:102148001FF045EC23F0CDEC11F021EC1FF0050E4B
:10215800776E3EEC29F028D00001812B3B0E81657B
:1021680001D0816BAFEC13F021EC1FF078D8D7ECDD
:1021780026F0050E776E18D000018107812902E14B
:102188003B0E816FAFEC13F021EC1FF068D8D7EC51
:1021980026F0EFD77750010A93E0030ADDE0010A41
:1021A800EBE0070AC7E0010A74A645D074A828D056
:1021B800780413E13EEC10F081518DEC26F015EC1B
:1021C80028F03FD80D0EEEEC20F044D815EC28F09E
:1021D80038D8130EEEEC20F02ED03EEC10F08151E2
:1021E8008DEC26F015EC28F02CD8130EEEEC20F030
:1021F80031D815EC28F025D8190EEEEC20F01BD0BC
:1022080078040DE1116A55EC0FF00D0EEEEC20F09C
:10221800116A55EC0FF0130EEEEC20F00CD0116A99
:1022280055EC0FF0130EEEEC20F0116A55EC0FF0A0
:10223800190EEEEC20F0BD0E076EAFEC25F074869B
:102248001200116E75C012F076C013F0BD0E146E38
:10225800156A12000A0E096E00018151120081C030
:1022680012F0136A000182511200BC0E056E200E96
:10227800066E120042D00001BB5110E0ABD869ECE9
:102288001FF0A4D886D821EC1FF0AFEC13F021EC96
:102298001FF00AEC16F03EEC29F039D09BD869EC17
:1022A8001FF0640E056E2F0E74D821EC1FF0A1D814
:1022B80035EC29F099D88EEC28F0E7D78BD869EC63
:1022C8001FF0BAEC13F069EC1FF045EC23F061D86D
:1022D80021EC1FF0DED764D8AFEC13F021EC1FF02F
:1022E8007ED84CEC28F013D05BD8AFEC13F021EC7F
:1022F8001FF075D84CEC28F00AD07750010ABBE0E3
:10230800030AE9E0010AF0E0070AD8E0010A74A626
:102318003AD057D82DEC0CF0000EEEEC20F04CD84B
:102328002DEC0CF0060EEEEC20F041D82DEC0CF064
:102338000C0EEEEC20F00001BB5113E0950EF66E8A
:10234800BE0EF76E2DEC0CF0120EEEEC20F0960E91
:10235800F66EBE0EF76E2DEC0CF0180EEEEC20F0BB
:1023680012D0BC0EF66EBE0EF76E2DEC0CF0120EEF
:10237800EEEC20F0BD0EF66EBE0EF76E2DEC0CF0F6
:10238800180EEEEC20F0BD0E076EAFEC25F074864B
:102398001200066E086A076A0A6A140E096E140C9F
:1023A8000001BB51010ED8A4000EBB6F1200840EB1
:1023B800F66EBE0EF76E1200830EF66EBE0EF76E48
:1023C8001200820EF66EBE0EF76E1200840E056EB7
:1023D800310E12007C0E056E220E066E1200050EDE
:1023E800776EBBC005F0020C0001BA6FBAC007F0E7
:1023F8000A0C066A030E056E030C146A09C005F080
:102408000AC006F0B2EC27F00550FD0F126E136AF1
:102418007DD080D8030E85D8C00EDF646FD07AD8FF
:10242800040E7FD8DF500D6E145009240E6E000E76
:102438000A200F6E030E0E24D96E000E0F20DA6EDE
:10244800DF50106E0D50156E10C016F0840E151862
:1024580005E1D00E161802E1DA0E0FD0860E151817
:1024680005E1D00E161802E1D40E07D0870E151814
:1024780007E1D00E161804E1D80E155ECF0E08D06D
:10248800940E151807E1D10E161804E1DA0E11D0D2
:10249800165A28D0960E151805E1D10E161802E125
:1024A800E30E07D0970E151807E1D10E161804E1B0
:1024B800D80E155ED00EECD7C00E155CD00E16588F
:1024C80003E2300E15260DD0800E155CD10E16587D
:1024D80009E3900E155CD10E165804E2700E15260D
:1024E8002F0E1622960E1324D96EDA6A020EDA22FD
:1024F80015C0DFFF020E1426120607D00BD8030EF4
:1025080010D8960E132413D8142A132A1350125CC9
:1025180080E21200145009240B6E000E0A200C6E83
:1025280012000B24D96E000E0C20DA6E1200E16E38
:10253800E26A020EE222DFCFE7FF12003FD08DD819
:1025480069EC1FF0F00E056E1A0ECDEC11F021ECBF
:102558001FF0AFEC13F021EC1FF084D839D07DD8F0
:1025680069EC1FF0BAEC13F069EC1FF045EC23F0AE
:10257800CDEC11F021EC1FF00AEC16F03EEC29F03E
:1025880027D00001842B1F0E846502D0010E846FB2
:10259800AFEC13F021EC1FF055D8CDEC25F018D096
:1025A80000018407845102E11F0E846FAFEC13F021
:1025B80021EC1FF047D8CDEC25F00AD07750010A5E
:1025C800BEE0030ADEE0010AEBE0070AC8E0010A00
:1025D80074A632D07E0EF66EBE0EF76E2DEC0CF0A1
:1025E800000EEEEC20F07F0EF66EBE0EF76E2DECB0
:1025F8000CF0060EEEEC20F0800EF66EBE0EF76EB6
:102608002DEC0CF00C0EEEEC20F03EEC10F08451AA
:102618008DEC26F015EC28F025EC11F0120EEEECFE
:1026280020F00A0E096E0001845115EC28F025EC03
:1026380011F0180EEEEC20F0BD0E076EAFEC25F091
:1026480074861200050E776E84C012F085C013F0F0
:1026580086C014F0000183511200440E056E250E49
:10266800066E1200050E776E7486050C2FD08FD873
:1026780069EC1FF0960E056E340ECDEC11F021ECCE
:102688001FF069D821EC1FF00AEC16F03EEC29F097
:1026980027D07DD869EC1FF045EC23F0CDEC11F084
:1026A80021EC1FF063D869EC1FF0EED764D853D83B
:1026B80021EC1FF067D84CEC28F012D05CD84BD82E
:1026C80021EC1FF05FD84CEC28F00AD07750010AB3
:1026D800CEE0030AEBE0010AF1E0070ADAE0010ABA
:1026E80074A633D0860EF66EBE0EF76E2DEC0CF087
:1026F800000EEEEC20F0870EF66EBE0EF76E2DEC97
:102708000CF0060EEEEC20F0880EF66EBE0EF76E9C
:102718002DEC0CF00C0EEEEC20F00001B65108E0A8
:102728002B0E116E55EC0FF0120EEEEC20F007D0C8
:102738002D0E116E55EC0FF0120EEEEC20F0116A12
:1027480055EC0FF0180EEEEC20F0BD0E076EAFEC56
:1027580025F074861200340E056E530E066E070EB1
:10276800086ED00E076E0A6A096AD00C340E056E20
:10277800530E066E12000001B651010ED8A4000EC9
:10278800B66F1200050E776EB6C005F0070C740E12
:10279800056E260E066E12001250D96EDA6A2B0EDE
:1027A800DF6E81D091EC25F00009D8A41200CC0E80
:1027B800EAEC25F0440EEAEC25F01450D96EDA6AFA
:1027C800DF6A1350D96EDA6A020EDF6ECD80020C12
:1027D80091EC25F0CC0EEAEC25F0BE0EEAEC25F0E3
:1027E800196A880E1924D96EDA6A010EDA2206EC03
:1027F80026F0DF6E192A010E1964F3D701018951F9
:10280800156E88511A6E15C01BF01BAE09D01A6CD4
:102818001B1ED8B01B2A1250D96EDA6A2D0EDF6E35
:102828001A500F0B186EC60E1824F66EF76AB70EFC
:10283800F7220800F5CF18F01A3A1B3A0F0E1A16AD
:102848001B50F00B1A120F0E1B161A500A0DF3CF5D
:102858001AF0F4CF1BF018501A26000E1B221AC0CB
:102868000CF01BC00DF029D872EC25F00C50176E37
:102878001AC005F01BC006F05EEC09F00AEC25F062
:1028880005C01AF006C01BF0050E176402D01A4ADC
:102898001B2A1150D96EDA6A1AC0DFFF1350D96E9D
:1028A800DA6ADF6A000C1350D96EDA6ADF5001E188
:1028B80079D7010A8DE0030A12000F6A0A0E0E6E1C
:1028C8000A0C150E246E6ED0250E25182DE083D81F
:1028D80025C0DFFF114A122A65D02450D96EDA6A62
:1028E800DECF22F0DDCF23F0020E24262250231063
:1028F8000EE15A0E226EBE0E236E09D071D86BD827
:102908000800F5CFDFFF224A232A114A122A68D885
:102918000800F55047E0F2D72450D96EDA6ADF5044
:10292800256E020E2426D3D742D83EE0630AF4E08F
:10293800100AD3E0060ACBE12450D96EDA6ADECF5A
:102948001FF0DDCF20F0020E2426010E256E255043
:1029580039D8F5501F5C0900F550205804E3252AA2
:10296800050E2518F4E125C021F019D021502AD8E8
:10297800F5CF07F00A00F5CF08F01FC005F020C01A
:1029880006F00AEC25F01FEC09F072EC25F00C506B
:10299800300F256E20D825C0DFFF114A122A2106E4
:1029A8002128E4E104D890E116D8DF6A000C13C0AE
:1029B800F6FF14C0F7FF134A142A0800F5CF25F0D4
:1029C80025501200020DD60EF324F66EB70EF42031
:1029D800F76E0900120011C0D9FF12C0DAFF120009
:1029E80022C0F6FF23C0F7FF12003CD083D869EC61
:1029F8001FF07C0E056E220ECDEC11F021EC1FF0BD
:102A0800AFEC13F021EC1FF00AEC16F03EEC29F0C5
:102A180033D070D869EC1FF0BAEC13F069EC1FF0F2
:102A280045EC23F0CDEC11F021EC1FF0EDD7782A1E
:102A3800020E786402D0010E786EAFEC13F021EC30
:102A48001FF053D84CEC28F017D07806785002E1E4
:102A5800020E786EAFEC13F021EC1FF046D84CEC68
:102A680028F00AD07750010AC1E0030AE0E0010A21
:102A7800ECE0070ACEE0010A74A62BD0720EF66EBF
:102A8800BE0EF76E2DEC0CF0000EEEEC20F0730E7F
:102A9800F66EBE0EF76E2DEC0CF0060EEEEC20F086
:102AA800740EF66EBE0EF76E2DEC0CF00C0EEEECFE
:102AB80020F00A0E096E785015EC28F025EC11F07C
:102AC800120EEEEC20F0116A55EC0FF0180EEEEC39
:102AD80020F0BD0E076EAFEC25F07486780401E196
:102AE8000ED0010E0001BC6F010C050E776E78C088
:102AF80005F0010CF20E056E290E066E120000019B
:102B0800BC6B12003FD086D869EC1FF0B20E056E80
:102B1800150ECDEC11F021EC1FF0AFEC13F021EC09
:102B28001FF074D839D076D869EC1FF0BAEC13F0DE
:102B380069EC1FF045EC23F0CDEC11F021EC1FF00F
:102B480065D83EEC29F028D00001862B630E8665F7
:102B580001D0866BAFEC13F021EC1FF026EC13F0DC
:102B6800CDEC25F019D000018607862902E1630E15
:102B7800866FAFEC13F021EC1FF026EC13F0CDECD0
:102B880025F00AD07750010ABEE0030ADDE0010A09
:102B9800EAE0070AC8E0010A74A632D06A0EF66EA7
:102BA800BE0EF76E2DEC0CF0000EEEEC20F06B0E66
:102BB800F66EBE0EF76E2DEC0CF0060EEEEC20F065
:102BC8006C0EF66EBE0EF76E2DEC0CF00C0EEEECE5
:102BD80020F03EEC10F086518DEC26F015EC28F034
:102BE80025EC11F0120EEEEC20F00A0E096E000131
:102BF800865115EC28F025EC11F0180EEEEC20F0BB
:102C0800BD0E076EAFEC25F074861200050E776EC8
:102C18007496050C0C0E056E2B0E066E120053EC06
:102C280025F0EDEC28F0BFEC26F0ABEC28F097ECA3
:102C380029F023EC29F09EEC27F057EC29F074ECEE
:102C480027F08FEC1CF0066A056A35EC29F07A6EDD
:102C5800066A010E056E35EC29F0786E780403E1FA
:102C68000001BC6B01D062D8066A020E056E35EC15
:102C780029F00001BB6FFDEC11F035EC29F0F8EC00
:102C880011F08EEC28F0BEEC24F094EC29F04FEC17
:102C980029F075EC0DF0F1EC1DF0120E056E000E2A
:102CA800066E086A280E076E38D821EC1FF0A00EB1
:102CB800056E440E36D831D821EC1FF0066A040E92
:102CC800056E35EC29F00001B96F066A050E056E30
:102CD80035EC29F00001B86F066A060E056E35EC72
:102CE80029F00001B76F066A070E056E35EC29F06A
:102CF8000001B66F066A080E056E35EC29F0000172
:102D0800B56F066A090E056E35EC29F00001FE6FF5
:102D1800066A030E056E47EF29F00A6A140E096E5B
:102D2800140C066E086A640E076E640C010E00012E
:102D3800BC6F010C33D083D869EC1FF0740E056E9C
:102D4800260ECDEC11F021EC1FF0AFEC13F021ECC6
:102D58001FF00AEC16F03EEC29F02AD070D869EC86
:102D68001FF045EC23F0CDEC11F021EC1FF0BAEC8C
:102D780013F069EC1FF0EDD756D8AFEC13F021EC47
:102D88001FF058D84CEC28F013D04DD8AFEC13F006
:102D980021EC1FF04FD84CEC28F00AD07750010AEC
:102DA800CAE0030AE9E0010AF0E0070AD7E0010AED
:102DB80074A633D08E0EF66EBE0EF76E2DEC0CF0A8
:102DC800000EEEEC20F08F0EF66EBE0EF76E2DECB8
:102DD8000CF0060EEEEC20F0900EF66EBE0EF76EBE
:102DE8002DEC0CF00C0EEEEC20F00001B75108E0D1
:102DF8002B0E116E55EC0FF0120EEEEC20F007D0F2
:102E08002D0E116E55EC0FF0120EEEEC20F0116A3B
:102E180055EC0FF0180EEEEC20F0BD0E076EAFEC7F
:102E280025F0748612000001B751010ED8A4000ED7
:102E3800B76F1200050E776EB7C005F0060C3C0E92
:102E4800056E2D0E066E120033D07ED869EC1FF089
:102E58003C0E056E2D0ECDEC11F021EC1FF0AFEC01
:102E680013F021EC1FF00AEC16F03EEC29F02AD002
:102E78006BD869EC1FF045EC23F0CDEC11F021EC98
:102E88001FF0BAEC13F069EC1FF0EDD756D8AFEC91
:102E980013F021EC1FF05DD84CEC28F013D04DD87E
:102EA800AFEC13F021EC1FF054D84CEC28F00AD00A
:102EB8007750010ACAE0030AE9E0010AF0E0070ACC
:102EC800D7E0010A74A633D08A0EF66EBE0EF76EEE
:102ED8002DEC0CF0000EEEEC20F08B0EF66EBE0E14
:102EE800F76E2DEC0CF0060EEEEC20F08C0EF66E64
:102EF800BE0EF76E2DEC0CF00C0EEEEC20F000017F
:102F0800B85108E02B0E116E55EC0FF0120EEEECD6
:102F180020F007D02D0E116E55EC0FF0120EEEECCE
:102F280020F0116A55EC0FF0180EEEEC20F0BD0EF3
:102F3800076EAFEC25F0748612000001B851010E3F
:102F4800D8A4000EB86F1200500E056E2E0E066E35
:102F58001200050E776EB8C005F0050C42D081D876
:102F680069EC1FF0EAEC11F0CDEC11F021EC1FF048
:102F7800AFEC13F021EC1FF00AEC16F03EEC29F050
:102F88003AD06FD869EC1FF0BAEC13F069EC1FF077
:102F980045EC23F0CDEC11F021EC1FF0EDD700014A
:102FA800BA2B080EBA6501D0BA6BAFEC13F021EC5E
:102FB8001FF04FD84CEC28F051D88EEC28F01BD0DD
:102FC8000001BA07BA2902E1080EBA6FAFEC13F094
:102FD80021EC1FF03ED84CEC28F040D88EEC28F0BD
:102FE8000AD07750010ABBE0030AD9E0010AE8E0F9
:102FF800070AC7E0010A74A626D0E5EC11F02DEC0B
:103008000CF0000EEEEC20F0E0EC11F02DEC0CF0E2
:10301800060EEEEC20F0DBEC11F02DEC0CF00C0EB3
:10302800EEEC20F00A0E096E0001BA5115EC28F0FA
:1030380025EC11F0120EEEEC20F0116A55EC0FF0B1
:10304800180EEEEC20F0BD0E076EAFEC25F074867E
:103058001200050E776EBAC005F0030CBAC007F06F
:103068000A0C640E056E2F0E066E120042D081D82F
:1030780069EC1FF0F20E056E290ECDEC11F021EC73
:103088001FF0AFEC13F021EC1FF00AEC16F03EEC49
:1030980029F039D06ED869EC1FF0BAEC13F069EC5E
:1030A8001FF045EC23F0CDEC11F021EC1FF0EDD72B
:1030B8007A2A050E7A6402D0010E7A6EAFEC13F00C
:1030C80021EC1FF0050E776E51D84CEC28F0BEECC1
:1030D80024F019D07A067A5002E1050E7A6EAFEC28
:1030E80013F021EC1FF0050E776E40D84CEC28F059
:1030F800EED77750010ABBE0030ADAE0010AEAE0FA
:10310800070AC8E0010A74A62BD0760EF66EBE0E2A
:10311800F76E2DEC0CF0000EEEEC20F0770EF66E4C
:10312800BE0EF76E2DEC0CF0060EEEEC20F0780ECD
:10313800F66EBE0EF76E2DEC0CF00C0EEEEC20F0D9
:103148000A0E096E7A5015EC28F025EC11F0120ED3
:10315800EEEC20F0116A55EC0FF0180EEEEC20F0B2
:10316800BD0E076EAFEC25F0748612007AC005F02C
:10317800000C740E056E300E066E12003DD07FD81E
:1031880069EC1FF0500E056E2E0ECDEC11F021ECFF
:103198001FF0AFEC13F021EC1FF00AEC16F03EEC38
:1031A80029F034D06CD869EC1FF045EC23F0CDEC55
:1031B80011F021EC1FF0BAEC13F069EC1FF0EDD719
:1031C8000001B92B010EB96501D0B96BAFEC13F052
:1031D80021EC1FF04FD84CEC28F018D00001B907AB
:1031E800B92902E1010EB96FAFEC13F021EC1FF021
:1031F80041D84CEC28F00AD07750010AC0E0030A05
:10320800DFE0010AEBE0070ACDE0010A74A62CD042
:10321800660EF66EBE0EF76E2DEC0CF0000EEEECA0
:1032280020F0670EF66EBE0EF76E2DEC0CF0060E53
:10323800EEEC20F0680EF66EBE0EF76E2DEC0CF07C
:103248000C0EEEEC20F00A0E096E0001B95115ECD7
:1032580028F025EC11F0120EEEEC20F0116A55EC76
:103268000FF0180EEEEC20F0BD0E076EAFEC25F057
:1032780074861200050E776EB9C005F0040C840E32
:10328800056E310E066E12000001B45118E0B46BE1
:103298000101FB6B11D0FB515CD8DE50DE1006E15A
:1032A800FB515FD8010EDE6EDD6A05D0FB5151D8A7
:1032B800DE06000EDD5AFB2B7950FB5DECE30101C5
:1032C800FC6B43D0FC514DD8DE04DE103CE1FC51D0
:1032D80050D8DECFF9F1DDCFFAF1FC5152D8DE50EB
:1032E800DE1009E1FC5145D8DECF05F0DDCF06F050
:1032F80069EC1FF01BD0FC5134D8DE6ADD6AFC5142
:1033080028D8DE50DE1012E170687168FC5139D897
:10331800DECF72F0DDCF73F07050722671507322D9
:10332800FC5117D872C0DEFF73C0DDFF01D80BD087
:1033380005000101FA6EF951FD6EFA51FE6EF85062
:10334800FF6EFA5012000101FC2B7950FC5DBAE3C4
:103358001200080D020EF324D96E010EF420DA6E65
:103368001200080D060EF324D96E010EF420DA6E51
:103378001200080D000EF324D96E010EF420DA6E47
:103388001200080D040EF324D96E010EF420DA6E33
:103398001200030E73D849EC1DF0236E23501F084A
:1033A800246E0A0E6BD849EC1DF0236E23501F08BB
:1033B800256E52D8030EDF6404D04ED8090EDF64A0
:1033C80029D04AD8030EDE1804E152D8DE50245C16
:1033D80021E342D8030EDE1809E14AD824C0DFFFF2
:1033E800DF5004E03FD8030EDF6014D035D80A0E52
:1033F800DE1804E13DD82550DE5C0CE32DD80A0E1A
:10340800DE180EE135D825C0DFFFDF5009E02AD8E5
:10341800DF6006D02250D96EDA6A010EDF6E04D062
:103428002250D96EDA6ADF6A2250D96EDA6ADF5022
:10343800D8B4120017D8170EDE1803E113D8DF6AC4
:10344800000C10D82150E16EE26A020EE126E75026
:10345800236E2328DF6E12002150D96EDA6A050E1A
:10346800D926050C2150D96EDA6A020ED926020C2B
:103478002150D96EDA6A040ED926040C196E21502F
:10348800D96EDA6A060ED926DF501A6E1F0C27D0BD
:10349800960E056E340E066E69EC1FF045EC23F0AF
:1034A800CDEC11F021EC1FF0BAEC13F069EC1FF031
:1034B8000AEC16F03EEC29F01CD059D8AFEC13F00A
:1034C80021EC1FF05BD84CEC28F013D050D8AFECAF
:1034D80013F021EC1FF052D84CEC28F00AD07750AA
:1034E800010AD6E0030AE9E0010AF0E0070AD0E0A1
:1034F800010A74A636D0610EF66EBE0EF76E2DEC7C
:103508000CF0000EEEEC20F0620EF66EBE0EF76EBA
:103518002DEC0CF0060EEEEC20F0630EF66EBE0EEF
:10352800F76E2DEC0CF00C0EEEEC20F0640EF66E3F
:10353800BE0EF76E2DEC0CF0120EEEEC20F0000132
:10354800B55108E02B0E116E55EC0FF0180EEEEC8D
:1035580020F007D02D0E116E55EC0FF0180EEEEC82
:1035680020F0BD0E076EAFEC25F074861200000146
:10357800B551010ED8A4000EB56F1200050E776E76
:10358800B5C005F0080C64D06FD81CE0EFC005F09A
:10359800F0C006F0F1C007F0F2C008F0640E096E42
:1035A8000A6A0B6A0C6AA3EC21F005C027F006C072
:1035B80028F027C01CF028C01DF03FEC1EF0BBEC23
:1035C80022F019D03EEC29F0040EA9EC1BF0B1EC66
:1035D80020F0450E27EC09F00B0ED7EC1EF0520E2A
:1035E80027EC09F0110ED7EC1EF0520E27EC09F06B
:1035F800170ED7EC1EF0AEEC1BF0010E086E900E05
:10360800076E0A6A096A21EF1FF0050E776E2CD83B
:103618000BE025D8470E136EBE0E146E65EC14F041
:1036280029D873EC26F002D049EC23F07AEC0FF09D
:10363800BAEC13F069EC1FF08E0E056E350E066EAF
:1036480069EC1FF045EC23F0CDEC11F021EF1FF0F1
:103658007750040ADAE0010A97E0030A12009F0E85
:10366800116E010E126E12000001EF51F011F111EE
:10367800F21112009F0E0B6E010E0C6E12005ED03E
:103688003EEC29F03EEC10F0F9518DEC26F015ECEB
:1036980028F0000913E1010E58D8B1EC20F061D8E8
:1036A80015EC28F038EC10F00D0ED7EC1EF0B00E2B
:1036B80027EC09F0130ED7EC1EF01ED0010E45D8EA
:1036C800B1EC20F03EEC10F0F9518DEC26F015EC41
:1036D80028F038EC10F00D0ED7EC1EF042D815EC9F
:1036E80028F038EC10F0130ED7EC1EF0B00E27ECD3
:1036F80009F0190ED7EC1EF02DD852EC09F021EF85
:103708001FF0050E776E49EC23F0BAEC13F069EC64
:103718001FF02CD869EC1FF00001B75107E0440EE8
:10372800056E0F0ECDEC11F021EF1FF045EC23F0E4
:10373800CDEC11F021EC1FF07AEF0FF07750040A6E
:10374800E0E0010A9DE0030A12000C6EBD0E0D6E4A
:103758000E6A030C060E776E340E056E530E066E57
:1037680012000A0E096E0001F9511200860E056E4C
:10377800360E066E12001C6E216A226A236A246ABB
:10378800256A61D88CEC29F0EC0E7EEC29F01C50EF
:103798007EEC29F090EC29F0ED0E7EEC29F0010E7C
:1037A8005EEC28F01D6E1E6A1F6A206A010E5EEC30
:1037B80028F0216E226A236A246A000E5EEC28F043
:1037C800256E41D888EC29F021C00DF022C00EF0FA
:1037D80023C00FF00C6A1DC010F01EC011F01FC0EE
:1037E80012F020C013F011C013F010C012F0116ACB
:1037F800106A0C501024146E0D501120156E0E50C6
:103808001220166E0F501320176E25501424186EB0
:1038180026501520196E275016201A6E285017208A
:103828001B6E050E05D0D8901B321A321932183289
:10383800E82EF9D718C008F019C009F01AC00AF024
:103848001BC00BF01200266A276A286A120018C0EB
:103858001CF01D6A1E6A17341C3601E31D801C50BB
:103868001F6E1F5001E153D01BC01CF01D6A1E6A59
:103878001A341C3601E31D801C50246E245001E1CB
:1038880046D024507B0F1F2618C024F01B50241A42
:10389800800E2416178E1A8E000E1B16206A216AB7
:1038A800226A070E236E16B02BD8D890183217321A
:1038B8001632D89019361A361B36232EF4D7090E2D
:1038C800236E16B01DD8D890183217321632D890F9
:1038D800223221322032232EF4D720C005F021C015
:1038E80006F022C007F01FC008F024C009F0AEECB3
:1038F8001FF005C016F006C017F007C018F0120038
:10390800195020261A5021221B5022221200166A12
:10391800176A186A1200880E4CEC24F008C08DF063
:1039280009C08EF08A0E4CEC24F008C08BF009C058
:103938008CF08C0E4CEC24F008C089F009C08AF099
:103948008E0E4CEC24F008C0F3F009C0F4F0900E91
:103958004CEC24F008C087F009C088F0920E4CECBB
:1039680024F008C09DF109C09EF1940E4CEC24F09F
:1039780008C09BF109C09CF1960E4CEC24F008C0DD
:1039880099F109C09AF1980E4CEC24F008C097F10F
:1039980009C098F19A0E4CEC24F008C095F109C0C2
:1039A80096F19C0E4CEC24F008C093F109C094F1F8
:1039B8009E0E4CEC24F008C091F109C092F1CC0E97
:1039C800076EF50E9DEC28F0B70E076EF40E9DEF0E
:1039D80028F027C029F02A6A2B6A2634293601E301
:1039E8002A802950336E335005E1256A266A276AF2
:1039F800286A1200170E296E25C02AF026C02BF05F
:103A080027C02CF029282D6E04D0D8902C322B32C8
:103A18002A322D2EFAD72A502E6E268E276A255046
:103A28002F6E2650306E2750316E326A8E0E335EFE
:103A380033AE0CD03350800A8F0FD7E3D890323290
:103A4800313230322F32333EF9D70CD0170E33646F
:103A580007D0CBD7D8902F363036313632363306AA
:103A68003350F8E12E5008E0321E311E301E2F6C04
:103A7800000E3022312232222FC025F030C026F02D
:103A880031C027F032C028F012001D6E19500E0800
:103A9800056E000ED8A0E82A0008066E086A0C0E0B
:103AA800076E67EC21F005501F6E1F501A5C206EE0
:103AB8001F500C0DF3501924FE0F1E6E010E086ED8
:103AC800900E076E20C005F0066A67EC21F02050C2
:103AD8001DC01BF01C6A1B26000E1C222040E84259
:103AE8003F0B1B26000E1C2221D8086A0C0E076EFD
:103AF8001E501F0DF3CF05F0F4CF06F067EC21F050
:103B080015D8640E056E20508DEC26F01B5E000E55
:103B18001C5A580E1B24136E1B0E1C20146E166A9A
:103B2800070E156E87EC22F01350120005501B2665
:103B380006501C221200430EF66E530EF76E000E4E
:103B4800F86E01EEF5F010EE04F00900F5CFEEFF87
:103B5800E550E150FAE13A0EF66E530EF76E000E9C
:103B6800F86E00EEFAF010EE05F00900F5CFEEFF62
:103B7800E550E150FAE13F0EF66E530EF76E000E77
:103B8800F86E00EE75F010EE04F00900F5CFEEFFC8
:103B9800E550E150FAE103EE00F0960EEE6AE80611
:103BA800FDE102EE00F0FA0EEE6AE806FDE101EE34
:103BB80000F0F50EEE6AE806FDE100EE80F07A0E00
:103BC800EE6AE806FDE1746A7A6A796A7B907B920C
:103BD800000EF86E00011BEF23F00F6E8B848B92A2
:103BE8000EC097F01F0E0C6EBE0E0D6E7FEC28F007
:103BF8001A0E0C6EBE0E0D6E2CEC29F00FC007F0DD
:103C0800050EF8EC28F0076A110EF8EC28F00EC043
:103C180007F0120EF8EC28F0076A130EF8EC28F0FB
:103C2800076A140EF8EC28F0076A150EF8EC28F06D
:103C3800076A160EF8EC28F0260E076E060EF8EC4A
:103C480028F0080E076E000EF8EC28F0030E076E39
:103C5800010EF8EC28F0030E076E020EF8EC28F0BF
:103C68004F0E076E040EF8EC28F0076A1C0EF8ECED
:103C780028F059EF26F01E6AD10E1E24E7EC22F038
:103C8800DF6A1E2A200E1E64F7D7040E0C6ED10EB2
:103C98000D6E010E0E6E030EB1EC20F0086A640E74
:103CA80032D80AEC25F01FEC09F072EC25F00C5024
:103CB800116E20D80B0EEEEC20F0086A0A0E23D8FD
:103CC8000AEC25F01FEC09F072EC25F00C50116E8F
:103CD80011D8110EEEEC20F01CC00CF01DC00DF038
:103CE80061EC14F072EC25F00C50116E03D8170E2D
:103CF800EEEF20F075C012F076C013F0D10E146EFE
:103D0800010E156E1200076E1CC005F01DC006F0EE
:103D18001200136E156A166A1350BD0F1624D96E59
:103D2800DA6A155007080E6E0D50030DE40E0F6E7B
:103D3800BD0E106EF3500F26F450102216500F26A9
:103D4800000E10220FC0F6FF10C0F7FF0800F5CFD5
:103D580011F00E2A02D0D89011320E2EFCD7135033
:103D6800BD0F1624E16EE26AE750126ED890123445
:103D78001110DF6E162A020E1664CED7146A0D0EC5
:103D88000E6EFC0EE82EFED70E2EFCD7142A270E38
:103D98001464F5D7BD0E076EAFEC25F0152A070E93
:103DA8001564B9D7070C196E1B6A1C6A1950BD0F28
:103DB8001C24D96EDA6A1B500708146E1150050DC1
:103DC80012C015F013C016F0F3501526F450162241
:103DD8001C501526000E162215C0F6FF16C0F7FF58
:103DE8000800F5CF17F0142A02D0D8901732142EF5
:103DF800FCD71950BD0F1C24E16EE26AE750186E1B
:103E0800D89018341710DF6E1C2A040E1C64CED705
:103E18001A6A0D0E146EFC0EE82EFED7142EFCD76F
:103E28001A2A270E1A64F5D7BD0E076EAFEC25F0D7
:103E38001B2A070E1B64B9D7070C0550061001E1B1
:103E480012000D6A1AD00D50BDEC19F00550DE189D
:103E580013E10650DE1810E1F29E0D50ADEC19F09A
:103E68002FD80D50C5EC19F026D80D50B5EC19F027
:103E7800DE6ADD6AF28E000C0D2A79500D5CE3E3F0
:103E88000F0E79600F0CF29E7950BDEC19F005C049
:103E9800DEFF06C0DDFF7950ADEC19F011D879507E
:103EA800C5EC19F008D87950B5EC19F0DE6ADD6A6E
:103EB800792AF28E000C09C0DEFF0AC0DDFF12006D
:103EC80007C0DEFF08C0DDFF12000D6A3FD00D50AD
:103ED800BDEC19F00550DE1838E10650DE1835E162
:103EE800F29E0D50076E086A09680A6879500B6ED1
:103EF8000C6A09500B260A500C2207500B1803E1D4
:103F080008500C181FE07950076E086AD8900736D9
:103F18000836D89007360836D89007360836F80E8F
:103F28000724D96E000E0820DA6E0D50080D000E19
:103F3800F324E16E010EF420E26E070EDBCFE3FFFF
:103F4800E806FCE27906F28E12000D2A79500D5C23
:103F5800BEE31200085004E005500610071006E101
:103F6800056A066A076A1200082A2DD80A6A0B6AC7
:103F7800FE0E07142DD807E0F7D7082A052A000EE9
:103F88000622072220D80A6A0B6A075021D806E0C1
:103F9800F4D70806D89005360636073606BE03D08D
:103FA800020E0860F6D708A0069ED890083208507E
:103FB8000712095001E0078E05C005F006C006F09B
:103FC80007C007F01200D8900732063205321200F7
:103FD8000C6E0A500B100C1012000D50D96EDA6AD4
:103FE800060E5EEC27F0DF6E0D50D96EDA6A0D50C2
:103FF80022D80EEC29F02DD8050E5EEC27F01F0B09
:1040080028D80C5018D80EEC29F019D8040E5EECFC
:1040180027F03F0B14D80B500ED80EEC29F014D80B
:10402800030E5EEC27F0070B0FD80A5004D80EECED
:1040380029F0DF6E1200E16EE26AE7501200DF6ECF
:104048000B50D96EDA6A1200DF6E0A50D96EDA6A3E
:104058001200DF6E0C50D96EDA6A12000600D9CF52
:1040680003F0DACF04F0F2BAF2A403D06FEC29F02F
:1040780030D0F2B8F2A211D0F292010EF1AC000EDB
:10408800FF0A026E023A02460246F1500218BF0BBE
:104098000218F16E18EC22F01CD09DB09EA008D03A
:1040A8009E903C0ECF6EB00ECE6E19EC29F011D05A
:1040B800A0B2A1A208D0A192F00EB36E600EB26EAB
:1040C80073EC20F006D0F2BC9DAA03D09EBA22EC75
:1040D80026F004C0DAFF03C0D9FF7B92110000016B
:1040E800A0510AE09A2B1E0E9A6103D0800E8C1AFA
:1040F80003D09A6BA06B8C9EB951D8B41200A7510B
:10410800D8B41200FD6B98510BE1992B140E9961EC
:1041180003D0800E8C1A04D0996B010E986F8C9E78
:10412800980502E18F4B902B2D0E8F5D010E905953
:1041380004E38F6B906B020E986F020E9819D8A447
:104148001200992B140E996103D0800E8C1A800CE2
:10415800996B986BA76B8C9E1200126E010E116EF4
:10416800146A136A0C50070D930E0F6EB70E106E7B
:10417800F3500F26F450102214500F26000E102270
:104188000FC0F6FF10C0F7FF0800F55011140BE040
:1041980013C005F00DC006F00EC007F0125014242D
:1041A800EEEC27F00AD013C005F00DC006F00EC0E3
:1041B80007F01250142448EC27F0D8901136132A2F
:1041C800070E1364CFD7010E116E142A060E14645D
:1041D800C8D7060C196E010E186E1B6A1A6A1150A0
:1041E800050D12C016F013C017F0F3501626F45040
:1041F80017221B501626000E172216C0F6FF17C0EE
:10420800F7FF0800F55018140BE01AC005F014C0A9
:1042180006F015C007F019501B24EEEC27F00AD061
:104228001AC005F014C006F015C007F019501B2479
:1042380048EC27F0D89018361A2A070E1A64CFD7F8
:10424800010E186E1B2A040E1B64C8D7040C096AD9
:104258000950BE0FD96EDA6A0950E1EC22F0092A3A
:104268001E0E0964F5D7040E0001AE650DD023D8E3
:1042780007E1AE2B1F0EAE65010CAF6BAE6B000CE9
:10428800DC6BAE6BAF2B010C16D8050DEA0E076E72
:10429800B70E086EF3500726F4500822AE510726D1
:1042A800000E082207C0F6FF08C0F7FF0800F5CF88
:1042B800DCF0AE2B010CAF510524D96E000E0620A0
:1042C800DA6EDF5012000A6A08AE06D0076C081EC4
:1042D800D8B0082A010E0A6E06AE06D0056C061E76
:1042E800D8B0062A010E0A1A0B6A0C6A0750081081
:1042F8001BE0010E096E04D0D89007360836092A4B
:1043080008AEFAD7D8900B360C360750055C085023
:10431800065805E30750055E0850065A0B80D890EA
:1043280008320732092EEED70A5004E00B6C0C1E37
:10433800D8B00C2A0BC005F00CC006F012000D6AAC
:104348000E6A0F6A106A09500A100B100C1029E047
:10435800010E116E06D0D89009360A360B360C3687
:10436800112A0CAEF8D7D8900D360E360F36103607
:104378000950055C0A5006580B5007580C5008584D
:1043880009E30950055E0A50065A0B50075A0C50AB
:10439800085A0D80D8900C320B320A320932112E8D
:1043A800E2D70DC005F00EC006F00FC007F010C030
:1043B80008F012000F6A116A106AB60E0B6EB70E7B
:1043C8000C6E0F500B26000E0C2211500B26000EFF
:1043D8000C220BC0F6FF0CC0F7FF0800F5CF0DF05C
:1043E8001050BD0FD96EDA6A0D50DF160F2A070E6E
:1043F8000F6401D00F6A102A1F0E1064DED7BD0E9D
:10440800076EAFEC25F00E6A0D0E0B6EFC0EE82E53
:10441800FED70B2EFCD70E2A630E0E64F5D7112A91
:10442800070E1164C9D7070C0001BC51D8B412009B
:10443800A52B080EA5191BE1A56B19D0360ECC6F5C
:10444800CD6F360C240E24D0240ECC6FCD6F240CE7
:10445800240ECC6FCD6B1200CC6BCD6B1200120EFC
:10446800F8D7120ECC6FCD6F120C120E11D0A551C9
:10447800E5E0010AE7E0030AE7E0010AE9E0070AE4
:10448800EBE0010AECE0030AECE0010AEEE01200BE
:10449800CC6F360ECD6F360CE8C0A4F0E9C0A3F09F
:1044A80043EC10F0ECEC22F0EB0E0A6EEC0E0B6E07
:1044B800ED0E0C6EEE0E0D6EF1EC1FF00001A45126
:1044C800E81901E07482030EE81902E1010EFD6F9C
:1044D800B55105E054EC10F0CDEC19F001D0F56BB6
:1044E800060E0001EA65060C180EEA61180CE9517F
:1044F800D8A41200E851D8A41200FD51D8B4120073
:10450800010EA76F010C186A14AE06D0136C141EA6
:10451800D8B0142A010E186E16AE04D0156C161EEB
:10452800D8B0162A1550161017E0010E176E04D0D1
:10453800D89015361636172A16AEFAD71550135CCA
:104548001650145804E31550135E1650145AD89098
:1045580016321532172EF2D7185004E0136C141EB9
:10456800D8B0142A13C013F014C014F01200100E9F
:104578000E6E0F0E0F6E0C6AD10E0E2424D80E503C
:104588001CD80E2AD10E0F241ED80F5016D80F068D
:10459800BD0E076EAFEC25F00D6A0D0E0B6EFC0E0E
:1045A800E82EFED70B2EFCD70D2A1D0E0D64F5D76D
:1045B8000C2A0F0E0C64E0D70F0CBD0FE16EE26AF7
:1045C800DFCFE7FF1200D96EDA6A010EDA22120095
:1045D8000C502FEC27F05EEC27F0DF6E0C50D96EF4
:1045E800DA6A0C501FEC20F00EEC29F01BD8010EF3
:1045F8005EEC27F017D80B501FEC20F00EEC29F0DA
:104608000CD8020E5EEC27F03F0B07D80A501FECBF
:1046180020F00EEC29F0DF6E1200DF6E0A50D96E22
:10462800DA6A1200DF6E0B50D96EDA6A1200820E57
:104638000001FF6FDD0EE82EFED7FF2FFCD700D05C
:1046480013EC16F03EEC29F00001BC6BA7EC26F049
:10465800010EBC6FF29E15D895EC16F091EC16F091
:1046680021EC1FF0E40E056E480E066E086A076A14
:104678000A6A010E096E21EC1FF0F28E48EC19F05F
:10468800FDD78E0E056E180E12000ED024EC24F005
:1046980011C013F012C014F0166A050E156E87ECDF
:1046A80022F013500001A96F0001A951A819EEE0EA
:1046B800A9C0A8F0A951020DE00EF324F66EB70EBA
:1046C800F420F76E0900F5CF95F00A00F5CF96F0C3
:1046D8000500FA6E9551FD6E9651FE6EF850FF6E0C
:1046E800FA5012000E6A26D8DF501FE00C6A22D852
:1046F8000E50BD0FE16EE26AE7500B6ED8900B3496
:10470800DF6EBD0E076EAFEC25F00D6A0D0E0B6E59
:10471800FC0EE82EFED70B2EFCD70D2A090E0D64D1
:10472800F5D70C2A070E0C64E2D70E2A1F0E0E646A
:10473800DAD71F0C0E50BD0FD96EDA6A12000C6E54
:104748000E6A24D00F6A0F50BE0FD96EDA6A0F5066
:10475800E1EC22F00F2A1E0E0F64F5D70E50DD0F84
:10476800D96EDA6ADF500001DC6FBD0E076EAFEC60
:1047780025F00D6A0D0E0B6EFC0EE82EFED70B2EE3
:10478800FCD70D2A270E0D64F5D70E2A0E500C5CA7
:10479800D9E21200640E0E6E0D6A0F6A0F50BE0F3A
:1047A800D96EDA6A0F50E1EC22F00F2A1F0E0F645F
:1047B800F5D70001DC6BBD0E076EAFEC25F00C6A77
:1047C80008D00D0E0B6EFC0EE82EFED70B2EFCD774
:1047D8000C2A0E500C5CF5E30A0E0E6401D00E5E36
:1047E8000D2A1F0E0D64D9D71F0C640E0E6E0D6AAC
:1047F8001F0E0F6E0F50BC0FD96EDA6A0F50E1EC26
:1048080022F00F060F50F6E10001BD6BBD0E076EDA
:10481800AFEC25F00C6A08D00D0E0B6EFC0EE82EDE
:10482800FED70B2EFCD70C2A0E500C5CF5E30A0EB3
:104838000E6401D00E5E0D2A1F0E0D64D9D71F0C11
:10484800F5C105F0F6C106F0F7C107F0F8C108F0A8
:104858006D0E096E4E0E0A6EC60E0B6E410E0C6E74
:10486800E4EC24F005C0F5F106C0F6F107C0F7F155
:1048780008C0F8F1390E0101F527300EF623000EB5
:10488800F723F823F751116E7F0EF815126E1200F8
:104898000C6E0F6A106A8CEC29F0EC0E7EEC29F095
:1048A8000C507EEC29F090EC29F0ED0E7EEC29F00E
:1048B800010E5EEC28F00F6E106A000E5EEC28F018
:1048C8000D6E0E6A88EC29F00D500B6E0A6A0F50B7
:1048D8000A10086E10500B10096E120081B202D037
:1048E800010E0BD081B402D0020E07D081B602D0DF
:1048F800030E03D081B803D0040E056E01D0056AFB
:1049080005500FE0290E00019F61290C9F2B280EEE
:104918009F19D8A4120005C077F09F6B010EA06FF5
:10492800010C00019F6B12008E0E156E06D0D890F8
:1049380010320F320E320D32152A116A126A136ABA
:104948001050146E1150121013101410F0E10DC015
:1049580005F00EC006F00FC007F015C008F0000EF5
:10496800096EAEEC1FF005C00DF006C00EF007C0D2
:104978000FF0120019D0B20E756EBD0E766E1200D1
:10498800800E756EBD0E766E12004E0E756EBD0EE3
:10499800766E12001C0E756EBD0E766E1200EA0E53
:1049A800756EBC0E766E12007A50010AE4E0030AB6
:1049B800E7E0010AEAE0070AEDE0010AF0E0120088
:1049C8000D6A0E6A0F6A106A05A008D009500D26F4
:1049D8000A500E220B500F220C501022D890093684
:1049E8000A360B360C36D8900832073206320532B2
:1049F8000550061007100810E7E10DC005F00EC0BD
:104A080006F00FC007F010C008F012000A6A0B6A1F
:104A1800075008101BE0010E096E04D0D890073625
:104A28000836092A08AEFAD7D8900A360B36075046
:104A3800055C0850065805E30750055E0850065AFD
:104A48000A80D89008320732092EEED70AC005F03E
:104A58000BC006F012000C6A1F0E0D6E0E6A0C5089
:104A680019D80C2A0D5016D80D06BD0E076EAFECDE
:104A780025F00F6A0D0E0B6EFC0EE82EFED70B2EDE
:104A8800FCD70F2A1D0E0F64F5D70E2A0F0E0E64E1
:104A9800E6D70F0CBD0FD96EDA6ADF6A12008B6A8F
:104AA800180E946E8A6A1F0E936EF19E8C6A956A30
:104AB800896A010E926EC30EC216C150F00B0E0920
:104AC800C16ECF0EC116C050F80B0209C06EC08E61
:104AD800C280F18CF292F288828012000E500F1080
:104AE80017E0010E106E04D0D8900E360F36102A3B
:104AF8000FAEFAD70E500C5C0F500D5804E30E5051
:104B08000C5E0F500D5AD8900F320E32102EF2D77D
:104B18000CC00CF00DC00DF0120082909490070E9E
:104B2800056E7D0EE82EFED7052EFCD700F082809C
:104B38009480C80E00D0E82EFDD7000E82B0010E7A
:104B4800066E060E056E800EE82EFED7052EFCD7E3
:104B580000D0065012000A6A8C90096A0950F80DB4
:104B68000750F3240A24D96EDA6A180ED926DF50C2
:104B7800086E0A2805EC27F0085005EC27F0092AEA
:104B8800030E0964EBD78C800A2A070E0A64E4D75F
:104B9800070C156E155002EC28F0106E030EB9ECD8
:104BA80028F0125002EC28F0106E040EB9EC28F030
:104BB800135002EC28F0106E050EB9EC28F01450D2
:104BC80002EC28F0106E060EB9EF28F0086E0A6A9B
:104BD8000AC006F008C007F0062A02D0D8900732AB
:104BE800062EFCD70750096E010E091609503AEC3B
:104BF80028F00A2A070E0A64EBD7D20E00D0E82E56
:104C0800FDD71200076A086AC7EC28F000090CE013
:104C180008C005F0010E066E052A02D0D8900636A7
:104C2800052EFCD706500712F00E00D0E82EFDD74F
:104C3800082A070E0864E8D707501200ABA202D072
:104C4800AB98AB88000E00019C250FD8AECFDFFFD4
:104C58009C2B950E9C6501D09C6BA62BA605016E1E
:104C6800950E0164950CA66B1200D96EDA6A030ED4
:104C7800DA221200056E00019D51FDE09DB805D0B5
:104C88009EA8FED705C0ADFF12009D98780E9E2500
:104C9800D96EDA6A010EDA2205C0DFFF9E2B0F0EED
:104CA8009E6501D09E6B9D0712008B94E20E89ECE5
:104CB80027F08B84700E076E070EF8EC28F08B92A5
:104CC8000B0E076E000EF8EC28F08B82C00E00D099
:104CD80000D0E82EFCD700D000D000D0120010D0B1
:104CE800BD0E076EAFEC25F00E6A0D0E0D6EFC0EB4
:104CF800E82EFED70D2EFCD70E2A3B0E0E64F5D7F4
:104D08000BC005F00CC006F02BEC21F00009E8E11F
:104D18001200066E086A055014E0010E076E03D0F3
:104D2800D8900536072A05AEFBD7D8900836055027
:104D3800065C03E30550065E0880D8900532072E0E
:104D4800F4D70850120033EC1BF0510E136EBE0E50
:104D5800146E240E156EBE0E166E050E176EBE0E60
:104D6800186E110E196EBE0E1A6E65EC14F03EEC3C
:104D78001BF073EF26F08C80010E076E0C0E8EEC84
:104D880028F0076A090E8EEC28F0070E076E0B0E46
:104D98008EEC28F0020E076E0A0E8EEC28F0076AD9
:104DA8000F0E8EEF28F0146E135002EC28F0106EE0
:104DB800000EB9EC28F0125002EC28F0106E010E2B
:104DC800B9EC28F0145002EC28F03F0B106E020EDC
:104DD800B9EF28F00A6E8B940A5089EC27F00B6A19
:104DE8000BD007C0F6FF08C0F7FF0800F55089ECA4
:104DF80027F0074A082A0B2A09500B5CF2E38B8438
:104E08001200056E066A05AE02D08C8401D08C941F
:104E18008C8200F000F000F000F000F000F000F0EC
:104E28008C92D8900536062A070E0664ECD7070C34
:104E3800096E8B94095089EC27F00A6A07D007504D
:104E48000A2409D889EC27F0DF6E0A2A08500A5C80
:104E5800F6E38B841200D96EDA6A000C0001FB516C
:104E680003E1460EFA5D05E3030E076E0A0E8EEFA8
:104E780028F0FB5108E1330EFA5DD8B01200076A3A
:104E88000A0E8EEC28F012000B6E05C008F0010E19
:104E9800096E082A02D0D8900936082EFCD7091CBA
:104EA8000A6E0B500624D96E000E0720DA6E0A50DF
:104EB800DF161200086E8CEC29F0D00E7EEC29F07B
:104EC80008507EEC29F090EC29F0D10E7EEC29F008
:104ED800000E5EEC28F0096E88EC29F009501200EB
:104EE800948C948EAC84AC98AC8AAB88AB8EB88624
:104EF800040EB06E100EAF6E00019E6B100E9D6F0B
:104F08009C6B9B6BA66B9D8A1200056E066A05AEAC
:104F180002D08C8801D08C98D89005368C8A010EE6
:104F280083A6000E05128C9A062A070E0664EFD790
:104F38000550120091EC25F00009D8A41200CC0EFF
:104F4800EAEC25F04E0EEAEC25F0000EEAEC25F02E
:104F5800000EEAEC25F07F0EEAEF25F005C007F019
:104F680006C008F002D0074A082A07C0D9FF08C0BF
:104F7800DAFFDF50F8E10550075C056E0650085867
:104F8800066E1200FA0EBFEC1BF008C02DF009C027
:104F98002EF00AC02FF00BC030F02DC029F02EC023
:104FA8002AF02FC02BF030C02CF01200F70EBFEC07
:104FB8001BF008C02DF009C02EF00AC02FF00BC05E
:104FC80030F02DC029F02EC02AF02FC02BF030C0B1
:104FD8002CF012000A6E05C008F0010E096E082AAE
:104FE80002D0D8900936082EFCD70A500624D96E6C
:104FF800000E0720DA6E0950DF1212000F6E0A0E3B
:10500800096E0F5015EC28F00D6E0F0E0D160A0ED6
:10501800056E0F508DEC26F00E6E0E38F00B0D104D
:1050280012000A6E080E0B6E0C6AD8900A340C3403
:105038000C6ED8900A3609500C5C02E309500C5EDD
:105048000B2EF3D70C501200A651FEE0000E9B2544
:1050580039EC26F0DF50056E9B2B950E9B6501D031
:105068009B6B9D9AA6079D8A05501200056E82903B
:105078009490050406E1060EE82EFED700D0828043
:105088009480D20E00D0E82EFDD782809480120042
:10509800066EA6B2FED706C0A9FF05C0A8FFA69E49
:1050A800A69CA684F29E550EA76EAA0EA76EA6828F
:1050B800F28EAA0C066E67EC29F0C58667EC29F01B
:1050C800C9CF07F067EC29F0065002E1C58A01D084
:1050D800C59AC58807501200C282C2B2FED7C45012
:1050E800066E056AC3500524FA6F000E0620FB6F92
:1050F80000F000F0120007D82A0EEEEC26F003D8D4
:10510800300EEEEF26F00CC007F00DC008F0050ECB
:10511800096E050C086E8C90096A085005EC27F09A
:10512800075005EC27F0092A030E0964F6D78C808E
:10513800030C086E8CEC29F0EC0E7EEC29F008507C
:105148007EEC29F007507EEC29F088EF29F0CD900D
:105158003C0ECF6EB00ECE6E9D80B192B180A08213
:10516800F00EB36E600EB26E600C116E8CEC29F00E
:10517800D00E7EEC29F011507EEC29F010507EEC18
:1051880029F088EF29F082909490030EE82EFED73C
:1051980000F082809480140EE82EFED782B0010CB5
:1051A800000C0BC007F097C008F0610E1CEC27F04C
:1051B800400E076E070EF8EF28F0076E8B94075025
:1051C80089EC27F0000E89EC27F0086E8B840850D4
:1051D8001200180E9412280EC66EC76A630EC86EA7
:1051E800C584C5A41200FDD7086E8B940850200909
:1051F80089EC27F0075089EC27F08B8412005FECCC
:1052080029F00A6E0ABC010C77EC29F00009D8B421
:10521800010C000C066E06C005F00F0E05160638C8
:105228000F0B0A0DF350052412000001F72B950E01
:10523800F765950CF76B010EF66FCD90010C106AAF
:105248000E0EB9EC28F0080E106E0F0EB9EF28F00C
:105258000CC007F00DC008F0050E096E2B0EEEEF1E
:1052680026F0A6B2FED705C0A9FFA69EA69CA680DA
:10527800A8501200056A05504EEC25F0052A1F0EAD
:105288000564F9D71F0C05C0F5F106C0F6F1010158
:10529800F76BF86B12009586959894929494959A6A
:1052A800958C8B841200C70ED56EF28AD76A3D0E94
:1052B800D66E796A12008B94FF0E89EC27F0076E80
:1052C8008B8407501200C7B4FED7C5CF05F01F0E58
:1052D8000516F9E11F0CF294D76A3D0ED66E010E41
:1052E8000001B46F010C170EE1EC28F0096E0950AB
:1052F800010B1200066E67EC29F006C0C9FF120008
:105308009C6B9B6BA66B120067EC29F0C58412009E
:1053180067EC29F0C580120067EC29F0C5821200FD
:10532800959E8C9E1200F28EF28C1200040E776EFF
:0F533800040CF4012B0102B2BD050101000000BD
:10B792000000000000000000087C4E4F4E7C0804B0
:10B7A20026473F070604203E7F7F3F3E207E121E33
:10B7B20000701000FDBFEF7FFBDFF7FEFDBFEF7FE4
:10B7C200FBDFF7FE0001010202030404050606077F
:10B7D2000708090901000A006400E8031027BC43B6
:10B7E2009C47F2475E4AEC46000000000045514586
:10B7F2003E006B6F6B3E003E7C3E1C003C7E3C1864
:10B8020000367F363000000000000000000000001B
:10B812000000000000000000000000000000000026
:10B822000000000000000000000000000000000016
:10B832000000000000000000000000000000000006
:10B8420000000000000000000000000000000000F6
:10B85200000000000000000000000000003636007A
:10B862000000243600000024240000002400000010
:10B872000000000000001200000000121200000090
:10B882001236000000123600000000000000005FC7
:10B8920000000007000700147F147F14242A7F2A67
:10B8A2001223130864623649562050000807030029
:10B8B200001C2241000041221C002A1C7F1C2A0875
:10B8C200083E080800807030000808080808606018
:10B8D20000000020100804023E5149453E00427F0C
:10B8E200400042615149462141454B311814127FB3
:10B8F2001027454545393C4A49493001710905033C
:10B902003649494936064949291E000036360000A3
:10B91200403400000008142241141414141400418D
:10B9220022140802015909063E415D594E7C12114A
:10B93200127C7F494949363E414141227F41414182
:10B942003E7F494949417F090909013E41415172FE
:10B952007F0808087F00417F41002040413F017F6E
:10B96200081422417F404040407F0204027F7F044E
:10B9720008107F3E4141413E7F090909063E41517F
:10B98200215E7F09192946264949493201017F0171
:10B99200013F4040403F1F2040201F3F4038403F72
:10B9A2006314081463030478040361514945430096
:10B9B2007F41410002040810200041417F0004023F
:10B9C2000102044040404040000307080020545454
:10B9D20078407F2844443838444444283844442832
:10B9E2007F3854545418087E09020018A4A49C7885
:10B9F2007F0804047800447D40002040403D007FE1
:10BA02001028440000417F40007C047804787C08C0
:10BA12000404783844444438FC1824241818242494
:10BA220018FC7C04040800485454542400043F4485
:10BA3200203C4040207C1C2040201C3C4030403CAC
:10BA420044281028444C9090907C4464544C440008
:10BA5200083641000000770000004136080002016C
:10BA620002040200000000000000000000000000CC
:10BA720000000000000000000000000000000000C4
:10BA820000400040004000000000000000000000F4
:10BA92003E55554122000000000000000000000059
:10BAA2000000000000000000000000000000000094
:10BAB2000000000000000000000000000000000084
:10BAC2000000000000000000000000000000000074
:10BAD20000000C1E1E0C0000000000000000000010
:10BAE2000000000000000000000000000000000054
:10BAF2000000000000000000000000000000000044
:10BB02000000000000000000000000000000000033
:10BB12000000000000000000000000000000000023
:10BB2200007E02020203000000000000000000008C
:10BB32007E4B4A4B4200000000003E494949220028
:10BB420000000000000000000000000000000000F3
:10BB520000000000417E4100000609090644445FDE
:10BB6200444400417F410000447D4000007C0404C5
:10BB720006000000000000000000000000000000BD
:10BB820038555455180000000000385454544422CB
:10BB9200142A14082040403D00000000000000006C
:10BBA20000000000457C41007E1111117E7F494951
:10BBB20049317F494949367F01010101C07E417EF9
:10BBC200C07F4949494177087F0877224149493670
:10BBD2007F1008047F7E1109057E7F0814224140F0
:10BBE2007E01017F7F020C027F7F0808087F3E41B1
:10BBF20041413E7F0101017F7F090909063E414122
:10BC0200412201017F0101274848483F0E117F115F
:10BC12000E63140814637F40407FC0070808087F42
:10BC22007F407E407F7F407E40FF017F4444387FDB
:10BC32004438007F7F44444438224149493E7F08CA
:10BC42003E413E462919097F20545454783C4A4AC1
:10BC52004A317C54545428007C040404C078447C47
:10BC6200C038545454186C107C106C284454542816
:10BC72007C2010087C7C2111097C7C101028444017
:10BC82003804047C7C0810087C7C1010107C38443A
:10BC92004444387C0404047C7C141414083844445E
:10BCA200442804047C04044C5050503C18247C2446
:10BCB20018006C10106C7C40407CC00C1010107C82
:10BCC2007C4078407C7C407840FC047C5050207C56
:10BCD2005020007C007C50502044545454387C1036
:10BCE200384438485434147C3E41417F3E00427F00
:10BCF2007F406273594F462263497F361814127F80
:10BD02007F2F45457D393E49497B320371790F07C3
:10BD12003649497F362649497F3E3E7F417F3E0074
:10BD2200427F7F406273594F462263497F3618141F
:10BD3200127F7F2F6F457D393E7F497B32037379B6
:10BD42000F07367F497F36266F497F3E7F41417F0D
:10BD52007F00017F7F007151515F5F4149497F7FC1
:10BD62001F10107F7F4F494979797F4949797901BD
:10BD720001017F7F7F49497F7F4F49497F7F7F7FD5
:10BD8200417F7F00017F7F007373515F5F636B4967
:10BD92007F7F1F1F107F7F6F6F4979797F7F497B7C
:10BDA2007B0373790F077F7F497F7F6F6F497F7FA7
:10BDB2007F7F417F7F00017F7F007171515F5F4113
:10BDC20049497F7F1F1F107F7F4F4F4979797F7FBE
:10BDD2004979790171790F077F7F497F7F5F5F51D1
:10BDE2007F7F0000007C447C007C0074545C5454CF
:10BDF2007C1C107C5C54747C547404047C7C547CE5
:10BE02005C547C4F6374203236203230313800313A
:10BE1200343A34343A333500197927090419792729
:10BE22000904436C6F636B2076332E302E3120620F
:10BE320079204976616E5F666400257525752563F4
:10BE42002575256300ECEC2EF0F22EF1F22E002582
:10BE52007320257320257300286E756C6C290044AD
:10BE620053543A00C7E23A00D0EA3A00C4ED3A002D
:10BE7200D2EF3A00D8F03A00CCF13A00D7F13A00CA
:10BE8200DFF13A00C0F23A00D2313A00D2323A003F
:10BE9200D1E100C0E200C6E200CAE200CDE400CF78
:10BEA200ED00CBEF00C1F000C2F000C3F000D1F012
:10BEB20000D2F000D7F000CBF100CFF100C2F200C7
:0DBEC200CBF200CFF200D7F200D1F7000064
:020000040020DA
:080000000109070903000000DB
:020000040030CA
:0E000000FF061E1EFF8181FF0FC00FE00F40A4
:0200000400F00A
:1000000004020102010101010102000000000000E0
:00000001FF
