:0400000007EF00F016
:100008007B8216ED20F083EF1DF00001A6510DE074
:1000180014EC28F0176E000EA125D96EDA6A020ECC
:10002800DA2217C0DFFFA12B1200240E02010019EB
:1000380001E15BD384D3A6DB0001826F0201A8DB58
:100048000001816FF5510CE0825105E15DEC0FF084
:10005800C3EC26F009D066EC0FF0C3EC26F004D010
:1000680061EC0FF0C3EC26F04F0E2AEC26F04B0E95
:100078002AEC26F00D0E2AEC26F00A0E2AEC26F0C1
:100088005ED365DB19041A1005E061DB020E19184E
:100098001A101FE10251D00F786E78C005F0010EDA
:1000A80038EC28F02AEC29F0780403E10001BC6B55
:1000B80002D07EEC16F0A56B4F0E2AEC26F04B0E04
:1000C8002AEC26F00D0E2AEC26F00A0E2AEC26F071
:1000D80036D3450E2AEC26F0520E2AEC26F00D0EE9
:1000E8002AEC26F00A0E2AEC26F029D3010E46DB6C
:1000F80038EC28F0AAEC24F022D0020E3FDB38ECD2
:1001080028F0F8D7030E3ADB38EC28F0F3D7040EC2
:1001180035DB38EC28F0EED7050E30DB38EC28F06C
:10012800E9D715DB1A500BE11950010ADFE0030A81
:10013800E4E0010AE7E0070AEAE0010AEDE0D00E90
:10014800176E1868020102510DDB1ABE05D01A504D
:1001580007E1060E195C04E2FADA19501A100DE1EB
:10016800450E2AEC26F0520E2AEC26F00D0E2AEC4B
:1001780026F00A0E2AEC26F0E2D24F0E2AEC26F0E0
:100188004B0E2AEC26F00D0E2AEC26F00A0E2AEC6D
:1001980026F0D5D2FDDA126E06510A0DF350072566
:1001A800F00F136E08510A0DF3500925F00F146E65
:1001B800E9DAB9EC25F04F0E2AEC26F04B0E2AECC2
:1001C80026F00D0E2AEC26F00A0E2AEC26F0B7D2FD
:1001D800BEDA19501A1004E0BADA19041A100CE140
:1001E8000251D00F0001BB6FDFDABA6FBBC005F058
:1001F800020E38EC28F00DD0450E2AEC26F0520EEF
:100208002AEC26F00D0E2AEC26F00A0E2AEC26F02F
:1002180096D20001BB5109E1BAC005F0030E38ECD3
:1002280028F016EC18F07AEC28F04F0E2AEC26F09D
:100238004B0E2AEC26F00D0E2AEC26F00A0E2AECBC
:1002480026F07DD284DA19501A1004E080DA1904F5
:100258001A100AE10251D00F0001B96FB9C005F0B8
:10026800040E38EC28F00DD0450E2AEC26F0520E7C
:100278002AEC26F00D0E2AEC26F00A0E2AEC26F0BF
:100288005ED24F0E2AEC26F04B0E2AEC26F00D0E0D
:100298002AEC26F00A0E2AEC26F051D258DA195028
:1002A8001A1004E054DA19041A101BE162DA5ADA57
:1002B80019501A1005E05DDA55DA19041A1011E11F
:1002C8000251D00F0001B86F6FDAB76FB8C005F0F0
:1002D800050E38EC28F0B7C005F0060E38EC28F00B
:1002E8000DD0450E2AEC26F0520E2AEC26F00D0E03
:1002F8002AEC26F00A0E2AEC26F021D24F0E2AEC20
:1003080026F04B0E2AEC26F00D0E2AEC26F00A0EEB
:100318002AEC26F014D21BDA19501A1004E017DA66
:1003280019041A100AE10251D00F0001B66FB6C0C5
:1003380005F0070E38EC28F00DD0450E2AEC26F013
:10034800520E2AEC26F00D0E2AEC26F00A0E2AECA4
:1003580026F0F5D14F0E2AEC26F04B0E2AEC26F0AB
:100368000D0E2AEC26F00A0E2AEC26F0E8D1EFD979
:1003780019501A1004E0EBD919041A100AE10251B5
:10038800D00F0001B56FB5C005F0080E38EC28F0A5
:100398000DD0450E2AEC26F0520E2AEC26F00D0E52
:1003A8002AEC26F00A0E2AEC26F0C9D14F0E2AECC8
:1003B80026F04B0E2AEC26F00D0E2AEC26F00A0E3B
:1003C8002AEC26F0BCD1C3D919041A1005E0BFD90C
:1003D800020E19181A100AE10251D00F0001FE6F1F
:1003E800FEC005F0090E38EC28F00DD0450E2AECB9
:1003F80026F0520E2AEC26F00D0E2AEC26F00A0EF4
:100408002AEC26F09CD14F0E2AEC26F04B0E2AEC53
:1004180026F00D0E2AEC26F00A0E2AEC26F08FD1D3
:100428004F0E2AEC26F04B0E2AEC26F00D0E2AEC85
:1004380026F00A0E2AEC26F0330E186EBB0E176E45
:10044800E00EE82EFED7172EFCD7182EFAD7330E5B
:10045800186EBB0E176EE00EE82EFED7172EFCD7CF
:10046800182EFAD7330E186EBB0E176EE00EE82E54
:10047800FED7172EFCD7182EFAD7330E186EBB0EE0
:10048800176EE00EE82EFED7172EFCD7182EFAD7D7
:10049800FF0055D1740E021902E1030E04D0700E4C
:1004A800021903E1020E776E0DD0450E2AEC26F0F4
:1004B800520E2AEC26F00D0E2AEC26F00A0E2AEC33
:1004C80026F03DD14F0E2AEC26F04B0E2AEC26F0F2
:1004D8000D0E2AEC26F00A0E2AEC26F030D1610E19
:1004E800021920E11B6A0BD0030E1B24D96EDA6AAD
:1004F800020EDA22960E1B247FEC12F01B2AFD0E48
:10050800176E1868000E056E020E066E9EEC27F038
:1005180017500526185006221B50055C000E065879
:100528001CE3E2D7750E021907E1000E096E020EF0
:100538000A6EE5EC11F011D06F0E02190EE17490FD
:100548004F0E2AEC26F04B0E2AEC26F00D0E2AEC64
:1005580026F00A0E2AEC26F0F2D04F0E2AEC26F0EE
:100568004B0E2AEC26F00D0E2AEC26F00A0E2AEC89
:1005780026F0ECC0A2F074800001BC6B9EEC1BF06E
:100588004DEC1FF059EC09F04DEC1FF070EC0DF03C
:100598005FEC26F031EC23F0B1EC11F005EC1FF024
:1005A8007EEC16F0CCD0086A640EF8D8F6EC24F08D
:1005B8001FEC09F05EEC25F00C50300F2AEC26F009
:1005C800086A0A0EEBD8F6EC24F01FEC09F05EEC92
:1005D80025F00C50300F2AEC26F0FAC00CF0FBC0C6
:1005E8000DF045EC14F05EEC25F00C50300F2AECC1
:1005F80026F05F0E2AEC26F06BD01B6A0B0E1B64EC
:1006080001D00AD0050E1B24F66EF76ABE0ED1D8AB
:100618002AEC26F01B2AF2D70D0E2AEC26F00A0E39
:100628002AEC26F01B6A080E1B6401D00AD0110EB2
:100638001B24F66EF76ABE0EBCD82AEC26F01B2ADD
:10064800F2D70D0E2AEC26F00A0E2AEC26F040D03E
:100658000001FC512AEC26F0086A640E48EC09F007
:10066800F6EC24F01FEC09F05EEC25F00C50300F8E
:100678002AEC26F03AEC09F0F6EC24F01FEC09F02D
:100688005EEC25F00C50300F2AEC26F032EC09F025
:100698005EEC25F00C50300F2AEC26F05F0E2AECA9
:1006A80026F016D0450E2AEC26F0520E2AEC26F03B
:1006B8000D0E2AEC26F00A0E2AEC26F009D002517B
:1006C800610A01E170D7150AC3E0020A96E0EAD789
:1006D8004F0E2AEC26F04B0E2AEC26F00D0E2AECD3
:1006E80026F00A0E2AEC26F02AD00151530A01E11D
:1006F800F6D6320A01E1D2D5030A01E169D5010A29
:1007080001E1BFD4070A01E145D5010A01E103D699
:10071800030A01E106D5170A01E1BCD6030ACFE0B6
:10072800010A01E18FD5070A01E185D4020A01E136
:100738004AD6010A01E11BD60D0A01E171D6020170
:10074800006B016B026B0001A16B70EF29F0D00EFA
:10075800176E18680251196E1A6A17501926185020
:100768001A221200196E1A6A1750192618501A22DE
:100778001200D00E176E1868035112007A6E7AC0F4
:1007880005F0000C02510A0DF3500325F00F12007A
:1007980004510A0DF3500525F00F1200076EFAC038
:1007A80005F0FBC006F0120002010351D00F000152
:1007B8001200F7220800F5501200B2EC27F029C009
:1007C80056F02AC057F02BC058F02CC059F0C6EC90
:1007D80027F029C04AF02AC04BF02BC04CF02CC09F
:1007E8004DF00B0E92DBD89038343C6E39343D6EA8
:1007F8003A343E6E3B343F6E030E406E56C041F0B5
:1008080057C042F058C043F059C044F0406601D088
:1008180007D044344432433242324132402EF6D774
:100828003C50415C056E3D504258066E3E50435860
:10083800076E3F504458086E8BC009F08CC00AF010
:100848004CDBD0EC24F0376601D003D00ADB372E1E
:10085800FAD71FDB0C0E59DB040E3C6E56C03DF078
:1008680057C03EF058C03FF059C040F03C6601D038
:1008780003D054DB3C2EFAD738503D5C056E395016
:100888003E58066E3A503F58076E3B504058086E27
:1008980000018D51416E8E51426E436A446A040EC6
:1008A800456E56C046F057C047F058C048F059C08A
:1008B80049F0456601D007D04934493248324732B9
:1008C8004632452EF6D74150465C096E425047588D
:1008D8000A6E435048580B6E445049580C6ED0EC81
:1008E80024F0376601D003D0BCDA372EFAD7BFDA46
:1008F8000E0E376EF8DA89C009F08AC00AF0EDDA10
:10090800D0EC24F0376601D003D0ABDA372EFAD713
:10091800B7DA5E506624526E5F506720536E60509F
:100928006820546E61506920556E52C005F053C05E
:1009380006F054C007F055C008F0050E096E0A6AA3
:100948000B6A0C6AD0EC24F0800E0524376E000E7A
:100958000620386E000E0720396E000E08203A6E09
:1009680038C037F039C038F03AC039F03A6A39BE81
:100978003A6837C04EF038C04FF039C050F03AC02E
:1009880051F035C0D9FF36C0DAFF4EC0DEFF4FC088
:10099800DEFF50C0DEFF51C0DEFF52C037F053C04B
:1009A80038F054C039F055C03AF03A34BDDA000E88
:1009B8003724666E060E3820676EFF0E3920686E83
:1009C800FF0E3A20696E0B0E12DAD0EC24F037666F
:1009D80001D003D046DA372EFAD749DA84DA97C13C
:1009E80009F098C10AF079DAD0EC24F049DA99C113
:1009F80005F09AC106F056DAD0EC24F0D890053408
:100A0800376E0634386E0734396E08343A6E37500C
:100A18005E2638505F22395060223A506122010127
:100A28009B51376E9C51386E396A3A6A38C03AF031
:100A380037C039F0386A376A020E3B6E5EC03CF048
:100A48005FC03DF060C03EF061C03FF03B6601D042
:100A580007D03F343F323E323D323C323B2EF6D750
:100A680037503C245E6E38503D205F6E39503E2032
:100A7800606E3A503F20616E0D0EB9D9D0EC24F06B
:100A8800376601D003D0EDD9372EFAD7F0D9120E38
:100A9800376E030E386E9DC105F09EC106F0000E3C
:100AA8000FDAD0EC24F005C039F006C03AF007C0E0
:100AB8003BF008C03CF0386601D007D03C343C32EB
:100AC8003B323A323932382EF6D787C005F088C023
:100AD80006F0E8D9D0EC24F0C4D9055039243D6E8D
:100AE80006503A203E6E07503B203F6E08503C208F
:100AF800406E376601D003D011DA372EFAD73DC0E1
:100B080066F03EC067F03FC068F040C069F00F0E65
:100B1800376E000E6624056E800E6720066E000E86
:100B28006820076E000E6920086EF3C009F0F4C053
:100B38000AF00B6A0C6AD0EC24F0376601D003D0B7
:100B480090D9372EFAD7A5D9665067106810691062
:100B580001E112000C0E376E5EC038F05FC039F04C
:100B680060C03AF061C03BF0376601D004D03B3436
:100B7800E0D9372EF9D74AC03CF04BC03DF04CC005
:100B88003EF04DC03FF03C1E3D1E3E1E3F1E3C2A1F
:100B9800000E3D223E223F2238503C5C406E3950C8
:100BA8003D58416E3A503E58426E3B503F58436E56
:100BB800000E4024056E000E4120066E100E4220E5
:100BC800076E000E4320086E350E096E0C0E0A6E75
:100BD8000B6A0C6AD0EC24F005C062F006C063F022
:100BE80007C064F008C065F0800E655C15E2D89017
:100BF8006234056E6334066E6434076E6534086EBD
:100C08007BD9C6EC21F005C062F006C063F007C0CE
:100C180064F008C065F014D062C005F063C006F047
:100C280064C007F065C008F067D9C6EC21F0D89019
:100C38000534626E0634636E0734646E0834656E7C
:100C480062C037F063C038F064C039F065C03AF06C
:100C5800040E02D0D89068D9E82EFCD737C005F02A
:100C680038C006F039C007F03AC008F062C03BF05F
:100C780063C03CF064C03DF065C03EF0040E05D092
:100C8800D8903E323D323C323B32E82EF9D73BC059
:100C980009F03CC00AF03DC00BF03EC00CF0D0ECAF
:100CA80024F00E0E05D0D8900832073206320532ED
:100CB800E82EF9D7DCD80C0E376E91C105F092C139
:100CC80006F0000EFDD8D0EC24F0376601D003D032
:100CD800C8D8372EFAD7DDD80D0E376E62C038F077
:100CE80063C039F064C03AF065C03BF0030E02D02F
:100CF800D8901FD9E82EFCD738C005F039C006F0C7
:100D08003AC007F03BC008F093C109F094C10AF05B
:100D1800E4D8D0EC24F0376601D003D0A2D8372E1F
:100D2800FAD7AED8040E376E95C138F096C139F0AF
:100D3800000E39BEFF0E3A6E3B6E665038243C6E8C
:100D4800675039203D6E68503A203E6E69503B200E
:100D58003F6E5E503C24406E5F503D20416E6050B7
:100D68003E20426E61503F20436E376601D007D067
:100D780043344332423241324032372EF6D7625042
:100D88004024626E63504120636E64504220646E5A
:100D980065504320656E070E196E400E1A6E3F0EA1
:100DA8001B6E62C00DF063C00EF064C00FF065C02A
:100DB80010F084EC24F00DC016F00EC017F00FC030
:100DC80018F00FEC1CF016C025F017C026F018C05C
:100DD80027F0D1EC1CF03450D96EDA6A25C0DEFF5A
:100DE80026C0DEFF27C0DEFF28C0DEFF1200376EF8
:100DF800020E386E66C039F067C03AF068C03BF042
:100E080069C03CF0386601D007D03C343C323B32F4
:100E18003A323932382EF6D739C005F03AC006F0E2
:100E28003BC007F03CC008F0020E3D6E66C03EF0C5
:100E380067C03FF068C040F069C041F03D6601D02E
:100E480007D04134413240323F323E323D2EF6D750
:100E58003EC009F03FC00AF040C00BF041C00CF0A2
:100E6800120008340832073206320532120005C073
:100E78005AF006C05BF007C05CF008C05DF01200D5
:100E880005C05EF006C05FF007C060F008C061F002
:100E9800120005C066F006C067F007C068F008C019
:100EA80069F01200000E06BEFF0E076E086E66C0DF
:100EB80009F067C00AF068C00BF069C00CF01200B6
:100EC80006BEFF0E076E086E5AC009F05BC00AF036
:100ED8005CC00BF05DC00CF01200000E0ABEFF0EE5
:100EE8000B6E0C6E12005AC005F05BC006F05CC0B9
:100EF80007F05DC008F0120066C009F067C00AF08C
:100F080068C00BF069C00CF01200376E00018D51FB
:100F1800386E8E51396E3A6A3B6A1200403440325C
:100F28003F323E323D3212003A32393238323732AD
:100F380012003B323A3239323832120074D12AEC7C
:100F480029F074A414D09AD9000ED4EC20F0450EE0
:100F58007AD9090EBBEC1EF0720E75D90F0EBBECD8
:100F68001EF0720E70D9150EBBEC1EF044D10001B4
:100F7800932903E1942901E12BD1FE0503E0935164
:100F8800941170E16BD95EEC25F00C502E6E93C075
:100F980005F094C006F08ED9F6EC24F005C093F065
:100FA80006C094F0050E2E6403D00001934B942BD9
:100FB8005DD9F6EC24F03FD95EEC25F00C500D100D
:100FC8002CE15CD9030ED4EC20F00001935194116C
:100FD80015E0FCC011F03DD90D0EBBEC1EF03ED95A
:100FE8005EEC25F00C5008EC11F0130EBBEC1EF073
:100FF800B00E29D9190EBBEC1EF0FDD02FD95EEC2E
:1010080025F00C5008EC11F00D0EBBEC1EF0B00EE4
:101018001AD9130EBBEC1EF0EED030D9000ED4EC6A
:1010280020F0FCC011F015D9090EBBEC1EF01ED93A
:10103800F6EC24F000D95EEC25F00C5008EC11F029
:101048000F0EBBEC1EF00AD95EEC25F00C5008EC34
:1010580011F0150EBBEC1EF0B00EF5D81B0EBBEC54
:101068001EF0C9D0200E2F6E2F503AEC25F02F2AF3
:101078002A0E2F64F9D7086A640E06D9F6EC24F014
:10108800DAD85EEC25F00CC028F00DC029F0EED8B7
:10109800F6EC24F0D0D85EEC25F00CC02AF00DC098
:1010A8002BF0DCD85EEC25F00CC02CF00DC02DF038
:1010B80017EC1BF03C0E136EBE0E146E28C015F014
:1010C80029C016F02AC017F02BC018F0000E1A6EAF
:1010D8002E0E196E2CC01BF02DC01CF0000E1E6EBB
:1010E800B00E1D6E49EC14F0300E01019F193CE062
:1010F800C5D8030ED4EC20F0FCC011F0AAD80B0E12
:10110800BBEC1EF001019F51D00F08EC11F0110E3D
:10111800BBEC1EF0BFD808EC11F0170EBBEC1EF0AC
:10112800A1C111F096D81D0EBBEC1EF00101A25111
:10113800D00F41EC10F0200E11EC21F0A3C111F0FA
:1011480055EC0FF0260E11EC21F0330E276EBB0E76
:10115800266EE00EE82EFED7262EFCD7272EFAD7CD
:101168000A0E8FEC23F047D089D8010ED4EC20F07A
:10117800FCC011F06ED80B0EBBEC1EF08BD808EC3F
:1011880011F0110EBBEC1EF0A1C111F062D8170EC0
:10119800BBEC1EF00101A251D00F08EC11F01A0EA1
:1011A800BBEC1EF0A3C111F055EC0FF0200E11ECB2
:1011B80021F0330E276EBB0E266EE00EE82EFED70A
:1011C800262EFCD7272EFAD7080E8FEC23F013D043
:1011D80055D8000ED4EC20F02D0E35D8090EBBECF6
:1011E8001EF02D0E30D80F0EBBEC1EF02D0E2BD896
:1011F800150EBBEC1EF092EC1BF050D805EF1FF05B
:10120800050E776E35EC23F05AEC10F09EEC13F0D7
:101218004DEC1FF04AD84DEC1FF031EC23F0B1EC47
:1012280011F005EF1FF07750040AEAE0010A01E126
:1012380086D6030A120005C00CF006C00DF00F6A2E
:101248000A0E0E6E0A0C116EEA0E126EB70E136EAF
:101258001200EA0E126EB70E136E120093C00CF055
:1012680094C00DF00F6A0A0E0E6E0A0C086A0A0E78
:10127800076E93C005F094C006F00A0C020E0C6EBF
:10128800BD0E0D6E0E6A1200076E93C005F094C075
:1012980006F012000101A051D00F1200020E086ED4
:1012A8008A0E076E0A6A096A8A0C440E056E0F0ECA
:1012B800066E1200086A0A0E076E0A0C1F6E2AD103
:1012C8000001BC6B206A0EEC11F0EA5179EC26F0B3
:1012D80001EC28F000090BE00EEC11F0EA5179EC72
:1012E80026F001EC28F01ED9BD0F47D903D02050B5
:1012F8003AEC25F018EC11F001EC28F013D9C30FE3
:101308003CD90EEC11F0E95179EC26F001EC28F00B
:1013180009D9CA0F32D913EC11F001EC28F002D91F
:10132800D00F2BD9202A040E2064CDD7206A0EECCA
:1013380011F0E85179EC26F001EC28F018D905D91C
:10134800D60F1BD91DEC11F001EC28F010D9FDD8EF
:10135800DA0F13D9202A020E2064E9D70001C26BE4
:10136800800EC86FC96FCF6BD56BD96B1200010E99
:101378000001BC6F08D979EC26F001EC28F00001D7
:10138800B36F0BD901EC28F00001B26F01D979ECE9
:1013980026F001EC28F00001B16F03D901EC28F028
:1013A8000001B06FB351AD1909E1B251AC1906E1B2
:1013B800B151AB1903E1B051AA1974E0B051AA199F
:1013C80009E0EFD801EC28F008EC11F0190EBBEC9D
:1013D8001EF008D0E6D801EC28F041EC10F0190E08
:1013E80011EC21F00001B151AB190BE0D1D879EC27
:1013F80026F001EC28F008EC11F0130EBBEC1EF0FF
:101408000AD0C6D879EC26F001EC28F041EC10F0AF
:10141800130E11EC21F00001B251AC1909E0BDD84E
:1014280001EC28F008EC11F0070EBBEC1EF008D018
:10143800B4D801EC28F041EC10F0070E11EC21F0C3
:101448000EEC11F0EA5179EC26F001EC28F00009D5
:101458001AE00001B351AD190BE095D879EC26F0EC
:1014680001EC28F008EC11F0010EBBEC1EF011D0D5
:101478008AD879EC26F001EC28F041EC10F0010E46
:1014880011EC21F006D0116A2DEC09F0010EBBEC2D
:101498001EF0B3C0ADF0B2C0ACF0B1C0ABF0B0C09C
:1014A800AAF0120070D879EC26F001EC28F00009B7
:1014B8000DE00EEC11F0EA5179EC26F001EC28F081
:1014C80041EC10F0010E11EC21F006D0116A55EC38
:1014D8000FF0010E11EC21F018EC11F001EC28F0DE
:1014E80041EC10F0070E11EC21F00EEC11F0E9516F
:1014F80079EC26F001EC28F041EC10F0130E11EC19
:1015080021F013EC11F001EC28F041EC10F0190E69
:1015180011EF21F01F50010A01E1D2D6030A01E1BF
:1015280026D71200050D75C01DF076C01EF0F350C9
:101538001D26F4501E2220501D26000E1E221DC0FE
:10154800F6FF1EC0F7FF20501200F3501D26F4507E
:101558001E2220501D26000E1E22030E1D26000EE0
:101568001E221DC0F6FF1EC0F7FF20501200030DFB
:10157800E40E1D6EBD0E1E6E1200D96EDA6A0800EA
:10158800F5CFDFFF12000A0E096E056EEA51120050
:101598000A0E096E056EE95112000A0E096EEA512B
:1015A80012000A0E096EE951120042D067D94DECBB
:1015B8001FF00C0E056E250EB1EC11F005EC1FF0B6
:1015C80093EC13F005EC1FF01AEC13F03BD056D94E
:1015D8004DEC1FF09EEC13F04DEC1FF031EC23F0B6
:1015E800B1EC11F005EC1FF0EEEC15F02AEC29F047
:1015F80029D00001852B0C0E856502D0010E856F60
:1016080093EC13F005EC1FF00AEC13F0B9EC25F09D
:1016180019D000018507855102E10C0E856F93EC06
:1016280013F005EC1FF00AEC13F0B9EC25F00AD022
:101638007750010ABBE0030ADCE0010AEAE0070A86
:10164800C6E0010A74A6FFD07A0EF66EBE0EF76EDB
:1016580000D9000E11EC21F07B0EF66EBE0EF76E6F
:10166800F8D8060E11EC21F07C0EF66EBE0EF76E61
:10167800F0D80C0E11EC21F0C6D0CB0EF66EBE0ED3
:10168800F76EE7D8120E11EC21F0CC0EF66EBE0EF6
:10169800F76EDFD8180E11EC21F0D5D0C20EF66E19
:1016A800BE0EF76ED6D8120E11EC21F0C30EF66EF0
:1016B800BE0EF76ECED8180E11EC21F0C4D0A70ECE
:1016C800F66EBE0EF76EC5D8120E11EC21F0A80EFC
:1016D800F66EBE0EF76EBDD8180E11EC21F0B3D021
:1016E8009B0EF66EBE0EF76EB4D8120E11EC21F0FA
:1016F8009C0EF66EBE0EF76EACD8180E11EC21F0EB
:10170800A2D0B30EF66EBE0EF76EA3D8120E11EC71
:1017180021F0B40EF66EBE0EF76E9BD8180E11ECC3
:1017280021F091D0B60EF66EBE0EF76E92D8120E5C
:1017380011EC21F0B70EF66EBE0EF76E8AD8180EB1
:1017480011EC21F080D0A40EF66EBE0EF76E81D893
:10175800120E11EC21F0A50EF66EBE0EF76E79D8BA
:10176800180E11EC21F06FD07FD873D8120E11EC3F
:1017780021F07FD86ED8180E11EC21F064D0AA0E93
:10178800F66EBE0EF76E65D8120E11EC21F0AB0E98
:10179800F66EBE0EF76E5DD8180E11EC21F053D020
:1017A800980EF66EBE0EF76E54D8120E11EC21F09C
:1017B800990EF66EBE0EF76E4CD8180E11EC21F08D
:1017C80042D0B90EF66EBE0EF76E43D8120E11EC6B
:1017D80021F0BA0EF66EBE0EF76E3BD8180E11EC5D
:1017E80021F031D0AD0EF66EBE0EF76E32D8120E65
:1017F80011EC21F0AE0EF66EBE0EF76E2AD8180E5A
:1018080011EC21F020D000018551010A01E135D702
:10181800030A01E143D7010A01E151D7070A01E1AF
:101828005FD7010A01E16DD7030A01E17BD7010AFD
:101838008AE00F0A99E0010AA2E0030AB1E0010A6E
:10184800C0E0070ACFE0BD0E076E9BEC25F074865A
:1018580012000800F5CF11F0EA0E126EB70E136EE3
:10186800BD0E146E156A1200B00EF66EBE0EF76E3F
:101878001200B10EF66EBE0EF76E1200B20E056EB5
:10188800150E066E1200B4D0785062EC09F0020E04
:10189800781803E17EEC16F002D00001BC6B050E4F
:1018A800E8650DD0070EE8610AD0F90E116EF80E42
:1018B800126EF60E136EF70E146EB4EC13F00E0ED5
:1018C8000001E86505D0100EE86102D0030E776EBE
:1018D800B65101E19BD0270EE86598D0290EE86142
:1018E80095D0E9B193D0020E7AD0EBD84DEC1FF029
:1018F800F40E056E1E0E066EE9D805EC1FF093EC8B
:1019080013F005EC1FF020EEE8F010EE80F0060E64
:10191800DBCFE3FFE806FCE2050E776E7496020E55
:10192800781874E10001C9D855EC0FF00D0E11ECD0
:1019380021F06CD00001BC6BEF0E346EF10E356EE9
:10194800010E366EE1EC03F0020E781807E1170E6F
:10195800116E55EC0FF00D0E11EC21F035EC23F063
:10196800B0D84DEC1FF0560E056E350EB1EC11F0E7
:1019780005EC1FF0EEEC15F049D00001B85120E05D
:10198800BC6B6E506A6E6D50936F6AC094F0020E15
:10199800781807E1170E116E55EC0FF00D0E11ECCB
:1019A80021F035EC23F08DD84DEC1FF04E0E056E6E
:1019B800360EB1EC11F005EC1FF0EEEC15F00ED080
:1019C800B7510CE0BC6B020E7818EBE1170E116EE4
:1019D80055EC0FF00D0E11EC21F0E3D7050E776EE4
:1019E80015D0050E776E9EEC13F04DEC1FF00ED05F
:1019F8007750010A01E179D7030A9CE0010ABDE0AA
:101A0800070AEFE0010A01E13FD7030A74A604D0F0
:101A1800BD0E076E9BEC25F00001BB5108E0E8A164
:101A280074A205D074925CEC28F01EEC27F0748642
:101A3800EFEC28F0000913E06C0E0B6EC1EC28F0F7
:101A480045EC26F06E506A6E6D500001936F6AC0C7
:101A580094F06CC0FCF0916B926B749403D000010D
:101A6800914B922BE90E915D030E925906E3748413
:101A780045EC26F036D8D5EC1DF00001A251EC1942
:101A88001AE1050E096EE95101EC28F00009D8A405
:101A98001200230E0001E819D8B474A012000DD862
:101AA80055EC0FF00D0E11EC21F016D85FEC26F076
:101AB800010EBC6F010C74901200BC6B170E116EF6
:101AC800170C8E0E056E180E066E1200086A076A4D
:101AD8000A6A320E096E320C960E0B6E020E0C6EEE
:101AE8001200040E0E6E780C42D001D94DEC1FF096
:101AF8003C0E056E300EB1EC11F005EC1FF093ECC6
:101B080013F005EC1FF01AEC13F03BD0F0D84DECB5
:101B18001FF09EEC13F04DEC1FF031EC23F0B1EC0C
:101B280011F005EC1FF0EEEC15F02AEC29F029D0A5
:101B38000001832B070E836502D0010E836F93EC9F
:101B480013F005EC1FF00AEC13F0B9EC25F019D0EE
:101B580000018307835102E1070E836F93EC13F0B2
:101B680005EC1FF00AEC13F0B9EC25F00AD0775019
:101B7800010ABBE0030ADCE0010AEAE0070AC6E062
:101B8800010A74A6AED06E0EF66EBE0EF76E2DEC80
:101B98000CF0000E11EC21F06F0EF66EBE0EF76E13
:101BA8002DEC0CF0060E11EC21F0700EF66EBE0E48
:101BB800F76E2DEC0CF00C0E11EC21F081D0A10E7B
:101BC800F66EBE0EF76E2DEC0CF0120E11EC21F035
:101BD800A20EF66EBE0EF76E2DEC0CF0180E11EC80
:101BE80021F07FD0BF0EF66EBE0EF76E2DEC0CF016
:101BF800120E11EC21F0C00EF66EBE0EF76E2DEC33
:101C08000CF0180E11EC21F06CD038EC0CF02DEC27
:101C18000CF0120E11EC21F03DEC0CF02DEC0CF058
:101C2800180E11EC21F05DD0C80EF66EBE0EF76EE0
:101C38002DEC0CF0120E11EC21F0C90EF66EBE0E52
:101C4800F76E2DEC0CF0180E11EC21F04AD0C50EF1
:101C5800F66EBE0EF76E2DEC0CF0120E11EC21F0A4
:101C6800C60EF66EBE0EF76E2DEC0CF0180E11ECCB
:101C780021F037D0920EF66EBE0EF76E2DEC0CF0FA
:101C8800120E11EC21F0930EF66EBE0EF76E2DECCF
:101C98000CF0180E11EC21F024D09E0EF66EBE0E3C
:101CA800F76E2DEC0CF0120E11EC21F09F0EF66E73
:101CB800BE0EF76E2DEC0CF0180E11EC21F011D0C1
:101CC80000018351010AE9E0030A01E178D7010A1A
:101CD80089E0070A9AE0010AA7E0030AB8E0010AC6
:101CE800C9E0BD0E076E9BEC25F074861200F00E5D
:101CF800056E1A0E066E120074B802D074885CD095
:101D080074985AD0E4D84DEC1FF0D40E056E2A0E04
:101D1800B1EC11F005EC1FF093EC13F005EC1FF09B
:101D2800050E776E2AEC29F0749650D0D0D84DEC79
:101D38001FF09EEC13F04DEC1FF031EC23F0B1ECEA
:101D480011F005EC1FF0050E776E2AEC29F03ED055
:101D58000001822B170E826501D0826B93EC13F081
:101D680005EC1FF0BED80AE0825104E1A2D8C3EC0A
:101D780026F02CD0A7D8C3EC26F028D09ED8C3ECE8
:101D880026F024D000018207822902E1170E826F13
:101D980093EC13F005EC1FF0A4D80AE0825104E19B
:101DA80088D8C3EC26F012D08DD8C3EC26F00ED01C
:101DB80084D8C3EC26F00AD07750010AA3E0030ABE
:101DC800C7E0010ADFE0070AB1E0010A74A663D0A0
:101DD80074A84AD0780424E10EEC11F0825179EC11
:101DE80026F001EC28F000090DE00EEC11F082510C
:101DF80079EC26F001EC28F041EC10F0000E11EC23
:101E080021F005D0116A4DD8000E11EC21F064D8EC
:101E180001EC28F041EC10F0060E11EC21F03BD05B
:101E28000EEC11F0825179EC26F001EC28F0000953
:101E38000DE00EEC11F0825179EC26F001EC28F05F
:101E480041EC10F0010E11EC21F005D0116A29D8EF
:101E5800010E11EC21F040D801EC28F041EC10F013
:101E6800070E11EC21F017D078040BE1116A19D88C
:101E7800000E11EC21F0116A14D8060E11EC21F0B5
:101E88000AD0116A0ED8010E11EC21F0116A09D896
:101E9800070E11EC21F0BD0E076E9BEC25F0748641
:101EA8001200EA0E126EB70E136EBD0E146E156A8E
:101EB800120081C012F0136A170C81C012F0136A65
:101EC8008251120081C012F0136A82051200000EBE
:101ED800056E1D0E066E12000A0E096E0001825173
:101EE8001200050E776E0001F551120074B802D089
:101EF80074886CD074986AD0D4D84DEC1FF0000E5A
:101F0800056E1D0E066E6AEC0DF005EC1FF093ECE5
:101F180013F005EC1FF0780413E10EEC11F0815179
:101F280079EC26F001EC28F0A8D80D0E11EC21F080
:101F3800ADD801EC28F0A1D8130E11EC21F013D084
:101F48000EEC11F0E95179EC26F001EC28F095D867
:101F5800130E11EC21F013EC11F001EC28F08DD8E0
:101F6800190E11EC21F0EEEC15F03AD09AD84DECA0
:101F78001FF09EEC13F04DEC1FF031EC23F0B1ECA8
:101F880011F005EC1FF0050E776E2AEC29F028D029
:101F98000001812B3B0E816501D0816B93EC13F01E
:101FA80005EC1FF078D8C3EC26F0050E776E18D034
:101FB80000018107812902E13B0E816F93EC13F048
:101FC80005EC1FF068D8C3EC26F0EFD77750010A6C
:101FD80093E0030ADDE0010AEBE0070AC7E0010A23
:101FE80074A645D074A828D0780413E10EEC11F03B
:101FF800815179EC26F001EC28F03FD80D0E11EC58
:1020080021F044D801EC28F038D8130E11EC21F057
:102018002ED00EEC11F0815179EC26F001EC28F06D
:102028002CD8130E11EC21F031D801EC28F025D86A
:10203800190E11EC21F01BD078040DE1116A55EC52
:102048000FF00D0E11EC21F0116A55EC0FF0130E84
:1020580011EC21F00CD0116A55EC0FF0130E11ECB5
:1020680021F0116A55EC0FF0190E11EC21F0BD0E9C
:10207800076E9BEC25F074861200116E75C012F085
:1020880076C013F0BD0E146E156A12000A0E096EA2
:1020980000018151120081C012F0136A00018251BF
:1020A8001200F40E056E1E0E066E12002AEC29F0C0
:1020B800A4D0B0D8EA5179EC26F001EC28F0000958
:1020C8000BE0A8D8EA5179EC26F001EC28F09CD86E
:1020D800000EBBEC1EF006D0116A2DEC09F0000EC4
:1020E800BBEC1EF0A1D801EC28F08ED8060EBBEC94
:1020F8001EF090D8E95179EC26F001EC28F084D84C
:102108000D0EBBEC1EF08BD801EC28F07DD8130E19
:10211800BBEC1EF08FEC20F0D8EC22F07BD8E85115
:1021280079EC26F001EC28F01D6E1D280D6E190EB5
:1021380071EC1EF07ED801EC28F01D6E1D280D6E86
:102148001D0E71EC1EF067EF15F064D8EA5179ECBA
:1021580026F001EC28F000090BE05CD8EA5179EC94
:1021680026F001EC28F050D8010EBBEC1EF006D08A
:10217800116A2DEC09F0010EBBEC1EF055D801ECEC
:1021880028F042D8070EBBEC1EF03A0E27EC09F0F7
:102198000D0EBBEC1EF03ED8E95179EC26F001ECAF
:1021A80028F032D8130EBBEC1EF039D801EC28F019
:1021B8002BD8190EBBEC1EF0010E0001BC6FA56BED
:1021C800C7EC0AF079EC26F001EC28F00001AD6FBD
:1021D800D1EC0AF001EC28F00001AC6FCCEC0AF06D
:1021E80079EC26F001EC28F00001AB6FD5EC0AF091
:1021F80001EC28F00001AA6F12007850010A01E1F1
:1022080058D7030AA2E01200116E75C012F076C00A
:1022180013F012000A0E096E056E00010A0C0A0E70
:10222800096E0001E95112000A0E096E0001EA5117
:1022380012000A0E096E0001E851120042D0000196
:10224800BB5110E0ABD84DEC1FF0A4D886D805ECF4
:102258001FF093EC13F005EC1FF0EEEC15F02AECF0
:1022680029F039D09BD84DEC1FF02C0E056E2F0E9F
:1022780074D805EC1FF0A1D821EC29F094D87AEC99
:1022880028F0E7D78BD84DEC1FF09EEC13F04DECFF
:102298001FF031EC23F061D805EC1FF0DED764D8CD
:1022A80093EC13F005EC1FF083D838EC28F013D02A
:1022B8005BD893EC13F005EC1FF07AD838EC28F0D3
:1022C8000AD07750010ABBE0030AE9E0010AF0E00E
:1022D800070AD8E0010A74A63AD057D82DEC0CF0BA
:1022E800000E11EC21F04CD82DEC0CF0060E11EC80
:1022F80021F041D82DEC0CF00C0E11EC21F000016E
:10230800BB5113E0950EF66EBE0EF76E2DEC0CF079
:10231800120E11EC21F0960EF66EBE0EF76E2DEC35
:102328000CF0180E11EC21F012D0BC0EF66EBE0E99
:10233800F76E2DEC0CF0120E11EC21F0BD0EF66EBE
:10234800BE0EF76E2DEC0CF0180E11EC21F0BD0E40
:10235800076E9BEC25F074861200066E086A076A01
:102368000A6A140E096E140C0001BB51010ED8A4A0
:10237800000EBB6F1200840EF66EBE0EF76E1200D2
:10238800830EF66EBE0EF76E1200820EF66EBE0E4D
:10239800F76E12004C0E056E310E1200440E056EDB
:1023A800220E066E12000001BA6FBAC007F00A0CBE
:1023B800050E776EBBC005F0020C066A030E056EAB
:1023C800030C146A09C005F00AC006F09EEC27F059
:1023D8000550FD0F126E136A7DD080D8030E85D884
:1023E800C00EDF646FD07AD8040E7FD8DF500D6E30
:1023F800145009240E6E000E0A200F6E030E0E24D0
:10240800D96E000E0F20DA6EDF50106E0D50156E6B
:1024180010C016F0840E151805E1D00E161802E14A
:10242800DA0E0FD0860E151805E1D00E161802E147
:10243800D40E07D0870E151807E1D00E161804E140
:10244800D80E155ECF0E08D0940E151807E1D10EE0
:10245800161804E1DA0E11D0165A28D0960E15185F
:1024680005E1D10E161802E1E30E07D0970E1518F4
:1024780007E1D10E161804E1D80E155ED00EECD780
:10248800C00E155CD00E165803E2300E15260DD07E
:10249800800E155CD10E165809E3900E155CD10E0E
:1024A800165804E2700E15262F0E1622960E1324C7
:1024B800D96EDA6A020EDA2215C0DFFF020E142680
:1024C800120607D00BD8030E10D8960E132413D873
:1024D800142A132A1350125C80E2120014500924A3
:1024E8000B6E000E0A200C6E12000B24D96E000E23
:1024F8000C20DA6E1200E16EE26A020EE222DFCFF1
:10250800E7FF12003FD08DD84DEC1FF0F00E056E9E
:102518001A0EB1EC11F005EC1FF093EC13F005EC7A
:102528001FF084D839D07DD84DEC1FF09EEC13F005
:102538004DEC1FF031EC23F0B1EC11F005EC1FF07D
:10254800EEEC15F02AEC29F027D00001842B1F0EA1
:10255800846502D0010E846F93EC13F005EC1FF034
:1025680055D8B9EC25F018D000018407845102E150
:102578001F0E846F93EC13F005EC1FF047D8B9ECED
:1025880025F00AD07750010ABEE0030ADEE0010A0E
:10259800EBE0070AC8E0010A74A632D07E0EF66E98
:1025A800BE0EF76E2DEC0CF0000E11EC21F07F0E34
:1025B800F66EBE0EF76E2DEC0CF0060E11EC21F047
:1025C800800EF66EBE0EF76E2DEC0CF00C0E11ECB4
:1025D80021F00EEC11F0845179EC26F001EC28F092
:1025E80041EC10F0120E11EC21F00A0E096E0001F8
:1025F800845101EC28F041EC10F0180E11EC21F098
:10260800BD0E076E9BEC25F074861200050E776EE2
:1026180084C012F085C013F086C014F00001835105
:1026280012000C0E056E250E066E1200050E776E52
:102638007486050C2FD08FD84DEC1FF05E0E056EFA
:10264800340EB1EC11F005EC1FF069D805EC1FF061
:10265800EEEC15F02AEC29F027D07DD84DEC1FF0D0
:1026680031EC23F0B1EC11F005EC1FF063D84DEC20
:102678001FF0EED764D853D805EC1FF067D838ECB4
:1026880028F012D05CD84BD805EC1FF05FD838EC96
:1026980028F00AD07750010ACEE0030AEBE0010ADD
:1026A800F1E0070ADAE0010A74A633D0860EF66E66
:1026B800BE0EF76E2DEC0CF0000E11EC21F0870E1B
:1026C800F66EBE0EF76E2DEC0CF0060E11EC21F036
:1026D800880EF66EBE0EF76E2DEC0CF00C0E11EC9B
:1026E80021F00001B65108E02B0E116E55EC0FF0E9
:1026F800120E11EC21F007D02D0E116E55EC0FF0D3
:10270800120E11EC21F0116A55EC0FF0180E11ECB5
:1027180021F0BD0E076E9BEC25F0748612000C0E9E
:10272800056E530E066E070E086ED00E076E0A6A07
:10273800096AD00C0C0E056E530E066E12000001CD
:10274800B651010ED8A4000EB66F1200050E776EB2
:10275800B6C005F0070C3C0E056E260E066E12007C
:102768001250D96EDA6A2B0EDF6E81D07DEC25F01F
:102778000009D8A41200CC0ED6EC25F0440ED6ECF5
:1027880025F01450D96EDA6ADF6A1350D96EDA6A06
:10279800020EDF6ECD80020C7DEC25F0CC0ED6EC5F
:1027A80025F0BE0ED6EC25F0196A880E1924D96ECC
:1027B800DA6A010EDA22F2EC25F0DF6E192A010E30
:1027C8001964F3D701018951156E88511A6E15C025
:1027D8001BF01BAE09D01A6C1B1ED8B01B2A125056
:1027E800D96EDA6A2D0EDF6E1A500F0B186EC60EF0
:1027F8001824F66EF76AB70EF7220800F5CF18F01E
:102808001A3A1B3A0F0E1A161B50F00B1A120F0E1B
:102818001B161A500A0DF3CF1AF0F4CF1BF01850FC
:102828001A26000E1B221AC00CF01BC00DF029D866
:102838005EEC25F00C50176E1AC005F01BC006F0B0
:102848005EEC09F0F6EC24F005C01AF006C01BF0A7
:10285800050E176402D01A4A1B2A1150D96EDA6A7B
:102868001AC0DFFF1350D96EDA6ADF6A000C135002
:10287800D96EDA6ADF5001E179D7010A8DE0030ADF
:1028880012000F6A0A0E0E6E0A0C150E246E6ED018
:10289800250E25182DE083D825C0DFFF114A122AFE
:1028A80065D02450D96EDA6ADECF22F0DDCF23F06E
:1028B800020E2426225023100EE15A0E226EBE0E5E
:1028C800236E09D071D86BD80800F5CFDFFF224AF4
:1028D800232A114A122A68D80800F55047E0F2D78F
:1028E8002450D96EDA6ADF50256E020E2426D3D71B
:1028F80042D83EE0630AF4E0100AD3E0060ACBE1CE
:102908002450D96EDA6ADECF1FF0DDCF20F0020E38
:102918002426010E256E255039D8F5501F5C090074
:10292800F550205804E3252A050E2518F4E125C0A2
:1029380021F019D021502AD8F5CF07F00A00F5CF99
:1029480008F01FC005F020C006F0F6EC24F01FECDC
:1029580009F05EEC25F00C50300F256E20D825C00C
:10296800DFFF114A122A21062128E4E104D890E168
:1029780016D8DF6A000C13C0F6FF14C0F7FF134A1D
:10298800142A0800F5CF25F025501200020DD60EA6
:10299800F324F66EB70EF420F76E0900120011C08A
:1029A800D9FF12C0DAFF120022C0F6FF23C0F7FFDA
:1029B80012003CD083D84DEC1FF0440E056E220E59
:1029C800B1EC11F005EC1FF093EC13F005EC1FF0DF
:1029D800EEEC15F02AEC29F033D070D84DEC1FF04E
:1029E8009EEC13F04DEC1FF031EC23F0B1EC11F03C
:1029F80005EC1FF0EDD7782A020E786402D0010E9C
:102A0800786E93EC13F005EC1FF053D838EC28F0EF
:102A180017D07806785002E1020E786E93EC13F026
:102A280005EC1FF046D838EC28F00AD07750010A98
:102A3800C1E0030AE0E0010AECE0070ACEE0010A7F
:102A480074A62BD0720EF66EBE0EF76E2DEC0CF03F
:102A5800000E11EC21F0730EF66EBE0EF76E2DEC23
:102A68000CF0060E11EC21F0740EF66EBE0EF76E29
:102A78002DEC0CF00C0E11EC21F00A0E096E7850BA
:102A880001EC28F041EC10F0120E11EC21F0116A63
:102A980055EC0FF0180E11EC21F0BD0E076E9BECF3
:102AA80025F07486780401E10ED0010E0001BC6F98
:102AB800010C050E776E78C005F0010CBA0E056E94
:102AC800290E066E12000001BC6B12003FD086D89A
:102AD8004DEC1FF0B20E056E150EB1EC11F005ECC1
:102AE8001FF093EC13F005EC1FF074D839D076D8AA
:102AF8004DEC1FF09EEC13F04DEC1FF031EC23F081
:102B0800B1EC11F005EC1FF065D82AEC29F028D0BB
:102B18000001862B630E866501D0866B93EC13F05B
:102B280005EC1FF00AEC13F0B9EC25F019D0000100
:102B38008607862902E1630E866F93EC13F005EC95
:102B48001FF00AEC13F0B9EC25F00AD07750010A0F
:102B5800BEE0030ADDE0010AEAE0070AC8E0010A6C
:102B680074A632D06A0EF66EBE0EF76E2DEC0CF01F
:102B7800000E11EC21F06B0EF66EBE0EF76E2DEC0A
:102B88000CF0060E11EC21F06C0EF66EBE0EF76E10
:102B98002DEC0CF00C0E11EC21F00EEC11F086511E
:102BA80079EC26F001EC28F041EC10F0120E11EC53
:102BB80021F00A0E096E0001865101EC28F041EC63
:102BC80010F0180E11EC21F0BD0E076E9BEC25F0ED
:102BD80074861200050E776E7496050CD40E056E79
:102BE8002A0E066E12003FEC25F0D9EC28F0ABEC6B
:102BF80026F097EC28F083EC29F00FEC29F08AEC0A
:102C080027F043EC29F060EC27F073EC1CF0066A1F
:102C1800056A21EC29F07A6E066A010E056E21EC30
:102C280029F0786E780403E10001BC6B01D062D80A
:102C3800066A020E056E21EC29F00001BB6FE1EC7B
:102C480011F021EC29F0D7EC11F07AEC28F0AAEC7D
:102C580024F080EC29F03BEC29F075EC0DF0D5EC74
:102C68001DF0120E056E000E066E086A280E076E1D
:102C780038D805EC1FF0AE0E056E400E36D831D8A8
:102C880005EC1FF0066A040E056E21EC29F0000120
:102C9800B96F066A050E056E21EC29F00001B86FC0
:102CA800066A060E056E21EC29F00001B76F066A68
:102CB800070E056E21EC29F00001B66F066A080EB2
:102CC800056E21EC29F00001B56F066A090E056E44
:102CD80021EC29F00001FE6F066A030E056E33EF42
:102CE80029F00A6A140E096E140C066E086A640E3E
:102CF800076E640C010E0001BC6F010C33D083D841
:102D08004DEC1FF03C0E056E260EB1EC11F005ECF3
:102D18001FF093EC13F005EC1FF0EEEC15F02AEC25
:102D280029F02AD070D84DEC1FF031EC23F0B1EC2B
:102D380011F005EC1FF09EEC13F04DEC1FF0EDD7F1
:102D480056D893EC13F005EC1FF058D838EC28F05F
:102D580013D04DD893EC13F005EC1FF04FD838EC96
:102D680028F00AD07750010ACAE0030AE9E0010A0C
:102D7800F0E0070AD7E0010A74A633D08E0EF66E8B
:102D8800BE0EF76E2DEC0CF0000E11EC21F08F0E3C
:102D9800F66EBE0EF76E2DEC0CF0060E11EC21F05F
:102DA800900EF66EBE0EF76E2DEC0CF00C0E11ECBC
:102DB80021F00001B75108E02B0E116E55EC0FF011
:102DC800120E11EC21F007D02D0E116E55EC0FF0FC
:102DD800120E11EC21F0116A55EC0FF0180E11ECDF
:102DE80021F0BD0E076E9BEC25F0748612000001E1
:102DF800B751010ED8A4000EB76F1200050E776EFA
:102E0800B7C005F0060C040E056E2D0E066E1200F6
:102E180033D083D84DEC1FF0040E056E2D0EB1ECA7
:102E280011F005EC1FF093EC13F005EC1FF0EEEC3D
:102E380015F02AEC29F02AD070D84DEC1FF031ECAF
:102E480023F0B1EC11F005EC1FF09EEC13F04DEC03
:102E58001FF0EDD756D893EC13F005EC1FF058D8B7
:102E680038EC28F013D04DD893EC13F005EC1FF094
:102E78004FD838EC28F00AD07750010ACAE0030A84
:102E8800E9E0010AF0E0070AD7E0010A74A633D0A6
:102E98008A0EF66EBE0EF76E2DEC0CF0000E11ECDD
:102EA80021F08B0EF66EBE0EF76E2DEC0CF0060EB2
:102EB80011EC21F08C0EF66EBE0EF76E2DEC0CF0B8
:102EC8000C0E11EC21F00001B85108E02B0E116E28
:102ED80055EC0FF0120E11EC21F007D02D0E116EEB
:102EE80055EC0FF0120E11EC21F0116A55EC0FF0B1
:102EF800180E11EC21F0BD0E076E9BEC25F07486C0
:102F080012000001B851010ED8A4000EB86F1200CB
:102F1800050E776EB8C005F0050C180E056E2E0E5E
:102F2800066E120042D081D84DEC1FF0CEEC11F0A5
:102F3800B1EC11F005EC1FF093EC13F005EC1FF069
:102F4800EEEC15F02AEC29F03AD06FD84DEC1FF0D2
:102F58009EEC13F04DEC1FF031EC23F0B1EC11F0C6
:102F680005EC1FF0EDD70001BA2B080EBA6501D0A9
:102F7800BA6B93EC13F005EC1FF04FD838EC28F03F
:102F880051D87AEC28F01BD00001BA07BA2902E11F
:102F9800080EBA6F93EC13F005EC1FF03ED838EC2E
:102FA80028F040D87AEC28F00AD07750010ABBE024
:102FB800030AD9E0010AE8E0070AC7E0010A74A693
:102FC80026D0C9EC11F02DEC0CF0000E11EC21F01C
:102FD800C4EC11F02DEC0CF0060E11EC21F0BFEC56
:102FE80011F02DEC0CF00C0E11EC21F00A0E096E0C
:102FF8000001BA5101EC28F041EC10F0120E11EC6E
:1030080021F0116A55EC0FF0180E11EC21F0BD0EED
:10301800076E9BEC25F074861200050E776EBAC019
:1030280005F0030CBAC007F00A0C2C0E056E2F0E23
:10303800066E120042D081D84DEC1FF0BA0E056E14
:10304800290EB1EC11F005EC1FF093EC13F005EC30
:103058001FF0EEEC15F02AEC29F039D06ED84DECC3
:103068001FF09EEC13F04DEC1FF031EC23F0B1ECA7
:1030780011F005EC1FF0EDD77A2A050E7A6402D01C
:10308800010E7A6E93EC13F005EC1FF0050E776EC7
:1030980051D838EC28F0AAEC24F019D07A067A50E6
:1030A80002E1050E7A6E93EC13F005EC1FF0050EA5
:1030B800776E40D838EC28F0EED77750010ABBE09D
:1030C800030ADAE0010AEAE0070AC8E0010A74A67E
:1030D8002BD0760EF66EBE0EF76E2DEC0CF0000EB1
:1030E80011EC21F0770EF66EBE0EF76E2DEC0CF09B
:1030F800060E11EC21F0780EF66EBE0EF76E2DEC72
:103108000CF00C0E11EC21F00A0E096E7A5001EC4D
:1031180028F041EC10F0120E11EC21F0116A55EC78
:103128000FF0180E11EC21F0BD0E076E9BEC25F088
:10313800748612007AC005F0000C3C0E056E300E45
:10314800066E12003DD07FD84DEC1FF0180E056EAC
:103158002E0EB1EC11F005EC1FF093EC13F005EC1A
:103168001FF0EEEC15F02AEC29F034D06CD84DECB9
:103178001FF031EC23F0B1EC11F005EC1FF09EECE0
:1031880013F04DEC1FF0EDD70001B92B010EB96516
:1031980001D0B96B93EC13F005EC1FF04FD838EC65
:1031A80028F018D00001B907B92902E1010EB96F5A
:1031B80093EC13F005EC1FF041D838EC28F00AD056
:1031C8007750010AC0E0030ADFE0010AEBE0070AD2
:1031D800CDE0010A74A62CD0660EF66EBE0EF76E10
:1031E8002DEC0CF0000E11EC21F0670EF66EBE0E01
:1031F800F76E2DEC0CF0060E11EC21F0680EF66E51
:10320800BE0EF76E2DEC0CF00C0E11EC21F00A0E30
:10321800096E0001B95101EC28F041EC10F0120ED2
:1032280011EC21F0116A55EC0FF0180E11EC21F099
:10323800BD0E076E9BEC25F074861200050E776EA6
:10324800B9C005F0040C4C0E056E310E066E120066
:103258000001B45118E0B46B0101FB6B11D0FB51B4
:103268005CD8DE50DE1006E1FB5167D8010EDE6E39
:10327800DD6A05D0FB5151D8DE06000EDD5AFB2B66
:103288007950FB5DECE30101FC6B43D0FC5155D850
:10329800DE04DE103CE1FC5148D8DECFF9F1DDCF89
:1032A800FAF1FC5152D8DE50DE1009E1FC513DD84C
:1032B800DECF05F0DDCF06F04DEC1FF01BD0FC5142
:1032C8003CD8DE6ADD6AFC5128D8DE50DE1012E1F7
:1032D80070687168FC5139D8DECF72F0DDCF73F0B9
:1032E8007050722671507322FC5117D872C0DEFFDD
:1032F80073C0DDFF01D80BD005000101FA6EF9514A
:10330800FD6EFA51FE6EF850FF6EFA501200010180
:10331800FC2B7950FC5DBAE31200080D020EF32471
:10332800D96E010EF420DA6E1200080D000EF32497
:10333800D96E010EF420DA6E1200080D060EF32481
:10334800D96E010EF420DA6E1200080D040EF32473
:10335800D96E010EF420DA6E1200030E73D82DEC2C
:103368001DF0236E23501F08246E0A0E6BD82DEC17
:103378001DF0236E23501F08256E52D8030EDF64FC
:1033880004D04ED8090EDF6429D04AD8030EDE18BF
:1033980004E152D8DE50245C21E342D8030EDE1843
:1033A80009E14AD824C0DFFFDF5004E03FD8030E0C
:1033B800DF6014D035D80A0EDE1804E13DD8255058
:1033C800DE5C0CE32DD80A0EDE180EE135D825C0D8
:1033D800DFFFDF5009E02AD8DF6006D02250D96E1F
:1033E800DA6A010EDF6E04D02250D96EDA6ADF6A1B
:1033F8002250D96EDA6ADF50D8B4120017D8170EE7
:10340800DE1803E113D8DF6A000C10D82150E16EF2
:10341800E26A020EE126E750236E2328DF6E1200CF
:103428002150D96EDA6A050ED926050C2150D96EBD
:10343800DA6A020ED926020C2150D96EDA6A040E15
:10344800D926040C196E2150D96EDA6A060ED926CF
:10345800DF501A6E1F0C27D05E0E056E340E066EF6
:103468004DEC1FF031EC23F0B1EC11F005EC1FF03E
:103478009EEC13F04DEC1FF0EEEC15F02AEC29F061
:103488001CD059D893EC13F005EC1FF05BD838EC3E
:1034980028F013D050D893EC13F005EC1FF052D855
:1034A80038EC28F00AD07750010AD6E0030AE9E0A0
:1034B800010AF0E0070AD0E0010A74A636D0610ECE
:1034C800F66EBE0EF76E2DEC0CF0000E11EC21F02E
:1034D800620EF66EBE0EF76E2DEC0CF0060E11ECB9
:1034E80021F0630EF66EBE0EF76E2DEC0CF00C0E8E
:1034F80011EC21F0640EF66EBE0EF76E2DEC0CF09A
:10350800120E11EC21F00001B55108E02B0E116EDE
:1035180055EC0FF0180E11EC21F007D02D0E116E9E
:1035280055EC0FF0180E11EC21F0BD0E076E9BEC58
:1035380025F0748612000001B551010ED8A4000EC2
:10354800B56F1200050E776EB5C005F0080C64D093
:103558006FD81CE0EFC005F0F0C006F0F1C007F02E
:10356800F2C008F0640E096E0A6A0B6A0C6AC6ECAF
:1035780021F005C026F006C027F026C01CF027C0A1
:103588001DF023EC1EF0A7EC22F019D02AEC29F04C
:10359800040E8DEC1BF0D4EC20F0450E27EC09F05E
:1035A8000B0EBBEC1EF0520E27EC09F0110EBBEC13
:1035B8001EF0520E27EC09F0170EBBEC1EF092EC31
:1035C8001BF0010E086E900E076E0A6A096A05EF75
:1035D8001FF0050E776E2CD80BE025D8470E136E1A
:1035E800BE0E146E49EC14F029D85FEC26F002D018
:1035F80035EC23F05AEC10F09EEC13F04DEC1FF074
:10360800560E056E350E066E4DEC1FF031EC23F0AC
:10361800B1EC11F005EF1FF07750040ADAE0010A67
:1036280097E0030A12009F0E116E010E126E12002F
:103638000001EF51F011F111F21112009F0E0B6E03
:10364800010E0C6E12005ED02AEC29F00EEC11F07F
:10365800F95179EC26F001EC28F0000913E1010E8C
:1036680058D8D4EC20F061D801EC28F008EC11F01F
:103678000D0EBBEC1EF0B00E27EC09F0130EBBECE0
:103688001EF01ED0010E45D8D4EC20F00EEC11F03F
:10369800F95179EC26F001EC28F008EC11F00D0E48
:1036A800BBEC1EF042D801EC28F008EC11F0130E28
:1036B800BBEC1EF0B00E27EC09F0190EBBEC1EF0A7
:1036C8002DD852EC09F005EF1FF0050E776E35EC9A
:1036D80023F09EEC13F04DEC1FF02CD84DEC1FF0AE
:1036E8000001B75107E0440E056E0F0EB1EC11F062
:1036F80005EF1FF031EC23F0B1EC11F005EC1FF0F1
:103708005AEF10F07750040AE0E0010A9DE0030A3E
:1037180012000C6EBD0E0D6E0E6A030C060E776E4F
:103728000C0E056E530E066E12000A0E096E00018D
:10373800F95112004E0E056E360E066E12001C6E02
:10374800216A226A236A246A256A61D878EC29F0FA
:10375800EC0E6AEC29F01C506AEC29F07CEC29F09C
:10376800ED0E6AEC29F0010E4AEC28F01D6E1E6A77
:103778001F6A206A010E4AEC28F0216E226A236A29
:10378800246A000E4AEC28F0256E41D874EC29F022
:1037980021C00DF022C00EF023C00FF00C6A1DC02E
:1037A80010F01EC011F01FC012F020C013F011C09D
:1037B80013F010C012F0116A106A0C501024146E25
:1037C8000D501120156E0E501220166E0F5013203A
:1037D800176E25501424186E26501520196E275080
:1037E80016201A6E285017201B6E050E05D0D8908B
:1037F8001B321A3219321832E82EF9D718C008F0DD
:1038080019C009F01AC00AF01BC00BF01200266A92
:10381800276A286A120018C01CF01D6A1E6A17342D
:103828001C3601E31D801C501F6E1F5001E153D050
:103838001BC01CF01D6A1E6A1A341C3601E31D8069
:103848001C50246E245001E146D024507B0F1F26C3
:1038580018C024F01B50241A800E2416178E1A8EB6
:10386800000E1B16206A216A226A070E236E16B004
:103878002BD8D890183217321632D89019361A36F3
:103888001B36232EF4D7090E236E16B01DD8D890F8
:10389800183217321632D890223221322032232E93
:1038A800F4D720C005F021C006F022C007F01FC0E1
:1038B80008F024C009F092EC1FF005C016F006C00D
:1038C80017F007C018F01200195020261A502122AC
:1038D8001B5022221200166A176A186A1200880EF4
:1038E80038EC24F008C08DF009C08EF08A0E38EC50
:1038F80024F008C08BF009C08CF08C0E38EC24F052
:1039080008C089F009C08AF08E0E38EC24F008C08F
:10391800F3F009C0F4F0900E38EC24F008C087F0FA
:1039280009C088F0920E38EC24F008C09DF109C057
:103938009EF1940E38EC24F008C09BF109C09CF16C
:10394800960E38EC24F008C099F109C09AF1980E47
:1039580038EC24F008C097F109C098F19A0E38ECB9
:1039680024F008C095F109C096F19C0E38EC24F0BB
:1039780008C093F109C094F19E0E38EC24F008C0F9
:1039880091F109C092F1CC0E076EF50E89EC28F082
:10399800B70E076EF40E89EF28F027C029F02A6ABF
:1039A8002B6A2634293601E32A802950336E335096
:1039B80005E1256A266A276A286A1200170E296E09
:1039C80025C02AF026C02BF027C02CF029282D6E00
:1039D80004D0D8902C322B322A322D2EFAD72A50E6
:1039E8002E6E268E276A25502F6E2650306E275051
:1039F800316E326A8E0E335E33AE0CD03350800A8D
:103A08008F0FD7E3D8903232313230322F32333EF3
:103A1800F9D70CD0170E336407D0CBD7D8902F36F0
:103A280030363136323633063350F8E12E5008E05E
:103A3800321E311E301E2F6C000E302231223222EF
:103A48002FC025F030C026F031C027F032C028F052
:103A580012001D6E19500E08056E000ED8A0E82A37
:103A68000008066E086A0C0E076E8AEC21F00550F5
:103A78001F6E1F501A5C206E1F500C0DF350192436
:103A8800FE0F1E6E010E086E900E076E20C005F028
:103A9800066A8AEC21F020501DC01BF01C6A1B2608
:103AA800000E1C222040E8423F0B1B26000E1C2261
:103AB80021D8086A0C0E076E1E501F0DF3CF05F0B3
:103AC800F4CF06F08AEC21F015D8640E056E20506C
:103AD80079EC26F01B5E000E1C5A580E1B24136E40
:103AE8001B0E1C20146E166A070E156E73EC22F05E
:103AF8001350120005501B2606501C2212001B0EE4
:103B0800F66E530EF76E000EF86E01EEF5F010EE3D
:103B180004F00900F5CFEEFFE550E150FAE1120E8E
:103B2800F66E530EF76E000EF86E00EEFAF010EE19
:103B380005F00900F5CFEEFFE550E150FAE1170E68
:103B4800F66E530EF76E000EF86E00EE75F010EE7E
:103B580004F00900F5CFEEFFE550E150FAE103EE7D
:103B680000F0960EEE6AE806FDE102EE00F0FA0EAD
:103B7800EE6AE806FDE101EE00F0F50EEE6AE806F1
:103B8800FDE100EE80F07A0EEE6AE806FDE1746A67
:103B98007A6A796A7B907B92000EF86E000107EFD3
:103BA80023F00F6E8B848B920EC097F01F0E0C6E55
:103BB800BE0E0D6E6BEC28F01A0E0C6EBE0E0D6E5E
:103BC80018EC29F00FC007F0050EE4EC28F0076A9E
:103BD800110EE4EC28F00EC007F0120EE4EC28F009
:103BE800076A130EE4EC28F0076A140EE4EC28F0D8
:103BF800076A150EE4EC28F0076A160EE4EC28F0C4
:103C0800260E076E060EE4EC28F0080E076E000E6E
:103C1800E4EC28F0030E076E010EE4EC28F0030E26
:103C2800076E020EE4EC28F04F0E076E040EE4EC6B
:103C380028F0076A1C0EE4EC28F045EF26F01E6A0F
:103C4800D10E1E24D3EC22F0DF6A1E2A200E1E6439
:103C5800F7D7040E0C6ED10E0D6E010E0E6E030E0C
:103C6800D4EC20F0086A640E32D8F6EC24F01FEC8D
:103C780009F05EEC25F00C50116E20D80B0E11ECFB
:103C880021F0086A0A0E23D8F6EC24F01FEC09F09C
:103C98005EEC25F00C50116E11D8110E11EC21F0CC
:103CA8001CC00CF01DC00DF045EC14F05EEC25F0C6
:103CB8000C50116E03D8170E11EF21F075C012F0D9
:103CC80076C013F0D10E146E010E156E1200076E39
:103CD8001CC005F01DC006F01200136E156A166AA6
:103CE8001350BD0F1624D96EDA6A155007080E6EE8
:103CF8000D50030DE40E0F6EBD0E106EF3500F261F
:103D0800F450102216500F26000E10220FC0F6FF96
:103D180010C0F7FF0800F5CF11F00E2A02D0D89096
:103D280011320E2EFCD71350BD0F1624E16EE26A35
:103D3800E750126ED89012341110DF6E162A020E58
:103D48001664CED7146A0D0E0E6EFC0EE82EFED742
:103D58000E2EFCD7142A270E1464F5D7BD0E076E55
:103D68009BEC25F0152A070E1564B9D7070C196EB8
:103D78001B6A1C6A1950BD0F1C24D96EDA6A1B50C5
:103D88000708146E1150050D12C015F013C016F077
:103D9800F3501526F45016221C501526000E162234
:103DA80015C0F6FF16C0F7FF0800F5CF17F0142A64
:103DB80002D0D8901732142EFCD71950BD0F1C24EE
:103DC800E16EE26AE750186ED89018341710DF6E6B
:103DD8001C2A040E1C64CED71A6A0D0E146EFC0E33
:103DE800E82EFED7142EFCD71A2A270E1A64F5D708
:103DF800BD0E076E9BEC25F01B2A070E1B64B9D776
:103E0800070C0550061001E112000D6A1AD00D507A
:103E180099EC19F00550DE1813E10650DE1810E190
:103E2800F29E0D5091EC19F02AD80D50A9EC19F01A
:103E38002BD80D50A1EC19F0DE6ADD6AF28E000C69
:103E48000D2A79500D5CE3E30F0E79600F0CF29E9A
:103E5800795099EC19F005C0DEFF06C0DDFF7950F6
:103E680091EC19F00CD87950A9EC19F00DD87950CB
:103E7800A1EC19F0DE6ADD6A792AF28E000C07C01F
:103E8800DEFF08C0DDFF120009C0DEFF0AC0DDFF4B
:103E980012000D6A3FD00D5099EC19F00550DE184C
:103EA80038E10650DE1835E1F29E0D50076E086ABB
:103EB80009680A6879500B6E0C6A09500B260A507B
:103EC8000C2207500B1803E108500C181FE079501A
:103ED800076E086AD89007360836D890073608362D
:103EE800D89007360836F80E0724D96E000E082039
:103EF800DA6E0D50080D000EF324E16E010EF42069
:103F0800E26E070EDBCFE3FFE806FCE27906F28EED
:103F180012000D2A79500D5CBEE31200085004E02F
:103F280005500610071006E1056A066A076A1200BE
:103F3800082A2DD80A6A0B6AFE0E07142DD807E046
:103F4800F7D7082A052A000E0622072220D80A6A6F
:103F58000B6A075021D806E0F4D70806D890053632
:103F68000636073606BE03D0020E0860F6D708A04C
:103F7800069ED890083208500712095001E0078EB3
:103F880005C005F006C006F007C007F01200D8907B
:103F980007320632053212000C6E0A500B100C1054
:103FA80012000D50D96EDA6A060E4AEC27F0DF6E61
:103FB8000D50D96EDA6A0D5022D8FAEC28F023D8C1
:103FC800050E4AEC27F01F0B1ED80C5018D8FAEC37
:103FD80028F01ED8040E4AEC27F03F0B19D80B50D6
:103FE8000ED8FAEC28F019D8030E4AEC27F0070B84
:103FF80014D80A5004D8FAEC28F0DF6E1200E16EEB
:10400800E26AE7501200DF6E0C50D96EDA6A1200CD
:10401800DF6E0B50D96EDA6A1200DF6E0A50D96E65
:10402800DA6A12000600D9CF03F0DACF04F0F2BA48
:10403800F2A403D05BEC29F030D0F2B8F2A211D090
:10404800F292010EF1AC000EFF0A026E023A02462D
:104058000246F1500218BF0B0218F16E3BEC22F039
:104068001CD09DB09EA008D09E903C0ECF6EB00E86
:10407800CE6E05EC29F011D0A0B2A1A208D0A19271
:10408800F00EB36E600EB26E96EC20F006D0F2BC65
:104098009DAA03D09EBA0EEC26F004C0DAFF03C036
:1040A800D9FF7B921100E8C0A4F0E9C0A3F033D88F
:1040B800D8EC22F0EB0E0A6EEC0E0B6EED0E0C6EC9
:1040C800EE0E0D6ED5EC1FF00001A451E81901E0C9
:1040D8007482030EE81902E1010EFD6FB55107E085
:1040E800E80E216EF50E226EB1EC19F001D0F56BD9
:1040F800060E0001EA65060C180EEA61180CE95173
:10410800D8A41200E851D8A41200FD51D8B4120066
:10411800010EA76F010CEA0E0A6EE90E0B6EE80E8F
:104128000C6E12000001A0510AE09A2B1E0E9A6133
:1041380003D0800E8C1A03D09A6BA06B8C9EB95159
:10414800D8B41200A751D8B41200FD6B98510BE1F6
:10415800992B140E996103D0800E8C1A04D0996B98
:10416800010E986F8C9E980502E18F4B902B2D0EB7
:104178008F5D010E905904E38F6B906B020E986F60
:10418800020E9819D8A41200992B140E996103D025
:10419800800E8C1A800C996B986BA76B8C9E120002
:1041A800126E010E116E146A136A0C50070D930EED
:1041B8000F6EB70E106EF3500F26F45010221450E5
:1041C8000F26000E10220FC0F6FF10C0F7FF0800E0
:1041D800F55011140BE013C005F00DC006F00EC029
:1041E80007F012501424DAEC27F00AD013C005F0B7
:1041F8000DC006F00EC007F01250142434EC27F05E
:10420800D8901136132A070E1364CFD7010E116EFA
:10421800142A060E1464C8D7060C196E010E186EFF
:104228001B6A1A6A1150050D12C016F013C017F058
:10423800F3501626F45017221B501626000E17228C
:1042480016C0F6FF17C0F7FF0800F55018140BE06A
:104258001AC005F014C006F015C007F019501B2449
:10426800DAEC27F00AD01AC005F014C006F015C021
:1042780007F019501B2434EC27F0D89018361A2A66
:10428800070E1A64CFD7010E186E1B2A040E1B6482
:10429800C8D7040C096A0950BE0FD96EDA6A0950EA
:1042A800CDEC22F0092A1E0E0964F5D7040E000190
:1042B800AE650DD023D807E1AE2B1F0EAE65010CFD
:1042C800AF6BAE6B000CDC6BAE6BAF2B010C16D872
:1042D800050DEA0E076EB70E086EF3500726F45068
:1042E8000822AE510726000E082207C0F6FF08C0B4
:1042F800F7FF0800F5CFDCF0AE2B010CAF51052419
:10430800D96E000E0620DA6EDF5012000A6A08AE77
:1043180006D0076C081ED8B0082A010E0A6E06AE31
:1043280006D0056C061ED8B0062A010E0A1A0B6ABA
:104338000C6A075008101BE0010E096E04D0D890D3
:1043480007360836092A08AEFAD7D8900B360C3645
:104358000750055C0850065805E30750055E0850ED
:10436800065A0B80D89008320732092EEED70A5029
:1043780004E00B6C0C1ED8B00C2A0BC005F00CC066
:1043880006F012000D6A0E6A0F6A106A09500A10C8
:104398000B100C1029E0010E116E06D0D8900936CA
:1043A8000A360B360C36112A0CAEF8D7D8900D36D3
:1043B8000E360F3610360950055C0A5006580B5059
:1043C80007580C50085809E30950055E0A50065A68
:1043D8000B50075A0C50085A0D80D8900C320B32EB
:1043E8000A320932112EE2D70DC005F00EC006F0D0
:1043F8000FC007F010C008F012000F6A116A106AA7
:10440800B60E0B6EB70E0C6E0F500B26000E0C225C
:1044180011500B26000E0C220BC0F6FF0CC0F7FF44
:104428000800F5CF0DF01050BD0FD96EDA6A0D50A7
:10443800DF160F2A070E0F6401D00F6A102A1F0E0D
:104448001064DED7BD0E076E9BEC25F00E6A0D0ECC
:104458000B6EFC0EE82EFED70B2EFCD70E2A630E31
:104468000E64F5D7112A070E1164C9D7070C00018D
:10447800BC51D8B41200A52B080EA5191BE1A56BD9
:1044880019D0360ECC6FCD6F360C240E24D0240EE6
:10449800CC6FCD6F240C240ECC6FCD6B1200CC6B7F
:1044A800CD6B1200120EF8D7120ECC6FCD6F120C16
:1044B800120E11D0A551E5E0010AE7E0030AE7E092
:1044C800010AE9E0070AEBE0010AECE0030AECE084
:1044D800010AEEE01200CC6F360ECD6F360C186A6A
:1044E80014AE06D0136C141ED8B0142A010E186E20
:1044F80016AE04D0156C161ED8B0162A1550161014
:1045080017E0010E176E04D0D89015361636172A04
:1045180016AEFAD71550135C1650145804E315500C
:10452800135E1650145AD89016321532172EF2D739
:10453800185004E0136C141ED8B0142A13C013F0DA
:1045480014C014F01200100E0E6E0F0E0F6E0C6ACF
:10455800D10E0E2424D80E501CD80E2AD10E0F24AA
:104568001ED80F5016D80F06BD0E076E9BEC25F00F
:104578000D6A0D0E0B6EFC0EE82EFED70B2EFCD727
:104588000D2A1D0E0D64F5D70C2A0F0E0C64E0D70A
:104598000F0CBD0FE16EE26ADFCFE7FF1200D96EA4
:1045A800DA6A010EDA2212000C501BEC27F04AECF2
:1045B80027F0DF6E0C50D96EDA6A0C5003EC20F04D
:1045C800FAEC28F016D8010E4AEC27F012D80B5056
:1045D80003EC20F0FAEC28F011D8020E4AEC27F090
:1045E8003F0B0CD80A5003EC20F0FAEC28F0DF6EF1
:1045F8001200DF6E0B50D96EDA6A1200DF6E0A50B5
:10460800D96EDA6A1200820E0001FF6FDD0EE82E05
:10461800FED7FF2FFCD700D0F7EC15F02AEC29F0D5
:104628000001BC6B93EC26F0010EBC6FF29E15D80E
:1046380079EC16F075EC16F005EC1FF0BC0E056E63
:10464800480E066E086A076A0A6A010E096E05ECCA
:104658001FF0F28E2CEC19F0FDD78E0E056E180E99
:1046680012000ED010EC24F011C013F012C014F098
:10467800166A050E156E73EC22F013500001A96F2F
:104688000001A951A819EEE0A9C0A8F0A951020D8E
:10469800E00EF324F66EB70EF420F76E0900F5CF9E
:1046A80095F00A00F5CF96F00500FA6E9551FD6E6B
:1046B8009651FE6EF850FF6EFA5012000E6A26D818
:1046C800DF501FE00C6A22D80E50BD0FE16EE26A7F
:1046D800E7500B6ED8900B34DF6EBD0E076E9BEC67
:1046E80025F00D6A0D0E0B6EFC0EE82EFED70B2E74
:1046F800FCD70D2A090E0D64F5D70C2A070E0C6499
:10470800E2D70E2A1F0E0E64DAD71F0C0E50BD0F0B
:10471800D96EDA6A12000C6E0E6A24D00F6A0F5036
:10472800BE0FD96EDA6A0F50CDEC22F00F2A1E0E9A
:104738000F64F5D70E50DD0FD96EDA6ADF5000012D
:10474800DC6FBD0E076E9BEC25F00D6A0D0E0B6E2F
:10475800FC0EE82EFED70B2EFCD70D2A270E0D6473
:10476800F5D70E2A0E500C5CD9E21200640E0E6EBC
:104778000D6A0F6A0F50BE0FD96EDA6A0F50CDEC72
:1047880022F00F2A1F0E0F64F5D70001DC6BBD0E57
:10479800076E9BEC25F00C6A08D00D0E0B6EFC0E14
:1047A800E82EFED70B2EFCD70C2A0E500C5CF5E336
:1047B8000A0E0E6401D00E5E0D2A1F0E0D64D9D7A5
:1047C8001F0C640E0E6E0D6A1F0E0F6E0F50BC0F7D
:1047D800D96EDA6A0F50CDEC22F00F060F50F6E1D1
:1047E8000001BD6BBD0E076E9BEC25F00C6A08D06E
:1047F8000D0E0B6EFC0EE82EFED70B2EFCD70C2AE6
:104808000E500C5CF5E30A0E0E6401D00E5E0D2A04
:104818001F0E0D64D9D71F0CF5C105F0F6C106F0BF
:10482800F7C107F0F8C108F06D0E096E4E0E0A6E5A
:10483800C60E0B6E410E0C6ED0EC24F005C0F5F1DF
:1048480006C0F6F107C0F7F108C0F8F1390E01010A
:10485800F527300EF623000EF723F823F751116ED3
:104868007F0EF815126E12000C6E0F6A106A78EC43
:1048780029F0EC0E6AEC29F00C506AEC29F07CEC7B
:1048880029F0ED0E6AEC29F0010E4AEC28F00F6EC3
:10489800106A000E4AEC28F00D6E0E6A74EC29F0CE
:1048A8000D500B6E0A6A0F500A10086E10500B104C
:1048B800096E120081B202D0010E0BD081B402D071
:1048C800020E07D081B602D0030E03D081B803D000
:1048D800040E056E01D0056A05500FE0290E00018F
:1048E8009F61290C9F2B280E9F19D8A4120005C080
:1048F80077F09F6B010EA06F010C00019F6B1200F7
:104908008E0E156E06D0D89010320F320E320D3240
:10491800152A116A126A136A1050146E1150121077
:1049280013101410F0E10DC005F00EC006F00FC012
:1049380007F015C008F0000E096E92EC1FF005C0D4
:104948000DF006C00EF007C00FF0120019D0B20E1D
:10495800756EBD0E766E1200800E756EBD0E766E8B
:1049680012004E0E756EBD0E766E12001C0E756E20
:10497800BD0E766E1200EA0E756EBC0E766E1200D3
:104988007A50010AE4E0030AE7E0010AEAE0070ACC
:10499800EDE0010AF0E012000D6A0E6A0F6A106A73
:1049A80005A008D009500D260A500E220B500F22E0
:1049B8000C501022D89009360A360B360C36D8908F
:1049C8000832073206320532055006100710081063
:1049D800E7E10DC005F00EC006F00FC007F010C0EB
:1049E80008F012000A6A0B6A075008101BE0010E53
:1049F800096E04D0D89007360836092A08AEFAD7C7
:104A0800D8900A360B360750055C0850065805E35F
:104A18000750055E0850065A0A80D89008320732B7
:104A2800092EEED70AC005F00BC006F012000C6A7A
:104A38001F0E0D6E0E6A0C5019D80C2A0D5016D880
:104A48000D06BD0E076E9BEC25F00F6A0D0E0B6E62
:104A5800FC0EE82EFED70B2EFCD70F2A1D0E0F6476
:104A6800F5D70E2A0F0E0E64E6D70F0CBD0FD96EC0
:104A7800DA6ADF6A12008B6A180E946E8A6A1F0E51
:104A8800936EF19E8C6A956A896A010E926EC30EC6
:104A9800C216C150F00B0E09C16ECF0EC116C05020
:104AA800F80B0209C06EC08EC280F18CF292F288B7
:104AB800828012000E500F1017E0010E106E04D005
:104AC800D8900E360F36102A0FAEFAD70E500C5C5F
:104AD8000F500D5804E30E500C5E0F500D5AD8902D
:104AE8000F320E32102EF2D70CC00CF00DC00DF0A4
:104AF800120082909490070E056E7D0EE82EFED768
:104B0800052EFCD700F082809480C80E00D0E82ED5
:104B1800FDD7000E82B0010E066E060E056E800EE1
:104B2800E82EFED7052EFCD700D0065012000A6AE0
:104B38008C90096A0950F80D0750F3240A24D96E9D
:104B4800DA6A180ED926DF50086E0A28F1EC26F02A
:104B58000850F1EC26F0092A030E0964EBD78C8083
:104B68000A2A070E0A64E4D7070C156E1550EEECF6
:104B780027F0106E030EA5EC28F01250EEEC27F08B
:104B8800106E040EA5EC28F01350EEEC27F0106E12
:104B9800050EA5EC28F01450EEEC27F0106E060E6A
:104BA800A5EF28F0086E0A6A0AC006F008C007F0E8
:104BB800062A02D0D8900732062EFCD70750096E75
:104BC800010E0916095026EC28F00A2A070E0A6475
:104BD800EBD7D20E00D0E82EFDD71200076A086A7C
:104BE800B3EC28F000090CE008C005F0010E066ED1
:104BF800052A02D0D8900636052EFCD70650071293
:104C0800F00E00D0E82EFDD7082A070E0864E8D772
:104C180007501200ABA202D0AB98AB88000E00017F
:104C28009C250FD8AECFDFFF9C2B950E9C6501D03D
:104C38009C6BA62BA605016E950E0164950CA66BC0
:104C48001200D96EDA6A030EDA221200056E00012C
:104C58009D51FDE09DB805D09EA8FED705C0ADFFCB
:104C680012009D98780E9E25D96EDA6A010EDA2216
:104C780005C0DFFF9E2B0F0E9E6501D09E6B9D0722
:104C880012008B94E20E75EC27F08B84700E076E81
:104C9800070EE4EC28F08B920B0E076E000EE4EC86
:104CA80028F08B82C00E00D000D0E82EFCD700D0B0
:104CB80000D000D0120010D0BD0E076E9BEC25F07E
:104CC8000E6A0D0E0D6EFC0EE82EFED70D2EFCD7CB
:104CD8000E2A3B0E0E64F5D70BC005F00CC006F08B
:104CE8004EEC21F00009E8E11200066E086A055052
:104CF80014E0010E076E03D0D8900536072A05AEDA
:104D0800FBD7D89008360550065C03E30550065ECD
:104D18000880D8900532072EF4D70850120017ECF7
:104D28001BF0510E136EBE0E146E240E156EBE0EC1
:104D3800166E050E176EBE0E186E110E196EBE0E8B
:104D48001A6E49EC14F022EC1BF05FEF26F08C8011
:104D5800010E076E0C0E7AEC28F0076A090E7AEC41
:104D680028F0070E076E0B0E7AEC28F0020E076E7D
:104D78000A0E7AEC28F0076A0F0E7AEF28F0146E04
:104D88001350EEEC27F0106E000EA5EC28F0125030
:104D9800EEEC27F0106E010EA5EC28F01450EEECA6
:104DA80027F03F0B106E020EA5EF28F00A6E8B94C9
:104DB8000A5075EC27F00B6A0BD007C0F6FF08C045
:104DC800F7FF0800F55075EC27F0074A082A0B2A68
:104DD80009500B5CF2E38B841200056E066A05AE7F
:104DE80002D08C8401D08C948C8200F000F000F00A
:104DF80000F000F000F000F08C92D8900536062AFA
:104E0800070E0664ECD7070C096E8B94095075ECF5
:104E180027F00A6A07D007500A2409D875EC27F04A
:104E2800DF6E0A2A08500A5CF6E38B841200D96EFA
:104E3800DA6A000C0001FB5103E1460EFA5D05E356
:104E4800030E076E0A0E7AEF28F0FB5108E1330EC5
:104E5800FA5DD8B01200076A0A0E7AEC28F0120040
:104E68000B6E05C008F0010E096E082A02D0D89012
:104E78000936082EFCD7091C0A6E0B500624D96E79
:104E8800000E0720DA6E0A50DF161200086E78EC62
:104E980029F0D00E6AEC29F008506AEC29F07CEC75
:104EA80029F0D10E6AEC29F0000E4AEC28F0096EC0
:104EB80074EC29F009501200948C948EAC84AC9850
:104EC800AC8AAB88AB8EB886040EB06E100EAF6E8F
:104ED80000019E6B100E9D6F9C6B9B6BA66B9D8A51
:104EE8001200056E066A05AE02D08C8801D08C9837
:104EF800D89005368C8A010E83A6000E05128C9A6E
:104F0800062A070E0664EFD7055012007DEC25F03F
:104F18000009D8A41200CC0ED6EC25F04E0ED6EC23
:104F280025F0000ED6EC25F0000ED6EC25F07F0E0D
:104F3800D6EF25F005C007F006C008F002D0074AF2
:104F4800082A07C0D9FF08C0DAFFDF50F8E105508A
:104F5800075C056E06500858066E1200FA0EA3ECA0
:104F68001BF008C02DF009C02EF00AC02FF00BC0AE
:104F780030F02DC029F02EC02AF02FC02BF030C001
:104F88002CF01200F70EA3EC1BF008C02DF009C09E
:104F98002EF00AC02FF00BC030F02DC029F02EC023
:104FA8002AF02FC02BF030C02CF012000A6E05C07A
:104FB80008F0010E096E082A02D0D8900936082E8A
:104FC800FCD70A500624D96E000E0720DA6E095065
:104FD800DF1212000F6E0A0E096E0F5001EC28F056
:104FE8000D6E0F0E0D160A0E056E0F5079EC26F099
:104FF8000E6E0E38F00B0D1012000A6E080E0B6EB6
:105008000C6AD8900A340C340C6ED8900A360950C1
:105018000C5C02E309500C5E0B2EF3D70C50120007
:10502800A651FEE0000E9B2525EC26F0DF50056E0C
:105038009B2B950E9B6501D09B6B9D9AA6079D8A1D
:1050480005501200056E82909490050406E1060E44
:10505800E82EFED700D082809480D20E00D0E82EB1
:10506800FDD7828094801200066EA6B2FED706C0D5
:10507800A9FF05C0A8FFA69EA69CA684F29E550E71
:10508800A76EAA0EA76EA682F28EAA0C066E53EC25
:1050980029F0C58653EC29F0C9CF07F053EC29F065
:1050A800065002E1C58A01D0C59AC588075012008A
:1050B800C282C2B2FED7C450066E056AC350052428
:1050C800FA6F000E0620FB6F00F000F0120007D800
:1050D8002A0EDAEC26F003D8300EDAEF26F00CC0F0
:1050E80007F00DC008F0050E096E050C086E8C90CF
:1050F800096A0850F1EC26F00750F1EC26F0092A6D
:10510800030E0964F6D78C80030C086E78EC29F03E
:10511800EC0E6AEC29F008506AEC29F007506AECAA
:1051280029F074EF29F0CD903C0ECF6EB00ECE6E04
:105138009D80B192B180A082F00EB36E600EB26E07
:10514800600C116E78EC29F0D00E6AEC29F0115041
:105158006AEC29F010506AEC29F074EF29F082907B
:105168009490030EE82EFED700F082809480140EEF
:10517800E82EFED782B0010C000C0BC007F097C0D8
:1051880008F0610E08EC27F0400E076E070EE4EFFA
:1051980028F0076E8B94075075EC27F0000E75EC1D
:1051A80027F0086E8B8408501200180E9412280EEF
:1051B800C66EC76A630EC86EC584C5A41200FDD743
:1051C800086E8B940850200975EC27F0075075EC91
:1051D80027F08B8412004BEC29F00A6E0ABC010CF4
:1051E80063EC29F00009D8B4010C000C066E06C067
:1051F80005F00F0E051606380F0B0A0DF35005249F
:1052080012000001F72B950EF765950CF76B010E50
:10521800F66FCD90010C106A0E0EA5EC28F0080E62
:10522800106E0F0EA5EF28F00CC007F00DC008F0A7
:10523800050E096E2B0EDAEF26F0A6B2FED705C0D2
:10524800A9FFA69EA69CA680A8501200056A055034
:105258003AEC25F0052A1F0E0564F9D71F0C05C086
:10526800F5F106C0F6F10101F76BF86B12009586AF
:10527800959894929494959A958C8B841200C70E65
:10528800D56EF28AD76A3D0ED66E796A12008B9473
:10529800FF0E75EC27F0076E8B8407501200C7B419
:1052A800FED7C5CF05F01F0E0516F9E11F0CF294C5
:1052B800D76A3D0ED66E010E0001B46F010C170EB1
:1052C800CDEC28F0096E0950010B1200066E53EC64
:1052D80029F006C0C9FF12009C6B9B6BA66B1200DD
:1052E80053EC29F0C584120053EC29F0C580120054
:1052F80053EC29F0C5821200959E8C9E1200F28E06
:10530800F28C1200040E776E040CF4012B0102B229
:07531800BD050101000000CA
:10B792000000000000000000087C4E4F4E7C0804B0
:10B7A20026473F070604203E7F7F3F3E207E121E33
:10B7B20000701000FDBFEF7FFBDFF7FEFDBFEF7FE4
:10B7C200FBDFF7FE0001010202030404050606077F
:10B7D2000708090901000A006400E803102702446F
:10B7E2007447CA47364AC446000000000045514526
:10B7F2003E006B6F6B3E003E7C3E1C003C7E3C1864
:10B8020000367F363000000000000000000000001B
:10B812000000000000000000000000000000000026
:10B822000000000000000000000000000000000016
:10B832000000000000000000000000000000000006
:10B8420000000000000000000000000000000000F6
:10B85200000000000000000000000000003636007A
:10B862000000243600000024240000002400000010
:10B872000000000000001200000000121200000090
:10B882001236000000123600000000000000005FC7
:10B8920000000007000700147F147F14242A7F2A67
:10B8A2001223130864623649562050000807030029
:10B8B200001C2241000041221C002A1C7F1C2A0875
:10B8C200083E080800807030000808080808606018
:10B8D20000000020100804023E5149453E00427F0C
:10B8E200400042615149462141454B311814127FB3
:10B8F2001027454545393C4A49493001710905033C
:10B902003649494936064949291E000036360000A3
:10B91200403400000008142241141414141400418D
:10B9220022140802015909063E415D594E7C12114A
:10B93200127C7F494949363E414141227F41414182
:10B942003E7F494949417F090909013E41415172FE
:10B952007F0808087F00417F41002040413F017F6E
:10B96200081422417F404040407F0204027F7F044E
:10B9720008107F3E4141413E7F090909063E41517F
:10B98200215E7F09192946264949493201017F0171
:10B99200013F4040403F1F2040201F3F4038403F72
:10B9A2006314081463030478040361514945430096
:10B9B2007F41410002040810200041417F0004023F
:10B9C2000102044040404040000307080020545454
:10B9D20078407F2844443838444444283844442832
:10B9E2007F3854545418087E09020018A4A49C7885
:10B9F2007F0804047800447D40002040403D007FE1
:10BA02001028440000417F40007C047804787C08C0
:10BA12000404783844444438FC1824241818242494
:10BA220018FC7C04040800485454542400043F4485
:10BA3200203C4040207C1C2040201C3C4030403CAC
:10BA420044281028444C9090907C4464544C440008
:10BA5200083641000000770000004136080002016C
:10BA620002040200000000000000000000000000CC
:10BA720000000000000000000000000000000000C4
:10BA820000400040004000000000000000000000F4
:10BA92003E55554122000000000000000000000059
:10BAA2000000000000000000000000000000000094
:10BAB2000000000000000000000000000000000084
:10BAC2000000000000000000000000000000000074
:10BAD20000000C1E1E0C0000000000000000000010
:10BAE2000000000000000000000000000000000054
:10BAF2000000000000000000000000000000000044
:10BB02000000000000000000000000000000000033
:10BB12000000000000000000000000000000000023
:10BB2200007E02020203000000000000000000008C
:10BB32007E4B4A4B4200000000003E494949220028
:10BB420000000000000000000000000000000000F3
:10BB520000000000417E4100000609090644445FDE
:10BB6200444400417F410000447D4000007C0404C5
:10BB720006000000000000000000000000000000BD
:10BB820038555455180000000000385454544422CB
:10BB9200142A14082040403D00000000000000006C
:10BBA20000000000457C41007E1111117E7F494951
:10BBB20049317F494949367F01010101C07E417EF9
:10BBC200C07F4949494177087F0877224149493670
:10BBD2007F1008047F7E1109057E7F0814224140F0
:10BBE2007E01017F7F020C027F7F0808087F3E41B1
:10BBF20041413E7F0101017F7F090909063E414122
:10BC0200412201017F0101274848483F0E117F115F
:10BC12000E63140814637F40407FC0070808087F42
:10BC22007F407E407F7F407E40FF017F4444387FDB
:10BC32004438007F7F44444438224149493E7F08CA
:10BC42003E413E462919097F20545454783C4A4AC1
:10BC52004A317C54545428007C040404C078447C47
:10BC6200C038545454186C107C106C284454542816
:10BC72007C2010087C7C2111097C7C101028444017
:10BC82003804047C7C0810087C7C1010107C38443A
:10BC92004444387C0404047C7C141414083844445E
:10BCA200442804047C04044C5050503C18247C2446
:10BCB20018006C10106C7C40407CC00C1010107C82
:10BCC2007C4078407C7C407840FC047C5050207C56
:10BCD2005020007C007C50502044545454387C1036
:10BCE200384438485434147C3E41417F3E00427F00
:10BCF2007F406273594F462263497F361814127F80
:10BD02007F2F45457D393E49497B320371790F07C3
:10BD12003649497F362649497F3E3E7F417F3E0074
:10BD2200427F7F406273594F462263497F3618141F
:10BD3200127F7F2F6F457D393E7F497B32037379B6
:10BD42000F07367F497F36266F497F3E7F41417F0D
:10BD52007F00017F7F007151515F5F4149497F7FC1
:10BD62001F10107F7F4F494979797F4949797901BD
:10BD720001017F7F7F49497F7F4F49497F7F7F7FD5
:10BD8200417F7F00017F7F007373515F5F636B4967
:10BD92007F7F1F1F107F7F6F6F4979797F7F497B7C
:10BDA2007B0373790F077F7F497F7F6F6F497F7FA7
:10BDB2007F7F417F7F00017F7F007171515F5F4113
:10BDC20049497F7F1F1F107F7F4F4F4979797F7FBE
:10BDD2004979790171790F077F7F497F7F5F5F51D1
:10BDE2007F7F0000007C447C007C0074545C5454CF
:10BDF2007C1C107C5C54747C547404047C7C547CE5
:10BE02005C547C417072203037203230313800313E
:10BE1200333A32363A353800197927090419792725
:10BE22000904436C6F636B2076332E302E30206210
:10BE320079204976616E5F666400257525752563F4
:10BE42002575256300ECEC2EF0F22EF1F22E002582
:10BE52007320257320257300286E756C6C290044AD
:10BE620053543A00C7E23A00D0EA3A00C4ED3A002D
:10BE7200D2EF3A00D8F03A00CCF13A00D7F13A00CA
:10BE8200DFF13A00C0F23A00D2313A00D2323A003F
:10BE9200D1E100C0E200C6E200CAE200CDE400CF78
:10BEA200ED00CBEF00C1F000C2F000C3F000D1F012
:10BEB20000D2F000D7F000CBF100CFF100C2F200C7
:0DBEC200CBF200CFF200D7F200D1F7000064
:020000040020DA
:080000000109070903000000DB
:020000040030CA
:0E000000FF061E1EFF8181FF0FC00FE00F40A4
:0200000400F00A
:1000000004020102010101010102000000000000E0
:00000001FF
