:0400000007EF00F016
:100008007B8222ED1CF0E8EF19F0D6EC22F029C033
:1000180056F02AC057F02BC058F02CC059F0EAEC23
:1000280022F029C04AF02AC04BF02BC04CF02CC05B
:100038004DF00B0E89DBD89038343C6E39343D6E68
:100048003A343E6E3B343F6E030E406E56C041F06C
:1000580057C042F058C043F059C044F0406601D040
:1000680007D044344432433242324132402EF6D72C
:100078003C50415C056E3D504258066E3E50435818
:10008800076E3F504458086E99C009F09AC00AF0AC
:100098004CDBDCEC1FF0376601D003D00ADB372ECF
:1000A800FAD716DB0C0E50DB040E3C6E56C03DF042
:1000B80057C03EF058C03FF059C040F03C6601D0F0
:1000C80003D054DB3C2EFAD738503D5C056E3950CE
:1000D8003E58066E3A503F58076E3B504058086EDF
:1000E80000019B51416E9C51426E436A446A040E62
:1000F800456E56C046F057C047F058C048F059C042
:1001080049F0456601D007D0493449324832473270
:100118004632452EF6D74150465C096E4250475844
:100128000A6E435048580B6E445049580C6EDCEC2C
:100138001FF0376601D003D0BCDA372EFAD7BFDA02
:100148000E0E376EF8DA97C009F098C00AF0EDDAAB
:10015800DCEC1FF0376601D003D0ABDA372EFAD7C4
:10016800C0DA5E506624526E5F506720536E60504E
:100178006820546E61506920556E52C005F053C016
:1001880006F054C007F055C008F0050E096E0A6A5B
:100198000B6A0C6ADCEC1FF0800E0524376E000E2B
:1001A8000620386E000E0720396E000E08203A6EC1
:1001B80038C037F039C038F03AC039F03A6A39BE39
:1001C8003A6837C04EF038C04FF039C050F03AC0E6
:1001D80051F035C0D9FF36C0DAFF4EC0DEFF4FC040
:1001E800DEFF50C0DEFF51C0DEFF52C037F053C003
:1001F80038F054C039F055C03AF03A34BDDA000E40
:100208003724666E060E3820676EFF0E3920686E3A
:10021800FF0E3A20696E0B0E12DADCEC1FF037661F
:1002280001D003D046DA372EFAD749DA84DA8DC0FE
:1002380009F08EC00AF079DADCEC1FF052DA8FC0D0
:1002480005F090C006F056DADCEC1FF0D8900534C3
:10025800376E0634386E0734396E08343A6E3750C4
:100268005E2638505F22395060223A5061220001E0
:100278009151376E9251386E396A3A6A38C03AF0FD
:1002880037C039F0386A376A020E3B6E5EC03CF000
:100298005FC03DF060C03EF061C03FF03B6601D0FA
:1002A80007D03F343F323E323D323C323B2EF6D708
:1002B80037503C245E6E38503D205F6E39503E20EA
:1002C800606E3A503F20616E0D0EB9D9DCEC1FF01C
:1002D800376601D003D0EDD9372EFAD7F0D9120EF0
:1002E800376E030E386E93C005F094C006F0000E0A
:1002F8000FDADCEC1FF005C039F006C03AF007C091
:100308003BF008C03CF0386601D007D03C343C32A2
:100318003B323A323932382EF6D795C005F096C0BE
:1003280006F0E8D9DCEC1FF0C4D9055039243D6E3D
:1003380006503A203E6E07503B203F6E08503C2046
:10034800406E376601D003D011DA372EFAD73DC098
:1003580066F03EC067F03FC068F040C069F00F0E1D
:10036800376E000E6624056E800E6720066E000E3E
:100378006820076E000E6920086EF3C009F0F4C00B
:100388000AF00B6A0C6ADCEC1FF0376601D003D068
:1003980090D9372EFAD79CD9665067106810691023
:1003A80001E112000C0E376E5EC038F05FC039F004
:1003B80060C03AF061C03BF0376601D004D03B34EE
:1003C800E0D9372EF9D74AC03CF04BC03DF04CC0BD
:1003D8003EF04DC03FF03C1E3D1E3E1E3F1E3C2AD7
:1003E800000E3D223E223F2238503C5C406E395080
:1003F8003D58416E3A503E58426E3B503F58436E0E
:10040800000E4024056E000E4120066E100E42209C
:10041800076E000E4320086E350E096E0C0E0A6E2C
:100428000B6A0C6ADCEC1FF005C062F006C063F0D2
:1004380007C064F008C065F0800E655C15E2D890CE
:100448006234056E6334066E6434076E6534086E74
:1004580084D957EC1DF005C062F006C063F007C0F0
:1004680064F008C065F014D062C005F063C006F0FF
:1004780064C007F065C008F070D957EC1DF0D8903B
:100488000534626E0634636E0734646E0834656E34
:1004980062C037F063C038F064C039F065C03AF024
:1004A800040E02D0D89068D9E82EFCD737C005F0E2
:1004B80038C006F039C007F03AC008F062C03BF017
:1004C80063C03CF064C03DF065C03EF0040E05D04A
:1004D800D8903E323D323C323B32E82EF9D73BC011
:1004E80009F03CC00AF03DC00BF03EC00CF0DCEC5B
:1004F8001FF00E0E05D0D8900832073206320532AA
:10050800E82EF9D7DCD80C0E376E87C005F088C006
:1005180006F0000EFDD8DCEC1FF0376601D003D0E2
:10052800C8D8372EFAD7D4D80D0E376E62C038F037
:1005380063C039F064C03AF065C03BF0030E02D0E6
:10054800D8901FD9E82EFCD738C005F039C006F07E
:100558003AC007F03BC008F089C009F08AC00AF029
:10056800E4D8DCEC1FF0376601D003D0A2D8372ED0
:10057800FAD7B7D8040E376E8BC038F08CC039F074
:10058800000E39BEFF0E3A6E3B6E665038243C6E44
:10059800675039203D6E68503A203E6E69503B20C6
:1005A8003F6E5E503C24406E5F503D20416E60506F
:1005B8003E20426E61503F20436E376601D007D01F
:1005C80043344332423241324032372EF6D76250FA
:1005D8004024626E63504120636E64504220646E12
:1005E80065504320656E070E196E400E1A6E3F0E59
:1005F8001B6E62C00DF063C00EF064C00FF065C0E2
:1006080010F090EC1FF00DC016F00EC017F00FC0E0
:1006180018F02EEC18F016C025F017C026F018C0F8
:1006280027F0F0EC18F03450D96EDA6A25C0DEFFF6
:1006380026C0DEFF27C0DEFF28C0DEFF1200376EAF
:10064800020E386E66C039F067C03AF068C03BF0F9
:1006580069C03CF0386601D007D03C343C323B32AC
:100668003A323932382EF6D739C005F03AC006F09A
:100678003BC007F03CC008F0020E3D6E66C03EF07D
:1006880067C03FF068C040F069C041F03D6601D0E6
:1006980007D04134413240323F323E323D2EF6D708
:1006A8003EC009F03FC00AF040C00BF041C00CF05A
:1006B800120008340832073206320532120005C02B
:1006C8005AF006C05BF007C05CF008C05DF012008D
:1006D80005C066F006C067F007C068F008C069F09A
:1006E800120005C05EF006C05FF007C060F008C0E9
:1006F80061F01200000E06BEFF0E076E086E66C09F
:1007080009F067C00AF068C00BF069C00CF012006D
:1007180006BEFF0E076E086E5AC009F05BC00AF0ED
:100728005CC00BF05DC00CF01200000E0ABEFF0E9C
:100738000B6E0C6E12005AC005F05BC006F05CC070
:1007480007F05DC008F01200376E00019B51386E4B
:100758009C51396E3A6A3B6A120066C009F067C05C
:100768000AF068C00BF069C00CF012004034403247
:100778003F323E323D3212003A3239323832373265
:1007880012003B323A323932383212000001B45189
:100798000DE038EC23F0166E910EAF25D96EDA6AAB
:1007A800010EDA2216C0DFFFAF2B1200240E010162
:1007B800911901E1D2D2F5D21FDB0001826F01014C
:1007C80021DB0001816F81C012F0136A8251BBECFA
:1007D80021F04F0E54EC21F04B0E54EC21F00D0E8D
:1007E80054EC21F00A0E54EC21F0DBD2E2DA1804C2
:1007F800191005E0DEDA020E181819101FE19351DE
:10080800D00F786E78C005F0010E5CEC23F04EEC4A
:1008180024F0780403E10001C76B02D053EC16F012
:10082800B36B4F0E54EC21F04B0E54EC21F00D0E2F
:1008380054EC21F00A0E54EC21F0B3D2450E54ECDE
:1008480021F0520E54EC21F00D0E54EC21F00A0E5A
:1008580054EC21F0A6D2010ECBDA5CEC23F0B6EC16
:100868001FF022D0020EC4DA5CEC23F0F8D7030E96
:10087800BFDA5CEC23F0F3D7040EBADA5CEC23F0B1
:10088800EED7050EB5DA5CEC23F0E9D792DA195009
:100898000BE11850010ADFE0030AE4E0010AE7E08F
:1008A800070AEAE0010AEDE0D00E166E17680101AA
:1008B80093518ADA19BE05D0195007E1060E185C63
:1008C80004E277DA185019100DE1450E54EC21F0C6
:1008D800520E54EC21F00D0E54EC21F00A0E54EC9B
:1008E80021F05FD24F0E54EC21F04B0E54EC21F066
:1008F8000D0E54EC21F00A0E54EC21F052D282DA9B
:10090800126E97510A0DF3509825F00F136E9951F6
:100918000A0DF3509A25F00F146E6EDAE3EC20F00E
:100928004F0E54EC21F04B0E54EC21F00D0E54EC0C
:1009380021F00A0E54EC21F034D23BDA1850191089
:1009480004E037DA180419100CE19351D00F0001B4
:10095800C66F64DAC56FC6C005F0020E5CEC23F002
:100968000DD0450E54EC21F0520E54EC21F00D0E32
:1009780054EC21F00A0E54EC21F013D20001C651B8
:1009880009E1C5C005F0030E5CEC23F03FEC14F060
:100998009EEC23F04F0E54EC21F04B0E54EC21F05A
:1009A8000D0E54EC21F00A0E54EC21F0FAD101DAC4
:1009B8001850191004E0FDD9180419100AE19351D0
:1009C800D00F0001C46FC4C005F0040E5CEC23F026
:1009D8000DD0450E54EC21F0520E54EC21F00D0EC2
:1009E80054EC21F00A0E54EC21F0DBD14F0E54ECFC
:1009F80021F04B0E54EC21F00D0E54EC21F00A0EB0
:100A080054EC21F0CED1D5D91850191004E0D1D921
:100A1800180419101BE1E7D9D7D91850191005E0A7
:100A2800E2D9D2D91804191011E19351D00F00015D
:100A3800C36FF4D9C26FC3C005F0050E5CEC23F098
:100A4800C2C005F0060E5CEC23F00DD0450E54EC48
:100A580021F0520E54EC21F00D0E54EC21F00A0E48
:100A680054EC21F09ED14F0E54EC21F04B0E54EC77
:100A780021F00D0E54EC21F00A0E54EC21F091D126
:100A880098D91850191004E094D9180419100AE1DB
:100A98009351D00F0001C16FC1C005F0070E5CEC87
:100AA80023F00DD0450E54EC21F0520E54EC21F0F9
:100AB8000D0E54EC21F00A0E54EC21F072D14F0EB9
:100AC80054EC21F04B0E54EC21F00D0E54EC21F0B7
:100AD8000A0E54EC21F065D14F0E54EC21F04B0E68
:100AE80054EC21F00D0E54EC21F00A0E54EC21F0D8
:100AF800330E176EBB0E166EE00EE82EFED7162EBE
:100B0800FCD7172EFAD7330E176EBB0E166EE00EF3
:100B1800E82EFED7162EFCD7172EFAD7330E176EEF
:100B2800BB0E166EE00EE82EFED7162EFCD7172E3B
:100B3800FAD7330E176EBB0E166EE00EE82EFED7F0
:100B4800162EFCD7172EFAD7FF002BD1740E931947
:100B580002E1030E04D0700E931903E1020E776EC2
:100B68000DD0450E54EC21F0520E54EC21F00D0E30
:100B780054EC21F00A0E54EC21F013D14F0E54EC32
:100B880021F04B0E54EC21F00D0E54EC21F00A0E1E
:100B980054EC21F006D11A6A0FD0930E1A24D96E9C
:100BA800DA6A010EDA22640E1A24E16EE26A020E93
:100BB800E222DFCFE7FF1A2AFE0E166E1768910EA3
:100BC800056E010E066EC2EC22F01650052617506F
:100BD80006221A50055C000E0658DFE24F0E54EC50
:100BE80021F04B0E54EC21F00D0E54EC21F00A0EBE
:100BF80054EC21F0ECC0B0F074800001C76BC9EC74
:100C080016F059EC1BF00CEC0DF059EC1BF042EC13
:100C180022F0C2EC1EF024EC10F011EC1BF053ECA7
:100C280016F0BFD0086A640EF3D802EC20F0D3D8CF
:100C38006AEC20F00C50300F54EC21F0086A0A0ED0
:100C4800E7D802EC20F0C7D86AEC20F00C50300F3F
:100C580054EC21F0F9C00CF0FAC00DF017EC12F0CA
:100C68006AEC20F00C50300F54EC21F05F0E54EC7D
:100C780021F066D01A6A150E1A24F66EF76ABE0EAF
:100C8800D2D854EC21F01A2A0B0E1A64F4D70D0EA0
:100C980054EC21F00A0E54EC21F01A6A210E1A24A1
:100CA800F66EF76ABE0EBFD854EC21F01A2A080E69
:100CB8001A64F4D70D0E54EC21F00A0E54EC21F00E
:100CC8003FD00001FB5154EC21F0086A640E076E16
:100CD80000EC0DF002EC20F07ED86AEC20F00C500D
:100CE800300F54EC21F0F2EC0CF002EC20F073D849
:100CF8006AEC20F00C50300F54EC21F0EAEC0CF0C8
:100D08006AEC20F00C50300F54EC21F05F0E54ECDC
:100D180021F016D0450E54EC21F0520E54EC21F07F
:100D28000D0E54EC21F00A0E54EC21F009D0935129
:100D3800610A01E177D7150AC4E0020A9BE0EAD705
:100D48004F0E54EC21F04B0E54EC21F00D0E54ECE8
:100D580021F00A0E54EC21F024D09251530A01E1FB
:100D68001AD7320A01E14FD6030A01E1E6D5010A92
:100D780001E13CD5070A01E1C2D5010A01E180D6AB
:100D8800030A01E183D5170A01E1E0D6030ACFE09F
:100D9800010A01E10CD6070A01E10ED50E0A01E1AC
:100DA8009BD60101916B926B936B0001AF6B94EF33
:100DB80024F0D00E166E17689351186E196A1650E3
:100DC8001826175019221200186E196A165018267C
:100DD80017501922120005C00CF006C00DF00F6A5A
:100DE8000A0E0E6E0A0CD00E166E17689451120079
:100DF8007A6E7AC005F0000C93510A0DF3509425D1
:100E0800F00F120095510A0DF3509625F00F1200BD
:100E1800076EF9C005F0FAC006F0120001019451FE
:100E2800D00F00011200F7220800F55012001F6EC3
:100E38002AD10001C76B206A7CEC0FF0EA5189ECDB
:100E480021F025EC23F000090BE07CEC0FF0EA51CF
:100E580089EC21F025EC23F01ED9C80F47D903D01F
:100E6800205046EC20F08BEC0FF025EC23F013D942
:100E7800CE0F3CD97CEC0FF0E95189EC21F025EC40
:100E880023F009D9D50F32D986EC0FF025EC23F0E1
:100E980002D9DB0F2BD9202A040E2064CDD7206A73
:100EA8007CEC0FF0E85189EC21F025EC23F018D9FF
:100EB80005D9E10F1BD990EC0FF025EC23F010D9E0
:100EC800FDD8E50F13D9202A020E2064E9D70001C6
:100ED800CD6B800ED36FD46FDA6BE06BE46B1200CE
:100EE800010E0001C76F08D989EC21F025EC23F029
:100EF8000001BF6F0BD925EC23F00001BE6F01D9AB
:100F080089EC21F025EC23F00001BD6F03D925EC15
:100F180023F00001BC6FBF51B91909E1BE51B819DE
:100F280006E1BD51B71903E1BC51B61974E0BC51D3
:100F3800B61909E0EFD825EC23F076EC0FF0190E7E
:100F48007EEC1AF008D0E6D825EC23F0DCEC0DF0A6
:100F5800190EDEEC1CF00001BD51B7190BE0D1D819
:100F680089EC21F025EC23F076EC0FF0130E7EECE3
:100F78001AF00AD0C6D889EC21F025EC23F0DCEC75
:100F88000DF0130EDEEC1CF00001BE51B81909E09B
:100F9800BDD825EC23F076EC0FF0070E7EEC1AF0A6
:100FA80008D0B4D825EC23F0DCEC0DF0070EDEEC0D
:100FB8001CF07CEC0FF0EA5189EC21F025EC23F0D1
:100FC80000091AE00001BF51B9190BE095D889EC66
:100FD80021F025EC23F076EC0FF0010E7EEC1AF0F0
:100FE80011D08AD889EC21F025EC23F0DCEC0DF047
:100FF800010EDEEC1CF006D0116A81EC0FF0010E38
:101008007EEC1AF0BFC0B9F0BEC0B8F0BDC0B7F0F2
:10101800BCC0B6F0120070D889EC21F025EC23F0A2
:1010280000090DE07CEC0FF0EA5189EC21F025EC89
:1010380023F0DCEC0DF0010EDEEC1CF006D0116A9A
:10104800B8EC0EF0010EDEEC1CF08BEC0FF025EC8A
:1010580023F0DCEC0DF0070EDEEC1CF07CEC0FF05E
:10106800E95189EC21F025EC23F0DCEC0DF0130EAE
:10107800DEEC1CF086EC0FF025EC23F0DCEC0DF038
:10108800190EDEEF1CF01F50010A01E1D2D6030A47
:1010980001E126D71200050D75C01DF076C01EF0BF
:1010A800F3501D26F4501E2220501D26000E1E222D
:1010B8001DC0F6FF1EC0F7FF20501200F3501D267A
:1010C800F4501E2220501D26000E1E22030E1D263F
:1010D800000E1E221DC0F6FF1EC0F7FF2050120092
:1010E800030DF40E1D6EBD0E1E6E1200D96EDA6A67
:1010F8000800F5CFDFFF12000A0E096E056EEA51EF
:1011080012000A0E096E056EE95112000A0E096EE8
:10111800EA5112000A0E096EE951120042D067D94D
:1011280059EC1BF0B00E056E200E24EC10F011ECFB
:101138001BF065EC11F011EC1BF0ECEC10F03BD05F
:1011480056D959EC1BF070EC11F059EC1BF0C2ECBD
:101158001EF024EC10F011EC1BF02CEC13F04EEC0C
:1011680024F029D00001852B0C0E856502D0010ED4
:10117800856F65EC11F011EC1BF0DCEC10F0E3EC82
:1011880020F019D000018507855102E10C0E856F0A
:1011980065EC11F011EC1BF0DCEC10F0E3EC20F046
:1011A8000AD07750010ABBE0030ADCE0010AEAE052
:1011B800070AC6E0010A74A6FFD07A0EF66EBE0EC4
:1011C800F76E00D9000EDEEC1CF07B0EF66EBE0E3C
:1011D800F76EF8D8060EDEEC1CF07C0EF66EBE0E2E
:1011E800F76EF0D80C0EDEEC1CF0C6D0CB0EF66E07
:1011F800BE0EF76EE7D8120EDEEC1CF0CC0EF66EC3
:10120800BE0EF76EDFD8180EDEEC1CF0D5D0C20E7D
:10121800F66EBE0EF76ED6D8120EDEEC1CF0C30EBC
:10122800F66EBE0EF76ECED8180EDEEC1CF0C4D0EB
:10123800A70EF66EBE0EF76EC5D8120EDEEC1CF0C9
:10124800A80EF66EBE0EF76EBDD8180EDEEC1CF0BA
:10125800B3D09B0EF66EBE0EF76EB4D8120EDEEC4F
:101268001CF09C0EF66EBE0EF76EACD8180EDEECB7
:101278001CF0A2D0B30EF66EBE0EF76EA3D8120EF7
:10128800DEEC1CF0B40EF66EBE0EF76E9BD8180E90
:10129800DEEC1CF091D0B60EF66EBE0EF76E92D84C
:1012A800120EDEEC1CF0B70EF66EBE0EF76E8AD884
:1012B800180EDEEC1CF080D0A40EF66EBE0EF76E93
:1012C80081D8120EDEEC1CF0A50EF66EBE0EF76E7F
:1012D80079D8180EDEEC1CF06FD084D873D8120EB3
:1012E800DEEC1CF07AD86ED8180EDEEC1CF064D058
:1012F800AA0EF66EBE0EF76E65D8120EDEEC1CF066
:10130800AB0EF66EBE0EF76E5DD8180EDEEC1CF056
:1013180053D0980EF66EBE0EF76E54D8120EDEEC51
:101328001CF0990EF66EBE0EF76E4CD8180EDEEC59
:101338001CF042D0B90EF66EBE0EF76E43D8120EF0
:10134800DEEC1CF0BA0EF66EBE0EF76E3BD8180E29
:10135800DEEC1CF031D0AD0EF66EBE0EF76E32D854
:10136800120EDEEC1CF0AE0EF66EBE0EF76E2AD82C
:10137800180EDEEC1CF020D000018551010A01E1B5
:1013880035D7030A01E143D7010A01E151D7070A1A
:1013980001E15FD7010A01E16DD7030A01E17BD7BB
:1013A800010A8AE00F0A99E0010AA2E0030AB1E003
:1013B800010AC0E0070ACFE0C80E076EC5EC20F0AE
:1013C800748612000800F5CF11F0FA0E126EB70EEF
:1013D800136EC80E146E156A1200B10EF66EBE0EAC
:1013E800F76E1200B00EF66EBE0EF76E1200240EE7
:1013F800056E110E066E1200AED078501BEC07F089
:10140800020E781802E153EC16F0050E0001E865AB
:101418000DD0070EE8610AD0F80E116EF70E126EA5
:10142800F50E136EF60E146E86EC11F00E0E00011A
:10143800E86505D0100EE86102D0030E776EC15141
:1014480001E197D0270EE86594D0290EE86191D084
:10145800E9B18FD0020E76D0DDD859EC1BF02A0EF8
:10146800056E1A0E066EDBD811EC1BF065EC11F058
:1014780011EC1BF020EEE8F010EE80F0060EDBCF4A
:10148800E3FFE806FCE2050E776E7496020E781804
:1014980070E10001C76B170E116EB8EC0EF00D0E5F
:1014A800DEEC1CF066D00001C76BEF0E346EF50E53
:1014B800356E010E366E09EC00F0020E781807E161
:1014C800170E116EB8EC0EF00D0EDEEC1CF0A7EC4A
:1014D80020F0A0D859EC1BF0980E056E2E0E24ECC7
:1014E80010F011EC1BF02CEC13F043D00001C351A9
:1014F8001AE0C76B020E781807E1170E116EB8ECE8
:101508000EF00D0EDEEC1CF0A7EC20F083D859ECA1
:101518001BF0AE0E056E2C0E24EC10F011EC1BF037
:101528002CEC13F00ED0C2510CE0C76B020E7818E9
:10153800EBE1170E116EB8EC0EF00D0EDEEC1CF0A0
:10154800E3D7050E776E15D0050E776E70EC11F0A7
:1015580059EC1BF00ED07750010A01E17DD7030A40
:10156800A2E0010AC3E0070AEFE0010A01E145D75A
:10157800030A74A604D0C80E076EC5EC20F000015B
:10158800C65108E0E8A174A205D0749280EC23F05B
:101598002CEC22F0748613EC24F0000913E06C0E96
:1015A8000B6EE5EC23F06FEC21F06E506A6E6D5017
:1015B8000001A16F6AC0A2F06CC0FBF09F6BA06B2A
:1015C800749403D000019F4BA02BE90E9F5D030E7E
:1015D800A05906E374846FEC21F027D84CEC19F07D
:1015E8000001B051EC1914E1050E096EE95125EC22
:1015F80023F00009D8A41200230E0001E819D8B47A
:1016080074A01200C76B42EC22F0010EC76F010CE8
:1016180074901200000E056E140E066E1200086A11
:10162800076A0A6A320E096E320C040E0E6E780CC6
:1016380042D001D959EC1BF08E0E056E280E24EC11
:1016480010F011EC1BF065EC11F011EC1BF0ECEC58
:1016580010F03BD0F0D859EC1BF070EC11F059ECBD
:101668001BF0C2EC1EF024EC10F011EC1BF02CEC7B
:1016780013F04EEC24F029D00001832B070E83656C
:1016880002D0010E836F65EC11F011EC1BF0DCEC5D
:1016980010F0E3EC20F019D000018307835102E138
:1016A800070E836F65EC11F011EC1BF0DCEC10F009
:1016B800E3EC20F00AD07750010ABBE0030ADCE033
:1016C800010AEAE0070AC6E0010A74A6AED06E0E67
:1016D800F66EBE0EF76EE6EC09F0000EDEEC1CF0BE
:1016E8006F0EF66EBE0EF76EE6EC09F0060EDEEC37
:1016F8001CF0700EF66EBE0EF76EE6EC09F00C0EDE
:10170800DEEC1CF081D0A10EF66EBE0EF76EE6EC94
:1017180009F0120EDEEC1CF0A20EF66EBE0EF76E8D
:10172800E6EC09F0180EDEEC1CF07FD0BF0EF66E6A
:10173800BE0EF76EE6EC09F0120EDEEC1CF0C00EE1
:10174800F66EBE0EF76EE6EC09F0180EDEEC1CF035
:101758006CD0F6EC09F0E6EC09F0120EDEEC1CF0A9
:10176800F1EC09F0E6EC09F0180EDEEC1CF05DD0A7
:10177800C80EF66EBE0EF76EE6EC09F0120EDEEC41
:101788001CF0C90EF66EBE0EF76EE6EC09F0180EE8
:10179800DEEC1CF04AD0C50EF66EBE0EF76EE6EC17
:1017A80009F0120EDEEC1CF0C60EF66EBE0EF76ED9
:1017B800E6EC09F0180EDEEC1CF037D0920EF66E4F
:1017C800BE0EF76EE6EC09F0120EDEEC1CF0930E7E
:1017D800F66EBE0EF76EE6EC09F0180EDEEC1CF0A5
:1017E80024D09E0EF66EBE0EF76EE6EC09F0120ED1
:1017F800DEEC1CF09F0EF66EBE0EF76EE6EC09F0FE
:10180800180EDEEC1CF011D000018351010AE9E04A
:10181800030A01E178D7010A89E0070A9AE0010A78
:10182800A7E0030AB8E0010AC9E0C80E076EC5ECD4
:1018380020F074861200380E056E160E066E120021
:10184800B7D04EEC24F074A413D0D0D8A1EC1CF07F
:10185800450EB6D8090E7EEC1AF0720EB1D80F0EEE
:101868007EEC1AF0720EACD8150E7EEC1AF088D009
:101878000001A12902E1A22971E0A8D86AEC20F0B0
:101888000C501E6EB9D8C9D802EC20F005C0A1F0E2
:1018980006C0A2F0050E1E6403D00001A14BA22BC6
:1018A8009DD802EC20F0EFEC06F06AEC20F00C502A
:1018B8000D102EE1020EBDEC16F0A1EC1CF000019B
:1018C800A151A21116E0FBC011F081EC0FF00D0E32
:1018D8007EEC1AF07BD86AEC20F00C5076EC0FF016
:1018E800130E7EEC1AF0B00E6BD8190E7EEC1AF0BF
:1018F80047D06CD86AEC20F00C5076EC0FF00D0E47
:101908007EEC1AF0B00E5CD8130E7EEC1AF038D0CC
:101918006DD8A1EC1CF0FBC011F081EC0FF0090EA2
:101928007EEC1AF05BD802EC20F0EFEC06F06AECE3
:1019380020F00C5076EC0FF00F0E7EEC1AF046D823
:101948006AEC20F00C5076EC0FF0160E7EEC1AF0D4
:10195800B00E36D81B0E7EEC1AF012D047D8A1EC88
:101968001CF02D0E2DD8090E7EEC1AF02D0E28D85D
:101978000F0E7EEC1AF02D0E23D8160E7EEC1AF000
:10198800C2EC16F03ED811EF1BF0050E776EA7ECEF
:1019980020F0CAEC0EF070EC11F059EC1BF038D8BE
:1019A80059EC1BF0C2EC1EF024EC10F011EF1BF008
:1019B8007750040AEAE0010A01E143D7030A12005A
:1019C800116EFA0E126EB70E136E1200A1C00CF053
:1019D800A2C00DF00F6A0A0E0E6E0A0C086A0A0EF3
:1019E800076EA1C005F0A2C006F00A0C020E0C6E2C
:1019F800C80E0D6E0E6A000CA1C005F0A2C006F05C
:101A08001200020E086E8A0E076E0A6A096A8A0CAC
:101A1800480E056E180E066E1200086A0A0E076E4A
:101A28000A0C74B802D074886CD074986AD0D4D870
:101A380059EC1BF0EA0E056E1B0E066E13EC0BF04C
:101A480011EC1BF065EC11F011EC1BF0780413E1BC
:101A58007CEC0FF0815189EC21F025EC23F0A8D81B
:101A68000D0EDEEC1CF0B3D825EC23F0A1D8130E34
:101A7800DEEC1CF013D07CEC0FF0E95189EC21F07E
:101A880025EC23F095D8130EDEEC1CF086EC0FF055
:101A980025EC23F08DD8190EDEEC1CF02CEC13F09D
:101AA8003AD09AD859EC1BF070EC11F059EC1BF0B5
:101AB800C2EC1EF024EC10F011EC1BF0050E776E52
:101AC8004EEC24F028D00001812B3B0E816501D01B
:101AD800816B65EC11F011EC1BF073D8BBEC21F0B5
:101AE800050E776E18D000018107812902E13B0EAF
:101AF800816F65EC11F011EC1BF063D8BBEC21F0A1
:101B0800EFD77750010A93E0030ADDE0010AEBE022
:101B1800070AC7E0010A74A645D074A828D078043B
:101B280013E17CEC0FF0815189EC21F025EC23F0D6
:101B38003FD80D0EDEEC1CF04AD825EC23F038D83F
:101B4800130EDEEC1CF02ED07CEC0FF0815189ECEA
:101B580021F025EC23F02CD8130EDEEC1CF037D83E
:101B680025EC23F025D8190EDEEC1CF01BD07804E8
:101B78000DE1116AB8EC0EF00D0EDEEC1CF0116AE6
:101B8800B8EC0EF0130EDEEC1CF00CD0116AB8ECB9
:101B98000EF0130EDEEC1CF0116AB8EC0EF0190E04
:101BA800DEEC1CF0C80E076EC5EC20F0748612003F
:101BB800116E75C012F076C013F0C80E146E156A57
:101BC800120081C012F0136A0001825112000A0E3D
:101BD800096E0001815112002A0E056E1A0E066E5A
:101BE800120074B802D074884AD0749848D0C4D807
:101BF80059EC1BF0500E056E250E24EC10F011EC7C
:101C08001BF065EC11F011EC1BF0050E776E4EEC35
:101C180024F074963ED0B0D859EC1BF070EC11F05B
:101C280059EC1BF0C2EC1EF024EC10F011EC1BF088
:101C3800050E776E4EEC24F02CD00001822B170E87
:101C4800826501D0826B65EC11F011EC1BF0050E7A
:101C5800776EE5EC0DF0BBEC21F01BD0000182079C
:101C6800822902E1170E826F65EC11F011EC1BF06E
:101C7800050E776EE5EC0DF0BBEC21F00AD077503D
:101C8800010AB5E0030AD9E0010AE8E0070AC3E05F
:101C9800010A74A663D074A84AD0780424E17CECC5
:101CA8000FF0825189EC21F025EC23F000090DE0BA
:101CB8007CEC0FF0825189EC21F025EC23F0DCEC70
:101CC8000DF0000EDEEC1CF005D0116A4DD8000EA8
:101CD800DEEC1CF056D825EC23F0DCEC0DF0060EFB
:101CE800DEEC1CF03BD07CEC0FF0825189EC21F04B
:101CF80025EC23F000090DE07CEC0FF0825189EC13
:101D080021F025EC23F0DCEC0DF0010EDEEC1CF0EC
:101D180005D0116A29D8010EDEEC1CF032D825EC6A
:101D280023F0DCEC0DF0070EDEEC1CF017D0780485
:101D38000BE1116A19D8000EDEEC1CF0116A14D8F8
:101D4800060EDEEC1CF00AD0116A0ED8010EDEEC8D
:101D58001CF0116A09D8070EDEEC1CF0C80E076EDD
:101D6800C5EC20F074861200FA0E126EB70E136ED0
:101D7800C80E146E156A1200EA0E056E1B0E066E6A
:101D880012000A0E096E0001825112004EEC24F076
:101D9800A2D0AED8EA5189EC21F025EC23F0000955
:101DA8000BE0A6D8EA5189EC21F025EC23F09AD86B
:101DB800000E7EEC1AF005D0116A9FD8000E7EEC5A
:101DC8001AF0A5D825EC23F08DD8060E7EEC1AF073
:101DD8008FD8E95189EC21F025EC23F083D80D0E3A
:101DE8007EEC1AF08FD825EC23F07CD8130E7EEC0D
:101DF8001AF031EC1EF069EC1EF07AD8E85189EC43
:101E080021F025EC23F01D6E1D280D6E190E34EC03
:101E18001AF082D825EC23F01D6E1D280D6E1D0EBC
:101E280034EC1AF0A5EF12F063D8EA5189EC21F0EE
:101E380025EC23F000090BE05BD8EA5189EC21F08E
:101E480025EC23F04FD8010E7EEC1AF005D0116A6C
:101E580054D8010E7EEC1AF05AD825EC23F042D85B
:101E6800070E7EEC1AF03A0EE4EC0CF00D0E7EEC48
:101E78001AF03ED8E95189EC21F025EC23F032D84C
:101E8800130E7EEC1AF03ED825EC23F02BD8190E51
:101E98007EEC1AF0010E0001C76FB36B80EC08F0FE
:101EA80089EC21F025EC23F00001B96F8AEC08F0E9
:101EB80025EC23F00001B86F85EC08F089EC21F0DF
:101EC80025EC23F00001B76F8EEC08F025EC23F029
:101ED8000001B66F12007850010A01E15AD7030ACF
:101EE800A3E01200116E75C012F076C013F0120054
:101EF8000A0E096E056E00010A0CFA0E126EB70E74
:101F0800136E12000A0E096E0001E95112000A0E42
:101F1800096E0001EA5112000A0E096E0001E8512B
:101F2800120042D00001C65110E0ABD859EC1BF0AA
:101F3800A4D886D811EC1BF065EC11F011EC1BF05D
:101F48002CEC13F04EEC24F039D09BD859EC1BF054
:101F58007E0E056E270E74D811EC1BF0A1D845EC47
:101F680024F099D89EEC23F0E7D78BD859EC1BF0D6
:101F780070EC11F059EC1BF0C2EC1EF061D811ECBA
:101F88001BF0DED764D865EC11F011EC1BF07ED89D
:101F98005CEC23F013D05BD865EC11F011EC1BF06E
:101FA80075D85CEC23F00AD07750010ABBE0030A2D
:101FB800E9E0010AF0E0070AD8E0010A74A63AD07D
:101FC80057D8E6EC09F0000EDEEC1CF047D8E6EC3A
:101FD80009F0060EDEEC1CF046D8E6EC09F00C0E13
:101FE800DEEC1CF00001C65113E0950EF66EBE0E35
:101FF800F76EE6EC09F0120EDEEC1CF0960EF66EAB
:10200800BE0EF76EE6EC09F0180EDEEC1CF012D0EE
:10201800BC0EF66EBE0EF76EE6EC09F0120EDEECA4
:102028001CF0BD0EF66EBE0EF76EE6EC09F0180E4B
:10203800DEEC1CF0C80E076EC5EC20F074861200AA
:10204800066E086A076A0A6A140E096E140C000103
:10205800C651010ED8A4000EC66F1200830EF66E8C
:10206800BE0EF76E1200840EF66EBE0EF76E1200EC
:10207800820EF66EBE0EF76E12009E0E056E290ECB
:1020880012002A0E056E1F0E066E1200050E776EE0
:10209800C6C005F0020C0001C56FC5C007F00A0CE8
:1020A800066A030E056E030C3FD08DD859EC1BF061
:1020B800380E056E160E24EC10F011EC1BF065ECD2
:1020C80011F011EC1BF084D839D07DD859EC1BF0F5
:1020D80070EC11F059EC1BF0C2EC1EF024EC10F07F
:1020E80011EC1BF02CEC13F04EEC24F027D000017F
:1020F800842B1F0E846502D0010E846F65EC11F0ED
:1021080011EC1BF055D8E3EC20F018D0000184073F
:10211800845102E11F0E846F65EC11F011EC1BF085
:1021280047D8E3EC20F00AD07750010ABEE0030A52
:10213800DEE0010AEBE0070AC8E0010A74A632D023
:102148007E0EF66EBE0EF76EE6EC09F0000EDEECC3
:102158001CF07F0EF66EBE0EF76EE6EC09F0060E6A
:10216800DEEC1CF0800EF66EBE0EF76EE6EC09F0A3
:102178000C0EDEEC1CF07CEC0FF0845189EC21F0A5
:1021880025EC23F0DCEC0DF0120EDEEC1CF00A0E50
:10219800096E0001845125EC23F0DCEC0DF0180EDB
:1021A800DEEC1CF0C80E076EC5EC20F07486120039
:1021B800050E776E84C012F085C013F086C014F047
:1021C800000183511200B00E056E200E066E12003B
:1021D800050E776E7486050C2FD08FD859EC1BF03E
:1021E800A60E056E2D0E24EC10F011EC1BF069D82C
:1021F80011EC1BF02CEC13F04EEC24F027D07DD81A
:1022080059EC1BF0C2EC1EF024EC10F011EC1BF0A2
:1022180063D859EC1BF0EED764D853D811EC1BF0F7
:1022280067D85CEC23F012D05CD84BD811EC1BF0CB
:102238005FD85CEC23F00AD07750010ACEE0030A9D
:10224800EBE0010AF1E0070ADAE0010A74A633D0EC
:102258008E0EF66EBE0EF76EE6EC09F0000EDEECA2
:102268001CF08F0EF66EBE0EF76EE6EC09F0060E49
:10227800DEEC1CF0900EF66EBE0EF76EE6EC09F082
:102288000C0EDEEC1CF00001C25108E02B0E116EA2
:10229800B8EC0EF0120EDEEC1CF007D02D0E116E0D
:1022A800B8EC0EF0120EDEEC1CF0116AB8EC0EF071
:1022B800180EDEEC1CF0C80E076EC5EC20F0748614
:1022C8001200540E056E490E066E070E086ED00EEB
:1022D800076E0A6A096AD00C540E056E490E066E1E
:1022E80012000001C251010ED8A4000EC26F1200E4
:1022F800050E776EC2C005F0060CE00E056E210EC5
:10230800066E12001250D96EDA6A2B0EDF6E81D07B
:1023180089EC20F00009D8A41200CC0E00EC21F0C2
:10232800440E00EC21F01450D96EDA6ADF6A1350BB
:10233800D96EDA6A020EDF6ECD80020C89EC20F0CD
:10234800CC0E00EC21F0BE0E00EC21F0196A880ECC
:102358001924D96EDA6A010EDA221CEC21F0DF6E3C
:10236800192A010E1964F3D701018951156E885194
:102378001A6E15C01BF01BAE09D01A6C1B1ED8B004
:102388001B2A1250D96EDA6A2D0EDF6E1A500F0B07
:10239800186EE20E1824F66EF76AB70EF7220800D8
:1023A800F5CF18F01A3A1B3A0F0E1A161B50F00BFD
:1023B8001A120F0E1B161A500A0DF3CF1AF0F4CF8B
:1023C8001BF018501A26000E1B221AC00CF01BC056
:1023D8000DF029D86AEC20F00C50176E1AC005F0E1
:1023E8001BC006F011EC0DF002EC20F005C01AF04D
:1023F80006C01BF0050E176402D01A4A1B2A11509A
:10240800D96EDA6A1AC0DFFF1350D96EDA6ADF6A4A
:10241800000C1350D96EDA6ADF5001E179D7010A4E
:102428008DE0030A12000F6A0A0E0E6E0A0C3CD0E9
:1024380083D859EC1BF02A0E056E1F0E24EC10F001
:1024480011EC1BF065EC11F011EC1BF02CEC13F007
:102458004EEC24F033D070D859EC1BF070EC11F02E
:1024680059EC1BF0C2EC1EF024EC10F011EC1BF040
:10247800EDD7782A020E786402D0010E786E65ECEA
:1024880011F011EC1BF053D85CEC23F017D0780650
:10249800785002E1020E786E65EC11F011EC1BF039
:1024A80046D85CEC23F00AD07750010AC1E0030A51
:1024B800E0E0010AECE0070ACEE0010A74A62BD09E
:1024C800720EF66EBE0EF76EE6EC09F0000EDEEC4C
:1024D8001CF0730EF66EBE0EF76EE6EC09F0060EF3
:1024E800DEEC1CF0740EF66EBE0EF76EE6EC09F02C
:1024F8000C0EDEEC1CF00A0E096E785025EC23F069
:10250800DCEC0DF0120EDEEC1CF0116AB8EC0EF0EB
:10251800180EDEEC1CF0C80E076EC5EC20F07486B1
:10252800780401E10ED0010E0001C76F010C050E01
:10253800776E78C005F0010C360E056E240E066E17
:1025480012000001C76B12003FD086D859EC1BF06F
:10255800240E056E110E24EC10F011EC1BF065EC46
:1025680011F011EC1BF074D839D076D859EC1BF067
:1025780070EC11F059EC1BF0C2EC1EF024EC10F0DA
:1025880011EC1BF065D84EEC24F028D00001862B06
:10259800630E866501D0866B65EC11F011EC1BF0BB
:1025A800DCEC10F0E3EC20F019D000018607862956
:1025B80002E1630E866F65EC11F011EC1BF0DCECA8
:1025C80010F0E3EC20F00AD07750010ABEE0030ACD
:1025D800DDE0010AEAE0070AC8E0010A74A632D081
:1025E8006A0EF66EBE0EF76EE6EC09F0000EDEEC33
:1025F8001CF06B0EF66EBE0EF76EE6EC09F0060EDA
:10260800DEEC1CF06C0EF66EBE0EF76EE6EC09F012
:102618000C0EDEEC1CF07CEC0FF0865189EC21F0FE
:1026280025EC23F0DCEC0DF0120EDEEC1CF00A0EAB
:10263800096E0001865125EC23F0DCEC0DF0180E34
:10264800DEEC1CF0C80E076EC5EC20F07486120094
:10265800050E776E7496050C500E056E250E066EE7
:10266800120033D07ED859EC1BF0E00E056E210E17
:1026780024EC10F011EC1BF065EC11F011EC1BF0E0
:102688002CEC13F04EEC24F02AD06BD859EC1BF04C
:10269800C2EC1EF024EC10F011EC1BF070EC11F001
:1026A80059EC1BF0EDD756D865EC11F011EC1BF086
:1026B8005DD85CEC23F013D04DD865EC11F011EC2B
:1026C8001BF054D85CEC23F00AD07750010ACAE01A
:1026D800030AE9E0010AF0E0070AD7E0010A74A654
:1026E80033D08A0EF66EBE0EF76EE6EC09F0000ED9
:1026F800DEEC1CF08B0EF66EBE0EF76EE6EC09F003
:10270800060EDEEC1CF08C0EF66EBE0EF76EE6ECD6
:1027180009F00C0EDEEC1CF00001C35108E02B0E92
:10272800116EB8EC0EF0120EDEEC1CF007D02D0E78
:10273800116EB8EC0EF0120EDEEC1CF0116AB8EC5B
:102748000EF0180EDEEC1CF0C80E076EC5EC20F07B
:10275800748612000001C351010ED8A4000EC36F85
:1027680012006A0E056E260E066E1200050E776EB2
:10277800C3C005F0050C42D081D859EC1BF041ECE0
:1027880010F024EC10F011EC1BF065EC11F011ECDA
:102798001BF02CEC13F04EEC24F03AD06FD859EC27
:1027A8001BF070EC11F059EC1BF0C2EC1EF024EC9D
:1027B80010F011EC1BF0EDD70001C52B080EC56514
:1027C80001D0C56B65EC11F011EC1BF04FD85CEC37
:1027D80023F051D89EEC23F01BD00001C507C52972
:1027E80002E1080EC56F65EC11F011EC1BF03ED844
:1027F8005CEC23F040D89EEC23F00AD07750010A15
:10280800BBE0030AD9E0010AE8E0070AC7E0010AC9
:1028180074A626D03CEC10F0E6EC09F0000EDEECD5
:102828001CF032EC10F0E6EC09F0060EDEEC1CF0C1
:1028380037EC10F0E6EC09F00C0EDEEC1CF00A0E9A
:10284800096E0001C55125EC23F0DCEC0DF0120EE9
:10285800DEEC1CF0116AB8EC0EF0180EDEEC1CF081
:10286800C80E076EC5EC20F074861200050E776E50
:10287800C5C005F0030CC5C007F00A0C7E0E056E36
:10288800270E066E120042D081D859EC1BF0360E86
:10289800056E240E24EC10F011EC1BF065EC11F021
:1028A80011EC1BF02CEC13F04EEC24F039D06ED860
:1028B80059EC1BF070EC11F059EC1BF0C2EC1EF057
:1028C80024EC10F011EC1BF0EDD77A2A050E7A648F
:1028D80002D0010E7A6E65EC11F011EC1BF0050EBA
:1028E800776E51D85CEC23F0B6EC1FF019D07A065D
:1028F8007A5002E1050E7A6E65EC11F011EC1BF0CE
:10290800050E776E40D85CEC23F0EED77750010ABD
:10291800BBE0030ADAE0010AEAE0070AC8E0010AB4
:1029280074A62BD0760EF66EBE0EF76EE6EC09F0A6
:10293800000EDEEC1CF0770EF66EBE0EF76EE6ECBF
:1029480009F0060EDEEC1CF0780EF66EBE0EF76E81
:10295800E6EC09F00C0EDEEC1CF00A0E096E7A505B
:1029680025EC23F0DCEC0DF0120EDEEC1CF0116A05
:10297800B8EC0EF0180EDEEC1CF0C80E076EC5ECB5
:1029880020F0748612007AC005F0000C8E0E056ED9
:10299800280E066E12003DD07FD859EC1BF06A0E47
:1029A800056E260E24EC10F011EC1BF065EC11F00E
:1029B80011EC1BF02CEC13F04EEC24F034D06CD856
:1029C80059EC1BF0C2EC1EF024EC10F011EC1BF0DB
:1029D80070EC11F059EC1BF0EDD70001C42B010E7F
:1029E800C46501D0C46B65EC11F011EC1BF04FD835
:1029F8005CEC23F018D00001C407C42902E1010EE1
:102A0800C46F65EC11F011EC1BF041D85CEC23F0BD
:102A18000AD07750010AC0E0030ADFE0010AEBE0C0
:102A2800070ACDE0010A74A62CD0660EF66EBE0E1B
:102A3800F76EE6EC09F0000EDEEC1CF0670EF66EA1
:102A4800BE0EF76EE6EC09F0060EDEEC1CF0680E22
:102A5800F66EBE0EF76EE6EC09F00C0EDEEC1CF01E
:102A68000A0E096E0001C45125EC23F0DCEC0DF0D0
:102A7800120EDEEC1CF0116AB8EC0EF0180EDEEC4B
:102A88001CF0C80E076EC5EC20F074861200050E07
:102A9800776EC4C005F0040C9E0E056E290E066EF6
:102AA80012000001C05118E0C06B0201EA6B11D09E
:102AB800EA515CD8DE50DE1006E1EA5167D8010E13
:102AC800DE6EDD6A05D0EA5151D8DE06000EDD5A09
:102AD800EA2B7950EA5DECE30201EB6B43D0EB5152
:102AE80055D8DE04DE103CE1EB5148D8DECFE8F2E1
:102AF800DDCFE9F2EB5152D8DE50DE1009E1EB519F
:102B08003DD8DECF05F0DDCF06F059EC1BF01BD029
:102B1800EB513CD8DE6ADD6AEB5128D8DE50DE1076
:102B280012E170687168EB5139D8DECF72F0DDCFF1
:102B380073F07050722671507322EB5117D872C01F
:102B4800DEFF73C0DDFF01D80BD005000201FA6E6D
:102B5800E851FD6EE951FE6EF850FF6EFA50120012
:102B68000201EB2B7950EB5DBAE31200080D020E5F
:102B7800F324D96E010EF420DA6E1200080D000E4F
:102B8800F324D96E010EF420DA6E1200080D060E39
:102B9800F324D96E010EF420DA6E1200080D040E2B
:102BA800F324D96E010EF420DA6E12004BEC20F0FB
:102BB800FDEC23F0A3EC21F0BBEC23F0A7EC24F010
:102BC80033EC24F0AEEC22F067EC24F084EC22F035
:102BD80092EC18F0066A056A45EC24F07A6E066AEB
:102BE800010E056E45EC24F0786E780403E10001CF
:102BF800C76B01D054D8066A020E056E45EC24F066
:102C08000001C66F54EC10F045EC24F04FEC10F0C6
:102C18009EEC23F0B6EC1FF0A4EC24F05FEC24F05B
:102C280019EC0BF04CEC19F0940E056E070E066EBD
:102C3800086A280E076E2AD811EC1BF0080E056EDC
:102C48003C0E28D823D811EC1BF0066A040E056E3A
:102C580045EC24F00001C46F066A050E056E45ECCC
:102C680024F00001C36F066A060E056E45EC24F0D9
:102C78000001C26F066A070E056E45EC24F00001DC
:102C8800C16F066A030E056E57EF24F00A6A140E28
:102C9800096E140C066E086A640E076E640C010E49
:102CA8000001C76F010C5ED04EEC24F07CEC0FF0F5
:102CB800F85189EC21F025EC23F0000913E1010E0D
:102CC80058D8A1EC1CF066D825EC23F076EC0FF070
:102CD8000D0E7EEC1AF0B00EE4EC0CF0130E7EEC48
:102CE8001AF01ED0010E45D8A1EC1CF07CEC0FF0B8
:102CF800F85189EC21F025EC23F076EC0FF00D0E5D
:102D08007EEC1AF047D825EC23F076EC0FF0130E82
:102D18007EEC1AF0B00EE4EC0CF0190E7EEC1AF012
:102D28002DD805EC0DF011EF1BF0050E776EA7EC12
:102D380020F070EC11F059EC1BF027D859EC1BF07F
:102D48000001C25107E0480E056E180E24EC10F081
:102D580011EF1BF0C2EC1EF024EC10F011EC1BF08C
:102D6800CAEF0EF07750040AE0E0010A9DE0030A7A
:102D780012000C6EC80E0D6E0E6A030C060E776EEE
:102D8800540E056E490E066E1200AE0E056E2C0E20
:102D9800066E12000A0E096E0001F851120027D0C3
:102DA800A60E056E2D0E066E59EC1BF0C2EC1EF039
:102DB80024EC10F011EC1BF070EC11F059EC1BF046
:102DC8002CEC13F04EEC24F01CD056D865EC11F026
:102DD80011EC1BF058D85CEC23F013D04DD865ECFF
:102DE80011F011EC1BF04FD85CEC23F00AD07750AF
:102DF800010AD6E0030AE9E0010AF0E0070AD0E098
:102E0800010A74A633D0860EF66EBE0EF76EE6EC97
:102E180009F0000EDEEC1CF0870EF66EBE0EF76EA3
:102E2800E6EC09F0060EDEEC1CF0880EF66EBE0E1F
:102E3800F76EE6EC09F00C0EDEEC1CF00001C15157
:102E480008E02B0E116EB8EC0EF0120EDEEC1CF042
:102E580007D02D0E116EB8EC0EF0120EDEEC1CF041
:102E6800116AB8EC0EF0180EDEEC1CF0C80E076EF6
:102E7800C5EC20F0748612000001C151010ED8A4DF
:102E8800000EC16F1200050E776EC1C005F0070C69
:102E980063D069D81CE0EFC005F0F0C006F0F1C0BF
:102EA80007F0F2C008F0640E096E0A6A0B6A0C6A31
:102EB80057EC1DF005C01FF006C020F01FC01CF025
:102EC80020C01DF09AEC19F038EC1EF019D04EEC29
:102ED80024F0040EBDEC16F0A1EC1CF0450EE4EC59
:102EE8000CF00B0E7EEC1AF0520EE4EC0CF0110E06
:102EF8007EEC1AF0520EE4EC0CF0170E7EEC1AF091
:102F0800C2EC16F0010E086E900E076E0A6A096A86
:102F180011EF1BF0050E776E26D80AE02AD84C0E62
:102F2800076EBE0E086EC8EC1AF042EC22F002D012
:102F3800A7EC20F0CAEC0EF070EC11F059EC1BF085
:102F4800980E056E2E0E066E59EC1BF0C2EC1EF0A4
:102F580024EC10F011EF1BF07750040ADBE0010AB3
:102F680098E0030A12000001EF51F011F111F2117B
:102F78001200640E056E020E066E12001C6E216AA7
:102F8800226A236A246A256A61D89CEC24F0EC0E34
:102F98008EEC24F01C508EEC24F0A0EC24F0ED0E06
:102FA8008EEC24F0010E6EEC23F01D6E1E6A1F6A73
:102FB800206A010E6EEC23F0216E226A236A246ACD
:102FC800000E6EEC23F0256E41D898EC24F021C059
:102FD8000DF022C00EF023C00FF00C6A1DC010F0D7
:102FE8001EC011F01FC012F020C013F011C013F062
:102FF80010C012F0116A106A0C501024146E0D5093
:103008001120156E0E501220166E0F501320176ED9
:1030180025501424186E26501520196E2750162096
:103028001A6E285017201B6E050E05D0D8901B323B
:103038001A3219321832E82EF9D718C008F019C018
:1030480009F01AC00AF01BC00BF01200266A276AA2
:10305800286A120018C01CF01D6A1E6A17341C3634
:1030680001E31D801C501F6E1F5001E153D01BC08F
:103078001CF01D6A1E6A1A341C3601E31D801C50A0
:10308800246E245001E146D024507B0F1F2618C01F
:1030980024F01B50241A800E2416178E1A8E000E48
:1030A8001B16206A216A226A070E236E16B02BD8D7
:1030B800D890183217321632D89019361A361B366D
:1030C800232EF4D7090E236E16B01DD8D8901832C7
:1030D80017321632D890223221322032232EF4D7DA
:1030E80020C005F021C006F022C007F01FC008F07C
:1030F80024C009F09EEC1BF005C016F006C017F0BE
:1031080007C018F01200195020261A5021221B500F
:1031180022221200166A176A186A1200880E44ECF6
:103128001FF008C09BF009C09CF08A0E44EC1FF009
:1031380008C099F009C09AF08C0E44EC1FF008C042
:1031480097F009C098F08E0E44EC1FF008C0F3F019
:1031580009C0F4F0900E44EC1FF008C095F009C0C7
:1031680096F0920E44EC1FF008C093F009C094F05A
:10317800940E44EC1FF008C091F009C092F0960E2E
:1031880044EC1FF008C08FF009C090F0980E44EC92
:103198001FF008C08DF009C08EF09A0E44EC1FF0A5
:1031A80008C08BF009C08CF09C0E44EC1FF008C0DE
:1031B80089F009C08AF09E0E44EC1FF008C087F021
:1031C80009C088F0CC0E076EF50EADEC23F0B70EF3
:1031D800076EF40EADEF23F027C029F02A6A2B6A98
:1031E8002634293601E32A802950336E335005E10D
:1031F800256A266A276A286A1200170E296E25C0D2
:103208002AF026C02BF027C02CF029282D6E04D0D8
:10321800D8902C322B322A322D2EFAD72A502E6EE5
:10322800268E276A25502F6E2650306E2750316E15
:10323800326A8E0E335E33AE0CD03350800A8F0F55
:10324800D7E3D8903232313230322F32333EF9D789
:103258000CD0170E336407D0CBD7D8902F36303622
:103268003136323633063350F8E12E5008E0321E3C
:10327800311E301E2F6C000E3022312232222FC018
:1032880025F030C026F031C027F032C028F01200F7
:103298000F6E8B848B920EC0A5F02F0E0C6EBE0E97
:1032A8000D6E8FEC23F02A0E0C6EBE0E0D6E3CECEC
:1032B80024F00FC007F0050E08EC24F0076A110E81
:1032C80008EC24F00EC007F0120E08EC24F0076A90
:1032D800130E08EC24F0076A140E08EC24F0076AB1
:1032E800150E08EC24F0076A160E08EC24F0260EDA
:1032F800076E060E08EC24F0080E076E000E08ECA8
:1033080024F0030E076E010E08EC24F0030E076E7E
:10331800020E08EC24F04F0E076E040E08EC24F0A1
:10332800076A1C0E08EC24F06FEF21F01E6AC80E25
:103338001E2464EC1EF0DF6A1E2A200E1E64F7D7D6
:10334800040E0C6EC80E0D6E020E0E6E030EA1EC6E
:103358001CF0086A640E32D802EC20F0EFEC06F09C
:103368006AEC20F00C50116E20D80B0EDEEC1CF02D
:10337800086A0A0E23D802EC20F0EFEC06F06AEC9B
:1033880020F00C50116E11D8110EDEEC1CF01CC090
:103398000CF01DC00DF017EC12F06AEC20F00C5088
:1033A800116E03D8170EDEEF1CF075C012F076C050
:1033B80013F0C80E146E020E156E1200076E1CC0B4
:1033C80005F01DC006F01200620EF66E490EF76E8B
:1033D800000EF86E01EEF9F010EE04F00900F5CFDA
:1033E800EEFFE550E150FAE15E0EF66E490EF76E1B
:1033F800000EF86E00EEF9F010EE04F00900F5CFBB
:10340800EEFFE550E150FAE15A0EF66E490EF76EFE
:10341800000EF86E00EE75F010EE04F00900F5CF1E
:10342800EEFFE550E150FAE102EE00F0E80EEE6A38
:10343800E806FDE101EE00F0F90EEE6AE806FDE1AE
:1034480000EE80F0790EEE6AE806FDE1746A7A6AA9
:10345800796A7B907B92000EF86E000198EF1EF05F
:10346800136E156A166A1350C80F1624D96EDA6AD5
:10347800155007080E6E0D50030DF40E0F6EBD0E9D
:10348800106EF3500F26F450102216500F26000E1F
:1034980010220FC0F6FF10C0F7FF0800F5CF11F09B
:1034A8000E2A02D0D89011320E2EFCD71350C80F16
:1034B8001624E16EE26AE750126ED89012341110A9
:1034C800DF6E162A020E1664CED7146A0D0E0E6E23
:1034D800FC0EE82EFED70E2EFCD7142A270E1464F5
:1034E800F5D7C80E076EC5EC20F0152A070E15642F
:1034F800B9D7070C196E1B6A1C6A1950C80F1C240F
:10350800D96EDA6A1B500708146E1150050D12C0E7
:1035180015F013C016F0F3501526F45016221C505F
:103528001526000E162215C0F6FF16C0F7FF080074
:10353800F5CF17F0142A02D0D8901732142EFCD7E2
:103548001950C80F1C24E16EE26AE750186ED89033
:1035580018341710DF6E1C2A040E1C64CED71A6AA2
:103568000D0E146EFC0EE82EFED7142EFCD71A2A68
:10357800270E1A64F5D7C80E076EC5EC20F01B2A73
:10358800070E1B64B9D7070C090E0F6E2CD0250E39
:10359800101825E038D810C0DFFF054A062A23D0C6
:1035A8000F50D96EDA6ADECF11F0DDCF12F0020EBD
:1035B8000F26115012100EE15F0E116EBE0E126E24
:1035C80009D026D820D80800F5CFDFFF114A122AE3
:1035D800054A062A1DD80800F55005E0F2D708D894
:1035E80004E0730ADDE004D8D2E10DD8DF6A000CEC
:1035F80007C0F6FF08C0F7FF074A082A0800F5CFFA
:1036080010F01050120005C0D9FF06C0DAFF1200F2
:1036180011C0F6FF12C0F7FF12000550061001E1B5
:1036280012000D6A1AD00D50C2EC15F00550DE18C4
:1036380013E10650DE1810E1F29E0D50BAEC15F0B9
:103648002FD80D50D2EC15F026D80D50CAEC15F035
:10365800DE6ADD6AF28E000C0D2A79500D5CE3E318
:103668000F0E79600F0CF29E7950C2EC15F005C070
:10367800DEFF06C0DDFF7950BAEC15F011D879509D
:10368800D2EC15F008D87950CAEC15F0DE6ADD6A7C
:10369800792AF28E000C09C0DEFF0AC0DDFF120095
:1036A80007C0DEFF08C0DDFF12000D6A3FD00D50D5
:1036B800C2EC15F00550DE1838E10650DE1835E189
:1036C800F29E0D50076E086A09680A6879500B6EF9
:1036D8000C6A09500B260A500C2207500B1803E1FC
:1036E80008500C181FE07950076E086AD890073602
:1036F8000836D89007360836D89007360836F80EB8
:103708000724D96E000E0820DA6E0D50080D000E41
:10371800F324E16E010EF420E26E070EDBCFE3FF27
:10372800E806FCE27906F28E12000D2A79500D5C4B
:10373800BEE31200085004E005500610071006E129
:10374800056A066A076A1200082A2DD80A6A0B6AEF
:10375800FE0E07142DD807E0F7D7082A052A000E11
:103768000622072220D80A6A0B6A075021D806E0E9
:10377800F4D70806D89005360636073606BE03D0B5
:10378800020E0860F6D708A0069ED89008320850A6
:103798000712095001E0078E05C005F006C006F0C3
:1037A80007C007F01200D89007320632053212001F
:1037B8000C6E0A500B100C1012000D50D96EDA6AFC
:1037C800060E6EEC22F0DF6E0D50D96EDA6A0D50DF
:1037D80022D81EEC24F02DD8050E6EEC22F01F0B1B
:1037E80028D80C5018D81EEC24F019D8040E6EEC0A
:1037F80022F03F0B14D80B500ED81EEC24F014D82E
:10380800030E6EEC22F0070B0FD80A5004D81EECFA
:1038180024F0DF6E1200E16EE26AE7501200DF6EFC
:103828000B50D96EDA6A1200DF6E0A50D96EDA6A66
:103838001200DF6E0C50D96EDA6A12000600D9CF7A
:1038480003F0DACF04F0F2BAF2A403D07FEC24F04C
:1038580030D0F2B8F2A211D0F292010EF1AC000E03
:10386800FF0A026E023A02460246F1500218BF0BE6
:103878000218F16ECCEC1DF01CD09DB09EA008D0B3
:103888009E903C0ECF6EB00ECE6E29EC24F011D077
:10389800A0B2A1A208D0A192F00EB36E600EB26ED3
:1038A80063EC1CF006D0F2BC9DAA03D09EBA38EC9B
:1038B80021F004C0DAFF03C0D9FF7B921100000198
:1038C800AE510AE0A82B1E0EA86103D0800E8C1AF8
:1038D80003D0A86BAE6B8C9EC451D8B41200B551FE
:1038E800D8B41200FC6BA6510BE1A72B140EA761EC
:1038F80003D0800E8C1A04D0A76B010EA66F8C9E85
:10390800A60502E19D4B9E2B2D0E9D5D010E9E5935
:1039180004E39D6B9E6B020EA66F020EA619D8A437
:103928001200A72B140EA76103D0800E8C1A800CEE
:10393800A76BA66BB56B8C9E1200126E010E116EF2
:10394800146A136A0C50070DAF0E0F6EB70E106E87
:10395800F3500F26F450102214500F26000E102298
:103968000FC0F6FF10C0F7FF0800F55011140BE068
:1039780013C005F00DC006F00EC007F01250142455
:10398800FEEC22F00AD013C005F00DC006F00EC000
:1039980007F01250142458EC22F0D8901136132A4C
:1039A800070E1364CFD7010E116E142A060E146485
:1039B800C8D7060C196E010E186E1B6A1A6A1150C8
:1039C800050D12C016F013C017F0F3501626F45068
:1039D80017221B501626000E172216C0F6FF17C016
:1039E800F7FF0800F55018140BE01AC005F014C0D2
:1039F80006F015C007F019501B24FEEC22F00AD07F
:103A08001AC005F014C006F015C007F019501B24A1
:103A180058EC22F0D89018361A2A070E1A64CFD715
:103A2800010E186E1B2A040E1B64C8D7040C076A03
:103A38000750C90FD96EDA6A07505EEC1EF0072AE4
:103A48001E0E0764F5D7040E0001BA650DD023D801
:103A580007E1BA2B1F0EBA65010CBB6BBA6B000CE1
:103A6800E76BBA6BBB2B010C16D8050DFA0E056E69
:103A7800B70E066EF3500526F4500622BA510526F5
:103A8800000E062205C0F6FF06C0F7FF0800F5CFB6
:103A9800E7F0BA2B010C640EBB25D96EDA6A020E68
:103AA800DA22DF5012000D6A0E6A0F6A106A095096
:103AB8000A100B100C1029E0010E116E06D0D890D8
:103AC80009360A360B360C36112A0CAEF8D7D890C0
:103AD8000D360E360F3610360950055C0A5006585A
:103AE8000B5007580C50085809E30950055E0A5056
:103AF800065A0B50075A0C50085A0D80D8900C32B1
:103B08000B320A320932112EE2D70DC005F00EC071
:103B180006F00FC007F010C008F012000F6A116A13
:103B2800106AD20E0B6EB70E0C6E0F500B26000EDD
:103B38000C2211500B26000E0C220BC0F6FF0CC0F5
:103B4800F7FF0800F5CF0DF01050C80FD96EDA6AEC
:103B58000D50DF160F2A070E0F6401D00F6A102AC6
:103B68001F0E1064DED7C80E076EC5EC20F00E6A73
:103B78000D0E0B6EFC0EE82EFED70B2EFCD70E2A70
:103B8800630E0E64F5D7112A070E1164C9D7070C06
:103B98000001C751D8B41200B32B080EB3191BE1AA
:103BA800B36B19D0360ED76FD86F360C240E24D0CD
:103BB800240ED76FD86F240C240ED76FD86B120041
:103BC800D76BD86B1200120EF8D7120ED76FD86FBA
:103BD800120C120E11D0B351E5E0010AE7E0030A16
:103BE800E7E0010AE9E0070AEBE0010AECE0030A72
:103BF800ECE0010AEEE01200D76F360ED86F360CF3
:103C0800E8C0B2F0E9C0B1F028D869EC1EF0EB0EBC
:103C18000A6EEC0E0B6EED0E0C6EEE0E0D6EE1ECF8
:103C28001BF00001B251E81901E07482030EE81993
:103C380002E1010EFC6F060EEA65060C180EEA6139
:103C4800180CE951D8A41200E851D8A41200FC516C
:103C5800D8B41200010EB56F010CEA0E0A6EE90E17
:103C68000B6EE80E0C6E1200100E0E6E0F0E0F6E1D
:103C78000C6AC80E0E2424D80E501CD80E2AC80E62
:103C88000F241ED80F5016D80F06C80E076EC5ECA5
:103C980020F00D6A0D0E0B6EFC0EE82EFED70B2ED3
:103CA800FCD70D2A1D0E0D64F5D70C2A0F0E0C64D7
:103CB800E0D70F0CC80FE16EE26ADFCFE7FF120012
:103CC800D96EDA6A020EDA2212000C5029EC22F0C0
:103CD8006EEC22F0DF6E0C50D96EDA6A0C500FECE5
:103CE8001CF01EEC24F016D8010E6EEC22F012D84F
:103CF8000B500FEC1CF01EEC24F011D8020E6EECE9
:103D080022F03F0B0CD80A500FEC1CF01EEC24F0EC
:103D1800DF6E1200DF6E0B50D96EDA6A1200DF6EAA
:103D28000A50D96EDA6A1200820E0001FD6FDD0EAC
:103D3800E82EFED7FD2FFCD700D0DAEC15F04EECBC
:103D480024F00001C76B00EC22F0010EC76FF29E51
:103D580015D84EEC16F04AEC16F011EC1BF0D40E08
:103D6800056E3E0E066E086A076A0A6A010E096E3B
:103D780011EC1BF0F28E55EC15F0FDD7000E056E18
:103D8800140E1200640E0E6E0D6A0F6A0F50C90FE2
:103D9800D96EDA6A0F505EEC1EF00F2A1F0E0F6400
:103DA800F5D70001E76BC80E076EC5EC20F00C6A6A
:103DB80008D00D0E0B6EFC0EE82EFED70B2EFCD78E
:103DC8000C2A0E500C5CF5E30A0E0E6401D00E5E50
:103DD8000D2A1F0E0D64D9D71F0C640E0E6E0D6AC6
:103DE8001F0E0F6E0F50C70FD96EDA6A0F505EECB8
:103DF8001EF00F060F50F6E10001C86BC80E076EE3
:103E0800C5EC20F00C6A08D00D0E0B6EFC0EE82EE7
:103E1800FED70B2EFCD70C2A0E500C5CF5E30A0ECD
:103E28000E6401D00E5E0D2A1F0E0D64D9D71F0C2B
:103E3800F9C105F0FAC106F0FBC107F0FCC108F0B2
:103E48006D0E096E4E0E0A6EC60E0B6E410E0C6E8E
:103E5800DCEC1FF005C0F9F106C0FAF107C0FBF170
:103E680008C0FCF1390E0101F927300EFA23000EC3
:103E7800FB23FC23FB51116E7F0EFC15126E120002
:103E88000C6E0F6A106A9CEC24F0EC0E8EEC24F099
:103E98000C508EEC24F0A0EC24F0ED0E8EEC24F007
:103EA800010E6EEC23F00F6E106A000E6EEC23F01C
:103EB8000D6E0E6A98EC24F00D500B6E0A6A0F50C6
:103EC8000A10086E10500B10096E120081B202D051
:103ED800010E0BD081B402D0020E07D081B602D0F9
:103EE800030E03D081B803D0040E056E01D0056A15
:103EF80005500FE0290E0001AD61290CAD2B280EED
:103F0800AD19D8A4120005C077F0AD6B010EAE6FE5
:103F1800010C0001AD6B12008E0E156E06D0D89004
:103F280010320F320E320D32152A116A126A136AD4
:103F38001050146E1150121013101410F0E10DC02F
:103F480005F00EC006F00FC007F015C008F0000E0F
:103F5800096E9EEC1BF005C00DF006C00EF007C000
:103F68000FF0120019D0C20E756EBD0E766E1200DB
:103F7800900E756EBD0E766E12005E0E756EBD0EDD
:103F8800766E12002C0E756EBD0E766E1200FA0E4D
:103F9800756EBC0E766E12007A50010AE4E0030AD0
:103FA800E7E0010AEAE0070AEDE0010AF0E01200A2
:103FB8000D6A0E6A0F6A106A05A008D009500D260E
:103FC8000A500E220B500F220C501022D89009369E
:103FD8000A360B360C36D8900832073206320532CC
:103FE8000550061007100810E7E10DC005F00EC0D7
:103FF80006F00FC007F010C008F012000A6A0B6A3A
:10400800075008101BE0010E096E04D0D89007363F
:104018000836092A08AEFAD7D8900A360B36075060
:10402800055C0850065805E30750055E0850065A17
:104038000A80D89008320732092EEED70AC005F058
:104048000BC006F012000C6A1F0E0D6E0E6A0C50A3
:1040580019D80C2A0D5016D80D06C80E076EC5ECD7
:1040680020F00F6A0D0E0B6EFC0EE82EFED70B2EFD
:10407800FCD70F2A1D0E0F64F5D70E2A0F0E0E64FB
:10408800E6D70F0CC80FD96EDA6ADF6A12008B6A9E
:10409800180E946E8A6A1F0E936EF19E8C6A956A4A
:1040A800896A010E926EC30EC216C150F00B0E093A
:1040B800C16ECF0EC116C050F80B0209C06EC08E7B
:1040C800C280F18CF292F288828012000E500F109A
:1040D80017E0010E106E04D0D8900E360F36102A55
:1040E8000FAEFAD70E500C5C0F500D5804E30E506B
:1040F8000C5E0F500D5AD8900F320E32102EF2D798
:104108000CC00CF00DC00DF0120082909490070EB8
:10411800056E7D0EE82EFED7052EFCD700F08280B6
:104128009480C80E00D0E82EFDD7000E82B0010E94
:10413800066E060E056E800EE82EFED7052EFCD7FD
:1041480000D0065012001CEC1FF01150030B136E28
:104158001350020DF20EF324F66EB70EF420F76E2C
:104168000900F5CFA3F00A00F5CFA4F0050000017F
:10417800FA6EA351FD6EA451FE6EF850FF6EFA5010
:1041880012000A6A8C90096A0950F80D0750F32446
:104198000A24D96EDA6A180ED926DF50086E0A2862
:1041A800E9EC21F00850E9EC21F0092A030E096432
:1041B800EBD78C800A2A070E0A64E4D7070C156E21
:1041C800155012EC23F0106E030EC9EC23F01250B8
:1041D80012EC23F0106E040EC9EC23F0135012EC0D
:1041E80023F0106E050EC9EC23F0145012EC23F0E6
:1041F800106E060EC9EF23F0086E0A6A0AC006F0B0
:1042080008C007F0062A02D0D8900732062EFCD73D
:104218000750096E010E091609504AEC23F00A2AC4
:10422800070E0A64EBD7D20E00D0E82EFDD7120095
:10423800076A086AD7EC23F000090CE008C005F00B
:10424800010E066E052A02D0D8900636052EFCD738
:1042580006500712F00E00D0E82EFDD7082A070EE8
:104268000864E8D707501200ABA202D0AB98AB881D
:10427800000E0001AA250FD8AECFDFFFAA2B630ED0
:10428800AA6501D0AA6BB42BB405016E630E016454
:10429800630CB46B1200D96EDA6A020EDA221200CD
:1042A800056E0001AB51FDE09DB805D09EA8FED774
:1042B80005C0ADFF12009D98780EAC25D96EDA6A5C
:1042C800010EDA2205C0DFFFAC2B0F0EAC6501D062
:1042D800AC6BAB0712008B94E20E99EC22F08B8446
:1042E800700E076E070E08EC24F08B920B0E076E0B
:1042F800000E08EC24F08B82C00E00D000D0E82E0F
:10430800FCD700D000D000D01200066E086A055015
:1043180014E0010E076E03D0D8900536072A05AEC3
:10432800FBD7D89008360550065C03E30550065EB7
:104338000880D8900532072EF4D7085012008C80D8
:10434800010E076E0C0E9EEC23F0076A090E9EEC18
:1043580023F0070E076E0B0E9EEC23F0020E076E7D
:104368000A0E9EEC23F0076A0F0E9EEF23F0146EE0
:10437800135012EC23F0106E000EC9EC23F012500B
:1043880012EC23F0106E010EC9EC23F0145012EC5D
:1043980023F03F0B106E020EC9EF23F00A6E8B94C8
:1043A8000A5099EC22F00B6A0BD007C0F6FF08C040
:1043B800F7FF0800F55099EC22F0074A082A0B2A63
:1043C80009500B5CF2E38B841200056E066A05AE99
:1043D80002D08C8401D08C948C8200F000F000F024
:1043E80000F000F000F000F08C92D8900536062A14
:1043F800070E0664ECD7070CBDEC17F0560E076ED7
:10440800BE0E086E340E096EBE0E0A6E150E0B6EC9
:10441800BE0E0C6E210E0D6EBE0E0E6EC8EC1AF09E
:1044280042EF22F0096E8B94095099EC22F00A6A47
:1044380007D007500A2409D899EC22F0DF6E0A2A1F
:1044480008500A5CF6E38B841200D96EDA6A000C15
:104458000001FA5103E1460EF95D05E3030E076E0C
:104468000A0E9EEF23F0FA5108E1330EF95DD8B039
:104478001200076A0A0E9EEC23F0120010D0C80E34
:10448800076EC5EC20F00C6A0D0E0B6EFC0EE82EC4
:10449800FED70B2EFCD70C2A3B0E0C64F5D71BEC71
:1044A8001DF00009ECE112000B6E05C008F0010ECA
:1044B800096E082A02D0D8900936082EFCD7091CA4
:1044C8000A6E0B500624D96E000E0720DA6E0A50C9
:1044D800DF161200086E9CEC24F0D00E8EEC24F04F
:1044E80008508EEC24F0A0EC24F0D10E8EEC24F0D1
:1044F800000E6EEC23F0096E98EC24F009501200BF
:10450800948C948EAC84AC98AC8AAB88AB8EB8860D
:10451800040EB06E100EAF6E0001AC6B100EAB6FD8
:10452800AA6BA96BB46B9D8A1200056E066A05AE6C
:1045380002D08C8801D08C98D89005368C8A010ED0
:1045480083A6000E05128C9A062A070E0664EFD77A
:104558000550120089EC20F00009D8A41200CC0EF6
:1045680000EC21F04E0E00EC21F0000E00EC21F0E2
:10457800000E00EC21F07F0E00EF21F005C007F0DF
:1045880006C008F002D0074A082A07C0D9FF08C0A9
:10459800DAFFDF50F8E10550075C056E0650085851
:1045A800066E1200FA0EC2EC17F008C02DF009C012
:1045B8002EF00AC02FF00BC030F02DC029F02EC00D
:1045C8002AF02FC02BF030C02CF01200F70EC2ECEE
:1045D80017F008C02DF009C02EF00AC02FF00BC04C
:1045E80030F02DC029F02EC02AF02FC02BF030C09B
:1045F8002CF012000A6E05C008F0010E096E082A98
:1046080002D0D8900936082EFCD70A500624D96E55
:10461800000E0720DA6E0950DF1212000F6E0A0E24
:10462800096E0F5025EC23F00D6E0F0E0D160A0EB5
:10463800056E0F5089EC21F00E6E0E38F00B0D1040
:1046480012000A6E080E0B6E0C6AD8900A340C34ED
:104658000C6ED8900A3609500C5C02E309500C5EC7
:104668000B2EF3D70C501200B451FEE0000EA92512
:104678004FEC21F0DF50056EA92B630EA96501D020
:10468800A96B9D9AB4079D8A05501200056E829009
:104698009490050406E1060EE82EFED700D082802D
:1046A8009480D20E00D0E82EFDD78280948012002C
:1046B800066EA6B2FED706C0A9FF05C0A8FFA69E33
:1046C800A69CA684F29E550EA76EAA0EA76EA68279
:1046D800F28EAA0C066E77EC24F0C58677EC24F0EF
:1046E800C9CF07F077EC24F0065002E1C58A01D063
:1046F800C59AC58807501200C282C2B2FED7C450FC
:10470800066E056AC3500524F96F000E0620FA6F7D
:1047180000F000F0120007D82A0ED2EC21F003D8DE
:10472800300ED2EF21F00CC007F00DC008F0050ED6
:10473800096E050C086E8C90096A0850E9EC21F0A6
:104748000750E9EC21F0092A030E0964F6D78C809A
:10475800030C086E9CEC24F0EC0E8EEC24F0085050
:104768008EEC24F007508EEC24F098EF24F0CD90D6
:104778003C0ECF6EB00ECE6E9D80B192B180A082FD
:10478800F00EB36E600EB26E600C116E9CEC24F0ED
:10479800D00E8EEC24F011508EEC24F010508EECDC
:1047A80024F098EF24F082909490030EE82EFED720
:1047B80000F082809480140EE82EFED782B0010C9F
:1047C800000C0BC007F0A5C008F0610E16EC22F033
:1047D800400E076E070E08EF24F0076E8B94075003
:1047E80099EC22F0000E99EC22F0086E8B840850A8
:1047F8001200180E9412280EC66EC76A630EC86E91
:10480800C584C5A41200FDD7086E8B9408502009F2
:1048180099EC22F0075099EC22F08B8412006FEC8F
:1048280024F00A6E0ABC010C87EC24F00009D8B405
:10483800010C000C066E06C005F00F0E05160638B2
:104848000F0B0A0DF350052412000001F62B950EEC
:10485800F665950CF66B010EF56FCD90010C106A9C
:104868000E0EC9EC23F0080E106E0F0EC9EF23F0E0
:104878000CC007F00DC008F0050E096E2B0ED2EF24
:1048880021F0A6B2FED705C0A9FFA69EA69CA680C9
:10489800A8501200056A055046EC20F0052A200EA3
:1048A8000564F9D7200C05C0F9F106C0FAF1010139
:1048B800FB6BFC6B12009586959894929494959A4C
:1048C800958C8B841200C70ED56EF28AD76A3D0E7E
:1048D800D66E796A12008B94FF0E99EC22F0076E5F
:1048E8008B8407501200C7B4FED7C5CF05F01F0E42
:1048F8000516F9E11F0CF294D76A3D0ED66E010E2B
:104908000001C06F010C170EF1EC23F0096E09507D
:10491800010B1200066E77EC24F006C0C9FF1200E6
:10492800AA6BA96BB46B120077EC24F0C584120053
:1049380077EC24F0C580120077EC24F0C5821200D1
:10494800959E8C9E1200F28EF28C1200040E776EE9
:0E495800040CC2BD0501F4012B01010000009A
:10B7AE000000000000000000087C4E4F4E7C080494
:10B7BE0026473F070604203E7F7F3F3E207E121E17
:10B7CE0000701000FDBFEF7FFBDFF7FEFDBFEF7FC8
:10B7DE00FBDFF7FE00010102020304040506060763
:10B7EE0007080909243B8C3DE23D4E400000000055
:10B7FE00004551453E006B6F6B3E003E7C3E1C008B
:10B80E003C7E3C1800367F36300000000000000001
:10B81E00000000000000000000000000000000001A
:10B82E00000000000000000000000000000000000A
:10B83E0000000000000000000000000000000000FA
:10B84E0000000000000000000000000000000000EA
:10B85E0000000000000000000000000000000000DA
:10B86E0000363600000024360000002424000000BC
:10B87E002400000000000000000012000000001272
:10B88E001200000012360000001236000000000008
:10B89E000000005F00000007000700147F147F14F3
:10B8AE00242A7F2A12231308646236495620500038
:10B8BE0008070300001C2241000041221C002A1C24
:10B8CE007F1C2A08083E080800807030000808080F
:10B8DE000808606000000020100804023E5149452F
:10B8EE003E00427F400042615149462141454B3165
:10B8FE001814127F1027454545393C4A49493001F5
:10B90E00710905033649494936064949291E000081
:10B91E00363600004034000000081422411414147E
:10B92E001414004122140802015909063E415D59C2
:10B93E004E7C1211127C7F494949363E41414122CB
:10B94E007F4141413E7F494949417F090909013EF5
:10B95E00414151727F0808087F00417F410020401D
:10B96E00413F017F081422417F404040407F020446
:10B97E00027F7F0408107F3E4141413E7F09090945
:10B98E00063E4151215E7F09192946264949493211
:10B99E0001017F01013F4040403F1F2040201F3FDB
:10B9AE004038403F63140814630304780403615164
:10B9BE00494543007F4141000204081020004141E7
:10B9CE007F0004020102044040404040000307088B
:10B9DE000020545478407F28444438384444442846
:10B9EE00384444287F3854545418087E09020018ED
:10B9FE00A4A49C787F0804047800447D4000204075
:10BA0E00403D007F1028440000417F40007C0478B8
:10BA1E0004787C080404783844444438FC18242400
:10BA2E001818242418FC7C04040800485454542488
:10BA3E0000043F44203C4040207C1C2040201C3C05
:10BA4E004030403C44281028444C9090907C4464F4
:10BA5E00544C440008364100000077000000413687
:10BA6E0008000201020402000000000000000000B5
:10BA7E0000000000000000000000000000000000B8
:10BA8E0000000000004000400040000000000000E8
:10BA9E00000000003E55554122000000000000004D
:10BAAE000000000000000000000000000000000088
:10BABE000000000000000000000000000000000078
:10BACE000000000000000000000000000000000068
:10BADE000000000000000C1E1E0C00000000000004
:10BAEE000000000000000000000000000000000048
:10BAFE000000000000000000000000000000000038
:10BB0E000000000000000000000000000000000027
:10BB1E000000000000000000000000000000000017
:10BB2E0000000000007E0202020300000000000080
:10BB3E00000000007E4B4A4B4200000000003E49D0
:10BB4E004949220000000000000000000000000033
:10BB5E000000000000000000417E410000060909BF
:10BB6E000644445F444400417F410000447D400050
:10BB7E00007C04040600000000000000000000002D
:10BB8E0000000000385554551800000000003854CD
:10BB9E0054544422142A14082040403D0000000052
:10BBAE000000000000000000457C41007E111111D4
:10BBBE007E7F494949317F494949367F010101015B
:10BBCE00C07E417EC07F4949494177087F08772270
:10BBDE00414949367F1008047F7E1109057E7F0892
:10BBEE00142241407E01017F7F020C027F7F0808F4
:10BBFE00087F3E4141413E7F0101017F7F090909D6
:10BC0E00063E4141412201017F0101274848483F3C
:10BC1E000E117F110E63140814637F40407FC0071E
:10BC2E000808087F7F407E407F7F407E40FF017F77
:10BC3E004444387F4438007F7F444444382241498D
:10BC4E00493E7F083E413E462919097F20545454EF
:10BC5E00783C4A4A4A317C54545428007C040404EB
:10BC6E00C078447CC038545454186C107C106C2826
:10BC7E00445454287C2010087C7C2111097C7C10B3
:10BC8E00102844403804047C7C0810087C7C10107A
:10BC9E00107C38444444387C0404047C7C14141412
:10BCAE0008384444442804047C04044C5050503C4E
:10BCBE0018247C2418006C10106C7C40407CC00C46
:10BCCE001010107C7C4078407C7C407840FC047CDA
:10BCDE005050207C5020007C007C50502044545406
:10BCEE0054387C10384438485434147C3E41417FDB
:10BCFE003E00427F7F406273594F462263497F3632
:10BD0E001814127F7F2F45457D393E49497B3203FA
:10BD1E0071790F073649497F362649497F3E3E7F66
:10BD2E00417F3E00427F7F406273594F46226349F6
:10BD3E007F361814127F7F2F6F457D393E7F497BEA
:10BD4E00320373790F07367F497F36266F497F3E60
:10BD5E007F41417F7F00017F7F007151515F5F41C5
:10BD6E0049497F7F1F10107F7F4F494979797F495D
:10BD7E004979790101017F7F7F49497F7F4F494989
:10BD8E007F7F7F7F417F7F00017F7F007373515FD5
:10BD9E005F636B497F7F1F1F107F7F6F6F497979BC
:10BDAE007F7F497B7B0373790F077F7F497F7F6F8F
:10BDBE006F497F7F7F7F417F7F00017F7F006171B1
:10BDCE00594F474149497F7F1F1F107F7F4F4F4972
:10BDDE0079797F7F4979790171790F077F7F497F63
:10BDEE007F5F5F517F7F0000007C447C007C00748D
:10BDFE00545C54547C1C107C5C54747C5474040449
:10BE0E007C7C547C5C547C4A616E2031382032300C
:10BE1E0031380031323A35353A3032001979270946
:10BE2E00041979270904436C6F636B2076332E3027
:10BE3E002E30206279204976616E5F666400ECECEC
:10BE4E002EF0F22EF1F22E0025732025732025738D
:10BE5E0000286E756C6C2900C7E23A00D0EA3A00F1
:10BE6E00C4ED3A00D2EF3A00D8F03A00CCF13A00E5
:10BE7E00D7F13A00DFF13A00C0F23A00D2313A007F
:10BE8E00D2323A00D1E100C0E200C6E200CAE200BE
:10BE9E00CDE400CFED00CBEF00C1F000C2F000C347
:10BEAE00F000D1F000D2F000D7F000CBF100CFF1CE
:10BEBE0000C2F200CBF200CFF200D7F200D1F700B1
:01BECE000073
:020000040020DA
:080000000109070903000000DB
:020000040030CA
:0E000000FF061E1EFF8181FF0FC00FE00F40A4
:0200000400F00A
:080000000402010201010101EB
:00000001FF
