:0400000007EF00F016
:100008007B820AED1BF005EF1CF0B5EC21F029C04E
:1000180055F02AC056F02BC057F02CC058F0C9EC48
:1000280021F029C049F02AC04AF02BC04BF02CC05F
:100038004CF00B0E7FDBD89037343B6E38343C6E77
:1000480039343D6E3A343E6E030E3F6E55C040F073
:1000580056C041F057C042F058C043F03F6601D047
:1000680007D0433443324232413240323F2EF6D732
:100078003B50405C056E3C504158066E3D5042581E
:10008800076E3E504358086EB2C009F0B3C00AF07C
:100098004BDB01EC1FF0366601D003D009DB362EAE
:1000A800FAD715DB0C0E46DB040E3B6E55C03CF050
:1000B80056C03DF057C03EF058C03FF03B6601D0F7
:1000C80003D053DB3B2EFAD737503C5C056E3850D3
:1000D8003D58066E39503E58076E3A503F58086EE4
:1000E8000001B451406EB551416E426A436A040E34
:1000F800446E55C045F056C046F057C047F058C04A
:1001080048F0446601D007D0483448324732463276
:100118004532442EF6D74050455C096E415046584A
:100128000A6E425047580B6E435048580C6E01EC0B
:100138001FF0366601D003D0BBDA362EFAD7BEDA06
:100148000E0E366E09DBB0C009F0B1C00AF0ECDA69
:1001580001EC1FF0366601D003D0AADA362EFAD7A2
:10016800BFDA5D506524516E5E506620526E5F5056
:100178006720536E60506820546E51C005F052C01D
:1001880006F053C007F054C008F0050E096E0A6A5D
:100198000B6A0C6A01EC1FF0800E0524366E000E07
:1001A8000620376E000E0720386E000E0820396EC4
:1001B80037C036F038C037F039C038F0396A38BE41
:1001C800396836C04DF037C04EF038C04FF039C0EE
:1001D80050F03550D96EDA6A4DC0DEFF4EC0DEFFF2
:1001E8004FC0DEFF50C0DEFF51C036F052C037F0BE
:1001F80053C038F054C039F03934BDDA000E362413
:10020800656E060E3720666EFF0E3820676EFF0E8D
:100218003920686E0B0E12DA01EC1FF0366601D039
:1002280003D046DA362EFAD749DA96DAA6C009F0AC
:10023800A7C00AF079DA01EC1FF052DAA8C005F07D
:10024800A9C006F056DA01EC1FF0D8900534366ED6
:100258000634376E0734386E0834396E36505D26EA
:1002680037505E2238505F22395060220001AA516F
:10027800366EAB51376E386A396A37C039F036C0D6
:1002880038F0376A366A020E3A6E5DC03BF05EC0DF
:100298003CF05FC03DF060C03EF03A6601D007D048
:1002A8003E343E323D323C323B323A2EF6D736505F
:1002B8003B245D6E37503C205E6E38503D205F6EAB
:1002C80039503E20606E0D0EB9D901EC1FF036662C
:1002D80001D003D0EDD9362EFAD7F0D9120E366EEA
:1002E800030E376EACC005F0ADC006F0000E0FDA95
:1002F80001EC1FF005C038F006C039F007C03AF02D
:1003080008C03BF0376601D007D03B343B323A3265
:1003180039323832372EF6D7AEC005F0AFC006F006
:10032800E8D901EC1FF0C4D9055038243C6E0650BA
:1003380039203D6E07503A203E6E08503B203F6EF4
:10034800366601D003D011DA362EFAD73CC065F0F4
:100358003DC066F03EC067F03FC068F00F0E366ED5
:10036800000E6524056E800E6620066E000E67205E
:10037800076E000E6820086EEEC009F0EFC00AF0A4
:100388000B6A0C6A01EC1FF0366601D003D090D9D5
:10039800362EFAD79CD9655066106710681001E1AF
:1003A80012000C0E366E5DC037F05EC038F05FC0CC
:1003B80039F060C03AF0366601D004D03A34E0D95A
:1003C800362EF9D749C03BF04AC03CF04BC03DF04F
:1003D8004CC03EF03B1E3C1E3D1E3E1E3B2A000EFE
:1003E8003C223D223E2237503B5C3F6E38503C5801
:1003F800406E39503D58416E3A503E58426E000E9C
:100408003F24056E000E4020066E100E4120076E38
:10041800000E4220086E350E096E0C0E0A6E0B6A2D
:100428000C6A01EC1FF005C061F006C062F007C05D
:1004380063F008C064F0800E645C15E2D890613403
:10044800056E6234066E6334076E6434086E7BD9B9
:1004580041EC1CF005C061F006C062F007C063F013
:1004680008C064F014D061C005F062C006F063C033
:1004780007F064C008F067D941EC1CF0D890053447
:10048800616E0634626E0734636E0834646E61C050
:1004980036F062C037F063C038F064C039F0040E3B
:1004A80002D0D89068D9E82EFCD736C005F037C0FE
:1004B80006F038C007F039C008F061C03AF062C0F1
:1004C8003BF063C03CF064C03DF0040E05D0D8900A
:1004D8003D323C323B323A32E82EF9D73AC009F085
:1004E8003BC00AF03CC00BF03DC00CF001EC1FF023
:1004F8000E0E05D0D8900832073206320532E82EA3
:10050800F9D7DCD80C0E366EA0C005F0A1C006F0F5
:10051800000EFDD801EC1FF0366601D003D0C8D814
:10052800362EFAD7D4D80D0E366E61C037F062C0B9
:1005380038F063C039F064C03AF0030E02D0D890A6
:100548001FD9E82EFCD737C005F038C006F039C0EF
:1005580007F03AC008F0A2C009F0A3C00AF0E4D836
:1005680001EC1FF0366601D003D0A2D8362EFAD798
:10057800B7D8040E366EA4C037F0A5C038F0000E08
:1005880038BEFF0E396E3A6E655037243B6E6650A2
:1005980038203C6E675039203D6E68503A203E6ED8
:1005A8005D503B243F6E5E503C20406E5F503D20C6
:1005B800416E60503E20426E366601D007D042340C
:1005C8004232413240323F32362EF6D761503F2414
:1005D800616E62504020626E63504120636E6450C9
:1005E8004220646E070E196E400E1A6E3F0E1B6E87
:1005F80061C00DF062C00EF063C00FF064C010F06F
:10060800B5EC1EF00DC016F00EC017F00FC018F0B4
:10061800D1EC17F016C025F017C026F018C027F047
:10062800F3EC18F03450D96EDA6A25C0DEFF26C024
:10063800DEFF27C0DEFF28C0DEFF1200366E020E86
:10064800376E65C038F066C039F067C03AF068C0E8
:100658003BF0376601D007D03B343B323A3239326F
:100668003832372EF6D738C005F039C006F03AC010
:1006780007F03BC008F0020E3C6E65C03DF066C056
:100688003EF067C03FF068C040F03C6601D007D03C
:10069800403440323F323E323D323C2EF6D73DC0E8
:1006A80009F03EC00AF03FC00BF040C00CF0120049
:1006B80008340832073206320532120005C059F0F4
:1006C80006C05AF007C05BF008C05CF0120005C015
:1006D80065F006C066F007C067F008C068F0120051
:1006E80005C05DF006C05EF007C05FF008C060F0AE
:1006F8001200000E06BEFF0E076E086E65C009F0F8
:1007080066C00AF067C00BF068C00CF0120006BEA5
:10071800FF0E076E086E59C009F05AC00AF05BC098
:100728000BF05CC00CF01200000E0ABEFF0E0B6E40
:100738000C6E1200366E0001B451376EB551386E2A
:10074800396A3A6A120065C009F066C00AF067C0E3
:100758000BF068C00CF0120059C005F05AC006F042
:100768005BC007F05CC008F012003F343F323E32F5
:100778003D323C32120039323832373236321200CA
:100788003A323932383237321200CB510BE017EC9B
:1007980022F0166EC851800FD96EDA6A16C0DFFFD4
:1007A800C82B1200240E801901E184D2A4D2D3DA16
:1007B8009B6FD7DA9A6F9AC012F0136A9B51DAECE2
:1007C80020F04F0E5AEC20F04B0E5AEC20F00D0E94
:1007D8005AEC20F00A0E5AEC20F08DD293DA180465
:1007E800191005E08FDA020E181819101FE182514E
:1007F800D00F786E78C005F0010E3BEC22F00FECBC
:1008080023F0780403E10001DE6B02D0B5EC0BF0B5
:10081800CA6B4F0E5AEC20F04B0E5AEC20F00D0E1E
:100828005AEC20F00A0E5AEC20F065D2450E5AEC2C
:1008380020F0520E5AEC20F00D0E5AEC20F00A0E61
:100848005AEC20F058D2010E7CDA3BEC22F0DBECBB
:100858001EF022D0020E75DA3BEC22F0F8D7030E18
:1008680070DA3BEC22F0F3D7040E6BDA3BEC22F0A3
:10087800EED7050E66DA3BEC22F0E9D743DA1950D9
:100888000BE11850010ADFE0030AE4E0010AE7E09F
:10089800070AEAE0010AEDE0D00E166E17680001BB
:1008A80082513BDA19BE05D0195007E1060E185CD3
:1008B80004E228DA185019100DE1450E5AEC20F020
:1008C800520E5AEC20F00D0E5AEC20F00A0E5AEC9B
:1008D80020F011D24F0E5AEC20F04B0E5AEC20F0BB
:1008E8000D0E5AEC20F00A0E5AEC20F004D239DA38
:1008F800126E86510A0DF3508725F00F136E88513A
:100908000A0DF3508925F00F146E25DACCEC1FF090
:100918004F0E5AEC20F04B0E5AEC20F00D0E5AEC0C
:1009280020F00A0E5AEC20F0E6D1ECD91850191034
:1009380004E0E8D9180419100CE18251D00FDD6FDA
:100948008351D00FDC6FDDC005F0020E3BEC22F0C6
:100958000DD0450E5AEC20F0520E5AEC20F00D0E38
:100968005AEC20F00A0E5AEC20F0C5D10001DD51F6
:1009780009E1DCC005F0030E3BEC22F0EBEC14F0CF
:100988008FEC22F04F0E5AEC20F04B0E5AEC20F070
:100998000D0E5AEC20F00A0E5AEC20F0ACD1B2D968
:1009A8001850191004E0AED91804191009E1825141
:1009B800D00FDB6FDBC005F0040E3BEC22F00DD04E
:1009C800450E5AEC20F0520E5AEC20F00D0E5AEC5F
:1009D80020F00A0E5AEC20F08ED14F0E5AEC20F07F
:1009E8004B0E5AEC20F00D0E5AEC20F00A0E5AEC81
:1009F80020F081D187D91850191004E083D9180440
:100A080019101BE199D989D91850191005E094D902
:100A180084D91804191011E18251D00FDA6F83516B
:100A2800D00FD96FDAC005F0050E3BEC22F0D9C023
:100A380005F0060E3BEC22F00DD0450E5AEC20F0E6
:100A4800520E5AEC20F00D0E5AEC20F00A0E5AEC19
:100A580020F051D14F0E5AEC20F04B0E5AEC20F0FA
:100A68000D0E5AEC20F00A0E5AEC20F044D14AD967
:100A78001850191004E046D91804191009E18251D8
:100A8800D00FD86FD8C005F0070E3BEC22F00DD080
:100A9800450E5AEC20F0520E5AEC20F00D0E5AEC8E
:100AA80020F00A0E5AEC20F026D14F0E5AEC20F016
:100AB8004B0E5AEC20F00D0E5AEC20F00A0E5AECB0
:100AC80020F019D14F0E5AEC20F04B0E5AEC20F0C2
:100AD8000D0E5AEC20F00A0E5AEC20F0330E176E69
:100AE800BB0E166EE00EE82EFED7162EFCD7172E7C
:100AF800FAD7330E176EBB0E166EE00EE82EFED731
:100B0800162EFCD7172EFAD7330E176EBB0E166E9D
:100B1800E00EE82EFED7162EFCD7172EFAD7330E86
:100B2800176EBB0E166EE00EE82EFED7162EFCD7FB
:100B3800172EFAD7FF00DFD0740E821903E1030ED7
:100B4800776E0DD0450E5AEC20F0520E5AEC20F07C
:100B58000D0E5AEC20F00A0E5AEC20F0CCD04F0EB5
:100B68005AEC20F04B0E5AEC20F00D0E5AEC20F007
:100B78000A0E5AEC20F0BFD0086A640EE6D827ECBB
:100B88001FF0D2D88FEC1FF00C50300F5AEC20F029
:100B9800086A0A0EDAD827EC1FF0C6D88FEC1FF0C7
:100BA8000C50300F5AEC20F0F8C00CF0F9C00DF0E2
:100BB80040EC12F08FEC1FF00C50300F5AEC20F084
:100BC8005F0E5AEC20F069D01A6A0B0E1A6401D035
:100BD8000AD0F80E1A24F66EF76AB70EC8D85AEC7F
:100BE80020F01A2AF2D70D0E5AEC20F00A0E5AEC11
:100BF80020F01A6A080E1A6401D00AD0040E1A24CA
:100C0800F66EF76AB80EB3D85AEC20F01A2AF2D763
:100C18000D0E5AEC20F00A0E5AEC20F03ED0FA5194
:100C28005AEC20F0086A640E076E95EC0CF027EC7D
:100C38001FF07AD88FEC1FF00C50300F5AEC20F0D0
:100C48008DEC0CF027EC1FF06FD88FEC1FF00C50D8
:100C5800300F5AEC20F085EC0CF08FEC1FF00C50A4
:100C6800300F5AEC20F05F0E5AEC20F016D0450EEB
:100C78005AEC20F0520E5AEC20F00D0E5AEC20F0EF
:100C88000A0E5AEC20F009D08251610A01E174D7AA
:100C9800150AC5E0020A98E0EAD74F0E5AEC20F090
:100CA8004B0E5AEC20F00D0E5AEC20F00A0E5AECBE
:100CB80020F021D08151610A01E19CD6030A01E1AB
:100CC80034D6010A01E18AD5070A01E110D6010AE2
:100CD80001E1CDD6030A01E1D1D5170A01E12CD7EC
:100CE800030AD2E0010A01E15AD6070A01E15FD5F9
:100CF8000E0A01E1E7D60001806B816B826BC86B3D
:100D08008AEF23F0D00E166E17688251186E196A92
:100D180016501826175019221200186E196A165004
:100D2800182617501922120005C00CF006C00DF045
:100D38000F6A0A0E0E6E0A0CD00E166E17688351D3
:100D480012007A6E7AC005F0000C076EF8C005F044
:100D5800F9C006F0120082510A0DF3508325F00FF6
:100D6800120084510A0DF3508525F00F1200F72266
:100D78000800F5501200236E45D10001DE6B246A8D
:100D880009EC0FF0E1518FEC20F004EC22F000099F
:100D980010E009EC0FF0E1518FEC20F004EC22F0A8
:100DA80039D9980E24243BEC1EF00800F5CFDFFF5C
:100DB80005D0980E24243BEC1EF0DF6A18EC0FF0E7
:100DC80004EC22F027D99E0E2424D96EDA6A010E8B
:100DD8004AD909EC0FF0E0518FEC20F004EC22F036
:100DE80019D9A50E2424D96EDA6A010E3CD913EC60
:100DF8000FF004EC22F00ED9AB0E2424D96EDA6A77
:100E0800010E31D9242A040E2464BAD7246A09ECC5
:100E18000FF0DF518FEC20F004EC22F01ED90CD932
:100E2800B10E2424D96EDA6A010E1DD91DEC0FF01B
:100E380004EC22F012D900D9B50E2424D96EDA6A4E
:100E4800010E11D9242A020E2464E1D701019D6BF9
:100E5800800EA36FA46FAA6BB06BB46B1200010E67
:100E68000001DE6F05D98FEC20F004EC22F00001C0
:100E7800D66F08D904EC22F00001D56FFED88FECAC
:100E880020F004EC22F00001D46F00D904EC22F029
:100E98000001D36FD651D01909E1D551CF1906E118
:100EA800D451CE1903E1D351CD1974E0D351CD19E2
:100EB80009E0ECD804EC22F003EC0FF0190E4FEC2B
:100EC80019F008D0E3D804EC22F06FEC0DF0190EFD
:100ED80021EC1DF00001D451CE190BE0CED88FECD7
:100EE80020F004EC22F003EC0FF0130E4FEC19F095
:100EF8000AD0C3D88FEC20F004EC22F06FEC0DF090
:100F0800130E21EC1DF00001D551CF1909E0BAD814
:100F180004EC22F003EC0FF0070E4FEC19F008D0A8
:100F2800B1D804EC22F06FEC0DF0070E21EC1DF0A7
:100F380009EC0FF0E1518FEC20F004EC22F00009ED
:100F48001AE00001D651D0190BE092D88FEC20F0AE
:100F580004EC22F003EC0FF0010E4FEC19F011D065
:100F680087D88FEC20F004EC22F06FEC0DF0010E26
:100F780021EC1DF006D0116A0EEC0FF0010E4FECBB
:100F880019F0D6C0D0F0D5C0CFF0D4C0CEF0D3C0C1
:100F9800CDF012006DD88FEC20F004EC22F000099F
:100FA8000DE009EC0FF0E1518FEC20F004EC22F099
:100FB8006FEC0DF0010E21EC1DF006D00D6A48EC27
:100FC8000EF0010E21EC1DF018EC0FF004EC22F0ED
:100FD8006FEC0DF0070E21EC1DF009EC0FF0E0515D
:100FE8008FEC20F004EC22F06FEC0DF0130E21ECE6
:100FF8001DF013EC0FF004EC22F06FEC0DF0190E5D
:1010080021EF1DF02350010A01E1B7D6030A01E1DF
:1010180026D71200050D75C021F076C022F0F350D6
:101028002126F450222224502126000E222221C0FB
:10103800F6FF22C0F7FF000CF3502126F4502222BD
:1010480024502126000E2222030E2126000E2222E1
:1010580021C0F6FF22C0F7FF000C030D0F0E216E12
:10106800BE0E226E1200DA220800F5CFDFFF120052
:101078000A0E096E056EE15112000A0E096E056E20
:10108800E05112000A0E096EE15112000A0E096EB3
:10109800E051120040D062D941EC1AF00C0E056EF6
:1010A800210EB0EC0FF0F9EC19F091EC11F0F9EC1D
:1010B80019F018EC11F039D051D941EC1AF09CEC28
:1010C80011F041EC1AF066EC16F0B0EC0FF0F9EC08
:1010D80019F053EC13F00FEC23F027D09E2B0C0ED5
:1010E8009E6502D0010E9E6F91EC11F0F9EC19F09B
:1010F80008EC11F0CCEC1FF018D09E079E5102E1CD
:101108000C0E9E6F91EC11F0F9EC19F008EC11F04F
:10111800CCEC1FF00AD07750010ABDE0030ADEE0EC
:10112800010AEBE0070AC8E0010A74A4FFD07B0EAD
:10113800F66EBE0EF76E00D9000E21EC1DF07C0E87
:10114800F66EBE0EF76EF8D8060E21EC1DF07D0E79
:10115800F66EBE0EF76EF0D80C0E21EC1DF0C6D060
:10116800CC0EF66EBE0EF76EE7D8120E21EC1DF00F
:10117800CD0EF66EBE0EF76EDFD8180E21EC1DF000
:10118800D5D0C30EF66EBE0EF76ED6D8120E21EC71
:101198001DF0C40EF66EBE0EF76ECED8180E21ECFA
:1011A8001DF0C4D0A80EF66EBE0EF76EC5D8120E8E
:1011B80021EC1DF0A90EF66EBE0EF76EBDD8180E06
:1011C80021EC1DF0B3D09C0EF66EBE0EF76EB4D8AF
:1011D800120E21EC1DF09D0EF66EBE0EF76EACD809
:1011E800180E21EC1DF0A2D0B40EF66EBE0EF76EEE
:1011F800A3D8120E21EC1DF0B50EF66EBE0EF76EDA
:101208009BD8180E21EC1DF091D0B70EF66EBE0ECD
:10121800F76E92D8120E21EC1DF0B80EF66EBE0EC7
:10122800F76E8AD8180E21EC1DF080D0A50EF66E48
:10123800BE0EF76E81D8120E21EC1DF0A60EF66ECA
:10124800BE0EF76E79D8180E21EC1DF06FD07CD841
:1012580073D8120E21EC1DF07CD86ED8180E21EC34
:101268001DF064D0AB0EF66EBE0EF76E65D8120E8A
:1012780021EC1DF0AC0EF66EBE0EF76E5DD8180EA2
:1012880021EC1DF053D0990EF66EBE0EF76E54D8B1
:10129800120E21EC1DF09A0EF66EBE0EF76E4CD8AB
:1012A800180E21EC1DF042D0BA0EF66EBE0EF76E87
:1012B80043D8120E21EC1DF0BB0EF66EBE0EF76E73
:1012C8003BD8180E21EC1DF031D0AE0EF66EBE0ED6
:1012D800F76E32D8120E21EC1DF0AF0EF66EBE0E70
:1012E800F76E2AD8180E21EC1DF020D000019E516F
:1012F800010A01E135D7030A01E143D7010A01E1F7
:1013080051D7070A01E15FD7010A01E16DD7030A46
:1013180001E17BD7010A8AE00F0A99E0010AA2E0FD
:10132800030AB1E0010AC0E0070ACFE090EC18F028
:1013380056EC1DF0748412000800F5CF0DF0150E60
:101348000E6EB80E0F6E1200B10EF66EBE0EF76E70
:101358001200B20EF66EBE0EF76E12009C0E056EEF
:10136800100E066E120040D0FFD841EC1AF0CA0EDB
:10137800056E270EB0EC0FF0F9EC19F091EC11F0B6
:10138800F9EC19F018EC11F039D0EED841EC1AF05C
:101398009CEC11F041EC1AF066EC16F0B0EC0FF092
:1013A800F9EC19F053EC13F00FEC23F027D09C2B39
:1013B800070E9C6502D0010E9C6F91EC11F0F9ECC0
:1013C80019F008EC11F0CCEC1FF018D09C079C51D8
:1013D80002E1070E9C6F91EC11F0F9EC19F008ECA2
:1013E80011F0CCEC1FF00AD07750010ABDE0030AD7
:1013F800DEE0010AEBE0070AC8E0010A74A4AED0F7
:101408006F0EF66EBE0EF76EA0EC09F0000E21EC22
:101418001DF0700EF66EBE0EF76EA0EC09F0060E0B
:1014280021EC1DF0710EF66EBE0EF76EA0EC09F001
:101438000C0E21EC1DF081D0A20EF66EBE0EF76EDA
:10144800A0EC09F0120E21EC1DF0A30EF66EBE0EF4
:10145800F76EA0EC09F0180E21EC1DF07FD0C00E3D
:10146800F66EBE0EF76EA0EC09F0120E21EC1DF020
:10147800C10EF66EBE0EF76EA0EC09F0180E21EC48
:101488001DF06CD0A8EC09F0A0EC09F0120E21ECCC
:101498001DF0ADEC09F0A0EC09F0180E21EC1DF0E0
:1014A8005DD0C90EF66EBE0EF76EA0EC09F0120EF6
:1014B80021EC1DF0CA0EF66EBE0EF76EA0EC09F018
:1014C800180E21EC1DF04AD0C60EF66EBE0EF76E51
:1014D800A0EC09F0120E21EC1DF0C70EF66EBE0E40
:1014E800F76EA0EC09F0180E21EC1DF037D0930E22
:1014F800F66EBE0EF76EA0EC09F0120E21EC1DF090
:10150800940EF66EBE0EF76EA0EC09F0180E21ECE4
:101518001DF024D09F0EF66EBE0EF76EA0EC09F0FB
:10152800120E21EC1DF0A00EF66EBE0EF76EA0ECAA
:1015380009F0180E21EC1DF011D000019C51010A90
:10154800E9E0030A01E178D7010A89E0070A9AE08D
:10155800010AA7E0030AB8E0010AC9E090EC18F014
:1015680056EC1DF0748412006E0E056E130E066E96
:101578001200A7D07850BFEC06F0020E781801E1EF
:10158800F0D8050E0001DF650DD0070EDF610AD027
:10159800F30E116EF20E126EF00E136EF10E146E43
:1015A800B1EC11F00E0E0001DF6505D0100EDF6101
:1015B80002D0030E776ED85101E190D0270EDF6577
:1015C8008DD0290EDF618AD0020E72D0BFD841ECCF
:1015D8001AF0500E056E190E066EBDD8F9EC19F00A
:1015E80091EC11F0F9EC19F020EEDFF010EE99F023
:1015F800060EDBCFE3FFE806FCE2050E776E749477
:10160800020E78186BE10001DE6B170E0D6E48ECC8
:101618000EF00D0E21EC1DF061D0DE6BEA0E346E7B
:10162800E60E356E09EC00F0020E781807E1170E89
:101638000D6E48EC0EF00D0E21EC1DF0E9EC1FF0DC
:1016480085D841EC1AF0C60E056E1F0EB0EC0FF0EF
:10165800F9EC19F053EC13F041D0DA511AE0DE6BD3
:10166800020E781807E1170E0D6E48EC0EF00D0EFD
:1016780021EC1DF0E9EC1FF069D841EC1AF0DE0E00
:10168800056E2D0EB0EC0FF0F9EC19F053EC13F0D9
:101698000ED0D9510CE0DE6B020E7818EBE1170E74
:1016A8000D6E48EC0EF00D0E21EC1DF0E3D7050E83
:1016B800776E14D0050E776E9CEC11F041EC1AF0A1
:1016C8000DD07750010A82E0030AA7E0010AC5E0BD
:1016D800070AF0E0010A01E14DD7030A74A404D017
:1016E80090EC18F056EC1DF00001DD5108E0DFA188
:1016F80074A005D0749071EC22F035EC21F074845C
:1017080004EC23F0000913E06B0E0B6ED6EC22F00C
:1017180075EC20F06D50696E6C500001BA6F69C0AD
:10172800BBF06BC0FAF0B86BB96B749203D00001D0
:10173800B84BB92BE90EB85D030EB959D8A0120001
:10174800748275EC20F011D8ABEF19F07A0E056EA3
:10175800150E066E1200086A076A0A6A320E096ECA
:10176800320C010E0001DE6F010C040E0E6E780CB7
:10177800BAD00FEC23F074A213D0DFD8ECEC1CF035
:10178800450EB9D8090E4FEC19F0720EB4D80F0EE9
:101798004FEC19F0720EAFD8150E4FEC19F088D037
:1017A8000001BA2902E1BB2971E0ABD88FEC1FF028
:1017B8000C50226EB6D8C4D827EC1FF005C0BAF07A
:1017C80006C0BBF0050E226403D00001BA4BBB2B48
:1017D800A0D827EC1FF098EC06F08FEC1FF00C5007
:1017E8000D102EE1020E0A6E030EECEC1CF0000147
:1017F800BA51BB1116E0FAC011F00EEC0FF00D0E45
:101808004FEC19F07ED88FEC1FF00C5003EC0FF062
:10181800130E4FEC19F0B00E6ED8190E4FEC19F0EC
:1018280047D06FD88FEC1FF00C5003EC0FF00D0E63
:101838004FEC19F0B00E5FD8130E4FEC19F038D0FA
:101848007CD8ECEC1CF0FAC011F00EEC0FF0090E8D
:101858004FEC19F05ED827EC1FF098EC06F08FECEF
:101868001FF00C5003EC0FF00F0E4FEC19F049D895
:101878008FEC1FF00C5003EC0FF0160E4FEC19F024
:10188800B00E39D81B0E4FEC19F012D056D8ECEC2C
:101898001CF02D0E30D8090E4FEC19F02D0E2BD858
:1018A8000F0E4FEC19F02D0E26D8160E4FEC19F02E
:1018B80056EC17F03BD8F9EF19F0050E776EE9EC06
:1018C8001FF057EC0EF09CEC11F041EC1AF0780E7A
:1018D800056E170E066E41EC1AF066EC16F0B0ECC9
:1018E8000FF0F9EF19F07750040AE7E0010A01E177
:1018F80040D7030A1200116E150E126EB80E136E41
:101908001200BAC00CF0BBC00DF00F6A0A0E0E6EC2
:101918000A0C086A0A0E076EBAC005F0BBC006F0CA
:101928000A0CBAC005F0BBC006F01200020E086E21
:101938008A0E076E0A6A096A8A0C020E0A6E000C81
:10194800086A0A0E076E0A0C74B602D074866CD048
:1019580074966AD0D1D841EC1AF00A0E056E1B0EA7
:10196800066EAFEC0BF0F9EC19F091EC11F0F9EC14
:1019780019F0780413E109EC0FF09A518FEC20F07C
:1019880004EC22F0A8D80D0E21EC1DF0B0D804EC20
:1019980022F0A1D8130E21EC1DF013D009EC0FF0A2
:1019A800E0518FEC20F004EC22F095D8130E21ECD6
:1019B8001DF013EC0FF004EC22F08DD8190E21EC79
:1019C8001DF053EC13F03AD097D841EC1AF09CEC88
:1019D80011F041EC1AF066EC16F0B0EC0FF0F9ECEF
:1019E80019F0050E776E0FEC23F028D000019A2B22
:1019F8003B0E9A6501D09A6B91EC11F0F9EC19F055
:101A080070D8DAEC20F0050E776E18D000019A072E
:101A18009A2902E13B0E9A6F91EC11F0F9EC19F05A
:101A280060D8DAEC20F0EFD77750010A93E0030A88
:101A3800DDE0010AEBE0070AC7E0010A74A445D01B
:101A480074A628D0780413E109EC0FF09A518FECB2
:101A580020F004EC22F03FD80D0E21EC1DF047D801
:101A680004EC22F038D8130E21EC1DF02ED009EC2E
:101A78000FF09A518FEC20F004EC22F02CD8130EC2
:101A880021EC1DF034D804EC22F025D8190E21ECF5
:101A98001DF01BD078040DE10D6A48EC0EF00D0E18
:101AA80021EC1DF00D6A48EC0EF0130E21EC1DF030
:101AB8000CD00D6A48EC0EF0130E21EC1DF00D6AE7
:101AC80048EC0EF0190E21EC1DF090EC18F056ECD5
:101AD8001DF0748412000D6E75C00EF076C00FF004
:101AE80012009AC012F0136A00019B5112000A0EEC
:101AF800096E00019A511200500E056E190E066EFD
:101B0800120074B602D074864AD0749648D0C1D8F0
:101B180041EC1AF0A20E056E250EB0EC0FF0F9ECB0
:101B280019F091EC11F0F9EC19F0050E776E0FEC45
:101B380023F074943ED0ADD841EC1AF09CEC11F02F
:101B480041EC1AF066EC16F0B0EC0FF0F9EC19F075
:101B5800050E776E0FEC23F02CD000019B2B170E8F
:101B68009B6501D09B6B91EC11F0F9EC19F0050E17
:101B7800776E75EC0DF0DAEC20F01BD000019B07B6
:101B88009B2902E1170E9B6F91EC11F0F9EC19F00B
:101B9800050E776E75EC0DF0DAEC20F00AD0775070
:101BA800010AB5E0030AD9E0010AE8E0070AC3E040
:101BB800010A74A463D074A64AD0780424E109EC1D
:101BC8000FF09B518FEC20F004EC22F000090DE09F
:101BD80009EC0FF09B518FEC20F004EC22F06FEC35
:101BE8000DF0000E21EC1DF005D00D6A4DD8000E49
:101BF80021EC1DF053D804EC22F06FEC0DF0060E2A
:101C080021EC1DF03BD009EC0FF09B518FEC20F03C
:101C180004EC22F000090DE009EC0FF09B518FEC69
:101C280020F004EC22F06FEC0DF0010E21EC1DF019
:101C380005D00D6A29D8010E21EC1DF02FD804EC2F
:101C480022F06FEC0DF0070E21EC1DF017D0780490
:101C58000BE10D6A19D8000E21EC1DF00D6A14D89D
:101C6800060E21EC1DF00AD00D6A0ED8010E21ECEB
:101C78001DF00D6A09D8070E21EC1DF090EC18F044
:101C880056EC1DF074841200150E0E6EB80E0F6E11
:101C980012000A0E056E1B0E066E12000A0E096E61
:101CA80000019B5112000FEC23F0A2D0AED8E151F5
:101CB8008FEC20F004EC22F000090BE0A6D8E151EB
:101CC8008FEC20F004EC22F09AD8000E4FEC19F0BB
:101CD80005D0116A9FD8000E4FEC19F0A5D804EC76
:101CE80022F08DD8060E4FEC19F08FD8E0518FEC0A
:101CF80020F004EC22F083D80D0E4FEC19F08FD8A9
:101D080004EC22F07CD8130E4FEC19F0B4EC1DF063
:101D1800BBEC1DF07AD8DF518FEC20F004EC22F0F8
:101D2800216E2128106E190E35EC18F082D804ECBB
:101D380022F0216E2128106E1D0E35EC18F0CEEF22
:101D480012F063D8E1518FEC20F004EC22F0000986
:101D58000BE05BD8E1518FEC20F004EC22F04FD877
:101D6800010E4FEC19F005D0116A54D8010E4FEC52
:101D780019F05AD804EC22F042D8070E4FEC19F0AB
:101D88003A0E7FEC0CF00D0E4FEC19F03ED8E051F6
:101D98008FEC20F004EC22F032D8130E4FEC19F03F
:101DA8003ED804EC22F02BD8190E4FEC19F0010E96
:101DB8000001DE6FCA6B3CEC08F08FEC20F004ECFD
:101DC80022F00001D06F46EC08F004EC22F000018C
:101DD800CF6F41EC08F08FEC20F004EC22F000010A
:101DE800CE6F4AEC08F004EC22F00001CD6F12002F
:101DF8007850010A01E15AD7030AA3E01200116ED4
:101E080075C012F076C013F012000A0E096E056E46
:101E180000010A0C150E126EB80E136E12000A0E8F
:101E2800096E0001E05112000A0E096E0001E1512D
:101E380012000A0E096E0001DF51120041D0DD5177
:101E480010E0AAD841EC1AF0A3D886D8F9EC19F01A
:101E580091EC11F0F9EC19F053EC13F00FEC23F0BE
:101E680039D09AD841EC1AF0DA0E056E280E74D8DB
:101E7800F9EC19F0A0D841EC23F098D88FEC22F0B7
:101E8800E7D78AD841EC1AF09CEC11F041EC1AF033
:101E980066EC16F061D8F9EC19F0DED764D891EC4D
:101EA80011F0F9EC19F07DD83BEC22F013D05BD897
:101EB80091EC11F0F9EC19F074D83BEC22F00AD04F
:101EC8007750010ABCE0030AE9E0010AF0E0070ADA
:101ED800D8E0010A74A43AD04CD8A0EC09F0000E5E
:101EE80021EC1DF04BD8A0EC09F0060E21EC1DF0FA
:101EF8004AD8A0EC09F00C0E21EC1DF00001DD51D0
:101F080013E0960EF66EBE0EF76EA0EC09F0120EF8
:101F180021EC1DF0970EF66EBE0EF76EA0EC09F0E0
:101F2800180E21EC1DF012D0BD0EF66EBE0EF76E27
:101F3800A0EC09F0120E21EC1DF0BE0EF66EBE0EDE
:101F4800F76EA0EC09F0180E21EC1DF090EC18F0DB
:101F580056EC1DF074841200066E086A076A0A6A55
:101F6800140E096E140CDD51010ED8A4000EDD6F9D
:101F78001200830EF66EBE0EF76E1200840EF66E19
:101F8800BE0EF76E1200850EF66EBE0EF76E1200CC
:101F9800E60E056E290E1200440E056E1E0E066E24
:101FA8001200050E776EDDC005F0020C0001DC6F33
:101FB800DCC007F00A0C066A030E056E030C8CD011
:101FC8000FEC23F0000196D843E0EAC005F0EBC01F
:101FD80006F0ECC007F0EDC008F0640E096E0A6A5E
:101FE8000B6A0C6A41EC1CF005C022F006C023F015
:101FF80086D8ECEC1CF0086A640E76D827EC1FF043
:1020080098EC06F08FEC1FF00C5003EC0FF00B0E61
:102018004FEC19F0086A0A0E67D827EC1FF098EC05
:1020280006F08FEC1FF00C5003EC0FF0110E4FEC84
:1020380019F022C00CF023C00DF040EC12F08FEC28
:102048001FF00C5003EC0FF0170E4FEC19F015D0E1
:1020580056D8ECEC1CF0450E7FEC0CF00B0E4FEC58
:1020680019F0520E7FEC0CF0110E4FEC19F0520ED5
:102078007FEC0CF0170E4FEC19F056EC17F0010E30
:10208800086E900E076E0A6A096AF9EF19F0050ED4
:10209800776E30D80DE0000E056E020E066E5D0EEE
:1020A800076EBE0E086EA9EC20F04BEC21F002D0B2
:1020B800E9EC1FF057EC0EF09CEC11F041EC1AF033
:1020C800C60E056E1F0E066E41EC1AF066EC16F091
:1020D800B0EC0FF0F9EF19F07750040AD8E0010AD4
:1020E80001E16ED7030A1200076E22C005F023C073
:1020F80006F01200EA51EB11EC11ED111200040E7A
:102108000A6E030C3DD08BD841EC1AF06E0E056EAA
:10211800130EB0EC0FF0F9EC19F091EC11F0F9ECAA
:1021280019F082D837D07BD841EC1AF09CEC11F02A
:1021380041EC1AF066EC16F0B0EC0FF0F9EC19F07F
:1021480053EC13F00FEC23F025D09D2B1F0E9D654B
:1021580002D0010E9D6F91EC11F0F9EC19F054D8F2
:10216800CCEC1FF017D09D079D5102E11F0E9D6F0B
:1021780091EC11F0F9EC19F047D8CCEC1FF00AD02B
:102188007750010AC0E0030AE0E0010AECE0070A20
:10219800CAE0010A74A432D07F0EF66EBE0EF76E46
:1021A800A0EC09F0000E21EC1DF0800EF66EBE0EBC
:1021B800F76EA0EC09F0060E21EC1DF0810EF66E0C
:1021C800BE0EF76EA0EC09F00C0E21EC1DF009EC28
:1021D8000FF09D518FEC20F004EC22F06FEC0DF025
:1021E800120E21EC1DF00A0E096E00019D5104EC3F
:1021F80022F06FEC0DF0180E21EC1DF090EC18F0A9
:1022080056EC1DF074841200050E776E9DC012F016
:102218009EC013F09FC014F000019C5112000C0ED8
:10222800056E210E066E1200050E776E7484050C7D
:102238002FD08ED841EC1AF0F40E056E2B0EB0ECB0
:102248000FF0F9EC19F069D8F9EC19F053EC13F028
:102258000FEC23F027D07CD841EC1AF066EC16F08E
:10226800B0EC0FF0F9EC19F063D841EC1AF0EED7A6
:1022780064D853D8F9EC19F066D83BEC22F012D0A8
:102288005CD84BD8F9EC19F05ED83BEC22F00AD0B8
:102298007750010ACEE0030AEBE0010AF1E0070AF1
:1022A800DAE0010A74A433D08F0EF66EBE0EF76E14
:1022B800A0EC09F0000E21EC1DF0900EF66EBE0E9B
:1022C800F76EA0EC09F0060E21EC1DF0910EF66EEB
:1022D800BE0EF76EA0EC09F00C0E21EC1DF000010B
:1022E800D95108E02B0E0D6E48EC0EF0120E21ECC1
:1022F8001DF007D02D0E0D6E48EC0EF0120E21ECDD
:102308001DF00D6A48EC0EF0180E21EC1DF090EC53
:1023180018F056EC1DF074841200400E056E470E3E
:10232800066E070E086ED00E076E0A6A096AD00C90
:10233800400E056E470E066E1200D951010ED8A444
:10234800000ED96F1200050E776ED9C005F0060C85
:10235800380E056E220E066E12001250D96EDA6A19
:102368002B0EDF6E7FD0AEEC1FF00009D8A4120050
:10237800CC0E06EC20F0440E06EC20F01450D96E7A
:10238800DA6ADF6A1350D96EDA6A020EDF6ECD8020
:10239800020CAEEC1FF0CC0E06EC20F0BE0E06ECE4
:1023A80020F0196A1950900FD96EDA6A22EC20F0E1
:1023B800DF6E192A010E1964F5D700019151156EC7
:1023C80090511A6E15C01BF01BAE09D01A6C1B1E5B
:1023D800D8B01B2A1250D96EDA6A2D0EDF6E1A5049
:1023E8000F0B186EE80E1824F66EF76AB70EF72270
:1023F8000800F5CF18F01A3A1B3A0F0E1A161B50A0
:10240800F00B1A120F0E1B161A500A0DF3CF1AF002
:10241800F4CF1BF018501A26000E1B221AC00CF01D
:102428001BC00DF029D88FEC1FF00C50176E1AC086
:1024380005F01BC006F0A4EC0CF027EC1FF005C05B
:102448001AF006C01BF0050E176402D01A4A1B2AA0
:102458001150D96EDA6A1AC0DFFF1350D96EDA6AE2
:10246800DF6A000C1350D96EDA6ADF5001E17BD7BE
:10247800010A8FE0030A12000F6A0A0E0E6E0A0C98
:102488003CD083D841EC1AF0440E056E1E0EB0EC19
:102498000FF0F9EC19F091EC11F0F9EC19F053EC9C
:1024A80013F00FEC23F033D070D841EC1AF09CEC09
:1024B80011F041EC1AF066EC16F0B0EC0FF0F9EC04
:1024C80019F0EDD7782A020E786402D0010E786EE2
:1024D80091EC11F0F9EC19F053D83BEC22F017D03D
:1024E8007806785002E1020E786E91EC11F0F9EC62
:1024F80019F046D83BEC22F00AD07750010AC1E027
:10250800030AE0E0010AECE0070ACEE0010A74A43D
:102518002BD0730EF66EBE0EF76EA0EC09F0000E0F
:1025280021EC1DF0740EF66EBE0EF76EA0EC09F0ED
:10253800060E21EC1DF0750EF66EBE0EF76EA0ECC1
:1025480009F00C0E21EC1DF00A0E096E785004EC0F
:1025580022F06FEC0DF0120E21EC1DF00D6A48EC24
:102568000EF0180E21EC1DF090EC18F056EC1DF052
:102578007484780401E10ED0010E0001DE6F010CB5
:10258800050E776E78C005F0010C880E056E240ED6
:10259800066E12000001DE6B12003DD084D841ECBB
:1025A8001AF09C0E056E100EB0EC0FF0F9EC19F055
:1025B80091EC11F0F9EC19F072D837D074D841ECDD
:1025C8001AF09CEC11F041EC1AF066EC16F0B0EC45
:1025D8000FF0F9EC19F063D80FEC23F026D09F2BFD
:1025E800630E9F6501D09F6B91EC11F0F9EC19F027
:1025F80008EC11F0CCEC1FF018D09F079F2902E1DE
:10260800630E9F6F91EC11F0F9EC19F008EC11F0E2
:10261800CCEC1FF00AD07750010AC0E0030ADFE0D3
:10262800010AEBE0070ACAE0010A74A432D06B0E73
:10263800F66EBE0EF76EA0EC09F0000E21EC1DF050
:102648006C0EF66EBE0EF76EA0EC09F0060E21ECCD
:102658001DF06D0EF66EBE0EF76EA0EC09F00C0EB6
:1026680021EC1DF009EC0FF09F518FEC20F004ECE9
:1026780022F06FEC0DF0120E21EC1DF00A0E096E1F
:1026880000019F5104EC22F06FEC0DF0180E21ECC4
:102698001DF090EC18F056EC1DF074841200050E35
:1026A800776E7494050CA20E056E250E066E120048
:1026B80033D082D841EC1AF0380E056E220EB0ECF9
:1026C8000FF0F9EC19F091EC11F0F9EC19F053EC6A
:1026D80013F00FEC23F02AD06FD841EC1AF066EC17
:1026E80016F0B0EC0FF0F9EC19F09CEC11F041EC9D
:1026F8001AF0EDD756D891EC11F0F9EC19F057D83B
:102708003BEC22F013D04DD891EC11F0F9EC19F014
:102718004ED83BEC22F00AD07750010ACAE0030AEF
:10272800E9E0010AF0E0070AD7E0010A74A433D00F
:102738008B0EF66EBE0EF76EA0EC09F0000E21ECC3
:102748001DF08C0EF66EBE0EF76EA0EC09F0060EAC
:1027580021EC1DF08D0EF66EBE0EF76EA0EC09F0A2
:102768000C0E21EC1DF00001DA5108E02B0E0D6E65
:1027780048EC0EF0120E21EC1DF007D02D0E0D6E58
:1027880048EC0EF0120E21EC1DF00D6A48EC0EF02C
:10279800180E21EC1DF090EC18F056EC1DF0748426
:1027A8001200DA51010ED8A4000EDA6F1200050EDD
:1027B800776EDAC005F0050CB80E056E260E066EAB
:1027C800120042D081D841EC1AF0880E056E240E12
:1027D800B0EC0FF0F9EC19F091EC11F0F9EC19F0FC
:1027E80053EC13F00FEC23F039D06ED841EC1AF00B
:1027F8009CEC11F041EC1AF066EC16F0B0EC0FF01E
:10280800F9EC19F0EDD77A2A050E7A6402D0010E98
:102818007A6E91EC11F0F9EC19F0050E776E51D83B
:102828003BEC22F0DBEC1EF019D07A067A5002E17C
:10283800050E7A6E91EC11F0F9EC19F0050E776E31
:1028480040D83BEC22F0EED77750010ABBE0030AF0
:10285800DAE0010AEAE0070AC8E0010A74A42BD00A
:10286800770EF66EBE0EF76EA0EC09F0000E21ECA6
:102878001DF0780EF66EBE0EF76EA0EC09F0060E8F
:1028880021EC1DF0790EF66EBE0EF76EA0EC09F085
:102898000C0E21EC1DF00A0E096E7A5004EC22F0A1
:1028A8006FEC0DF0120E21EC1DF00D6A48EC0EF0E5
:1028B800180E21EC1DF090EC18F056EC1DF0748405
:1028C80012007AC005F0000CCA0E056E270E066EBF
:1028D800120040D07FD841EC1AF0CCEC0FF0B0ECED
:1028E8000FF0F9EC19F091EC11F0F9EC19F053EC48
:1028F80013F00FEC23F038D06DD841EC1AF09CECB3
:1029080011F041EC1AF066EC16F0B0EC0FF0F9ECAF
:1029180019F0EDD7DC2B080EDC6501D0DC6B91ECEF
:1029280011F0F9EC19F04ED83BEC22F050D88FECAE
:1029380022F01AD0DC07DC2902E1080EDC6F91ECEA
:1029480011F0F9EC19F03ED83BEC22F040D88FECAE
:1029580022F00AD07750010ABDE0030ADBE0010A41
:10296800E9E0070AC9E0010A74A426D0BDEC0FF01B
:10297800A0EC09F0000E21EC1DF0C2EC0FF0A0EC69
:1029880009F0060E21EC1DF0C7EC0FF0A0EC09F0E1
:102998000C0E21EC1DF00A0E096E0001DC5104EC4E
:1029A80022F06FEC0DF0120E21EC1DF00D6A48ECD0
:1029B8000EF0180E21EC1DF090EC18F056EC1DF0FE
:1029C80074841200050E776EDCC005F0030CDCC0C1
:1029D80007F00A0CDA0E056E280E066E12003BD0C0
:1029E8007DD841EC1AF0B80E056E260EB0EC0FF04B
:1029F800F9EC19F091EC11F0F9EC19F053EC13F033
:102A08000FEC23F032D06AD841EC1AF066EC16F0DD
:102A1800B0EC0FF0F9EC19F09CEC11F041EC1AF065
:102A2800EDD7DB2B010EDB6501D0DB6B91EC11F0F0
:102A3800F9EC19F04ED83BEC22F017D0DB07DB2974
:102A480002E1010EDB6F91EC11F0F9EC19F041D8BD
:102A58003BEC22F00AD07750010AC2E0030AE1E019
:102A6800010AECE0070ACFE0010A74A42CD0670E33
:102A7800F66EBE0EF76EA0EC09F0000E21EC1DF00C
:102A8800680EF66EBE0EF76EA0EC09F0060E21EC8D
:102A98001DF0690EF66EBE0EF76EA0EC09F00C0E76
:102AA80021EC1DF00A0E096E0001DB5104EC22F046
:102AB8006FEC0DF0120E21EC1DF00D6A48EC0EF0D3
:102AC800180E21EC1DF090EC18F056EC1DF07484F3
:102AD8001200050E776EDBC005F0040CE60E056EDD
:102AE800290E066E12000001D75117E0D76BFE6B56
:102AF80011D0FE515BD8DE50DE1006E1FE515ED8E3
:102B0800010EDE6EDD6A05D0FE5150D8DE06000EDD
:102B1800DD5AFE2B7950FE5DECE3FF6B43D0FF518D
:102B28004DD8DE04DE103CE1FF5150D8DECFFCF07A
:102B3800DDCFFDF0FF5152D8DE50DE1009E1FF5124
:102B480045D8DECF05F0DDCF06F041EC1AF01BD0FA
:102B5800FF5134D8DE6ADD6AFF5128D8DE50DE1016
:102B680012E16F687068FF5139D8DECF71F0DDCFA0
:102B780072F06F50712670507222FF5117D871C0D1
:102B8800DEFF72C0DDFF01D80BD005000001FA6E30
:102B9800FC51FD6EFD51FE6EF850FF6EFA501200AA
:102BA8000001FF2B7950FF5DBAE31200080D020EF9
:102BB800F324D96E010EF420DA6E1200080D060E09
:102BC800F324D96E010EF420DA6E1200080D000EFF
:102BD800F324D96E010EF420DA6E1200080D040EEB
:102BE800F324D96E010EF420DA6E120026D0F40E0A
:102BF800056E2B0E066E41EC1AF064D8B0EC0FF09F
:102C0800F9EC19F09CEC11F041EC1AF053EC13F0CC
:102C18000FEC23F01CD05AD891EC11F0F9EC19F014
:102C28005BD83BEC22F013D051D891EC11F0F9ECC1
:102C380019F052D83BEC22F00AD07750010AD7E0BD
:102C4800030AE9E0010AF0E0070AD1E0010A74A4E6
:102C580033D0870EF66EBE0EF76EA0EC09F0000EAC
:102C680021EC1DF0880EF66EBE0EF76EA0EC09F092
:102C7800060E21EC1DF0890EF66EBE0EF76EA0EC66
:102C880009F00C0E21EC1DF00001D85108E02B0EC4
:102C98000D6E48EC0EF0120E21EC1DF007D02D0E33
:102CA8000D6E48EC0EF0120E21EC1DF00D6A48EC8A
:102CB8000EF0180E21EC1DF090EC18F056EC1DF0FB
:102CC800748412007A0E056E150E1200D851010E8A
:102CD800D8A4000ED86F1200050E776ED8C005F084
:102CE800070C70EC1FF0EEEC22F0C2EC20F0ACEC1C
:102CF80022F09DEC23F02FEC23F0A1EC21F052EC14
:102D080023F077EC21F095EC18F0066A056A41EC9F
:102D180023F07A6E066A010E056E41EC23F0786E98
:102D2800780403E10001DE6B02D0B5EC0BF0066A13
:102D3800020E056E41EC23F00001DD6FDFEC0FF0B1
:102D480041EC23F0DAEC0FF08FEC22F0DBEC1EF014
:102D58009AEC23F04AEC23F0B9EC0BF0ABEC19F049
:102D6800920E056E070E066E086A280E076E2AD8A0
:102D7800F9EC19F0120E056E3B0E28D823D8F9ECA1
:102D880019F0066A040E056E41EC23F00001DB6FB2
:102D9800066A050E056E41EC23F00001DA6F066A3B
:102DA800060E056E41EC23F00001D96F066A070E86
:102DB800056E41EC23F00001D86F066A030E056E1C
:102DC80072EF23F00A6A140E096E140C066E086A74
:102DD800640E076E640C5FD00FEC23F009EC0FF063
:102DE800F3518FEC20F004EC22F0000912E166D8D0
:102DF800ECEC1CF05ED804EC22F003EC0FF00D0EA6
:102E08004FEC19F0B00E7FEC0CF0130E4FEC19F0EC
:102E18001DD054D8ECEC1CF009EC0FF0F3518FECFA
:102E280020F004EC22F003EC0FF00D0E4FEC19F03B
:102E380040D804EC22F003EC0FF0130E4FEC19F01D
:102E4800B00E7FEC0CF0190E4FEC19F02BD89AEC61
:102E58000CF0F9EF19F0050E776EE9EC1FF09CEC19
:102E680011F041EC1AF0DE0E056E2D0E066E41ECE7
:102E78001AF00001D95107E0780E056E170EB0EC74
:102E88000FF0F9EF19F066EC16F0B0EC0FF0F9EC72
:102E980019F057EF0EF07750040ADDE0010A9CE0C4
:102EA800030A1200060E776E400E056E470E066E78
:102EB80012000A0E096E0001F3511200010E0A6E8B
:102EC800030C1C6E216A226A236A246A256A61D867
:102ED80092EC23F0EC0E80EC23F01C5080EC23F0F5
:102EE80096EC23F0ED0E80EC23F0010E5FEC22F05F
:102EF8001D6E1E6A1F6A206A010E5FEC22F0216EA9
:102F0800226A236A246A000E5FEC22F0256E41D8FB
:102F18008EEC23F021C00DF022C00EF023C00FF07C
:102F28000C6A1DC010F01EC011F01FC012F020C0A6
:102F380013F011C013F010C012F0116A106A0C508F
:102F48001024146E0D501120156E0E501220166E9E
:102F58000F501320176E25501424186E2650152074
:102F6800196E275016201A6E285017201B6E050E52
:102F780005D0D8901B321A3219321832E82EF9D7F8
:102F880018C008F019C009F01AC00AF01BC00BF0ED
:102F98001200266A276A286A120018C01CF01D6AE7
:102FA8001E6A17341C3601E31D801C501F6E1F500B
:102FB80001E153D01BC01CF01D6A1E6A1A341C366E
:102FC80001E31D801C50246E245001E146D024509A
:102FD8007B0F1F2618C024F01B50241A800E2416BD
:102FE800178E1A8E000E1B16206A216A226A070E97
:102FF800236E16B02BD8D890183217321632D890C4
:1030080019361A361B36232EF4D7090E236E16B03E
:103018001DD8D890183217321632D8902232213261
:103028002032232EF4D720C005F021C006F022C09C
:1030380007F01FC008F024C009F086EC1AF005C09C
:1030480016F006C017F007C018F012001950202615
:103058001A5021221B5022221200166A176A186A77
:1030680012001A6E1C6A1D6A980E116E010E126EFD
:103078001A501126000E12221D501124D96E000E6E
:103088001220DA6E1C500708136E1050030D0F0E35
:10309800146EBE0E156EF3501426F45015221D50F2
:1030A8001426000E152214C0F6FF15C0F7FF0800FD
:1030B800F5CF16F0132A02D0D8901632132EFCD76B
:1030C800980E176E010E186E1A501726000E182249
:1030D8001D501724E16E000E1820E26EE750196E9D
:1030E800D89019341610DF6E1D2A020E1D64BCD745
:1030F8001B6A0D0E116EFC0EE82EFED7112EFCD7A2
:103108001B2A270E1B64F5D707D856EC1DF01C2A7E
:10311800070E1C64A8D7070C980E076E010E086EE0
:103128001200880E8FEC1EF008C0B4F009C0B5F08C
:103138008A0E8FEC1EF008C0B2F009C0B3F08C0EF6
:103148008FEC1EF008C0B0F009C0B1F08E0E8FEC05
:103158001EF008C0EEF009C0EFF0900E8FEC1EF0E4
:1031680008C0AEF009C0AFF0920E8FEC1EF008C098
:10317800ACF009C0ADF0940E8FEC1EF008C0AAF0B8
:1031880009C0ABF0960E8FEC1EF008C0A8F009C07D
:10319800A9F0980E8FEC1EF008C0A6F009C0A7F0A1
:1031A8009A0E8FEC1EF008C0A4F009C0A5F09C0E82
:1031B8008FEC1EF008C0A2F009C0A3F09E0E8FECA1
:1031C8001EF008C0A0F009C0A1F0CC0E076EF50EE5
:1031D8009EEC22F0B70E076EF40E9EEF22F027C089
:1031E80029F02A6A2B6A2634293601E32A802950D5
:1031F800336E335005E1256A266A276A286A120069
:10320800170E296E25C02AF026C02BF027C02CF0F7
:1032180029282D6E04D0D8902C322B322A322D2E0C
:10322800FAD72A502E6E268E276A25502F6E2650E2
:10323800306E2750316E326A8E0E335E33AE0CD04C
:103248003350800A8F0FD7E3D89032323132303280
:103258002F32333EF9D70CD0170E336407D0CBD7B3
:10326800D8902F3630363136323633063350F8E1BF
:103278002E5008E0321E311E301E2F6C000E3022F8
:10328800312232222FC025F030C026F031C027F07D
:1032980032C028F012001D6E1F6A206A980E146E44
:1032A800010E156E1D501426000E152220501424F0
:1032B800D96E000E1520DA6E1F500708166E1150D1
:1032C800050D12C017F013C018F0F3501726F4506C
:1032D800182220501726000E182217C0F6FF18C013
:1032E800F7FF0800F5CF19F0162A02D0D890193246
:1032F800162EFCD7980E1A6E010E1B6E1D501A263C
:10330800000E1B2220501A24E16E000E1B20E26ED4
:10331800E7501C6ED8901C341910DF6E202A040E5A
:103328002064BCD71E6A0D0E146EFC0EE82EFED764
:10333800142EFCD71E2A270E1E64F5D790EC18F021
:1033480056EC1DF01F2A070E1F64A7D7070C0F6E37
:103358008B848B920EC0BEF0350E0C6EBE0E0D6EB9
:1033680080EC22F0300E0C6EBE0E0D6E38EC23F0A1
:103378000FC007F0050EF9EC22F0076A110EF9EC00
:1033880022F00EC007F0120EF9EC22F0076A130EB5
:10339800F9EC22F0076A140EF9EC22F0076A150E10
:1033A800F9EC22F0076A160EF9EC22F0260E076EE9
:1033B800060EF9EC22F0080E076E000EF9EC22F06A
:1033C800030E076E010EF9EC22F0030E076E020ED3
:1033D800F9EC22F04F0E076E040EF9EC22F0076AA2
:1033E8001C0EF9EC22F075EF20F00550061001E1F3
:1033F80012000D6A1AD00D50EAEC15F00550DE18CF
:1034080013E10650DE1810E1F29E0D50DAEC15F0CB
:103418002AD80D50F2EC15F02BD80D50E2EC15F02F
:10342800DE6ADD6AF28E000C0D2A79500D5CE3E34A
:103438000F0E79600F0CF29E7950EAEC15F005C07A
:10344800DEFF06C0DDFF7950DAEC15F00CD87950B4
:10345800F2EC15F00DD87950E2EC15F0DE6ADD6A71
:10346800792AF28E000C07C0DEFF08C0DDFF1200CB
:1034780009C0DEFF0AC0DDFF12000D6A3FD00D5003
:10348800EAEC15F00550DE1838E10650DE1835E193
:10349800F29E0D50076E086A09680A6879500B6E2B
:1034A8000C6A09500B260A500C2207500B1803E12E
:1034B80008500C181FE07950076E086AD890073634
:1034C8000836D89007360836D89007360836F80EEA
:1034D8000724D96E000E0820DA6E0D50080D000E74
:1034E800F324E16E010EF420E26E070EDBCFE3FF5A
:1034F800E806FCE27906F28E12000D2A79500D5C7E
:10350800BEE31200085004E005500610071006E15B
:10351800056A066A076A1200082A2DD80A6A0B6A21
:10352800FE0E07142DD807E0F7D7082A052A000E43
:103538000622072220D80A6A0B6A075021D806E01B
:10354800F4D70806D89005360636073606BE03D0E7
:10355800020E0860F6D708A0069ED89008320850D8
:103568000712095001E0078E05C005F006C006F0F5
:1035780007C007F01200D890073206320532120051
:103588000C6E0A500B100C1012000D50D96EDA6A2E
:10359800060E61EC21F0DF6E0D50D96EDA6A0D501F
:1035A80022D81AEC23F023D8050E61EC21F01F0B6A
:1035B8001ED80C5018D81AEC23F01ED8040E61EC53
:1035C80021F03F0B19D80B500ED81AEC23F019D85C
:1035D800030E61EC21F0070B14D80A5004D81AEC3A
:1035E80023F0DF6E1200E16EE26AE7501200DF6E30
:1035F8000C50D96EDA6A1200DF6E0B50D96EDA6A97
:103608001200DF6E0A50D96EDA6A12000600D9CFAE
:1036180003F0DACF04F0F2BAF2A403D06AEC23F094
:1036280030D0F2B8F2A211D0F292010EF1AC000E35
:10363800FF0A026E023A02460246F1500218BF0B18
:103648000218F16EC7EC1BF01CD09DB09EA008D0EC
:103658009E903C0ECF6EB00ECE6E25EC23F011D0AE
:10366800A0B2A1A208D0A192F00EB36E600EB26E05
:1036780089EC1BF006D0F2BC9DAA03D09EBA3EECA2
:1036880020F004C0DAFF03C0D9FF7B921100076A5B
:10369800990E0724E6EC1CF00724DFEC1CF0072A3F
:1036A8001E0E0764F5D7040E0001D1650FD025D88A
:1036B80007E1D12B1F0ED165010CD26BD16B000C29
:1036C8000101B76B0001D16BD22B010C16D8050D87
:1036D800150E056EB80E066EF3500526F450062238
:1036E800D1510526000E062205C0F6FF06C0F7FFD9
:1036F8000800F5CFB7F1D12B010C000ED225D96EF9
:10370800DA6A020EDA22DF5012000001C7510AE01D
:10371800C12B1E0EC16103D0800E8C1A03D0C16B61
:10372800C76B8C9EDB51D8B41200CC51D8B41200B0
:10373800FB6BBF510BE1C02B140EC06103D0800E90
:103748008C1A04D0C06B010EBF6F8C9EBF0502E1BE
:10375800B64BB72B2D0EB65D010EB75904E3B66B09
:10376800B76B020EBF6F020EBF19D8A41200C02B90
:10377800140EC06103D0800E8C1A800CC06BBF6B16
:10378800CC6B8C9E12000001DE51D8B41200CA2BFB
:10379800080ECA1920E1CA6B1ED0360E0101A76FA8
:1037A800A86F360C240E28D0240E0101A76FA86F2D
:1037B800240C240E0101A76FA86B12000101A76B4E
:1037C800A86B1200120EF6D7120E0101A76FA86F90
:1037D800120C120E11D0CA51E0E0010AE3E0030A0C
:1037E800E3E0010AE6E0070AE9E0010AEBE0030A80
:1037F800EBE0010AEEE012000101A76F360EA86F98
:10380800360C0C0EF66E470EF76E000EF86E00EED4
:10381800F4F010EE08F00900F5CFEEFFE550E150A6
:10382800FAE1460EF66E470EF76E000EF86E00EEE1
:1038380075F010EE04F00900F5CFEEFFE550E15009
:10384800FAE102EE00F0640EEE6AE806FDE101EE30
:1038580000F0B80EEE6AE806FDE100EE80F0740EA6
:10386800EE6AE806FDE1746A7A6A796A7B907B926F
:10387800000EF86E000168EF1EF00D6A0E6A0F6AFE
:10388800106A09500A100B100C1029E0010E116E75
:1038980006D0D89009360A360B360C36112A0CAEEB
:1038A800F8D7D8900D360E360F3610360950055C0D
:1038B8000A5006580B5007580C50085809E309508D
:1038C800055E0A50065A0B50075A0C50085A0D80CC
:1038D800D8900C320B320A320932112EE2D70DC0C1
:1038E80005F00EC006F00FC007F010C008F0120077
:1038F800146A166A156AD80E106EB70E116E145037
:103908001026000E112216501026000E112210C08B
:10391800F6FF11C0F7FF0800F5CF12F0980E152436
:103928003BEC1EF01250DF16142A070E146401D067
:10393800146A152A1F0E1564DED790EC18F056ECA1
:103948001DF0136A0D0E106EFC0EE82EFED7102E19
:10395800FCD7132A630E1364F5D7162A070E1664CC
:10396800C9D7070C640E136E126A146A990E1424D0
:1039780029D8142420D8142A1F0E1464F7D701015B
:10398800B76B90EC18F056EC1DF0116A08D00D0ECC
:10399800106EFC0EE82EFED7102EFCD7112A1350FD
:1039A800115CF5E30A0E136401D0135E122A1F0E90
:1039B8001264DBD71F0CE16EE26A010EE222DFCF50
:1039C800E7FF1200D96EDA6A010EDA22980E1200A9
:1039D8000E6E010E0D6E106A0F6A0A50070DB50EB5
:1039E8000B6EB70E0C6EF3500B26F4500C221050D1
:1039F8000B26000E0C220BC0F6FF0CC0F7FF0800C8
:103A0800F5500D1407E00FC005F00E5010244DECD2
:103A180022F006D00FC005F00E501024DDEC21F086
:103A2800D8900D360F2A070E0F64D7D7010E0D6EEA
:103A3800102A060E1064D0D7060C136E010E126EF3
:103A4800156A146A0D50050D0EC010F00FC011F064
:103A5800F3501026F450112215501026000E112292
:103A680010C0F6FF11C0F7FF0800F550121407E068
:103A780014C005F0135015244DEC22F006D014C0E4
:103A880005F013501524DDEC21F0D8901236142AD5
:103A9800070E1464D7D7010E126E152A040E15648A
:103AA800D0D7040C0F6A8C900E6A030E096E0A6A4E
:103AB8000E50095E000E0A5AD89009360A36D89078
:103AC80009360A36D89009360A3607C00BF008C0FE
:103AD8000CF009500B260A500C220F500B24D96EFB
:103AE800000E0C20DA6EDF500D6E0F2808EC21F066
:103AF8000D5008EC21F00E2A030E0E64D6D78C80E8
:103B08000F2A070E0F64CFD7070CDFC0C9F028D8DB
:103B1800BBEC1DF0E20E0A6EE30E0B6EE40E0C6EAB
:103B2800E50E0D6EC9EC1AF00001C951DF1901E06C
:103B38007480030EDF1902E1010EFB6F060EE165CA
:103B4800060C180EE161180CE051D8A41200DF51E0
:103B5800D8A41200FB51D8B41200010ECC6F010C8E
:103B6800E10E0A6EE00E0B6EDF0E0C6E12000C50AA
:103B780032EC21F061EC21F0DF6E0C50D96EDA6A7C
:103B88000C50F7EC1AF01AEC23F016D8010E61EC81
:103B980021F012D80B50F7EC1AF01AEC23F011D8D8
:103BA800020E61EC21F03F0B0CD80A50F7EC1AF02A
:103BB8001AEC23F0DF6E1200DF6E0B50D96EDA6A52
:103BC8001200DF6E0A50D96EDA6A1200640E136EA4
:103BD800126A1F0E146E970E1424D96EDA6A010E3B
:103BE800DA22980E1424DFEC1CF014061450F3E1CA
:103BF8000101986B90EC18F056EC1DF0116A08D092
:103C08000D0E106EFC0EE82EFED7102EFCD7112AD2
:103C18001350115CF5E30A0E136401D0135E122AE7
:103C28001F0E1264D6D71F0C116A1F0E126E136A6C
:103C3800980E11241CD8DF6A112A980E122417D85E
:103C4800DF6A120690EC18F056EC1DF0146A0D0E9F
:103C5800106EFC0EE82EFED7102EFCD7142A1D0E6F
:103C68001464F5D7132A0F0E1364E2D70F0CD96E1C
:103C7800DA6A010EDA221200F4C005F0F5C006F087
:103C8800F6C007F0F7C008F06D0E096E4E0E0A6E0A
:103C9800C60E0B6E410E0C6E01EC1FF005C0F4F061
:103CA80006C0F5F007C0F6F008C0F7F0390E0001BD
:103CB800F427300EF523000EF623F723F651116E84
:103CC8007F0EF715126E1200820E736EDE0EE82E4E
:103CD800FED7732EFCD775EC16F00FEC23F000011D
:103CE800DE6B010EDE6FF29E66EC16F0EAEC16F063
:103CF800E6EC16F0F9EC19F0980E056E3E0E066E1D
:103D0800086A076A0A6A010E096EF9EC19F0F28E60
:103D180077EC15F0FDD70C6E0F6A106A92EC23F061
:103D2800EC0E80EC23F00C5080EC23F096EC23F0A2
:103D3800ED0E80EC23F0010E5FEC22F00F6E106A9E
:103D4800000E5FEC22F00D6E0E6A8EEC23F00D5023
:103D58000B6E0A6A0F500A10086E10500B10096E8D
:103D680012008E0E156E06D0D89010320F320E3219
:103D78000D32152A116A126A136A1050146E115006
:103D8800121013101410F0E10DC005F00EC006F06B
:103D98000FC007F015C008F0000E096E86EC1AF087
:103DA80005C00DF006C00EF007C00FF0120019D0C4
:103DB800DD0E756EBD0E766E1200AB0E756EBD0E05
:103DC800766E1200790E756EBD0E766E1200470E75
:103DD800756EBD0E766E1200150E756EBD0E766E82
:103DE80012007A50010AE4E0030AE7E0010AEAE077
:103DF800070AEDE0010AF0E012000D6A0E6A0F6A88
:103E0800106A05A008D009500D260A500E220B5042
:103E18000F220C501022D89009360A360B360C3671
:103E2800D8900832073206320532055006100710BE
:103E38000810E7E10DC005F00EC006F00FC007F04E
:103E480010C008F012000A6A0B6A075008101BE03D
:103E5800010E096E04D0D89007360836092A08AE34
:103E6800FAD7D8900A360B360750055C0850065822
:103E780005E30750055E0850065A0A80D8900832B4
:103E88000732092EEED70AC005F00BC006F0120063
:103E980081B202D0010E0BD081B402D0020E07D03D
:103EA80081B602D0030E03D081B803D0040E056E8C
:103EB80001D0056A05500EE0290EC661290CC62BF3
:103EC800280EC619D8A4120005C077F0C66B010EDB
:103ED800C76F010CC66B12008B6A180E946E8A6A43
:103EE8001F0E936EF19E8C6A956A896A010E926E16
:103EF800C30EC216C150F00B0E09C16ECF0EC1160B
:103F0800C050F80B0209C06EC08EC280F18CF292CC
:103F1800F288828012000E500F1017E0010E106E0A
:103F280004D0D8900E360F36102A0FAEFAD70E509E
:103F38000C5C0F500D5804E30E500C5E0F500D5AD8
:103F4800D8900F320E32102EF2D70CC00CF00DC0E4
:103F58000DF0120082909490070E056E7D0EE82EEB
:103F6800FED7052EFCD700F082809480C80E00D0C2
:103F7800E82EFDD7000E82B0010E066E060E056E05
:103F8800800EE82EFED7052EFCD700D00650120072
:103F9800156E1550F1EC21F0106E030EBAEC22F0FC
:103FA8001250F1EC21F0106E040EBAEC22F013500E
:103FB800F1EC21F0106E050EBAEC22F01450F1EC81
:103FC80021F0106E060EBAEF22F040EC1EF01150F0
:103FD800030B176E1750020D0D0EF324F66EB80E74
:103FE800F420F76E0900F5CFBCF00A00F5CFBDF05C
:103FF8000500FA6EBC51FD6EBD51FE6EF850FF6EA5
:10400800FA501200086E0A6A0AC006F008C007F0E3
:10401800062A02D0D8900732062EFCD70750096E20
:10402800010E0916095029EC22F00A2A070E0A6423
:10403800EBD7D20E00D0E82EFDD71200076A086A27
:10404800C8EC22F000090CE008C005F0010E066E6D
:10405800052A02D0D8900636052EFCD7065007123E
:10406800F00E00D0E82EFDD7082A070E0864E8D71E
:1040780007501200ABA202D0AB98AB88780E0001B3
:10408800C3250FD8AECFDFFFC32B0F0EC36501D0FA
:10409800C36BCB2BCB05016E0F0E01640F0CCB6BE2
:1040A8001200D96EDA6A010EDA221200056E0001DA
:1040B800C451FDE09DB805D09EA8FED705C0ADFF50
:1040C80012009D98880EC525D96EDA6A010EDA228B
:1040D80005C0DFFFC52B0F0EC56501D0C56BC40732
:1040E80012008B94E20E8CEC21F08B84700E076E1C
:1040F800070EF9EC22F08B920B0E076E000EF9EC0E
:1041080022F08B82C00E00D000D0E82EFCD700D061
:1041180000D000D01200066E086A055014E0010EA7
:10412800076E03D0D8900536072A05AEFBD7D8907E
:1041380008360550065C03E30550065E0880D890F3
:104148000532072EF4D70850120005D012D809C03E
:10415800DFFF054A062A07C0F6FF08C0F7FF074A2F
:10416800082A0800F5CF09F00950F0E102D8DF6A03
:10417800000C05C0D9FF06C0DAFF12008C80010EC2
:10418800076E0C0E8FEC22F0076A090E8FEC22F0F6
:10419800070E076E0B0E8FEC22F0020E076E0A0E4A
:1041A8008FEC22F0076A0F0E8FEF22F0146E135077
:1041B800F1EC21F0106E000EBAEC22F01250F1EC86
:1041C80021F0106E010EBAEC22F01450F1EC21F03F
:1041D8003F0B106E020EBAEF22F00A6E8B940A5053
:1041E8008CEC21F00B6A0BD007C0F6FF08C0F7FF74
:1041F8000800F5508CEC21F0074A082A0B2A0950D0
:104208000B5CF2E38B841200056E066A05AE02D0E1
:104218008C8401D08C948C8200F000F000F000F0C7
:1042280000F000F000F08C92D8900536062A070EB0
:104238000664ECD7070C096E8B9409508CEC21F0BE
:104248000A6A07D007500A2409D88CEC21F0DF6EDF
:104258000A2A08500A5CF6E38B841200D96EDA6ADF
:10426800000C0001F95103E1460EF85D05E3030E69
:10427800076E0A0E8FEF22F0F95108E1330EF85D50
:10428800D8B01200076A0A0E8FEC22F0120010D084
:1042980090EC18F056EC1DF0116A0D0E106EFC0E25
:1042A800E82EFED7102EFCD7112A3B0E1164F5D745
:1042B8004BEC1BF00009ECE11200086E92EC23F0C5
:1042C800D00E80EC23F0085080EC23F096EC23F01D
:1042D800D10E80EC23F0000E5FEC22F0096E8EEC1C
:1042E80023F009501200948C948EAC84AC98AC8A5C
:1042F800AB88AB8EB886040EB06E100EAF6E0001A0
:10430800C56B100EC46FC36BC26BCB6B9D8A12005A
:10431800056E066A05AE02D08C8801D08C98D890BC
:1043280005368C8A010E83A6000E05128C9A062A81
:10433800070E0664EFD705501200AEEC1FF0000917
:10434800D8A41200CC0E06EC20F04E0E06EC20F09D
:10435800000E06EC20F0000E06EC20F07F0E06EFB3
:1043680020F0FA0E65EC17F008C02DF009C02EF009
:104378000AC02FF00BC030F02DC029F02EC02AF053
:104388002FC02BF030C02CF01200F70E65EC17F0A0
:1043980008C02DF009C02EF00AC02FF00BC030F075
:1043A8002DC029F02EC02AF02FC02BF030C02CF0E1
:1043B8001200096E05C006F0010E076E062A02D02B
:1043C800D8900736062EFCD7071C086E980E0924CD
:1043D8003BEC1EF00850DF1612000F6E0A0E096E35
:1043E8000F5004EC22F00D6E0F0E0D160A0E056E1E
:1043F8000F508FEC20F00E6E0E38F00B0D101200DF
:104408000A6E080E0B6E0C6AD8900A340C340C6EC7
:10441800D8900A3609500C5C02E309500C5E0B2E4A
:10442800F3D70C501200CB51FEE0780EC22555ECA4
:1044380020F0DF50056EC22B0F0EC26501D0C26B93
:104448009D9ACB079D8A05501200056E8290949024
:10445800050406E1060EE82EFED700D0828094807F
:10446800D20E00D0E82EFDD7828094801200066E0E
:10447800A6B2FED706C0A9FF05C0A8FFA69EA69CA7
:10448800A684F29E550EA76EAA0EA76EA682F28E7D
:10449800AA0C086E05C006F0010E076E062A02D0A7
:1044A800D8900736062EFCD7980E08243BEC1EF051
:1044B8000750DF121200066E62EC23F0C58662EC2C
:1044C80023F0C9CF07F062EC23F0065002E1C58A59
:1044D80001D0C59AC58807501200C282C2B2FED761
:1044E800C450066E056AC3500524F86F000E0620F6
:1044F800F96F00F000F0120007D82A0EF1EC20F056
:1045080003D8300EF1EF20F00CC007F00DC008F012
:10451800050E096E050C086E8C90096A085008ECA7
:1045280021F0075008EC21F0092A030E0964F6D798
:104538008C80030C086E92EC23F0EC0E80EC23F0D8
:10454800085080EC23F0075080EC23F08EEF23F026
:10455800CD903C0ECF6EB00ECE6E9D80B192B180E4
:10456800A082F00EB36E600EB26E600C116E92EC0B
:1045780023F0D00E80EC23F0115080EC23F0105083
:1045880080EC23F08EEF23F082909490030EE82EB7
:10459800FED700F082809480140EE82EFED782B0F9
:1045A800010C000C0BC007F0BEC008F0610E1FEC38
:1045B80021F0400E076E070EF9EF22F0076E8B947C
:1045C80007508CEC21F0000E8CEC21F0086E8B84E7
:1045D80008501200180E9412280EC66EC76A630E91
:1045E800C86EC584C5A41200FDD7086E8B94085008
:1045F80020098CEC21F007508CEC21F08B84120000
:104608005AEC23F00A6E0ABC010C79EC23F000097D
:10461800D8B4010C000C056A980E05243BEC1EF07A
:10462800DF6A052A200E0564F7D7200C066E06C03F
:1046380005F00F0E051606380F0B0A0DF35005246A
:1046480012000001F12B950EF165950CF16B010E2E
:10465800F06FCD90010C106A0E0EBAEC22F0080E25
:10466800106E0F0EBAEF22F00CC007F00DC008F064
:10467800050E096E2B0EF1EF20F0A6B2FED705C08D
:10468800A9FFA69EA69CA680A8501200958695987C
:1046980094929494959A958C8B841200C70ED56E3B
:1046A800F28AD76A3D0ED66E796A12008B94FF0E95
:1046B8008CEC21F0076E8B8407501200C7B4FED72C
:1046C800C5CF05F01F0E0516F9E11F0CF294D76A45
:1046D8003D0ED66E010E0001D76F010C05C0F4F037
:1046E80006C0F5F0F66BF76B1200170EE2EC22F03D
:1046F800096E0950010B1200066E62EC23F006C029
:10470800C9FF120001000000F4012B01C36BC26B4A
:10471800CB6B120062EC23F0C584120062EC23F02C
:10472800C580120062EC23F0C5821200959E8C9E13
:104738001200F28EF28C1200040E776E040CDDBDAE
:02474800050169
:10B7B4000000000000000000087C4E4F4E7C08048E
:10B7C40026473F070604203E7F7F3F3E207E121E11
:10B7D40000701000FDBFEF7FFBDFF7FEFDBFEF7FC2
:10B7E400FBDFF7FE0001010202030404050606075D
:10B7F400070809094A616E2031322032303138009D
:10B8040031343A30343A353000F8386C39D43B307E
:10B814003C00000000004551453E006B6F6B3E004C
:10B824003E7C3E1C003C7E3C1800367F36300000D7
:10B834000000000000000000000000000000000004
:10B8440000000000000000000000000000000000F4
:10B8540000000000000000000000000000000000E4
:10B8640000000000000000000000000000000000D4
:10B8740000000000000000000000000000000000C4
:10B8840000000000000036360000002436000000EE
:10B894002424000000240000000000000000001226
:10B8A40000000000121200000012360000001236E0
:10B8B40000000000000000005F0000000700070017
:10B8C400147F147F14242A7F2A12231308646236F7
:10B8D400495620500008070300001C224100004183
:10B8E400221C002A1C7F1C2A08083E0808008070BD
:10B8F40030000808080808606000000020100804F0
:10B90400023E5149453E00427F4000426151494652
:10B914002141454B311814127F1027454545393CC8
:10B924004A494930017109050336494949360649EE
:10B9340049291E0000363600004034000000081477
:10B944002241141414141400412214080201590948
:10B95400063E415D594E7C1211127C7F494949369D
:10B964003E414141227F4141413E7F494949417F16
:10B97400090909013E414151727F0808087F0041CD
:10B984007F41002040413F017F081422417F404015
:10B9940040407F0204027F7F0408107F3E41414102
:10B9A4003E7F090909063E4151215E7F0919294656
:10B9B400264949493201017F01013F4040403F1F70
:10B9C4002040201F3F4038403F63140814630304A1
:10B9D4007804036151494543007F41410002040852
:10B9E40010200041417F0004020102044040404015
:10B9F40040000307080020545478407F284444380A
:10BA04003844444428384444287F3854545418084B
:10BA14007E09020018A4A49C787F080404780044DA
:10BA24007D40002040403D007F1028440000417FBD
:10BA340040007C047804787C080404783844444446
:10BA440038FC1824241818242418FC7C0404080046
:10BA5400485454542400043F44203C4040207C1C5F
:10BA64002040201C3C4030403C44281028444C904A
:10BA740090907C4464544C440008364100000077A4
:10BA84000000004136080002010204020000000028
:10BA940000000000000000000000000000000000A2
:10BAA40000000000000000000000400040004000D2
:10BAB4000000000000000000003E55554122000037
:10BAC4000000000000000000000000000000000072
:10BAD4000000000000000000000000000000000062
:10BAE4000000000000000000000000000000000052
:10BAF40000000000000000000000000C1E1E0C00EE
:10BB04000000000000000000000000000000000031
:10BB14000000000000000000000000000000000021
:10BB24000000000000000000000000000000000011
:10BB34000000000000000000000000000000000001
:10BB4400000000000000000000007E02020203006A
:10BB54000000000000000000007E4B4A4B42000041
:10BB64000000003E49494922000000000000000096
:10BB740000000000000000000000000000417E41C1
:10BB840000000609090644445F444400417F410023
:10BB940000447D4000007C04040600000000000016
:10BBA4000000000000000000003855545518000043
:10BBB400000000385454544422142A1408204040ED
:10BBC4003D000000000000000000000000457C4132
:10BBD400007E1111117E7F494949317F4949493617
:10BBE4007F01010101C07E417EC07F4949494177FF
:10BBF400087F087722414949367F1008047F7E1167
:10BC040009057E7F08142241407E01017F7F020CDA
:10BC1400027F7F0808087F3E4141413E7F010101C8
:10BC24007F7F090909063E4141412201017F01014B
:10BC3400274848483F0E117F110E63140814637F90
:10BC440040407FC0070808087F7F407E407F7F40D8
:10BC54007E40FF017F4444387F4438007F7F444462
:10BC64004438224149493E7F083E413E462919094C
:10BC74007F20545454783C4A4A4A317C54545428C2
:10BC8400007C040404C078447CC038545454186CB8
:10BC9400107C106C28445454287C2010087C7C218F
:10BCA40011097C7C10102844403804047C7C081062
:10BCB400087C7C1010107C38444444387C04040410
:10BCC4007C7C14141408384444442804047C04047C
:10BCD4004C5050503C18247C2418006C10106C7C80
:10BCE40040407CC00C1010107C7C4078407C7C4030
:10BCF4007840FC047C5050207C5020007C007C5018
:10BD0400502044545454387C103844384854341423
:10BD14007C3E41417F3E00427F7F406273594F46E3
:10BD24002263497F361814127F7F2F45457D393EA3
:10BD340049497B320371790F073649497F362649D1
:10BD4400497F3E3E7F417F3E00427F7F4062735980
:10BD54004F462263497F361814127F7F2F6F457D2B
:10BD6400393E7F497B320373790F07367F497F362B
:10BD7400266F497F3E7F41417F7F00017F7F0071B5
:10BD840051515F5F4149497F7F1F10107F7F4F49A9
:10BD94004979797F494979790101017F7F7F49494F
:10BDA4007F7F4F49497F7F7F7F417F7F00017F7F76
:10BDB400007373515F5F636B497F7F1F1F107F7F29
:10BDC4006F6F4979797F7F497B7B0373790F077F95
:10BDD4007F497F7F6F6F497F7F7F7F417F7F000136
:10BDE4007F7F006171594F474149497F7F1F1F1071
:10BDF4007F7F4F4F4979797F7F4979790171790F35
:10BE0400077F7F497F7F5F5F517F7F0000007C4415
:10BE14007C007C0074545C54547C1C107C5C547412
:10BE24007C547404047C7C547C5C547C197927090C
:10BE3400041979270904436C6F636B2076332E3021
:10BE44002E30206279204976616E5F66642030333B
:10BE54002E30312E3230313800ECEC2EF0F22EF14F
:10BE6400F22E00C7E23A00D0EA3A00C4ED3A00D21A
:10BE7400EF3A00D8F03A00CCF13A00D7F13A00DFBB
:10BE8400F13A00C0F23A00D2313A00D2323A00D14B
:10BE9400E100C0E200C6E200CAE200CDE400CFED5A
:10BEA40000CBEF00C1F000C2F000C3F000D1F000FD
:10BEB400D2F000D7F000CBF100CFF100C2F200CBFA
:0CBEC400F200CFF200D7F200D1F700002E
:020000040020DA
:080000000109070903000000DB
:020000040030CA
:0E000000FF061E1EFF8181FF0FC00FE00F40A4
:0200000400F00A
:080000000502010201010101EA
:00000001FF
