:020000040000FA
:0400000007EF00F016
:100008007B8270ED23F057EF20F00001A1510DE045
:100018003DEC2BF0176E100E9B25D96EDA6A020E96
:10002800DA2217C0DFFF9B2B1200240E02011019E1
:1000380001E1A7D3D3D337EC04F00001826F0201AA
:100048003DEC04F00001816FF5510CE0825105E1AF
:100058002BEC10F0D9EC29F009D034EC10F0D9ECE5
:1000680029F004D02FEC10F0D9EC29F04F0E3EEC1B
:1000780029F04B0E3EEC29F00D0E3EEC29F00A0E4D
:100088003EEC29F0ABD3B2DB19041A1005E0AEDB65
:10009800020E19181A101EE11251D00F786E78C08E
:1000A80005F0010E61EC2BF053EC2CF0780403E121
:1000B8000001B86B01D0CDDBA06B4F0E3EEC29F0F0
:1000C8004B0E3EEC29F00D0E3EEC29F00A0E3EECEC
:1000D80029F084D3450E3EEC29F0520E3EEC29F06F
:1000E8000D0E3EEC29F00A0E3EEC29F077D3010EF6
:1000F800A2DB61EC2BF0BEEC27F022D0020E9BDBDA
:1001080061EC2BF0F8D7030E96DB61EC2BF0F3D7FC
:10011800040E91DB61EC2BF0EED7050E8CDB61EC65
:100128002BF0E9D763DB1A500BE11950010ADFE025
:10013800030AE4E0010AE7E0070AEAE0010AEDE061
:10014800D00E176E18680201125163DB1ABE05D073
:100158001A5007E1060E195C04E248DB19501A1020
:100168000DE1450E3EEC29F0520E3EEC29F00D0E45
:100178003EEC29F00A0E3EEC29F030D34F0E3EEC4F
:1001880029F04B0E3EEC29F00D0E3EEC29F00A0E3C
:100198003EEC29F023D36DDB126E16510A0DF35095
:1001A8001725F00F136E18510A0DF3501925F00F8B
:1001B800146E59DBCDEC28F04F0E3EEC29F04B0EB7
:1001C8003EEC29F00D0E3EEC29F00A0E3EEC29F02B
:1001D80005D30CDB19501A1004E008DB19041A10B7
:1001E8000CE11251D00F0001B76F53DBB66FB7C0E7
:1001F80005F0020E61EC2BF00DD0450E3EEC29F017
:10020800520E3EEC29F00D0E3EEC29F00A0E3EECA3
:1002180029F0E4D20001B75109E1B6C005F0030E98
:1002280061EC2BF079EC16F0A3EC2BF04F0E3EECC2
:1002380029F04B0E3EEC29F00D0E3EEC29F00A0E8B
:100248003EEC29F0CBD2D2DA19501A1004E0CEDAFB
:1002580019041A100AE11251D00F0001B56FB5C088
:1002680005F0040E61EC2BF00DD0450E3EEC29F0A4
:10027800520E3EEC29F00D0E3EEC29F00A0E3EEC33
:1002880029F0ACD24F0E3EEC29F04B0E3EEC29F093
:100298000D0E3EEC29F00A0E3EEC29F09FD2A6DAAC
:1002A80019501A1004E0A2DA19041A101BE1BEDA78
:1002B800B0DA19501A1005E0B9DAABDA19041A10D5
:1002C80011E11251D00F0001B46FE3DAB36FB4C07B
:1002D80005F0050E61EC2BF0B3C005F0060E61ECDD
:1002E8002BF00DD0450E3EEC29F0520E3EEC29F0D5
:1002F8000D0E3EEC29F00A0E3EEC29F06FD24F0E9F
:100308003EEC29F04B0E3EEC29F00D0E3EEC29F0A8
:100318000A0E3EEC29F062D269DA19501A1004E08C
:1003280065DA19041A100AE11251D00F0001B26FF0
:10033800B2C005F0070E61EC2BF00DD0450E3EEC77
:1003480029F0520E3EEC29F00D0E3EEC29F00A0E73
:100358003EEC29F043D24F0E3EEC29F04B0E3EEC1A
:1003680029F00D0E3EEC29F00A0E3EEC29F036D2AB
:100378003DDA19501A1004E039DA19041A100AE1A2
:100388001251D00F0001B16FB1C005F0080E61EC39
:100398002BF00DD0450E3EEC29F0520E3EEC29F024
:1003A8000D0E3EEC29F00A0E3EEC29F017D24F0E46
:1003B8003EEC29F04B0E3EEC29F00D0E3EEC29F0F8
:1003C8000A0E3EEC29F00AD211DA19041A1005E0D7
:1003D8000DDA020E19181A100AE11251D00F000195
:1003E800FE6FFEC005F0090E61EC2BF00DD0450E36
:1003F8003EEC29F0520E3EEC29F00D0E3EEC29F0B1
:100408000A0E3EEC29F0EAD14F0E3EEC29F04B0ED5
:100418003EEC29F00D0E3EEC29F00A0E3EEC29F0D8
:10042800DDD1E4D919041A1004E0E0D919501A10E2
:100438000AE11251D00F0001B06FB0C005F00A0EEA
:1004480061EC2BF00DD0450E3EEC29F0520E3EEC3F
:1004580029F00D0E3EEC29F00A0E3EEC29F0BED133
:100468004F0E3EEC29F04B0E3EEC29F00D0E3EEC03
:1004780029F00A0E3EEC29F0B1D14F0E3EEC29F0DE
:100488004B0E3EEC29F00D0E3EEC29F00A0E3EEC28
:1004980029F0330E186EBB0E176EE00EE82EFED74D
:1004A800172EFCD7182EFAD7330E186EBB0E176E00
:1004B800E00EE82EFED7172EFCD7182EFAD7330EEB
:1004C800186EBB0E176EE00EE82EFED7172EFCD75F
:1004D800182EFAD7330E186EBB0E176EE00EE82EE4
:1004E800FED7172EFCD7182EFAD7FF0077D1740E37
:1004F800121902E1030E04D0700E121903E1020E64
:10050800776E0DD0450E3EEC29F0520E3EEC29F0E8
:100518000D0E3EEC29F00A0E3EEC29F05FD14F0E8D
:100528003EEC29F04B0E3EEC29F00D0E3EEC29F086
:100538000A0E3EEC29F052D1610E121920E11B6A15
:100548000BD0130E1B24D96EDA6A020EDA22960E2D
:100558001B24ABEC14F01B2AFD0E176E1868100E46
:10056800056E020E066EB4EC2AF0175005261850D8
:1005780006221B50055C000E06581CE3E2D7750ED8
:10058800121907E1100E096E020E0A6E11EC14F032
:1005980011D06F0E12190EE174924F0E3EEC29F035
:1005A8004B0E3EEC29F00D0E3EEC29F00A0E3EEC07
:1005B80029F014D14F0E3EEC29F04B0E3EEC29F0F9
:1005C8000D0E3EEC29F00A0E3EEC29F0EEC09DF02F
:1005D80074820001B86B53D965EC22F055D965ECEB
:1005E80022F05CD98DEC29F0D0EC15F01DEC22F04E
:1005F80030D9F4D0086A640E30D90AEC28F001D951
:1006080072EC28F00C50300F3EEC29F0086A0A0E04
:1006180024D90AEC28F0F5D872EC28F00C50300FE9
:100628003EEC29F0FAC00CF0FBC00DF038EC0BF0F2
:1006380072EC28F00C50300F3EEC29F05F0E3EECC7
:1006480029F092D01B6A0B0E1B6401D00AD0020E4F
:100658001B24F66EF76ABE0E26D93EEC29F01B2A3B
:10066800F2D70D0E3EEC29F00A0E3EEC29F01B6A7B
:10067800080E1B6401D00AD00E0E1B24F66EF76A12
:10068800BE0E11D93EEC29F01B2AF2D70D0E3EEC16
:1006980029F00A0E3EEC29F067D00001FC513EEC2F
:1006A80029F0086A640EBCD80AEC28F0AAD872ECC3
:1006B80028F00C50300F3EEC29F0BEEC09F00AECA3
:1006C80028F09FD872EC28F00C50300F3EEC29F03F
:1006D800B1EC09F072EC28F00C50300F3EEC29F028
:1006E8005F0E3EEC29F040D0086A640E076EACD865
:1006F8000AEC28F086D872EC28F00C50300F3EEC4B
:1007080029F0086A0A0E076E9FD80AEC28F079D8F3
:1007180072EC28F00C50300F3EEC29F090D838ECF1
:100728000BF072EC28F00C50300F3EEC29F05F0E05
:100738003EEC29F019D0450E3EEC29F0520E3EEC65
:1007480029F00D0E3EEC29F00A0E3EEC29F00CD0F3
:100758001251610A01E14ED7050AC6E0100A9DE070
:10076800020A01E16FD7E7D74F0E3EEC29F04B0E96
:100778003EEC29F00D0E3EEC29F00A0E3EEC29F075
:100788002DD01151530A01E1D7D6320A01E187D59C
:10079800030A01E11ED5010A01E175D4070A01E146
:1007A800FAD4010A01E1B8D5030A01E1BBD4170A5A
:1007B80001E19DD6030ACCE0010A01E144D5070A0C
:1007C80001E139D4020A01E1FFD5010A01E1D0D5DE
:1007D8000E0A01E126D6030A01E14FD60201106B89
:1007E800116B126B00019B6B99EF2CF0D00E176EFA
:1007F80018681251196E1A6A1750192618501A22B9
:10080800120005C00CF006C00DF00F6A0A0E0E6E3D
:100818000A0C196E1A6A1750192618501A22120053
:10082800076E8DC005F08EC006F01200D00E176E50
:100838001868135112007A6E7AC005F0000C89C04E
:100848000CF08AC00DF0120089C005F08AC006F0CD
:100858001200010E0001B86F010C076EFAC005F016
:10086800FBC006F0120012510A0DF3501325F00FC9
:10087800120014510A0DF3501525F00F1200100E36
:10088800056E3C0E066E1200380E056E100E066ED2
:10089800120002011351D00F00011200960E0B6EC8
:1008A800030E0C6E1200F7220800F5501200C8EC77
:1008B8002AF029C056F02AC057F02BC058F02CC097
:1008C80059F0DCEC2AF029C04AF02AC04BF02BC0C2
:1008D8004CF02CC04DF00B0E92DBD89038343C6EA7
:1008E80039343D6E3A343E6E3B343F6E030E406EF3
:1008F80056C041F057C042F058C043F059C044F0C8
:10090800406601D007D04434443243324232413247
:10091800402EF6D73C50415C056E3D504258066E5D
:100928003E504358076E3F504458086E93C109F033
:1009380094C10AF04CDBE4EC27F0376601D003D011
:100948000ADB372EFAD716DB0C0E59DB040E3C6E89
:1009580056C03DF057C03EF058C03FF059C040F077
:100968003C6601D003D054DB3C2EFAD738503D5CAE
:10097800056E39503E58066E3A503F58076E3B5048
:100988004058086E00018751416E8851426E436A93
:10099800446A040E456E56C046F057C047F058C02A
:1009A80048F059C049F0456601D007D0493449326A
:1009B800483247324632452EF6D74150465C096EDA
:1009C800425047580A6E435048580B6E4450495895
:1009D8000C6EE4EC27F0376601D003D0BCDA372E72
:1009E800FAD7BFDA0E0E376EF8DA91C109F092C164
:1009F8000AF0EDDAE4EC27F0376601D003D0ABDA81
:100A0800372EFAD7C0DA5E506624526E5F506720E0
:100A1800536E60506820546E61506920556E52C004
:100A280005F053C006F054C007F055C008F0050E95
:100A3800096E0A6A0B6A0C6AE4EC27F0800E05243A
:100A4800376E000E0620386E000E0720396E000E35
:100A580008203A6E38C037F039C038F03AC039F05B
:100A68003A6A39BE3A6837C04EF038C04FF039C0DC
:100A780050F03AC051F035C0D9FF36C0DAFF4EC049
:100A8800DEFF4FC0DEFF50C0DEFF51C0DEFF52C0A8
:100A980037F053C038F054C039F055C03AF03A3402
:100AA800BDDA000E3724666E060E3820676EFF0E1C
:100AB8003920686EFF0E3A20696E0B0E12DAE4ECEC
:100AC80027F0376601D003D046DA372EFAD749DA4D
:100AD80084DA87C109F088C10AF079DAE4EC27F0F2
:100AE80052DA89C105F08AC106F056DAE4EC27F03B
:100AF800D8900534376E0634386E0734396E0834AA
:100B08003A6E37505E2638505F22395060223A508C
:100B1800612201018B51376E8C51386E396A3A6AFD
:100B280038C03AF037C039F0386A376A020E3B6E7F
:100B38005EC03CF05FC03DF060C03EF061C03FF079
:100B48003B6601D007D03F343F323E323D323C3223
:100B58003B2EF6D737503C245E6E38503D205F6EF2
:100B680039503E20606E3A503F20616E0D0EB9D963
:100B7800E4EC27F0376601D003D0EDD9372EFAD749
:100B8800F0D9120E376E030E386E8DC105F08EC186
:100B980006F0000E0FDAE4EC27F005C039F006C0C5
:100BA8003AF007C03BF008C03CF0386601D007D0E7
:100BB8003C343C323B323A323932382EF6D78FC188
:100BC80005F090C106F0E8D9E4EC27F0C4D9055047
:100BD80039243D6E06503A203E6E07503B203F6E4A
:100BE80008503C20406E376601D003D011DA372E0A
:100BF800FAD73DC066F03EC067F03FC068F040C01D
:100C080069F00F0E376E000E6624056E800E6720A1
:100C1800066E000E6820076E000E6920086EF4C18B
:100C280009F0F5C10AF00B6A0C6AE4EC27F03766A4
:100C380001D003D090D9372EFAD79CD966506710C7
:100C48006810691001E112000C0E376E5EC038F0B2
:100C58005FC039F060C03AF061C03BF0376601D040
:100C680004D03B34E0D9372EF9D74AC03CF04BC00A
:100C78003DF04CC03EF04DC03FF03C1E3D1E3E1EB8
:100C88003F1E3C2A000E3D223E223F2238503C5C4B
:100C9800406E39503D58416E3A503E58426E3B5076
:100CA8003F58436E000E4024056E000E4120066E2C
:100CB800100E4220076E000E4320086E350E096E96
:100CC8000C0E0A6E0B6A0C6AE4EC27F005C062F0A1
:100CD80006C063F007C064F008C065F0800E655C6C
:100CE80015E2D8906234056E6334066E6434076E7C
:100CF8006534086E7BD9A3EC24F005C062F006C009
:100D080063F007C064F008C065F014D062C005F055
:100D180063C006F064C007F065C008F067D9A3ECAB
:100D280024F0D8900534626E0634636E0734646E1E
:100D38000834656E62C037F063C038F064C039F0BB
:100D480065C03AF0040E02D0D89068D9E82EFCD7D6
:100D580037C005F038C006F039C007F03AC008F0CF
:100D680062C03BF063C03CF064C03DF065C03EF03B
:100D7800040E05D0D8903E323D323C323B32E82E4C
:100D8800F9D73BC009F03CC00AF03DC00BF03EC0AB
:100D98000CF0E4EC27F00E0E05D0D890083207329C
:100DA80006320532E82EF9D7DCD80C0E376E81C131
:100DB80005F082C106F0000EFDD8E4EC27F0376696
:100DC80001D003D0C8D8372EFAD7D4D80D0E376E35
:100DD80062C038F063C039F064C03AF065C03BF0D7
:100DE800030E02D0D8901FD9E82EFCD738C005F0E2
:100DF80039C006F03AC007F03BC008F083C109F0DB
:100E080084C10AF0E4D8E4EC27F0376601D003D0B7
:100E1800A2D8372EFAD7B7D8040E376E85C138F066
:100E280086C139F0000E39BEFF0E3A6E3B6E665031
:100E380038243C6E675039203D6E68503A203E6E2B
:100E480069503B203F6E5E503C24406E5F503D2011
:100E5800416E60503E20426E61503F20436E3766BF
:100E680001D007D043344332423241324032372E28
:100E7800F6D762504024626E63504120636E64501E
:100E88004220646E65504320656E070E196E400E51
:100E98001A6E3F0E1B6E62C00DF063C00EF064C088
:100EA8000FF065C010F098EC27F00DC016F00EC0DA
:100EB80017F00FC018F0E6EC1EF016C025F017C0AA
:100EC80026F018C027F0A5EC1FF03450D96EDA6A66
:100ED80025C0DEFF26C0DEFF27C0DEFF28C0DEFFFC
:100EE8001200376E020E386E66C039F067C03AF0ED
:100EF80068C03BF069C03CF0386601D007D03C348C
:100F08003C323B323A323932382EF6D739C005F006
:100F18003AC006F03BC007F03CC008F0020E3D6E38
:100F280066C03EF067C03FF068C040F069C041F05D
:100F38003D6601D007D04134413240323F323E3223
:100F48003D2EF6D73EC009F03FC00AF040C00BF076
:100F580041C00CF01200083408320732063205325C
:100F6800120005C05AF006C05BF007C05CF008C06C
:100F78005DF0120005C066F006C067F007C068F0B3
:100F880008C069F0120005C05EF006C05FF007C037
:100F980060F008C061F01200000E06BEFF0E076E7A
:100FA800086E66C009F067C00AF068C00BF069C037
:100FB8000CF0120006BEFF0E076E086E5AC009F04C
:100FC8005BC00AF05CC00BF05DC00CF01200000EB4
:100FD8000ABEFF0E0B6E0C6E12005AC005F05BC005
:100FE80006F05CC007F05DC008F0120066C009F0AA
:100FF80067C00AF068C00BF069C00CF01200376EC9
:1010080000018751386E8851396E3A6A3B6A12007E
:10101800403440323F323E323D3212003A323932A9
:101028003832373212003B323A3239323832120013
:1010380077D153EC2CF074A615D0020E96D9000E79
:10104800B1EC23F0450E7AD9090E8BEC21F0720E23
:1010580075D90F0E8BEC21F0720E70D9150E8BEC32
:1010680021F047D100018D2903E18E2901E12DD11D
:10107800FE0503E08D518E1171E16FD972EC28F0F5
:101088000C502F6E8DC005F08EC006F04AEC0BF0A8
:101098000AEC28F005C08DF006C08EF0050E2F640E
:1010A80003D000018D4B8E2B65D90AEC28F005EC96
:1010B80004F072EC28F00C500D102BE1020E55D9FB
:1010C800030EB1EC23F000018D518E1114E0FCC029
:1010D80011F03AD90D0E8BEC21F03FD972EC28F0C3
:1010E8000C5026D9130E8BEC21F0B00E27D9190E0F
:1010F8008BEC21F0FED031D972EC28F00C5018D9C5
:101108000D0E8BEC21F0B00E19D9130E8BEC21F0DB
:10111800F0D0020E2AD9000EB1EC23F0FCC011F079
:1011280013D9090E8BEC21F025D90AEC28F005EC2F
:1011380004F072EC28F00C50FBD80F0E8BEC21F069
:101148000CD972EC28F00C50F3D8150E8BEC21F06A
:10115800B00EF4D81B0E8BEC21F0CBD0200E306EE5
:1011680030504EEC28F0302A300E3064F9D7086A37
:10117800640E14EC04F00AEC28F005EC04F072ECB0
:1011880028F00CC029F00DC02AF0F4D80AEC28F099
:1011980005EC04F072EC28F00CC02BF00DC02CF01C
:1011A800DCD872EC28F00CC02DF00DC02EF0B2EC9B
:1011B80012F0390E136EBE0E146E29C015F02AC037
:1011C80016F02BC017F02CC018F0000E1A6E2E0E59
:1011D800196E2DC01BF02EC01CF0000E1E6EB00E36
:1011E8001D6E6BEC13F0300E010199193BE0020EF5
:1011F800BCD8030EB1EC23F0FCC011F0A5D80B0E3F
:101208008BEC21F001019951D00F92D8110E8BEC83
:1012180021F0BFD88DD8170E8BEC21F09BC111F0AF
:1012280093D81D0E8BEC21F001019C51D00F74EC6A
:101238000CF0200EEEEC23F09DC111F018EC10F02C
:10124800260EEEEC23F0330E286EBB0E276EE00E52
:10125800E82EFED7272EFCD7282EFAD70A0EA3ECA5
:1012680026F047D0020E81D8010EB1EC23F0FCC065
:1012780011F06AD80B0E8BEC21F08BD859D8110ECF
:101288008BEC21F09BC111F05FD8170E8BEC21F08D
:1012980001019C51D00F4CD81A0E8BEC21F09DC146
:1012A80011F018EC10F0200EEEEC23F0330E286E3F
:1012B800BB0E276EE00EE82EFED7272EFCD7282E71
:1012C800FAD7080EA3EC26F014D0020E4ED8000E62
:1012D800B1EC23F02D0E32D8090E8BEC21F02D0E37
:1012E8002DD80F0E8BEC21F02D0E28D8150E8BEC77
:1012F80021F048D852D82DD81DEF22F0050E776E70
:1013080049EC26F048EC10F0ADEC12F065EC22F058
:1013180048EC04F065EC22F0D0EC15F01DEF22F05B
:101328007750040AEBE0010A01E183D6030A1200B0
:10133800116E75C012F076C013F01200116EE70E30
:10134800126EB70E136E1200E70E126EB70E136E02
:101358001200076E0A6A096A12008DC00CF08EC06E
:101368000DF00F6A0A0E0E6E0A0C0C6EB90E0D6E99
:101378000E6A1200086A0A0E076E8DC005F08EC04C
:1013880006F00A0C060E776E5E0E056E590E066E96
:10139800120001019A51D00F1200020E086E8A0C39
:1013A800F5D0785051EC0BF0020E781803E12DECD3
:1013B80004F002D00001B86B050EEA650DD0070EE7
:1013C800EA610AD0F90E116EF80E126EF60E136E5F
:1013D800F70E146E81EC16F00E0E0001EA6505D0CA
:1013E800100EEA6102D0030E776E270EEA65DDD093
:1013F800290EEA61DAD0B25104E0EBB102D0020E54
:10140800BCD0030EBAD03DD965EC22F0580E056E5B
:10141800220E44EC26F0320E096E1DEC22F020EC70
:1014280010F01DEC22F020EEEAF010EE80F0060E2F
:10143800DBCFE3FFE806FCE2050E776E7498020E38
:10144800781801E0B2D0000113D918EC10F00D0E95
:10145800EEEC23F0AAD00001B86BEB0E076E010E7C
:10146800086ED5EC21F000019C6F9C5125E101012B
:10147800EB516A6EEC5100018B6F6AC08CF0010170
:10148800ED516A6EEE510001896F6AC08AF08BC017
:1014980005F08CC006F0FAD80AEC28F0EDD8E4D8AC
:1014A80072EC28F028EC04F0F1D80AEC28F023ECD0
:1014B80004F0DAD872EC28F0F10E346EF00E356EC6
:1014C800010E366E5BEC04F0020E781807E1170E79
:1014D800116E18EC10F00D0EEEEC23F049EC26F02E
:1014E8000001B2510DE0CDD865EC22F0140E056E66
:1014F800240E066EB3D81DEC22F0CDEC19F055D0B1
:10150800C0D865EC22F0640E056E290E066EA6D8CA
:101518001DEC22F0F2D70001B45120E0B86B6E50F8
:101528006A6E6D508D6F6AC08EF0020E781807E1F2
:10153800170E116E18EC10F00D0EEEEC23F049ECBE
:1015480026F09FD865EC22F0100E056E3C0E066E54
:1015580085D81DEC22F0CDEC19F00ED0B3510CE07B
:10156800B86B020E7818EBE1170E116E18EC10F03C
:101578000D0EEEEC23F0E3D7050E776E16D0050EB0
:10158800776EADEC12F065EC22F00FD07750010ABF
:1015980001E139D7030A01E15ED7010ABCE0070A75
:1015A800EEE0010A01E1FDD6030A74A804D0B90EE1
:1015B800076EAFEC28F00001B75108E0EAA174A467
:1015C80005D0749485EC2BF034EC2AF0748818EC70
:1015D8002CF0000914E06C0E0B6EEAEC2BF073ECA7
:1015E80029F06E506A6E6D5000018D6F6AC08EF0E2
:1015F8006CC0FCF00101976B986B749603D00101E5
:10160800974B982BE90E975D030E985906E374865D
:1016180073EC29F03FD8A9EC20F000019D51EE1998
:101628001BE1050E096EEB512AEC2BF00009D8A43A
:101638001200230E0001EA19D8B474A2120018D8B7
:1016480018EC10F00D0EEEEC23F052EC04F08DECDB
:1016580029F0010EB86F010C74921200086A076A2B
:101668000A6A140E096E140C0F6A0A0E0E6E0A0C22
:10167800B86B170E116E170C8BC00CF08CC00DF0E8
:101688001200A80E056E130E066E1200086A0A0EE6
:10169800076E0A0C040E0E6E780C1F6E19D100012D
:1016A800B86B206A39D9EC51A7EC29F02AEC2BF059
:1016B80000090AE031D9EC51A7EC29F02AEC2BF00B
:1016C80018D9B90F46D903D020504EEC28F01DEC9C
:1016D80011F02AEC2BF00DD9BF0F3BD91DD9EB51D6
:1016E800A7EC29F02AEC2BF004D9C60F32D93CD943
:1016F8002AEC2BF0FED8CC0F2CD9202A040E20641B
:10170800D1D7206A09D9EA51A7EC29F02AEC2BF0A5
:101718001AD907D9D20F1DD927EC11F02AEC2BF0D2
:1017280012D9FFD8D60F15D9202A020E2064EAD77D
:101738000001BE6B800EC46FC56FCB6BD16BD56BD0
:101748001200010E0001B86F0AD9A7EC29F02AECA3
:101758002BF00001AE6F12D92AEC2BF00001AD6F0F
:1017680008D9A7EC29F02AEC2BF00001AC6F0AD9B4
:101778002AEC2BF00001AB6FAE51A81909E1AD516D
:10178800A71906E1AC51A61903E1AB51A5196FE001
:10179800AB51A51909E0F6D82AEC2BF09CEC09F01E
:1017A800190E8BEC21F007D0EDD82AEC2BF098D845
:1017B800190EEEEC23F00001AC51A6190BE0D9D8B4
:1017C800A7EC29F02AEC2BF09CEC09F0130E8BEC1B
:1017D80021F009D0CED8A7EC29F02AEC2BF080D83C
:1017E800130EEEEC23F00001AD51A71909E0C6D89D
:1017F8002AEC2BF09CEC09F0070E8BEC21F007D0BB
:10180800BDD82AEC2BF06CD8070EEEEC23F084D868
:10181800EC51A7EC29F02AEC2BF0000919E00001A3
:10182800AE51A8190BE09BD8A7EC29F02AEC2BF0B5
:101838009CEC09F0010E8BEC21F010D090D8A7ECAD
:1018480029F02AEC2BF04CD8010EEEEC23F006D050
:10185800116AA8EC09F0010E8BEC21F0AEC0A8F0DB
:10186800ADC0A7F0ACC0A6F0ABC0A5F0120077D809
:10187800A7EC29F02AEC2BF000090BE04DD8EC512D
:10188800A7EC29F02AEC2BF02BD8010EEEEC23F074
:1018980006D0116A18EC10F0010EEEEC23F01DECE6
:1018A80011F02AEC2BF01CD8070EEEEC23F034D8FC
:1018B800EB51A7EC29F02AEC2BF012D8130EEEEC22
:1018C80023F052D82AEC2BF00BD8190EEEEF23F0A8
:1018D8001F50010A01E1E3D6030A01E132D71200E1
:1018E800116E75C012F076C013F0B90E146E156A39
:1018F8001200050D75C01DF076C01EF0F3501D26B0
:10190800F4501E2220501D26000E1E221DC0F6FF78
:101918001EC0F7FF205012000A0E096E056E000166
:101928000A0CF3501D26F4501E2220501D26000ECE
:101938001E22030E1D26000E1E221DC0F6FF1EC00D
:10194800F7FF20501200030DE10E1D6EBD0E1E6E36
:101958001200D96EDA6A0800F5CFDFFF12000A0E0E
:10196800096E056EEC5112000A0E096E0001EB516A
:1019780012000A0E096E056EEB5112000A0E096E6E
:10198800EC5112000A0E096EEB5112003FD067D9D4
:1019980065EC22F0600E056E300E066E32EC0BF030
:1019A8001DEC22F020EC10F01DEC22F0BAEC18F03F
:1019B80037D055D965EC22F0ADEC12F065EC22F089
:1019C800D0EC15F01DEC22F0CDEC19F053EC2CF016
:1019D80027D00001852B0C0E856502D0010E856F7E
:1019E80020EC10F01DEC22F02FD9CDEC28F018D007
:1019F80000018507855102E10C0E856F20EC10F07F
:101A08001DEC22F021D9CDEC28F00AD07750010A3C
:101A1800BEE0030ADEE0010AEBE0070ACAE0010AB9
:101A280074A801D1770EF66EBE0EF76E02D9000EBD
:101A3800EEEC23F0780EF66EBE0EF76EFAD8060EB0
:101A4800EEEC23F0790EF66EBE0EF76EF2D80C0EA1
:101A5800EEEC23F0C8D0CC0EF66EBE0EF76EE9D8C9
:101A6800120EEEEC23F0CD0EF66EBE0EF76EE1D838
:101A7800180EEEEC23F0D7D0C30EF66EBE0EF76E3E
:101A8800D8D8120EEEEC23F0C40EF66EBE0EF76E2A
:101A9800D0D8180EEEEC23F0C6D0A80EF66EBE0E07
:101AA800F76EC7D8120EEEEC23F0A90EF66EBE0E36
:101AB800F76EBFD8180EEEEC23F0B5D09C0EF66E7C
:101AC800BE0EF76EB6D8120EEEEC23F09D0EF66E33
:101AD800BE0EF76EAED8180EEEEC23F0A4D0B40EFE
:101AE800F66EBE0EF76EA5D8120EEEEC23F0B50E0C
:101AF800F66EBE0EF76E9DD8180EEEEC23F093D05E
:101B0800B70EF66EBE0EF76E94D8120EEEEC23F0FA
:101B1800B80EF66EBE0EF76E8CD8180EEEEC23F0EB
:101B280082D0A50EF66EBE0EF76E83D8120EEEECBE
:101B380023F0A60EF66EBE0EF76E7BD8180EEEECEE
:101B480023F071D03DEC0FF074D8120EEEEC23F0B8
:101B580038EC0FF06ED8180EEEEC23F064D0AB0E14
:101B6800F66EBE0EF76E65D8120EEEEC23F0AC0ED4
:101B7800F66EBE0EF76E5DD8180EEEEC23F053D05D
:101B8800990EF66EBE0EF76E54D8120EEEEC23F0D8
:101B98009A0EF66EBE0EF76E4CD8180EEEEC23F0C9
:101BA80042D0BA0EF66EBE0EF76E43D8120EEEECA9
:101BB80023F0BB0EF66EBE0EF76E3BD8180EEEEC99
:101BC80023F031D0AE0EF66EBE0EF76E32D8120E7E
:101BD800EEEC23F0AF0EF66EBE0EF76E2AD8180E96
:101BE800EEEC23F020D000018551010A01E133D742
:101BF800030A01E141D7010A01E14FD7070A01E1D0
:101C08005DD7010A01E16BD7030A01E179D7010A1F
:101C180088E00F0A97E0010AA2E0030AB1E0010A8E
:101C2800C0E0070ACFE0B90E076EAFEC28F0748861
:101C380012000800F5CF11F0E70E126EB70E136E02
:101C4800B90E146E156A1200050E776E84C012F074
:101C580085C013F086C014F0000183511200940E61
:101C6800056E190E066E120041D008D965EC22F0F7
:101C7800F60E056E370E066E32EC0BF01DEC22F0F8
:101C880020EC10F01DEC22F0BAEC18F039D0F6D8A0
:101C980065EC22F0ADEC12F065EC22F0D0EC15F01A
:101CA8001DEC22F0CDEC19F053EC2CF029D00001FA
:101CB800832B070E836502D0010E836F20EC10F092
:101CC8001DEC22F028EC0EF0CDEC28F019D0000124
:101CD8008307835102E1070E836F20EC10F01DEC9F
:101CE80022F028EC0EF0CDEC28F00AD07750010A4B
:101CF800BCE0030ADCE0010AEAE0070AC8E0010ADE
:101D080074A8ACD06B0EF66EBE0EF76E1DEC0EF01E
:101D1800000EEEEC23F06C0EF66EBE0EF76E1DECA8
:101D28000EF0060EEEEC23F06D0EF66EBE0EF76E9C
:101D38001DEC0EF00C0EEEEC23F07FD0A20EF66E2A
:101D4800BE0EF76E1DEC0EF0120EEEEC23F0A30E95
:101D5800F66EBE0EF76E1DEC0EF0180EEEEC23F0CC
:101D68007DD0C00EF66EBE0EF76E1DEC0EF0120E94
:101D7800EEEC23F0C10EF66EBE0EF76E1DEC0EF003
:101D8800180EEEEC23F06AD074D81DEC0EF0120E8B
:101D9800EEEC23F069D81DEC0EF0180EEEEC23F0F3
:101DA8005DD0C90EF66EBE0EF76E1DEC0EF0120E6B
:101DB800EEEC23F0CA0EF66EBE0EF76E1DEC0EF0BA
:101DC800180EEEEC23F04AD0C60EF66EBE0EF76E75
:101DD8001DEC0EF0120EEEEC23F0C70EF66EBE0EE2
:101DE800F76E1DEC0EF0180EEEEC23F037D0930EC4
:101DF800F66EBE0EF76E1DEC0EF0120EEEEC23F032
:101E0800940EF66EBE0EF76E1DEC0EF0180EEEEC8C
:101E180023F024D09F0EF66EBE0EF76E1DEC0EF06A
:101E2800120EEEEC23F0A00EF66EBE0EF76E1DEC51
:101E38000EF0180EEEEC23F011D000018351010AC8
:101E4800E9E0030A01E17AD7010A8BE0070A9CE07E
:101E5800010AA7E0030AB8E0010AC9E0B90E076E53
:101E6800AFEC28F074881200B20EF66EBE0EF76E54
:101E78001200B10EF66EBE0EF76E1200700E056EF1
:101E88001C0E066E120074BA02D0748A58D0749A66
:101E980056D0EBD865EC22F0940E056E320E066E25
:101EA80032EC0BF01DEC22F0C7D81DEC22F0050E29
:101EB800776E53EC2CF074984CD0D7D865EC22F0A0
:101EC800ADEC12F065EC22F0D0EC15F01DEC22F030
:101ED800050E776E53EC2CF03CD00001822B170EC8
:101EE800826501D0826BA8D81DEC22F0C8D80AE020
:101EF800825104E1ACD8D9EC29F02BD0B1D8D9EC77
:101F080029F027D0A8D8D9EC29F023D000018207DE
:101F1800822902E1170E826F8FD81DEC22F0AFD80C
:101F28000AE0825104E193D8D9EC29F012D098D86C
:101F3800D9EC29F00ED08FD8D9EC29F00AD07750F7
:101F4800010AA7E0030AC9E0010AE0E0070AB5E0D0
:101F5800010A74A863D074AA4AD0780424E190ECEA
:101F68000CF08251A7EC29F02AEC2BF000090DE0C7
:101F780090EC0CF08251A7EC29F02AEC2BF074ECD1
:101F88000CF0000EEEEC23F005D0116A4DD8000ECF
:101F9800EEEC23F06FD82AEC2BF074EC0CF0060E64
:101FA800EEEC23F03BD090EC0CF08251A7EC29F03A
:101FB8002AEC2BF000090DE090EC0CF08251A7EC14
:101FC80029F02AEC2BF074EC0CF0010EEEEC23F067
:101FD80005D0116A29D8010EEEEC23F04BD82AEC73
:101FE8002BF074EC0CF0070EEEEC23F017D078040D
:101FF8000BE1116A19D8000EEEEC23F0116A14D81F
:10200800060EEEEC23F00AD0116A0ED8010EEEECA3
:1020180023F0116A09D8070EEEEC23F0B90E076E0B
:10202800AFEC28F074881200E70E126EB70E136E2C
:10203800B90E146E156A12005E0E056E590E066E04
:10204800070E086ED00E076E0A6A096AD00C81C0A6
:1020580012F0136A170C81C012F0136A8251120031
:1020680081C012F0136A820512008E0E056E1E0ED4
:10207800066E12000A0E096E000182511200050E4A
:10208800776E0001F551120053EC2CF0C4D090EC9F
:102098000CF0EC51A7EC29F02AEC2BF000090DE02C
:1020A80090EC0CF0EC51A7EC29F02AEC2BF09CEC0E
:1020B80009F0000E8BEC21F006D0116AA8EC09F0AB
:1020C800000E8BEC21F0B5D82AEC2BF09CEC09F033
:1020D800060E8BEC21F090EC0CF0EB51A7EC29F0FC
:1020E8002AEC2BF09CEC09F00D0E8BEC21F0B8ECEF
:1020F8000CF02AEC2BF09CEC09F0130E8BEC21F081
:1021080091D8ECEC25F090EC0CF0EA51A7EC29F012
:102118002AEC2BF0266E26280D6E190E41EC21F0C4
:1021280092D82AEC2BF0266E26280D6E1D0E41EC57
:1021380021F00001B15103E081D88CEC1DF00001C1
:10214800B86B120090EC0CF0EC51A7EC29F02AECDB
:102158002BF000090DE090EC0CF0EC51A7EC29F005
:102168002AEC2BF09CEC09F0010E8BEC21F006D048
:10217800116AA8EC09F0010E8BEC21F05AD82AEC70
:102188002BF09CEC09F0070E8BEC21F03A0EA2EC38
:1021980009F00D0E8BEC21F045D8ECEC25F090EC15
:1021A8000CF0EB51A7EC29F02AEC2BF09CEC09F091
:1021B800130E8BEC21F0B8EC0CF02AEC2BF09CEC15
:1021C80009F0190E8BEC21F00001B15103E036D86B
:1021D8008CEC1DF0010E0001B86FA06BB3EC0CF095
:1021E800A7EC29F02AEC2BF00001A86FC2EC0CF048
:1021F8002AEC2BF00001A76FBDEC0CF0A7EC29F03E
:102208002AEC2BF00001A66FC6EC0CF02AEC2BF0A0
:102218000001A56F12007850010A01E138D7030ABE
:1022280091E01200EC0E0A6EEB0E0B6EEA0E0C6ECD
:1022380012000A0E096E0001EC511200EA0E216E1E
:10224800F50E226E12000A0E096E0001EA51120004
:1022580074BA02D0748A6FD0749A6DD0D2D865ECF3
:1022680022F08E0E056E1E0E44EC26F0320E096E1C
:102278001DEC22F020EC10F01DEC22F0780415E1A2
:1022880090EC0CF08151A7EC29F02AEC2BF074ECBF
:102298000CF00D0EEEEC23F0A9D82AEC2BF074EC20
:1022A8000CF0130EEEEC23F015D090EC0CF0EB5183
:1022B800A7EC29F02AEC2BF074EC0CF0130EEEECE2
:1022C80023F0B8EC0CF02AEC2BF074EC0CF0190E9F
:1022D800EEEC23F0CDEC19F038D093D865EC22F071
:1022E800ADEC12F065EC22F0D0EC15F01DEC22F00C
:1022F800050E776E53EC2CF028D00001812B3B0E95
:10230800816501D0816B20EC10F01DEC22F073D8B0
:10231800D9EC29F0050E776E18D0000181078129C4
:1023280002E13B0E816F20EC10F01DEC22F063D827
:10233800D9EC29F0EFD77750010A90E0030ADDE0E5
:10234800010AEBE0070AC9E0010A74A849D074AA97
:102358002CD0780415E190EC0CF08151A7EC29F011
:102368002AEC2BF074EC0CF00D0EEEEC23F03ED8BA
:102378002AEC2BF074EC0CF0130EEEEC23F030D0BA
:1023880090EC0CF08151A7EC29F02AEC2BF074ECBE
:102398000CF0130EEEEC23F029D82AEC2BF074EC99
:1023A8000CF0190EEEEC23F01BD078040DE1116A45
:1023B80018EC10F00D0EEEEC23F0116A18EC10F08A
:1023C800130EEEEC23F00CD0116A18EC10F0130E7B
:1023D800EEEC23F0116A18EC10F0190EEEEC23F075
:1023E800B90E076EAFEC28F0748812000A0E096E59
:1023F80000018151120081C012F0136A000182515C
:102408001200580E056E220E066E12009AD00001B8
:10241800F151F211F311F4114FE0F1C005F0F2C0DF
:1024280006F0F3C007F0F4C008F0640E096E0A6AFB
:102438000B6A0C6AA3EC24F005C029F006C02AF048
:1024480029C01CF02AC01DF0F7EC20F0BBEC25F0E9
:10245800200E2B6E2B504EEC28F02B2A300E2B64BE
:10246800F9D77CD88F0E136EBE0E146E6BEC13F07A
:1024780099C111F018EC10F0200EEEEC23F09AC17F
:1024880011F018EC10F0260EEEEC23F09BC111F0C1
:1024980018EC10F02C0EEEEC23F0330E286EBB0E69
:1024A800276EE00EE82EFED7272EFCD7282EFAD767
:1024B8000B0EA3EC26F01AD053EC2CF0040EB9EC5A
:1024C80009F0030EB1EC23F0450EA2EC09F00B0E57
:1024D8008BEC21F0520EA2EC09F0110E8BEC21F0DE
:1024E800520EA2EC09F0170E8BEC21F0C6EC09F0A5
:1024F8004DEC15F0ADEC09F01DEF22F0050E776EEE
:102508000001B0510CE049EC26F023D865EC22F02C
:102518002AD865EC22F0640E056E290E0DD049EC20
:1025280026F048EC10F015D865EC22F01CD865ECC4
:1025380022F0A80E056E130E066E32EC0BF01DEF9E
:1025480022F07750040ADAE0010A01E160D7030AB1
:1025580012005E0E056E590E066E1200990E116E6F
:10256800010E126E1200140E056E240E066E120075
:1025780045D00001B75112E097D865EC22F06FEC16
:1025880016F032EC0BF01DEC22F020EC10F01DECF4
:1025980022F0CDEC19F053EC2CF03AD085D865EC4C
:1025A80022F0D60E056E2B0E066E32EC0BF01DECEB
:1025B80022F089D84AEC2CF07CD8A3EC2BF0E5D794
:1025C80073D865EC22F0ADEC12F065EC22F0D0EC9B
:1025D80015F01DEC22F0DDD760D820EC10F01DECD2
:1025E80022F06CD861EC2BF013D057D820EC10F007
:1025F8001DEC22F063D861EC2BF00AD07750010A69
:10260800B8E0030AE9E0010AF0E0070AD9E0010AA4
:1026180074A83DD06AEC16F01DEC0EF0000EEEEC3E
:1026280023F065EC16F01DEC0EF0060EEEEC23F030
:1026380060EC16F01DEC0EF00C0EEEEC23F0000131
:10264800B75113E0960EF66EBE0EF76E1DEC0EF047
:10265800120EEEEC23F0970EF66EBE0EF76E1DEC22
:102668000EF0180EEEEC23F012D0BD0EF66EBE0E74
:10267800F76E1DEC0EF0120EEEEC23F0BE0EF66EA9
:10268800BE0EF76E1DEC0EF0180EEEEC23F0B90E30
:10269800076EAFEC28F0748812000001B751010EE4
:1026A800D8A4000EB76F1200780E056E250E066EC0
:1026B80012000001B66FB6C007F00A0C050E776E5F
:1026C800B7C005F0020C066A030E056E030C150E62
:1026D800246E79D0250E251838E08ED825C0DFFF66
:1026E800114A122A70D02450D96EDA6ADECF22F04D
:1026F800DDCF23F0020E24262250231013E14D0EC5
:10270800226EBE0E236E0ED082D876D80F0EF764D6
:1027180003D00800F55001D074D8DF6E224A232A6E
:10272800114A122A74D80F0EF76403D00800F55026
:1027380001D067D8000947E0E7D72450D96EDA6A94
:10274800DF50256E020E2426C8D742D83EE0630A21
:10275800F4E0100AC8E0060AC0E12450D96EDA6A2B
:10276800DECF1FF0DDCF20F0020E2426010E256EED
:10277800255039D8F5501F5C0900F550205804E35E
:10278800252A050E2518F4E125C021F019D021507D
:102798002AD8F5CF07F00A00F5CF08F01FC005F0DA
:1027A80020C006F00AEC28F005EC04F072EC28F0E2
:1027B8000C50300F256E20D825C0DFFF114A122A91
:1027C80021062128E4E104D885E116D8DF6A000C47
:1027D80013C0F6FF14C0F7FF134A142A0800F5CFF8
:1027E80025F025501200020DD30EF324F66EB70E15
:1027F800F420F76E0900120011C0D9FF12C0DAFFE9
:102808001200F6CFE1FFF7CFE2FFE750120022C037
:10281800F6FF23C0F7FFF86A1200146A09C005F032
:102828000AC006F0B4EC2AF00550FD0F126E136AC8
:102838007DD080D8030E85D8C00EDF646FD07AD8DB
:10284800040E7FD8DF500D6E145009240E6E000E52
:102858000A200F6E030E0E24D96E000E0F20DA6EBA
:10286800DF50106E0D50156E10C016F0840E15183E
:1028780005E1D00E161802E1DA0E0FD0860E1518F3
:1028880005E1D00E161802E1D40E07D0870E1518F0
:1028980007E1D00E161804E1D80E155ECF0E08D049
:1028A800940E151807E1D10E161804E1DA0E11D0AE
:1028B800165A28D0960E151805E1D10E161802E101
:1028C800E30E07D0970E151807E1D10E161804E18C
:1028D800D80E155ED00EECD7C00E155CD00E16586B
:1028E80003E2300E15260DD0800E155CD10E165859
:1028F80009E3900E155CD10E165804E2700E1526E9
:102908002F0E1622960E1324D96EDA6A030EDA22D7
:1029180015C0DFFF020E1426120607D00BD8030ECF
:1029280010D8960E132413D8142A132A1350125CA5
:1029380080E21200145009240B6E000E0A200C6E5F
:1029480012000B24D96E000E0C20DA6E1200E16E14
:10295800E26A030EE222DFCFE7FF12008CD0E80E16
:1029680000018B5D030E8C5937E2050EB9EC09F0B6
:10297800010EB1EC23F0086A640E85D80AEC28F041
:1029880005EC04F072EC28F00C509CEC09F0090EF0
:102998008BEC21F0086A0A0E76D80AEC28F005ECD0
:1029A80004F072EC28F00C509CEC09F00F0E8BEC44
:1029B80021F02E0EA2EC09F0150E8BEC21F040EC64
:1029C8000BF038EC0BF072EC28F00C509CEC09F092
:1029D800180E8BEC21F034D0050EB9EC09F0020E7C
:1029E800B1EC23F0030E086EE80E4DD80AEC28F07F
:1029F80005EC04F072EC28F00C509CEC09F00B0E7E
:102A08008BEC21F0086A640E3ED80AEC28F005EC3D
:102A180004F072EC28F00C509CEC09F0110E8BECD1
:102A280021F0086A0A0E2FD80AEC28F005EC04F009
:102A380072EC28F00C509CEC09F0170E8BEC21F08E
:102A4800C6EC09F026D8ADEC09F01DEF22F0050E12
:102A5800776E49EC26F048EC10F0ADEC12F065EC1E
:102A680022F0640E056E290E066E65EC22F0D0EC9D
:102A780015F01DEF22F07750040AE9E0010A01E1A0
:102A88006ED7030A1200076E8BC005F08CC006F0E3
:102A98001200010E086E900C37D094D865EC22F025
:102AA8007BD81DEC22F0ADEC12F065EC22F0CDECF9
:102AB80019F053EC2CF032D085D865EC22F06CD8A4
:102AC8001DEC22F0ADEC12F065EC22F0CDEC19F023
:102AD80053EC2CF0780403E10001B86B1FD02DEC07
:102AE80004F01CD063D820EC10F01DEC22F065D85F
:102AF80061EC2BF013D05AD820EC10F01DEC22F02A
:102B08005CD861EC2BF00AD07750010AC6E0030AC2
:102B1800E9E0010AF0E0070ACFE0010A74A836D01C
:102B2800590EF66EBE0EF76E1DEC0EF0000EEEECB2
:102B380023F05A0EF66EBE0EF76E1DEC0EF0060E62
:102B4800EEEC23F05B0EF66EBE0EF76E1DEC0EF08B
:102B58000C0EEEEC23F05C0EF66EBE0EF76E1DEC5E
:102B68000EF0120EEEEC23F00001B05108E02B0E2F
:102B7800116E18EC10F0180EEEEC23F007D02D0EA5
:102B8800116E18EC10F0180EEEEC23F0B90E076E6B
:102B9800AFEC28F074881200A80E056E130E066EAE
:102BA800086A076A0A6A140E096E140C0001B0510B
:102BB800010ED8A4000EB06F1200050E776EB0C0DB
:102BC80005F00A0CA00E056E2A0E066E12003FD004
:102BD8008FD865EC22F07FD832EC0BF01DEC22F098
:102BE80020EC10F01DEC22F0CDEC19F053EC2CF099
:102BF80038D07ED865EC22F0ADEC12F065EC22F00E
:102C0800D0EC15F01DEC22F0EFD70001B62B080E22
:102C1800B66501D0B66B20EC10F01DEC22F060D840
:102C280061EC2BF062D8A3EC2BF01BD00001B607A7
:102C3800B62902E1080EB66F20EC10F01DEC22F068
:102C48004FD861EC2BF051D8A3EC2BF00AD0775079
:102C5800010ABEE0030AD9E0010AE8E0070AC9E070
:102C6800010A74A823D032D81DEC0EF0000EEEEC49
:102C780023F027D81DEC0EF0060EEEEC23F01CD83E
:102C88001DEC0EF00C0EEEEC23F00A0E096E00019E
:102C9800B6512AEC2BF074EC0CF0120EEEEC23F08B
:102CA800116A18EC10F0180EEEEC23F0B90E076E4E
:102CB800AFEC28F074881200810EF66EBE0EF76E27
:102CC8001200800EF66EBE0EF76E12007F0EF66EC4
:102CD800BE0EF76E12000E0E056E3A0E066E12004C
:102CE800050E776EB6C005F0030CB6C007F00A0CE7
:102CF800D60E056E2B0E066E12001250D96EDA6AC9
:102D08002B0EDF6E82D091EC28F00009D8A41200B7
:102D1800CC0EEAEC28F0440EEAEC28F01450D96EF8
:102D2800DA6ADF6A1350D96EDA6A020EDF6ECD8076
:102D3800020C91EC28F0CC0EEAEC28F0BE0EEAEC7E
:102D480028F0196A780E1924D96EDA6A010EDA2287
:102D580006EC29F0DF6E192A010E1964F3D7010178
:102D68007951156E78511A6E15C01BF01BAE09D03B
:102D78001A6C1B1ED8B01B2A1250D96EDA6A2D0E97
:102D8800DF6E1A500F0B186EC30E1824F66EF76A12
:102D9800B70EF7220800F5CF18F01A3A1B3A0F0EB3
:102DA8001A161B50F00B1A120F0E1B161A500A0D8A
:102DB800F3CF1AF0F4CF1BF018501A26000E1B227E
:102DC8001AC00CF01BC00DF038EC0BF072EC28F0B8
:102DD8000C50176E1AC005F01BC006F04AEC0BF039
:102DE8000AEC28F005C01AF006C01BF0050E17649F
:102DF80002D01A4A1B2A1150D96EDA6A1AC0DFFFAC
:102E08001350D96EDA6ADF6A000C1350D96EDA6A89
:102E1800DF5001E178D7010A8CE0030A120053EC75
:102E280028F002EC2CF0C1EC29F0C0EC2BF0ACEC53
:102E38002CF038EC2CF0A0EC2AF06CEC2CF076ECB2
:102E48002AF047EC1FF0066A056A4AEC2CF07A6E05
:102E5800066A010E056E4AEC2CF0786E780403E1E0
:102E68000001B86B02D02DEC04F0066A020E056E64
:102E78004AEC2CF00001B76F67EC13F04AEC2CF029
:102E88005DEC13F0A3EC2BF0BEEC27F0A9EC2CF0D2
:102E980064EC2CF04EEC0BF0A9EC20F0120E056E51
:102EA800000E066E086A280E076E3FD81DEC22F049
:102EB800A00E056E4A0E3DD838D81DEC22F0066AE1
:102EC800040E056E4AEC2CF00001B56F066A050E7B
:102ED800056E4AEC2CF00001B46F066A060E056E0A
:102EE8004AEC2CF00001B36F066A070E056E4AEC37
:102EF8002CF00001B26F066A080E056E4AEC2CF041
:102F08000001B16F066A090E056E4AEC2CF000014B
:102F1800FE6F066A0A0E056E4AEC2CF00001B06FCF
:102F2800066A030E056E5CEF2CF00A6A140E096E31
:102F3800140C066E086A640E076E640C46D087D8B7
:102F480065EC22F0780E056E250E066E32EC0BF05D
:102F58001DEC22F020EC10F01DEC22F0CDEC19F065
:102F680053EC2CF03CD073D865EC22F0ADEC12F0A9
:102F780065EC22F0D0EC15F01DEC22F0CDEC19F048
:102F880053EC2CF0780403E10001B86B28D02DEC49
:102F980004F025D0782A020E786402D0010E786EEB
:102FA80020EC10F01DEC22F04DD861EC2BF017D07E
:102FB8007806785002E1020E786E20EC10F01DECD5
:102FC80022F040D861EC2BF00AD07750010AB7E024
:102FD800030AE0E0010AECE0070AC5E0010A74A868
:102FE8002BD06F0EF66EBE0EF76E1DEC0EF0000EB7
:102FF800EEEC23F0700EF66EBE0EF76E1DEC0EF0C2
:10300800060EEEEC23F0710EF66EBE0EF76E1DEC9A
:103018000EF00C0EEEEC23F00A0E096E78502AEC36
:103028002BF074EC0CF0120EEEEC23F0116A18EC95
:1030380010F0180EEEEC23F0B90E076EAFEC28F086
:1030480074881200050E776E78C005F0010C440EE6
:10305800056E2F0E066E120040D083D865EC22F064
:10306800700E056E1C0E066E32EC0BF01DEC22F095
:1030780020EC10F01DEC22F079D839D072D865EC2C
:1030880022F0ADEC12F065EC22F0D0EC15F01DEC5E
:1030980022F0CDEC19F053EC2CF029D00001842B50
:1030A8001F0E846502D0010E846F20EC10F01DEC19
:1030B80022F028EC0EF0CDEC28F019D0000184079E
:1030C800845102E11F0E846F20EC10F01DEC22F0F9
:1030D80028EC0EF0CDEC28F00AD07750010ABDE0BC
:1030E800030ADCE0010AEAE0070AC8E0010A74A85A
:1030F80032D07B0EF66EBE0EF76E1DEC0EF0000E93
:10310800EEEC23F07C0EF66EBE0EF76E1DEC0EF0A4
:10311800060EEEEC23F07D0EF66EBE0EF76E1DEC7D
:103128000EF00C0EEEEC23F090EC0CF08451A7ECB2
:1031380029F02AEC2BF074EC0CF0120EEEEC23F0D4
:103148000A0E096E000184512AEC2BF074EC0CF085
:10315800180EEEEC23F0B90E076EAFEC28F0748869
:103168001200600E056E300E066E1200050E776EA8
:103178007488050C32D085D865EC22F0AC0E056E4B
:10318800330E066E32EC0BF01DEC22F020EC10F042
:103198001DEC22F0CDEC19F053EC2CF028D071D8AE
:1031A80065EC22F0D0EC15F01DEC22F0ADEC12F03D
:1031B80065EC22F0EFD759D820EC10F01DEC22F086
:1031C8005BD861EC2BF013D050D820EC10F01DEC3C
:1031D80022F052D861EC2BF00AD07750010ACBE0EC
:1031E800030AE9E0010AF0E0070AD9E0010A74A835
:1031F80036D05E0EF66EBE0EF76E1DEC0EF0000EAB
:10320800EEEC23F05F0EF66EBE0EF76E1DEC0EF0C0
:10321800060EEEEC23F0600EF66EBE0EF76E1DEC99
:103228000EF00C0EEEEC23F0610EF66EBE0EF76E8D
:103238001DEC0EF0120EEEEC23F00001B15108E087
:103248002B0E116E18EC10F0180EEEEC23F007D0D0
:103258002D0E116E18EC10F0180EEEEC23F0B90ECE
:10326800076EAFEC28F0748812000001B151010E0E
:10327800D8A4000EB16F1200050E776EB1C005F02C
:10328800080C7C0E056E310E066E12003ED085D8F5
:1032980065EC22F0940E056E190E066E32EC0BF0FA
:1032A8001DEC22F020EC10F01DEC22F072D837D083
:1032B80074D865EC22F0ADEC12F065EC22F0D0EC9D
:1032C80015F01DEC22F065D853EC2CF028D0000145
:1032D800862B630E866501D0866B20EC10F01DEC02
:1032E80022F028EC0EF0CDEC28F019D0000186076A
:1032F800862902E1630E866F20EC10F01DEC22F0A7
:1033080028EC0EF0CDEC28F00AD07750010ABFE087
:10331800030ADDE0010AEAE0070ACAE0010A74A824
:1033280032D0670EF66EBE0EF76E1DEC0EF0000E74
:10333800EEEC23F0680EF66EBE0EF76E1DEC0EF086
:10334800060EEEEC23F0690EF66EBE0EF76E1DEC5F
:103358000EF00C0EEEEC23F090EC0CF08651A7EC7E
:1033680029F02AEC2BF074EC0CF0120EEEEC23F0A2
:103378000A0E096E000186512AEC2BF074EC0CF051
:10338800180EEEEC23F0B90E076EAFEC28F0748837
:103398001200050E776E7498050C940E056E320EA9
:1033A800066E12003DD083D865EC22F0A00E056EA3
:1033B8002A0E066E32EC0BF01DEC22F020EC10F019
:1033C8001DEC22F0CDEC19F053EC2CF033D06FD873
:1033D80065EC22F0D0EC15F01DEC22F0ADEC12F00B
:1033E80065EC22F0EFD70001FE2B030EFE1902E177
:1033F800010EFE6F20EC10F01DEC22F053D861ECAA
:103408002BF018D00001FE07FE5102E1020EFE6FFC
:1034180020EC10F01DEC22F045D861EC2BF00AD01E
:103428007750010AC0E0030ADEE0010AEBE0070A70
:10343800CEE0010A74A830D0540EF66EBE0EF76EB8
:103448001DEC0EF0000EEEEC23F0550EF66EBE0EDF
:10345800F76E1DEC0EF0060EEEEC23F0560EF66E2F
:10346800BE0EF76E1DEC0EF00C0EEEEC23F0570EB0
:10347800F66EBE0EF76E1DEC0EF0120EEEEC23F09B
:10348800FEC011F075C012F076C013F0B90E146EBC
:10349800156A180EEEEC23F0B90E076EAFEC28F0A3
:1034A80074881200050E776EFEC005F0090CAC0E8C
:1034B800056E330E066E120032D082D865EC22F00B
:1034C8007C0E056E310E066E32EC0BF01DEC22F010
:1034D80020EC10F01DEC22F0CDEC19F053EC2CF0A0
:1034E80028D06ED865EC22F0D0EC15F01DEC22F057
:1034F800ADEC12F065EC22F0EFD756D820EC10F0C6
:103508001DEC22F058D861EC2BF013D04DD820ECEC
:1035180010F01DEC22F04FD861EC2BF00AD0775058
:10352800010ACBE0030AE9E0010AF0E0070AD9E062
:10353800010A74A833D0830EF66EBE0EF76E1DEC2A
:103548000EF0000EEEEC23F0840EF66EBE0EF76E53
:103558001DEC0EF0060EEEEC23F0850EF66EBE0E98
:10356800F76E1DEC0EF00C0EEEEC23F00001B251DC
:1035780008E02B0E116E18EC10F0120EEEEC23F092
:1035880007D02D0E116E18EC10F0120EEEEC23F091
:10359800116A18EC10F0180EEEEC23F0B90E076E55
:1035A800AFEC28F0748812000001B251010ED8A4C3
:1035B800000EB26F1200050E776EB2C005F0070C50
:1035C800C00E056E340E066E120032D082D865EC3D
:1035D80022F0C00E056E340E066E32EC0BF01DECB8
:1035E80022F020EC10F01DEC22F0CDEC19F053EC99
:1035F8002CF028D06ED865EC22F0D0EC15F01DEC3C
:1036080022F0ADEC12F065EC22F0EFD756D820ECA2
:1036180010F01DEC22F058D861EC2BF013D04DD8E7
:1036280020EC10F01DEC22F04FD861EC2BF00AD002
:103638007750010ACBE0030AE9E0010AF0E0070A43
:10364800D9E0010A74A833D08B0EF66EBE0EF76E61
:103658001DEC0EF0000EEEEC23F08C0EF66EBE0E96
:10366800F76E1DEC0EF0060EEEEC23F08D0EF66EE6
:10367800BE0EF76E1DEC0EF00C0EEEEC23F0000102
:10368800B35108E02B0E116E18EC10F0120EEEEC90
:1036980023F007D02D0E116E18EC10F0120EEEEC80
:1036A80023F0116A18EC10F0180EEEEC23F0B90EA6
:1036B800076EAFEC28F0748812000001B351010EB8
:1036C800D8A4000EB36F1200050E776EB3C005F0D4
:1036D800060CD20E056E350E066E120032D082D858
:1036E80065EC22F0D20E056E350E066E32EC0BF04C
:1036F8001DEC22F020EC10F01DEC22F0CDEC19F0BE
:1037080053EC2CF028D06ED865EC22F0D0EC15F0F4
:103718001DEC22F0ADEC12F065EC22F0EFD756D894
:1037280020EC10F01DEC22F058D861EC2BF013D0EF
:103738004DD820EC10F01DEC22F04FD861EC2BF0A6
:103748000AD07750010ACBE0030AE9E0010AF0E069
:10375800070AD9E0010A74A833D0870EF66EBE0EA8
:10376800F76E1DEC0EF0000EEEEC23F0880EF66EF0
:10377800BE0EF76E1DEC0EF0060EEEEC23F0890E71
:10378800F66EBE0EF76E1DEC0EF00C0EEEEC23F08E
:103798000001B45108E02B0E116E18EC10F0120E57
:1037A800EEEC23F007D02D0E116E18EC10F0120E6F
:1037B800EEEC23F0116A18EC10F0180EEEEC23F082
:1037C800B90E076EAFEC28F0748812000001B451EE
:1037D800010ED8A4000EB46F1200050E776EB4C0A7
:1037E80005F0050CE40E056E360E066E120041D08B
:1037F80080D865EC22F0440E056E2F0E066E32EC72
:103808000BF01DEC22F020EC10F01DEC22F0CDECBA
:1038180019F053EC2CF037D06CD865EC22F0ADECF5
:1038280012F065EC22F0D0EC15F01DEC22F0EFD789
:103838007A2A050E7A6402D0010E7A6E20EC10F016
:103848001DEC22F0050E776E51D861EC2BF0BEEC22
:1038580027F019D07A067A5002E1050E7A6E20EC2C
:1038680010F01DEC22F0050E776E40D861EC2BF0BD
:10387800EED77750010ABCE0030ADAE0010AEAE071
:10388800070ACAE0010A74A82BD0730EF66EBE0EA2
:10389800F76E1DEC0EF0000EEEEC23F0740EF66ED3
:1038A800BE0EF76E1DEC0EF0060EEEEC23F0750E54
:1038B800F66EBE0EF76E1DEC0EF00C0EEEEC23F05D
:1038C8000A0E096E7A502AEC2BF074EC0CF0120EEA
:1038D800EEEC23F0116A18EC10F0180EEEEC23F061
:1038E800B90E076EAFEC28F0748812007AC005F0A4
:1038F800000CF60E056E370E066E12000001AF5171
:1039080018E0AF6B0101FC6B11D0FC515CD8DE50A4
:10391800DE1006E1FC5167D8010EDE6EDD6A05D0C7
:10392800FC5151D8DE06000EDD5AFC2B7950FC5DA7
:10393800ECE30101FD6B43D0FD5155D8DE04DE10E8
:103948003CE1FD5148D8DECFFAF1DDCFFBF1FD5166
:1039580052D8DE50DE1009E1FD513DD8DECF05F02A
:10396800DDCF06F065EC22F01BD0FD513CD8DE6AB5
:10397800DD6AFD5128D8DE50DE1012E170687168EA
:10398800FD5139D8DECF72F0DDCF73F0705072265A
:1039980071507322FD5117D872C0DEFF73C0DDFF6E
:1039A80001D80BD005000101FA6EFA51FD6EFB51EA
:1039B800FE6EF850FF6EFA5012000101FD2B79508F
:1039C800FD5DBAE31200080D020EF324D96E010E54
:1039D800F420DA6E1200080D000EF324D96E010EE1
:1039E800F420DA6E1200080D060EF324D96E010ECB
:1039F800F420DA6E1200080D040EF324D96E010EBD
:103A0800F420DA6E12003CD07ED865EC22F0E40E89
:103A1800056E360E066E32EC0BF01DEC22F020EC33
:103A280010F01DEC22F0CDEC19F053EC2CF032D054
:103A38006AD865EC22F0D0EC15F01DEC22F0ADEC64
:103A480012F065EC22F0EFD70001B52B010EB56539
:103A580001D0B56B20EC10F01DEC22F04FD861ECD2
:103A68002BF018D00001B507B52902E1010EB56F9A
:103A780020EC10F01DEC22F041D861EC2BF00AD0BC
:103A88007750010AC1E0030ADFE0010AEBE0070A08
:103A9800CFE0010A74A82CD0630EF66EBE0EF76E46
:103AA8001DEC0EF0000EEEEC23F0640EF66EBE0E6A
:103AB800F76E1DEC0EF0060EEEEC23F0650EF66EBA
:103AC800BE0EF76E1DEC0EF00C0EEEEC23F00A0E97
:103AD800096E0001B5512AEC2BF074EC0CF0120EB3
:103AE800EEEC23F0116A18EC10F0180EEEEC23F04F
:103AF800B90E076EAFEC28F074881200050E776EC9
:103B0800B5C005F0040C0E0E056E3A0E066E1200D6
:103B1800030E71D801EC20F0236E23501F08246E89
:103B28000A0E69D801EC20F0236E23501F08256E79
:103B380050D8030EDF6404D04CD8090EDF6427D0B8
:103B480048D8030EDE1804E150D8DE50245C1FE389
:103B580040D8030EDE1808E148D82450DE1804E1E6
:103B68003ED8030EDF6013D034D80A0EDE1804E105
:103B78003CD82550DE5C0BE32CD80A0EDE180DE18C
:103B880034D82550DE1809E12AD8DF6006D0225043
:103B9800D96EDA6A010EDF6E04D02250D96EDA6A65
:103BA800DF6A2250D96EDA6ADF50D8B4120017D80B
:103BB800170EDE1803E113D8DF6A000C10D8215065
:103BC800E16EE26A020EE126E750236E2328DF6EDB
:103BD80012002150D96EDA6A050ED926050C21503B
:103BE800D96EDA6A020ED926020C2150D96EDA6A29
:103BF800040ED926040C196E2150D96EDA6A060E05
:103C0800D926DF501A6E1F0C65D053EC2CF090ECBF
:103C18000CF0F951A7EC29F02AEC2BF0000915E17A
:103C2800010EB9EC09F0030EB1EC23F05AD82AECD6
:103C38002BF09CEC09F00D0E8BEC21F0B00EA2ECF1
:103C480009F0130E8BEC21F020D0010EB9EC09F02D
:103C5800030EB1EC23F090EC0CF0F951A7EC29F02D
:103C68002AEC2BF09CEC09F00D0E8BEC21F039D8E6
:103C78002AEC2BF09CEC09F0130E8BEC21F0B00E23
:103C8800A2EC09F0190E8BEC21F0C6EC09F0D1EC8E
:103C980009F0ADEC09F01DEF22F0050E776E49EC46
:103CA80026F0ADEC12F065EC22F043EC04F065EC84
:103CB80022F00001B35108E0380E056E100E066EB2
:103CC80032EC0BF01DEF22F0D0EC15F01DEC22F0D9
:103CD80048EF10F07750040AE0E0010A96E0030A82
:103CE80012000A0E096E0001F95112001C6E216AB9
:103CF800226A236A246A256A61D8A1EC2CF0EC0EAA
:103D080093EC2CF01C5093EC2CF0A5EC2CF0ED0E61
:103D180093EC2CF0010E73EC2BF01D6E1E6A1F6ADB
:103D2800206A010E73EC2BF0216E226A236A246A42
:103D3800000E73EC2BF0256E41D89DEC2CF021C0C1
:103D48000DF022C00EF023C00FF00C6A1DC010F059
:103D58001EC011F01FC012F020C013F011C013F0E4
:103D680010C012F0116A106A0C501024146E0D5015
:103D78001120156E0E501220166E0F501320176E5C
:103D880025501424186E26501520196E2750162019
:103D98001A6E285017201B6E050E05D0D8901B32BE
:103DA8001A3219321832E82EF9D718C008F019C09B
:103DB80009F01AC00AF01BC00BF01200266A276A25
:103DC800286A120018C01CF01D6A1E6A17341C36B7
:103DD80001E31D801C501F6E1F5001E150D01BC015
:103DE8001CF01D6A1E6A1A341C3601E31D801C5023
:103DF800246E245001E143D024507B0F1F2618C0A5
:103E080024F01B50241A800E2416178E1A8E1B6A53
:103E1800206A216A226A070E236E16B023D829D891
:103E280019361A361B36232EF8D7090E236E16B00C
:103E380019D81FD8223221322032232EF8D720C099
:103E480005F021C006F022C007F01FC008F024C00A
:103E580009F0AAEC22F005C016F006C017F007C05A
:103E680018F01200195020261A5021221B50222225
:103E78001200D890183217321632D8901200166AEB
:103E8800176A186A1200880E4CEC27F008C087F0F1
:103E980009C088F08A0E4CEC27F008C093F109C0DD
:103EA80094F18C0E4CEC27F008C091F109C092F106
:103EB8008E0E4CEC27F008C0F4F109C0F5F1900E15
:103EC8004CEC27F008C08FF109C090F1920E4CEC31
:103ED80027F008C08DF109C08EF1940E4CEC27F044
:103EE80008C08BF109C08CF1960E4CEC27F008C085
:103EF80089F109C08AF1980E4CEC27F008C087F1C7
:103F080009C088F19A0E4CEC27F008C085F109C069
:103F180086F19C0E4CEC27F008C083F109C084F1AF
:103F28009E0E4CEC27F008C081F109C082F1CC0E3E
:103F3800076EF50EB2EC2BF0B70E076EF40EB2EF6B
:103F48002BF027C029F02A6A2B6A2634293601E388
:103F58002A802950336E335005E1256A266A276A7C
:103F6800286A1200170E296E25C02AF026C02BF0E9
:103F780027C02CF029282D6E04D0D8902C322B3253
:103F88002A322D2EFAD72A502E6E268E276A2550D1
:103F98002F6E2650306E2750316E326A8E0E335E89
:103FA80033AE0CD03350800A8F0FD7E3D89032321B
:103FB800313230322F32333EF9D70CD0170E3364FA
:103FC80007D0CBD7D8902F36303631363236330635
:103FD8003350F8E12E5008E0321E311E301E2F6C8F
:103FE800000E3022312232222FC025F030C026F0B8
:103FF80031C027F032C028F012001D6E19500E088B
:10400800056E000ED8A0E82A0008066E086A0C0E95
:10401800076E67EC24F005501F6E1F501A5C206E67
:104028001F500C0DF3501924FE0F1E6E010E086E62
:10403800900E076E20C005F0066A67EC24F0205049
:104048001DC01BF01C6A1B26000E1C222040E842E3
:104058003F0B1B26000E1C2221D8086A0C0E076E87
:104068001E501F0DF3CF05F0F4CF06F067EC24F0D7
:1040780015D8640E056E2050A7EC29F01B5E000EC3
:104088001C5A580E1B24136E1B0E1C20146E166A25
:10409800070E156E87EC25F01350120005501B26ED
:1040A80006501C2212006D0EF66E590EF76E000EA9
:1040B800F86E01EEF6F010EE04F00900F5CFEEFF11
:1040C800E550E150FAE1640EF66E590EF76E000EF7
:1040D800F86E00EEFAF010EE05F00900F5CFEEFFED
:1040E800E550E150FAE1690EF66E590EF76E000ED2
:1040F800F86E00EE75F010EE04F00900F5CFEEFF53
:10410800E550E150FAE103EE00F0FA0EEE6AE80637
:10411800FDE102EE00F0A60EEE6AE806FDE101EE12
:1041280000F0F60EEE6AE806FDE100EE80F07A0E89
:10413800EE6AE806FDE1746A7A6A796A7B907B9296
:10414800000EF86E00011BEF26F00F6E8B848B9229
:104158000EC091F01C0E0C6EBE0E0D6E94EC2BF082
:10416800170E0C6EBE0E0D6E41EC2CF00FC007F052
:10417800050E0DEC2CF0076A110E0DEC2CF00EC09C
:1041880007F0120E0DEC2CF0076A130E0DEC2CF054
:10419800076A140E0DEC2CF0076A150E0DEC2CF0C6
:1041A800076A160E0DEC2CF0260E076E060E0DECA7
:1041B8002CF0080E076E000E0DEC2CF0030E076EA7
:1041C800010E0DEC2CF0030E076E020E0DEC2CF018
:1041D8004F0E076E040E0DEC2CF0076A1C0E0DEC4A
:1041E8002CF073EF29F01E6ACB0E1E24E7EC25F0A5
:1041F800DF6A1E2A200E1E64F7D7040E0C6ECB0E43
:104208000D6E010E0E6E040EB1EC23F0086A640EFA
:104218002ED80AEC28F005EC04F072EC28F01CD833
:104228000C0EEEEC23F0086A0A0E21D80AEC28F0EE
:1042380005EC04F072EC28F00FD8120EEEEC23F027
:104248001CC00CF01DC00DF038EC0BF072EC28F01F
:1042580003D8180EEEEF23F00C50116E75C012F053
:1042680076C013F0CB0E146E010E156E1200076E99
:104278001CC005F01DC006F01200136E156A166A00
:104288001350B90F1624D96EDA6A155007080E6E46
:104298000D50030DE10E0F6EBD0E106EF3500F267C
:1042A800F450102216500F26000E10220FC0F6FFF1
:1042B80010C0F7FF0800F5CF11F00E2A02D0D890F1
:1042C80011320E2EFCD71350B90F1624E16EE26A94
:1042D800E750126ED89012341110DF6E162A020EB3
:1042E8001664CED7146A0D0E0E6EFC0EE82EFED79D
:1042F8000E2EFCD7142A270E1464F5D7B90E076EB4
:10430800AFEC28F0152A070E1564B9D7070C196EFB
:104318001B6A1C6A1950B90F1C24D96EDA6A1B5023
:104328000708146E1150050D12C015F013C016F0D1
:10433800F3501526F45016221C501526000E16228E
:1043480015C0F6FF16C0F7FF0800F5CF17F0142ABE
:1043580002D0D8901732142EFCD71950B90F1C244C
:10436800E16EE26AE750186ED89018341710DF6EC5
:104378001C2A040E1C64CED71A6A0D0E146EFC0E8D
:10438800E82EFED7142EFCD71A2A270E1A64F5D762
:10439800B90E076EAFEC28F01B2A070E1B64B9D7BD
:1043A800070C0B6A84909690140E096E7A0EE82E0C
:1043B800FED7092EFCD79680640EE82EFED784B06F
:1043C800010CA00E00D0E82EFDD784A0020CA00E90
:1043D80000D0E82EFDD70C6A17EC2BF007C0D9FFE8
:1043E80008C0DAFFDF6E074A082A0C2A040E0C649C
:1043F800F3D70C6A0C500724096E000E08200A6EC9
:10440800FB0E0924D96EFF0E0A20DA6EDF500B2648
:104418000C2A030E0C64EED72FEEFFF00750D926B6
:104428000850DA220B50DE1802E07480030C7490F6
:10443800000C0550061001E112000D6A1AD00D504B
:10444800EFEC1CF00550DE1813E10650DE1810E101
:10445800F29E0D50E7EC1CF02FD80D50FFEC1CF02D
:1044680026D80D50F7EC1CF0DE6ADD6AF28E000CDF
:104478000D2A79500D5CE3E30F0E79600F0CF29E64
:104488007950EFEC1CF005C0DEFF06C0DDFF795067
:10449800E7EC1CF011D87950FFEC1CF008D87950E3
:1044A800F7EC1CF0DE6ADD6A792AF28E000C09C08E
:1044B800DEFF0AC0DDFF120007C0DEFF08C0DDFF17
:1044C80012000D6A3FD00D50EFEC1CF00550DE18BD
:1044D80038E10650DE1835E1F29E0D50076E086A85
:1044E80009680A6879500B6E0C6A09500B260A5045
:1044F8000C2207500B1803E108500C181FE07950E4
:10450800076E086AD89007360836D89007360836F6
:10451800D89007360836F80E0724D96E000E082002
:10452800DA6E0D50080D000EF324E16E010EF42032
:10453800E26E070EDBCFE3FFE806FCE27906F28EB7
:1045480012000D2A79500D5CBEE31200085004E0F9
:1045580005500610071006E1056A066A076A120088
:10456800082A2DD80A6A0B6AFE0E07142DD807E010
:10457800F7D7082A052A000E0622072220D80A6A39
:104588000B6A075021D806E0F4D70806D8900536FC
:104598000636073606BE03D0020E0860F6D708A016
:1045A800069ED890083208500712095001E0078E7D
:1045B80005C005F006C006F007C007F01200D89045
:1045C80007320632053212000C6E0A500B100C101E
:1045D800120000019A510AE0942B1E0E946103D038
:1045E800800E8C1A03D0946B9A6B8C9EB551D8B4FC
:1045F8001200A251D8B41200FD6B92510BE1932B1B
:10460800140E936103D0800E8C1A04D0936B010EA4
:10461800926F8C9E920503E10101954B962B2D0E0E
:104628000101955D010E965905E3956B966B020E97
:104638000001926F020E00019219D8A41200932B68
:10464800140E936103D0800E8C1A800C936B926BBE
:10465800A26B8C9E12000D50D96EDA6A060E60ECC1
:104668002AF0DF6E0D50D96EDA6A0D5022D823EC8D
:104678002CF02DD8050E60EC2AF01F0B28D80C5012
:1046880018D823EC2CF019D8040E60EC2AF03F0B54
:1046980014D80B500ED823EC2CF014D8030E60EC71
:1046A8002AF0070B0FD80A5004D823EC2CF0DF6E41
:1046B8001200E16EE26AE7501200DF6E0B50D96E0D
:1046C800DA6A1200DF6E0A50D96EDA6A1200DF6EFB
:1046D8000C50D96EDA6A12000600D9CF03F0DACF8F
:1046E80004F0F2BAF2A403D084EC2CF030D0F2B883
:1046F800F2A211D0F292010EF1AC000EFF0A026E86
:10470800023A02460246F1500218BF0B0218F16E37
:1047180018EC25F01CD09DB09EA008D09E903C0EB1
:10472800CF6EB00ECE6E2EEC2CF011D0A0B2A1A29E
:1047380008D0A192F00EB36E600EB26EEDEC22F0CE
:1047480006D0F2BC9DAA03D09EBA22EC29F004C080
:10475800DAFF03C0D9FF7B921100126E010E116EB1
:10476800146A136A0C50070D890E0F6EB70E106E7F
:10477800F3500F26F450102214500F26000E10226A
:104788000FC0F6FF10C0F7FF0800F55011140BE03A
:1047980013C005F00DC006F00EC007F01250142427
:1047A800F0EC2AF00AD013C005F00DC006F00EC0D8
:1047B80007F0125014244AEC2AF0D8901136132A24
:1047C800070E1364CFD7010E116E142A060E146457
:1047D800C8D7060C196E010E186E1B6A1A6A11509A
:1047E800050D12C016F013C017F0F3501626F4503A
:1047F80017221B501626000E172216C0F6FF17C0E8
:10480800F7FF0800F55018140BE01AC005F014C0A3
:1048180006F015C007F019501B24F0EC2AF00AD056
:104828001AC005F014C006F015C007F019501B2473
:104838004AEC2AF0D89018361A2A070E1A64CFD7ED
:10484800010E186E1B2A040E1B64C8D7040C096AD3
:104858000950BA0FD96EDA6A0950E1EC25F0092A35
:104868001E0E0964F5D7040E0001A9650DD023D8E2
:1048780007E1A92B1F0EA965010CAA6BA96B000CF7
:10488800D86BA96BAA2B010C16D8050DE70E076E7D
:10489800B70E086EF3500726F4500822A9510726D0
:1048A800000E082207C0F6FF08C0F7FF0800F5CF82
:1048B800D8F0A92B010CAA510524D96E000E0620A8
:1048C800DA6EDF5012000A6A08AE06D0076C081EBE
:1048D800D8B0082A010E0A6E06AE06D0056C061E70
:1048E800D8B0062A010E0A1A0B6A0C6A075008107B
:1048F8001BE0010E096E04D0D89007360836092A45
:1049080008AEFAD7D8900B360C360750055C08501D
:10491800065805E30750055E0850065A0B80D890E4
:1049280008320732092EEED70A5004E00B6C0C1E31
:10493800D8B00C2A0BC005F00CC006F012000D6AA6
:104948000E6A0F6A106A09500A100B100C1029E041
:10495800010E116E06D0D89009360A360B360C3681
:10496800112A0CAEF8D7D8900D360E360F36103601
:104978000950055C0A5006580B5007580C50085847
:1049880009E30950055E0A50065A0B50075A0C50A5
:10499800085A0D80D8900C320B320A320932112E87
:1049A800E2D70DC005F00EC006F00FC007F010C02A
:1049B80008F012000F6A116A106AB30E0B6EB70E78
:1049C8000C6E0F500B26000E0C2211500B26000EF9
:1049D8000C220BC0F6FF0CC0F7FF0800F5CF0DF056
:1049E8001050B90FD96EDA6A0D50DF160F2A070E6C
:1049F8000F6401D00F6A102A1F0E1064DED7B90E9B
:104A0800076EAFEC28F00E6A0D0E0B6EFC0EE82E4A
:104A1800FED70B2EFCD70E2A630E0E64F5D7112A8B
:104A2800070E1164C9D7070C0001B851D8B4120099
:104A3800A02B080EA0191BE1A06B19D0360EC86F69
:104A4800C96F360C240E24D0240EC86FC96F240CED
:104A5800240EC86FC96B1200C86BC96B1200120E06
:104A6800F8D7120EC86FC96F120C120E11D0A051D0
:104A7800E5E0010AE7E0030AE7E0010AE9E0070ADE
:104A8800EBE0010AECE0030AECE0010AEEE01200B8
:104A9800C86F360EC96F360CEAC09FF0EBC09EF0A7
:104AA80016EC11F0ECEC25F0ED0E0A6EEE0E0B6E26
:104AB800EF0E0C6EF00E0D6E2FEC23F000019F51DF
:104AC800EA1901E07484030EEA1902E1010EFD6F90
:104AD800B15105E022EC11F08CEC1DF001D0F56B22
:104AE800060E0001EC65060C180EEC61180CEB5173
:104AF800D8A41200EA51D8A41200FD51D8B412006B
:104B0800010EA26F010C186A14AE06D0136C141EA5
:104B1800D8B0142A010E186E16AE04D0156C161EE5
:104B2800D8B0162A1550161017E0010E176E04D0CB
:104B3800D89015361636172A16AEFAD71550135CC4
:104B48001650145804E31550135E1650145AD89092
:104B580016321532172EF2D7185004E0136C141EB3
:104B6800D8B0142A13C013F014C014F01200100E99
:104B78000E6E0F0E0F6E0C6ACB0E0E2424D80E503C
:104B88001CD80E2ACB0E0F241ED80F5016D80F068D
:104B9800B90E076EAFEC28F00D6A0D0E0B6EFC0E09
:104BA800E82EFED70B2EFCD70D2A1D0E0D64F5D767
:104BB8000C2A0F0E0C64E0D70F0CB90FE16EE26AF5
:104BC800DFCFE7FF1200D96EDA6A010EDA2212008F
:104BD8000C5031EC2AF060EC2AF0DF6E0C50D96EE4
:104BE800DA6A0C505DEC23F023EC2CF016D8010E99
:104BF80060EC2AF012D80B505DEC23F023EC2CF07B
:104C080011D8020E60EC2AF03F0B0CD80A505DEC6C
:104C180023F023EC2CF0DF6E1200DF6E0B50D96E00
:104C2800DA6A1200DF6E0A50D96EDA6A1200820E52
:104C38000001FF6FDD0EE82EFED7FF2FFCD700D056
:104C480013EC17F053EC2CF00001B86B59EC29F079
:104C5800010EB86FF29EA80E056E130E9DEC17F0AC
:104C680099EC17F01DEC22F0E40E056E4E0E08D8F4
:104C7800010E096E1DEC22F0F28E82EC1CF0FDD7BD
:104C8800066E086A076A0A6A12000ED024EC27F03A
:104C980011C013F012C014F0166A050E156E87ECD9
:104CA80025F013500001A46F0001A451A319EEE0F0
:104CB800A4C0A3F0A451020DDD0EF324F66EB70EC6
:104CC800F420F76E0900F5CF8FF00A00F5CF90F0C9
:104CD8000500FA6E8F51FD6E9051FE6EF850FF6E12
:104CE800FA5012000E6A26D8DF501FE00C6A22D84C
:104CF8000E50B90FE16EE26AE7500B6ED8900B3494
:104D0800DF6EB90E076EAFEC28F00D6A0D0E0B6E54
:104D1800FC0EE82EFED70B2EFCD70D2A090E0D64CB
:104D2800F5D70C2A070E0C64E2D70E2A1F0E0E6464
:104D3800DAD71F0C0E50B90FD96EDA6A12000C6E52
:104D48000E6A24D00F6A0F50BA0FD96EDA6A0F5064
:104D5800E1EC25F00F2A1E0E0F64F5D70E50D90F7F
:104D6800D96EDA6ADF500001D86FB90E076EAFEC62
:104D780028F00D6A0D0E0B6EFC0EE82EFED70B2EDA
:104D8800FCD70D2A270E0D64F5D70E2A0E500C5CA1
:104D9800D9E21200640E0E6E0D6A0F6A0F50BA0F38
:104DA800D96EDA6A0F50E1EC25F00F2A1F0E0F6456
:104DB800F5D70001D86BB90E076EAFEC28F00C6A76
:104DC80008D00D0E0B6EFC0EE82EFED70B2EFCD76E
:104DD8000C2A0E500C5CF5E30A0E0E6401D00E5E30
:104DE8000D2A1F0E0D64D9D71F0C640E0E6E0D6AA6
:104DF8001F0E0F6E0F50B80FD96EDA6A0F50E1EC24
:104E080025F00F060F50F6E10001B96BB90E076ED9
:104E1800AFEC28F00C6A08D00D0E0B6EFC0EE82ED5
:104E2800FED70B2EFCD70C2A0E500C5CF5E30A0EAD
:104E38000E6401D00E5E0D2A1F0E0D64D9D71F0C0B
:104E4800F6C105F0F7C106F0F8C107F0F9C108F09E
:104E58006D0E096E4E0E0A6EC60E0B6E410E0C6E6E
:104E6800E4EC27F005C0F6F106C0F7F107C0F8F149
:104E780008C0F9F1390E0101F627300EF723000EAC
:104E8800F823F923F851116E7F0EF915126E1200EE
:104E98000C6E0F6A106AA1EC2CF0EC0E93EC2CF05F
:104EA8000C5093EC2CF0A5EC2CF0ED0E93EC2CF0C0
:104EB800010E73EC2BF00F6E106A000E73EC2BF0E2
:104EC8000D6E0E6A9DEC2CF00D500B6E0A6A0F5099
:104ED8000A10086E10500B10096E120081B202D031
:104EE800010E0BD081B402D0020E07D081B602D0D9
:104EF800030E03D081B803D0040E056E01D0056AF5
:104F080005500FE0290E00019961290C992B280EF4
:104F18009919D8A4120005C077F0996B010E9A6F01
:104F2800010C0001996B12008E0E156E06D0D890F8
:104F380010320F320E320D32152A116A126A136AB4
:104F48001050146E1150121013101410F0E10DC00F
:104F580005F00EC006F00FC007F015C008F0000EEF
:104F6800096EAAEC22F005C00DF006C00EF007C0CD
:104F78000FF0120019D0AF0E756EBD0E766E1200CE
:104F88007D0E756EBD0E766E12004B0E756EBD0EE3
:104F9800766E1200190E756EBD0E766E1200E70E53
:104FA800756EBC0E766E12007A50010AE4E0030AB0
:104FB800E7E0010AEAE0070AEDE0010AF0E0120082
:104FC8000D6A0E6A0F6A106A05A008D009500D26EE
:104FD8000A500E220B500F220C501022D89009367E
:104FE8000A360B360C36D8900832073206320532AC
:104FF8000550061007100810E7E10DC005F00EC0B7
:1050080006F00FC007F010C008F012000A6A0B6A19
:10501800075008101BE0010E096E04D0D89007361F
:105028000836092A08AEFAD7D8900A360B36075040
:10503800055C0850065805E30750055E0850065AF7
:105048000A80D89008320732092EEED70AC005F038
:105058000BC006F012000C6A1F0E0D6E0E6A0C5083
:1050680019D80C2A0D5016D80D06B90E076EAFECDC
:1050780028F00F6A0D0E0B6EFC0EE82EFED70B2ED5
:10508800FCD70F2A1D0E0F64F5D70E2A0F0E0E64DB
:10509800E6D70F0CB90FD96EDA6ADF6A12008B6A8D
:1050A800180E946E8A6A1F0E936EF19E8C6A956A2A
:1050B800896A010E926EC30EC216C150F00B0E091A
:1050C800C16ECF0EC116C050F80B0209C06EC08E5B
:1050D800C280F18CF292F288828012000E500F107A
:1050E80017E0010E106E04D0D8900E360F36102A35
:1050F8000FAEFAD70E500C5C0F500D5804E30E504B
:105108000C5E0F500D5AD8900F320E32102EF2D777
:105118000CC00CF00DC00DF0120082909490070E98
:10512800056E7D0EE82EFED7052EFCD700F0828096
:105138009480C80E00D0E82EFDD7000E82B0010E74
:10514800066E060E056E800EE82EFED7052EFCD7DD
:1051580000D0065012000A6A8C90096A0950F80DAE
:105168000750F3240A24D96EDA6A180ED926DF50BC
:10517800086E0A2807EC2AF0085007EC2AF0092ADA
:10518800030E0964EBD78C800A2A070E0A64E4D759
:10519800070C156E155004EC2BF0106E030ECEECB8
:1051A8002BF0125004EC2BF0106E040ECEEC2BF00A
:1051B800135004EC2BF0106E050ECEEC2BF01450AF
:1051C80004EC2BF0106E060ECEEF2BF0086E0A6A78
:1051D8000AC006F008C007F0062A02D0D8900732A5
:1051E800062EFCD70750096E010E091609504FEC20
:1051F8002BF00A2A070E0A64EBD7D20E00D0E82E4D
:10520800FDD71200076A086ADCEC2BF000090CE0F5
:1052180008C005F0010E066E052A02D0D8900636A1
:10522800052EFCD706500712F00E00D0E82EFDD749
:10523800082A070E0864E8D707501200ABA202D06C
:10524800AB98AB88000E000196250FD8AECFDFFFD4
:10525800962B950E966501D0966BA12BA105016E34
:10526800950E0164950CA16B1200D96EDA6A030ED3
:10527800DA221200056E00019751FDE09DB805D0B5
:105288009EA8FED705C0ADFF12009D98000E982578
:10529800D96EDA6A020EDA2205C0DFFF982B0F0EEC
:1052A800986501D0986B97071200B2EC12F0440E83
:1052B800136EBE0E146E210E156EBE0E166E020E05
:1052C800176EBE0E186E0E0E196EBE0E1A6E6BECB1
:1052D80013F0990E0B6E010E0C6E8DEF29F08B9466
:1052E800E20E8BEC2AF08B84700E076E070E0DEC25
:1052F8002CF08B920B0E076E000E0DEC2CF08B82AF
:10530800C00E00D000D0E82EFCD700D000D000D0CE
:10531800120010D0B90E076EAFEC28F00E6A0D0E11
:105328000D6EFC0EE82EFED70D2EFCD70E2A3B0E76
:105338000E64F5D70BC005F00CC006F02BEC24F07A
:105348000009E8E11200066E086A055014E0010E33
:10535800076E03D0D8900536072A05AEFBD7D8903C
:1053680008360550065C03E30550065E0880D890B1
:105378000532072EF4D7085012008C80010E076EF4
:105388000C0EA3EC2BF0076A090EA3EC2BF0070E0A
:10539800076E0B0EA3EC2BF0020E076E0A0EA3ECA1
:1053A8002BF0076A0F0EA3EF2BF0146E135004ECCA
:1053B8002BF0106E000ECEEC2BF0125004EC2BF0FC
:1053C800106E010ECEEC2BF0145004EC2BF03F0BBA
:1053D800106E020ECEEF2BF00A6E8B940A508BECF7
:1053E8002AF00B6A0BD007C0F6FF08C0F7FF0800C9
:1053F800F5508BEC2AF0074A082A0B2A09500B5C57
:10540800F2E38B841200056E066A05AE02D08C8426
:1054180001D08C948C8200F000F000F000F000F0D5
:1054280000F000F08C92D8900536062A070E066424
:10543800ECD7070C096E8B9409508BEC2AF00A6A9A
:1054480007D007500A2409D88BEC2AF0DF6E0A2A05
:1054580008500A5CF6E38B841200D96EDA6A000CF5
:105468000001FB5103E13A0EFA5D05E3030E076EF6
:105478000A0EA3EF2BF0FB5108E1330EFA5DD8B00A
:105488001200076A0A0EA3EC2BF012000B6E05C07F
:1054980008F0010E096E082A02D0D8900936082EA5
:1054A800FCD7091C0A6E0B500624D96E000E072083
:1054B800DA6E0A50DF161200086EA1EC2CF0D00E3E
:1054C80093EC2CF0085093EC2CF0A5EC2CF0D10EBA
:1054D80093EC2CF0000E73EC2BF0096E9DEC2CF085
:1054E80009501200948C948EAC84AC98AC8AAB882A
:1054F800AB8EB886040EB06E100EAF6E0001986BBE
:10550800100E976F966B956BA16B9D8A1200056EB6
:10551800066A05AE02D08C8801D08C98D8900536E2
:105528008C8A010E83A6000E05128C9A062A070E95
:105538000664EFD70550120091EC28F00009D8A4B2
:105548001200CC0EEAEC28F04E0EEAEC28F0000E21
:10555800EAEC28F0000EEAEC28F07F0EEAEF28F0DB
:1055680005C007F006C008F002D0074A082A07C09D
:10557800D9FF08C0DAFFDF50F8E10550075C056E77
:1055880006500858066E1200FA0E7AEC1EF008C093
:105598002DF009C02EF00AC02FF00BC030F02DC03E
:1055A80029F02EC02AF02FC02BF030C02CF01200AA
:1055B800F70E7AEC1EF008C02DF009C02EF00AC0D4
:1055C8002FF00BC030F02DC029F02EC02AF02FC0CC
:1055D8002BF030C02CF012000A6E05C008F0010E46
:1055E800096E082A02D0D8900936082EFCD70A502E
:1055F8000624D96E000E0720DA6E0950DF12120059
:105608000F6E0A0E096E0F502AEC2BF00D6E0F0E5E
:105618000D160A0E056E0F50A7EC29F00E6E0E3807
:10562800F00B0D101200066AD8900536968084A0FB
:10563800FED7640EE82EFED784B0058084B0FED76E
:10564800062A070E0664F0D7055012000A6E080EE7
:105658000B6E0C6AD8900A340C340C6ED8900A364B
:1056680009500C5C02E309500C5E0B2EF3D70C506A
:105678001200A151FEE0000E952539EC29F0DF500B
:10568800056E952B950E956501D0956B9D9AA10792
:105698009D8A05501200056E82909490050406E1DB
:1056A800060EE82EFED700D082809480D20E00D05D
:1056B800E82EFDD7828094801200066EA6B2FED72F
:1056C80006C0A9FF05C0A8FFA69EA69CA684F29EB8
:1056D800550EA76EAA0EA76EA682F28EAA0C066EAB
:1056E8007CEC2CF0C5867CEC2CF0C9CF07F07CEC68
:1056F8002CF0065002E1C58A01D0C59AC58807502A
:105708001200C282C2B2FED7C450066E056AC350E8
:105718000524FA6F000E0620FB6F00F000F012005F
:1057280007D82A0EF0EC29F003D8300EF0EF29F054
:105738000CC007F00DC008F0050E096E050C086EC8
:105748008C90096A085007EC2AF0075007EC2AF0F9
:10575800092A030E0964F6D78C80030C086EA1ECA5
:105768002CF0EC0E93EC2CF0085093EC2CF0075036
:1057780093EC2CF09DEF2CF0CD903C0ECF6EB00E3C
:10578800CE6E9D80B192B180A082F00EB36E600E95
:10579800B26E600C116EA1EC2CF0D00E93EC2CF0D4
:1057A800115093EC2CF0105093EC2CF09DEF2CF052
:1057B80082909490030EE82EFED700F082809480A9
:1057C800140EE82EFED782B0010C000C0BC007F0B7
:1057D80091C008F0610E1EEC2AF0400E076E070E0D
:1057E8000DEF2CF0076E8B9407508BEC2AF0000E0F
:1057F8008BEC2AF0086E8B8408501200180E941255
:10580800280EC66EC76A630EC86EC584C5A412008A
:10581800FDD7086E8B94085020098BEC2AF00750AE
:105828008BEC2AF08B84120074EC2CF00A6E0ABC04
:10583800010C8CEC2CF00009D8B4010C000C066E9D
:1058480006C005F00F0E051606380F0B0A0DF350AB
:10585800052412000001F72B950EF765950CF76BE0
:10586800010EF66FCD90010C106A0E0ECEEC2BF0E7
:10587800080E106E0F0ECEEF2BF00CC007F00DC007
:1058880008F0050E096E2B0EF0EF29F0A6B2FED730
:1058980005C0A9FFA69EA69CA680A8501200056A6E
:1058A80005504EEC28F0052A1F0E0564F9D71F0C89
:1058B80005C0F6F106C0F7F10101F86BF96B1200AB
:1058C8009586959894929494959A958C8B841200C9
:1058D800C70ED56EF28AD76A3D0ED66E796A120067
:1058E8008B94FF0E8BEC2AF0076E8B840750120006
:1058F800C7B4FED7C5CF05F01F0E0516F9E11F0C7A
:10590800F294D76A3D0ED66E010E0001AF6F010CFE
:10591800170EF6EC2BF0096E0950010B1200066EFB
:105928007CEC2CF006C0C9FF1200966B956BA16B3E
:1059380012007CEC2CF0C58412007CEC2CF0C580A5
:1059480012007CEC2CF0C5821200959E8C9E1200F1
:10595800F28EF28C1200040E776E040CF4012B0107
:0959680002AFBD050101000000C1
:10B788000000000000000000087C4E4F4E7C0804BA
:10B7980026473F070604203E7F7F3F3E207E121E3D
:10B7A800007010004C6C30186C6400FDBFEF7FFB1C
:10B7B800DFF7FEFDBFEF7FFBDFF7FE0001010202AE
:10B7C800030404050606070708090901000A0064BE
:10B7D80000E8031027BC499C4DF24D5E50EC4C002C
:10B7E800000000004551453E006B6F6B3E003E7CFB
:10B7F8003E1C003C7E3C1800367F363000000000BE
:10B808000000000000000000000000000000000030
:10B818000000000000000000000000000000000020
:10B828000000000000000000000000000000000010
:10B838000000000000000000000000000000000000
:10B8480000000000000000000000000000000000F0
:10B8580000000000363600000024360000002424D2
:10B86800000000240000000000000000001200009A
:10B87800000012120000001236000000123600000C
:10B888000000000000005F00000007000700147FB0
:10B89800147F14242A7F2A12231308646236495617
:10B8A80020500008070300001C2241000041221C10
:10B8B800002A1C7F1C2A08083E08080080703000F7
:10B8C8000808080808606000000020100804023E0C
:10B8D8005149453E00427F4000426151494621415D
:10B8E800454B311814127F1027454545393C4A49C4
