:020000040000FA
:0400000007EF00F016
:100008007B820CED23F0BFEF20F00001A4510DE03E
:10001800DFEC2AF0176E000E9F25D96EDA6A020E01
:10002800DA2217C0DFFF9F2B1200240E02010019ED
:1000380001E128D354D3ABDB0001826F02019BDBC3
:100048000001816F02019DDB0001806FF7510CE018
:10005800825105E17BDB170E91EC29F009D076DBA4
:10006800820591EC29F004D071DB825191EC29F0E2
:100078004F0E2AEC29F04B0E2AEC29F030D337DB4F
:1000880019041A1005E033DB020E19181A1018E1CA
:100098000251D00F7A6E7AC005F0010E03EC2BF0F6
:1000A80006EC2CF07A0403E10001B86B01D059DBAF
:1000B800A36B4F0E2AEC29F04B0E2AEC29F00FD334
:1000C800450E2AEC29F0520E2AEC29F008D3010E2D
:1000D80039DB03EC2BF072EC27F022D0020E32DB76
:1000E80003EC2BF0F8D7030E2DDB03EC2BF0F3D742
:1000F800040E28DB03EC2BF0EED7050E23DB03EC14
:100108002BF0E9D7F4DA1A500BE11950010ADFE0B5
:10011800030AE4E0010AE7E0070AEAE0010AEDE081
:10012800D00E176E186802010251F4DA1ABE05D013
:100138001A5007E1060E195C04E2D9DA19501A10B0
:1001480007E1450E2AEC29F0520E2AEC29F0C7D215
:100158004F0E2AEC29F04B0E2AEC29F0C0D20BDB0B
:10016800126E0FDB136E08510A0DF3500925F00FBC
:10017800146E0DDB81EC28F04F0E2AEC29F04B0EA3
:100188002AEC29F0ACD2B3DA19501A1004E0AFDA2D
:1001980019041A100CE10251D00F756E0351D00FDB
:1001A800746E75C005F0020E03EC2BF007D0450EF7
:1001B8002AEC29F0520E2AEC29F091D2755009E167
:1001C80074C005F0030E03EC2BF043EC18F056EC6A
:1001D8002BF04F0E2AEC29F04B0E2AEC29F07FD297
:1001E80086DA19501A1004E082DA19041A100AE1A2
:1001F8000251D00F0001B76FB7C005F0040E03EC31
:100208002BF007D0450E2AEC29F0520E2AEC29F0E3
:1002180066D24F0E2AEC29F04B0E2AEC29F05FD259
:1002280066DA19501A1004E062DA19041A101EE18D
:1002380084DA70DA19501A1005E07FDA6BDA1904DB
:100248001A1014E10251D00F0001B66F02010351D8
:10025800D00F0001B56FB6C005F0050E03EC2BF00A
:10026800B5C005F0060E03EC2BF007D0450E2AECBE
:1002780029F0520E2AEC29F032D24F0E2AEC29F03E
:100288004B0E2AEC29F02BD232DA19501A1004E05E
:100298002EDA19041A100AE10251D00F0001B46FC6
:1002A800B4C005F0070E03EC2BF007D0450E2AEC7E
:1002B80029F0520E2AEC29F012D24F0E2AEC29F01E
:1002C8004B0E2AEC29F00BD212DA19501A1004E05E
:1002D8000EDA19041A1009E10251D00F736E73C0B7
:1002E80005F0080E03EC2BF007D0450E2AEC29F098
:1002F800520E2AEC29F0F3D14F0E2AEC29F04B0EBE
:100308002AEC29F0ECD1F3D919041A1005E0EFD939
:10031800020E19181A100AE10251D00F0001FF6FDE
:10032800FFC005F0090E03EC2BF007D0450E2AECB0
:1003380029F0520E2AEC29F0D2D14F0E2AEC29F0DE
:100348004B0E2AEC29F0CBD1D2D919041A1004E0AB
:10035800CED919501A100AE10251D00F0001B36F1B
:10036800B3C005F00A0E03EC2BF007D0450E2AECBB
:1003780029F0520E2AEC29F0B2D14F0E2AEC29F0BE
:100388004B0E2AEC29F0ABD14F0E2AEC29F04B0E7C
:100398002AEC29F0330E186EBB0E176EE00EE82E0D
:1003A800FED7172EFCD7182EFAD7330E186EBB0EB1
:1003B800176EE00EE82EFED7172EFCD7182EFAD7A8
:1003C800330E186EBB0E176EE00EE82EFED7172EF2
:1003D800FCD7182EFAD7330E186EBB0E176EE00E28
:1003E800E82EFED7172EFCD7182EFAD7FF0077D1A4
:1003F800740E021902E1030E04D0700E021903E113
:10040800020E796E07D0450E2AEC29F0520E2AEC1E
:1004180029F065D14F0E2AEC29F04B0E2AEC29F071
:100428005ED1610E021920E11B6A0BD0030E1B245A
:10043800D96EDA6A020EDA22960E1B2478EC16F0D0
:100448001B2AFD0E176E1868000E056E020E066E4A
:1004580055EC2AF017500526185006221B50055C4B
:10046800000E065816E3E2D7750E021907E1000ED2
:10047800096E020E0A6EDEEC15F00BD06F0E021933
:1004880008E171924F0E2AEC29F04B0E2AEC29F064
:1004980026D14F0E2AEC29F04B0E2AEC29F0EEC09B
:1004A800A1F071820001B86B7DD986EC22F07FD96A
:1004B80086EC22F0D9EC18F086EC22F07DD986EC97
:1004C80022F06BD9F2EC28F09DEC17F03EEC22F00C
:1004D80048D905D1086A640E3ED9BEEC27F012D976
:1004E80026EC28F00C50300F2AEC29F0086A0A0E86
:1004F80032D9BEEC27F006D926EC28F00C50300F84
:100508002AEC29F0FBC00CF0FCC00DF03AEC09F025
:1005180026EC28F00C50300F2AEC29F05F0E2AEC5C
:1005280029F0A9D01B6A0B0E1B6401D00AD0060E55
:100538001B24F66EF76ABE0E44D92AEC29F01B2A52
:10054800F2D71B6A080E1B6401D095D0120E1B242B
:10055800F66EF76ABE0E35D92AEC29F01B2AF2D7B7
:100568000001FD512AEC29F0086A640EE0D8BEECBF
:1005780027F0C8D826EC28F00C50300F2AEC29F0C8
:10058800086A0A0ED4D8BEEC27F0BCD826EC28F0AE
:100598000C50300F2AEC29F04EEC09F03AEC09F037
:1005A80026EC28F00C50300F2AEC29F05F0E2AECCC
:1005B80029F0086A640EB5D8BEEC27F0A3D826EC5B
:1005C80028F00C50300F2AEC29F0086A0A0EA9D836
:1005D800BEEC27F097D826EC28F00C50300F2AEC08
:1005E80029F0F5EC0EF03AEC09F026EC28F00C5066
:1005F800300F2AEC29F05F0E2AEC29F03CD0086A6B
:10060800640EB3D8BEEC27F07DD826EC28F00C5049
:10061800300F2AEC29F0086A0A0EA7D8BEEC27F09A
:1006280071D826EC28F00C50300F2AEC29F08BC03A
:100638000CF08CC00DF03AEC09F026EC28F00C50C8
:10064800300F2AEC29F05F0E2AEC29F014D0450E61
:100658002AEC29F0520E2AEC29F00DD00251610A39
:1006680001E138D7050ACBE0100A01E179D7020A7F
:1006780001E158D7ECD74F0E2AEC29F04B0E2AECA3
:1006880029F02DD00151530A01E1CBD6320A01E1FC
:10069800C7D5030A01E177D5010A01E1F0D4070AB9
:1006A80001E15DD5010A01E1EFD5030A01E12AD58F
:1006B800170A01E19DD6030AD1E0010A01E190D5AC
:1006C800070A01E1B8D4020A01E11DD6010A01E1D5
:1006D800FBD50E0A01E138D6030A01E155D602011D
:1006E800006B016B026B00019F6B54EF2CF0D00E76
:1006F800176E18680251196E1A6A17501926185081
:100708001A22120005C00CF006C00DF00F6A0A0E7E
:100718000E6E0A0C196E1A6A1750192618501A22EA
:100728001200076EF5C005F0F6C006F01200076E5D
:1007380091C005F092C006F01200D00E176E18682E
:1007480003511200766E76C005F0000C81C012F0DD
:1007580080C013F01200076EFBC005F0FCC006F065
:100768001200010E0001B86F010C076E8BC005F076
:100778008CC006F0120004510A0DF3500525F00F45
:10078800120006510A0DF3500725F00F120002510E
:100798000A0DF3500325F00F1200960E0B6E030E90
:1007A8000C6E1200720E056E1B0E066E1200540EB1
:1007B800056E0F0E066E1200FE0E056E2C0E066EEE
:1007C8001200F7220800F550120069EC2AF029C03F
:1007D80053F02AC054F02BC055F02CC056F07DECD5
:1007E8002AF029C047F02AC048F02BC049F02CC095
:1007F8004AF00B0E8EDBD8903534396E36343A6EAB
:1008080037343B6E38343C6E030E3D6E53C03EF0B9
:1008180054C03FF055C040F056C041F03D6601D08D
:1008280007D04134413240323F323E323D2EF6D776
:1008380039503E5C056E3A503F58066E3B50405862
:10084800076E3C504158086EA3C109F0A4C10AF0D4
:1008580048DB98EC27F0346601D003D006DB342E51
:10086800FAD712DB0C0E55DB040E396E53C03AF082
:1008780054C03BF055C03CF056C03DF0396601D03D
:1008880003D050DB392EFAD735503A5C056E365016
:100898003B58066E37503C58076E38503D58086E26
:1008A800000187513E6E88513F6E406A416A040ECE
:1008B800426E53C043F054C044F055C045F056C092
:1008C80046F0426601D007D04634463245324432BB
:1008D8004332422EF6D73E50435C096E3F5044588F
:1008E8000A6E405045580B6E415046580C6E98ECB5
:1008F80027F0346601D003D0B8DA342EFAD7BBDA41
:100908000E0E346EFDDAA1C109F0A2C10AF0E9DACF
:1009180098EC27F0346601D003D0A7DA342EFAD742
:10092800BCDA5B5063244F6E5C506420506E5D509F
:100938006520516E5E506620526E4FC005F050C063
:1009480006F051C007F052C008F0050E096E0A6A99
:100958000B6A0C6A98EC27F0800E0524346E000EA2
:100968000620356E000E0720366E000E0820376E02
:1009780035C034F036C035F037C036F0376A36BE89
:10098800376834C04BF035C04CF036C04DF037C036
:100998004EF032C0D9FF33C0DAFF4BC0DEFF4CC087
:1009A800DEFF4DC0DEFF4EC0DEFF4FC034F050C04A
:1009B80035F051C036F052C037F03734B9DA000E8E
:1009C8003424636E060E3520646EFF0E3620656E85
:1009D800FF0E3720666E0B0E0EDA98EC27F03466A1
:1009E80001D003D042DA342EFAD745DA89DA97C132
:1009F80009F098C10AF075DA98EC27F04EDA99C137
:100A080005F09AC106F052DA98EC27F0D890053430
:100A1800346E0634356E0734366E0834376E34500B
:100A28005B2635505C2236505D2237505E2201012C
:100A38009B51346E9C51356E366A376A35C037F033
:100A480034C036F0356A346A020E386E5BC039F04D
:100A58005CC03AF05DC03BF05EC03CF0386601D047
:100A680007D03C343C323B323A323932382EF6D752
:100A7800345039245B6E35503A205C6E36503B203A
:100A88005D6E37503C205E6E0D0EB5D998EC27F0A0
:100A9800346601D003D0E9D9342EFAD7ECD9120E36
:100AA800346E030E356E9DC105F09EC106F0000E32
:100AB8000BDA98EC27F005C036F006C037F007C00F
:100AC80038F008C039F0356601D007D039343932EA
:100AD800383237323632352EF6D79FC105F0A0C1ED
:100AE80006F0E4D998EC27F0C0D9055036243A6EC0
:100AF800065037203B6E075038203C6E085039208E
:100B08003D6E346601D003D00DDA342EFAD73AC0E0
:100B180063F03BC064F03CC065F03DC066F00F0E6A
:100B2800346E000E6324056E800E6420066E000E7F
:100B38006520076E000E6620086EE0C109F0E1C16D
:100B48000AF00B6A0C6A98EC27F0346601D003D0DF
:100B58008CD9342EFAD798D9635064106510661072
:100B680001E112000C0E346E5BC035F05CC036F04B
:100B78005DC037F05EC038F0346601D004D0383438
:100B8800DCD9342EF9D747C039F048C03AF049C00B
:100B98003BF04AC03CF0391E3A1E3B1E3C1E392A27
:100BA800000E3A223B223C223550395C3D6E3650CD
:100BB8003A583E6E37503B583F6E38503C58406E5E
:100BC800000E3D24056E000E3E20066E100E3F20DE
:100BD800076E000E4020086E350E096E0C0EB2D955
:100BE80098EC27F005C05FF006C060F007C061F020
:100BF80008C062F0800E625C15E2D8905F34116E16
:100C08006034126E6134136E6234146E70D9B9ECAC
:100C180024F011C05FF012C060F013C061F014C07E
:100C280062F014D05FC011F060C012F061C013F020
:100C380062C014F05CD9B9EC24F0D89011345F6E1E
:100C48001234606E1334616E1434626E5FC034F017
:100C580060C035F061C036F062C037F0040E02D0D3
:100C6800D89066D9E82EFCD734C005F035C006F018
:100C780036C007F037C008F05FC038F060C039F000
:100C880061C03AF062C03BF0040E05D0D8903B3208
:100C98003A3239323832E82EF9D738C009F039C03B
:100CA8000AF03AC00BF03BC00CF098EC27F00E0E9F
:100CB80005D0D8900832073206320532E82EF9D727
:100CC800DAD80C0E346E91C105F092C106F0000E10
:100CD800FBD898EC27F0346601D003D0C6D8342E60
:100CE800FAD7D2D80D0E346E5FC035F060C036F03A
:100CF80061C037F062C038F0030E02D0D8901DD919
:100D0800E82EFCD735C005F036C006F037C007F02E
:100D180038C008F093C109F094C10AF0E2D898EC01
:100D280027F0346601D003D0A0D8342EFAD7B5D82E
:100D3800040E346E95C135F096C136F0000E36BEFD
:100D4800FF0E376E386E63503524396E6450362086
:100D58003A6E655037203B6E665038203C6E5B50CB
:100D680039243D6E5C503A203E6E5D503B203F6E0C
:100D78005E503C20406E346601D007D0403440328B
:100D88003F323E323D32342EF6D75F503D245F6EFF
:100D980060503E20606E61503F20616E625040207E
:100DA800626E5FC005F060C006F061C007F062C007
:100DB80008F0E80E096E030EC5D898EC27F005C0B8
:100DC80011F006C012F007C013F008C014F0140E9A
:100DD800156E340E166E176A186AB9EC24F0315085
:100DE800D96EDA6A11C0DEFF12C0DEFF13C0DEFF63
:100DF80014C0DEFF1200346E020E356E63C036F08A
:100E080064C037F065C038F066C039F0356601D087
:100E180007D039343932383237323632352EF6D7B0
:100E280036C005F037C006F038C007F039C008F002
:100E3800020E3A6E63C03BF064C03CF065C03DF002
:100E480066C03EF03A6601D007D03E343E323D32AD
:100E58003C323B323A2EF6D73BC009F03CC00AF090
:100E68003DC00BF03EC00CF01200083408320732C7
:100E780006320532120005C057F006C058F007C008
:100E880059F008C05AF0120005C063F006C064F0BB
:100E980007C065F008C066F0120005C05BF006C028
:100EA8005CF007C05DF008C05EF01200000E06BEE0
:100EB800FF0E076E086E63C009F064C00AF065C0D3
:100EC8000BF066C00CF0120006BEFF0E076E086E2F
:100ED80057C009F058C00AF059C00BF05AC00CF0BE
:100EE8001200000E0ABEFF0E0B6E0C6E120063C0DD
:100EF80015F064C016F065C017F066C018F012004F
:100F080057C005F058C006F059C007F05AC008F09D
:100F18001200346E00018751356E8851366E376A7B
:100F2800386A12003D343D323C323B323A321200CC
:100F380037323632353234321200383237323632BE
:100F4800353212000A6E0B6A0C6A120078D106EC70
:100F58002CF071A618D0020E8DD9000E8BEC23F060
:100F6800450E116E7AD9090EACEC21F0720E116E95
:100F780074D90F0EACEC21F0720E116E6ED9150EED
:100F8800ACEC21F045D10001912903E1922901E15E
:100F980028D1FF0503E09151921175E17BD966D9FB
:100FA80026EC28F00C50326E91C005F092C006F085
:100FB8008FD9BEEC27F005C034F006C035F0050E19
:100FC800326402D0344A352A7ED982D9BEEC27F061
:100FD800055006102EE1020E4DD9030E8BEC23F0BE
:100FE8003450351016E0FDC011F037D90D0EACECB9
:100FF80021F055D93BD926EC28F00C5028D9130EEE
:10100800ACEC21F0B00E116E28D9190EACEC21F021
:10101800FFD045D92BD926EC28F00C5018D90D0E45
:10102800ACEC21F0B00E116E18D9130EACEC21F017
:10103800EFD0020E1FD9000E8BEC23F0FDC011F08B
:101048000CD9090EACEC21F0086A0A0E076E3BD9E0
:10105800BEEC27F086EC03F026EC28F00C50F7D80D
:101068000F0EACEC21F01BD901D926EC28F00C505E
:10107800EED8150EACEC21F0B00E116EEED81B0EAA
:10108800ACEC21F0C5D0200E336E335002EC28F0C2
:10109800332A300E3364F9D7086A640E9BEC03F0E8
:1010A800BEEC27F086EC03F026EC28F00CC02CF000
:1010B8000DC02DF0086A0A0E9BEC03F0BEEC27F079
:1010C80086EC03F026EC28F00CC02EF00DC02FF0B3
:1010D800E1D8CCD826EC28F00CC030F00DC031F0A7
:1010E800A50EE6D82CC015F02DC016F02EC017F0AE
:1010F8002FC018F0F6D830C01BF031C01CF0ECD867
:1011080038EC15F0300E0101A51939E0020EB2D8FD
:10111800030E8BEC23F0FDC011F09FD80B0EACEC46
:1011280021F0C2D894D8110EACEC21F0A8D88FD8F1
:10113800170EACEC21F0A7C111F08FD81D0EACEC46
:1011480021F00101A851D00F9DEC0AF0200EC8EC47
:1011580023F0A9C111F0DFEC10F0260EC8EC23F043
:10116800330E2B6EBB0E2A6EE00EE82EFED72A2E0B
:10117800FCD72B2EFAD70A0E7DEC26F049D0020EAA
:1011880079D8010E8BEC23F0FDC011F066D80B0E58
:10119800ACEC21F074D85BD8110EACEC21F0A7C1EF
:1011A80011F05BD8170EACEC21F0F1EC0EF04FD833
:1011B8001A0EACEC21F0A9C111F0DFEC10F0200EF2
:1011C800C8EC23F0330E2B6EBB0E2A6EE00EE82E11
:1011D800FED72A2EFCD72B2EFAD7080E7DEC26F048
:1011E80017D0020E47D8000E8BEC23F02D0E116E8F
:1011F80034D8090EACEC21F02D0E116E2ED80F0E3E
:10120800ACEC21F02D0E116E28D8150EACEC21F0A7
:101218003AD856D827D83EEF22F0050E796E23EC3F
:1012280026F000EC12F0D4EC18F086EC22F0DBEC9F
:1012380003F086EC22F09DEC17F03EEF22F0795097
:10124800040AEBE0010A01E182D6030A1200116EDA
:1012580077C012F078C013F01200EB0E126EB70EC2
:10126800136E1200076E0A6A096A12000F6A0A0EE4
:101278000E6E0A0C0C6EB90E0D6E0E6A120001018C
:10128800A651D00F1200060E796ED40E056E580EB8
:10129800066E120091C00CF092C00DF0120034C01E
:1012A8000CF035C00DF012000101A551D00F12004D
:1012B800116E010E126E3D0E136EBE0E146E1200EC
:1012C800020E086E8A0C34C005F035C006F0120014
:1012D800086A0A0E076E0A0C000E1E6EB00E1D6E0E
:1012E800B00C000E1A6E2E0E196E2E0C1F6E19D130
:1012F8000001B86B206A39D9EC515FEC29F0CCECCD
:101308002AF000090AE031D9EC515FEC29F0CCEC65
:101318002AF018D9B90F46D903D0205002EC28F08A
:10132800D4EC12F0CCEC2AF00DD9BF0F3BD91DD963
:10133800EB515FEC29F0CCEC2AF004D9C60F32D976
:1013480037D9CCEC2AF0FED8CC0F2CD9202A040EA1
:101358002064D1D7206A09D9EA515FEC29F0CCEC96
:101368002AF01AD907D9D20F1DD9DEEC12F0CCEC2D
:101378002AF012D9FFD8D60F15D9202A020E2064D8
:10138800EAD70001BE6B800EC46FC56FCB6BD16B03
:10139800D56B1200010E0001B86F0FD95FEC29F070
:1013A800CCEC2AF00001B16F12D9CCEC2AF0000184
:1013B800B06F08D95FEC29F0CCEC2AF00001AF6FD0
:1013C8000AD9CCEC2AF00001AE6FB151AD1909E190
:1013D800B051AC1906E1AF51AB1903E1AE51AA19EE
:1013E8006FE0AE51AA1909E0F6D8CCEC2AF02BEC44
:1013F80009F0190EACEC21F007D0EDD8CCEC2AF0AE
:1014080098D8190EC8EC23F00001AF51AB190BE0C6
:10141800D9D85FEC29F0CCEC2AF02BEC09F0130EAC
:10142800ACEC21F009D0CED85FEC29F0CCEC2AF056
:1014380080D8130EC8EC23F00001B051AC1909E0B4
:10144800C6D8CCEC2AF02BEC09F0070EACEC21F056
:1014580007D0BDD8CCEC2AF06CD8070EC8EC23F026
:1014680084D8EC515FEC29F0CCEC2AF0000919E0A3
:101478000001B151AD190BE0A0D85FEC29F0CCEC1C
:101488002AF02BEC09F0010EACEC21F010D095D825
:101498005FEC29F0CCEC2AF04CD8010EC8EC23F014
:1014A80006D0116A31EC09F0010EACEC21F0B1C0A4
:1014B800ADF0B0C0ACF0AFC0ABF0AEC0AAF0120057
:1014C8007CD85FEC29F0CCEC2AF000090BE04DD871
:1014D800EC515FEC29F0CCEC2AF02BD8010EC8ECCB
:1014E80023F006D0116ADFEC10F0010EC8EC23F0EF
:1014F800D4EC12F0CCEC2AF01CD8070EC8EC23F080
:1015080034D8EB515FEC29F0CCEC2AF012D8130E4A
:10151800C8EC23F04DD8CCEC2AF00BD8190EC8EF44
:1015280023F01F50010A01E1E3D6030A01E132D793
:101538001200116E77C012F078C013F0B90E146E55
:10154800156A1200050D77C01DF078C01EF0F35023
:101558001D26F4501E2220501D26000E1E221DC0DE
:10156800F6FF1EC0F7FF205012000A0E096E056E26
:1015780000010A0CF3501D26F4501E2220501D268F
:10158800000E1E22030E1D26000E1E221DC0F6FF91
:101598001EC0F7FF20501200030DE50E1D6EBD0E94
:1015A8001E6E1200D96EDA6A0800F5CFDFFF12004E
:1015B8000A0E096E0001EB5112000A0E096E056E43
:1015C800EC5112000A0E096E056EEB5112000A0E5C
:1015D800096EEC5112000A0E096EEB5112003FD051
:1015E80067D986EC22F0820E056E270E066EA7ECF0
:1015F8000DF03EEC22F0E7EC10F03EEC22F08BEC24
:1016080014F037D055D986EC22F0D4EC18F086ECDB
:1016180022F09DEC17F03EEC22F07DEC1AF006EC7F
:101628002CF027D00001852B0C0E856502D0010E09
:10163800856FE7EC10F03EEC22F02FD981EC28F012
:1016480018D000018507855102E10C0E856FE7EC83
:1016580010F03EEC22F021D981EC28F00AD0795024
:10166800010ABEE0030ADEE0010AEBE0070ACAE06D
:10167800010A71A801D17B0EF66EBE0EF76E02D973
:10168800000EC8EC23F07C0EF66EBE0EF76EFAD88C
:10169800060EC8EC23F07D0EF66EBE0EF76EF2D87D
:1016A8000C0EC8EC23F0C8D0CC0EF66EBE0EF76E4A
:1016B800E9D8120EC8EC23F0CD0EF66EBE0EF76E0A
:1016C800E1D8180EC8EC23F0D7D0C30EF66EBE0EC4
:1016D800F76ED8D8120EC8EC23F0C40EF66EBE0E04
:1016E800F76ED0D8180EC8EC23F0C6D0A80EF66E48
:1016F800BE0EF76EC7D8120EC8EC23F0A90EF66E10
:10170800BE0EF76EBFD8180EC8EC23F0B5D09C0EED
:10171800F66EBE0EF76EB6D8120EC8EC23F09D0E0C
:10172800F66EBE0EF76EAED8180EC8EC23F0A4D035
:10173800B40EF66EBE0EF76EA5D8120EC8EC23F0E6
:10174800B50EF66EBE0EF76E9DD8180EC8EC23F0D7
:1017580093D0B70EF66EBE0EF76E94D8120EC8EC84
:1017680023F0B80EF66EBE0EF76E8CD8180EC8ECC5
:1017780023F082D0A50EF66EBE0EF76E83D8120E39
:10178800C8EC23F0A60EF66EBE0EF76E7BD8180EC8
:10179800C8EC23F071D004EC10F074D8120EC8EC29
:1017A80023F0FFEC0FF06ED8180EC8EC23F064D0CD
:1017B800AB0EF66EBE0EF76E65D8120EC8EC23F0AF
:1017C800AC0EF66EBE0EF76E5DD8180EC8EC23F0A0
:1017D80053D0990EF66EBE0EF76E54D8120EC8ECA2
:1017E80023F09A0EF66EBE0EF76E4CD8180EC8ECA3
:1017F80023F042D0BA0EF66EBE0EF76E43D8120E24
:10180800C8EC23F0BB0EF66EBE0EF76E3BD8180E72
:10181800C8EC23F031D0AE0EF66EBE0EF76E32D89D
:10182800120EC8EC23F0AF0EF66EBE0EF76E2AD875
:10183800180EC8EC23F020D000018551010A01E1FF
:1018480033D7030A01E141D7010A01E14FD7070A5B
:1018580001E15DD7010A01E16BD7030A01E179D7FC
:10186800010A88E00F0A97E0010AA2E0030AB1E042
:10187800010AC0E0070ACFE0B90E076E63EC28F052
:10188800718812000800F5CF11F0EB0E126EB70E3A
:10189800136EB90E146E156A1200050E796E84C0A7
:1018A80012F085C013F086C014F0000183511200B5
:1018B800E60E056E150E066E1200696A6A6A6B6A94
:1018C8006C6ADAD07A507AEC09F0020E7A1803E1E1
:1018D800B5EC03F002D00001B86B050EEA650DD037
:1018E800070EEA610AD0F50E0B6EFA0E0C6EF80EB2
:1018F8000D6EF90E0E6EC6EC1EF00E0E0001EA65B6
:1019080005D0100EEA6102D0030E796E270EEA6543
:10191800C2D0290EEA61BFD0B45104E0EBB102D0C5
:10192800020EA1D0030E9FD018D986EC22F0C60E65
:10193800056E250E1EEC26F0320E096E3EEC22F0E6
:10194800E7EC10F03EEC22F020EEEAF010EE80F02A
:10195800060EDBCFE3FFE806FCE2050E796E719810
:10196800020E7A1801E097D00001F3D8DFEC10F0EE
:101978000D0EC8EC23F08FD00001B86BD70E076EA0
:10198800010E086EF6EC21F00001A06FA05110E1E5
:101998000101D751676ED85100018D6F67C08EF075
:1019A8000101D951676EDA5100018B6F67C08CF065
:1019B800F10E316EDC0E326E010E336EE9EC03F07F
:1019C800020E7A1807E1170E116EDFEC10F00D0EFB
:1019D800C8EC23F023EC26F00001B4510DE0BDD88B
:1019E80086EC22F0960E056E300E066EACD83EECF4
:1019F80022F07DEC1AF04FD0B0D886EC22F0FE0E23
:101A0800056E2C0E066E9FD83EEC22F0F2D7000130
:101A1800B6511AE0B86B020E7A1807E1170E116E6C
:101A2800DFEC10F00D0EC8EC23F023EC26F095D86F
:101A380086EC22F0720E056E1B0E066E84D83EEC04
:101A480022F07DEC1AF00ED0B5510CE0B86B020E06
:101A58007A18EBE1170E116EDFEC10F00D0EC8ECE2
:101A680023F0E3D7050E796E16D0050E796ED4EC07
:101A780018F086EC22F00FD07950010A01E154D712
:101A8800030A01E179D7010AC2E0070AEEE0010A78
:101A980001E118D7030A71A804D0B90E076E63ECE8
:101AA80028F0755009E00001EAA171A405D07194ED
:101AB80038EC2BF0D5EC29F07188CBEC2BF0000931
:101AC80013E0690E0B6E9DEC2BF045EC29F06B5082
:101AD800676E6A500001916F67C092F069C0FDF0AF
:101AE8008F6B906B719603D000018F4B902BE90E92
:101AF8008F5D030E905906E3718645EC29F032D8C4
:101B080014EC21F00001A151EE191BE1050E096E3C
:101B1800EB51CCEC2AF00009D8A41200230E0001E6
:101B2800EA19D8B471A2120014D8DFEC10F00D0E27
:101B3800C8EC23F0D1EC03F0F2EC28F0010EB86FFA
:101B4800010C71921200086A076A0A6A140E096E7B
:101B5800140CB86B170E116E170CC20E056E180E0A
:101B6800066E1200040E0E6E780C2FD106EC2CF0C7
:101B78000001FF0503E0F551F61163E132D93AECB3
:101B880009F026EC28F00C50326EF5C005F0F6C0CE
:101B980006F06CEC09F0BEEC27F005C034F006C086
:101BA80035F0050E326402D0344A352A1FD96CEC60
:101BB80009F0BEEC27F00550061017E1010E3EECC7
:101BC80009F0030E8BEC23F034C011F077C012F04B
:101BD80078C013F00D0EACEC21F0B00E116E31ECA4
:101BE80009F0130EACEC21F0CBD0010E3EEC09F05D
:101BF800030E8BEC23F0086A0A0E076EF7D8BEECCA
:101C080027F086EC03F026EC28F00C502BEC09F0BA
:101C18000B0EACEC21F034C00CF035C00DF03AECF2
:101C280009F026EC28F00C502BEC09F0110EACEC66
:101C380021F0B00E116E31EC09F0170EACEC21F06A
:101C48009FD0200E336E335002EC28F0332A300E2A
:101C58003364F9D7086A640E95EC03F0BEEC27F0FC
:101C680086EC03F026EC28F00CC02CF00DC02DF00B
:101C7800086A0A0E95EC03F0BEEC27F086EC03F038
:101C880026EC28F00CC02EF00DC02FF0AAD83AECA4
:101C980009F026EC28F00CC030F00DC031F0A50E8C
:101CA8005CEC09F02CC015F02DC016F02EC017F012
:101CB8002FC018F075EC09F030C01BF031C01CF0D3
:101CC80070EC09F038EC15F0300E0101A51937E079
:101CD800010E3EEC09F0020E8BEC23F058EC09F0F3
:101CE8002BEC09F00B0EACEC21F043EC09F02BECDB
:101CF80009F0110EACEC21F0A7C111F031EC09F09C
:101D0800170EACEC21F069D82BEC09F01A0EACECEC
:101D180021F0A9C111F0DFEC10F0200EC8EC23F07F
:101D2800330E2B6EBB0E2A6EE00EE82EFED72A2E3F
:101D3800FCD72B2EFAD7080E7DEC26F021D0010E09
:101D48003EEC09F0020E8BEC23F043EC09F02BEC8F
:101D580009F00B0EACEC21F0A7C111F031EC09F041
:101D6800110EACEC21F039D82BEC09F0140EACECC8
:101D780021F0A9C111F031EC09F01A0EACEC21F0F8
:101D880047EC09F064EC09F036EC09F03EEF22F07C
:101D9800050E796E23EC26F0D4EC18F086EC22F0D0
:101DA800D6EC03F086EC22F00001B55108E0540EA1
:101DB800056E0F0E066EA7EC0DF03EEF22F09DECBF
:101DC80017F03EEC22F000EF12F07950040AE0E040
:101DD800010A01E1CBD6030A12000101A851D00F74
:101DE8001200F5C00CF0F6C00DF0120034C005F07A
:101DF80035C006F0120041D008D986EC22F06A0EF0
:101E0800056E3A0E066EA7EC0DF03EEC22F0E7ECFC
:101E180010F03EEC22F08BEC14F039D0F6D886ECBA
:101E280022F0D4EC18F086EC22F09DEC17F03EEC92
:101E380022F07DEC1AF006EC2CF029D00001832B5F
:101E4800070E836502D0010E836FE7EC10F03EECBD
:101E580022F051EC0CF081EC28F019D00001830736
:101E6800835102E1070E836FE7EC10F03EEC22F09D
:101E780051EC0CF081EC28F00AD07950010ABCE052
:101E8800030ADCE0010AEAE0070AC8E0010A71A8CF
:101E9800ACD06F0EF66EBE0EF76E46EC0CF0000E70
:101EA800C8EC23F0700EF66EBE0EF76E46EC0CF022
:101EB800060EC8EC23F0710EF66EBE0EF76E46ECF9
:101EC8000CF00C0EC8EC23F07FD0A20EF66EBE0EFE
:101ED800F76E46EC0CF0120EC8EC23F0A30EF66E6B
:101EE800BE0EF76E46EC0CF0180EC8EC23F07DD051
:101EF800C00EF66EBE0EF76E46EC0CF0120EC8EC75
:101F080023F0C10EF66EBE0EF76E46EC0CF0180EFE
:101F1800C8EC23F06AD074D846EC0CF0120EC8EC6A
:101F280023F069D846EC0CF0180EC8EC23F05DD00D
:101F3800C90EF66EBE0EF76E46EC0CF0120EC8EC2B
:101F480023F0CA0EF66EBE0EF76E46EC0CF0180EB5
:101F5800C8EC23F04AD0C60EF66EBE0EF76E46ECFD
:101F68000CF0120EC8EC23F0C70EF66EBE0EF76E1C
:101F780046EC0CF0180EC8EC23F037D0930EF66E32
:101F8800BE0EF76E46EC0CF0120EC8EC23F0940E61
:101F9800F66EBE0EF76E46EC0CF0180EC8EC23F089
:101FA80024D09F0EF66EBE0EF76E46EC0CF0120EA5
:101FB800C8EC23F0A00EF66EBE0EF76E46EC0CF0E1
:101FC800180EC8EC23F011D000018351010AE9E092
:101FD800030A01E17AD7010A8BE0070A9CE0010AAB
:101FE800A7E0030AB8E0010AC9E0B90E076E63EC7E
:101FF80028F071881200B20EF66EBE0EF76E12004F
:10200800B10EF66EBE0EF76E1200FE0E056E1D0EB8
:10201800066E120071BA02D0718A58D0719A56D0E1
:10202800F5D886EC22F0F40E056E330E066EA7EC9A
:102038000DF03EEC22F0C7D83EEC22F0050E796E8A
:1020480006EC2CF071984CD0E1D886EC22F0D4EC58
:1020580018F086EC22F09DEC17F03EEC22F0050E0D
:10206800796E06EC2CF03CD00001822B170E8265AD
:1020780001D0826BA8D83EEC22F0C3D80AE0825186
:1020880004E1B6D891EC29F02BD0ADD891EC29F029
:1020980027D0A4D891EC29F023D000018207822907
:1020A80002E1170E826F8FD83EEC22F0AAD80AE020
:1020B800825104E19DD891EC29F012D094D891EC8A
:1020C80029F00ED08BD891EC29F00AD07950010A6A
:1020D800A7E0030AC9E0010AE0E0070AB5E0010A3F
:1020E80071A863D071AA4AD07A0424E1B9EC0AF045
:1020F80082515FEC29F0CCEC2AF000090DE0B9EC34
:102108000AF082515FEC29F0CCEC2AF09DEC0AF041
:10211800000EC8EC23F005D0116A4DD8000EC8ECAB
:1021280023F06AD8CCEC2AF09DEC0AF0060EC8EC35
:1021380023F03BD0B9EC0AF082515FEC29F0CCECEB
:102148002AF000090DE0B9EC0AF082515FEC29F0A1
:10215800CCEC2AF09DEC0AF0010EC8EC23F005D077
:10216800116A29D8010EC8EC23F046D8CCEC2AF025
:102178009DEC0AF0070EC8EC23F017D07A040BE1A7
:10218800116A19D8000EC8EC23F0116A14D8060E8B
:10219800C8EC23F00AD0116A0ED8010EC8EC23F05F
:1021A800116A09D8070EC8EC23F0B90E076E63EC64
:1021B80028F071881200EB0E126EB70E136EB90E6E
:1021C800146E156A1200D40E056E580E066E070EB0
:1021D800086ED00E076E0A6A096AD00C81C012F028
:1021E800136A8251120081C012F0136A820512002C
:1021F80081C012F0136A170C0A0E096E0001825191
:102208001200050E796E0001F75112001C0E056EC2
:10221800200E066E1200030E196EDED81A6E1F0EFF
:1022280069EC20F0236E23501F08276E0A0E196EE2
:10223800D3D81A6E1F0E69EC20F0236E23501F08A6
:10224800286EA2D8030EDF6404D09ED8090EDF647E
:1022580034D09AD8030EDE1804E19CD8DE50275CEF
:102268002CE392D8030EDE1808E194D82750DE1824
:1022780004E1ACD8030EDF6020D086D80A0EDE1841
:1022880004E188D82850DE5C18E37ED80A0EDE18F0
:1022980008E180D82850DE1804E198D8010EDF64E0
:1022A8000CD072D80A0EDE180EE174D82850DE1849
:1022B8000AE18CD8170EDE1806E12250D96EDA6AC8
:1022C800010EDF6E04D02250D96EDA6ADF6A22501E
:1022D800D96EDA6ADF50D8B4120078D8170EDE1833
:1022E80048E174D8DF6A7FD8DF2A7DD8080EDE1867
:1022F80003E179D8010EDF6E6FD8236E030E231623
:1023080020E042D852D808E03FD8020EDE1816E185
:1023180041D81C0EDE1812E137D80C0EDE1808E181
:102328002150D96E3DD836D8010EDF6E2DD861D038
:1023380031D8010EDF6E28D8DF2A050C2BD8DF2A0A
:10234800040C22D832D812E11FD80C0EDE1808E18E
:102358002150D96E25D81ED8010EDF6E15D849D068
:1023680019D8010EDF6E10D8DF2A050C13D8DF2A22
:10237800040C2CD82150E16EE26A020EE126E750E7
:10238800236E2328DF6E12002150D96EDA6A050EFB
:10239800D926050C2150D96EDA6A040ED926040C08
:1023A800DA6A060ED926DF2A060CDF50236E246A65
:1023B800E10E2324D96E010E2420DA6E2150E16E3D
:1023C800E26A040EE126DE50E61812002150D96EAA
:1023D800DA6A020ED926020C2150D96EDA6A060E84
:1023E800D926DF5012002150D96EDA6A030ED92699
:1023F800030C010EDF6E010C06EC2CF0C3D0B9EC17
:102408000AF0EC515FEC29F0CCEC2AF000090DE061
:10241800B9EC0AF0EC515FEC29F0CCEC2AF02BEC8B
:1024280009F0000EACEC21F006D0116A31EC09F08D
:10243800000EACEC21F0B4D8CCEC2AF02BEC09F06F
:10244800060EACEC21F0B9EC0AF0EB515FEC29F088
:10245800CCEC2AF02BEC09F00D0EACEC21F0DCEC06
:102468000AF0CCEC2AF02BEC09F0130EACEC21F0BE
:1024780090D8C6EC25F0B9EC0AF0EA515FEC29F0E7
:10248800CCEC2AF0296E29280D6E190E62EC21F089
:1024980091D8CCEC2AF0296E29280D6E1D0E62EC1D
:1024A80021F0735003E081D80FEC11F00001B86BF4
:1024B8001200B9EC0AF0EC515FEC29F0CCEC2AF0F0
:1024C80000090DE0B9EC0AF0EC515FEC29F0CCEC16
:1024D8002AF02BEC09F0010EACEC21F006D0116AC1
:1024E80031EC09F0010EACEC21F05AD8CCEC2AF012
:1024F8002BEC09F0070EACEC21F03A0E116E31EC22
:1025080009F00D0EACEC21F044D8C6EC25F0B9EC7E
:102518000AF0EB515FEC29F0CCEC2AF02BEC09F037
:10252800130EACEC21F0DCEC0AF0CCEC2AF02BEC2E
:1025380009F0190EACEC21F0735003E036D80FEC1B
:1025480011F0010E0001B86FA36BE1EC0AF05FEC2B
:1025580029F0CCEC2AF00001AD6FEBEC0AF0CCECE2
:102568002AF00001AC6FE6EC0AF05FEC29F0CCEC45
:102578002AF00001AB6FEFEC0AF0CCEC2AF0000176
:10258800AA6F12007A50010A01E139D7030A91E0D3
:102598001200EC0E0A6EEB0E0B6EEA0E0C6E1200B9
:1025A8000A0E096E0001EC511200EA0E216EF70EB8
:1025B800226E12000A0E096E0001EA51120071BA69
:1025C80002D0718A6FD0719A6DD0D2D886EC22F081
:1025D8001C0E056E200E1EEC26F0320E096E3EEC27
:1025E80022F0E7EC10F03EEC22F07A0415E1B9ECA9
:1025F8000AF081515FEC29F0CCEC2AF09DEC0AF04E
:102608000D0EC8EC23F0A9D8CCEC2AF09DEC0AF00A
:10261800130EC8EC23F015D0B9EC0AF0EB515FECBF
:1026280029F0CCEC2AF09DEC0AF0130EC8EC23F04C
:10263800DCEC0AF0CCEC2AF09DEC0AF0190EC8ECA0
:1026480023F07DEC1AF038D093D886EC22F0D4EC45
:1026580018F086EC22F09DEC17F03EEC22F0050E07
:10266800796E06EC2CF028D00001812B3B0E816599
:1026780001D0816BE7EC10F03EEC22F073D891ECBE
:1026880029F0050E796E18D000018107812902E131
:102698003B0E816FE7EC10F03EEC22F063D891EC32
:1026A80029F0EFD77950010A90E0030ADDE0010A2A
:1026B800EBE0070AC9E0010A71A849D071AA2CD039
:1026C8007A0415E1B9EC0AF081515FEC29F0CCEC01
:1026D8002AF09DEC0AF00D0EC8EC23F03ED8CCECA5
:1026E8002AF09DEC0AF0130EC8EC23F030D0B9ECB8
:1026F8000AF081515FEC29F0CCEC2AF09DEC0AF04D
:10270800130EC8EC23F029D8CCEC2AF09DEC0AF083
:10271800190EC8EC23F01BD07A040DE1116ADFEC26
:1027280010F00D0EC8EC23F0116ADFEC10F0130E58
:10273800C8EC23F00CD0116ADFEC10F0130EC8ECD3
:1027480023F0116ADFEC10F0190EC8EC23F0B90E73
:10275800076E63EC28F0718812000A0E096E0001FA
:102768008151120081C012F0136A000182511200D7
:10277800C60E056E250E066E120074D0C3D886EC00
:1027880022F0FE0E056E1D0E066EA7EC0DF03EEC57
:1027980022F0E7EC10F03EEC22F0B9D86DD0B2D8B8
:1027A80086EC22F0D4EC18F086EC22F09DEC17F0C1
:1027B8003EEC22F07DEC1AF006EC2CF05DD0000126
:1027C800842B9BD820E092D88451DE5C19E3020E5A
:1027D80085191DE184511C6E1D6A1E681F6886D804
:1027E800DF50206E216A1E5020261F5021221C50C7
:1027F800205C2150800A226E1D50800A225807E270
:10280800010E846F04D072D88451DE5CF9E3E7ECE2
:1028180010F03EEC22F051EC0CF081EC28F02CD0BA
:10282800000184076AD813E0845106E1020E851975
:1028380003E05CD8DF5009D0020E85190AE1845103
:1028480008E154D8DF501C6E1C04846F02D08451F8
:10285800F0E0E7EC10F03EEC22F051EC0CF081ECEB
:1028680028F00AD07950010A89E0030AA8E0010A91
:10287800D7E0070A94E0010A71A832D07F0EF66EFD
:10288800BE0EF76E46EC0CF0000EC8EC23F0800E7E
:10289800F66EBE0EF76E46EC0CF0060EC8EC23F092
:1028A800810EF66EBE0EF76E46EC0CF00C0EC8EC00
:1028B80023F0B9EC0AF084515FEC29F0CCEC2AF053
:1028C8009DEC0AF0120EC8EC23F00A0E096E000106
:1028D8008451CCEC2AF09DEC0AF0180EC8EC23F0D9
:1028E800B90E076E63EC28F071881200E10E852599
:1028F800D96EDA6A010EDA22120086C01CF0030EC5
:102908001C16030C820E056E270E066E1200050EAD
:10291800796E7188050C46D0755012E097D886EC10
:1029280022F039EC18F0A7EC0DF03EEC22F0E7ECC1
:1029380010F03EEC22F07DEC1AF006EC2CF03CD0C6
:1029480085D886EC22F0700E056E2F0E066EA7EC69
:102958000DF03EEC22F084D8FDEC2BF0746E43ECC5
:1029680018F056EC2BF0E3D771D886EC22F0D4ECB3
:1029780018F086EC22F09DEC17F03EEC22F0DBD745
:102988005FD8E7EC10F03EEC22F065D803EC2BF0B2
:1029980013D056D8E7EC10F03EEC22F05CD803ECEC
:1029A8002BF00AD07950010AB7E0030AE9E0010ADE
:1029B800F0E0070AD9E0010A71A83CD034EC18F01D
:1029C80046EC0CF0000EC8EC23F02FEC18F046ECA7
:1029D8000CF0060EC8EC23F02AEC18F046EC0CF0CC
:1029E8000C0EC8EC23F0755013E0960EF66EBE0E72
:1029F800F76E46EC0CF0120EC8EC23F0970EF66E4C
:102A0800BE0EF76E46EC0CF0180EC8EC23F012D090
:102A1800BD0EF66EBE0EF76E46EC0CF0120EC8EC4C
:102A280023F0BE0EF66EBE0EF76E46EC0CF0180ED6
:102A3800C8EC23F0B90E076E63EC28F07188120019
:102A48007550010ED8A4000E756E12001E0E056E8C
:102A5800290E066E1200050E796E75C005F0020C7F
:102A6800066A030E056E030C150E246E79D0250E2A
:102A7800251838E08ED825C0DFFF114A122A70D0F9
:102A88002450D96EDA6ADECF22F0DDCF23F0020EB1
:102A980024262250231013E1510E226EBE0E236EFF
:102AA8000ED082D876D80F0EF76403D00800F55000
:102AB80001D074D8DF6E224A232A114A122A74D808
:102AC8000F0EF76403D00800F55001D067D800094D
:102AD80047E0E7D72450D96EDA6ADF50256E020E38
:102AE8002426C8D742D83EE0630AF4E0100AC8E0BA
:102AF800060AC0E12450D96EDA6ADECF1FF0DDCFB6
:102B080020F0020E2426010E256E255039D8F550E6
:102B18001F5C0900F550205804E3252A050E2518E6
:102B2800F4E125C021F019D021502AD8F5CF07F0BB
:102B38000A00F5CF08F01FC005F020C006F0BEEC73
:102B480027F086EC03F026EC28F00C50300F256EA9
:102B580020D825C0DFFF114A122A21062128E4E1E6
:102B680004D885E116D8DF6A000C13C0F6FF14C03C
:102B7800F7FF134A142A0800F5CF25F02550120054
:102B8800020DCF0EF324F66EB70EF420F76E09008F
:102B9800120011C0D9FF12C0DAFF1200F6CFE1FF10
:102BA800F7CFE2FFE750120022C0F6FF23C0F7FF7D
:102BB800F86A1200146A09C005F00AC006F055EC5C
:102BC8002AF00550FD0F126E136A7DD080D8030ECF
:102BD80085D8C00EDF646FD07AD8040E7FD8DF5056
:102BE8000D6E145009240E6E000E0A200F6E030E8F
:102BF8000E24D96E000E0F20DA6EDF50106E0D50C5
:102C0800156E10C016F0840E151805E1D00E1618B2
:102C180002E1DA0E0FD0860E151805E1D00E16184F
:102C280002E1D40E07D0870E151807E1D00E16184A
:102C380004E1D80E155ECF0E08D0940E151807E1E2
:102C4800D10E161804E1DA0E11D0165A28D0960EB5
:102C5800151805E1D10E161802E1E30E07D0970EFC
:102C6800151807E1D10E161804E1D80E155ED00E1E
:102C7800ECD7C00E155CD00E165803E2300E1526A0
:102C88000DD0800E155CD10E165809E3900E155C18
:102C9800D10E165804E2700E15262F0E1622960E27
:102CA8001324D96EDA6A030EDA2215C0DFFF020E8A
:102CB8001426120607D00BD8030E10D8960E13242C
:102CC80013D8142A132A1350125C80E212001450ED
:102CD80009240B6E000E0A200C6E12000B24D96E0C
:102CE800000E0C20DA6E1200E16EE26A030EE22298
:102CF800DFCFE7FF12008CD0E80E00018D5D030ED8
:102D08008E593AE2050E3EEC09F0010E8BEC23F0E9
:102D1800086A640E85D8BEEC27F086EC03F026EC32
:102D280028F00C502BEC09F0090EACEC21F0086AE5
:102D38000A0E76D8BEEC27F086EC03F026EC28F0D5
:102D48000C502BEC09F00F0EACEC21F02E0E116E8E
:102D580031EC09F0150EACEC21F08DC00CF08EC0F2
:102D68000DF03AEC09F026EC28F00C502BEC09F0A9
:102D7800180EACEC21F033D0050E3EEC09F0020E33
:102D88008BEC23F066EC20F04BD8BEEC27F086ECF9
:102D980003F026EC28F00C502BEC09F00B0EACECF1
:102DA80021F0086A640E3CD8BEEC27F086EC03F0EC
:102DB80026EC28F00C502BEC09F0110EACEC21F0AD
:102DC800086A0A0E2DD8BEEC27F086EC03F026EC34
:102DD80028F00C502BEC09F0170EACEC21F047EC66
:102DE80009F024D836EC09F03EEF22F0050E796E92
:102DF80023EC26F000EC12F0D4EC18F086EC22F06C
:102E0800E0EC03F086EC22F09DEC17F03EEF22F0A8
:102E18007950040AEBE0010A01E16ED7030A1200B7
:102E2800076E8DC005F08EC006F01200010E086E08
:102E3800900C37D094D886EC22F07BD83EEC22F068
:102E4800D4EC18F086EC22F07DEC1AF006EC2CF0AD
:102E580032D085D886EC22F06CD83EEC22F0D4EC47
:102E680018F086EC22F07DEC1AF006EC2CF07A04CF
:102E780003E10001B86B1FD0B5EC03F01CD063D898
:102E8800E7EC10F03EEC22F065D803EC2BF013D001
:102E98005AD8E7EC10F03EEC22F05CD803EC2BF0AB
:102EA8000AD07950010AC6E0030AE9E0010AF0E015
:102EB800070ACFE0010A71A836D05D0EF66EBE0E85
:102EC800F76E46EC0CF0000EC8EC23F05E0EF66EC2
:102ED800BE0EF76E46EC0CF0060EC8EC23F05F0E43
:102EE800F66EBE0EF76E46EC0CF00C0EC8EC23F036
:102EF800600EF66EBE0EF76E46EC0CF0120EC8ECC5
:102F080023F00001B35108E02B0E116EDFEC10F036
:102F1800180EC8EC23F007D02D0E116EDFEC10F060
:102F2800180EC8EC23F0B90E076E63EC28F0718810
:102F38001200C20E056E180E066E086A076A0A6A43
:102F4800140E096E140C0001B351010ED8A4000E22
:102F5800B36F1200050E796EB3C005F00A0C3A0E75
:102F6800056E2E0E066E12003DD08CD886EC22F02F
:102F78007CD8A7EC0DF03EEC22F0E7EC10F03EEC2C
:102F880022F07DEC1AF006EC2CF036D07BD886ECDB
:102F980022F0D4EC18F086EC22F09DEC17F03EEC11
:102FA80022F0EFD7742A080E746401D0746AE7EC33
:102FB80010F03EEC22F05ED803EC2BF060D856EC13
:102FC8002BF01AD07406742802E1080E746EE7EC30
:102FD80010F03EEC22F04ED803EC2BF050D856EC13
:102FE8002BF00AD07950010AC0E0030ADBE0010A9D
:102FF800E9E0070ACBE0010A71A822D031D846ECF3
:103008000CF0000EC8EC23F026D846EC0CF0060EA7
:10301800C8EC23F01BD846EC0CF00C0EC8EC23F0DF
:103028000A0E096E7450CCEC2AF09DEC0AF0120ED0
:10303800C8EC23F0116ADFEC10F0180EC8EC23F08E
:10304800B90E076E63EC28F071881200850EF66ED3
:10305800BE0EF76E1200840EF66EBE0EF76E1200EC
:10306800830EF66EBE0EF76E1200820E056E3C0ED3
:10307800066E1200050E796E74C005F0030C74C05C
:1030880007F00A0C700E056E2F0E066E120080D027
:103098000001F151F211F311F41132E0F1C02CF0FA
:1030A800F2C02DF02CC01CF02DC01DF00FEC20F04C
:1030B80095EC25F0200E2E6E2E5002EC28F02E2ACC
:1030C800300E2E64F9D72CC00CF02DC00DF03AEC60
:1030D80009F026EC28F00C509DEC0AF0200EC8EC04
:1030E80023F0330E2B6EBB0E2A6EE00EE82EFED7B1
:1030F8002A2EFCD72B2EFAD7080E7DEC26F01DD0F1
:1031080006EC2CF0040E3EEC09F0030E8BEC23F0D9
:10311800450E116E31EC09F00B0EACEC21F0520E9D
:10312800116E31EC09F0110EACEC21F0520E116E5B
:1031380031EC09F0170EACEC21F047EC09F01AEC71
:1031480017F036EC09F03EEF22F0050E796E00011B
:10315800B3510CE023EC26F023D886EC22F025D8D6
:1031680086EC22F0FE0E056E2C0E0DD023EC26F018
:1031780000EC12F015D886EC22F017D886EC22F075
:10318800C20E056E180E066EA7EC0DF03EEF22F08B
:103198007950040ADAE0010A01E17AD7030A120039
:1031A800D40E056E580E066E1200960E056E300E81
:1031B800066E120007EC28F0B5EC2BF079EC29F03C
:1031C80073EC2BF067EC2CF0EBEC2BF041EC2AF0D5
:1031D80027EC2CF017EC2AF0B1EC1FF0066A056A10
:1031E800FDEC2BF0766E066A010E056EFDEC2BF0F9
:1031F8007A6E7A0403E10001B86B02D0B5EC03F0F3
:10320800066A020E056EFDEC2BF0756E34EC15F0B7
:10321800FDEC2BF0746E43EC18F056EC2BF072ECCE
:1032280027F064EC2CF01FEC2CF0B6EC0DF014EC4D
:1032380021F0120E056E000E066E086A280E076E43
:103248003ED83EEC22F0580E056E4A0E3CD837D8D0
:103258003EEC22F0066A040E056EFDEC2BF0000130
:10326800B76F066A050E056EFDEC2BF00001B66F10
:10327800066A060E056EFDEC2BF00001B56F066AB6
:10328800070E056EFDEC2BF00001B46F066A080E00
:10329800056EFDEC2BF0736E066A090E056EFDECEB
:1032A8002BF00001FF6F066A0A0E056EFDEC2BF08D
:1032B8000001B36F066A030E056E17EF2CF00A6A59
:1032C800140E096E140C066E086A640E076E640C00
:1032D80046D087D886EC22F01E0E056E290E066EA3
:1032E800A7EC0DF03EEC22F0E7EC10F03EEC22F0FB
:1032F8007DEC1AF006EC2CF03CD073D886EC22F06A
:10330800D4EC18F086EC22F09DEC17F03EEC22F09D
:103318007DEC1AF006EC2CF07A0403E10001B86B9E
:1033280028D0B5EC03F025D07A2A020E7A6402D0B0
:10333800010E7A6EE7EC10F03EEC22F04DD803EC6B
:103348002BF017D07A067A5002E1020E7A6EE7EC7B
:1033580010F03EEC22F040D803EC2BF00AD0795064
:10336800010AB7E0030AE0E0010AECE0070AC5E059
:10337800010A71A82BD0730EF66EBE0EF76E46ECDE
:103388000CF0000EC8EC23F0740EF66EBE0EF76E4D
:1033980046EC0CF0060EC8EC23F0750EF66EBE0E69
:1033A800F76E46EC0CF00C0EC8EC23F00A0E096E12
:1033B8007A50CCEC2AF09DEC0AF0120EC8EC23F0FF
:1033C800116ADFEC10F0180EC8EC23F0B90E076E86
:1033D80063EC28F071881200050E796E7AC005F04A
:1033E800010CD80E056E320E066E12003ED085D83E
:1033F80086EC22F0E60E056E150E066EA7EC0DF0B3
:103408003EEC22F0E7EC10F03EEC22F072D837D018
:1034180074D886EC22F0D4EC18F086EC22F09DECFF
:1034280017F03EEC22F065D806EC2CF028D000010D
:10343800862B630E866501D0866BE7EC10F03EECB8
:1034480022F051EC0CF081EC28F019D0000186072D
:10345800862902E1630E866FE7EC10F03EEC22F05D
:1034680051EC0CF081EC28F00AD07950010ABFE049
:10347800030ADDE0010AEAE0070ACAE0010A71A8C6
:1034880032D06B0EF66EBE0EF76E46EC0CF0000EE8
:10349800C8EC23F06C0EF66EBE0EF76E46EC0CF020
:1034A800060EC8EC23F06D0EF66EBE0EF76E46ECF7
:1034B8000CF00C0EC8EC23F0B9EC0AF086515FEC66
:1034C80029F0CCEC2AF09DEC0AF0120EC8EC23F09F
:1034D8000A0E096E00018651CCEC2AF09DEC0AF028
:1034E800180EC8EC23F0B90E076E63EC28F071884B
:1034F8001200050E796E7198050CF40E056E330EE8
:10350800066E12003DD083D886EC22F03A0E056E86
:103518002E0E066EA7EC0DF03EEC22F0E7EC10F054
:103528003EEC22F07DEC1AF006EC2CF033D06FD88C
:1035380086EC22F09DEC17F03EEC22F0D4EC18F06B
:1035480086EC22F0EFD70001FF2B030EFF1902E1F2
:10355800010EFF6FE7EC10F03EEC22F053D803ECBD
:103568002BF018D00001FF07FF5102E1020EFF6F98
:10357800E7EC10F03EEC22F045D803EC2BF00AD033
:103588007950010AC0E0030ADEE0010AEBE0070A0D
:10359800CEE0010A71A830D0580EF66EBE0EF76E56
:1035A80046EC0CF0000EC8EC23F0590EF66EBE0E79
:1035B800F76E46EC0CF0060EC8EC23F05A0EF66EC9
:1035C800BE0EF76E46EC0CF00C0EC8EC23F05B0E4A
:1035D800F66EBE0EF76E46EC0CF0120EC8EC23F039
:1035E800FFC011F077C012F078C013F0B90E146E56
:1035F800156A180EC8EC23F0B90E076E63EC28F0B4
:1036080071881200050E796EFFC005F0090C0C0ECA
:10361800056E350E066E120032D083D886EC22F085
:103628000C0E056E350E066EA7EC0DF03EEC22F082
:10363800E7EC10F03EEC22F07DEC1AF006EC2CF0F2
:1036480028D06FD886EC22F09DEC17F03EEC22F0E3
:10365800D4EC18F086EC22F0EFD758D8E7EC10F04D
:103668003EEC22F059D803EC2BF013D04FD8E7ECFE
:1036780010F03EEC22F050D803EC2BF00AD0795031
:10368800010ACBE0030AE9E0010AF0E0070AD9E001
:10369800010A71A835D0620EF66EBE0EF76E46ECC2
:1036A8000CF0000EC8EC23F0630EF66EBE0EF76E3B
:1036B80046EC0CF0060EC8EC23F0640EF66EBE0E57
:1036C800F76E46EC0CF00C0EC8EC23F0650EF66EA7
:1036D800BE0EF76E46EC0CF0120EC8EC23F07350D9
:1036E80008E02B0E116EDFEC10F0180EC8EC23F07A
:1036F80007D02D0E116EDFEC10F0180EC8EC23F079
:10370800B90E076E63EC28F0718812007350010E31
:10371800D8A4000E736E1200050E796E73C005F002
:10372800080C200E056E360E066E120032D082D8B6
:1037380086EC22F0200E056E360E066EA7EC0DF014
:103748003EEC22F0E7EC10F03EEC22F07DEC1AF0B3
:1037580006EC2CF028D06ED886EC22F09DEC17F001
:103768003EEC22F0D4EC18F086EC22F0EFD756D8D5
:10377800E7EC10F03EEC22F058D803EC2BF013D015
:103788004DD8E7EC10F03EEC22F04FD803EC2BF0CC
:103798000AD07950010ACBE0030AE9E0010AF0E017
:1037A800070AD9E0010A71A833D0870EF66EBE0E5B
:1037B800F76E46EC0CF0000EC8EC23F0880EF66E9F
:1037C800BE0EF76E46EC0CF0060EC8EC23F0890E20
:1037D800F66EBE0EF76E46EC0CF00C0EC8EC23F03D
:1037E8000001B45108E02B0E116EDFEC10F0120E40
:1037F800C8EC23F007D02D0E116EDFEC10F0120E7E
:10380800C8EC23F0116ADFEC10F0180EC8EC23F0B6
:10381800B90E076E63EC28F0718812000001B451EC
:10382800010ED8A4000EB46F1200050E796EB4C054
:1038380005F0070C340E056E370E066E120032D0F6
:1038480082D886EC22F0340E056E370E066EA7EC91
:103858000DF03EEC22F0E7EC10F03EEC22F07DECAF
:103868001AF006EC2CF028D06ED886EC22F09DECED
:1038780017F03EEC22F0D4EC18F086EC22F0EFD7EB
:1038880056D8E7EC10F03EEC22F058D803EC2BF0B9
:1038980013D04DD8E7EC10F03EEC22F04FD803ECF3
:1038A8002BF00AD07950010ACBE0030AE9E0010ABB
:1038B800F0E0070AD9E0010A71A833D08F0EF66E3E
:1038C800BE0EF76E46EC0CF0000EC8EC23F0900E1E
:1038D800F66EBE0EF76E46EC0CF0060EC8EC23F042
:1038E800910EF66EBE0EF76E46EC0CF00C0EC8ECA0
:1038F80023F00001B55108E02B0E116EDFEC10F03B
:10390800120EC8EC23F007D02D0E116EDFEC10F06C
:10391800120EC8EC23F0116ADFEC10F0180EC8EC98
:1039280023F0B90E076E63EC28F0718812000001CD
:10393800B551010ED8A4000EB56F1200050E796EB0
:10394800B5C005F0060C460E056E380E066E120060
:1039580032D082D886EC22F0460E056E380E066EFE
:10396800A7EC0DF03EEC22F0E7EC10F03EEC22F074
:103978007DEC1AF006EC2CF028D06ED886EC22F0FC
:103988009DEC17F03EEC22F0D4EC18F086EC22F017
:10399800EFD756D8E7EC10F03EEC22F058D803ECFD
:1039A8002BF013D04DD8E7EC10F03EEC22F04FD8B6
:1039B80003EC2BF00AD07950010ACBE0030AE9E0C6
:1039C800010AF0E0070AD9E0010A71A833D08B0E8A
:1039D800F66EBE0EF76E46EC0CF0000EC8EC23F047
:1039E8008C0EF66EBE0EF76E46EC0CF0060EC8ECAA
:1039F80023F08D0EF66EBE0EF76E46EC0CF00C0E34
:103A0800C8EC23F00001B65108E02B0E116EDFEC74
:103A180010F0120EC8EC23F007D02D0E116EDFEC5B
:103A280010F0120EC8EC23F0116ADFEC10F0180E3B
:103A3800C8EC23F0B90E076E63EC28F07188120009
:103A48000001B651010ED8A4000EB66F1200050E83
:103A5800796EB6C005F0050C580E056E390E066E67
:103A6800120041D080D886EC22F0D80E056E320EB6
:103A7800066EA7EC0DF03EEC22F0E7EC10F03EEC01
:103A880022F07DEC1AF006EC2CF037D06CD886ECDE
:103A980022F0D4EC18F086EC22F09DEC17F03EEC06
:103AA80022F0EFD7762A050E766402D0010E766EE4
:103AB800E7EC10F03EEC22F0050E796E51D803ECDD
:103AC8002BF072EC27F019D07606765002E1050E3D
:103AD800766EE7EC10F03EEC22F0050E796E40D8D9
:103AE80003EC2BF0EED77950010ABCE0030ADAE0C8
:103AF800010AEAE0070ACAE0010A71A82BD0770E8A
:103B0800F66EBE0EF76E46EC0CF0000EC8EC23F015
:103B1800780EF66EBE0EF76E46EC0CF0060EC8EC8C
:103B280023F0790EF66EBE0EF76E46EC0CF00C0E16
:103B3800C8EC23F00A0E096E7650CCEC2AF09DEC06
:103B48000AF0120EC8EC23F0116ADFEC10F0180E20
:103B5800C8EC23F0B90E076E63EC28F071881200E8
:103B680076C005F0000C6A0E056E3A0E066E12005D
:103B78000001B25118E0B26B0101F46B11D0F4519D
:103B88005CD8DE50DE1006E1F45167D8010EDE6E17
:103B9800DD6A05D0F45151D8DE06000EDD5AF42B4B
:103BA8007250F45DECE30101F56B43D0F55155D843
:103BB800DE04DE103CE1F55148D8DECFF2F1DDCF6E
:103BC800F3F1F55152D8DE50DE1009E1F5513DD838
:103BD800DECF05F0DDCF06F086EC22F01BD0F551E4
:103BE8003CD8DE6ADD6AF55128D8DE50DE1012E1D5
:103BF8006D686E68F55139D8DECF6FF0DDCF70F0A3
:103C08006D506F266E507022F55117D86FC0DEFFC9
:103C180070C0DDFF01D80BD005000101FA6EF2512A
:103C2800FD6EF351FE6EF850FF6EFA50120001015E
:103C3800F52B7250F55DBAE31200080D020EF3245D
:103C4800D96E010EF420DA6E1200080D000EF3246E
:103C5800D96E010EF420DA6E1200080D060EF32458
:103C6800D96E010EF420DA6E1200080D040EF3244A
:103C7800D96E010EF420DA6E12003CD07ED886ECA4
:103C880022F0580E056E390E066EA7EC0DF03EECCC
:103C980022F0E7EC10F03EEC22F07DEC1AF006EC96
:103CA8002CF032D06AD886EC22F09DEC17F03EEC6E
:103CB80022F0D4EC18F086EC22F0EFD70001B72BF5
:103CC800010EB76501D0B76BE7EC10F03EEC22F0BF
:103CD8004FD803EC2BF018D00001B707B72902E141
:103CE800010EB76FE7EC10F03EEC22F041D803EC80
:103CF8002BF00AD07950010AC1E0030ADFE0010A7B
:103D0800EBE0070ACFE0010A71A82CD0670EF66E27
:103D1800BE0EF76E46EC0CF0000EC8EC23F0680EF1
:103D2800F66EBE0EF76E46EC0CF0060EC8EC23F0ED
:103D3800690EF66EBE0EF76E46EC0CF00C0EC8EC73
:103D480023F00A0E096E0001B751CCEC2AF09DEC65
:103D58000AF0120EC8EC23F0116ADFEC10F0180E0E
:103D6800C8EC23F0B90E076E63EC28F071881200D6
:103D7800050E796EB7C005F0040C820E056E3C0E78
:103D8800066E1200BF0EF66EB70EF76E20EE11F03B
:103D98000F0E78EC24F0FDE20C50D96EDA6A2B0E87
:103DA800DF6E66D045EC28F00009D8A41200CC0ECE
:103DB800BAEC28F0440EBAEC28F00E50D96EDA6A44
:103DC800DF6A0D50D96EDA6A020EDF6ECD80020C02
:103DD80045EC28F0CC0EBAEC28F0BE0EBAEC28F070
:103DE800226A880E2224D96EDA6A010EDA22D6EC0B
:103DF80028F0DF6E222A010E2264F3D701018951CF
:103E08000F6E8851236E0FC024F024AE09D0236CA6
:103E1800241ED8B0242A0C50D96EDA6A2D0EDF6E13
:103E280023500F0B216E2150110FD96EDA6ADF5023
:103E3800216E233A243A0F0E23162450F00B231236
:103E48000F0E241623500A0DF3CF23F0F4CF24F0DD
:103E580021502326000E24220B50D96EDA6A23C083
:103E6800DEFF24C0DDFF0D50D96EDA6ADF6A000C70
:103E78000D50D96EDA6ADF5095E0010AA9E0030A0D
:103E880012001C6E216A226A236A246A256A61D894
:103E98005CEC2CF0EC0E4EEC2CF01C504EEC2CF0A4
:103EA80060EC2CF0ED0E4EEC2CF0010E15EC2BF026
:103EB8001D6E1E6A1F6A206A010E15EC2BF0216E1A
:103EC800226A236A246A000E15EC2BF0256E41D86D
:103ED80058EC2CF021C00DF022C00EF023C00FF0DA
:103EE8000C6A1DC010F01EC011F01FC012F020C0D7
:103EF80013F011C013F010C012F0116A106A0C50C0
:103F08001024146E0D501120156E0E501220166ECE
:103F18000F501320176E25501424186E26501520A4
:103F2800196E275016201A6E285017201B6E050E82
:103F380005D0D8901B321A3219321832E82EF9D728
:103F480018C008F019C009F01AC00AF01BC00BF01D
:103F58001200266A276A286A1200880E26EC27F0C3
:103F680008C087F009C088F08A0E26EC27F008C040
:103F7800A3F109C0A4F18C0E26EC27F008C0A1F12A
:103F880009C0A2F18E0E26EC27F008C0E0F109C0A6
:103F9800E1F1900E26EC27F008C09FF109C0A0F1CE
:103FA800920E26EC27F008C09DF109C09EF1940EF0
:103FB80026EC27F008C09BF109C09CF1960E26EC70
:103FC80027F008C099F109C09AF1980E26EC27F05D
:103FD80008C097F109C098F19A0E26EC27F008C09E
:103FE80095F109C096F19C0E26EC27F008C093F1D4
:103FF80009C094F19E0E26EC27F008C091F109C083
:1040080092F1CC0E076EF50E65EC2BF0B70E076E2D
:10401800F40E65EF2BF01E6A960E1E24C1EC25F0F7
:10402800DF6A1E2A200E1E64F7D7040E0C6E960E49
:104038000D6E020E0E6E030E8BEC23F043D83CD8A7
:10404800BEEC27F086EC03F026EC28F02AD80B0EFD
:10405800C8EC23F0086A640E2FD8BEEC27F086EC73
:1040680003F026EC28F01DD8110EC8EC23F0086ADE
:104078000A0E22D8BEEC27F086EC03F026EC28F0D6
:1040880010D8170EC8EC23F02E0E116EEB0E126E20
:10409800B70E136E960E146E020E156E1D0EC8EF37
:1040A80023F00C50116E77C012F078C013F0960E02
:1040B800146E020E156E1200076E1CC005F01DC0AE
:1040C80006F01200030E086EE80C1D6E19500E085B
:1040D800056E000ED8A0E82A0008066E086A0C0EC5
:1040E800076E7DEC24F005501F6E1F501A5C206E81
:1040F8001F500C0DF3501924FE0F1E6E010E086E92
:10410800900E076E20C005F0066A7DEC24F0205062
:104118001DC01BF01C6A1B26000E1C222040E84212
:104128003F0B1B26000E1C2221D8086A0C0E076EB6
:104138001E501F0DF3CF05F0F4CF06F07DEC24F0F0
:1041480015D8640E056E20505FEC29F01B5E000E3A
:104158001C5A580E1B24136E1B0E1C20146E166A54
:10416800070E156E61EC25F01350120005501B2642
:1041780006501C2212001E0EF66E580EF76E000E28
:10418800F86E01EEE2F010EE10F00900F5CFEEFF48
:10419800E550E150FAE1DA0EF66E580EF76E000EB1
:1041A800F86E00EEFBF010EE05F00900F5CFEEFF1B
:1041B800E550E150FAE1DF0EF66E580EF76E000E8C
:1041C800F86E00EE77F010EE04F00900F5CFEEFF80
:1041D800E550E150FAE103EE00F0FA0EEE6AE80667
:1041E800FDE102EE00F0B60EEE6AE806FDE101EE32
:1041F80000F0E20EEE6AE806FDE100EE80F07B0ECC
:10420800EE6AE806FDE1716A766A756A746A736A2D
:10421800726A7B907B92000EF86E0001F5EF25F034
:104228000F6E8B848B920EC095F0200E0C6EBE0E16
:104238000D6E47EC2BF01B0E0C6EBE0E0D6EF4ECE3
:104248002BF00FC007F0050EC0EC2BF0076A110E1B
:10425800C0EC2BF00EC007F0120EC0EC2BF0076A72
:10426800130EC0EC2BF0076A140EC0EC2BF0076A93
:10427800150EC0EC2BF0076A160EC0EC2BF0260EBC
:10428800076E060EC0EC2BF0080E076E000EC0EC91
:104298002BF0030E076E010EC0EC2BF0030E076E19
:1042A800020EC0EC2BF04F0E076E040EC0EC2BF084
:1042B800076A1C0EC0EC2BF045EF29F0136E156A47
:1042C800166A1350B90F1624D96EDA6A1550070802
:1042D8000E6E0D50030DE50E0F6EBD0E106EF350F1
:1042E8000F26F450102216500F26000E10220FC071
:1042F800F6FF10C0F7FF0800F5CF11F00E2A02D024
:10430800D89011320E2EFCD71350B90F1624E16E37
:10431800E26AE750126ED89012341110DF6E162A36
:10432800020E1664CED7146A0D0E0E6EFC0EE82E21
:10433800FED70E2EFCD7142A220E1464F5D7B90E18
:10434800076E63EC28F0152A070E1564B9D7070C19
:10435800196E1B6A1C6A1950B90F1C24D96EDA6AC7
:104368001B500708146E1150050D12C015F013C02C
:1043780016F0F3501526F45016221C501526000E80
:10438800162215C0F6FF16C0F7FF0800F5CF17F084
:10439800142A02D0D8901732142EFCD71950B90F0E
:1043A8001C24E16EE26AE750186ED8901834171092
:1043B800DF6E1C2A040E1C64CED71A6A0D0E146E0A
:1043C800FC0EE82EFED7142EFCD71A2A220E1A64E9
:1043D800F5D7B90E076E63EC28F01B2A070E1B648D
:1043E800B9D7070C0B6A84909690140E096E7A0E52
:1043F800E82EFED7092EFCD79680640EE82EFED74D
:1044080084B0010CA00E00D0E82EFDD784A0020CC9
:10441800A00E00D0E82EFDD70C6A91EC2AF007C058
:10442800D9FF08C0DAFFDF6E074A082A0C2A040EF3
:104438000C64F3D70C6A0C500724096E000E082090
:104448000A6EFB0E0924D96EFF0E0A20DA6EDF50C1
:104458000B260C2A030E0C64EED72FEEFFF0075044
:10446800D9260850DA220B50DE1802E07180030CBE
:104478007190000C0550061001E112000D6A1AD067
:104488000D5029EC1EF00550DE1813E10650DE1819
:1044980010E1F29E0D5021EC1EF02FD80D5039EC92
:1044A8001EF026D80D5031EC1EF0DE6ADD6AF28E61
:1044B800000C0D2A72500D5CE3E30F0E72600F0CB6
:1044C800F29E725029EC1EF005C0DEFF06C0DDFF2B
:1044D800725021EC1EF011D8725039EC1EF008D839
:1044E800725031EC1EF0DE6ADD6A722AF28E000C20
:1044F80009C0DEFF0AC0DDFF120007C0DEFF08C0EA
:10450800DDFF12000D6A3FD00D5029EC1EF005505A
:10451800DE1838E10650DE1835E1F29E0D50076EC0
:10452800086A09680A6872500B6E0C6A09500B26F3
:104538000A500C2207500B1803E108500C181FE012
:104548007250076E086AD89007360836D890073632
:104558000836D89007360836F80E0724D96E000EAC
:104568000820DA6E0D50080D000EF324E16E010EDE
:10457800F420E26E070EDBCFE3FFE806FCE27206EA
:10458800F28E12000D2A72500D5CBEE312000D501F
:10459800D96EDA6A060E01EC2AF0DF6E0D50D96E7C
:1045A800DA6A0D5022D8D6EC2BF02DD8050E01EC86
:1045B8002AF01F0B28D80C5018D8D6EC2BF01ED890
:1045C800040E01EC2AF03F0B19D80B500ED8D6EC8C
:1045D8002BF00FD8030E01EC2AF0070B0AD80A506B
:1045E80004D8D6EC2BF0DF6E1200E16EE26AE750D9
:1045F8001200DF6E0A50D96EDA6A1200DF6E0B50B5
:10460800D96EDA6A1200DF6E0C50D96EDA6A1200BF
:104618000600D9CF03F0DACF04F0F2BAF2A403D03F
:104628003FEC2CF030D0F2B8F2A211D0F292010E89
:10463800F1AC000EFF0A026E023A02460246F15041
:104648000218BF0B0218F16EF4EC24F01CD09DB0D8
:104658009EA008D09E903C0ECF6EB00ECE6EE1ECC0
:104668002BF011D0A0B2A1A208D0A192F00EB36E87
:10467800600EB26E4DEC23F006D0F2BC9DAA03D0BA
:104688009EBA0EEC29F004C0DAFF03C0D9FF7B9272
:10469800110000019E510AE0982B1E0E986103D06C
:1046A800800E8C1A03D0986B9E6B8C9EB751D8B431
:1046B8001200A551D8B41200FE6B96510BE1972B4E
:1046C800140E976103D0800E8C1A04D0976B010EDC
:1046D800966F8C9E960502E1894B8A2B2D0E895D7B
:1046E800010E8A5904E3896B8A6B020E966F020EDB
:1046F8009619D8A41200972B140E976103D0800E38
:104708008C1A800C976B966BA56B8C9E1200126EA0
:10471800010E116E146A136A0C50080D7F0E0F6E8D
:10472800B70E106EF3500F26F450102214500F26B7
:10473800000E10220FC0F6FF10C0F7FF0800F5505A
:1047480011140BE013C005F00DC006F00EC007F001
:1047580012501424A5EC2AF00AD013C005F00DC09D
:1047680006F00EC007F012501424EBEC29F0D89094
:104778001136132A070E1364CFD7010E116E142AAF
:10478800060E1464C8D7060C196E010E186E1B6A43
:104798001A6A1150050D12C016F013C017F0F35025
:1047A8001626F45017221B501626000E172216C084
:1047B800F6FF17C0F7FF0800F55018140BE01AC0F1
:1047C80005F014C006F015C007F019501B24A5EC1D
:1047D8002AF00AD01AC005F014C006F015C007F078
:1047E80019501B24EBEC29F0D89018361A2A070E1A
:1047F8001A64CFD7010E186E1B2A040E1B64C8D783
:10480800040C096A0950BA0FD96EDA6A0950BBEC70
:1048180025F0092A1E0E0964F5D7040E0001A865C3
:104828000DD023D807E1A82B1F0EA865010CA96B92
:10483800A86B000CD86BA86BA92B010C16D8050D1A
:10484800EB0E076EB70E086EF3500726F4500822D9
:10485800A8510726000E082207C0F6FF08C0F7FF78
:104868000800F5CFD8F0A82B010CA9510524D96E62
:10487800000E0620DA6EDF501200156AE30EF66E9F
:10488800B70EF76E20EE0CF0070E2ED8FEE2176A70
:10489800166A15500C0F1724D96EDA6ADF500B6EA2
:1048A8001650B90FD96EDA6A0B50DF16152A070EA3
:1048B800156401D0156A162A1F0E1664EAD7B90EB8
:1048C800076E63EC28F0146A0D0E0B6EFC0EE82ED2
:1048D800FED70B2EFCD7142A630E1464F5D7172ABB
:1048E800070E1764D5D7070C0900F5CFDEFFE806D9
:1048F80012000A6A08AE06D0076C081ED8B0082A4B
:10490800010E0A6E06AE06D0056C061ED8B0062A41
:10491800010E0A1A0B6A0C6A075008101BE0010EF8
:10492800096E04D0D89007360836092A08AEFAD797
:10493800D8900B360C360750055C0850065805E32E
:104948000750055E0850065A0B80D8900832073287
:10495800092EEED70A5004E00B6C0C1ED8B00C2AB6
:104968000BC005F00CC006F01200196A1A6A1B6A1F
:104978001C6A155016101710181029E0010E1D6E2C
:1049880006D0D89015361636173618361D2A18AEA2
:10499800F8D7D89019361A361B361C361550115CC4
:1049A80016501258175013581850145809E3155038
:1049B800115E1650125A1750135A1850145A19806B
:1049C800D89018321732163215321D2EE2D719C078
:1049D80011F01AC012F01BC013F01CC014F0120022
:1049E8000001B851D8B41200A32B080EA3191BE17B
:1049F800A36B19D0360EC86FC96F360C240E24D09D
:104A0800240EC86FC96F240C240EC86FC96B12001E
:104A1800C86BC96B1200120EF8D7120EC86FC96F97
:104A2800120C120E11D0A351E5E0010AE7E0030AC7
:104A3800E7E0010AE9E0070AEBE0010AECE0030A13
:104A4800ECE0010AEEE01200C86F360EC96F360CB2
:104A5800EAC0A2F0CDEC12F0C6EC25F0ED0E0A6E1D
:104A6800EE0E0B6EEF0E0C6EF00E0D6ECBEC22F010
:104A78000001A251EA1901E07184030EEA1902E16A
:104A8800010EFE6F735005E0D9EC12F00FEC11F037
:104A980001D0F76B060E0001EC65060C180EEC61F0
:104AA800180CEB51D8A41200EA51D8A41200FE51F8
:104AB800D8B41200010EA56F010C186A14AE06D006
:104AC800136C141ED8B0142A010E186E16AE04D03A
:104AD800156C161ED8B0162A1550161017E0010EC0
:104AE800176E04D0D89015361636172A16AEFAD790
:104AF8001550135C1650145804E31550135E1650E5
:104B0800145AD89016321532172EF2D7185004E0DE
:104B1800136C141ED8B0142A13C013F014C014F068
:104B28001200100E0E6E0F0E0F6E0C6A960E0E24EB
:104B380024D80E501CD80E2A960E0F241ED80F50BB
:104B480016D80F06B90E076E63EC28F00D6A0D0E25
:104B58000B6EFC0EE82EFED70B2EFCD70D2A1D0E71
:104B68000D64F5D70C2A0F0E0C64E0D70F0CB90FA3
:104B7800E16EE26ADFCFE7FF1200D96EDA6A020E51
:104B8800DA2212000C50D2EC29F001EC2AF0DF6E88
:104B98000C50D96EDA6A0C50F9EC22F0D6EC2BF0F6
:104BA8001BD8010E01EC2AF017D80B50F9EC22F0B3
:104BB800D6EC2BF00CD8020E01EC2AF03F0B07D8EC
:104BC8000A50F9EC22F0D6EC2BF0DF6E1200DF6E03
:104BD8000A50D96EDA6A1200DF6E0B50D96EDA6AA3
:104BE8001200820E0101F66FDD0EE82EFED7F62FB9
:104BF800FCD700D0DEEC18F006EC2CF00001B86B06
:104C08009EEC28F0010EB86FF29EC20E056E180ECB
:104C180067EC19F063EC19F03EEC22F0980E056E83
:104C28004E0E08D8010E096E3EEC22F0F28EBCEC56
:104C38001DF0FDD7066E086A076A0A6A12000ED0D0
:104C4800FEEC26F011C013F012C014F0166A050E1F
:104C5800156E61EC25F013500001A76F0001A751F4
:104C6800A619EEE0A7C0A6F0A751020DD90EF324AD
:104C7800F66EB70EF420F76E0900F5CF93F00A0030
:104C8800F5CF94F00500FA6E9351FD6E9451FE6EC7
:104C9800F850FF6EFA5012000E6A26D8DF501FE057
:104CA8000C6A22D80E50B90FE16EE26AE7500B6E1B
:104CB800D8900B34DF6EB90E076E63EC28F00D6ADE
:104CC8000D0E0B6EFC0EE82EFED70B2EFCD70D2A10
:104CD800040E0D64F5D70C2A070E0C64E2D70E2AD1
:104CE8001F0E0E64DAD71F0C0E50B90FD96EDA6A90
:104CF80012000C6E0E6A24D00F6A0F50BA0FD96ECC
:104D0800DA6A0F50BBEC25F00F2A1E0E0F64F5D798
:104D18000E50D90FD96EDA6ADF500001D86FB90E7C
:104D2800076E63EC28F00D6A0D0E0B6EFC0EE82E74
:104D3800FED70B2EFCD70D2A310E0D64F5D70E2A9F
:104D48000E500C5CD9E21200640E0E6E0D6A0F6AEA
:104D58000F50BA0FD96EDA6A0F50BBEC25F00F2A44
:104D68001F0E0F64F5D70001D86BB90E076E63EC00
:104D780028F00C6A08D00D0E0B6EFC0EE82EFED73C
:104D88000B2EFCD70C2A0E500C5CF5E30A0E0E64B1
:104D980001D00E5E0D2A1F0E0D64D9D71F0C640EAC
:104DA8000E6E0D6A1F0E0F6E0F50B80FD96EDA6AAD
:104DB8000F50BBEC25F00F060F50F6E10001B96B60
:104DC800B90E076E63EC28F00C6A08D00D0E0B6E56
:104DD800FC0EE82EFED70B2EFCD70C2A0E500C5CCE
:104DE800F5E30A0E0E6401D00E5E0D2A1F0E0D6447
:104DF800D9D71F0CEEC105F0EFC106F0F0C107F0DE
:104E0800F1C108F06D0E096E4E0E0A6EC60E0B6EDD
:104E1800410E0C6E98EC27F005C0EEF106C0EFF1DC
:104E280007C0F0F108C0F1F1390E0101EE27300E8C
:104E3800EF23000EF023F123F051116E7F0EF115D0
:104E4800126E12000C6E0F6A106A5CEC2CF0EC0EFD
:104E58004EEC2CF00C504EEC2CF060EC2CF0ED0EDF
:104E68004EEC2CF0010E15EC2BF00F6E106A000EB4
:104E780015EC2BF00D6E0E6A58EC2CF00D500B6EE5
:104E88000A6A0F500A10086E10500B10096E1200B3
:104E980081B202D0010E0BD081B402D0020E07D02D
:104EA80081B602D0030E03D081B803D0040E056E7C
:104EB80001D0056A05500FE0290E00019D61290CFB
:104EC8009D2B280E9D19D8A4120005C079F09D6B62
:104ED800010E9E6F010C00019D6B120019D0B30EDC
:104EE800776EBD0E786E1200810E776EBD0E786EED
:104EF80012004F0E776EBD0E786E12001D0E776E83
:104F0800BD0E786E1200EB0E776EBC0E786E120036
:104F18007650010AE4E0030AE7E0010AEAE0070A3A
:104F2800EDE0010AF0E012000D6A0E6A0F6A106ADD
:104F380005A008D009500D260A500E220B500F224A
:104F48000C501022D89009360A360B360C36D890F9
:104F580008320732063205320550061007100810CD
:104F6800E7E10DC005F00EC006F00FC007F010C055
:104F780008F012000A6A0B6A075008101BE0010EBD
:104F8800096E04D0D89007360836092A08AEFAD731
:104F9800D8900A360B360750055C0850065805E3CA
:104FA8000750055E0850065A0A80D8900832073222
:104FB800092EEED70AC005F00BC006F012000C6AE5
:104FC8001F0E0D6E0E6A0C5019D80C2A0D5016D8EB
:104FD8000D06B90E076E63EC28F00F6A0D0E0B6E06
:104FE800FC0EE82EFED70B2EFCD70F2A1D0E0F64E1
:104FF800F5D70E2A0F0E0E64E6D70F0CB90FD96E2F
:10500800DA6ADF6A12008B6A180E946E8A6A1F0EBB
:10501800936EF19E8C6A956A896A010E926EC30E30
:10502800C216C150F00B0E09C16ECF0EC116C0508A
:10503800F80B0209C06EC08EC280F18CF292F28821
:10504800828012000E500F1017E0010E106E04D06F
:10505800D8900E360F36102A0FAEFAD70E500C5CC9
:105068000F500D5804E30E500C5E0F500D5AD89097
:105078000F320E32102EF2D70CC00CF00DC00DF00E
:10508800120082909490070E056E7D0EE82EFED7D2
:10509800052EFCD700F082809480C80E00D0E82E40
:1050A800FDD7000E82B0010E066E060E056E800E4C
:1050B800E82EFED7052EFCD700D0065012000A6A4B
:1050C8008C90096A0950F80D0750F3240A24D96E08
:1050D800DA6A180ED926DF50086E0A2827EC2BF05A
:1050E800085027EC2BF0092A030E0964EBD78C80B3
:1050F8000A2A070E0A64E4D7070C156E1550B9EC96
:105108002AF0106E030E81EC2BF01250B9EC2AF045
:10511800106E040E81EC2BF01350B9EC2AF0106ECF
:10512800050E81EC2BF01450B9EC2AF0106E060E27
:1051380081EF2BF0A50E116E010E126E480E136E44
:10514800BE0E146E250E156EBE0E166E060E176E6A
:10515800BE0E186E120E196EBE0E1A6E38EC15F0D1
:10516800A50E0B6E010E0C6EF2EF28F0086E0A6A9F
:105178000AC006F008C007F0062A02D0D890073205
:10518800062EFCD70750096E010E09160950F1ECDE
:105198002AF00A2A070E0A64EBD7D20E00D0E82EAE
:1051A800FDD71200076A086A8FEC2BF000090CE0A3
:1051B80008C005F0010E066E052A02D0D890063602
:1051C800052EFCD706500712F00E00D0E82EFDD7AA
:1051D800082A070E0864E8D707501200F29E10D07C
:1051E800B90E076E63EC28F00E6A0D0E0D6EFC0EFC
:1051F800E82EFED70D2EFCD70E2A450E0E64F5D7E5
:105208000BC005F00CC006F005EC24F00009E8E13D
:10521800F28E1200ABA202D0AB98AB88000E000150
:105228009A250FD8AECFDFFF9A2B950E9A6501D03D
:105238009A6BA42BA405016E950E0164950CA46BC2
:105248001200D96EDA6A030EDA221200056E000126
:105258009B51FDE09DB805D09EA8FED705C0ADFFC7
:1052680012009D98780E9C25D96EDA6A010EDA2212
:1052780005C0DFFF9C2B0F0E9C6501D09C6B9B0724
:1052880012008B94E20E2CEC2AF08B84700E076EC1
:10529800070EC0EC2BF08B920B0E076E000EC0ECC5
:1052A8002BF08B82C00E00D000D0E82EFCD700D0A7
:1052B80000D000D01200066E086A055014E0010EF6
:1052C800076E03D0D8900536072A05AEFBD7D890CD
:1052D80008360550065C03E30550065E0880D89042
:1052E8000532072EF4D7085012008C80010E076E85
:1052F8000C0E56EC2BF0076A090E56EC2BF0070E35
:10530800076E0B0E56EC2BF0020E076E0A0E56ECCB
:105318002BF0076A0F0E56EF2BF0146E1350B9ECF2
:105328002AF0106E000E81EC2BF01250B9EC2AF026
:10533800106E010E81EC2BF01450B9EC2AF03F0BE3
:10534800106E020E81EF2BF00A6E8B940A502CEC33
:105358002AF00B6A0BD007C0F6FF08C0F7FF080059
:10536800F5502CEC2AF0074A082A0B2A09500B5C46
:10537800F2E38B841200096E8B9409502CEC2AF00E
:105388000A6A07D007500A2409D82CEC2AF0DF6EE5
:105398000A2A08500A5CF6E38B841200D96EDA6A8E
:1053A800000C0001FC5103E13A0EFB5D05E3030E1E
:1053B800076E0A0E56EF2BF0FC5108E1330EFB5D29
:1053C800D8B01200076A0A0E56EC2BF012000B6ECA
:1053D80005C008F0010E096E082A02D0D8900936D7
:1053E800082EFCD7091C0A6E0B500624D96E000E35
:1053F8000720DA6E0A50DF161200086E5CEC2CF0FB
:10540800D00E4EEC2CF008504EEC2CF060EC2CF04A
:10541800D10E4EEC2CF0000E15EC2BF0096E58EC6A
:105428002CF009501200948C948EAC98AC8AAB88FE
:10543800AB8EAC84B886040EB06E100EAF6E000151
:105448009C6B100E9B6F9A6B996BA46B9D8A1200D4
:10545800056E066A05AE02D08C8801D08C98D8906B
:1054680005368C8A010E83A6000E05128C9A062A30
:10547800070E0664EFD70550120045EC28F0000926
:10548800D8A41200CC0EBAEC28F04E0EBAEC28F0D4
:10549800000EBAEC28F0000EBAEC28F07F0EBAEF36
:1054A80028F005C007F006C008F002D0074A082A0D
:1054B80007C0D9FF08C0DAFFDF50F8E10550075CE4
:1054C800056E06500858066E1200FA0E45EC1FF0DD
:1054D80008C02DF009C02EF00AC02FF00BC030F024
:1054E8002DC029F02EC02AF02FC02BF030C02CF090
:1054F8001200F70E45EC1FF008C02DF009C02EF081
:105508000AC02FF00BC030F02DC029F02EC02AF0B1
:105518002FC02BF030C02CF01200056A066AD89014
:105528000536968084A0FED7640EE82EFED784B098
:10553800058084B0FED7062A070E0664F0D705500A
:1055480012000A6E05C008F0010E096E082A02D082
:10555800D8900936082EFCD70A500624D96E000EBA
:105568000720DA6E0950DF1212000F6E0A0E096E5C
:105578000F50CCEC2AF00D6E0F0E0D160A0E056EAC
:105588000F505FEC29F00E6E0E38F00B0D10120064
:105598000A6E080E0B6E0C6AD8900A340C340C6E26
:1055A800D8900A3609500C5C02E309500C5E0B2EA9
:1055B800F3D70C501200A451FEE0000E992525ECFB
:1055C80029F0DF50056E992B950E996501D0996BDE
:1055D8009D9AA4079D8A05501200056E82909490AA
:1055E800050406E1060EE82EFED700D082809480DE
:1055F800D20E00D0E82EFDD7828094801200066E6D
:10560800A6B2FED706C0A9FF05C0A8FFA69EA69C05
:10561800A684F29E550EA76EAA0EA76EA682F28EDB
:10562800AA0C066E37EC2CF0C58637EC2CF0C9CFE7
:1056380007F037EC2CF0065002E1C58A01D0C59A74
:10564800C58807501200056E066A05AE02D08C8424
:1056580001D08C948C8200F08C92D8900536062A62
:10566800070E0664F2D7070CC282C2B2FED7C45036
:10567800066E056AC3500524FB6F000E0620FC6FFA
:1056880000F000F0120007D82A0EA8EC29F003D881
:10569800300EA8EF29F00CC007F00DC008F0050E79
:1056A800096E050C086E8C90096A085027EC2BF0DF
:1056B800075027EC2BF0092A030E0964F6D78C80D3
:1056C800030C086E5CEC2CF0EC0E4EEC2CF0085041
:1056D8004EEC2CF007504EEC2CF058EF2CF0CD90FF
:1056E8003C0ECF6EB00ECE6E9D80B192B180A0827E
:1056F800F00EB36E600EB26E600C116E5CEC2CF0A6
:10570800D00E4EEC2CF011504EEC2CF010504EEC0C
:105718002CF058EF2CF082909490030EE82EFED7D0
:1057280000F082809480140EE82EFED782B0010C1F
:10573800000C0BC007F095C008F0610EBFEC29F013
:10574800400E076E070EC0EF2BF0076E8B940750C4
:105758002CEC2AF0000E2CEC2AF0086E8B840850F2
:105768001200180E9412280EC66EC76A630EC86E11
:10577800C584C5A41200FDD7086E8B940850200973
:105788002CEC2AF007502CEC2AF08B8412002FEC1A
:105798002CF00A6E0ABC010C47EC2CF00009D8B4B6
:1057A800010C000C066E06C005F00F0E0516063833
:1057B8000F0B0A0DF350052412000001F92B950E6A
:1057C800F965950CF96B010EF86FCD90010C106A14
:1057D8000E0E81EC2BF0080E106E0F0E81EF2BF0E1
:1057E8000CC007F00DC008F0050E096E2B0EA8EFCF
:1057F80029F0A6B2FED705C0A9FFA69EA69CA68042
:10580800A8501200056A055002EC28F0052A1F0E60
:105818000564F9D71F0C1F1D1F1E1F1E1F1F1E1FEB
:105828001E1F0100000005C0EEF106C0EFF10101E6
:10583800F06BF16B12009586959894929494959AD2
:10584800958C8B841200C70ED56EF28AD76A3D0EEE
:10585800D66E726A12008B94FF0E2CEC2AF0076E3B
:105868008B8407501200C7B4FED7C5CF05F01F0EB2
:105878000516F9E11F0CF294D76A3D0ED66E010E9B
:105888000001B26F010C170EA9EC2BF0096E09503C
:10589800010B1200066E37EC2CF006C0C9FF12008F
:1058A8009A6B996BA46B120037EC2CF0C58412002C
:1058B80037EC2CF0C580120037EC2CF0C5821200B2
:1058C800959E8C9E1200F28EF28C1200040E796E58
:0B58D800040CF4012B0102B3BD05011C
:10B77E00000000000000000000087C4E4F4E7C08C8
:10B78E00000426473F07060400203E7F7F3F3E20F1
:10B79E00007E121E00701000004C6C30186C64009D
:10B7AE0000771166116600440041516B454100005F
:10B7BE00000001010202030404050606070708093A
:10B7CE000901000A006400E80310278248504DA6C4
:10B7DE004DC64FA04CFDBFEF7FFBDFF7FE00000014
:10B7EE0000004551453E006B6F6B3E003E7C3E1C9B
:10B7FE00003C7E3C1800367F363000000000000012
:10B80E00000000000000000000000000000000002A
:10B81E00000000000000000000000000000000001A
:10B82E00000000000000000000000000000000000A
:10B83E0000000000000000000000000000000000FA
:10B84E0000000000000000000000000000000000EA
:10B85E0000003636000000243600000024240000CC
:10B86E000024000000000000000000120000000094
:10B87E001212000000123600000012360000000006
:10B88E00000000005F00000007000700147F147F17
:10B89E0014242A7F2A122313086462364956205034
:10B8AE000008070300001C2241000041221C002A50
:10B8BE001C7F1C2A08083E0808008070300008080B
:10B8CE00080808606000000020100804023E51497C
:10B8DE00453E00427F400042615149462141454B61
:10B8EE00311814127F1027454545393C4A494930D5
:10B8FE0001710905033649494936064949291E0091
:10B90E0000363600004034000000081422411414A2
:10B91E00141414004122140802015909063E415D17
:10B92E00594E7C1211127C7F494949363E414141A4
:10B93E00227F4141413E7F494949417F0909090121
:10B94E003E414151727F0808087F00417F4100202F
:10B95E0040413F017F081422417F404040407F021A
