:0400000007EF00F016
:100008007B8255ED23F038EF20F00001A1510DE07F
:1000180022EC2BF0176E100E9B25D96EDA6A020EB1
:10002800DA2217C0DFFF9B2B1200240E02011019E1
:1000380001E1B0D3DCD337EC04F00001826F020198
:100048002BEC04F00001816FF5510CE0825105E1C1
:1000580017EC10F0BEEC29F009D012EC10F0BEEC51
:1000680029F004D01BEC10F0BEEC29F04F0E23EC65
:1000780029F04B0E23EC29F00D0E23EC29F00A0E83
:1000880023EC29F0B4D3BBDB19041A1005E0B7DB65
:10009800020E19181A101FE11251D00F786E78C08D
:1000A80005F0010E46EC2BF038EC2CF0780403E157
:1000B8000001B86B02D062EC16F0A06B4F0E23EC77
:1000C80029F04B0E23EC29F00D0E23EC29F00A0E33
:1000D80023EC29F08CD3450E23EC29F0520E23ECA7
:1000E80029F00D0E23EC29F00A0E23EC29F07FD31A
:1000F800010EA4DB46EC2BF0A3EC27F022D0020E75
:100108009DDB46EC2BF0F8D7030E98DB46EC2BF082
:10011800F3D7040E93DB46EC2BF0EED7050E8EDBFF
:1001280046EC2BF0E9D76BDB1A500BE11950010AAA
:10013800DFE0030AE4E0010AE7E0070AEAE0010A6F
:10014800EDE0D00E176E1868020112516BDB1ABE73
:1001580005D01A5007E1060E195C04E250DB19506D
:100168001A100DE1450E23EC29F0520E23EC29F06C
:100178000D0E23EC29F00A0E23EC29F038D34F0E8C
:1001880023EC29F04B0E23EC29F00D0E23EC29F07B
:100198000A0E23EC29F02BD35ADB126E16510A0DE6
:1001A800F3501725F00F136E18510A0DF350192547
:1001B800F00F146E58DBB2EC28F04F0E23EC29F048
:1001C8004B0E23EC29F00D0E23EC29F00A0E23EC3C
:1001D80029F00DD314DB19501A1004E010DB1904B0
:1001E8001A100CE11251D00F0001B76F42DBB66F45
:1001F800B7C005F0020E46EC2BF00DD0450E23ECEF
:1002080029F0520E23EC29F00D0E23EC29F00A0EEA
:1002180023EC29F0ECD20001B75109E1B6C005F092
:10022800030E46EC2BF0C1EC1AF088EC2BF04F0EC5
:1002380023EC29F04B0E23EC29F00D0E23EC29F0CA
:100248000A0E23EC29F0D3D2DADA19501A1004E096
:10025800D6DA19041A100AE11251D00F0001B56F4D
:10026800B5C005F0040E46EC2BF00DD0450E23EC7E
:1002780029F0520E23EC29F00D0E23EC29F00A0E7A
:1002880023EC29F0B4D24F0E23EC29F04B0E23ECCB
:1002980029F00D0E23EC29F00A0E23EC29F0A7D241
:1002A800AEDA19501A1004E0AADA19041A101BE180
:1002B800C0DAB8DA19501A1005E0BBDAB3DA190453
:1002C8001A1011E11251D00F0001B46FD2DAB36FD6
:1002D800B4C005F0050E46EC2BF0B3C005F0060ED1
:1002E80046EC2BF00DD0450E23EC29F0520E23ECF2
:1002F80029F00D0E23EC29F00A0E23EC29F077D211
:100308004F0E23EC29F04B0E23EC29F00D0E23ECB5
:1003180029F00A0E23EC29F06AD271DA19501A1062
:1003280004E06DDA19041A100AE11251D00F000125
:10033800B26FB2C005F0070E46EC2BF00DD0450E9B
:1003480023EC29F0520E23EC29F00D0E23EC29F0B2
:100358000A0E23EC29F04BD24F0E23EC29F04B0E5A
:1003680023EC29F00D0E23EC29F00A0E23EC29F0DA
:100378003ED245DA19501A1004E041DA19041A106D
:100388000AE11251D00F0001B16FB1C005F0080E9B
:1003980046EC2BF00DD0450E23EC29F0520E23EC41
:1003A80029F00D0E23EC29F00A0E23EC29F01FD2B8
:1003B8004F0E23EC29F04B0E23EC29F00D0E23EC05
:1003C80029F00A0E23EC29F012D219DA19041A10AE
:1003D80005E015DA020E19181A100AE11251D00FA9
:1003E8000001FE6FFEC005F0090E46EC2BF00DD0A3
:1003F800450E23EC29F0520E23EC29F00D0E23ECC8
:1004080029F00A0E23EC29F0F2D14F0E23EC29F043
:100418004B0E23EC29F00D0E23EC29F00A0E23ECE9
:1004280029F0E5D1ECD919041A1004E0E8D91950DB
:100438001A100AE11251D00F0001B06FB0C005F0D8
:100448000A0E46EC2BF00DD0450E23EC29F0520E87
:1004580023EC29F00D0E23EC29F00A0E23EC29F0E9
:10046800C6D14F0E23EC29F04B0E23EC29F00D0ECC
:1004780023EC29F00A0E23EC29F0B9D14F0E23EC16
:1004880029F04B0E23EC29F00D0E23EC29F00A0E6F
:1004980023EC29F0330E186EBB0E176EE00EE82E13
:1004A800FED7172EFCD7182EFAD7330E186EBB0EB0
:1004B800176EE00EE82EFED7172EFCD7182EFAD7A7
:1004C800330E186EBB0E176EE00EE82EFED7172EF1
:1004D800FCD7182EFAD7330E186EBB0E176EE00E27
:1004E800E82EFED7172EFCD7182EFAD7FF007FD19B
:1004F800740E121902E1030E04D0700E121903E1F2
:10050800020E776E0DD0450E23EC29F0520E23EC27
:1005180029F00D0E23EC29F00A0E23EC29F067D1FF
:100528004F0E23EC29F04B0E23EC29F00D0E23EC93
:1005380029F00A0E23EC29F05AD1610E121920E194
:100548001B6A0BD0130E1B24D96EDA6A020EDA224C
:10055800960E1B24A1EC14F01B2AFD0E176E1868CA
:10056800100E056E020E066E99EC2AF0175005263D
:10057800185006221B50055C000E06581CE3E2D7F3
:10058800750E121907E1100E096E020E0A6E07ECBD
:1005980014F011D06F0E12190EE174924F0E23EC65
:1005A80029F04B0E23EC29F00D0E23EC29F00A0E4E
:1005B80023EC29F01CD14F0E23EC29F04B0E23EC31
:1005C80029F00D0E23EC29F00A0E23EC29F0EEC0D9
:1005D8009DF074820001B86B53EC1EF04AEC22F0D7
:1005E800C0EC09F04AEC22F03CEC0BF072EC29F07C
:1005F8002AEC26F082EC12F002EC22F062EC16F003
:10060800F6D0086A640E29D9EFEC27F003D957EC25
:1006180028F00C50300F23EC29F0086A0A0E1DD977
:10062800EFEC27F0F7D857EC28F00C50300F23ECFC
:1006380029F0FAC00CF0FBC00DF01FEC0BF057ECE2
:1006480028F00C50300F23EC29F05F0E23EC29F032
:1006580094D01B6A0B0E1B6401D00AD0020E1B2417
:10066800F66EF76ABE0E0AD923EC29F01B2AF2D7D8
:100678000D0E23EC29F00A0E23EC29F01B6A080E54
:100688001B6401D00AD00E0E1B24F66EF76ABE0E4C
:10069800F5D823EC29F01B2AF2D70D0E23EC29F00C
:1006A8000A0E23EC29F069D00001FC5123EC29F053
:1006B800086A640EAFEC09F0EFEC27F0ABD857EC02
:1006C80028F00C50300F23EC29F0A7EC09F0EFECE0
:1006D80027F0A0D857EC28F00C50300F23EC29F065
:1006E8009AEC09F057EC28F00C50300F23EC29F065
:1006F8005F0E23EC29F041D0086A640E076EA2D879
:10070800EFEC27F087D857EC28F00C50300F23EC8B
:1007180029F0086A0A0E076E95D8EFEC27F07AD808
:1007280057EC28F00C50300F23EC29F027EC0BF095
:100738001FEC0BF057EC28F00C50300F23EC29F08D
:100748005F0E23EC29F019D0450E23EC29F0520E48
:1007580023EC29F00D0E23EC29F00A0E23EC29F0E6
:100768000CD01251610A01E14CD7050AC5E0100A04
:100778009BE0020A01E16DD7E7D74F0E23EC29F081
:100788004B0E23EC29F00D0E23EC29F00A0E23EC76
:1007980029F02DD01151530A01E1CFD6320A01E1D7
:1007A8007FD5030A01E116D5010A01E16CD4070AD5
:1007B80001E1F2D4010A01E1B0D5030A01E1B3D4A1
:1007C800170A01E195D6030ACCE0010A01E13CD5FC
:1007D800070A01E130D4020A01E1F7D5010A01E173
:1007E800C8D50E0A01E11ED6030A01E147D6020167
:1007F800106B116B126B00019B6B7EEF2CF0D00E0F
:10080800176E18681251196E1A6A1750192618505F
:100818001A22120005C00CF006C00DF00F6A0A0E6D
:100828000E6E0A0C196E1A6A1750192618501A22D9
:100838001200D00E176E1868135112007A6E7AC023
:1008480005F0000C89C005F08AC006F012001451AA
:100858000A0DF3501525F00F1200076EFAC005F0C7
:10086800FBC006F0120012510A0DF3501325F00FC9
:10087800120002011351D00F00011200F7220800E4
:10088800F5501200ADEC2AF029C056F02AC057F0F6
:100898002BC058F02CC059F0C1EC2AF029C04AF0FE
:1008A8002AC04BF02BC04CF02CC04DF00B0E80DB57
:1008B800D89038343C6E39343D6E3A343E6E3B3411
:1008C8003F6E030E406E56C041F057C042F058C00C
:1008D80043F059C044F0406601D007D04434443254
:1008E800433242324132402EF6D73C50415C056ECD
:1008F8003D504258066E3E504358076E3F5044588C
:10090800086E93C109F094C10AF04CDBC9EC27F0DA
:10091800376601D003D00ADB372EFAD716DB0C0E68
:1009280047DB040E3C6E56C03DF057C03EF058C041
:100938003FF059C040F03C6601D003D054DB3C2E58
:10094800FAD738503D5C056E39503E58066E3A501D
:100958003F58076E3B504058086E00018751416E62
:100968008851426E436A446A040E456E56C046F08A
:1009780057C047F058C048F059C049F0456601D003
:1009880007D049344932483247324632452EF6D7E5
:100998004150465C096E425047580A6E43504858C9
:1009A8000B6E445049580C6EC9EC27F0376601D0DD
:1009B80003D0BCDA372EFAD7BFDA0E0E376E0ADB51
:1009C80091C109F092C10AF0EDDAC9EC27F0376657
:1009D80001D003D0ABDA372EFAD7C0DA5E506624DE
:1009E800526E5F506720536E60506820546E61509D
:1009F8006920556E52C005F053C006F054C007F088
:100A080055C008F0050E096E0A6A0B6A0C6AC9EC33
:100A180027F0800E0524376E000E0620386E000E73
:100A28000720396E000E08203A6E38C037F039C0FA
:100A380038F03AC039F03A6A39BE3A6837C04EF0F1
:100A480038C04FF039C050F03AC051F035C0D9FF26
:100A580036C0DAFF4EC0DEFF4FC0DEFF50C0DEFFFB
:100A680051C0DEFF52C037F053C038F054C039F0DF
:100A780055C03AF03A34BDDA000E3724666E060ED9
:100A88003820676EFF0E3920686EFF0E3A20696EB7
:100A98000B0E12DAC9EC27F0376601D003D046DA1C
:100AA800372EFAD749DA96DA87C109F088C10AF0F1
:100AB80079DAC9EC27F052DA89C105F08AC106F063
:100AC80056DAC9EC27F0D8900534376E0634386EFC
:100AD8000734396E08343A6E37505E2638505F2234
:100AE800395060223A50612201018B51376E8C5186
:100AF800386E396A3A6A38C03AF037C039F0386A1D
:100B0800376A020E3B6E5EC03CF05FC03DF060C0CD
:100B18003EF061C03FF03B6601D007D03F343F3222
:100B28003E323D323C323B2EF6D737503C245E6E87
:100B380038503D205F6E39503E20606E3A503F205D
:100B4800616E0D0EB9D9C9EC27F0376601D003D014
:100B5800EDD9372EFAD7F0D9120E376E030E386E4C
:100B68008DC105F08EC106F0000E0FDAC9EC27F032
:100B780005C039F006C03AF007C03BF008C03CF0A9
:100B8800386601D007D03C343C323B323A323932F5
:100B9800382EF6D78FC105F090C106F0E8D9C9EC18
:100BA80027F0C4D9055039243D6E06503A203E6ED0
:100BB80007503B203F6E08503C20406E376601D0FE
:100BC80003D011DA372EFAD73DC066F03EC067F081
:100BD8003FC068F040C069F00F0E376E000E662403
:100BE800056E800E6720066E000E6820076E000EE8
:100BF8006920086EF4C109F0F5C10AF00B6A0C6AA5
:100C0800C9EC27F0376601D003D090D9372EFAD730
:100C18009CD9665067106810691001E112000C0E2B
:100C2800376E5EC038F05FC039F060C03AF061C01E
:100C38003BF0376601D004D03B34E0D9372EF9D7E2
:100C48004AC03CF04BC03DF04CC03EF04DC03FF0B8
:100C58003C1E3D1E3E1E3F1E3C2A000E3D223E22EB
:100C68003F2238503C5C406E39503D58416E3A50F6
:100C78003E58426E3B503F58436E000E4024056E6E
:100C8800000E4120066E100E4220076E000E432013
:100C9800086E350E096E0C0E0A6E0B6A0C6AC9ECEA
:100CA80027F005C062F006C063F007C064F008C012
:100CB80065F0800E655C15E2D8906234056E633489
:100CC800066E6434076E6534086E7BD988EC24F0B0
:100CD80005C062F006C063F007C064F008C065F0A4
:100CE80014D062C005F063C006F064C007F065C0A8
:100CF80008F067D988EC24F0D8900534626E063481
:100D0800636E0734646E0834656E62C037F063C082
:100D180038F064C039F065C03AF0040E02D0D890BB
:100D280068D9E82EFCD737C005F038C006F039C0BE
:100D380007F03AC008F062C03BF063C03CF064C002
:100D48003DF065C03EF0040E05D0D8903E323D32ED
:100D58003C323B32E82EF9D73BC009F03CC00AF0E0
:100D68003DC00BF03EC00CF0C9EC27F00E0E05D0CC
:100D7800D8900832073206320532E82EF9D7DCD887
:100D88000C0E376E81C105F082C106F0000EFDD849
:100D9800C9EC27F0376601D003D0C8D8372EFAD768
:100DA800D4D80D0E376E62C038F063C039F064C015
:100DB8003AF065C03BF0030E02D0D8901FD9E82E58
:100DC800FCD738C005F039C006F03AC007F03BC080
:100DD80008F083C109F084C10AF0E4D8C9EC27F00F
:100DE800376601D003D0A2D8372EFAD7B7D8040E69
:100DF800376E85C138F086C139F0000E39BEFF0E56
:100E08003A6E3B6E665038243C6E675039203D6E12
:100E180068503A203E6E69503B203F6E5E503C243D
:100E2800406E5F503D20416E60503E20426E6150E2
:100E38003F20436E376601D007D0433443324232F5
:100E480041324032372EF6D762504024626E6350EA
:100E58004120636E64504220646E65504320656E85
:100E6800070E196E400E1A6E3F0E1B6E62C00DF013
:100E780063C00EF064C00FF065C010F07DEC27F081
:100E88000DC016F00EC017F00FC018F0C4EC1EF01D
:100E980016C025F017C026F018C027F086EC1FF002
:100EA8003450D96EDA6A25C0DEFF26C0DEFF27C0BF
:100EB800DEFF28C0DEFF1200376E020E386E66C0F5
:100EC80039F067C03AF068C03BF069C03CF038665A
:100ED80001D007D03C343C323B323A323932382EDA
:100EE800F6D739C005F03AC006F03BC007F03CC061
:100EF80008F0020E3D6E66C03EF067C03FF068C065
:100F080040F069C041F03D6601D007D0413441321C
:100F180040323F323E323D2EF6D73EC009F03FC048
:100F28000AF040C00BF041C00CF01200083408323F
:100F3800073206320532120005C05AF006C05BF0CF
:100F480007C05CF008C05DF0120005C066F006C07E
:100F580067F007C068F008C069F0120005C05EF0CD
:100F680006C05FF007C060F008C061F01200000E14
:100F780006BEFF0E076E086E66C009F067C00AF06D
:100F880068C00BF069C00CF0120006BEFF0E076EB9
:100F9800086E5AC009F05BC00AF05CC00BF05DC077
:100FA8000CF01200000E0ABEFF0E0B6E0C6E120043
:100FB800376E00018751386E8851396E3A6A3B6A3C
:100FC800120066C009F067C00AF068C00BF069C07B
:100FD8000CF012005AC005F05BC006F05CC007F0C8
:100FE8005DC008F01200403440323F323E323D329C
:100FF80012003A3239323832373212003B323A3242
:101008003932383212007FD138EC2CF074A615D062
:10101800020E94D9000E96EC23F0450E7CD9090EE9
:1010280070EC21F0720E77D90F0E70EC21F0720E71
:1010380072D9150E70EC21F04ED100018D2903E113
:101048008E2901E134D1FE0503E08D518E1175E141
:101058006DD957EC28F00C502F6E8DC005F08EC05E
:1010680006F041EC0BF0EFEC27F005C08DF006C060
:101078008EF0050E2F6403D000018D4B8E2B63D9A3
:10108800EFEC27F00EEC04F057EC28F00C500D10A4
:101098002DE1020E53D9030E96EC23F000018D5179
:1010A8008E1115E0FCC011F03CD90D0E70EC21F04A
:1010B8003DD957EC28F00C50EDEC10F0130E70EC05
:1010C80021F0B00E28D9190E70EC21F004D12ED9D8
:1010D80057EC28F00C50EDEC10F00D0E70EC21F0F0
:1010E800B00E19D9130E70EC21F0F5D0020E26D9E6
:1010F800000E96EC23F0FCC011F013D9090E70EC29
:1011080021F021D9EFEC27F00EEC04F057EC28F091
:101118000C50EDEC10F00F0E70EC21F007D957ECE5
:1011280028F00C50EDEC10F0150E70EC21F0B00E1C
:10113800F2D81B0E70EC21F0CED0200E306E30505D
:1011480033EC28F0302A300E3064F9D7086A640E80
:1011580002D9EFEC27F00EEC04F057EC28F00CC0A5
:1011680029F00DC02AF0EFD8EFEC27F00EEC04F0D0
:1011780057EC28F00CC02BF00DC02CF0D7D857EC4A
:1011880028F00CC02DF00DC02EF05BEC13F0390EDA
:10119800136EBE0E146E29C015F02AC016F02BC0AF
:1011A80017F02CC018F0000E1A6E2E0E196E2DC0F6
:1011B8001BF02EC01CF0000E1E6EB00E1D6E40EC13
:1011C80015F0300E010199193DE0020EB7D8030E53
:1011D80096EC23F0FCC011F0A4D80B0E70EC21F0B3
:1011E80001019951D00FEDEC10F0110E70EC21F0C7
:1011F800B8D8EDEC10F0170E70EC21F09BC111F08F
:1012080090D81D0E70EC21F001019C51D00FDAEC42
:1012180011F0200ED3EC23F09DC111F00AEC10F070
:10122800260ED3EC23F0330E286EBB0E276EE00E8D
:10123800E82EFED7272EFCD7282EFAD70A0E88ECE0
:1012480026F049D0020E7AD8010E96EC23F0FCC0A5
:1012580011F067D80B0E70EC21F083D8EDEC10F08C
:10126800110E70EC21F09BC111F05BD8170E70ECD9
:1012780021F001019C51D00FEDEC10F01A0E70EC2A
:1012880021F09DC111F00AEC10F0200ED3EC23F0F0
:10129800330E286EBB0E276EE00EE82EFED7272EE3
:1012A800FCD7282EFAD7080E88EC26F014D0020EA8
:1012B80045D8000E96EC23F02D0E2DD8090E70ECB3
:1012C80021F02D0E28D80F0E70EC21F02D0E23D80A
:1012D800150E70EC21F047EC1EF047D802EF22F013
:1012E800050E776E2EEC26F02FEC10F056EC13F06E
:1012F8004AEC22F041D84AEC22F02AEC26F082ECA3
:1013080012F002EF22F07750040AEAE0010A01E144
:101318007BD6030A1200116EE70E126EB70E136E1B
:101328001200E70E126EB70E136E12008DC00CF08D
:101338008EC00DF00F6A0A0E0E6E0A0C0C6EB90EF6
:101348000D6E0E6A1200086A0A0E076E8DC005F04F
:101358008EC006F00A0C076E8DC005F08EC006F030
:10136800120001019A51D00F1200020E086E8A0E67
:10137800076E0A6A096A8A0C0E0E056E100E066E52
:101388001200F2D0785048EC0BF0020E781803E106
:1013980062EC16F002D00001B86B050EEA650DD0BC
:1013A800070EEA610AD0F90E116EF80E126EF60EEB
:1013B800136EF70E146EF8EC16F00E0E0001EA65C7
:1013C80005D0100EEA6102D0030E776E270EEA658B
:1013D800DAD0290EEA61D7D0B25104E0EBB102D0DD
:1013E800020EB9D0030EB7D033D94AEC22F0260E3C
:1013F800056E220E066E36D902EC22F0DCEC16F0F1
:1014080002EC22F020EEEAF010EE80F0060EDBCFC0
:10141800E3FFE806FCE2050E776E7498020E781872
:1014280001E0B1D000010BD90AEC10F00D0ED3EC9D
:1014380023F0A9D00001B86BEB0E076E010E086E01
:10144800BAEC21F000019C6F9C5124E10101EB51A1
:101458006A6EEC5100018B6F6AC08CF00101ED518E
:101468006A6EEE510001896F6AC08AF08BC005F080
:101478008CC006F002D9EFEC27F0EFD8DCD857EC97
:1014880028F026EC04F0F9D8EFEC27F0DCD8D3D814
:1014980057EC28F0F10E346EF00E356E010E366EF4
:1014A80046EC04F0020E781807E1170E116E0AECEC
:1014B80010F00D0ED3EC23F02EEC26F00001B25103
:1014C8000DE0C6D84AEC22F06C0E056E250E82ECB3
:1014D80012F002EC22F09BEC18F055D0B9D84AEC87
:1014E80022F0CA0E056E260E82EC12F002EC22F0F3
:1014F800F2D70001B45120E0B86B6E506A6E6D509F
:101508008D6F6AC08EF0020E781807E1170E116E03
:101518000AEC10F00D0ED3EC23F02EEC26F098D840
:101528004AEC22F0BA0E056E3B0E82EC12F002EC89
:1015380022F09BEC18F00ED0B3510CE0B86B020E01
:101548007818EBE1170E116E0AEC10F00D0ED3ECC3
:1015580023F0E3D7050E776E16D0050E776E56EC9E
:1015680013F04AEC22F00FD07750010A01E13CD782
:10157800030A01E15FD7010ABCE0070AEEE0010AAD
:1015880001E100D7030A74A804D0B90E076E94ECE1
:1015980028F00001B75108E0EAA174A405D07494BA
:1015A8006AEC2BF019EC2AF07488FDEC2BF000099A
:1015B80014E06C0E0B6ECFEC2BF058EC29F06E504B
:1015C8006A6E6D5000018D6F6AC08EF06CC0FCF0C1
:1015D8000101976B986B749603D00101974B982B78
:1015E800E90E975D030E985906E3748658EC29F0C6
:1015F80048D88AEC20F000019D51EE191AE1050E39
:10160800096EEB510FEC2BF00009D8A41200230E41
:101618000001EA19D8B474A2120011D80AEC10F02B
:101628000D0ED3EC23F024D872EC29F0010EB86F1C
:10163800010C749212000F6A0A0E0E6E0A0CB86B37
:10164800170E116E170C89C00CF08AC00DF012002D
:101658008A0E056E130E066E12008BC00CF08CC03D
:101668000DF01200086A076A0A6A320E096E320C17
:10167800960E0B6E030E0C6E1200086A0A0E076EA9
:101688000A0C040E0E6E780C1F6E2AD10001B86B7E
:10169800206AF3EC10F0EC518CEC29F00FEC2BF0F5
:1016A80000090BE0F3EC10F0EC518CEC29F00FEC96
:1016B8002BF01ED9B90F47D903D0205033EC28F0AE
:1016C80004EC11F00FEC2BF013D9BF0F3CD9F3EC5D
:1016D80010F0EB518CEC29F00FEC2BF009D9C60F68
:1016E80032D9FFEC10F00FEC2BF002D9CC0F2BD92C
:1016F800202A040E2064CDD7206AF3EC10F0EA51BA
:101708008CEC29F00FEC2BF018D905D9D20F1BD986
:101718000EEC11F00FEC2BF010D9FDD8D60F13D921
:10172800202A020E2064E9D70001BE6B800EC46F28
:10173800C56FCB6BD16BD56B1200010E0001B86F72
:1017480008D98CEC29F00FEC2BF00001AE6F0BD907
:101758000FEC2BF00001AD6F01D98CEC29F00FECE8
:101768002BF00001AC6F03D90FEC2BF00001AB6F2D
:10177800AE51A81909E1AD51A71906E1AC51A61956
:1017880003E1AB51A51974E0AB51A51909E0EFD8F5
:101798000FEC2BF0EDEC10F0190E70EC21F008D0E6
:1017A800E6D80FEC2BF0DAEC11F0190ED3EC23F09D
:1017B8000001AC51A6190BE0D1D88CEC29F00FEC44
:1017C8002BF0EDEC10F0130E70EC21F00AD0C6D817
:1017D8008CEC29F00FEC2BF0DAEC11F0130ED3ECB3
:1017E80023F00001AD51A71909E0BDD80FEC2BF08B
:1017F800EDEC10F0070E70EC21F008D0B4D80FEC27
:101808002BF0DAEC11F0070ED3EC23F0F3EC10F028
:10181800EC518CEC29F00FEC2BF000091AE00001D8
:10182800AE51A8190BE095D88CEC29F00FEC2BF0F1
:10183800EDEC10F0010E70EC21F011D08AD88CEC90
:1018480029F00FEC2BF0DAEC11F0010ED3EC23F0B9
:1018580006D0116A95EC09F0010E70EC21F0AEC0CB
:10186800A8F0ADC0A7F0ACC0A6F0ABC0A5F01200C0
:1018780070D88CEC29F00FEC2BF000090DE0F3EC9C
:1018880010F0EC518CEC29F00FEC2BF0DAEC11F0A5
:10189800010ED3EC23F006D0116A0AEC10F0010E09
:1018A800D3EC23F004EC11F00FEC2BF0DAEC11F090
:1018B800070ED3EC23F0F3EC10F0EB518CEC29F08D
:1018C8000FEC2BF0DAEC11F0130ED3EC23F0FFEC55
:1018D80010F00FEC2BF0DAEC11F0190ED3EF23F027
:1018E8001F50010A01E1D2D6030A01E126D71200EE
:1018F800050D75C01DF076C01EF0F3501D26F4507E
:101908001E2220501D26000E1E221DC0F6FF1EC0DE
:10191800F7FF20501200F3501D26F4501E222050CD
:101928001D26000E1E22030E1D26000E1E221DC09F
:10193800F6FF1EC0F7FF20501200030DE10E1D6ECA
:10194800BD0E1E6E1200D96EDA6A0800F5CFDFFFF1
:1019580012000A0E096E056EEC5112000A0E096E8D
:10196800056EEB5112000A0E096EEC5112000A0EB8
:10197800096EEB51120042D067D94AEC22F0500EA2
:10198800056E290E82EC12F002EC22F0DCEC16F067
:1019980002EC22F03CEC15F03BD056D94AEC22F090
:1019A80056EC13F04AEC22F02AEC26F082EC12F006
:1019B80002EC22F09BEC18F038EC2CF029D0000156
:1019C800852B0C0E856502D0010E856FDCEC16F0B8
:1019D80002EC22F02CEC15F0B2EC28F019D0000142
:1019E8008507855102E10C0E856FDCEC16F002ECE0
:1019F80022F02CEC15F0B2EC28F00AD07750010A4E
:101A0800BBE0030ADCE0010AEAE0070AC6E0010AD3
:101A180074A8FFD0770EF66EBE0EF76E00D9000ED2
:101A2800D3EC23F0780EF66EBE0EF76EF8D8060EDD
:101A3800D3EC23F0790EF66EBE0EF76EF0D80C0ECE
:101A4800D3EC23F0C6D0CC0EF66EBE0EF76EE7D8F8
:101A5800120ED3EC23F0CD0EF66EBE0EF76EDFD865
:101A6800180ED3EC23F0D5D0C30EF66EBE0EF76E6B
:101A7800D6D8120ED3EC23F0C40EF66EBE0EF76E57
:101A8800CED8180ED3EC23F0C4D0A80EF66EBE0E36
:101A9800F76EC5D8120ED3EC23F0A90EF66EBE0E63
:101AA800F76EBDD8180ED3EC23F0B3D09C0EF66EAB
:101AB800BE0EF76EB4D8120ED3EC23F09D0EF66E60
:101AC800BE0EF76EACD8180ED3EC23F0A2D0B40E2D
:101AD800F66EBE0EF76EA3D8120ED3EC23F0B50E39
:101AE800F66EBE0EF76E9BD8180ED3EC23F091D08D
:101AF800B70EF66EBE0EF76E92D8120ED3EC23F028
:101B0800B80EF66EBE0EF76E8AD8180ED3EC23F018
:101B180080D0A50EF66EBE0EF76E81D8120ED3ECED
:101B280023F0A60EF66EBE0EF76E79D8180ED3EC1B
:101B380023F06FD084D873D8120ED3EC23F07AD860
:101B48006ED8180ED3EC23F064D0AB0EF66EBE0E32
:101B5800F76E65D8120ED3EC23F0AC0EF66EBE0EFF
:101B6800F76E5DD8180ED3EC23F053D0990EF66EAD
:101B7800BE0EF76E54D8120ED3EC23F09A0EF66E02
:101B8800BE0EF76E4CD8180ED3EC23F042D0BA0E26
:101B9800F66EBE0EF76E43D8120ED3EC23F0BB0ED2
:101BA800F66EBE0EF76E3BD8180ED3EC23F031D08C
:101BB800AE0EF66EBE0EF76E32D8120ED3EC23F0D0
:101BC800AF0EF66EBE0EF76E2AD8180ED3EC23F0C1
:101BD80020D000018551010A01E135D7030A01E14E
:101BE80043D7010A01E151D7070A01E15FD7010A8A
:101BF80001E16DD7030A01E17BD7010A8AE00F0AE8
:101C080099E0010AA2E0030AB1E0010AC0E0070A6C
:101C1800CFE0B90E076E94EC28F074881200080023
:101C2800F5CF11F0E70E126EB70E136EB90E146EE3
:101C3800156A1200B20EF66EBE0EF76E1200B10EE5
:101C4800F66EBE0EF76E12007E0E056E190E066E4B
:101C5800120042D001D94AEC22F0920E056E350EE0
:101C680082EC12F002EC22F0DCEC16F002EC22F02E
:101C78003CEC15F03BD0F0D84AEC22F056EC13F0CF
:101C88004AEC22F02AEC26F082EC12F002EC22F068
:101C98009BEC18F038EC2CF029D00001832B070EB0
:101CA800836502D0010E836FDCEC16F002EC22F0A3
:101CB8002CEC15F0B2EC28F019D000018307835101
:101CC80002E1070E836FDCEC16F002EC22F02CEC3C
:101CD80015F0B2EC28F00AD07750010ABBE0030AED
:101CE800DCE0010AEAE0070AC6E0010A74A8AED0FF
:101CF8006B0EF66EBE0EF76E13EC0EF0000ED3EC04
:101D080023F06C0EF66EBE0EF76E13EC0EF0060E98
:101D1800D3EC23F06D0EF66EBE0EF76E13EC0EF0DC
:101D28000C0ED3EC23F081D0A20EF66EBE0EF76E29
:101D380013EC0EF0120ED3EC23F0A30EF66EBE0ECB
:101D4800F76E13EC0EF0180ED3EC23F07FD0C00E14
:101D5800F66EBE0EF76E13EC0EF0120ED3EC23F0F7
:101D6800C10EF66EBE0EF76E13EC0EF0180ED3EC25
:101D780023F06CD023EC0EF013EC0EF0120ED3EC23
:101D880023F01EEC0EF013EC0EF0180ED3EC23F03B
:101D98005DD0C90EF66EBE0EF76E13EC0EF0120E85
:101DA800D3EC23F0CA0EF66EBE0EF76E13EC0EF0EF
:101DB800180ED3EC23F04AD0C60EF66EBE0EF76EA0
:101DC80013EC0EF0120ED3EC23F0C70EF66EBE0E17
:101DD800F76E13EC0EF0180ED3EC23F037D0930EF9
:101DE800F66EBE0EF76E13EC0EF0120ED3EC23F067
:101DF800940EF66EBE0EF76E13EC0EF0180ED3ECC2
:101E080023F024D09F0EF66EBE0EF76E13EC0EF084
:101E1800120ED3EC23F0A00EF66EBE0EF76E13EC86
:101E28000EF0180ED3EC23F011D000018351010AF3
:101E3800E9E0030A01E178D7010A89E0070A9AE094
:101E4800010AA7E0030AB8E0010AC9E0B90E076E63
:101E580094EC28F0748812005A0E056E1C0E066E5B
:101E6800120074BA02D0748A5CD0749A5AD0E9D835
:101E78004AEC22F02E0E056E300E82EC12F002ECC7
:101E880022F0DCEC16F002EC22F0050E776E38EC4E
:101E98002CF0749850D0D5D84AEC22F056EC13F0B8
:101EA8004AEC22F02AEC26F082EC12F002EC22F046
:101EB800050E776E38EC2CF03ED00001822B170E01
:101EC800826501D0826BDCEC16F002EC22F0B4D80B
:101ED8000AE0825104E1A7D8BEEC29F02CD09ED8A4
:101EE800BEEC29F028D0A3D8BEEC29F024D00001FC
:101EF8008207822902E1170E826FDCEC16F002ECF1
:101F080022F09AD80AE0825104E18DD8BEEC29F07B
:101F180012D084D8BEEC29F00ED089D8BEEC29F0B6
:101F28000AD07750010AA3E0030AC7E0010ADFE0FC
:101F3800070AB1E0010A74A863D074AA4AD07804E9
:101F480024E1F3EC10F082518CEC29F00FEC2BF02B
:101F580000090DE0F3EC10F082518CEC29F00FEC45
:101F68002BF0DAEC11F0000ED3EC23F005D0116A57
:101F78004DD8000ED3EC23F069D80FEC2BF0DAEC37
:101F880011F0060ED3EC23F03BD0F3EC10F08251A5
:101F98008CEC29F00FEC2BF000090DE0F3EC10F0BD
:101FA80082518CEC29F00FEC2BF0DAEC11F0010ED9
:101FB800D3EC23F005D0116A29D8010ED3EC23F015
:101FC80045D80FEC2BF0DAEC11F0070ED3EC23F028
:101FD80017D078040BE1116A19D8000ED3EC23F05E
:101FE800116A14D8060ED3EC23F00AD0116A0ED861
:101FF800010ED3EC23F0116A09D8070ED3EC23F0B5
:10200800B90E076E94EC28F074881200E70E126E71
:10201800B70E136EB90E146E156A120081C012F055
:10202800136A8205120081C012F0136A170C81C06E
:1020380012F0136A82511200050E776E0001F551F5
:1020480012006A0E056E1E0E066E12000A0E096E4A
:1020580000018251120038EC2CF0B4D0C0D8EC51F9
:102068008CEC29F00FEC2BF000090BE0B8D8EC5100
:102078008CEC29F00FEC2BF0ACD8000E70EC21F0B2
:1020880006D0116A95EC09F0000E70EC21F0B8D872
:102098000FEC2BF09ED8060E70EC21F0A0D8EB5177
:1020A8008CEC29F00FEC2BF094D80D0E70EC21F08D
:1020B800A2D80FEC2BF08DD8130E70EC21F094D829
:1020C800D1EC25F08CD8EA518CEC29F00FEC2BF0F0
:1020D800266E26280D6E190E26EC21F09BD80FECE3
:1020E8002BF0266E26280D6E1D0E26EC21F0000121
:1020F800B15102E114EF18F088D8E3EC1CF014EFAA
:1021080018F06DD8EC518CEC29F00FEC2BF000098D
:102118000BE065D8EC518CEC29F00FEC2BF059D87A
:10212800010E70EC21F006D0116A95EC09F0010E51
:1021380070EC21F065D80FEC2BF04BD8070E70EC43
:1021480021F03A0E8FEC09F00D0E70EC21F04CD80E
:10215800D1EC25F044D8EB518CEC29F00FEC2BF0A6
:1021680038D8130E70EC21F046D80FEC2BF031D88C
:10217800190E70EC21F00001B15103E046D8E3ECF0
:102188001CF0010E0001B86FA06BADEC0CF08CECEC
:1021980029F00FEC2BF00001A86FB7EC0CF00FEC56
:1021A8002BF00001A76FB2EC0CF08CEC29F00FECCF
:1021B8002BF00001A66FBBEC0CF00FEC2BF000012C
:1021C800A56F12007850010A01E148D7030A99E087
:1021D8001200116E75C012F076C013F012000A0ECC
:1021E800096E056E00010A0CEC0E0A6EEB0E0B6E02
:1021F800EA0E0C6E12000A0E096E0001EB51120075
:102208000A0E096E0001EC511200EA0E216EF50E5D
:10221800226E12000A0E096E0001EA51120074BA09
:1022280002D0748A6CD0749A6AD0D4D84AEC22F05E
:102238006A0E056E1E0E066E36EC0BF002EC22F0EE
:10224800DCEC16F002EC22F0780413E1F3EC10F069
:1022580081518CEC29F00FEC2BF0A8D80D0ED3ECA3
:1022680023F0ADD80FEC2BF0A1D8130ED3EC23F04C
:1022780013D0F3EC10F0EB518CEC29F00FEC2BF0B1
:1022880095D8130ED3EC23F0FFEC10F00FEC2BF0E5
:102298008DD8190ED3EC23F09BEC18F03AD09AD8CD
:1022A8004AEC22F056EC13F04AEC22F02AEC26F025
:1022B80082EC12F002EC22F0050E776E38EC2CF06E
:1022C80028D00001812B3B0E816501D0816BDCECAD
:1022D80016F002EC22F078D8BEEC29F0050E776EE5
:1022E80018D000018107812902E13B0E816FDCECE7
:1022F80016F002EC22F068D8BEEC29F0EFD7775040
:10230800010A93E0030ADDE0010AEBE0070AC7E0EF
:10231800010A74A845D074AA28D0780413E1F3EC14
:1023280010F081518CEC29F00FEC2BF03FD80D0EFA
:10233800D3EC23F044D80FEC2BF038D8130ED3ECA1
:1023480023F02ED0F3EC10F081518CEC29F00FEC37
:102358002BF02CD8130ED3EC23F031D80FEC2BF044
:1023680025D8190ED3EC23F01BD078040DE1116A9F
:102378000AEC10F00D0ED3EC23F0116A0AEC10F001
:10238800130ED3EC23F00CD0116A0AEC10F0130EE4
:10239800D3EC23F0116A0AEC10F0190ED3EC23F0F9
:1023A800B90E076E94EC28F074881200116E75C08F
:1023B80012F076C013F0B90E146E156A12000A0EE8
:1023C800096E00018151120081C012F0136A0001E8
:1023D80082511200260E056E220E066E120042D0A1
:1023E8000001B75110E0ABD84AEC22F0A4D886D847
:1023F80002EC22F0DCEC16F002EC22F09BEC18F078
:1024080038EC2CF039D09BD84AEC22F0820E056EBD
:10241800340E74D802EC22F0A1D82FEC2CF099D805
:1024280088EC2BF0E7D78BD84AEC22F056EC13F067
:102438004AEC22F02AEC26F061D802EC22F0DED732
:1024480064D8DCEC16F002EC22F07ED846EC2BF0D7
:1024580013D05BD8DCEC16F002EC22F075D846EC11
:102468002BF00AD07750010ABBE0030AE9E0010A21
:10247800F0E0070AD8E0010A74A83AD057D813EC5C
:102488000EF0000ED3EC23F04CD813EC0EF0060E31
:10249800D3EC23F041D813EC0EF00C0ED3EC23F060
:1024A8000001B75113E0960EF66EBE0EF76E13ECF0
:1024B8000EF0120ED3EC23F0970EF66EBE0EF76EEA
:1024C80013EC0EF0180ED3EC23F012D0BD0EF66EFE
:1024D800BE0EF76E13EC0EF0120ED3EC23F0BE0E08
:1024E800F66EBE0EF76E13EC0EF0180ED3EC23F05A
:1024F800B90E076E94EC28F074881200066E086A0C
:10250800076A0A6A140E096E140C0001B751010E0D
:10251800D8A4000EB76F1200810EF66EBE0EF76ECD
:102528001200800EF66EBE0EF76E12007F0EF66E6B
:10253800BE0EF76E1200B00E056E370E1200E60ED4
:10254800056E230E066E1200050E776EB7C005F0F5
:10255800020C0001B66FB6C007F00A0C066A030E3B
:10256800056E030C97D00001F151F211F311F4112B
:102578004FE0F1C005F0F2C006F0F3C007F0F4C078
:1025880008F0640E096E0A6A0B6A0C6A88EC24F07B
:1025980005C029F006C02AF029C01CF02AC01DF089
:1025A800D8EC20F0A0EC25F0200E2B6E2B5033EC4D
:1025B80028F02B2A300E2B64F9D779D88F0E136E9A
:1025C800BE0E146E40EC15F099C111F00AEC10F033
:1025D800200ED3EC23F09AC111F00AEC10F0260E6D
:1025E800D3EC23F09BC111F00AEC10F02C0ED3ECC5
:1025F80023F0330E286EBB0E276EE00EE82EFED7B2
:10260800272EFCD7282EFAD70B0E88EC26F01AD0E6
:1026180038EC2CF0040EA2EC09F0030E96EC23F033
:10262800450E8FEC09F00B0E70EC21F0520E8FEC7A
:1026380009F0110E70EC21F0520E8FEC09F0170E14
:1026480070EC21F047EC1EF000EC14F002EF22F0E1
:10265800050E776E0001B0510CE02EEC26F022D862
:102668004AEC22F029D84AEC22F0CA0E056E260E52
:102678000DD02EEC26F02FEC10F014D84AEC22F0F6
:102688001BD84AEC22F08A0E056E130E82EC12F06B
:1026980002EF22F07750040ADBE0010A01E163D778
:1026A800030A1200280E056E590E066E1200990EC6
:1026B800116E010E126E12006C0E056E250E066E5E
:1026C80012008CD0E80E00018B5D030E8C5937E2A6
:1026D800050EA2EC09F0010E96EC23F0086A640ED0
:1026E80085D8EFEC27F00EEC04F057EC28F00C50EE
:1026F800EDEC10F0090E70EC21F0086A0A0E76D89D
:10270800EFEC27F00EEC04F057EC28F00C50EDEC51
:1027180010F00F0E70EC21F02E0E8FEC09F0150E54
:1027280070EC21F031EC0BF01FEC0BF057EC28F0BB
:102738000C50EDEC10F0180E70EC21F034D0050EB2
:10274800A2EC09F0020E96EC23F0030E086EE80ED8
:102758004DD8EFEC27F00EEC04F057EC28F00C50B5
:10276800EDEC10F00B0E70EC21F0086A640E3ED808
:10277800EFEC27F00EEC04F057EC28F00C50EDECE1
:1027880010F0110E70EC21F0086A0A0E2FD8EFEC49
:1027980027F00EEC04F057EC28F00C50EDEC10F09C
:1027A800170E70EC21F047EC1EF026D802EF22F04D
:1027B800050E776E2EEC26F02FEC10F056EC13F089
:1027C8004AEC22F0CA0E056E260E066E4AEC22F07E
:1027D8002AEC26F082EC12F002EF22F07750040A7D
:1027E800E7E0010A01E16ED7030A1200076E8BC009
:1027F80005F08CC006F01200010E086E900E076EF0
:102808000A6A096A900C146A09C005F00AC006F041
:1028180099EC2AF00550FD0F126E136A7DD080D80E
:10282800030E85D8C00EDF646FD07AD8040E7FD827
:10283800DF500D6E145009240E6E000E0A200F6E24
:10284800030E0E24D96E000E0F20DA6EDF50106EC4
:102858000D50156E10C016F0840E151805E1D00E37
:10286800161802E1DA0E0FD0860E151805E1D00E03
:10287800161802E1D40E07D0870E151807E1D00EFE
:10288800161804E1D80E155ECF0E08D0940E151850
:1028980007E1D10E161804E1DA0E11D0165A28D025
:1028A800960E151805E1D10E161802E1E30E07D0B1
:1028B800970E151807E1D10E161804E1D80E155E0B
:1028C800D00EECD7C00E155CD00E165803E2300EB1
:1028D80015260DD0800E155CD10E165809E3900E02
:1028E800155CD10E165804E2700E15262F0E16220E
:1028F800960E1324D96EDA6A030EDA2215C0DFFFAA
:10290800020E1426120607D00BD8030E10D8960E06
:10291800132413D8142A132A1350125C80E21200CD
:10292800145009240B6E000E0A200C6E12000B24A2
:10293800D96E000E0C20DA6E1200E16EE26A030E08
:10294800E222DFCFE7FF12003FD08DD84AEC22F019
:102958005A0E056E1C0E82EC12F002EC22F0DCEC32
:1029680016F002EC22F084D839D07DD84AEC22F057
:1029780056EC13F04AEC22F02AEC26F082EC12F026
:1029880002EC22F09BEC18F038EC2CF027D0000178
:10299800842B1F0E846502D0010E846FDCEC16F0C8
:1029A80002EC22F055D8B2EC28F018D000018407C8
:1029B800845102E11F0E846FDCEC16F002EC22F069
:1029C80047D8B2EC28F00AD07750010ABEE0030AD3
:1029D800DEE0010AEBE0070AC8E0010A74A832D079
:1029E8007B0EF66EBE0EF76E13EC0EF0000ED3ECF7
:1029F80023F07C0EF66EBE0EF76E13EC0EF0060E8C
:102A0800D3EC23F07D0EF66EBE0EF76E13EC0EF0CF
:102A18000C0ED3EC23F0F3EC10F084518CEC29F07D
:102A28000FEC2BF0DAEC11F0120ED3EC23F00A0EB7
:102A3800096E000184510FEC2BF0DAEC11F0180E3E
:102A4800D3EC23F0B90E076E94EC28F074881200CA
:102A5800050E776E84C012F085C013F086C014F09E
:102A6800000183511200500E056E290E066E1200E9
:102A7800050E776E7488050C150E246E6ED0250E23
:102A880025182DE083D825C0DFFF114A122A65D00A
:102A98002450D96EDA6ADECF22F0DDCF23F0020EA1
:102AA8002426225023100EE14D0E226EBE0E236EF8
:102AB80009D071D86BD80800F5CFDFFF224A232A46
:102AC800114A122A68D80800F55047E0F2D7245076
:102AD800D96EDA6ADF50256E020E2426D3D742D883
:102AE8003EE0630AF4E0100AD3E0060ACBE1245082
:102AF800D96EDA6ADECF1FF0DDCF20F0020E242671
:102B0800010E256E255039D8F5501F5C0900F55087
:102B1800205804E3252A050E2518F4E125C021F0E4
:102B280019D021502AD8F5CF07F00A00F5CF08F0C0
:102B38001FC005F020C006F0EFEC27F00EEC04F003
:102B480057EC28F00C50300F256E20D825C0DFFF39
:102B5800114A122A21062128E4E104D890E116D866
:102B6800DF6A000C13C0F6FF14C0F7FF134A142ADB
:102B78000800F5CF25F025501200020DD30EF324DE
:102B8800F66EB70EF420F76E0900120011C0D9FFD7
:102B980012C0DAFF120022C0F6FF23C0F7FF1200AE
:102BA80038EC28F0E7EC2BF0A6EC29F0A5EC2BF09C
:102BB80091EC2CF01DEC2CF085EC2AF051EC2CF06B
:102BC8005BEC2AF028EC1FF0066A056A2FEC2CF063
:102BD8007A6E066A010E056E2FEC2CF0786E78047A
:102BE80003E10001B86B01D069D8066A020E056ED0
:102BF8002FEC2CF00001B76FB2EC12F02FEC2CF098
:102C0800ADEC12F088EC2BF0A3EC27F08EEC2CF056
:102C180049EC2CF045EC0BF08AEC20F0120E056E16
:102C2800000E066E086A280E076E3FD802EC22F0E6
:102C38006A0E056E4A0E3DD838D802EC22F0066AB4
:102C4800040E056E2FEC2CF00001B56F066A050E18
:102C5800056E2FEC2CF00001B46F066A060E056EA7
:102C68002FEC2CF00001B36F066A070E056E2FECEF
:102C78002CF00001B26F066A080E056E2FEC2CF0DE
:102C88000001B16F066A090E056E2FEC2CF00001E9
:102C9800FE6F066A0A0E056E2FEC2CF00001B06F6D
:102CA800066A030E056E41EF2CF00A6A140E096ECF
:102CB800140C066E086A640E076E640C010E00019F
:102CC800B86F010C30D08BD84AEC22F0700E056E2C
:102CD800330E82EC12F002EC22F06AD802EC22F0F9
:102CE8009BEC18F038EC2CF028D079D84AEC22F07C
:102CF8002AEC26F082EC12F002EC22F056EC13F0EB
:102D08004AEC22F0EDD75FD853D802EC22F062D813
:102D180046EC2BF012D057D84BD802EC22F05AD8F8
:102D280046EC2BF00AD07750010ACDE0030AEBE01D
:102D3800010AF1E0070AD9E0010A74A833D0830E2A
:102D4800F66EBE0EF76E13EC0EF0000ED3EC23F009
:102D5800840EF66EBE0EF76E13EC0EF0060ED3EC74
:102D680023F0850EF66EBE0EF76E13EC0EF00C0E09
:102D7800D3EC23F00001B25108E02B0E116E0AECDF
:102D880010F0120ED3EC23F007D02D0E116E0AECC2
:102D980010F0120ED3EC23F0116A0AEC10F0180EA2
:102DA800D3EC23F0B90E076E94EC28F07488120067
:102DB800280E056E590E066E070E086ED00E076EA9
:102DC8000A6A096AD00C0001B251010ED8A4000E9B
:102DD800B26F1200050E776EB2C005F0070CCC0E6C
:102DE800056E2C0E066E12001250D96EDA6A2B0E82
:102DF800DF6E82D076EC28F00009D8A41200CC0E41
:102E0800CFEC28F0440ECFEC28F01450D96EDA6AD3
:102E1800DF6A1350D96EDA6A020EDF6ECD80020CBB
:102E280076EC28F0CC0ECFEC28F0BE0ECFEC28F0D4
:102E3800196A780E1924D96EDA6A010EDA22EBECD7
:102E480028F0DF6E192A010E1964F3D701017951B0
:102E5800156E78511A6E15C01BF01BAE09D01A6C8E
:102E68001B1ED8B01B2A1250D96EDA6A2D0EDF6EDF
:102E78001A500F0B186EC30E1824F66EF76AB70EA9
:102E8800F7220800F5CF18F01A3A1B3A0F0E1A1657
:102E98001B50F00B1A120F0E1B161A500A0DF3CF07
:102EA8001AF0F4CF1BF018501A26000E1B221AC075
:102EB8000CF01BC00DF01FEC0BF057EC28F00C5079
:102EC800176E1AC005F01BC006F041EC0BF0EFECD2
:102ED80027F005C01AF006C01BF0050E176402D0D3
:102EE8001A4A1B2A1150D96EDA6A1AC0DFFF13502A
:102EF800D96EDA6ADF6A000C1350D96EDA6ADF50CD
:102F080001E178D7010A8CE0030A12003CD083D88B
:102F18004AEC22F0E60E056E230E82EC12F002EC6B
:102F280022F0DCEC16F002EC22F09BEC18F038EC06
:102F38002CF033D070D84AEC22F056EC13F04AEC5F
:102F480022F02AEC26F082EC12F002EC22F0EDD707
:102F5800782A020E786402D0010E786EDCEC16F046
:102F680002EC22F053D846EC2BF017D078067850B4
:102F780002E1020E786EDCEC16F002EC22F046D884
:102F880046EC2BF00AD07750010AC1E0030AE0E0D2
:102F9800010AECE0070ACEE0010A74A82BD06F0EF4
:102FA800F66EBE0EF76E13EC0EF0000ED3EC23F0A7
:102FB800700EF66EBE0EF76E13EC0EF0060ED3EC26
:102FC80023F0710EF66EBE0EF76E13EC0EF00C0EBB
:102FD800D3EC23F00A0E096E78500FEC2BF0DAECE4
:102FE80011F0120ED3EC23F0116A0AEC10F0180E4F
:102FF800D3EC23F0B90E076E94EC28F074887804AB
:1030080001E10ED0010E0001B86F010C050E776EBC
:1030180078C005F0010C140E056E2F0E066E120016
:103028000001B86B12003FD086D84AEC22F07E0E21
:10303800056E190E82EC12F002EC22F0DCEC16F0B0
:1030480002EC22F074D839D076D84AEC22F056EC4B
:1030580013F04AEC22F02AEC26F082EC12F002EC93
:1030680022F065D838EC2CF028D00001862B630EAE
:10307800866501D0866BDCEC16F002EC22F02CECB5
:1030880015F0B2EC28F019D000018607862902E174
:10309800630E866FDCEC16F002EC22F02CEC15F0D7
:1030A800B2EC28F00AD07750010ABEE0030ADDE04E
:1030B800010AEAE0070AC8E0010A74A832D0670EDC
:1030C800F66EBE0EF76E13EC0EF0000ED3EC23F086
:1030D800680EF66EBE0EF76E13EC0EF0060ED3EC0D
:1030E80023F0690EF66EBE0EF76E13EC0EF00C0EA2
:1030F800D3EC23F0F3EC10F086518CEC29F00FECB4
:103108002BF0DAEC11F0120ED3EC23F00A0E096E54
:10311800000186510FEC2BF0DAEC11F0180ED3EC0D
:1031280023F0B90E076E94EC28F074881200050E8F
:10313800776E7498050C2E0E056E300E066E120012
:1031480033D083D84AEC22F0CC0E056E2C0E82ECDC
:1031580012F002EC22F0DCEC16F002EC22F09BEC10
:1031680018F038EC2CF02AD070D84AEC22F02AEC6F
:1031780026F082EC12F002EC22F056EC13F04AEC46
:1031880022F0EDD756D8DCEC16F002EC22F058D835
:1031980046EC2BF013D04DD8DCEC16F002EC22F004
:1031A8004FD846EC2BF00AD07750010ACAE0030A40
:1031B800E9E0010AF0E0070AD7E0010A74A833D071
:1031C8008B0EF66EBE0EF76E13EC0EF0000ED3ECFF
:1031D80023F08C0EF66EBE0EF76E13EC0EF0060E94
:1031E800D3EC23F08D0EF66EBE0EF76E13EC0EF0D8
:1031F8000C0ED3EC23F00001B35108E02B0E116E36
:103208000AEC10F0120ED3EC23F007D02D0E116E3D
:103218000AEC10F0120ED3EC23F0116A0AEC10F04D
:10322800180ED3EC23F0B90E076E94EC28F07488CE
:1032380012000001B351010ED8A4000EB36F1200A2
:10324800050E776EB3C005F0060C480E056E310EFC
:10325800066E120033D083D84AEC22F0480E056E71
:10326800310E82EC12F002EC22F0DCEC16F002ECEB
:1032780022F09BEC18F038EC2CF02AD070D84AECED
:1032880022F02AEC26F082EC12F002EC22F056EC46
:1032980013F04AEC22F0EDD756D8DCEC16F002EC2D
:1032A80022F058D846EC2BF013D04DD8DCEC16F0B1
:1032B80002EC22F04FD846EC2BF00AD07750010AE6
:1032C800CAE0030AE9E0010AF0E0070AD7E0010AC8
:1032D80074A833D0870EF66EBE0EF76E13EC0EF0A0
:1032E800000ED3EC23F0880EF66EBE0EF76E13ECCC
:1032F8000EF0060ED3EC23F0890EF66EBE0EF76EB6
:1033080013EC0EF00C0ED3EC23F00001B45108E0DE
:103318002B0E116E0AEC10F0120ED3EC23F007D02E
:103328002D0E116E0AEC10F0120ED3EC23F0116A78
:103338000AEC10F0180ED3EC23F0B90E076E94ECDB
:1033480028F0748812000001B451010ED8A4000EB0
:10335800B46F1200050E776EB4C005F0050C5C0E54
:10336800056E320E066E12002FD082D84AEC22F07B
:10337800A20E056E360E82EC12F002EC22F056EC2C
:1033880013F04AEC22F09BEC18F038EC2CF026D025
:103398006FD84AEC22F02AEC26F082EC12F002EC0C
:1033A80022F0EDD759D8DCEC16F002EC22F05BD80D
:1033B80046EC2BF013D050D8DCEC16F002EC22F0DF
:1033C80052D846EC2BF00AD07750010ACEE0030A17
:1033D800E9E0010AF0E0070ADBE0010A74A836D048
:1033E8005E0EF66EBE0EF76E13EC0EF0000ED3EC0A
:1033F80023F05F0EF66EBE0EF76E13EC0EF0060E9F
:10340800D3EC23F0600EF66EBE0EF76E13EC0EF0E2
:103418000C0ED3EC23F0610EF66EBE0EF76E13ECB5
:103428000EF0120ED3EC23F00001B15108E02B0E80
:10343800116E0AEC10F0180ED3EC23F007D02D0E05
:10344800116E0AEC10F0180ED3EC23F0B90E076ECB
:1034580094EC28F0748812000001B151010ED8A430
:10346800000EB16F1200050E776EB1C005F0080CA2
:10347800700E056E330E066E120042D081D84AECEB
:1034880022F09FEC12F082EC12F002EC22F0DCEC5D
:1034980016F002EC22F09BEC18F038EC2CF03AD045
:1034A8006FD84AEC22F056EC13F04AEC22F02AECE2
:1034B80026F082EC12F002EC22F0EDD70001B62BD8
:1034C800080EB66501D0B66BDCEC16F002EC22F003
:1034D8004FD846EC2BF051D888EC2BF01BD00001CC
:1034E800B607B62902E1080EB66FDCEC16F002EC5E
:1034F80022F03ED846EC2BF040D888EC2BF00AD0CE
:103508007750010ABBE0030AD9E0010AE8E0070A9C
:10351800C7E0010A74A826D09AEC12F013EC0EF05A
:10352800000ED3EC23F095EC12F013EC0EF0060E1F
:10353800D3EC23F090EC12F013EC0EF00C0ED3EC5D
:1035480023F00A0E096E0001B6510FEC2BF0DAECED
:1035580011F0120ED3EC23F0116A0AEC10F0180ED9
:10356800D3EC23F0B90E076E94EC28F0748812009F
:10357800050E776EB6C005F0030CB6C007F00A0C4E
:10358800820E056E340E066E120042D081D84AECC7
:1035980022F0140E056E2F0E82EC12F002EC22F0CF
:1035A800DCEC16F002EC22F09BEC18F038EC2CF076
:1035B80039D06ED84AEC22F056EC13F04AEC22F0DF
:1035C8002AEC26F082EC12F002EC22F0EDD77A2AEF
:1035D800050E7A6402D0010E7A6EDCEC16F002EC6D
:1035E80022F0050E776E51D846EC2BF0A3EC27F0AD
:1035F80019D07A067A5002E1050E7A6EDCEC16F0E4
:1036080002EC22F0050E776E40D846EC2BF0EED790
:103618007750010ABBE0030ADAE0010AEAE0070A88
:10362800C8E0010A74A82BD0730EF66EBE0EF76EB2
:1036380013EC0EF0000ED3EC23F0740EF66EBE0EF3
:10364800F76E13EC0EF0060ED3EC23F0750EF66E43
:10365800BE0EF76E13EC0EF00C0ED3EC23F00A0E30
:10366800096E7A500FEC2BF0DAEC11F0120ED3EC55
:1036780023F0116A0AEC10F0180ED3EC23F0B90EFF
:10368800076E94EC28F0748812007AC005F0000CDC
:10369800920E056E350E066E12003AD080D84AECAE
:1036A80022F0C20E056E3A0E82EC12F002EC22F005
:1036B80056EC13F04AEC22F09BEC18F038EC2CF0A6
:1036C80031D06DD84AEC22F02AEC26F082EC12F0C8
:1036D80002EC22F0EDD70001FE2B030EFE1902E1E9
:1036E800010EFE6FDCEC16F002EC22F053D846EC2B
:1036F8002BF018D00001FE07FE5102E1020EFE6F0A
:10370800DCEC16F002EC22F045D846EC2BF00AD09F
:103718007750010AC3E0030ADEE0010AEBE0070A7A
:10372800D0E0010A74A830D0540EF66EBE0EF76EC3
:1037380013EC0EF0000ED3EC23F0550EF66EBE0E11
:10374800F76E13EC0EF0060ED3EC23F0560EF66E61
:10375800BE0EF76E13EC0EF00C0ED3EC23F0570EE2
:10376800F66EBE0EF76E13EC0EF0120ED3EC23F0CD
:10377800FEC011F075C012F076C013F0B90E146EC9
:10378800156A180ED3EC23F0B90E076E94EC28F0E6
:1037980074881200050E776EFEC005F0090CA20EA3
:1037A800056E360E066E12003DD07FD84AEC22F028
:1037B8005C0E056E320E82EC12F002EC22F0DCECAC
:1037C80016F002EC22F09BEC18F038EC2CF034D018
:1037D8006CD84AEC22F02AEC26F082EC12F002ECCB
:1037E80022F056EC13F04AEC22F0EDD70001B52B8D
:1037F800010EB56501D0B56BDCEC16F002EC22F0D9
:103808004FD846EC2BF018D00001B507B52902E1D6
:10381800010EB56FDCEC16F002EC22F041D846EC54
:103828002BF00AD07750010AC0E0030ADFE0010A52
:10383800EBE0070ACDE0010A74A82CD0630EF66EFF
:10384800BE0EF76E13EC0EF0000ED3EC23F0640EF0
:10385800F66EBE0EF76E13EC0EF0060ED3EC23F0E8
:10386800650EF66EBE0EF76E13EC0EF00C0ED3EC72
:1038780023F00A0E096E0001B5510FEC2BF0DAECBB
:1038880011F0120ED3EC23F0116A0AEC10F0180EA6
:10389800D3EC23F0B90E076E94EC28F0748812006C
:1038A800050E776EB5C005F0040CB00E056E370E28
:1038B800066E12000001AF5118E0AF6B0101FC6BFE
:1038C80011D0FC515CD8DE50DE1006E1FC515FD807
:1038D800010EDE6EDD6A05D0FC5151D8DE06000E01
:1038E800DD5AFC2B7950FC5DECE30101FD6B43D004
:1038F800FD514DD8DE04DE103CE1FD5150D8DECF3D
:10390800FAF1DDCFFBF1FD5152D8DE50DE1009E1AE
:10391800FD5145D8DECF05F0DDCF06F04AEC22F0A8
:103928001BD0FD5134D8DE6ADD6AFD5128D8DE503F
:10393800DE1012E170687168FD5139D8DECF72F07F
:10394800DDCF73F07050722671507322FD5117D875
:1039580072C0DEFF73C0DDFF01D80BD00500010186
:10396800FA6EFA51FD6EFB51FE6EF850FF6EFA507A
:1039780012000101FD2B7950FD5DBAE31200080D1C
:10398800020EF324D96E010EF420DA6E1200080D2F
:10399800060EF324D96E010EF420DA6E1200080D1B
:1039A800000EF324D96E010EF420DA6E1200080D11
:1039B800040EF324D96E010EF420DA6E1200030E01
:1039C80073D8E2EC1FF0236E23501F08246E0A0EF2
:1039D8006BD8E2EC1FF0236E23501F08256E52D8D7
:1039E800030EDF6404D04ED8090EDF6429D04AD80C
:1039F800030EDE1804E152D8DE50245C21E342D8DD
:103A0800030EDE1809E14AD824C0DFFFDF5004E0C6
:103A18003FD8030EDF6014D035D80A0EDE1804E153
:103A28003DD82550DE5C0CE32DD80A0EDE180EE1D9
:103A380035D825C0DFFFDF5009E02AD8DF6006D07F
:103A48002250D96EDA6A010EDF6E04D02250D96E88
:103A5800DA6ADF6A2250D96EDA6ADF50D8B4120007
:103A680017D8170EDE1803E113D8DF6A000C10D838
:103A78002150E16EE26A020EE126E750236E232808
:103A8800DF6E12002150D96EDA6A050ED926050CB0
:103A98002150D96EDA6A020ED926020C2150D96E4D
:103AA800DA6A040ED926040C196E2150D96EDA6A26
:103AB800060ED926DF501A6E1F0C27D0C20E056ECF
:103AC8003A0E066E4AEC22F02AEC26F082EC12F04E
:103AD80002EC22F056EC13F04AEC22F09BEC18F0C2
:103AE80038EC2CF01CD059D8DCEC16F002EC22F0A3
:103AF8005BD846EC2BF013D050D8DCEC16F002EC77
:103B080022F052D846EC2BF00AD07750010AD6E0C2
:103B1800030AE9E0010AF0E0070AD0E0010A74A804
:103B280036D0590EF66EBE0EF76E13EC0EF0000E80
:103B3800D3EC23F05A0EF66EBE0EF76E13EC0EF0B1
:103B4800060ED3EC23F05B0EF66EBE0EF76E13EC8A
:103B58000EF00C0ED3EC23F05C0EF66EBE0EF76E74
:103B680013EC0EF0120ED3EC23F00001B05108E074
:103B78002B0E116E0AEC10F0180ED3EC23F007D0C0
:103B88002D0E116E0AEC10F0180ED3EC23F0B90EBE
:103B9800076E94EC28F0748812000001B051010EF1
:103BA800D8A4000EB06F1200050E776EB0C005F0F5
:103BB8000A0C62D038EC2CF0F3EC10F0F9518CECD4
:103BC80029F00FEC2BF0000915E1010EA2EC09F029
:103BD800030E96EC23F05ED80FEC2BF0EDEC10F012
:103BE8000D0E70EC21F0B00E8FEC09F0130E70EC96
:103BF80021F020D0010EA2EC09F0030E96EC23F080
:103C0800F3EC10F0F9518CEC29F00FEC2BF0EDEC03
:103C180010F00D0E70EC21F03DD80FEC2BF0EDEC10
:103C280010F0130E70EC21F0B00E8FEC09F0190EA5
:103C380070EC21F028D8B9EC09F002EF22F0050E5B
:103C4800776E2EEC26F056EC13F04AEC22F027D8CB
:103C58004AEC22F00001B35107E00E0E056E100E7B
:103C680082EC12F002EF22F02AEC26F082EC12F03D
:103C780002EC22F02FEF10F07750040AE0E0010A7E
:103C880099E0030A1200060E776E280E056E590E8B
:103C9800066E12000A0E096E0001F9511200BA0EE2
:103CA800056E3B0E066E12001C6E216A226A236A9C
:103CB800246A256A61D886EC2CF0EC0E78EC2CF09E
:103CC8001C5078EC2CF08AEC2CF0ED0E78EC2CF0F3
:103CD800010E58EC2BF01D6E1E6A1F6A206A010E39
:103CE80058EC2BF0216E226A236A246A000E58ECE5
:103CF8002BF0256E41D882EC2CF021C00DF022C0AB
:103D08000EF023C00FF00C6A1DC010F01EC011F099
:103D18001FC012F020C013F011C013F010C012F031
:103D2800116A106A0C501024146E0D501120156E73
:103D38000E501220166E0F501320176E25501424A3
:103D4800186E26501520196E275016201A6E285006
:103D580017201B6E050E05D0D8901B321A32193267
:103D68001832E82EF9D718C008F019C009F01AC09F
:103D78000AF01BC00BF01200266A276A286A120094
:103D880018C01CF01D6A1E6A17341C3601E31D801A
:103D98001C501F6E1F5001E153D01BC01CF01D6A40
:103DA8001E6A1A341C3601E31D801C50246E2450F0
:103DB80001E146D024507B0F1F2618C024F01B5069
:103DC800241A800E2416178E1A8E000E1B16206ACF
:103DD800216A226A070E236E16B02BD8D8901832A3
:103DE80017321632D89019361A361B36232EF4D7C6
:103DF800090E236E16B01DD8D89018321732163215
:103E0800D890223221322032232EF4D720C005F058
:103E180021C006F022C007F01FC008F024C009F036
:103E28008FEC22F005C016F006C017F007C018F096
:103E38001200195020261A5021221B50222212004B
:103E4800166A176A186A1200880E31EC27F008C043
:103E580087F009C088F08A0E31EC27F008C093F18A
:103E680009C094F18C0E31EC27F008C091F109C01B
:103E780092F18E0E31EC27F008C0F4F109C0F5F18B
:103E8800900E31EC27F008C08FF109C090F1920E26
:103E980031EC27F008C08DF109C08EF1940E31EC99
:103EA80027F008C08BF109C08CF1960E31EC27F091
:103EB80008C089F109C08AF1980E31EC27F008C0D2
:103EC80087F109C088F19A0E31EC27F008C085F116
:103ED80009C086F19C0E31EC27F008C083F109C0B7
:103EE80084F19E0E31EC27F008C081F109C082F1FF
:103EF800CC0E076EF50E97EC2BF0B70E076EF40E8E
:103F080097EF2BF027C029F02A6A2B6A2634293626
:103F180001E32A802950336E335005E1256A266A69
:103F2800276A286A1200170E296E25C02AF026C0B3
:103F38002BF027C02CF029282D6E04D0D8902C32D5
:103F48002B322A322D2EFAD72A502E6E268E276A29
:103F580025502F6E2650306E2750316E326A8E0EE5
:103F6800335E33AE0CD03350800A8F0FD7E3D8902E
:103F78003232313230322F32333EF9D70CD0170E6D
:103F8800336407D0CBD7D8902F3630363136323617
:103F980033063350F8E12E5008E0321E311E301E31
:103FA8002F6C000E3022312232222FC025F030C073
:103FB80026F031C027F032C028F012001D6E1950CB
:103FC8000E08056E000ED8A0E82A0008066E086ADA
:103FD8000C0E076E4CEC24F005501F6E1F501A5C37
:103FE800206E1F500C0DF3501924FE0F1E6E010E8B
:103FF800086E900E076E20C005F0066A4CEC24F09F
:1040080020501DC01BF01C6A1B26000E1C222040DD
:10401800E8423F0B1B26000E1C2221D8086A0C0E12
:10402800076E1E501F0DF3CF05F0F4CF06F04CECD1
:1040380024F015D8640E056E20508CEC29F01B5E18
:10404800000E1C5A580E1B24136E1B0E1C20146ED7
:10405800166A070E156E6CEC25F013501200055009
:104068001B2606501C221200370EF66E590EF76EEC
:10407800000EF86E01EEF6F010EE04F00900F5CF30
:10408800EEFFE550E150FAE12E0EF66E590EF76E8E
:10409800000EF86E00EEFAF010EE05F00900F5CF0C
:1040A800EEFFE550E150FAE1330EF66E590EF76E69
:1040B800000EF86E00EE75F010EE04F00900F5CF72
:1040C800EEFFE550E150FAE103EE00F0FA0EEE6A79
:1040D800E806FDE102EE00F0A60EEE6AE806FDE154
:1040E80001EE00F0F60EEE6AE806FDE100EE80F063
:1040F8007A0EEE6AE806FDE1746A7A6A796A7B905C
:104108007B92000EF86E000100EF26F00F6E8B8494
:104118008B920EC091F01C0E0C6EBE0E0D6E79ECDB
:104128002BF0170E0C6EBE0E0D6E26EC2CF00FC089
:1041380007F0050EF2EC2BF0076A110EF2EC2BF0EB
:104148000EC007F0120EF2EC2BF0076A130EF2EC19
:104158002BF0076A140EF2EC2BF0076A150EF2EC3E
:104168002BF0076A160EF2EC2BF0260E076E060EE1
:10417800F2EC2BF0080E076E000EF2EC2BF0030E9B
:10418800076E010EF2EC2BF0030E076E020EF2EC36
:104198002BF04F0E076E040EF2EC2BF0076A1C0E84
:1041A800F2EC2BF058EF29F01E6ACB0E1E24CCEC53
:1041B80025F0DF6A1E2A200E1E64F7D7040E0C6E47
:1041C800CB0E0D6E010E0E6E040E96EC23F0086AEF
:1041D800640E32D8EFEC27F00EEC04F057EC28F020
:1041E8000C50116E20D80C0ED3EC23F0086A0A0E7E
:1041F80023D8EFEC27F00EEC04F057EC28F00C5025
:10420800116E11D8120ED3EC23F01CC00CF01DC097
:104218000DF01FEC0BF057EC28F00C50116E03D882
:10422800180ED3EF23F075C012F076C013F0CB0E42
:10423800146E010E156E1200076E1CC005F01DC02D
:1042480006F01200136E156A166A1350B90F162479
:10425800D96EDA6A155007080E6E0D50030DE10E7F
:104268000F6EBD0E106EF3500F26F450102216502C
:104278000F26000E10220FC0F6FF10C0F7FF08002F
:10428800F5CF11F00E2A02D0D89011320E2EFCD79D
:104298001350B90F1624E16EE26AE750126ED890F7
:1042A80012341110DF6E162A020E1664CED7146A65
:1042B8000D0E0E6EFC0EE82EFED70E2EFCD7142A1D
:1042C800270E1464F5D7B90E076E94EC28F0152A5A
:1042D800070E1564B9D7070C196E1B6A1C6A1950AA
:1042E800B90F1C24D96EDA6A1B500708146E1150D6
:1042F800050D12C015F013C016F0F3501526F45032
:1043080016221C501526000E162215C0F6FF16C0E0
:10431800F7FF0800F5CF17F0142A02D0D89017320B
:10432800142EFCD71950B90F1C24E16EE26AE7502D
:10433800186ED89018341710DF6E1C2A040E1C64EF
:10434800CED71A6A0D0E146EFC0EE82EFED7142E68
:10435800FCD71A2A270E1A64F5D7B90E076E94EC03
:1043680028F01B2A070E1B64B9D7070C0B6A849028
:104378009690140E096E7A0EE82EFED7092EFCD7F9
:104388009680640EE82EFED784B0010CA00E00D0F3
:10439800E82EFDD784A0020CA00E00D0E82EFDD791
:1043A8000C6AFCEC2AF007C0D9FF08C0DAFFDF6E00
:1043B800074A082A0C2A040E0C64F3D70C6A0C501E
:1043C8000724096E000E08200A6EFB0E0924D96E18
:1043D800FF0E0A20DA6EDF500B260C2A030E0C643F
:1043E800EED72FEEFFF00750D9260850DA220B50EF
:1043F800DE1802E07480030C7490000C055006105F
:1044080001E112000D6A1AD00D50D3EC1CF00550D2
:10441800DE1813E10650DE1810E1F29E0D50C3ECD1
:104428001CF02FD80D50DBEC1CF026D80D50CBEC2F
:104438001CF0DE6ADD6AF28E000C0D2A79500D5CE4
:10444800E3E30F0E79600F0CF29E7950D3EC1CF069
:1044580005C0DEFF06C0DDFF7950C3EC1CF011D8A3
:104468007950DBEC1CF008D87950CBEC1CF0DE6AF4
:10447800DD6A792AF28E000C09C0DEFF0AC0DDFF72
:10448800120007C0DEFF08C0DDFF12000D6A3FD032
:104498000D50D3EC1CF00550DE1838E10650DE183C
:1044A80035E1F29E0D50076E086A09680A6879506E
:1044B8000B6E0C6A09500B260A500C2207500B1879
:1044C80003E108500C181FE07950076E086AD8906D
:1044D80007360836D89007360836D8900736083693
:1044E800F80E0724D96E000E0820DA6E0D50080D5C
:1044F800000EF324E16E010EF420E26E070EDBCF0E
:10450800E3FFE806FCE27906F28E12000D2A7950E4
:104518000D5CBEE31200085004E0055006100710B9
:1045280006E1056A066A076A1200082A32D80A6A8A
:104538000B6AFE0E071428D807E0F7D7082A052AC1
:10454800000E0622072225D80A6A0B6A07501CD8D3
:1045580006E0F4D70806D89005360636073606BEB4
:1045680003D0020E0860F6D708A0069ED89008323D
:1045780008500712095001E0078E05C005F006C073
:1045880006F007C007F012000C6E0A500B100C1052
:104598001200D890073206320532120000019A51F3
:1045A8000AE0942B1E0E946103D0800E8C1A03D05F
:1045B800946B9A6B8C9EB551D8B41200A251D8B4A2
:1045C8001200FD6B92510BE1932B140E936103D0F3
:1045D800800E8C1A04D0936B010E926F8C9E9205FC
:1045E80003E10101954B962B2D0E0101955D010EFE
:1045F800965905E3956B966B020E0001926F020EB9
:1046080000019219D8A41200932B140E936103D0C1
:10461800800E8C1A800C936B926BA26B8C9E12008E
:104628000D50D96EDA6A060E45EC2AF0DF6E0D5091
:10463800D96EDA6A0D5022D808EC2CF02DD8050E68
:1046480045EC2AF01F0B28D80C5018D808EC2CF091
:1046580019D8040E45EC2AF03F0B14D80B500ED88D
:1046680008EC2CF014D8030E45EC2AF0070B0FD8F1
:104678000A5004D808EC2CF0DF6E1200E16EE26AF2
:10468800E7501200DF6E0B50D96EDA6A1200DF6E47
:104698000A50D96EDA6A1200DF6E0C50D96EDA6AE7
:1046A80012000600D9CF03F0DACF04F0F2BAF2A470
:1046B80003D069EC2CF030D0F2B8F2A211D0F2920B
:1046C800010EF1AC000EFF0A026E023A02460246E3
:1046D800F1500218BF0B0218F16EFDEC24F01CD04B
:1046E8009DB09EA008D09E903C0ECF6EB00ECE6EB0
:1046F80013EC2CF011D0A0B2A1A208D0A192F00E18
:10470800B36E600EB26ED2EC22F006D0F2BC9DAA57
:1047180003D09EBA07EC29F004C0DAFF03C0D9FF22
:104728007B921100126E010E116E146A136A0C50FE
:10473800070D890E0F6EB70E106EF3500F26F4504A
:10474800102214500F26000E10220FC0F6FF10C0C2
:10475800F7FF0800F55011140BE013C005F00DC069
:1047680006F00EC007F012501424D5EC2AF00AD037
:1047780013C005F00DC006F00EC007F01250142447
:104788002FEC2AF0D8901136132A070E1364CFD7CE
:10479800010E116E142A060E1464C8D7060C196E81
:1047A800010E186E1B6A1A6A1150050D12C016F018
:1047B80013C017F0F3501626F45017221B50162674
:1047C800000E172216C0F6FF17C0F7FF0800F550B5
:1047D80018140BE01AC005F014C006F015C007F055
:1047E80019501B24D5EC2AF00AD01AC005F014C0C1
:1047F80006F015C007F019501B242FEC2AF0D890AA
:1048080018361A2A070E1A64CFD7010E186E1B2AFB
:10481800040E1B64C8D7040C096A0950BA0FD96E74
:10482800DA6A0950C6EC25F0092A1E0E0964F5D784
:10483800040E0001A9650DD023D807E1A92B1F0E8E
:10484800A965010CAA6BA96B000CD86BA96BAA2BE4
:10485800010C16D8050DE70E076EB70E086EF3505B
:104868000726F4500822A9510726000E082207C07F
:10487800F6FF08C0F7FF0800F5CFD8F0A92B010C08
:10488800AA510524D96E000E0620DA6EDF501200F8
:104898000A6A08AE06D0076C081ED8B0082A010EAE
:1048A8000A6E06AE06D0056C061ED8B0062A010EA2
:1048B8000A1A0B6A0C6A075008101BE0010E096EF1
:1048C80004D0D89007360836092A08AEFAD7D89007
:1048D8000B360C360750055C0850065805E30750A0
:1048E800055E0850065A0B80D89008320732092E08
:1048F800EED70A5004E00B6C0C1ED8B00C2A0BC083
:1049080005F00CC006F012000D6A0E6A0F6A106AF4
:1049180009500A100B100C1029E0010E116E06D078
:10492800D89009360A360B360C36112A0CAEF8D751
:10493800D8900D360E360F3610360950055C0A50E1
:1049480006580B5007580C50085809E30950055EE3
:104958000A50065A0B50075A0C50085A0D80D89026
:104968000C320B320A320932112EE2D70DC005F093
:104978000EC006F00FC007F010C008F012000F6A52
:10498800116A106AB30E0B6EB70E0C6E0F500B2621
:10499800000E0C2211500B26000E0C220BC0F6FF45
:1049A8000CC0F7FF0800F5CF0DF01050B90FD96E05
:1049B800DA6A0D50DF160F2A070E0F6401D00F6A4E
:1049C800102A1F0E1064DED7B90E076E94EC28F07B
:1049D8000E6A0D0E0B6EFC0EE82EFED70B2EFCD7C2
:1049E8000E2A630E0E64F5D7112A070E1164C9D773
:1049F800070C0001B851D8B41200A02B080EA0195A
:104A08001BE1A06B19D0360EC86FC96F360C240E87
:104A180024D0240EC86FC96F240C240EC86FC96B2C
:104A28001200C86BC96B1200120EF8D7120EC86FAD
:104A3800C96F120C120E11D0A051E5E0010AE7E08F
:104A4800030AE7E0010AE9E0070AEBE0010AECE003
:104A5800030AECE0010AEEE01200C86F360EC96FD7
:104A6800360CEAC09FF0EBC09EF0F8EC10F0D1ECE9
:104A780025F0ED0E0A6EEE0E0B6EEF0E0C6EF00EBC
:104A88000D6E14EC23F000019F51EA1901E07484C3
:104A9800030EEA1902E1010EFD6FB15105E009ECC0
:104AA80011F0E3EC1CF001D0F56B060E0001EC658B
:104AB800060C180EEC61180CEB51D8A41200EA5140
:104AC800D8A41200FD51D8B41200010EA26F010C37
:104AD800186A14AE06D0136C141ED8B0142A010E2E
:104AE800186E16AE04D0156C161ED8B0162A1550BE
:104AF800161017E0010E176E04D0D890153616362A
:104B0800172A16AEFAD71550135C1650145804E33A
:104B18001550135E1650145AD89016321532172EA7
:104B2800F2D7185004E0136C141ED8B0142A13C01E
:104B380013F014C014F01200100E0E6E0F0E0F6E4C
:104B48000C6ACB0E0E2424D80E501CD80E2ACB0E7D
:104B58000F241ED80F5016D80F06B90E076E94EC06
:104B680028F00D6A0D0E0B6EFC0EE82EFED70B2EEC
:104B7800FCD70D2A1D0E0D64F5D70C2A0F0E0C64F8
:104B8800E0D70F0CB90FE16EE26ADFCFE7FF120042
:104B9800D96EDA6A010EDA2212000C5016EC2AF0ED
:104BA80045EC2AF0DF6E0C50D96EDA6A0C5042ECF4
:104BB80023F008EC2CF01BD8010E45EC2AF017D88E
:104BC8000B5042EC23F008EC2CF00CD8020E45EC0C
:104BD8002AF03F0B07D80A5042EC23F008EC2CF0DF
:104BE800DF6E1200DF6E0A50D96EDA6A1200DF6ECD
:104BF8000B50D96EDA6A1200820E0001FF6FDD0ECB
:104C0800E82EFED7FF2FFCD700D0D4EC15F038ECF7
:104C18002CF00001B86B3EEC29F0010EB86FF29E43
:104C280015D85DEC16F059EC16F002EC22F0AE0E39
:104C3800056E4E0E066E086A076A0A6A010E096E4C
:104C480002EC22F0F28E5EEC1CF0FDD78A0E056EA7
:104C5800130E12000ED009EC27F011C013F012C089
:104C680014F0166A050E156E6CEC25F01350000151
:104C7800A46F0001A451A319EEE0A4C0A3F0A451AD
:104C8800020DDD0EF324F66EB70EF420F76E090060
:104C9800F5CF8FF00A00F5CF90F00500FA6E8F512E
:104CA800FD6E9051FE6EF850FF6EFA5012000E6ABB
:104CB80026D8DF501FE00C6A22D80E50B90FE16EDB
:104CC800E26AE7500B6ED8900B34DF6EB90E076EB0
:104CD80094EC28F00D6A0D0E0B6EFC0EE82EFED734
:104CE8000B2EFCD70D2A090E0D64F5D70C2A070EDA
:104CF8000C64E2D70E2A1F0E0E64DAD71F0C0E5072
:104D0800B90FD96EDA6A12000C6E0E6A24D00F6AD7
:104D18000F50BA0FD96EDA6A0F50C6EC25F00F2A79
:104D28001E0E0F64F5D70E50D90FD96EDA6ADF5010
:104D38000001D86FB90E076E94EC28F00D6A0D0EBD
:104D48000B6EFC0EE82EFED70B2EFCD70D2A270E75
:104D58000D64F5D70E2A0E500C5CD9E21200640ED1
:104D68000E6E0D6A0F6A0F50BA0FD96EDA6A0F50BD
:104D7800C6EC25F00F2A1F0E0F64F5D70001D86B7B
:104D8800B90E076E94EC28F00C6A08D00D0E0B6E65
:104D9800FC0EE82EFED70B2EFCD70C2A0E500C5C0E
:104DA800F5E30A0E0E6401D00E5E0D2A1F0E0D6487
:104DB800D9D71F0C640E0E6E0D6A1F0E0F6E0F50A2
:104DC800B80FD96EDA6A0F50C6EC25F00F060F50EF
:104DD800F6E10001B96BB90E076E94EC28F00C6A85
:104DE80008D00D0E0B6EFC0EE82EFED70B2EFCD74E
:104DF8000C2A0E500C5CF5E30A0E0E6401D00E5E10
:104E08000D2A1F0E0D64D9D71F0CF6C105F0F7C186
:104E180006F0F8C107F0F9C108F06D0E096E4E0EE4
:104E28000A6EC60E0B6E410E0C6EC9EC27F005C05B
:104E3800F6F106C0F7F107C0F8F108C0F9F1390E2C
:104E48000101F627300EF723000EF823F923F85155
:104E5800116E7F0EF915126E12000C6E0F6A106A31
:104E680086EC2CF0EC0E78EC2CF00C5078EC2CF056
:104E78008AEC2CF0ED0E78EC2CF0010E58EC2BF0AF
:104E88000F6E106A000E58EC2BF00D6E0E6A82EC55
:104E98002CF00D500B6E0A6A0F500A10086E105055
:104EA8000B10096E120081B202D0010E0BD081B432
:104EB80002D0020E07D081B602D0030E03D081B80B
:104EC80003D0040E056E01D0056A05500FE0290EC7
:104ED80000019961290C992B280E9919D8A4120060
:104EE80005C077F0996B010E9A6F010C0001996B60
:104EF80012008E0E156E06D0D89010320F320E3278
:104F08000D32152A116A126A136A1050146E115064
:104F1800121013101410F0E10DC005F00EC006F0C9
:104F28000FC007F015C008F0000E096E8FEC22F0D4
:104F380005C00DF006C00EF007C00FF0120019D022
:104F4800AF0E756EBD0E766E12007D0E756EBD0EBF
:104F5800766E12004B0E756EBD0E766E1200190E2F
:104F6800756EBD0E766E1200E70E756EBC0E766E0F
:104F780012007A50010AE4E0030AE7E0010AEAE0D5
:104F8800070AEDE0010AF0E012000D6A0E6A0F6AE6
:104F9800106A05A008D009500D260A500E220B50A1
:104FA8000F220C501022D89009360A360B360C36D0
:104FB800D89008320732063205320550061007101D
:104FC8000810E7E10DC005F00EC006F00FC007F0AD
:104FD80010C008F012000A6A0B6A075008101BE09C
:104FE800010E096E04D0D89007360836092A08AE93
:104FF800FAD7D8900A360B360750055C0850065881
:1050080005E30750055E0850065A0A80D890083212
:105018000732092EEED70AC005F00BC006F01200C1
:105028000C6A1F0E0D6E0E6A0C5019D80C2A0D5002
:1050380016D80D06B90E076E94EC28F00F6A0D0EFF
:105048000B6EFC0EE82EFED70B2EFCD70F2A1D0E7A
:105058000F64F5D70E2A0F0E0E64E6D70F0CB90FA2
:10506800D96EDA6ADF6A12008B6A180E946E8A6A41
:105078001F0E936EF19E8C6A956A896A010E926E74
:10508800C30EC216C150F00B0E09C16ECF0EC11669
:10509800C050F80B0209C06EC08EC280F18CF2922B
:1050A800F288828012000E500F1017E0010E106E69
:1050B80004D0D8900E360F36102A0FAEFAD70E50FD
:1050C8000C5C0F500D5804E30E500C5E0F500D5A37
:1050D800D8900F320E32102EF2D70CC00CF00DC043
:1050E8000DF0120082909490070E056E7D0EE82E4A
:1050F800FED7052EFCD700F082809480C80E00D021
:10510800E82EFDD7000E82B0010E066E060E056E63
:10511800800EE82EFED7052EFCD700D006501200D0
:105128000A6A8C90096A0950F80D0750F3240A247A
:10513800D96EDA6A180ED926DF50086E0A28ECEC08
:1051480029F00850ECEC29F0092A030E0964EBD782
:105158008C800A2A070E0A64E4D7070C156E1550CE
:10516800E9EC2AF0106E030EB3EC2BF01250E9ECC8
:105178002AF0106E040EB3EC2BF01350E9EC2AF071
:10518800106E050EB3EC2BF01450E9EC2AF0106EFB
:10519800060EB3EF2BF0086E0A6A0AC006F008C0C4
:1051A80007F0062A02D0D8900732062EFCD70750FF
:1051B800096E010E0916095034EC2BF00A2A070E65
:1051C8000A64EBD7D20E00D0E82EFDD71200076A8A
:1051D800086AC1EC2BF000090CE008C005F0010ECC
:1051E800066E052A02D0D8900636052EFCD7065042
:1051F8000712F00E00D0E82EFDD7082A070E086423
:10520800E8D707501200ABA202D0AB98AB88000ECB
:10521800000196250FD8AECFDFFF962B950E966529
:1052280001D0966BA12BA105016E950E0164950C1A
:10523800A16B1200D96EDA6A030EDA221200056E2B
:1052480000019751FDE09DB805D09EA8FED705C086
:10525800ADFF12009D98000E9825D96EDA6A020EED
:10526800DA2205C0DFFF982B0F0E986501D0986BE6
:10527800970712005BEC13F0440E136EBE0E146E0B
:10528800210E156EBE0E166E020E176EBE0E186E2D
:105298000E0E196EBE0E1A6E40EC15F0990E0B6EBE
:1052A800010E0C6E72EF29F08B94E20E70EC2AF06E
:1052B8008B84700E076E070EF2EC2BF08B920B0EA0
:1052C800076E000EF2EC2BF08B82C00E00D000D0DF
:1052D800E82EFCD700D000D000D0120010D0B90EB4
:1052E800076E94EC28F00E6A0D0E0D6EFC0EE82E7B
:1052F800FED70D2EFCD70E2A3B0E0E64F5D70BC039
:1053080005F00CC006F010EC24F00009E8E11200EA
:10531800066E086A055014E0010E076E03D0D89097
:105328000536072A05AEFBD7D89008360550065C27
:1053380003E30550065E0880D8900532072EF4D79F
:10534800085012008C80010E076E0C0E88EC2BF0B2
:10535800076A090E88EC2BF0070E076E0B0E88EC17
:105368002BF0020E076E0A0E88EC2BF0076A0F0E60
:1053780088EF2BF0146E1350E9EC2AF0106E000E33
:10538800B3EC2BF01250E9EC2AF0106E010EB3ECDE
:105398002BF01450E9EC2AF03F0B106E020EB3EF1D
:1053A8002BF00A6E8B940A5070EC2AF00B6A0BD023
:1053B80007C0F6FF08C0F7FF0800F55070EC2AF0A8
:1053C800074A082A0B2A09500B5CF2E38B84120067
:1053D800056E066A05AE02D08C8401D08C948C824E
:1053E80000F000F000F000F000F000F000F08C9207
:1053F800D8900536062A070E0664ECD7070C096E06
:105408008B94095070EC2AF00A6A07D007500A24D6
:1054180009D870EC2AF0DF6E0A2A08500A5CF6E315
:105428008B841200D96EDA6A000C0001FB5103E18B
:105438003A0EFA5D05E3030E076E0A0E88EF2BF0AD
:10544800FB5108E1330EFA5DD8B01200076A0A0E64
:1054580088EC2BF012000B6E05C008F0010E096EE7
:10546800082A02D0D8900936082EFCD7091C0A6EE3
:105478000B500624D96E000E0720DA6E0A50DF168C
:105488001200086E86EC2CF0D00E78EC2CF0085048
:1054980078EC2CF08AEC2CF0D10E78EC2CF0000E85
:1054A80058EC2BF0096E82EC2CF009501200948C09
:1054B800948EAC84AC98AC8AAB88AB8EB886040E5C
:1054C800B06E100EAF6E0001986B100E976F966B52
:1054D800956BA16B9D8A1200056E066A05AE02D017
:1054E8008C8801D08C98D89005368C8A010E83A6BA
:1054F800000E05128C9A062A070E0664EFD705508F
:10550800120076EC28F00009D8A41200CC0ECFECDB
:1055180028F04E0ECFEC28F0000ECFEC28F0000E4D
:10552800CFEC28F07F0ECFEF28F005C007F006C0BB
:1055380008F002D0074A082A07C0D9FF08C0DAFFD6
:10554800DF50F8E10550075C056E06500858066EF6
:105558001200FA0E58EC1EF008C02DF009C02EF00B
:105568000AC02FF00BC030F02DC029F02EC02AF051
:105578002FC02BF030C02CF01200F70E58EC1EF0A4
:1055880008C02DF009C02EF00AC02FF00BC030F073
:105598002DC029F02EC02AF02FC02BF030C02CF0DF
:1055A80012000A6E05C008F0010E096E082A02D022
:1055B800D8900936082EFCD70A500624D96E000E5A
:1055C8000720DA6E0950DF1212000F6E0A0E096EFC
:1055D8000F500FEC2BF00D6E0F0E0D160A0E056E08
:1055E8000F508CEC29F00E6E0E38F00B0D101200D7
:1055F800066AD8900536968084A0FED7640EE82EF9
:10560800FED784B0058084B0FED7062A070E06644C
:10561800F0D7055012000A6E080E0B6E0C6AD8906F
:105628000A340C340C6ED8900A3609500C5C02E32C
:1056380009500C5E0B2EF3D70C501200A151FEE05E
:10564800000E95251EEC29F0DF50056E952B950E62
:10565800956501D0956B9D9AA1079D8A055012000A
:10566800056E82909490050406E1060EE82EFED79A
:1056780000D082809480D20E00D0E82EFDD78280A0
:1056880094801200066EA6B2FED706C0A9FF05C018
:10569800A8FFA69EA69CA684F29E550EA76EAA0EEB
:1056A800A76EA682F28EAA0C066E61EC2CF0C58657
:1056B80061EC2CF0C9CF07F061EC2CF0065002E148
:1056C800C58A01D0C59AC58807501200C282C2B2E5
:1056D800FED7C450066E056AC3500524FA6F000E43
:1056E8000620FB6F00F000F0120007D82A0ED5EC58
:1056F80029F003D8300ED5EF29F00CC007F00DC003
:1057080008F0050E096E050C086E8C90096A0850A1
:10571800ECEC29F00750ECEC29F0092A030E096497
:10572800F6D78C80030C086E86EC2CF0EC0E78EC27
:105738002CF0085078EC2CF0075078EC2CF082EF25
:105748002CF0CD903C0ECF6EB00ECE6E9D80B192F7
:10575800B180A082F00EB36E600EB26E600C116E56
:1057680086EC2CF0D00E78EC2CF0115078EC2CF064
:10577800105078EC2CF082EF2CF082909490030E6D
:10578800E82EFED700F082809480140EE82EFED713
:1057980082B0010C000C0BC007F091C008F0610E3C
:1057A80003EC2AF0400E076E070EF2EF2BF0076E9F
:1057B8008B94075070EC2AF0000E70EC2AF0086EFB
:1057C8008B8408501200180E9412280EC66EC76AF1
:1057D800630EC86EC584C5A41200FDD7086E8B94ED
:1057E8000850200970EC2AF0075070EC2AF08B84DE
:1057F800120059EC2CF00A6E0ABC010C71EC2CF06A
:105808000009D8B4010C000C066E06C005F00F0E96
:10581800051606380F0B0A0DF35005241200000177
:10582800F72B950EF765950CF76B010EF66FCD907B
:10583800010C106A0E0EB3EC2BF0080E106E0F0E52
:10584800B3EF2BF00CC007F00DC008F0050E096E81
:105858002B0ED5EF29F0A6B2FED705C0A9FFA69E4C
:10586800A69CA680A8501200056A055033EC28F0C3
:10587800052A1F0E0564F9D71F0C05C0F6F106C0EE
:10588800F7F10101F86BF96B1200958695989492DF
:105898009494959A958C8B841200C70ED56EF28AD3
:1058A800D76A3D0ED66E796A12008B94FF0E70ECA3
:1058B8002AF0076E8B8407501200C7B4FED7C5CFF5
:1058C80005F01F0E0516F9E11F0CF294D76A3D0E7C
:1058D800D66E010E0001AF6F010C170EDBEC2BF03A
:1058E800096E0950010B1200066E61EC2CF006C01F
:1058F800C9FF1200966B956BA16B120061EC2CF03E
:10590800C584120061EC2CF0C580120061EC2CF00B
:10591800C5821200959E8C9E1200F28EF28C1200A7
:10592800040E776E040CF4012B0102AFBD050101D2
:035938000000006C
:10B788000000000000000000087C4E4F4E7C0804BA
:10B7980026473F070604203E7F7F3F3E207E121E3D
:10B7A800007010004C6C30186C6400FDBFEF7FFB1C
:10B7B800DFF7FEFDBFEF7FFBDFF7FE0001010202AE
:10B7C800030404050606070708090901000A0064BE
:10B7D80000E80310278649664DBC4D2850B64C003A
:10B7E800000000004551453E006B6F6B3E003E7CFB
:10B7F8003E1C003C7E3C1800367F363000000000BE
:10B808000000000000000000000000000000000030
:10B818000000000000000000000000000000000020
:10B828000000000000000000000000000000000010
:10B838000000000000000000000000000000000000
:10B8480000000000000000000000000000000000F0
:10B8580000000000363600000024360000002424D2
:10B86800000000240000000000000000001200009A
:10B87800000012120000001236000000123600000C
:10B888000000000000005F00000007000700147FB0
:10B89800147F14242A7F2A12231308646236495617
:10B8A80020500008070300001C2241000041221C10
:10B8B800002A1C7F1C2A08083E08080080703000F7
:10B8C8000808080808606000000020100804023E0C
:10B8D8005149453E00427F4000426151494621415D
:10B8E800454B311814127F1027454545393C4A49C4
:10B8F800493001710905033649494936064949293C
:10B908001E000036360000403400000008142241B2
:10B918001414141414004122140802015909063E93
