:0400000007EF00F016
:100008007B82F2ED1CF016EF1AF02EEC24F029C0DA
:1000180056F02AC057F02BC058F02CC059F042ECCB
:1000280024F029C04AF02AC04BF02BC04CF02CC059
:100038004DF00B0E92DBD89038343C6E39343D6E5F
:100048003A343E6E3B343F6E030E406E56C041F06C
:1000580057C042F058C043F059C044F0406601D040
:1000680007D044344432433242324132402EF6D72C
:100078003C50415C056E3D504258066E3E50435818
:10008800076E3F504458086E99C009F09AC00AF0AC
:100098004CDB3AEC21F0376601D003D00ADB372E6F
:1000A800FAD716DB0C0E59DB040E3C6E56C03DF039
:1000B80057C03EF058C03FF059C040F03C6601D0F0
:1000C80003D054DB3C2EFAD738503D5C056E3950CE
:1000D8003E58066E3A503F58076E3B504058086EDF
:1000E80000019B51416E9C51426E436A446A040E62
:1000F800456E56C046F057C047F058C048F059C042
:1001080049F0456601D007D0493449324832473270
:100118004632452EF6D74150465C096E4250475844
:100128000A6E435048580B6E445049580C6E3AECCE
:1001380021F0376601D003D0BCDA372EFAD7BFDA00
:100148000E0E376E01DB97C009F098C00AF0EDDAA1
:100158003AEC21F0376601D003D0ABDA372EFAD764
:10016800C0DA5E506624526E5F506720536E60504E
:100178006820546E61506920556E52C005F053C016
:1001880006F054C007F055C008F0050E096E0A6A5B
:100198000B6A0C6A3AEC21F0800E0524376E000ECB
:1001A8000620386E000E0720396E000E08203A6EC1
:1001B80038C037F039C038F03AC039F03A6A39BE39
:1001C8003A6837C04EF038C04FF039C050F03AC0E6
:1001D80051F035C0D9FF36C0DAFF4EC0DEFF4FC040
:1001E800DEFF50C0DEFF51C0DEFF52C037F053C003
:1001F80038F054C039F055C03AF03A34BDDA000E40
:100208003724666E060E3820676EFF0E3920686E3A
:10021800FF0E3A20696E0B0E12DA3AEC21F03766BF
:1002280001D003D046DA372EFAD749DA8DDA8DC0F5
:1002380009F08EC00AF079DA3AEC21F052DA8FC070
:1002480005F090C006F056DA3AEC21F0D890053463
:10025800376E0634386E0734396E08343A6E3750C4
:100268005E2638505F22395060223A5061220001E0
:100278009151376E9251386E396A3A6A38C03AF0FD
:1002880037C039F0386A376A020E3B6E5EC03CF000
:100298005FC03DF060C03EF061C03FF03B6601D0FA
:1002A80007D03F343F323E323D323C323B2EF6D708
:1002B80037503C245E6E38503D205F6E39503E20EA
:1002C800606E3A503F20616E0D0EB9D93AEC21F0BC
:1002D800376601D003D0EDD9372EFAD7F0D9120EF0
:1002E800376E030E386E93C005F094C006F0000E0A
:1002F8000FDA3AEC21F005C039F006C03AF007C031
:100308003BF008C03CF0386601D007D03C343C32A2
:100318003B323A323932382EF6D795C005F096C0BE
:1003280006F0E8D93AEC21F0C4D9055039243D6EDD
:1003380006503A203E6E07503B203F6E08503C2046
:10034800406E376601D003D011DA372EFAD73DC098
:1003580066F03EC067F03FC068F040C069F00F0E1D
:10036800376E000E6624056E800E6720066E000E3E
:100378006820076E000E6920086EF5C009F0F6C007
:100388000AF00B6A0C6A3AEC21F0376601D003D008
:1003980090D9372EFAD79CD9665067106810691023
:1003A80001E112000C0E376E5EC038F05FC039F004
:1003B80060C03AF061C03BF0376601D004D03B34EE
:1003C800E0D9372EF9D74AC03CF04BC03DF04CC0BD
:1003D8003EF04DC03FF03C1E3D1E3E1E3F1E3C2AD7
:1003E800000E3D223E223F2238503C5C406E395080
:1003F8003D58416E3A503E58426E3B503F58436E0E
:10040800000E4024056E000E4120066E100E42209C
:10041800076E000E4320086E350E096E0C0E0A6E2C
:100428000B6A0C6A3AEC21F005C062F006C063F072
:1004380007C064F008C065F0800E655C15E2D890CE
:100448006234056E6334066E6434076E6534086E74
:1004580072D927EC1EF005C062F006C063F007C031
:1004680064F008C065F014D062C005F063C006F0FF
:1004780064C007F065C008F05ED927EC1EF0D8907C
:100488000534626E0634636E0734646E0834656E34
:1004980062C037F063C038F064C039F065C03AF024
:1004A800040E02D0D89068D9E82EFCD737C005F0E2
:1004B80038C006F039C007F03AC008F062C03BF017
:1004C80063C03CF064C03DF065C03EF0040E05D04A
:1004D800D8903E323D323C323B32E82EF9D73BC011
:1004E80009F03CC00AF03DC00BF03EC00CF03AECFD
:1004F80021F00E0E05D0D8900832073206320532A8
:10050800E82EF9D7DCD80C0E376E87C005F088C006
:1005180006F0000EFDD83AEC21F0376601D003D082
:10052800C8D8372EFAD7D4D80D0E376E62C038F037
:1005380063C039F064C03AF065C03BF0030E02D0E6
:10054800D8901FD9E82EFCD738C005F039C006F07E
:100558003AC007F03BC008F089C009F08AC00AF029
:10056800E4D83AEC21F0376601D003D0A2D8372E70
:10057800FAD7B7D8040E376E8BC038F08CC039F074
:10058800000E39BEFF0E3A6E3B6E665038243C6E44
:10059800675039203D6E68503A203E6E69503B20C6
:1005A8003F6E5E503C24406E5F503D20416E60506F
:1005B8003E20426E61503F20436E376601D007D01F
:1005C80043344332423241324032372EF6D76250FA
:1005D8004024626E63504120636E64504220646E12
:1005E80065504320656E070E196E400E1A6E3F0E59
:1005F8001B6E62C00DF063C00EF064C00FF065C0E2
:1006080010F0EEEC20F00DC016F00EC017F00FC081
:1006180018F0F8EC18F016C025F017C026F018C02E
:1006280027F0BAEC19F03450D96EDA6A25C0DEFF2B
:1006380026C0DEFF27C0DEFF28C0DEFF1200376EAF
:10064800020E386E66C039F067C03AF068C03BF0F9
:1006580069C03CF0386601D007D03C343C323B32AC
:100668003A323932382EF6D739C005F03AC006F09A
:100678003BC007F03CC008F0020E3D6E66C03EF07D
:1006880067C03FF068C040F069C041F03D6601D0E6
:1006980007D04134413240323F323E323D2EF6D708
:1006A8003EC009F03FC00AF040C00BF041C00CF05A
:1006B800120008340832073206320532120005C02B
:1006C8005AF006C05BF007C05CF008C05DF012008D
:1006D80005C066F006C067F007C068F008C069F09A
:1006E800120005C05EF006C05FF007C060F008C0E9
:1006F80061F01200000E06BEFF0E076E086E66C09F
:1007080009F067C00AF068C00BF069C00CF012006D
:1007180006BEFF0E076E086E5AC009F05BC00AF0ED
:100728005CC00BF05DC00CF01200000E0ABEFF0E9C
:100738000B6E0C6E120066C009F067C00AF068C044
:100748000BF069C00CF012005AC005F05BC006F04F
:100758005CC007F05DC008F01200376E00019B51C5
:10076800386E9C51396E3A6A3B6A12004034403206
:100778003F323E323D3212003A3239323832373265
:1007880012003B323A323932383212000001B45189
:100798000DE06EEC23F0176E000EAF25D96EDA6A05
:1007A800020EDA2217C0DFFFAF2B1200240E02015F
:1007B800001901E1E7D20AD334DB0001826F02019C
:1007C80036DB0001816F81C012F0136A825129EC77
:1007D80023F04F0E78EC22F04B0E78EC22F00D0E41
:1007E80078EC22F00A0E78EC22F0F0D2F7DA19044D
:1007F8001A1005E0F3DA020E19181A101FE1025157
:10080800D00F786E78C005F0010EA2EC24F094ECBD
:1008180025F0780403E10001C96B02D017EC17F04A
:10082800B36B4F0E78EC22F04B0E78EC22F00D0EE5
:1008380078EC22F00A0E78EC22F0C8D2450E78EC5B
:1008480022F0520E78EC22F00D0E78EC22F00A0E0F
:1008580078EC22F0BBD2010EE0DAA2EC24F014EC22
:1008680021F022D0020ED9DAA2EC24F0F8D7030E38
:10087800D4DAA2EC24F0F3D7040ECFDAA2EC24F0F9
:10088800EED7050ECADAA2EC24F0E9D7A7DA1A5097
:100898000BE11950010ADFE0030AE4E0010AE7E08E
:1008A800070AEAE0010AEDE0D00E176E18680201A7
:1008B80002519FDA1ABE05D01A5007E1060E195CDC
:1008C80004E28CDA19501A100DE1450E78EC22F08A
:1008D800520E78EC22F00D0E78EC22F00A0E78EC2D
:1008E80022F074D24F0E78EC22F04B0E78EC22F006
:1008F8000D0E78EC22F00A0E78EC22F067D297DA27
:10090800126E06510A0DF3500725F00F136E0851A9
:100918000A0DF3500925F00F146E83DA23EC22F048
:100928004F0E78EC22F04B0E78EC22F00D0E78EC9E
:1009380022F00A0E78EC22F049D250DA19501A1037
:1009480004E04CDA19041A100CE10251D00F00012E
:10095800C86F79DAC76FC8C005F0020EA2EC24F0A0
:100968000DD0450E78EC22F0520E78EC22F00D0EE8
:1009780078EC22F00A0E78EC22F028D20001C85157
:1009880009E1C7C005F0030EA2EC24F003EC15F052
:10099800E4EC24F04F0E78EC22F04B0E78EC22F0C9
:1009A8000D0E78EC22F00A0E78EC22F00FD216DA4F
:1009B80019501A1004E012DA19041A100AE1025147
:1009C800D00F0001C66FC6C005F0040EA2EC24F0DB
:1009D8000DD0450E78EC22F0520E78EC22F00D0E78
:1009E80078EC22F00A0E78EC22F0F0D14F0E78EC79
:1009F80022F04B0E78EC22F00D0E78EC22F00A0E65
:100A080078EC22F0E3D1EAD919501A1004E0E6D9BB
:100A180019041A101BE1FCD9ECD919501A1005E079
:100A2800F7D9E7D919041A1011E10251D00F0001C2
:100A3800C56F09DAC46FC5C005F0050EA2EC24F035
:100A4800C4C005F0060EA2EC24F00DD0450E78ECDB
:100A580022F0520E78EC22F00D0E78EC22F00A0EFD
:100A680078EC22F0B3D14F0E78EC22F04B0E78ECF4
:100A780022F00D0E78EC22F00A0E78EC22F0A6D1C6
:100A8800ADD919501A1004E0A9D919041A100AE1AD
:100A98000251D00F0001C36FC3C005F0070EA2ECCE
:100AA80024F00DD0450E78EC22F0520E78EC22F0AE
:100AB8000D0E78EC22F00A0E78EC22F087D14F0E5A
:100AC80078EC22F04B0E78EC22F00D0E78EC22F048
:100AD8000A0E78EC22F07AD14F0E78EC22F04B0E09
:100AE80078EC22F00D0E78EC22F00A0E78EC22F069
:100AF800330E186EBB0E176EE00EE82EFED7172EBB
:100B0800FCD7182EFAD7330E186EBB0E176EE00EF0
:100B1800E82EFED7172EFCD7182EFAD7330E186EEC
:100B2800BB0E176EE00EE82EFED7172EFCD7182E38
:100B3800FAD7330E186EBB0E176EE00EE82EFED7EE
:100B4800172EFCD7182EFAD7FF0040D1740E0219C1
:100B580002E1030E04D0700E021903E1020E776E53
:100B68000DD0450E78EC22F0520E78EC22F00D0EE6
:100B780078EC22F00A0E78EC22F028D14F0E78ECAF
:100B880022F04B0E78EC22F00D0E78EC22F00A0ED3
:100B980078EC22F01BD1610E021920E11B6A0BD000
:100BA800030E1B24D96EDA6A020EDA22960E1B2473
:100BB80015EC11F01B2AFD0E176E1868000E056E55
:100BC800020E066E1AEC24F017500526185006225D
:100BD8001B50055C000E065810E3E2D7750E02198B
:100BE80007E1000E096E020E0A6E7BEC10F005D0CC
:100BF8006F0E021902E17490E9D04F0E78EC22F0E2
:100C08004B0E78EC22F00D0E78EC22F00A0E78EC00
:100C180022F0EEC0B0F074800001C96B0EEC18F041
:100C280029EC1CF02FEC0DF029EC1CF037EC0BF044
:100C3800ADEC22F0C6EC1FF047EC10F0E1EC1BF035
:100C480017EC17F0C3D0086A640EF7D860EC21F0EF
:100C5800D7D8C8EC21F00C50300F78EC22F0086A95
:100C68000A0EEBD860EC21F0CBD8C8EC21F00C5080
:100C7800300F78EC22F0FBC00CF0FCC00DF0DBEC80
:100C880012F0C8EC21F00C50300F78EC22F05F0E17
:100C980078EC22F06AD01B6A0B0E1B6401D00AD0D4
:100CA800150E1B24F66EF76ABE0ED2D878EC22F029
:100CB8001B2AF2D70D0E78EC22F00A0E78EC22F0FF
:100CC8001B6A080E1B6401D00AD0210E1B24F66E85
:100CD800F76ABE0EBDD878EC22F01B2AF2D70D0EAB
:100CE80078EC22F00A0E78EC22F03FD00001FD519A
:100CF80078EC22F0086A640E076E23EC0DF060ECC5
:100D080021F07ED8C8EC21F00C50300F78EC22F09E
:100D180015EC0DF060EC21F073D8C8EC21F00C5004
:100D2800300F78EC22F00DEC0DF0C8EC21F00C50EF
:100D3800300F78EC22F05F0E78EC22F016D0450EDA
:100D480078EC22F0520E78EC22F00D0E78EC22F0BE
:100D58000A0E78EC22F009D00251610A01E173D73A
:100D6800150AC4E0020A97E0EAD74F0E78EC22F0A1
:100D78004B0E78EC22F00D0E78EC22F00A0E78EC8F
:100D880022F024D00151530A01E105D7320A01E1CA
:100D98003AD6030A01E1D1D5010A01E127D5070AAC
:100DA80001E1ADD5010A01E16BD6030A01E16ED577
:100DB800170A01E1CBD6030ACFE0010A01E1F7D512
:100DC800070A01E1F9D40E0A01E186D60201006B97
:100DD800016B026B0001AF6BDAEF25F0D00E176ED6
:100DE80018680251196E1A6A1750192618501A22D3
:100DF8001200196E1A6A1750192618501A22120072
:100E080005C00CF006C00DF00F6A0A0E0E6E0A0C33
:100E1800D00E176E1868035112007A6E7AC005F06A
:100E2800000C02510A0DF3500325F00F1200045173
:100E38000A0DF3500525F00F1200076EFBC005F0F0
:100E4800FCC006F0120002010351D00F000112008D
:100E5800F7220800F55012001F6E2AD10001C96B55
:100E6800206A9FEC0FF0EC51C7EC22F07DEC24F0E7
:100E780000090BE09FEC0FF0EC51C7EC22F07DEC81
:100E880024F01ED9CA0F47D903D02050A4EC21F072
:100E9800AEEC0FF07DEC24F013D9D00F3CD99FECC9
:100EA8000FF0EB51C7EC22F07DEC24F009D9D70FF5
:100EB80032D9A9EC0FF07DEC24F002D9DD0F2BD943
:100EC800202A040E2064CDD7206A9FEC0FF0EA5147
:100ED800C7EC22F07DEC24F018D905D9E30F1BD913
:100EE800B3EC0FF07DEC24F010D9FDD8E70F13D93F
:100EF800202A020E2064E9D70001CF6B800ED56F3F
:100F0800D66FDC6BE26BE66B1200010E0001C96F55
:100F180008D9C7EC22F07DEC24F00001C16F0BD991
:100F28007DEC24F00001C06F01D9C7EC22F07DEC04
:100F380024F00001BF6F03D97DEC24F00001BE6FDF
:100F4800C151BB1909E1C051BA1906E1BF51B9191C
:100F580003E1BE51B81974E0BE51B81909E0EFD8E1
:100F68007DEC24F099EC0FF0190E4EEC1BF008D034
:100F7800E6D87DEC24F0FFEC0DF0190EAEEC1DF078
:100F88000001BF51B9190BE0D1D8C7EC22F07DECB4
:100F980024F099EC0FF0130E4EEC1BF00AD0C6D8D3
:100FA800C7EC22F07DEC24F0FFEC0DF0130EAEEC54
:100FB8001DF00001C051BA1909E0BDD87DEC24F03C
:100FC80099EC0FF0070E4EEC1BF008D0B4D87DEC6E
:100FD80024F0FFEC0DF0070EAEEC1DF09FEC0FF0C7
:100FE800EC51C7EC22F07DEC24F000091AE0000176
:100FF800C151BB190BE095D8C7EC22F07DEC24F069
:1010080099EC0FF0010E4EEC1BF011D08AD8C7EC0A
:1010180022F07DEC24F0FFEC0DF0010EAEEC1DF09B
:1010280006D0116AA4EC0FF0010E4EEC1BF0C1C003
:10103800BBF0C0C0BAF0BFC0B9F0BEC0B8F0120073
:1010480070D8C7EC22F07DEC24F000090DE09FEC8D
:101058000FF0EC51C7EC22F07DEC24F0FFEC0DF022
:10106800010EAEEC1DF006D0116ADBEC0EF0010E9D
:10107800AEEC1DF0AEEC0FF07DEC24F0FFEC0DF0C3
:10108800070EAEEC1DF09FEC0FF0EB51C7EC22F011
:101098007DEC24F0FFEC0DF0130EAEEC1DF0A9EC86
:1010A8000FF07DEC24F0FFEC0DF0190EAEEF1DF003
:1010B8001F50010A01E1D2D6030A01E126D7120026
:1010C800050D75C01DF076C01EF0F3501D26F450B6
:1010D8001E2220501D26000E1E221DC0F6FF1EC017
:1010E800F7FF20501200F3501D26F4501E22205006
:1010F8001D26000E1E22030E1D26000E1E221DC0D8
:10110800F6FF1EC0F7FF20501200030DF40E1D6EEF
:10111800BD0E1E6E1200D96EDA6A0800F5CFDFFF29
:1011280012000A0E096E056EEC5112000A0E096EC5
:10113800056EEB5112000A0E096EEC5112000A0EF0
:10114800096EEB51120042D067D929EC1CF0380E19
:10115800056E220E47EC10F0E1EC1BF029EC12F0C2
:10116800E1EC1BF0B0EC11F03BD056D929EC1CF0A7
:1011780034EC12F029EC1CF0C6EC1FF047EC10F030
:10118800E1EC1BF0F0EC13F094EC25F029D0000111
:10119800852B0C0E856502D0010E856F29EC12F0A7
:1011A800E1EC1BF0A0EC11F023EC22F019D00001C7
:1011B8008507855102E10C0E856F29EC12F0E1ECF0
:1011C8001BF0A0EC11F023EC22F00AD07750010AB2
:1011D800BBE0030ADCE0010AEAE0070AC6E0010A0C
:1011E80074A6FFD07A0EF66EBE0EF76E00D9000E0A
:1011F800AEEC1DF07B0EF66EBE0EF76EF8D8060E3E
:10120800AEEC1DF07C0EF66EBE0EF76EF0D80C0E2E
:10121800AEEC1DF0C6D0CB0EF66EBE0EF76EE7D85C
:10122800120EAEEC1DF0CC0EF66EBE0EF76EDFD8C9
:10123800180EAEEC1DF0D5D0C20EF66EBE0EF76ECF
:10124800D6D8120EAEEC1DF0C30EF66EBE0EF76EBB
:10125800CED8180EAEEC1DF0C4D0A70EF66EBE0E9A
:10126800F76EC5D8120EAEEC1DF0A80EF66EBE0EC7
:10127800F76EBDD8180EAEEC1DF0B3D09B0EF66E0F
:10128800BE0EF76EB4D8120EAEEC1DF09C0EF66EC4
:10129800BE0EF76EACD8180EAEEC1DF0A2D0B30E91
:1012A800F66EBE0EF76EA3D8120EAEEC1DF0B40E9D
:1012B800F66EBE0EF76E9BD8180EAEEC1DF091D0F0
:1012C800B60EF66EBE0EF76E92D8120EAEEC1DF08C
:1012D800B70EF66EBE0EF76E8AD8180EAEEC1DF07D
:1012E80080D0A40EF66EBE0EF76E81D8120EAEEC4C
:1012F8001DF0A50EF66EBE0EF76E79D8180EAEEC80
:101308001DF06FD084D873D8120EAEEC1DF07AD8C9
:101318006ED8180EAEEC1DF064D0AA0EF66EBE0E96
:10132800F76E65D8120EAEEC1DF0AB0EF66EBE0E63
:10133800F76E5DD8180EAEEC1DF053D0980EF66E11
:10134800BE0EF76E54D8120EAEEC1DF0990EF66E66
:10135800BE0EF76E4CD8180EAEEC1DF042D0B90E8A
:10136800F66EBE0EF76E43D8120EAEEC1DF0BA0E36
:10137800F66EBE0EF76E3BD8180EAEEC1DF031D0EF
:10138800AD0EF66EBE0EF76E32D8120EAEEC1DF034
:10139800AE0EF66EBE0EF76E2AD8180EAEEC1DF025
:1013A80020D000018551010A01E135D7030A01E186
:1013B80043D7010A01E151D7070A01E15FD7010AC2
:1013C80001E16DD7030A01E17BD7010A8AE00F0A20
:1013D80099E0010AA2E0030AB1E0010AC0E0070AA5
:1013E800CFE0CA0E076E05EC22F0748612000800E2
:1013F800F5CF11F0FA0E126EB70E136ECA0E146EF8
:10140800156A1200B10EF66EBE0EF76E1200B00E1F
:10141800F66EBE0EF76E12004E0E056E110E066EBB
:101428001200AED0785030EC07F0020E781803E1C5
:1014380017EC17F002D00001C96B050EEA650DD054
:10144800070EEA610AD0FA0E116EF90E126EF70E47
:10145800136EF80E146E4AEC12F00E0E0001EA65D7
:1014680005D0100EEA6102D0030E776EC35101E178
:1014780094D0270EEA6591D0290EEA618ED0EBB19F
:101488008CD0020E74D0E4D829EC1CF0700E056ED6
:101498001A0E066EE2D8E1EC1BF029EC12F0E1EC32
:1014A8001BF020EEEAF010EE80F0060EDBCFE3FF33
:1014B800E806FCE2050E776E7496020E78186DE168
:1014C8000001C2D8DBEC0EF00D0EAEEC1DF065D0BD
:1014D8000001C96BF10E346EE30E356E010E366EE7
:1014E80009EC00F0020E781807E1170E116EDBEC1C
:1014F8000EF00D0EAEEC1DF0CAEC1FF0A9D829ECC9
:101508001CF0360E056E2E0E47EC10F0E1EC1BF0C9
:10151800F0EC13F042D00001C5511AE0C96B020E7D
:10152800781807E1170E116EDBEC0EF00D0EAEEC1D
:101538001DF0CAEC1FF08CD829EC1CF02E0E056E9D
:101548002F0E47EC10F0E1EC1BF0F0EC13F00ED08E
:10155800C4510CE0C96B020E7818EBE1170E116E3E
:10156800DBEC0EF00D0EAEEC1DF0E3D7050E776E3A
:1015780014D0050E776E34EC12F029EC1CF00DD067
:101588007750010A80E0030AA3E0010AC4E0070AD1
:10159800F0E0010A01E146D7030A74A604D0CA0E96
:1015A800076E05EC22F00001C85108E0EAA174A218
:1015B80005D07492C6EC24F09AEC23F0748659ECAA
:1015C80025F0000913E06C0E0B6E2BEC25F093EC64
:1015D80022F06E506A6E6D500001A16F6AC0A2F0D1
:1015E8006CC0FDF09F6BA06B749403D000019F4BFF
:1015F800A02BE90E9F5D030EA05906E3748493ECBB
:1016080022F036D868EC1AF00001B051EE191AE150
:10161800050E096EEB517DEC24F00009D8A41200E8
:10162800230E0001EA19D8B474A012000DD8DBEC1F
:101638000EF00D0EAEEC1DF016D8ADEC22F0010E3A
:10164800C96F010C74901200C96B170E116E170C3C
:101658002A0E056E140E066E1200086A076A0A6AD8
:10166800320E096E320C960E0B6E020E0C6E1200C4
:10167800040E0E6E780C42D001D929EC1CF0160E1F
:10168800056E2A0E47EC10F0E1EC1BF029EC12F085
:10169800E1EC1BF0B0EC11F03BD0F0D829EC1CF0D9
:1016A80034EC12F029EC1CF0C6EC1FF047EC10F0FB
:1016B800E1EC1BF0F0EC13F094EC25F029D00001DC
:1016C800832B070E836502D0010E836F29EC12F07D
:1016D800E1EC1BF0A0EC11F023EC22F019D0000192
:1016E8008307835102E1070E836F29EC12F0E1ECC6
:1016F8001BF0A0EC11F023EC22F00AD07750010A7D
:10170800BBE0030ADCE0010AEAE0070AC6E0010AD6
:1017180074A6AED06E0EF66EBE0EF76EFBEC09F038
:10172800000EAEEC1DF06F0EF66EBE0EF76EFBEC03
:1017380009F0060EAEEC1DF0700EF66EBE0EF76EDA
:10174800FBEC09F00C0EAEEC1DF081D0A10EF66E8C
:10175800BE0EF76EFBEC09F0120EAEEC1DF0A20EF9
:10176800F66EBE0EF76EFBEC09F0180EAEEC1DF02F
:101778007FD0BF0EF66EBE0EF76EFBEC09F0120EB0
:10178800AEEC1DF0C00EF66EBE0EF76EFBEC09F067
:10179800180EAEEC1DF06CD00BEC0AF0FBEC09F067
:1017A800120EAEEC1DF006EC0AF0FBEC09F0180E78
:1017B800AEEC1DF05DD0C80EF66EBE0EF76EFBECFB
:1017C80009F0120EAEEC1DF0C90EF66EBE0EF76EE5
:1017D800FBEC09F0180EAEEC1DF04AD0C50EF66E03
:1017E800BE0EF76EFBEC09F0120EAEEC1DF0C60E45
:1017F800F66EBE0EF76EFBEC09F0180EAEEC1DF09F
:1018080037D0920EF66EBE0EF76EFBEC09F0120E94
:10181800AEEC1DF0930EF66EBE0EF76EFBEC09F003
:10182800180EAEEC1DF024D09E0EF66EBE0EF76EAE
:10183800FBEC09F0120EAEEC1DF09F0EF66EBE0E1C
:10184800F76EFBEC09F0180EAEEC1DF011D000019C
:101858008351010AE9E0030A01E178D7010A89E026
:10186800070A9AE0010AA7E0030AB8E0010AC9E0FA
:10187800CA0E076E05EC22F0748612007E0E056E05
:10188800160E066E1200B7D094EC25F074A413D08F
:10189800D0D871EC1DF0450EB6D8090E4EEC1BF0F1
:1018A800720EB1D80F0E4EEC1BF0720EACD8150E9E
:1018B8004EEC1BF088D00001A12902E1A22971E0B9
:1018C800A8D8C8EC21F00C501E6EB9D8C9D860EC65
:1018D80021F005C0A1F006C0A2F0050E1E6403D0D9
:1018E8000001A14BA22B9DD860EC21F004EC07F07D
:1018F800C8EC21F00C500D102EE1020EFDEC17F093
:1019080071EC1DF00001A151A21116E0FDC011F00B
:10191800A4EC0FF00D0E4EEC1BF07BD8C8EC21F0B8
:101928000C5099EC0FF0130E4EEC1BF0B00E6BD868
:10193800190E4EEC1BF047D06CD8C8EC21F00C50B7
:1019480099EC0FF00D0E4EEC1BF0B00E5CD8130E98
:101958004EEC1BF038D06DD871EC1DF0FDC011F0C5
:10196800A4EC0FF0090E4EEC1BF05BD860EC21F0F4
:1019780004EC07F0C8EC21F00C5099EC0FF00F0EB6
:101988004EEC1BF046D8C8EC21F00C5099EC0FF047
:10199800160E4EEC1BF0B00E36D81B0E4EEC1BF09C
:1019A80012D047D871EC1DF02D0E2DD8090E4EEC33
:1019B8001BF02D0E28D80F0E4EEC1BF02D0E23D841
:1019C800160E4EEC1BF002EC18F03ED8E1EF1BF0BF
:1019D800050E776ECAEC1FF0EDEC0EF034EC12F049
:1019E80029EC1CF038D829EC1CF0C6EC1FF047ECA9
:1019F80010F0E1EF1BF07750040AEAE0010A01E178
:101A080043D7030A1200116EFA0E126EB70E136E48
:101A18001200A1C00CF0A2C00DF00F6A0A0E0E6EE3
:101A28000A0C086A0A0E076EA1C005F0A2C006F0EB
:101A38000A0C020E0C6ECA0E0D6E0E6A000CA1C0C6
:101A480005F0A2C006F01200020E086E8A0E076E9C
:101A58000A6A096A8A0C8E0E056E180E066E120046
:101A6800086A0A0E076E0A0C74B802D074886CD023
:101A780074986AD0D4D829EC1CF0300E056E1C0E70
:101A8800066E31EC0BF0E1EC1BF029EC12F0E1EC06
:101A98001BF0780413E19FEC0FF08151C7EC22F0A2
:101AA8007DEC24F0A8D80D0EAEEC1DF0B3D87DEC7B
:101AB80024F0A1D8130EAEEC1DF013D09FEC0FF05C
:101AC800EB51C7EC22F07DEC24F095D8130EAEEC68
:101AD8001DF0A9EC0FF07DEC24F08DD8190EAEECBA
:101AE8001DF0F0EC13F03AD09AD829EC1CF034EC45
:101AF80012F029EC1CF0C6EC1FF047EC10F0E1ECFA
:101B08001BF0050E776E94EC25F028D00001812B90
:101B18003B0E816501D0816B29EC12F0E1EC1BF0E2
:101B280073D829EC23F0050E776E18D000018107D1
:101B3800812902E13B0E816F29EC12F0E1EC1BF0E8
:101B480063D829EC23F0EFD77750010A93E0030A12
:101B5800DDE0010AEBE0070AC7E0010A74A645D0F8
:101B680074A828D0780413E19FEC0FF08151C7ECDA
:101B780022F07DEC24F03FD80D0EAEEC1DF04AD8D3
:101B88007DEC24F038D8130EAEEC1DF02ED09FEC6F
:101B98000FF08151C7EC22F07DEC24F02CD8130E05
:101BA800AEEC1DF037D87DEC24F025D8190EAEEC3C
:101BB8001DF01BD078040DE1116ADBEC0EF00D0E60
:101BC800AEEC1DF0116ADBEC0EF0130EAEEC1DF05E
:101BD8000CD0116ADBEC0EF0130EAEEC1DF0116A9E
:101BE800DBEC0EF0190EAEEC1DF0CA0E076E05EC1C
:101BF80022F074861200116E75C012F076C013F0D0
:101C0800CA0E146E156A120081C012F0136A000120
:101C1800825112000A0E096E000181511200700EE5
:101C2800056E1A0E066E120074B802D074884AD077
:101C3800749848D0C4D829EC1CF0D80E056E260E2E
:101C480047EC10F0E1EC1BF029EC12F0E1EC1BF092
:101C5800050E776E94EC25F074963ED0B0D829EC3A
:101C68001CF034EC12F029EC1CF0C6EC1FF047EC29
:101C780010F0E1EC1BF0050E776E94EC25F02CD0FB
:101C88000001822B170E826501D0826B29EC12F0BD
:101C9800E1EC1BF0050E776E08EC0EF029EC23F052
:101CA8001BD000018207822902E1170E826F29ECFE
:101CB80012F0E1EC1BF0050E776E08EC0EF029EC43
:101CC80023F00AD07750010AB5E0030AD9E0010AE7
:101CD800E8E0070AC3E0010A74A663D074A84AD0F2
:101CE800780424E19FEC0FF08251C7EC22F07DECE0
:101CF80024F000090DE09FEC0FF08251C7EC22F0B0
:101D08007DEC24F0FFEC0DF0000EAEEC1DF005D0DC
:101D1800116A4DD8000EAEEC1DF056D87DEC24F0BB
:101D2800FFEC0DF0060EAEEC1DF03BD09FEC0FF073
:101D38008251C7EC22F07DEC24F000090DE09FEC05
:101D48000FF08251C7EC22F07DEC24F0FFEC0DF08F
:101D5800010EAEEC1DF005D0116A29D8010EAEECCB
:101D68001DF032D87DEC24F0FFEC0DF0070EAEEC40
:101D78001DF017D078040BE1116A19D8000EAEECEB
:101D88001DF0116A14D8060EAEEC1DF00AD0116AC7
:101D98000ED8010EAEEC1DF0116A09D8070EAEEC94
:101DA8001DF0CA0E076E05EC22F074861200FA0EBA
:101DB800126EB70E136ECA0E146E156A1200300E2C
:101DC800056E1C0E066E12000A0E096E0001825185
:101DD800120094EC25F0A2D0AED8EC51C7EC22F05A
:101DE8007DEC24F000090BE0A6D8EC51C7EC22F0FA
:101DF8007DEC24F09AD8000E4EEC1BF005D0116A49
:101E08009FD8000E4EEC1BF0A5D87DEC24F08DD8A1
:101E1800060E4EEC1BF08FD8EB51C7EC22F07DEC90
:101E280024F083D80D0E4EEC1BF08FD87DEC24F0F7
:101E38007CD8130E4EEC1BF001EC1FF06DEC1FF07C
:101E48007AD8EA51C7EC22F07DEC24F01D6E1D28EB
:101E58000D6E190E04EC1BF082D87DEC24F01D6E7B
:101E68001D280D6E1D0E04EC1BF069EF13F063D8EE
:101E7800EC51C7EC22F07DEC24F000090BE05BD8B4
:101E8800EC51C7EC22F07DEC24F04FD8010E4EEC5B
:101E98001BF005D0116A54D8010E4EEC1BF05AD82D
:101EA8007DEC24F042D8070E4EEC1BF03A0E07ECFE
:101EB8000DF00D0E4EEC1BF03ED8EB51C7EC22F0A6
:101EC8007DEC24F032D8130E4EEC1BF03ED87DEC9E
:101ED80024F02BD8190E4EEC1BF0010E0001C96F2F
:101EE800B36B95EC08F0C7EC22F07DEC24F0000110
:101EF800BB6F9FEC08F07DEC24F00001BA6F9AEC00
:101F080008F0C7EC22F07DEC24F00001B96FA3ECD7
:101F180008F07DEC24F00001B86F12007850010A37
:101F280001E15AD7030AA3E01200116E75C012F03E
:101F380076C013F012000A0E096E056E00010A0C35
:101F4800FA0E126EB70E136E12000A0E096E000119
:101F5800EB5112000A0E096E0001EC5112000A0E34
:101F6800096E0001EA51120042D00001C85110E088
:101F7800ABD829EC1CF0A4D886D8E1EC1BF029ECEE
:101F880012F0E1EC1BF0F0EC13F094EC25F039D0F2
:101F98009BD829EC1CF0060E056E290E74D8E1ECCE
:101FA8001BF0A1D88BEC25F099D8E4EC24F0E7D706
:101FB8008BD829EC1CF034EC12F029EC1CF0C6ECA0
:101FC8001FF061D8E1EC1BF0DED764D829EC12F0E1
:101FD800E1EC1BF07ED8A2EC24F013D05BD829ECFE
:101FE80012F0E1EC1BF075D8A2EC24F00AD077507F
:101FF800010ABBE0030AE9E0010AF0E0070AD8E0B9
:10200800010A74A63AD057D8FBEC09F0000EAEECE2
:102018001DF047D8FBEC09F0060EAEEC1DF046D8D3
:10202800FBEC09F00C0EAEEC1DF00001C85113E0FA
:10203800950EF66EBE0EF76EFBEC09F0120EAEECC6
:102048001DF0960EF66EBE0EF76EFBEC09F0180E3C
:10205800AEEC1DF012D0BC0EF66EBE0EF76EFBECA9
:1020680009F0120EAEEC1DF0BD0EF66EBE0EF76E48
:10207800FBEC09F0180EAEEC1DF0CA0E076E05EC6D
:1020880022F074861200066E086A076A0A6A140E3D
:10209800096E140C0001C851010ED8A4000EC86FB7
:1020A8001200830EF66EBE0EF76E1200840EF66EE8
:1020B800BE0EF76E1200820EF66EBE0EF76E12009E
:1020C800260E056E2B0E1200700E056E1F0E066E84
:1020D8001200050E776EC8C005F0020C0001C76F2C
:1020E800C7C007F00A0C066A030E056E030C146AD3
:1020F80009C005F00AC006F01AEC24F00550FD0FDF
:10210800126E136A7DD080D8030E85D8C00EDF64A6
:102118006FD07AD8040E7FD8DF500D6E1450092482
:102128000E6E000E0A200F6E030E0E24D96E000EDE
:102138000F20DA6EDF50106E0D50156E10C016F0BD
:10214800840E151805E1D00E161802E1DA0E0FD02C
:10215800860E151805E1D00E161802E1D40E07D028
:10216800870E151807E1D00E161804E1D80E155E73
:10217800CF0E08D0940E151807E1D10E161804E1F9
:10218800DA0E11D0165A28D0960E151805E1D10E80
:10219800161802E1E30E07D0970E151807E1D10EC5
:1021A800161804E1D80E155ED00EECD7C00E155CDB
:1021B800D00E165803E2300E15260DD0800E155C91
:1021C800D10E165809E3900E155CD10E165804E28C
:1021D800700E15262F0E1622960E1324D96EDA6A63
:1021E800020EDA2215C0DFFF020E1426120607D0EF
:1021F8000BD8030E10D8960E132413D8142A132ABA
:102208001350125C80E21200145009240B6E000E69
:102218000A200C6E12000B24D96E000E0C20DA6E08
:102228001200E16EE26A020EE222DFCFE7FF12003F
:102238003FD08DD829EC1CF07E0E056E160E47ECAB
:1022480010F0E1EC1BF029EC12F0E1EC1BF084D863
:1022580039D07DD829EC1CF034EC12F029EC1CF0B4
:10226800C6EC1FF047EC10F0E1EC1BF0F0EC13F0BB
:1022780094EC25F027D00001842B1F0E846502D032
:10228800010E846F29EC12F0E1EC1BF055D823EC19
:1022980022F018D000018407845102E11F0E846FD8
:1022A80029EC12F0E1EC1BF047D823EC22F00AD01D
:1022B8007750010ABEE0030ADEE0010AEBE0070AF4
:1022C800C8E0010A74A632D07E0EF66EBE0EF76E16
:1022D800FBEC09F0000EAEEC1DF07F0EF66EBE0EA4
:1022E800F76EFBEC09F0060EAEEC1DF0800EF66EF4
:1022F800BE0EF76EFBEC09F00C0EAEEC1DF09FEC79
:102308000FF08451C7EC22F07DEC24F0FFEC0DF0C7
:10231800120EAEEC1DF00A0E096E000184517DEC20
:1023280024F0FFEC0DF0180EAEEC1DF0CA0E076E8F
:1023380005EC22F074861200050E776E84C012F048
:1023480085C013F086C014F0000183511200380EC6
:10235800056E220E066E1200050E776E7486050C49
:102368002FD08FD829EC1CF0260E056E300E47ECC6
:1023780010F0E1EC1BF069D8E1EC1BF0F0EC13F085
:1023880094EC25F027D07DD829EC1CF0C6EC1FF082
:1023980047EC10F0E1EC1BF063D829EC1CF0EED709
:1023A80064D853D8E1EC1BF067D8A2EC24F012D023
:1023B8005CD84BD8E1EC1BF05FD8A2EC24F00AD033
:1023C8007750010ACEE0030AEBE0010AF1E0070AC0
:1023D800DAE0010A74A633D08E0EF66EBE0EF76EE2
:1023E800FBEC09F0000EAEEC1DF08F0EF66EBE0E83
:1023F800F76EFBEC09F0060EAEEC1DF0900EF66ED3
:10240800BE0EF76EFBEC09F00C0EAEEC1DF00001F1
:10241800C45108E02B0E116EDBEC0EF0120EAEEC80
:102428001DF007D02D0E116EDBEC0EF0120EAEEC87
:102438001DF0116ADBEC0EF0180EAEEC1DF0CA0EA2
:10244800076E05EC22F074861200E00E056E4B0E46
:10245800066E070E086ED00E076E0A6A096AD00C5F
:10246800E00E056E4B0E066E12000001C451010EFF
:10247800D8A4000EC46F1200050E776EC4C005F014
:10248800060C680E056E230E066E12001250D96EE9
:10249800DA6A2B0EDF6E81D0E7EC21F00009D8A4B0
:1024A8001200CC0E40EC22F0440E40EC22F0145006
:1024B800D96EDA6ADF6A1350D96EDA6A020EDF6EF5
:1024C800CD80020CE7EC21F0CC0E40EC22F0BE0EE1
:1024D80040EC22F0196A880E1924D96EDA6A010EC6
:1024E800DA225CEC22F0DF6E192A010E1964F3D7A8
:1024F80001018951156E88511A6E15C01BF01BAE6B
:1025080009D01A6C1B1ED8B01B2A1250D96EDA6A71
:102518002D0EDF6E1A500F0B186EE00E1824F66E93
:10252800F76AB70EF7220800F5CF18F01A3A1B3AE7
:102538000F0E1A161B50F00B1A120F0E1B161A50FC
:102548000A0DF3CF1AF0F4CF1BF018501A26000E1C
:102558001B221AC00CF01BC00DF029D8C8EC21F0C2
:102568000C50176E1AC005F01BC006F034EC0DF0C5
:1025780060EC21F005C01AF006C01BF0050E1764C8
:1025880002D01A4A1B2A1150D96EDA6A1AC0DFFF24
:102598001350D96EDA6ADF6A000C1350D96EDA6A02
:1025A800DF5001E179D7010A8DE0030A12000F6AB2
:1025B8000A0E0E6E0A0C3CD083D829EC1CF0700E63
:1025C800056E1F0E47EC10F0E1EC1BF029EC12F041
:1025D800E1EC1BF0F0EC13F094EC25F033D070D85C
:1025E80029EC1CF034EC12F029EC1CF0C6EC1FF0BE
:1025F80047EC10F0E1EC1BF0EDD7782A020E786476
:1026080002D0010E786E29EC12F0E1EC1BF053D8E1
:10261800A2EC24F017D07806785002E1020E786E0A
:1026280029EC12F0E1EC1BF046D8A2EC24F00AD019
:102638007750010AC1E0030AE0E0010AECE0070A6A
:10264800CEE0010A74A62BD0720EF66EBE0EF76E9F
:10265800FBEC09F0000EAEEC1DF0730EF66EBE0E2C
:10266800F76EFBEC09F0060EAEEC1DF0740EF66E7C
:10267800BE0EF76EFBEC09F00C0EAEEC1DF00A0E68
:10268800096E78507DEC24F0FFEC0DF0120EAEECE4
:102698001DF0116ADBEC0EF0180EAEEC1DF0CA0E40
:1026A800076E05EC22F07486780401E10ED0010E65
:1026B8000001C96F010C050E776E78C005F0010C9A
:1026C800BE0E056E250E066E12000001C96B1200C3
:1026D8003FD086D829EC1CF04E0E056E110E47EC43
:1026E80010F0E1EC1BF029EC12F0E1EC1BF074D8CF
:1026F80039D076D829EC1CF034EC12F029EC1CF017
:10270800C6EC1FF047EC10F0E1EC1BF065D894EC38
:1027180025F028D00001862B630E866501D0866BD4
:1027280029EC12F0E1EC1BF0A0EC11F023EC22F004
:1027380019D000018607862902E1630E866F29EC0D
:1027480012F0E1EC1BF0A0EC11F023EC22F00AD01F
:102758007750010ABEE0030ADDE0010AEAE0070A51
:10276800C8E0010A74A632D06A0EF66EBE0EF76E85
:10277800FBEC09F0000EAEEC1DF06B0EF66EBE0E13
:10278800F76EFBEC09F0060EAEEC1DF06C0EF66E63
:10279800BE0EF76EFBEC09F00C0EAEEC1DF09FECD4
:1027A8000FF08651C7EC22F07DEC24F0FFEC0DF021
:1027B800120EAEEC1DF00A0E096E000186517DEC7A
:1027C80024F0FFEC0DF0180EAEEC1DF0CA0E076EEB
:1027D80005EC22F074861200050E776E7496050CCF
:1027E800D80E056E260E066E120033D07ED829EC60
:1027F8001CF0680E056E230E47EC10F0E1EC1BF0A0
:1028080029EC12F0E1EC1BF0F0EC13F094EC25F05D
:102818002AD06BD829EC1CF0C6EC1FF047EC10F05E
:10282800E1EC1BF034EC12F029EC1CF0EDD756D893
:1028380029EC12F0E1EC1BF05DD8A2EC24F013D0E7
:102848004DD829EC12F0E1EC1BF054D8A2EC24F09E
:102858000AD07750010ACAE0030AE9E0010AF0E069
:10286800070AD7E0010A74A633D08A0EF66EBE0EA8
:10287800F76EFBEC09F0000EAEEC1DF08B0EF66E59
:10288800BE0EF76EFBEC09F0060EAEEC1DF08C0EDA
:10289800F66EBE0EF76EFBEC09F00C0EAEEC1DF0FA
:1028A8000001C55108E02B0E116EDBEC0EF0120E84
:1028B800AEEC1DF007D02D0E116EDBEC0EF0120EF3
:1028C800AEEC1DF0116ADBEC0EF0180EAEEC1DF04C
:1028D800CA0E076E05EC22F0748612000001C5517D
:1028E800010ED8A4000EC56F1200F20E056E270E59
:1028F800066E1200050E776EC5C005F0050C42D0B5
:1029080081D829EC1CF064EC10F047EC10F0E1ECF5
:102918001BF029EC12F0E1EC1BF0F0EC13F094EC56
:1029280025F03AD06FD829EC1CF034EC12F029ECE1
:102938001CF0C6EC1FF047EC10F0E1EC1BF0EDD7F3
:102948000001C72B080EC76501D0C76B29EC12F030
:10295800E1EC1BF04FD8A2EC24F051D8E4EC24F0C1
:102968001BD00001C707C72902E1080EC76F29EC71
:1029780012F0E1EC1BF03ED8A2EC24F040D8E4ECD5
:1029880024F00AD07750010ABBE0030AD9E0010A13
:10299800E8E0070AC7E0010A74A626D05FEC10F049
:1029A800FBEC09F0000EAEEC1DF055EC10F0FBEC62
:1029B80009F0060EAEEC1DF05AEC10F0FBEC09F035
:1029C8000C0EAEEC1DF00A0E096E0001C7517DEC2D
:1029D80024F0FFEC0DF0120EAEEC1DF0116ADBECEA
:1029E8000EF0180EAEEC1DF0CA0E076E05EC22F0C4
:1029F80074861200050E776EC7C005F0030CC7C0B9
:102A080007F00A0C060E056E290E066E120042D05B
:102A180081D829EC1CF0BE0E056E250E47EC10F08F
:102A2800E1EC1BF029EC12F0E1EC1BF0F0EC13F0F8
:102A380094EC25F039D06ED829EC1CF034EC12F067
:102A480029EC1CF0C6EC1FF047EC10F0E1EC1BF091
:102A5800EDD77A2A050E7A6402D0010E7A6E29EC37
:102A680012F0E1EC1BF0050E776E51D8A2EC24F0C1
:102A780014EC21F019D07A067A5002E1050E7A6E2C
:102A880029EC12F0E1EC1BF0050E776E40D8A2ECB1
:102A980024F0EED77750010ABBE0030ADAE0010A16
:102AA800EAE0070AC8E0010A74A62BD0760EF66E93
:102AB800BE0EF76EFBEC09F0000EAEEC1DF0770EC3
:102AC800F66EBE0EF76EFBEC09F0060EAEEC1DF0CE
:102AD800780EF66EBE0EF76EFBEC09F00C0EAEEC3F
:102AE8001DF00A0E096E7A507DEC24F0FFEC0DF013
:102AF800120EAEEC1DF0116ADBEC0EF0180EAEEC07
:102B08001DF0CA0E076E05EC22F0748612007AC01A
:102B180005F0000C160E056E2A0E066E12003DD04A
:102B28007FD829EC1CF0F20E056E270E47EC10F04A
:102B3800E1EC1BF029EC12F0E1EC1BF0F0EC13F0E7
:102B480094EC25F034D06CD829EC1CF0C6EC1FF0BE
:102B580047EC10F0E1EC1BF034EC12F029EC1CF01F
:102B6800EDD70001C62B010EC66501D0C66B29EC56
:102B780012F0E1EC1BF04FD8A2EC24F018D00001C1
:102B8800C607C62902E1010EC66F29EC12F0E1EC76
:102B98001BF041D8A2EC24F00AD07750010AC0E01B
:102BA800030ADFE0010AEBE0070ACDE0010A74A698
:102BB8002CD0660EF66EBE0EF76EFBEC09F0000E1A
:102BC800AEEC1DF0670EF66EBE0EF76EFBEC09F06C
:102BD800060EAEEC1DF0680EF66EBE0EF76EFBEC40
:102BE80009F00C0EAEEC1DF00A0E096E0001C6517C
:102BF8007DEC24F0FFEC0DF0120EAEEC1DF0116A26
:102C0800DBEC0EF0180EAEEC1DF0CA0E076E05ECEC
:102C180022F074861200050E776EC6C005F0040C0B
:102C2800260E056E2B0E066E12000001C25118E02A
:102C3800C26B0101ED6B11D0ED515CD8DE50DE1096
:102C480006E1ED5167D8010EDE6EDD6A05D0ED5163
:102C580051D8DE06000EDD5AED2B7950ED5DECE320
:102C68000101EE6B43D0EE5155D8DE04DE103CE195
:102C7800EE5148D8DECFEBF1DDCFECF1EE5152D872
:102C8800DE50DE1009E1EE513DD8DECF05F0DDCF94
:102C980006F029EC1CF01BD0EE513CD8DE6ADD6A48
:102CA800EE5128D8DE50DE1012E170687168EE51DE
:102CB80039D8DECF72F0DDCF73F0705072267150C4
:102CC8007322EE5117D872C0DEFF73C0DDFF01D842
:102CD8000BD005000101FA6EEB51FD6EEC51FE6E52
:102CE800F850FF6EFA5012000101EE2B7950EE5D9C
:102CF800BAE31200080D020EF324D96E010EF42077
:102D0800DA6E1200080D000EF324D96E010EF420BD
:102D1800DA6E1200080D060EF324D96E010EF420A7
:102D2800DA6E1200080D040EF324D96E010EF42099
:102D3800DA6E1200A9EC21F043EC25F0F9EC22F050
:102D480001EC25F0EDEC25F079EC25F006EC24F00B
:102D5800ADEC25F0DCEC23F05CEC19F0066A056AB2
:102D68008BEC25F07A6E066A010E056E8BEC25F069
:102D7800786E780403E10001C96B01D054D8066A63
:102D8800020E056E8BEC25F00001C86F77EC10F091
:102D98008BEC25F072EC10F0E4EC24F014EC21F04C
:102DA800EAEC25F0A5EC25F03CEC0BF068EC1AF009
:102DB800940E056E070E066E086A280E076E2AD84E
:102DC800E1EC1BF0A80E056E3D0E28D823D8E1ECE7
:102DD8001BF0066A040E056E8BEC25F00001C66F29
:102DE800066A050E056E8BEC25F00001C56F066AB4
:102DF800060E056E8BEC25F00001C46F066A070EFF
:102E0800056E8BEC25F00001C36F066A030E056E94
:102E18009DEF25F00A6A140E096E140C066E086AF6
:102E2800640E076E640C010E0001C96F010C64D0BA
:102E38006AD81CE0F1C005F0F2C006F0F3C007F054
:102E4800F4C008F0640E096E0A6A0B6A0C6A27EC73
:102E58001EF005C01FF006C020F01FC01CF020C0E7
:102E68001DF0B6EC1AF03CEC1FF019D094EC25F0EC
:102E7800040EFDEC17F071EC1DF0450E07EC0DF09B
:102E88000B0E4EEC1BF0520E07EC0DF0110E4EEC33
:102E98001BF0520E07EC0DF0170E4EEC1BF002EC77
:102EA80018F0010E086E900E076E0A6A096AE1EFC3
:102EB8001BF0050E776E27D80BE02BD84C0E076E4B
:102EC800BE0E086E98EC1BF029D8ADEC22F002D0AB
:102ED800CAEC1FF0EDEC0EF034EC12F029EC1CF00B
:102EE800360E056E2E0E066E29EC1CF0C6EC1FF091
:102EF80047EC10F0E1EF1BF07750040ADAE0010A22
:102F080097E0030A12000001F151F211F311F411D4
:102F18001200910E056E010E066E1200910E0B6ED8
:102F2800010E0C6E12005ED094EC25F09FEC0FF0B1
:102F3800FA51C7EC22F07DEC24F0000913E1010EF0
:102F480058D871EC1DF061D87DEC24F099EC0FF0A5
:102F58000D0E4EEC1BF0B00E07EC0DF0130E4EEC00
:102F68001BF01ED0010E45D871EC1DF09FEC0FF040
:102F7800FA51C7EC22F07DEC24F099EC0FF00D0E1D
:102F88004EEC1BF042D87DEC24F099EC0FF0130EB8
:102F98004EEC1BF0B00E07EC0DF0190E4EEC1BF0CA
:102FA8002DD828EC0DF0E1EF1BF0050E776ECAEC7A
:102FB8001FF034EC12F029EC1CF02CD829EC1CF092
:102FC8000001C45107E08E0E056E180E47EC10F094
:102FD800E1EF1BF0C6EC1FF047EC10F0E1EC1BF042
:102FE800EDEF0EF07750040AE0E0010A9DE0030AD5
:102FF80012000C6ECA0E0D6E0E6A030C060E776E6A
:10300800E00E056E4B0E066E12000A0E096E0001E8
:10301800FA5112002E0E056E2F0E066E120027D0E2
:10302800260E056E300E066E29EC1CF0C6EC1FF05D
:1030380047EC10F0E1EC1BF034EC12F029EC1CF03A
:10304800F0EC13F094EC25F01CD056D829EC12F0D3
:10305800E1EC1BF058D8A2EC24F013D04DD829ECA1
:1030680012F0E1EC1BF04FD8A2EC24F00AD0775014
:10307800010AD6E0030AE9E0010AF0E0070AD0E015
:10308800010A74A633D0860EF66EBE0EF76EFBEC00
:1030980009F0000EAEEC1DF0870EF66EBE0EF76E50
:1030A800FBEC09F0060EAEEC1DF0880EF66EBE0EB7
:1030B800F76EFBEC09F00C0EAEEC1DF00001C351ED
:1030C80008E02B0E116EDBEC0EF0120EAEEC1DF0CC
:1030D80007D02D0E116EDBEC0EF0120EAEEC1DF0CB
:1030E800116ADBEC0EF0180EAEEC1DF0CA0E076E7E
:1030F80005EC22F0748612000001C351010ED8A419
:10310800000EC36F1200050E776EC3C005F0070CE2
:103118001C6E216A226A236A246A256A61D8E2EC55
:1031280025F0EC0ED4EC25F01C50D4EC25F0E6ECA0
:1031380025F0ED0ED4EC25F0010EB4EC24F01D6E54
:103148001E6A1F6A206A010EB4EC24F0216E226AFE
:10315800236A246A000EB4EC24F0256E41D8DEEC14
:1031680025F021C00DF022C00EF023C00FF00C6A2C
:103178001DC010F01EC011F01FC012F020C013F0C7
:1031880011C013F010C012F0116A106A0C5010240C
:10319800146E0D501120156E0E501220166E0F5021
:1031A8001320176E25501424186E26501520196EFA
:1031B800275016201A6E285017201B6E050E05D0B2
:1031C800D8901B321A3219321832E82EF9D718C0A3
:1031D80008F019C009F01AC00AF01BC00BF0120061
:1031E800266A276A286A120018C01CF01D6A1E6A1F
:1031F80017341C3601E31D801C501F6E1F5001E15F
:1032080053D01BC01CF01D6A1E6A1A341C3601E319
:103218001D801C50246E245001E146D024507B0FA1
:103228001F2618C024F01B50241A800E2416178E4F
:103238001A8E000E1B16206A216A226A070E236E58
:1032480016B02BD8D890183217321632D8901936B3
:103258001A361B36232EF4D7090E236E16B01DD846
:10326800D890183217321632D890223221322032B2
:10327800232EF4D720C005F021C006F022C007F0A5
:103288001FC008F024C009F06EEC1CF005C016F051
:1032980006C017F007C018F01200195020261A505F
:1032A80021221B5022221200166A176A186A12007D
:1032B800880EA2EC20F008C09BF009C09CF08A0E92
:1032C800A2EC20F008C099F009C09AF08C0EA2EC8C
:1032D80020F008C097F009C098F08E0EA2EC20F0FC
:1032E80008C0F5F009C0F6F0900EA2EC20F008C076
:1032F80095F009C096F0920EA2EC20F008C093F069
:1033080009C094F0940EA2EC20F008C091F009C016
:1033180092F0960EA2EC20F008C08FF009C090F051
:10332800980EA2EC20F008C08DF009C08EF09A0E1D
:10333800A2EC20F008C08BF009C08CF09C0EA2EC27
:1033480020F008C089F009C08AF09E0EA2EC20F097
:1033580008C087F009C088F0CC0E076EF50EF3ECB4
:1033680024F0B70E076EF40EF3EF24F027C029F00F
:103378002A6A2B6A2634293601E32A802950336EBB
:10338800335005E1256A266A276A286A1200170E53
:10339800296E25C02AF026C02BF027C02CF029283A
:1033A8002D6E04D0D8902C322B322A322D2EFAD7FB
:1033B8002A502E6E268E276A25502F6E2650306E84
:1033C8002750316E326A8E0E335E33AE0CD03350D6
:1033D800800A8F0FD7E3D8903232313230322F3211
:1033E800333EF9D70CD0170E336407D0CBD7D8901B
:1033F8002F3630363136323633063350F8E12E5018
:1034080008E0321E311E301E2F6C000E3022312291
:1034180032222FC025F030C026F031C027F032C04C
:1034280028F01200EE0EF66E4B0EF76E000EF86ED8
:1034380001EEE7F010EE04F00900F5CFEEFFE550DD
:10344800E150FAE1EA0EF66E4B0EF76E000EF86EDA
:1034580000EEFBF010EE04F00900F5CFEEFFE550AA
:10346800E150FAE1E60EF66E4B0EF76E000EF86EBE
:1034780000EE75F010EE04F00900F5CFEEFFE55010
:10348800E150FAE103EE00F0960EEE6AE806FDE17F
:1034980002EE00F0FA0EEE6AE806FDE101EE00F039
:1034A800E70EEE6AE806FDE100EE80F07B0EEE6ABC
:1034B800E806FDE1746A7A6A796A7B907B92000E6D
:1034C800F86E00019CEF1FF00F6E8B848B920EC07C
:1034D800A5F02F0E0C6EBE0E0D6ED5EC24F02A0E44
:1034E8000C6EBE0E0D6E82EC25F00FC007F0050EB7
:1034F8004EEC25F0076A110E4EEC25F00EC007F0D1
:10350800120E4EEC25F0076A130E4EEC25F0076AF2
:10351800140E4EEC25F0076A150E4EEC25F0076ADE
:10352800160E4EEC25F0260E076E060E4EEC25F014
:10353800080E076E000E4EEC25F0030E076E010E06
:103548004EEC25F0030E076E020E4EEC25F04F0EE2
:10355800076E040E4EEC25F0076A1C0E4EEC25F0A3
:1035680093EF22F01E6AC30E1E2468EC1FF0DF6A78
:103578001E2A200E1E64F7D7040E0C6EC30E0D6EA5
:10358800010E0E6E030E71EC1DF0086A640E32D83F
:1035980060EC21F004EC07F0C8EC21F00C50116E3F
:1035A80020D80B0EAEEC1DF0086A0A0E23D860EC8A
:1035B80021F004EC07F0C8EC21F00C50116E11D882
:1035C800110EAEEC1DF01CC00CF01DC00DF0DBECB4
:1035D80012F0C8EC21F00C50116E03D8170EAEEFA4
:1035E8001DF075C012F076C013F0C30E146E010EF4
:1035F800156E1200076E1CC005F01DC006F0120003
:10360800136E156A166A1350CA0F1624D96EDA6A31
:10361800155007080E6E0D50030DF40E0F6EBD0EFB
:10362800106EF3500F26F450102216500F26000E7D
:1036380010220FC0F6FF10C0F7FF0800F5CF11F0F9
:103648000E2A02D0D89011320E2EFCD71350CA0F72
:103658001624E16EE26AE750126ED8901234111007
:10366800DF6E162A020E1664CED7146A0D0E0E6E81
:10367800FC0EE82EFED70E2EFCD7142A270E146453
:10368800F5D7CA0E076E05EC22F0152A070E156449
:10369800B9D7070C196E1B6A1C6A1950CA0F1C246B
:1036A800D96EDA6A1B500708146E1150050D12C046
:1036B80015F013C016F0F3501526F45016221C50BE
:1036C8001526000E162215C0F6FF16C0F7FF0800D3
:1036D800F5CF17F0142A02D0D8901732142EFCD741
:1036E8001950CA0F1C24E16EE26AE750186ED89090
:1036F80018341710DF6E1C2A040E1C64CED71A6A01
:103708000D0E146EFC0EE82EFED7142EFCD71A2AC6
:10371800270E1A64F5D7CA0E076E05EC22F01B2A8D
:10372800070E1B64B9D7070C090E0F6E2CD0250E97
:10373800101825E038D810C0DFFF054A062A23D024
:103748000F50D96EDA6ADECF11F0DDCF12F0020E1B
:103758000F26115012100EE15F0E116EBE0E126E82
:1037680009D026D820D80800F5CFDFFF114A122A41
:10377800054A062A1DD80800F55005E0F2D708D8F2
:1037880004E0730ADDE004D8D2E10DD8DF6A000C4A
:1037980007C0F6FF08C0F7FF074A082A0800F5CF58
:1037A80010F01050120005C0D9FF06C0DAFF120051
:1037B80011C0F6FF12C0F7FF12000550061001E114
:1037C80012000D6A1AD00D5086EC16F00550DE185E
:1037D80013E10650DE1810E1F29E0D507EEC16F053
:1037E8002FD80D5096EC16F026D80D508EEC16F00A
:1037F800DE6ADD6AF28E000C0D2A79500D5CE3E377
:103808000F0E79600F0CF29E795086EC16F005C009
:10381800DEFF06C0DDFF79507EEC16F011D8795036
:1038280096EC16F008D879508EEC16F0DE6ADD6A50
:10383800792AF28E000C09C0DEFF0AC0DDFF1200F3
:1038480007C0DEFF08C0DDFF12000D6A3FD00D5033
:1038580086EC16F00550DE1838E10650DE1835E122
:10386800F29E0D50076E086A09680A6879500B6E57
:103878000C6A09500B260A500C2207500B1803E15A
:1038880008500C181FE07950076E086AD890073660
:103898000836D89007360836D89007360836F80E16
:1038A8000724D96E000E0820DA6E0D50080D000EA0
:1038B800F324E16E010EF420E26E070EDBCFE3FF86
:1038C800E806FCE27906F28E12000D2A79500D5CAA
:1038D800BEE31200085004E005500610071006E188
:1038E800056A066A076A1200082A2DD80A6A0B6A4E
:1038F800FE0E07142DD807E0F7D7082A052A000E70
:103908000622072220D80A6A0B6A075021D806E047
:10391800F4D70806D89005360636073606BE03D013
:10392800020E0860F6D708A0069ED8900832085004
:103938000712095001E0078E05C005F006C006F021
:1039480007C007F01200D89007320632053212007D
:103958000C6E0A500B100C1012000D50D96EDA6A5A
:10396800060EC6EC23F0DF6E0D50D96EDA6A0D50E4
:1039780022D864EC25F02DD8050EC6EC23F01F0BD9
:1039880028D80C5018D864EC25F019D8040EC6ECC9
:1039980023F03F0B14D80B500ED864EC25F014D844
:1039A800030EC6EC23F0070B0FD80A5004D864ECBA
:1039B80025F0DF6E1200E16EE26AE7501200DF6E5A
:1039C8000B50D96EDA6A1200DF6E0A50D96EDA6AC5
:1039D8001200DF6E0C50D96EDA6A12000600D9CFD9
:1039E80003F0DACF04F0F2BAF2A403D0C5EC25F064
:1039F80030D0F2B8F2A211D0F292010EF1AC000E62
:103A0800FF0A026E023A02460246F1500218BF0B44
:103A18000218F16E9CEC1EF01CD09DB09EA008D040
:103A28009E903C0ECF6EB00ECE6E6FEC25F011D08E
:103A3800A0B2A1A208D0A192F00EB36E600EB26E31
:103A480033EC1DF006D0F2BC9DAA03D09EBA11EC4F
:103A580023F004C0DAFF03C0D9FF7B9211000001F4
:103A6800AE510AE0A82B1E0EA86103D0800E8C1A56
:103A780003D0A86BAE6B8C9EC651D8B41200B5515A
:103A8800D8B41200FE6BA6510BE1A72B140EA76148
:103A980003D0800E8C1A04D0A76B010EA66F8C9EE3
:103AA800A60502E19D4B9E2B2D0E9D5D010E9E5994
:103AB80004E39D6B9E6B020EA66F020EA619D8A496
:103AC8001200A72B140EA76103D0800E8C1A800C4D
:103AD800A76BA66BB56B8C9E1200126E010E116E51
:103AE800146A136A0C50070DAD0E0F6EB70E106EE8
:103AF800F3500F26F450102214500F26000E1022F7
:103B08000FC0F6FF10C0F7FF0800F55011140BE0C6
:103B180013C005F00DC006F00EC007F012501424B3
:103B280056EC24F00AD013C005F00DC006F00EC004
:103B380007F012501424B0EC23F0D8901136132A51
:103B4800070E1364CFD7010E116E142A060E1464E3
:103B5800C8D7060C196E010E186E1B6A1A6A115026
:103B6800050D12C016F013C017F0F3501626F450C6
:103B780017221B501626000E172216C0F6FF17C074
:103B8800F7FF0800F55018140BE01AC005F014C030
:103B980006F015C007F019501B2456EC24F00AD083
:103BA8001AC005F014C006F015C007F019501B2400
:103BB800B0EC23F0D89018361A2A070E1A64CFD71B
:103BC800010E186E1B2A040E1B64C8D7040C096A60
:103BD8000950CB0FD96EDA6A095062EC1FF0092A36
:103BE8001E0E0964F5D7040E0001BC650DD023D85C
:103BF80007E1BC2B1F0EBC65010CBD6BBC6B000C38
:103C0800E96BBC6BBD2B010C16D8050DFA0E076EBF
:103C1800B70E086EF3500726F4500822BC51072649
:103C2800000E082207C0F6FF08C0F7FF0800F5CF0E
:103C3800E9F0BC2B010CBD510524D96E000E0620FD
:103C4800DA6EDF5012000D6A0E6A0F6A106A0950A8
:103C58000A100B100C1029E0010E116E06D0D89036
:103C680009360A360B360C36112A0CAEF8D7D8901E
:103C78000D360E360F3610360950055C0A500658B8
:103C88000B5007580C50085809E30950055E0A50B4
:103C9800065A0B50075A0C50085A0D80D8900C320F
:103CA8000B320A320932112EE2D70DC005F00EC0D0
:103CB80006F00FC007F010C008F012000F6A116A72
:103CC800106AD00E0B6EB70E0C6E0F500B26000E3E
:103CD8000C2211500B26000E0C220BC0F6FF0CC054
:103CE800F7FF0800F5CF0DF01050CA0FD96EDA6A49
:103CF8000D50DF160F2A070E0F6401D00F6A102A25
:103D08001F0E1064DED7CA0E076E05EC22F00E6A8D
:103D18000D0E0B6EFC0EE82EFED70B2EFCD70E2ACE
:103D2800630E0E64F5D7112A070E1164C9D7070C64
:103D38000001C951D8B41200B32B080EB3191BE106
:103D4800B36B19D0360ED96FDA6F360C240E24D027
:103D5800240ED96FDA6F240C240ED96FDA6B120097
:103D6800D96BDA6B1200120EF8D7120ED96FDA6F10
:103D7800120C120E11D0B351E5E0010AE7E0030A74
:103D8800E7E0010AE9E0070AEBE0010AECE0030AD0
:103D9800ECE0010AEEE01200D96F360EDA6F360C4D
:103DA800EAC0B2F0EBC0B1F028D86DEC1FF0ED0E10
:103DB8000A6EEE0E0B6EEF0E0C6EF00E0D6EB1EC81
:103DC8001CF00001B251EA1901E07482030EEA19ED
:103DD80002E1010EFE6F060EEC65060C180EEC6192
:103DE800180CEB51D8A41200EA51D8A41200FE51C5
:103DF800D8B41200010EB56F010CEC0E0A6EEB0E72
:103E08000B6EEA0E0C6E1200186A14AE06D0136C14
:103E1800141ED8B0142A010E186E16AE04D0156CF4
:103E2800161ED8B0162A1550161017E0010E176E78
:103E380004D0D89015361636172A16AEFAD715506C
:103E4800135C1650145804E31550135E1650145A98
:103E5800D89016321532172EF2D7185004E0136C8A
:103E6800141ED8B0142A13C013F014C014F0120092
:103E7800100E0E6E0F0E0F6E0C6AC30E0E2424D891
:103E88000E501CD80E2AC30E0F241ED80F5016D859
:103E98000F06CA0E076E05EC22F00D6A0D0E0B6EAA
:103EA800FC0EE82EFED70B2EFCD70D2A1D0E0D6436
:103EB800F5D70C2A0F0E0C64E0D70F0CCA0FE16E71
:103EC800E26ADFCFE7FF1200D96EDA6A010EDA2262
:103ED80012000C5097EC23F0C6EC23F0DF6E0C5068
:103EE800D96EDA6A0C50DFEC1CF064EC25F016D8B9
:103EF800010EC6EC23F012D80B50DFEC1CF064EC7A
:103F080025F011D8020EC6EC23F03F0B0CD80A504E
:103F1800DFEC1CF064EC25F0DF6E1200DF6E0B5056
:103F2800D96EDA6A1200DF6E0A50D96EDA6A1200A8
:103F3800820E0001FF6FDD0EE82EFED7FF2FFCD7A3
:103F480000D09EEC16F094EC25F00001C96BE1EC72
:103F580022F0010EC96FF29E15D812EC17F00EEC84
:103F680017F0E1EC1BF0900E056E410E066E086A24
:103F7800076A0A6A010E096EE1EC1BF0F28E19EC71
:103F880016F0FDD72A0E056E140E12000ED07AEC2C
:103F980020F011C013F012C014F0166A050E156E49
:103FA80008EC1FF013500001B76F0001B751B619A4
:103FB800EEE0B7C0B6F0B751020DF00EF324F66E7E
:103FC800B70EF420F76E0900F5CFA3F00A00F5CF7D
:103FD800A4F00500FA6EA351FD6EA451FE6EF850D0
:103FE800FF6EFA5012000E6A26D8DF501FE00C6AE6
:103FF80022D80E50CA0FE16EE26AE7500B6ED890D5
:104008000B34DF6ECA0E076E05EC22F00D6A0D0E3A
:104018000B6EFC0EE82EFED70B2EFCD70D2A090ED0
:104028000D64F5D70C2A070E0C64E2D70E2A1F0E72
:104038000E64DAD71F0C0E50CA0FD96EDA6A120056
:10404800640E0E6E0D6A0F6A0F50CB0FD96EDA6AC6
:104058000F5062EC1FF00F2A1F0E0F64F5D70001F6
:10406800E96BCA0E076E05EC22F00C6A08D00D0E3B
:104078000B6EFC0EE82EFED70B2EFCD70C2A0E502A
:104088000C5CF5E30A0E0E6401D00E5E0D2A1F0EBD
:104098000D64D9D71F0C640E0E6E0D6A1F0E0F6EBD
:1040A8000F50C90FD96EDA6A0F5062EC1FF00F0675
:1040B8000F50F6E10001CA6BCA0E076E05EC22F03C
:1040C8000C6A08D00D0E0B6EFC0EE82EFED70B2ED8
:1040D800FCD70C2A0E500C5CF5E30A0E0E6401D0D6
:1040E8000E5E0D2A1F0E0D64D9D71F0CE7C105F00F
:1040F800E8C106F0E9C107F0EAC108F06D0E096EE3
:104108004E0E0A6EC60E0B6E410E0C6E3AEC21F086
:1041180005C0E7F106C0E8F107C0E9F108C0EAF117
:10412800390E0101E727300EE823000EE923EA23C0
:10413800E951116E7F0EEA15126E12000C6E0F6AAD
:10414800106AE2EC25F0EC0ED4EC25F00C50D4EC1F
:1041580025F0E6EC25F0ED0ED4EC25F0010EB4ECDC
:1041680024F00F6E106A000EB4EC24F00D6E0E6A87
:10417800DEEC25F00D500B6E0A6A0F500A10086E1F
:1041880010500B10096E120081B202D0010E0BD034
:1041980081B402D0020E07D081B602D0030E03D03C
:1041A80081B803D0040E056E01D0056A05500FE0F2
:1041B800290E0001AD61290CAD2B280EAD19D8A42C
:1041C800120005C077F0AD6B010EAE6F010C000157
:1041D800AD6B12008E0E156E06D0D89010320F32CD
:1041E8000E320D32152A116A126A136A1050146EB3
:1041F8001150121013101410F0E10DC005F00EC08C
:1042080006F00FC007F015C008F0000E096E6EEC3E
:104218001CF005C00DF006C00EF007C00FF012002C
:1042280019D0C20E756EBD0E766E1200900E756EA8
:10423800BD0E766E12005E0E756EBD0E766E1200A5
:104248002C0E756EBD0E766E1200FA0E756EBC0ED3
:10425800766E12007A50010AE4E0030AE7E0010AE8
:10426800EAE0070AEDE0010AF0E012000D6A0E6AC2
:104278000F6A106A05A008D009500D260A500E22B0
:104288000B500F220C501022D89009360A360B36E4
:104298000C36D8900832073206320532055006101F
:1042A80007100810E7E10DC005F00EC006F00FC0BA
:1042B80007F010C008F012000A6A0B6A07500810CD
:1042C8001BE0010E096E04D0D89007360836092A7B
:1042D80008AEFAD7D8900A360B360750055C085056
:1042E800065805E30750055E0850065A0A80D8901C
:1042F80008320732092EEED70AC005F00BC006F0C7
:1043080012000C6A1F0E0D6E0E6A0C5019D80C2A7A
:104318000D5016D80D06CA0E076E05EC22F00F6A6E
:104328000D0E0B6EFC0EE82EFED70B2EFCD70F2AB7
:104338001D0E0F64F5D70E2A0F0E0E64E6D70F0C6C
:10434800CA0FD96EDA6ADF6A12008B6A180E946E89
:104358008A6A1F0E936EF19E8C6A956A896A010EAD
:10436800926EC30EC216C150F00B0E09C16ECF0E6D
:10437800C116C050F80B0209C06EC08EC280F18C05
:10438800F292F288828012000E500F1017E0010E90
:10439800106E04D0D8900E360F36102A0FAEFAD70A
:1043A8000E500C5C0F500D5804E30E500C5E0F506D
:1043B8000D5AD8900F320E32102EF2D70CC00CF0D6
:1043C8000DC00DF0120082909490070E056E7D0EC0
:1043D800E82EFED7052EFCD700F082809480C80E08
:1043E80000D0E82EFDD7000E82B0010E066E060E34
:1043F800056E800EE82EFED7052EFCD700D006509D
:1044080012000A6A8C90096A0950F80D0750F324C3
:104418000A24D96EDA6A180ED926DF50086E0A28DF
:1044280057EC23F0085057EC23F0092A030E0964CF
:10443800EBD78C800A2A070E0A64E4D7070C156E9E
:1044480015506AEC24F0106E030E0FEC25F0125094
:104458006AEC24F0106E040E0FEC25F013506AEC91
:1044680024F0106E050E0FEC25F014506AEC24F0C1
:10447800106E060E0FEF25F0086E0A6A0AC006F0E5
:1044880008C007F0062A02D0D8900732062EFCD7BB
:104498000750096E010E0916095090EC24F00A2AFB
:1044A800070E0A64EBD7D20E00D0E82EFDD7120013
:1044B800076A086A1DEC25F000090CE008C005F041
:1044C800010E066E052A02D0D8900636052EFCD7B6
:1044D80006500712F00E00D0E82EFDD7082A070E66
:1044E8000864E8D707501200056E0001AB51FDE0E3
:1044F8009DB805D09EA8FED705C0ADFF12009D98B7
:10450800780EAC25D96EDA6A010EDA2205C0DFFF13
:10451800AC2B0F0EAC6501D0AC6BAB0712008B94C3
:10452800E20EF1EC23F08B84700E076E070E4EEC52
:1045380025F08B920B0E076E000E4EEC25F08B8249
:10454800C00E00D000D0E82EFCD700D000D000D09C
:10455800120010D0CA0E076E05EC22F00E6A0D0E7E
:104568000D6EFC0EE82EFED70D2EFCD70E2A3B0E44
:104578000E64F5D70BC005F00CC006F0EBEC1DF08F
:104588000009E8E11200066E086A055014E0010E01
:10459800076E03D0D8900536072A05AEFBD7D8900A
:1045A80008360550065C03E30550065E0880D8907F
:1045B8000532072EF4D7085012008DEC17F0560E6E
:1045C800076EBE0E086E340E096EBE0E0A6E150E0C
:1045D8000B6EBE0E0C6E210E0D6EBE0E0E6E98EC9E
:1045E8001BF092EC17F0ADEF22F08C80010E076EF5
:1045F8000C0EE4EC24F0076A090EE4EC24F0070E34
:10460800076E0B0EE4EC24F0020E076E0A0EE4ECC3
:1046180024F0076A0F0EE4EF24F0ABA202D0AB98A7
:10462800AB88000E0001AA257FEC23F0AECFDFFF98
:10463800AA2B950EAA6501D0AA6BB42BB405016EFE
:10464800950E0164950CB46B1200146E13506AEC4D
:1046580024F0106E000E0FEC25F012506AEC24F0D6
:10466800106E010E0FEC25F014506AEC24F03F0B8D
:10467800106E020E0FEF25F00A6E8B940A50F1ECC3
:1046880023F00B6A0BD007C0F6FF08C0F7FF08003D
:10469800F550F1EC23F0074A082A0B2A09500B5C65
:1046A800F2E38B841200056E066A05AE02D08C8494
:1046B80001D08C948C8200F000F000F000F000F043
:1046C80000F000F08C92D8900536062A070E066492
:1046D800ECD7070CB451FEE0000EA9250CD8DF502A
:1046E800056EA92B950EA96501D0A96B9D9AB407F3
:1046F8009D8A05501200D96EDA6A030EDA2212007A
:10470800096E8B940950F1EC23F00A6A07D0075020
:104718000A2409D8F1EC23F0DF6E0A2A08500A5C53
:10472800F6E38B841200D96EDA6A000C0001FC51A2
:1047380003E1460EFB5D05E3030E076E0A0EE4EF88
:1047480024F0FC5108E1330EFB5DD8B01200076A73
:104758000A0EE4EC24F012000B6E05C008F0010EFE
:10476800096E082A02D0D8900936082EFCD7091CF1
:104778000A6E0B500624D96E000E0720DA6E0A5016
:10478800DF161200086EE2EC25F0D00ED4EC25F00E
:104798000850D4EC25F0E6EC25F0D10ED4EC25F049
:1047A800000EB4EC24F0096EDEEC25F0095012007E
:1047B800948C948EAC84AC98AC8AAB88AB8EB8865B
:1047C800040EB06E100EAF6E0001AC6B100EAB6F26
:1047D800AA6BA96BB46B9D8A1200056E066A05AEBA
:1047E80002D08C8801D08C98D89005368C8A010E1E
:1047F80083A6000E05128C9A062A070E0664EFD7C8
:1048080005501200E7EC21F00009D8A41200CC0EE4
:1048180040EC22F04E0E40EC22F0000E40EC22F06C
:10482800000E40EC22F07F0E40EF22F005C007F0AA
:1048380006C008F002D0074A082A07C0D9FF08C0F6
:10484800DAFFDF50F8E10550075C056E065008589E
:10485800066E1200FA0E8CEC18F008C02DF009C094
:104868002EF00AC02FF00BC030F02DC029F02EC05A
:104878002AF02FC02BF030C02CF01200F70E8CEC71
:1048880018F008C02DF009C02EF00AC02FF00BC098
:1048980030F02DC029F02EC02AF02FC02BF030C0E8
:1048A8002CF012000A6E05C008F0010E096E082AE5
:1048B80002D0D8900936082EFCD70A500624D96EA3
:1048C800000E0720DA6E0950DF1212000F6E0A0E72
:1048D800096E0F507DEC24F00D6E0F0E0D160A0EAA
:1048E800056E0F50C7EC22F00E6E0E38F00B0D104F
:1048F80012000A6E080E0B6E0C6AD8900A340C343B
:104908000C6ED8900A3609500C5C02E309500C5E14
:104918000B2EF3D70C501200056E8290949005046C
:1049280006E1060EE82EFED700D082809480D20ED3
:1049380000D0E82EFDD7828094801200066EA6B2C1
:10494800FED706C0A9FF05C0A8FFA69EA69CA68400
:10495800F29E550EA76EAA0EA76EA682F28EAA0C1C
:10496800066EBDEC25F0C586BDEC25F0C9CF07F075
:10497800BDEC25F0065002E1C58A01D0C59AC5886C
:1049880007501200C282C2B2FED7C450066E056A32
:10499800C3500524FB6F000E0620FC6F00F000F0EA
:1049A800120007D82A0E40EC23F003D8300E40EF4F
:1049B80023F00CC007F00DC008F0050E096E050CB9
:1049C800086E8C90096A085057EC23F0075057EC92
:1049D80023F0092A030E0964F6D78C80030C086EAD
:1049E800E2EC25F0EC0ED4EC25F00850D4EC25F0E0
:1049F8000750D4EC25F0DEEF25F0CD903C0ECF6EBD
:104A0800B00ECE6E9D80B192B180A082F00EB36ED2
:104A1800600EB26E600C116EE2EC25F0D00ED4EC94
:104A280025F01150D4EC25F01050D4EC25F0DEEF31
:104A380025F082909490030EE82EFED700F0828035
:104A48009480140EE82EFED782B0010C000C0BC027
:104A580007F0A5C008F0610E84EC23F0400E076E45
:104A6800070E4EEF25F0076E8B940750F1EC23F0FC
:104A7800000EF1EC23F0086E8B8408501200180E1B
:104A88009412280EC66EC76A630EC86EC584C5A484
:104A98001200FDD7086E8B9408502009F1EC23F022
:104AA8000750F1EC23F08B841200B5EC25F00A6E68
:104AB8000ABC010CCDEC25F00009D8B4010C000C9F
:104AC800066E06C005F00F0E051606380F0B0A0D08
:104AD800F350052412000001F82B950EF865950C8B
:104AE800F86B010EF76FCD90010C106A0E0E0FECEB
:104AF80025F0080E106E0F0E0FEF25F00CC007F012
:104B08000DC008F0050E096E2B0E40EF23F0A6B27B
:104B1800FED705C0A9FFA69EA69CA680A850120095
:104B2800056A0550A4EC21F0052A200E0564F9D782
:104B3800200C05C0E7F106C0E8F10101E96BEA6B5A
:104B480012009586959894929494959A958C8B8456
:104B58001200C70ED56EF28AD76A3D0ED66E796AF4
:104B680012008B94FF0EF1EC23F0076E8B84075034
:104B78001200C7B4FED7C5CF05F01F0E0516F9E120
:104B88001F0CF294D76A3D0ED66E010E0001C26F5B
:104B9800010C170E37EC25F0096E0950010B1200B5
:104BA800066EBDEC25F006C0C9FF1200AA6BA96B02
:104BB800B46B1200BDEC25F0C5841200BDEC25F0E5
:104BC800C5801200BDEC25F0C5821200959E8C9E12
:104BD8001200F28EF28C1200040E776E040CC2BD25
:0A4BE8000501F4012B01010000009B
:10B7AC000000000000000000087C4E4F4E7C080496
:10B7BC0026473F070604203E7F7F3F3E207E121E19
:10B7CC0000701000FDBFEF7FFBDFF7FEFDBFEF7FCA
:10B7DC00FBDFF7FE00010102020304040506060765
:10B7EC0007080909C43C4840EE3F9E400A4300004C
:10B7FC000000004551453E006B6F6B3E003E7C3EA9
:10B80C001C003C7E3C1800367F36300000000000E7
:10B81C00000000000000000000000000000000001C
:10B82C00000000000000000000000000000000000C
:10B83C0000000000000000000000000000000000FC
:10B84C0000000000000000000000000000000000EC
:10B85C0000000000000000000000000000000000DC
:10B86C0000000036360000002436000000242400BE
:10B87C000000240000000000000000001200000086
:10B88C0000121200000012360000001236000000F8
:10B89C0000000000005F00000007000700147F1488
:10B8AC007F14242A7F2A12231308646236495620F7
:10B8BC00500008070300001C2241000041221C001C
:10B8CC002A1C7F1C2A08083E0808008070300008DB
:10B8DC0008080808606000000020100804023E51AF
:10B8EC0049453E00427F4000426151494621414555
:10B8FC004B311814127F1027454545393C4A4949AC
:10B90C003001710905033649494936064949291E52
:10B91C0000003636000040340000000814224114A8
:10B92C0014141414004122140802015909063E4152
:10B93C005D594E7C1211127C7F494949363E41417A
:10B94C0041227F4141413E7F494949417F090909D3
:10B95C00013E414151727F0808087F00417F410040
:10B96C002040413F017F081422417F404040407FEE
:10B97C000204027F7F0408107F3E4141413E7F0953
:10B98C000909063E4151215E7F091929462649497C
:10B99C00493201017F01013F4040403F1F204020C0
:10B9AC001F3F4038403F63140814630304780403BA
:10B9BC006151494543007F414100020408102000B9
:10B9CC0041417F000402010204404040404000031A
:10B9DC0007080020545478407F28444438384444A5
:10B9EC004428384444287F3854545418087E09029B
:10B9FC000018A4A49C787F0804047800447D4000BF
:10BA0C002040403D007F1028440000417F40007CD6
:10BA1C00047804787C080404783844444438FC18CE
:10BA2C0024241818242418FC7C04040800485454BA
:10BA3C00542400043F44203C4040207C1C204020E7
:10BA4C001C3C4030403C44281028444C9090907C46
:10BA5C004464544C44000836410000007700000058
:10BA6C004136080002010204020000000000000040
:10BA7C0000000000000000000000000000000000BA
:10BA8C0000000000000000400040004000000000EA
:10BA9C000000000000003E5555412200000000004F
:10BAAC00000000000000000000000000000000008A
:10BABC00000000000000000000000000000000007A
:10BACC00000000000000000000000000000000006A
:10BADC0000000000000000000C1E1E0C0000000006
:10BAEC00000000000000000000000000000000004A
:10BAFC00000000000000000000000000000000003A
:10BB0C000000000000000000000000000000000029
:10BB1C000000000000000000000000000000000019
:10BB2C00000000000000007E020202030000000082
:10BB3C000000000000007E4B4A4B42000000000059
:10BB4C003E494949220000000000000000000000AE
:10BB5C0000000000000000000000417E41000006D3
:10BB6C0009090644445F444400417F410000447D80
:10BB7C004000007C040406000000000000000000EF
:10BB8C00000000000000385554551800000000005B
:10BB9C00385454544422142A14082040403D0000C8
:10BBAC0000000000000000000000457C41007E11F8
:10BBBC0011117E7F494949317F494949367F01013D
:10BBCC000101C07E417EC07F4949494177087F0809
:10BBDC007722414949367F1008047F7E1109057E82
:10BBEC007F08142241407E01017F7F020C027F7F7F
:10BBFC000808087F3E4141413E7F0101017F7F09DA
:10BC0C000909063E4141412201017F0101274848B3
:10BC1C00483F0E117F110E63140814637F40407F60
:10BC2C00C0070808087F7F407E407F7F407E40FF32
:10BC3C00017F4444387F4438007F7F444444382299
:10BC4C004149493E7F083E413E462919097F20540F
:10BC5C005454783C4A4A4A317C54545428007C044D
:10BC6C000404C078447CC038545454186C107C10B4
:10BC7C006C28445454287C2010087C7C2111097CAD
:10BC8C007C10102844403804047C7C0810087C7C10
:10BC9C001010107C38444444387C0404047C7C141C
:10BCAC00141408384444442804047C04044C5050B4
:10BCBC00503C18247C2418006C10106C7C40407C88
:10BCCC00C00C1010107C7C4078407C7C407840FC90
:10BCDC00047C5050207C5020007C007C5050204430
:10BCEC00545454387C10384438485434147C3E41F5
:10BCFC00417F3E00427F7F406273594F4622634929
:10BD0C007F361814127F7F2F45457D393E49497B7C
:10BD1C00320371790F073649497F362649497F3EF0
:10BD2C003E7F417F3E00427F7F406273594F4622E7
:10BD3C0063497F361814127F7F2F6F457D393E7F04
:10BD4C00497B320373790F07367F497F36266F495B
:10BD5C007F3E7F41417F7F00017F7F007151515FAA
:10BD6C005F4149497F7F1F10107F7F4F4949797987
:10BD7C007F494979790101017F7F7F49497F7F4F55
:10BD8C0049497F7F7F7F417F7F00017F7F007373F5
:10BD9C00515F5F636B497F7F1F1F107F7F6F6F4900
:10BDAC0079797F7F497B7B0373790F077F7F497F8D
:10BDBC007F6F6F497F7F7F7F417F7F00017F7F0097
:10BDCC007171515F5F4149497F7F1F1F107F7F4F0A
:10BDDC004F4979797F7F4979790171790F077F7F95
:10BDEC00497F7F5F5F517F7F0000007C447C007C3B
:10BDFC000074545C54547C1C107C5C54747C5474DF
:10BE0C0004047C7C547C5C547C4A616E2032362069
:10BE1C00323031380031343A34353A34340019790F
:10BE2C002709041979270904436C6F636B20763357
:10BE3C002E302E30206279204976616E5F66640068
:10BE4C00ECEC2EF0F22EF1F22E002573202573204F
:10BE5C00257300286E756C6C2900C7E23A00D0EA95
:10BE6C003A00C4ED3A00D2EF3A00D8F03A00CCF1E7
:10BE7C003A00D7F13A00DFF13A00C0F23A00D23181
:10BE8C003A00D2323A00D1E100C0E200C6E200CA68
:10BE9C00E200CDE400CFED00CBEF00C1F000C2F02A
:10BEAC0000C3F000D1F000D2F000D7F000CBF100CD
:10BEBC00CFF100C2F200CBF200CFF200D7F200D1EA
:03BECC00F700007C
:020000040020DA
:080000000109070903000000DB
:020000040030CA
:0E000000FF061E1EFF8181FF0FC00FE00F40A4
:0200000400F00A
:080000000402010201010101EB
:00000001FF
