:0400000007EF00F016
:100008007B825DED1FF080EF1CF0B1EC26F029C07B
:1000180056F02AC057F02BC058F02CC059F0C5EC48
:1000280026F029C04AF02AC04BF02BC04CF02CC057
:100038004DF00B0E92DBD89038343C6E39343D6E5F
:100048003A343E6E3B343F6E030E406E56C041F06C
:1000580057C042F058C043F059C044F0406601D040
:1000680007D044344432433242324132402EF6D72C
:100078003C50415C056E3D504258066E3E50435818
:10008800076E3F504458086E97C009F098C00AF0B0
:100098004CDBE7EC23F0376601D003D00ADB372EC0
:1000A800FAD716DB0C0E59DB040E3C6E56C03DF039
:1000B80057C03EF058C03FF059C040F03C6601D0F0
:1000C80003D054DB3C2EFAD738503D5C056E3950CE
:1000D8003E58066E3A503F58076E3B504058086EDF
:1000E80000019951416E9A51426E436A446A040E66
:1000F800456E56C046F057C047F058C048F059C042
:1001080049F0456601D007D0493449324832473270
:100118004632452EF6D74150465C096E4250475844
:100128000A6E435048580B6E445049580C6EE7EC21
:1001380023F0376601D003D0BCDA372EFAD7BFDAFE
:100148000E0E376EF8DA95C009F096C00AF0EDDAAF
:10015800E7EC23F0376601D003D0ABDA372EFAD7B5
:10016800C0DA5E506624526E5F506720536E60504E
:100178006820546E61506920556E52C005F053C016
:1001880006F054C007F055C008F0050E096E0A6A5B
:100198000B6A0C6AE7EC23F0800E0524376E000E1C
:1001A8000620386E000E0720396E000E08203A6EC1
:1001B80038C037F039C038F03AC039F03A6A39BE39
:1001C8003A6837C04EF038C04FF039C050F03AC0E6
:1001D80051F035C0D9FF36C0DAFF4EC0DEFF4FC040
:1001E800DEFF50C0DEFF51C0DEFF52C037F053C003
:1001F80038F054C039F055C03AF03A34BDDA000E40
:100208003724666E060E3820676EFF0E3920686E3A
:10021800FF0E3A20696E0B0E12DAE7EC23F0376610
:1002280001D003D046DA372EFAD749DA84DA8BC000
:1002380009F08CC00AF079DAE7EC23F052DA8DC0C5
:1002480005F08EC006F056DAE7EC23F0D8900534B6
:10025800376E0634386E0734396E08343A6E3750C4
:100268005E2638505F22395060223A5061220001E0
:100278008F51376E9051386E396A3A6A38C03AF001
:1002880037C039F0386A376A020E3B6E5EC03CF000
:100298005FC03DF060C03EF061C03FF03B6601D0FA
:1002A80007D03F343F323E323D323C323B2EF6D708
:1002B80037503C245E6E38503D205F6E39503E20EA
:1002C800606E3A503F20616E0D0EB9D9E7EC23F00D
:1002D800376601D003D0EDD9372EFAD7F0D9120EF0
:1002E800376E030E386E91C005F092C006F0000E0E
:1002F8000FDAE7EC23F005C039F006C03AF007C082
:100308003BF008C03CF0386601D007D03C343C32A2
:100318003B323A323932382EF6D793C005F094C0C2
:1003280006F0E8D9E7EC23F0C4D9055039243D6E2E
:1003380006503A203E6E07503B203F6E08503C2046
:10034800406E376601D003D011DA372EFAD73DC098
:1003580066F03EC067F03FC068F040C069F00F0E1D
:10036800376E000E6624056E800E6720066E000E3E
:100378006820076E000E6920086EF4C009F0F5C009
:100388000AF00B6A0C6AE7EC23F0376601D003D059
:1003980090D9372EFAD79CD9665067106810691023
:1003A80001E112000C0E376E5EC038F05FC039F004
:1003B80060C03AF061C03BF0376601D004D03B34EE
:1003C800E0D9372EF9D74AC03CF04BC03DF04CC0BD
:1003D8003EF04DC03FF03C1E3D1E3E1E3F1E3C2AD7
:1003E800000E3D223E223F2238503C5C406E395080
:1003F8003D58416E3A503E58426E3B503F58436E0E
:10040800000E4024056E000E4120066E100E42209C
:10041800076E000E4320086E350E096E0C0E0A6E2C
:100428000B6A0C6AE7EC23F005C062F006C063F0C3
:1004380007C064F008C065F0800E655C15E2D890CE
:100448006234056E6334066E6434076E6534086E74
:100458007BD9D0EC20F005C062F006C063F007C07D
:1004680064F008C065F014D062C005F063C006F0FF
:1004780064C007F065C008F067D9D0EC20F0D890C8
:100488000534626E0634636E0734646E0834656E34
:1004980062C037F063C038F064C039F065C03AF024
:1004A800040E02D0D89068D9E82EFCD737C005F0E2
:1004B80038C006F039C007F03AC008F062C03BF017
:1004C80063C03CF064C03DF065C03EF0040E05D04A
:1004D800D8903E323D323C323B32E82EF9D73BC011
:1004E80009F03CC00AF03DC00BF03EC00CF0E7EC50
:1004F80023F00E0E05D0D8900832073206320532A6
:10050800E82EF9D7DCD80C0E376E91C105F092C1F0
:1005180006F0000EFDD8E7EC23F0376601D003D0D3
:10052800C8D8372EFAD7D4D80D0E376E62C038F037
:1005380063C039F064C03AF065C03BF0030E02D0E6
:10054800D8901FD9E82EFCD738C005F039C006F07E
:100558003AC007F03BC008F087C009F088C00AF02D
:10056800E4D8E7EC23F0376601D003D0A2D8372EC1
:10057800FAD7B7D8040E376E89C038F08AC039F078
:10058800000E39BEFF0E3A6E3B6E665038243C6E44
:10059800675039203D6E68503A203E6E69503B20C6
:1005A8003F6E5E503C24406E5F503D20416E60506F
:1005B8003E20426E61503F20436E376601D007D01F
:1005C80043344332423241324032372EF6D76250FA
:1005D8004024626E63504120636E64504220646E12
:1005E80065504320656E070E196E400E1A6E3F0E59
:1005F8001B6E62C00DF063C00EF064C00FF065C0E2
:1006080010F09BEC23F00DC016F00EC017F00FC0D1
:1006180018F00CEC1BF016C025F017C026F018C017
:1006280027F0CEEC1BF03450D96EDA6A25C0DEFF15
:1006380026C0DEFF27C0DEFF28C0DEFF1200376EAF
:10064800020E386E66C039F067C03AF068C03BF0F9
:1006580069C03CF0386601D007D03C343C323B32AC
:100668003A323932382EF6D739C005F03AC006F09A
:100678003BC007F03CC008F0020E3D6E66C03EF07D
:1006880067C03FF068C040F069C041F03D6601D0E6
:1006980007D04134413240323F323E323D2EF6D708
:1006A8003EC009F03FC00AF040C00BF041C00CF05A
:1006B800120008340832073206320532120005C02B
:1006C8005AF006C05BF007C05CF008C05DF012008D
:1006D80005C066F006C067F007C068F008C069F09A
:1006E800120005C05EF006C05FF007C060F008C0E9
:1006F80061F01200000E06BEFF0E076E086E66C09F
:1007080009F067C00AF068C00BF069C00CF012006D
:1007180006BEFF0E076E086E5AC009F05BC00AF0ED
:100728005CC00BF05DC00CF01200000E0ABEFF0E9C
:100738000B6E0C6E12005AC005F05BC006F05CC070
:1007480007F05DC008F0120066C009F067C00AF043
:1007580068C00BF069C00CF01200376E00019951A7
:10076800386E9A51396E3A6A3B6A12004034403208
:100778003F323E323D3212003A3239323832373265
:1007880012003B323A323932383212000001B2518B
:100798000DE013EC27F0176E000EAD25D96EDA6A5E
:1007A800020EDA2217C0DFFFAD2B1200240E020161
:1007B800001901E12ED354D37EDB0001826F0201C0
:1007C80080DB0001816FF6510CE0825105E175EC88
:1007D8000DF0C2EC25F009D07EEC0DF0C2EC25F04E
:1007E80004D079EC0DF0C2EC25F04F0E41EC25F069
:1007F8004B0E41EC25F00D0E41EC25F00A0E41ECB4
:1008080025F02ED335DB19041A1005E031DB020E72
:1008180019181A101FE10251D00F786E78C005F030
:10082800010E37EC27F029EC28F0780403E10001E9
:10083800C86B02D0B0EC18F0B16B4F0E41EC25F04C
:100848004B0E41EC25F00D0E41EC25F00A0E41EC63
:1008580025F006D3450E41EC25F0520E41EC25F06B
:100868000D0E41EC25F00A0E41EC25F0F9D2010EEF
:100878001EDB37EC27F0C1EC23F022D0020E17DB89
:1008880037EC27F0F8D7030E12DB37EC27F0F3D755
:10089800040E0DDB37EC27F0EED7050E08DB37EC3E
:1008A80027F0E9D7E5DA1A500BE11950010ADFE021
:1008B800030AE4E0010AE7E0070AEAE0010AEDE0DA
:1008C800D00E176E186802010251DDDA1ABE05D083
:1008D8001A5007E1060E195C04E2CADA19501A1018
:1008E8000DE1450E41EC25F0520E41EC25F00D0EC0
:1008F80041EC25F00A0E41EC25F0B2D24F0E41EC46
:1009080025F04B0E41EC25F00D0E41EC25F00A0EBA
:1009180041EC25F0A5D2D5DA126E06510A0DF35036
:100928000725F00F136E08510A0DF3500925F00F33
:10093800146EC1DAD0EC24F04F0E41EC25F04B0ECA
:1009480041EC25F00D0E41EC25F00A0E41EC25F0A6
:1009580087D28EDA19501A1004E08ADA19041A10AC
:100968000CE10251D00F0001C76FB7DAC66FC7C0DC
:1009780005F0020E37EC27F00DD0450E41EC25F0BE
:10098800520E41EC25F00D0E41EC25F00A0E41EC1B
:1009980025F066D20001C75109E1C6C005F0030E73
:1009A80037EC27F095EC16F079EC27F04F0E41EC78
:1009B80025F04B0E41EC25F00D0E41EC25F00A0E0A
:1009C80041EC25F04DD254DA19501A1004E050DAEF
:1009D80019041A100AE10251D00F0001C56FC5C0F1
:1009E80005F0040E37EC27F00DD0450E41EC25F04C
:1009F800520E41EC25F00D0E41EC25F00A0E41ECAB
:100A080025F02ED24F0E41EC25F04B0E41EC25F08F
:100A18000D0E41EC25F00A0E41EC25F021D228DA22
:100A280019501A1004E024DA19041A101BE13ADAF2
:100A38002ADA19501A1005E035DA25DA19041A10DD
:100A480011E10251D00F0001C46F47DAC36FC4C06F
:100A580005F0050E37EC27F0C3C005F0060E37EC9D
:100A680027F00DD0450E41EC25F0520E41EC25F053
:100A78000D0E41EC25F00A0E41EC25F0F1D14F0E98
:100A880041EC25F04B0E41EC25F00D0E41EC25F024
:100A98000A0E41EC25F0E4D1EBD919501A1004E004
:100AA800E7D919041A100AE10251D00F0001C26FE8
:100AB800C2C005F0070E37EC27F00DD0450E41EC0B
:100AC80025F0520E41EC25F00D0E41EC25F00A0EF2
:100AD80041EC25F0C5D14F0E41EC25F04B0E41EC11
:100AE80025F00D0E41EC25F00A0E41EC25F0B8D1A9
:100AF800BFD919501A1004E0BBD919041A100AE119
:100B08000251D00F0001C16FC1C005F0080E37ECCB
:100B180027F00DD0450E41EC25F0520E41EC25F0A2
:100B28000D0E41EC25F00A0E41EC25F099D14F0E3F
:100B380041EC25F04B0E41EC25F00D0E41EC25F073
:100B48000A0E41EC25F08CD14F0E41EC25F04B0EEE
:100B580041EC25F00D0E41EC25F00A0E41EC25F094
:100B6800330E186EBB0E176EE00EE82EFED7172E4A
:100B7800FCD7182EFAD7330E186EBB0E176EE00E80
:100B8800E82EFED7172EFCD7182EFAD7330E186E7C
:100B9800BB0E176EE00EE82EFED7172EFCD7182EC8
:100BA800FAD7330E186EBB0E176EE00EE82EFED77E
:100BB800172EFCD7182EFAD7FF0052D1740E02193F
:100BC80002E1030E04D0700E021903E1020E776EE3
:100BD8000DD0450E41EC25F0520E41EC25F00D0EDE
:100BE80041EC25F00A0E41EC25F03AD14F0E41ECCC
:100BF80025F04B0E41EC25F00D0E41EC25F00A0EC8
:100C080041EC25F02DD1610E021920E11B6A0BD0B1
:100C1800030E1B24D96EDA6A020EDA22960E1B2402
:100C280088EC11F01B2AFD0E176E1868000E056E71
:100C3800020E066E9DEC26F0175005261850062267
:100C48001B50055C000E06581CE3E2D7750E02190E
:100C580007E1000E096E020E0A6EEEEC10F011D0DC
:100C68006F0E02190EE174904F0E41EC25F04B0EF9
:100C780041EC25F00D0E41EC25F00A0E41EC25F073
:100C8800EFD04F0E41EC25F04B0E41EC25F00D0E48
:100C980041EC25F00A0E41EC25F0EDC0AEF0748071
:100CA8000001C86B25EC1AF094EC1EF07BEC0EF0FA
:100CB80094EC1EF088EC0BF076EC25F0CDEC22F0ED
:100CC800BAEC10F04CEC1EF0B0EC18F0C9D0086A81
:100CD800640EFDD80DEC24F0DDD875EC24F00C5032
:100CE800300F41EC25F0086A0A0EF1D80DEC24F01B
:100CF800D1D875EC24F00C50300F41EC25F0FBC036
:100D08000CF0FCC00DF04FEC13F075EC24F00C5017
:100D1800300F41EC25F05F0E41EC25F06DD01B6AD9
:100D28000B0E1B6401D00AD0050E1B24F66EF76A61
:100D3800BE0ED8D841EC25F01B2AF2D70D0E41EC97
:100D480025F00A0E41EC25F01B6A080E1B6401D041
:100D58000AD0110E1B24F66EF76ABE0EC3D841ECFA
:100D680025F01B2AF2D70D0E41EC25F00A0E41ECB6
:100D780025F042D00001FD5141EC25F0086A640ECF
:100D88005EEC0EF00DEC24F085D875EC24F00C50D8
:100D9800300F41EC25F0086A0A0E5EEC0EF00DECFF
:100DA80024F078D875EC24F00C50300F41EC25F085
:100DB8006AEC0EF04FEC13F075EC24F00C50300F89
:100DC80041EC25F05F0E41EC25F016D0450E41ECC4
:100DD80025F0520E41EC25F00D0E41EC25F00A0EDF
:100DE80041EC25F009D00251610A01E170D7150ADA
:100DF800C1E0020A94E0EAD74F0E41EC25F04B0E11
:100E080041EC25F00D0E41EC25F00A0E41EC25F0E1
:100E180027D00151530A01E1F6D6320A01E1FFD584
:100E2800030A01E196D5010A01E1ECD4070A01E1C0
:100E380072D5010A01E130D6030A01E133D5170A58
:100E480001E1BCD6030ACFE0010A01E1BCD5070ADB
:100E580001E1B2D4030A01E14BD60D0A01E174D6CF
:100E68000201006B016B026B0001AD6B6FEF28F0A4
:100E7800D00E176E18680251196E1A6A1750192683
:100E880018501A221200196E1A6A1750192618508B
:100E98001A22120005C00CF006C00DF00F6A0A0EE7
:100EA8000E6E0A0CD00E176E1868035112007A6E77
:100EB8007AC005F0000C02510A0DF3500325F00F1B
:100EC800120004510A0DF3500525F00F1200076EA9
:100ED800FBC005F0FCC006F0120002010351D00F60
:100EE80000011200F7220800F55012001F6E2AD1E7
:100EF8000001C86B206A12EC10F0EB5190EC25F061
:100F080000EC27F000090BE012EC10F0EB5190EC2C
:100F180025F000EC27F01ED9C90F47D903D020507F
:100F280051EC24F021EC10F000EC27F013D9CF0F8E
:100F38003CD912EC10F0EA5190EC25F000EC27F0C7
:100F480009D9D60F32D91CEC10F000EC27F002D9E1
:100F5800DC0F2BD9202A040E2064CDD7206A12EC8E
:100F680010F0E95190EC25F000EC27F018D905D9DC
:100F7800E20F1BD926EC10F000EC27F010D9FDD8B1
:100F8800E60F13D9202A020E2064E9D70001CE6BA0
:100F9800800ED46FD56FDB6BE16BE56B1200010E31
:100FA8000001C86F08D990EC25F000EC27F000018B
:100FB800BF6F0BD900EC27F00001BE6F01D990EC90
:100FC80025F000EC27F00001BD6F03D900EC27F0F5
:100FD8000001BC6FBF51B91909E1BE51B81906E14A
:100FE800BD51B71903E1BC51B61974E0BC51B6192B
:100FF80009E0EFD800EC27F00CEC10F0190E02EC29
:101008001EF008D0E6D800EC27F047EC0FF0190ED8
:1010180057EC20F00001BD51B7190BE0D1D890EC86
:1010280025F000EC27F00CEC10F0130E02EC1EF08B
:101038000AD0C6D890EC25F000EC27F047EC0FF06A
:10104800130E57EC20F00001BE51B81909E0BDD8C5
:1010580000EC27F00CEC10F0070E02EC1EF008D0A4
:10106800B4D800EC27F047EC0FF0070E57EC20F04F
:1010780012EC10F0EB5190EC25F000EC27F0000991
:101088001AE00001BF51B9190BE095D890EC25F092
:1010980000EC27F00CEC10F0010E02EC1EF011D061
:1010A8008AD890EC25F000EC27F047EC0FF0010E01
:1010B80057EC20F006D0116A17EC10F0010E02EC84
:1010C8001EF0BFC0B9F0BEC0B8F0BDC0B7F0BCC01C
:1010D800B6F0120070D890EC25F000EC27F000096B
:1010E8000DE012EC10F0EB5190EC25F000EC27F03D
:1010F80047EC0FF0010E57EC20F006D0116A6DECAA
:101108000DF0010E57EC20F021EC10F000EC27F068
:1011180047EC0FF0070E57EC20F012EC10F0EA51F4
:1011280090EC25F000EC27F047EC0FF0130E57EC8D
:1011380020F01CEC10F000EC27F047EC0FF0190E33
:1011480057EF20F01F50010A01E1D2D6030A01E14E
:1011580026D71200050D75C01DF076C01EF0F3509D
:101168001D26F4501E2220501D26000E1E221DC0D2
:10117800F6FF1EC0F7FF20501200F3501D26F45052
:101188001E2220501D26000E1E22030E1D26000EB4
:101198001E221DC0F6FF1EC0F7FF20501200030DCF
:1011A800E40E1D6EBD0E1E6E1200D96EDA6A0800BE
:1011B800F5CFDFFF12000A0E096E056EEB51120023
:1011C8000A0E096E056EEA5112000A0E096EEB51FD
:1011D80012000A0E096EEA51120042D067D994EC47
:1011E8001EF01E0E056E230EBAEC10F04CEC1EF02D
:1011F8009CEC12F04CEC1EF023EC12F03BD056D9CC
:1012080094EC1EF0A7EC12F094EC1EF0CDEC22F05A
:10121800BAEC10F04CEC1EF0F8EC14F029EC28F0C5
:1012280029D00001852B0C0E856502D0010E856F33
:101238009CEC12F04CEC1EF013EC12F0D0EC24F005
:1012480019D000018507855102E10C0E856F9CECD1
:1012580012F04CEC1EF013EC12F0D0EC24F00AD093
:101268007750010ABBE0030ADCE0010AEAE0070A5A
:10127800C6E0010A74A6FFD07A0EF66EBE0EF76EAF
:1012880000D9000E57EC20F07B0EF66EBE0EF76EFE
:10129800F8D8060E57EC20F07C0EF66EBE0EF76EF0
:1012A800F0D80C0E57EC20F0C6D0CB0EF66EBE0E62
:1012B800F76EE7D8120E57EC20F0CC0EF66EBE0E85
:1012C800F76EDFD8180E57EC20F0D5D0C20EF66EA8
:1012D800BE0EF76ED6D8120E57EC20F0C30EF66E7F
:1012E800BE0EF76ECED8180E57EC20F0C4D0A70E5D
:1012F800F66EBE0EF76EC5D8120E57EC20F0A80E8B
:10130800F66EBE0EF76EBDD8180E57EC20F0B3D0AF
:101318009B0EF66EBE0EF76EB4D8120E57EC20F088
:101328009C0EF66EBE0EF76EACD8180E57EC20F079
:10133800A2D0B30EF66EBE0EF76EA3D8120E57ECFF
:1013480020F0B40EF66EBE0EF76E9BD8180E57EC52
:1013580020F091D0B60EF66EBE0EF76E92D8120E31
:1013680057EC20F0B70EF66EBE0EF76E8AD8180E40
:1013780057EC20F080D0A40EF66EBE0EF76E81D822
:10138800120E57EC20F0A50EF66EBE0EF76E79D849
:10139800180E57EC20F06FD07FD873D8120E57EC88
:1013A80020F07FD86ED8180E57EC20F064D0AA0E23
:1013B800F66EBE0EF76E65D8120E57EC20F0AB0E27
:1013C800F66EBE0EF76E5DD8180E57EC20F053D0AF
:1013D800980EF66EBE0EF76E54D8120E57EC20F02B
:1013E800990EF66EBE0EF76E4CD8180E57EC20F01C
:1013F80042D0B90EF66EBE0EF76E43D8120E57ECF9
:1014080020F0BA0EF66EBE0EF76E3BD8180E57ECEB
:1014180020F031D0AD0EF66EBE0EF76E32D8120E39
:1014280057EC20F0AE0EF66EBE0EF76E2AD8180EE8
:1014380057EC20F020D000018551010A01E135D791
:10144800030A01E143D7010A01E151D7070A01E183
:101458005FD7010A01E16DD7030A01E17BD7010AD1
:101468008AE00F0A99E0010AA2E0030AB1E0010A42
:10147800C0E0070ACFE0C90E076EB2EC24F074860C
:1014880012000800F5CF11F0EA0E126EB70E136EB7
:10149800C90E146E156A1200B00EF66EBE0EF76E07
:1014A8001200B10EF66EBE0EF76E1200E20E056E59
:1014B800110E066E1200B4D078507AEC07F0020EC6
:1014C800781803E1B0EC18F002D00001C86B050EE3
:1014D800E9650DD0070EE9610AD0FA0E116EF90E12
:1014E800126EF70E136EF80E146EBDEC12F00E0E9F
:1014F8000001E96505D0100EE96102D0030E776E90
:10150800C25101E19BD0270EE96598D0290EE96107
:1015180095D0EAB193D0020E7AD0EBD894EC1EF0B5
:10152800000E056E1D0E066EE9D84CEC1EF09CEC04
:1015380012F04CEC1EF020EEE9F010EE80F0060EF2
:10154800DBCFE3FFE806FCE2050E776E7496020E29
:10155800781874E10001C9D86DEC0DF00D0E57EC48
:1015680020F06CD00001C86BF00E346EE50E356EBD
:10157800010E366E09EC00F0020E781807E1170E1E
:10158800116E6DEC0DF00D0E57EC20F04BEC22F0C7
:10159800B0D894EC1EF0540E056E340EBAEC10F070
:1015A8004CEC1EF0F8EC14F049D00001C45120E0D6
:1015B800C86B6E506A6E6D509F6F6AC0A0F0020EC5
:1015C800781807E1170E116E6DEC0DF00D0E57EC43
:1015D80020F04BEC22F08DD894EC1EF05C0E056EDA
:1015E800330EBAEC10F04CEC1EF0F8EC14F00ED000
:1015F800C3510CE0C86B020E7818EBE1170E116EA0
:101608006DEC0DF00D0E57EC20F0E3D7050E776E5C
:1016180015D0050E776EA7EC12F094EC1EF00ED0E4
:101628007750010A01E179D7030A9CE0010ABDE07D
:10163800070AEFE0010A01E13FD7030A74A604D0C4
:10164800C90E076EB2EC24F00001C75108E0E9A109
:1016580074A205D074925BEC27F01DEC26F074861A
:10166800EEEC27F0000913E06C0E0B6EC0EC27F0CF
:101678005CEC25F06E506A6E6D5000019F6F6AC079
:10168800A0F06CC0FDF09D6B9E6B749403D00001BC
:101698009D4B9E2BE90E9D5D030E9E5906E37484B7
:1016A8005CEC25F036D8D2EC1CF00001AE51ED19F7
:1016B8001AE1050E096EEA5100EC27F00009D8A4DA
:1016C8001200230E0001E919D8B474A012000DD835
:1016D8006DEC0DF00D0E57EC20F016D876EC25F0D9
:1016E800010EC86F010C74901200C86B170E116EB2
:1016F800170CBE0E056E140E066E1200086A076AF5
:101708000A6A320E096E320C960E0B6E020E0C6EC1
:101718001200040E0E6E780C42D001D994EC1EF023
:101728003A0E056E2D0EBAEC10F04CEC1EF09CEC47
:1017380012F04CEC1EF023EC12F03BD0F0D894ECF5
:101748001EF0A7EC12F094EC1EF0CDEC22F0BAECEF
:1017580010F04CEC1EF0F8EC14F029EC28F029D02D
:101768000001832B070E836502D0010E836F9CEC6A
:1017780012F04CEC1EF013EC12F0D0EC24F019D05F
:1017880000018307835102E1070E836F9CEC12F07E
:101798004CEC1EF013EC12F0D0EC24F00AD0775089
:1017A800010ABBE0030ADCE0010AEAE0070AC6E036
:1017B800010A74A6AED06E0EF66EBE0EF76E45EC3C
:1017C8000AF0000E57EC20F06F0EF66EBE0EF76EA4
:1017D80045EC0AF0060E57EC20F0700EF66EBE0EC1
:1017E800F76E45EC0AF00C0E57EC20F081D0A10EF4
:1017F800F66EBE0EF76E45EC0AF0120E57EC20F0AE
:10180800A20EF66EBE0EF76E45EC0AF0180E57ECF7
:1018180020F07FD0BF0EF66EBE0EF76E45EC0AF0D4
:10182800120E57EC20F0C00EF66EBE0EF76E45ECA9
:101838000AF0180E57EC20F06CD050EC0AF045EC8A
:101848000AF0120E57EC20F055EC0AF045EC0AF0BD
:10185800180E57EC20F05DD0C80EF66EBE0EF76E6F
:1018680045EC0AF0120E57EC20F0C90EF66EBE0ECB
:10187800F76E45EC0AF0180E57EC20F04AD0C50E6A
:10188800F66EBE0EF76E45EC0AF0120E57EC20F01D
:10189800C60EF66EBE0EF76E45EC0AF0180E57EC43
:1018A80020F037D0920EF66EBE0EF76E45EC0AF0B9
:1018B800120E57EC20F0930EF66EBE0EF76E45EC46
:1018C8000AF0180E57EC20F024D09E0EF66EBE0ECD
:1018D800F76E45EC0AF0120E57EC20F09F0EF66EEC
:1018E800BE0EF76E45EC0AF0180E57EC20F011D03A
:1018F80000018351010AE9E0030A01E178D7010AEE
:1019080089E0070A9AE0010AA7E0030AB8E0010A99
:10191800C9E0C90E076EB2EC24F074861200200EDE
:10192800056E170E066E120074B802D074885CD06B
:1019380074985AD0E4D894EC1EF0E80E056E280E80
:10194800BAEC10F04CEC1EF09CEC12F04CEC1EF0D3
:10195800050E776E29EC28F0749650D0D0D894EC08
:101968001EF0A7EC12F094EC1EF0CDEC22F0BAECCD
:1019780010F04CEC1EF0050E776E29EC28F03ED0E6
:101988000001822B170E826501D0826B9CEC12F04D
:101998004CEC1EF0BED80AE0825104E1A2D8C2EC99
:1019A80025F02CD0A7D8C2EC25F028D09ED8C2ECC0
:1019B80025F024D000018207822902E1170E826FE8
:1019C8009CEC12F04CEC1EF0A4D80AE0825104E121
:1019D80088D8C2EC25F012D08DD8C2EC25F00ED0F4
:1019E80084D8C2EC25F00AD07750010AA3E0030A94
:1019F800C7E0010ADFE0070AB1E0010A74A663D074
:101A080074A84AD0780424E112EC10F0825190ECCA
:101A180025F000EC27F000090DE012EC10F08251DF
:101A280090EC25F000EC27F047EC0FF0000E57EC97
:101A380020F005D0116A4DD8000E57EC20F064D87C
:101A480000EC27F047EC0FF0060E57EC20F03BD0E7
:101A580012EC10F0825190EC25F000EC27F0000910
:101A68000DE012EC10F0825190EC25F000EC27F01C
:101A780047EC0FF0010E57EC20F005D0116A29D879
:101A8800010E57EC20F040D800EC27F047EC0FF09F
:101A9800070E57EC20F017D078040BE1116A19D81B
:101AA800000E57EC20F0116A14D8060E57EC20F0FF
:101AB8000AD0116A0ED8010E57EC20F0116A09D825
:101AC800070E57EC20F0C90E076EB2EC24F07486AE
:101AD8001200EA0E126EB70E136EC90E146E156A56
:101AE800120081C012F0136A170C81C012F0136A39
:101AF8008251120081C012F0136A82051200300E62
:101B0800056E190E066E12000A0E096E000182514A
:101B18001200050E776E0001F6511200BDD029ECB7
:101B280028F074A413D0CCD81AEC20F0450EBCD8F9
:101B3800090E02EC1EF0720EB7D80F0E02EC1EF062
:101B4800720EB2D8150E02EC1EF08ED000019F293D
:101B580002E1A02977E0A06BFE0E9F6F2B0EFD6FB0
:101B6800086A640EA7D80DEC24F04EEC07F075EC6B
:101B780024F00CC028F00DC029F0086A0A0E9AD883
:101B88000DEC24F04EEC07F075EC24F00CC02AF0B4
:101B98000DC02BF09BD84FEC13F075EC24F00CC063
:101BA8002CF00DC02DF09ED83C0E136EBE0E146E98
:101BB80028C015F029C016F02AC017F02BC018F05D
:101BC800000E1A6E2E0E196E2CC01BF02DC01CF0C4
:101BD800000E1E6EB00E1D6E53EC13F071D81AEC89
:101BE80020F0FDC011F017EC10F0090E02EC1EF009
:101BF80001019351D00F0CEC10F00F0E02EC1EF007
:101C080001019451D00F0CEC10F0150E02EC1EF0EF
:101C180095C111F017EC10F01B0E02EC1EF0330EFC
:101C2800276EBB0E266EE00EE82EFED7262EFCD7BA
:101C3800272EFAD7930E0B6E010E0C6E0D6A6EEC02
:101C48001DF012D03DD81AEC20F02D0E2DD8090E1B
:101C580002EC1EF02D0E28D80F0E02EC1EF02D0EF1
:101C680023D8150E02EC1EF014EC1AF034D84CEF01
:101C78001EF0050E776E4BEC22F060EC0FF0A7EC2F
:101C880012F094EC1EF033D894EC1EF0CDEC22F058
:101C9800BAEC10F04CEF1EF07750040AEAE0010AA3
:101CA80001E13DD7030A1200116EEA0E126EB70E5B
:101CB800136E1200076E9FC005F0A0C006F0120058
:101CC800020E0C6EC90E0D6E0E6A000C9FC00CF051
:101CD800A0C00DF01200020E086E8A0E076E0A6A86
:101CE800096A8A0C930E116E010E126E1200240EF0
:101CF800056E1B0E066E120074B802D074886CD084
:101D080074986AD0D4D894EC1EF0300E056E190E73
:101D1800066E82EC0BF04CEC1EF09CEC12F04CECD6
:101D28001EF0780413E112EC10F0815190EC25F0CC
:101D380000EC27F0A8D80D0E57EC20F0ADD800EC39
:101D480027F0A1D8130E57EC20F013D012EC10F0A6
:101D5800EA5190EC25F000EC27F095D8130E57ECDB
:101D680020F01CEC10F000EC27F08DD8190E57EC81
:101D780020F0F8EC14F03AD09AD894EC1EF0A7ECC6
:101D880012F094EC1EF0CDEC22F0BAEC10F04CEC12
:101D98001EF0050E776E29EC28F028D00001812B63
:101DA8003B0E816501D0816B9CEC12F04CEC1EF06F
:101DB80078D8C2EC25F0050E776E18D0000181079F
:101DC800812902E13B0E816F9CEC12F04CEC1EF075
:101DD80068D8C2EC25F0EFD77750010A93E0030AE0
:101DE800DDE0010AEBE0070AC7E0010A74A645D066
:101DF80074A828D0780413E112EC10F0815190EC0B
:101E080025F000EC27F03FD80D0E57EC20F044D811
:101E180000EC27F038D8130E57EC20F02ED012EC37
:101E280010F0815190EC25F000EC27F02CD8130E1F
:101E380057EC20F031D800EC27F025D8190E57ECD4
:101E480020F01BD078040DE1116A6DEC0DF00D0E39
:101E580057EC20F0116A6DEC0DF0130E57EC20F0E2
:101E68000CD0116A6DEC0DF0130E57EC20F0116ACE
:101E78006DEC0DF0190E57EC20F0C90E076EB2ECA0
:101E880024F074861200116E75C012F076C013F03B
:101E9800C90E146E156A12000A0E096E00018151EE
:101EA800120081C012F0136A000182511200000E64
:101EB800056E1D0E066E120029EC28F0A2D0AED8D1
:101EC800EB5190EC25F000EC27F000090BE0A6D8C8
:101ED800EB5190EC25F000EC27F09AD8000E02ECBC
:101EE8001EF005D0116A9FD8000E02EC1EF0A5D88E
:101EF80000EC27F08DD8060E02EC1EF08FD8EA51C0
:101F080090EC25F000EC27F083D80D0E02EC1EF0C3
:101F18008FD800EC27F07CD8130E02EC1EF03EECB4
:101F280021F01CEC22F07AD8E95190EC25F000EC75
:101F380027F01D6E1D280D6E190EB8EC1DF082D805
:101F480000EC27F01D6E1D280D6E1D0EB8EC1DF05F
:101F580071EF14F063D8EB5190EC25F000EC27F00A
:101F680000090BE05BD8EB5190EC25F000EC27F072
:101F78004FD8010E02EC1EF005D0116A54D8010E9C
:101F880002EC1EF05AD800EC27F042D8070E02ECFB
:101F98001EF03A0E58EC0EF00D0E02EC1EF03ED874
:101FA800EA5190EC25F000EC27F032D8130E02EC41
:101FB8001EF03ED800EC27F02BD8190E02EC1EF0CC
:101FC800010E0001C86FB16BDFEC08F090EC25F052
:101FD80000EC27F00001B96FE9EC08F000EC27F0FD
:101FE8000001B86FE4EC08F090EC25F000EC27F065
:101FF8000001B76FEDEC08F000EC27F00001B66FB8
:1020080012007850010A01E15AD7030AA3E012002E
:10201800116E75C012F076C013F012000A0E096E28
:10202800056E00010A0CEA0E126EB70E136E12004E
:102038000A0E096E0001EA5112000A0E096E00012B
:10204800EB5112000A0E096E0001E951120042D04C
:102058000001C75110E0ABD894EC1EF0A4D886D884
:102068004CEC1EF09CEC12F04CEC1EF0F8EC14F06A
:1020780029EC28F039D09BD894EC1EF02A0E056E76
:102088002C0E74D84CEC1EF0A1D820EC28F099D86E
:1020980079EC27F0E7D78BD894EC1EF0A7EC12F078
:1020A80094EC1EF0CDEC22F061D84CEC1EF0DED79B
:1020B80064D89CEC12F04CEC1EF07ED837EC27F07C
:1020C80013D05BD89CEC12F04CEC1EF075D837ECB2
:1020D80027F00AD07750010ABBE0030AE9E0010AB9
:1020E800F0E0070AD8E0010A74A63AD057D845ECC0
:1020F8000AF0000E57EC20F04CD845EC0AF0060E1A
:1021080057EC20F041D845EC0AF00C0E57EC20F0C3
:102118000001C75113E0950EF66EBE0EF76E45EC42
:102128000AF0120E57EC20F0960EF66EBE0EF76E01
:1021380045EC0AF0180E57EC20F012D0BC0EF66EE3
:10214800BE0EF76E45EC0AF0120E57EC20F0BD0EED
:10215800F66EBE0EF76E45EC0AF0180E57EC20F03E
:10216800C90E076EB2EC24F074861200066E086A77
:10217800076A0A6A140E096E140C0001C751010E91
:10218800D8A4000EC76F1200840EF66EBE0EF76E4E
:102198001200830EF66EBE0EF76E1200820EF66EF9
:1021A800BE0EF76E12004A0E056E2E0E1200560E67
:1021B800056E200E066E1200050E776EC7C005F07C
:1021C800020C0001C66FC6C007F00A0C066A030EAF
:1021D800056E030C146A09C005F00AC006F09DECF0
:1021E80026F00550FD0F126E136A7DD080D8030EBD
:1021F80085D8C00EDF646FD07AD8040E7FD8DF5040
:102208000D6E145009240E6E000E0A200F6E030E78
:102218000E24D96E000E0F20DA6EDF50106E0D50AE
:10222800156E10C016F0840E151805E1D00E16189C
:1022380002E1DA0E0FD0860E151805E1D00E161839
:1022480002E1D40E07D0870E151807E1D00E161834
:1022580004E1D80E155ECF0E08D0940E151807E1CC
:10226800D10E161804E1DA0E11D0165A28D0960E9F
:10227800151805E1D10E161802E1E30E07D0970EE6
:10228800151807E1D10E161804E1D80E155ED00E08
:10229800ECD7C00E155CD00E165803E2300E15268A
:1022A8000DD0800E155CD10E165809E3900E155C02
:1022B800D10E165804E2700E15262F0E1622960E11
:1022C8001324D96EDA6A020EDA2215C0DFFF020E75
:1022D8001426120607D00BD8030E10D8960E132416
:1022E80013D8142A132A1350125C80E212001450D7
:1022F80009240B6E000E0A200C6E12000B24D96EF6
:10230800000E0C20DA6E1200E16EE26A020EE22282
:10231800DFCFE7FF12003FD08DD894EC1EF0200EDF
:10232800056E170EBAEC10F04CEC1EF09CEC12F097
:102338004CEC1EF084D839D07DD894EC1EF0A7EC74
:1023480012F094EC1EF0CDEC22F0BAEC10F04CEC4C
:102358001EF0F8EC14F029EC28F027D00001842BAB
:102368001F0E846502D0010E846F9CEC12F04CECB9
:102378001EF055D8D0EC24F018D000018407845101
:1023880002E11F0E846F9CEC12F04CEC1EF047D853
:10239800D0EC24F00AD07750010ABEE0030ADEE050
:1023A800010AEBE0070AC8E0010A74A632D07E0EE3
:1023B800F66EBE0EF76E45EC0AF0000E57EC20F0F4
:1023C8007F0EF66EBE0EF76E45EC0AF0060E57EC61
:1023D80020F0800EF66EBE0EF76E45EC0AF00C0E7D
:1023E80057EC20F012EC10F0845190EC25F000EC42
:1023F80027F047EC0FF0120E57EC20F00A0E096E8A
:102408000001845100EC27F047EC0FF0180E57EC50
:1024180020F0C90E076EB2EC24F074861200050E87
:10242800776E84C012F085C013F086C014F00001E6
:10243800835112001E0E056E230E066E1200050E45
:10244800776E7486050C2FD08FD894EC1EF0640E2E
:10245800056E320EBAEC10F04CEC1EF069D84CEC5C
:102468001EF0F8EC14F029EC28F027D07DD894EC75
:102478001EF0CDEC22F0BAEC10F04CEC1EF063D854
:1024880094EC1EF0EED764D853D84CEC1EF067D805
:1024980037EC27F012D05CD84BD84CEC1EF05FD844
:1024A80037EC27F00AD07750010ACEE0030AEBE0B8
:1024B800010AF1E0070ADAE0010A74A633D0860EB1
:1024C800F66EBE0EF76E45EC0AF0000E57EC20F0E3
:1024D800870EF66EBE0EF76E45EC0AF0060E57EC48
:1024E80020F0880EF66EBE0EF76E45EC0AF00C0E64
:1024F80057EC20F00001C25108E02B0E116E6DEC74
:102508000DF0120E57EC20F007D02D0E116E6DEC69
:102518000DF0120E57EC20F0116A6DEC0DF0180E4C
:1025280057EC20F0C90E076EB2EC24F07486120046
:102538000A0E056E510E066E070E086ED00E076E57
:102548000A6A096AD00C0A0E056E510E066E120050
:102558000001C251010ED8A4000EC26F1200050E70
:10256800776EC2C005F0070C4E0E056E240E066E7F
:1025780012001250D96EDA6A2B0EDF6E82D094ECFC
:1025880024F00009D8A41200CC0EEDEC24F0440E7F
:10259800EDEC24F01450D96EDA6ADF6A1350D96E64
:1025A800DA6A020EDF6ECD80020C94EC24F0CC0EB9
:1025B800EDEC24F0BE0EEDEC24F0196A880E192417
:1025C800D96EDA6A010EDA2209EC25F0DF6E192AD3
:1025D800010E1964F3D701018951156E88511A6EDD
:1025E80015C01BF01BAE09D01A6C1B1ED8B01B2AD5
:1025F8001250D96EDA6A2D0EDF6E1A500F0B186E54
:10260800C60E1824F66EF76AB70EF7220800F5CF43
:1026180018F01A3A1B3A0F0E1A161B50F00B1A1222
:102628000F0E1B161A500A0DF3CF1AF0F4CF1BF039
:1026380018501A26000E1B221AC00CF01BC00DF0F1
:102648002AD875EC24F00C50176E1AC005F01BC080
:1026580006F0086A0A0E076E0DEC24F005C01AF0A1
:1026680006C01BF0050E176402D01A4A1B2A115027
:10267800D96EDA6A1AC0DFFF1350D96EDA6ADF6AD8
:10268800000C1350D96EDA6ADF5001E178D7010ADD
:102698008CE0030A12000F6A0A0E0E6E0A0C150E61
:1026A800246E6ED0250E25182DE083D825C0DFFFB7
:1026B800114A122A65D02450D96EDA6ADECF22F088
:1026C800DDCF23F0020E2426225023100EE15A0EED
:1026D800226EBE0E236E09D071D86BD80800F5CFD4
:1026E800DFFF224A232A114A122A68D80800F55027
:1026F80047E0F2D72450D96EDA6ADF50256E020E11
:102708002426D3D742D83EE0630AF4E0100AD3E087
:10271800060ACBE12450D96EDA6ADECF1FF0DDCF8E
:1027280020F0020E2426010E256E255039D8F550CA
:102738001F5C0900F550205804E3252A050E2518CA
:10274800F4E125C021F019D021502AD8F5CF07F09F
:102758000A00F5CF08F01FC005F020C006F00DEC08
:1027680024F04EEC07F075EC24F00C50300F256E79
:1027780020D825C0DFFF114A122A21062128E4E1CA
:1027880004D890E116D8DF6A000C13C0F6FF14C015
:10279800F7FF134A142A0800F5CF25F02550120038
:1027A800020DD60EF324F66EB70EF420F76E09006C
:1027B800120011C0D9FF12C0DAFF120022C0F6FFC2
:1027C80023C0F7FF12003CD083D894EC1EF0560EBD
:1027D800056E200EBAEC10F04CEC1EF09CEC12F0DA
:1027E8004CEC1EF0F8EC14F029EC28F033D070D83B
:1027F80094EC1EF0A7EC12F094EC1EF0CDEC22F055
:10280800BAEC10F04CEC1EF0EDD7782A020E786482
:1028180002D0010E786E9CEC12F04CEC1EF053D8EE
:1028280037EC27F017D07806785002E1020E786E60
:102838009CEC12F04CEC1EF046D837EC27F00AD08E
:102848007750010AC1E0030AE0E0010AECE0070A58
:10285800CEE0010A74A62BD0720EF66EBE0EF76E8D
:1028680045EC0AF0000E57EC20F0730EF66EBE0E23
:10287800F76E45EC0AF0060E57EC20F0740EF66E73
:10288800BE0EF76E45EC0AF00C0E57EC20F00A0E5F
:10289800096E785000EC27F047EC0FF0120E57EC59
:1028A80020F0116A6DEC0DF0180E57EC20F0C90EEF
:1028B800076EB2EC24F07486780401E10ED0010EA4
:1028C8000001C86F010C050E776E78C005F0010C89
:1028D800CE0E056E270E066E12000001C86B1200A0
:1028E8003FD086D894EC1EF0E20E056E110EBAECBD
:1028F80010F04CEC1EF09CEC12F04CEC1EF074D86E
:1029080039D076D894EC1EF0A7EC12F094EC1EF0B7
:10291800CDEC22F0BAEC10F04CEC1EF065D829ECA6
:1029280028F028D00001862B630E866501D0866BBF
:102938009CEC12F04CEC1EF013EC12F0D0EC24F0EE
:1029480019D000018607862902E1630E866F9CEC88
:1029580012F04CEC1EF013EC12F0D0EC24F00AD07C
:102968007750010ABEE0030ADDE0010AEAE0070A3F
:10297800C8E0010A74A632D06A0EF66EBE0EF76E73
:1029880045EC0AF0000E57EC20F06B0EF66EBE0E0A
:10299800F76E45EC0AF0060E57EC20F06C0EF66E5A
:1029A800BE0EF76E45EC0AF00C0E57EC20F012EC58
:1029B80010F0865190EC25F000EC27F047EC0FF072
:1029C800120E57EC20F00A0E096E0001865100EC39
:1029D80027F047EC0FF0180E57EC20F0C90E076EE1
:1029E800B2EC24F074861200050E776E7496050C0E
:1029F800E80E056E280E066E120033D083D894ECCC
:102A08001EF04E0E056E240EBAEC10F04CEC1EF0C3
:102A18009CEC12F04CEC1EF0F8EC14F029EC28F0C9
:102A28002AD070D894EC1EF0CDEC22F0BAEC10F05D
:102A38004CEC1EF0A7EC12F094EC1EF0EDD756D833
:102A48009CEC12F04CEC1EF058D837EC27F013D061
:102A58004DD89CEC12F04CEC1EF04FD837EC27F018
:102A68000AD07750010ACAE0030AE9E0010AF0E057
:102A7800070AD7E0010A74A633D08E0EF66EBE0E92
:102A8800F76E45EC0AF0000E57EC20F08F0EF66E4C
:102A9800BE0EF76E45EC0AF0060E57EC20F0900ECD
:102AA800F66EBE0EF76E45EC0AF00C0E57EC20F0F1
:102AB8000001C35108E02B0E116E6DEC0DF0120EE3
:102AC80057EC20F007D02D0E116E6DEC0DF0120EA4
:102AD80057EC20F0116A6DEC0DF0180E57EC20F051
:102AE800C90E076EB2EC24F0748612000001C351BF
:102AF800010ED8A4000EC36F1200050E776EC3C076
:102B080005F0060C020E056E2A0E066E120033D072
:102B18007ED894EC1EF0020E056E2A0EBAEC10F068
:102B28004CEC1EF09CEC12F04CEC1EF0F8EC14F09F
:102B380029EC28F02AD06BD894EC1EF0CDEC22F0CA
:102B4800BAEC10F04CEC1EF0A7EC12F094EC1EF06E
:102B5800EDD756D89CEC12F04CEC1EF05DD837EC53
:102B680027F013D04DD89CEC12F04CEC1EF054D842
:102B780037EC27F00AD07750010ACAE0030AE9E0E7
:102B8800010AF0E0070AD7E0010A74A633D08A0EDA
:102B9800F66EBE0EF76E45EC0AF0000E57EC20F00C
:102BA8008B0EF66EBE0EF76E45EC0AF0060E57EC6D
:102BB80020F08C0EF66EBE0EF76E45EC0AF00C0E89
:102BC80057EC20F00001C45108E02B0E116E6DEC9B
:102BD8000DF0120E57EC20F007D02D0E116E6DEC93
:102BE8000DF0120E57EC20F0116A6DEC0DF0180E76
:102BF80057EC20F0C90E076EB2EC24F07486120070
:102C08000001C451010ED8A4000EC46F1200160EA4
:102C1800056E2B0E066E1200050E776EC4C005F009
:102C2800050C42D081D894EC1EF0D7EC10F0BAEC29
:102C380010F04CEC1EF09CEC12F04CEC1EF0F8EC92
:102C480014F029EC28F03AD06FD894EC1EF0A7ECD9
:102C580012F094EC1EF0CDEC22F0BAEC10F04CEC33
:102C68001EF0EDD70001C62B080EC66501D0C66B55
:102C78009CEC12F04CEC1EF04FD837EC27F051D8F2
:102C880079EC27F01BD00001C607C62902E1080E1F
:102C9800C66F9CEC12F04CEC1EF03ED837EC27F0D7
:102CA80040D879EC27F00AD07750010ABBE0030A34
:102CB800D9E0010AE8E0070AC7E0010A74A626D0AD
:102CC800D2EC10F045EC0AF0000E57EC20F0CDECF9
:102CD80010F045EC0AF0060E57EC20F0C8EC10F0A6
:102CE80045EC0AF00C0E57EC20F00A0E096E0001B4
:102CF800C65100EC27F047EC0FF0120E57EC20F00D
:102D0800116A6DEC0DF0180E57EC20F0C90E076E25
:102D1800B2EC24F074861200050E776EC6C005F07A
:102D2800030CC6C007F00A0C2A0E056E2C0E066EA0
:102D3800120042D081D894EC1EF0CE0E056E270EFC
:102D4800BAEC10F04CEC1EF09CEC12F04CEC1EF0BF
:102D5800F8EC14F029EC28F039D06ED894EC1EF079
:102D6800A7EC12F094EC1EF0CDEC22F0BAEC10F0C7
:102D78004CEC1EF0EDD77A2A050E7A6402D0010ECB
:102D88007A6E9CEC12F04CEC1EF0050E776E51D862
:102D980037EC27F0C1EC23F019D07A067A5002E11B
:102DA800050E7A6E9CEC12F04CEC1EF0050E776E58
:102DB80040D837EC27F0EED77750010ABBE0030A7A
:102DC800DAE0010AEAE0070AC8E0010A74A62BD093
:102DD800760EF66EBE0EF76E45EC0AF0000E57EC56
:102DE80020F0770EF66EBE0EF76E45EC0AF0060E72
:102DF80057EC20F0780EF66EBE0EF76E45EC0AF032
:102E08000C0E57EC20F00A0E096E7A5000EC27F0F1
:102E180047EC0FF0120E57EC20F0116A6DEC0DF034
:102E2800180E57EC20F0C90E076EB2EC24F0748629
:102E380012007AC005F0000C3A0E056E2D0E066ED3
:102E480012003DD07FD894EC1EF0160E056E2B0EA6
:102E5800BAEC10F04CEC1EF09CEC12F04CEC1EF0AE
:102E6800F8EC14F029EC28F034D06CD894EC1EF06F
:102E7800CDEC22F0BAEC10F04CEC1EF0A7EC12F0FE
:102E880094EC1EF0EDD70001C52B010EC56501D0ED
:102E9800C56B9CEC12F04CEC1EF04FD837EC27F0C9
:102EA80018D00001C507C52902E1010EC56F9CECC9
:102EB80012F04CEC1EF041D837EC27F00AD07750CE
:102EC800010AC0E0030ADFE0010AEBE0070ACDE0EF
:102ED800010A74A62CD0660EF66EBE0EF76E45EC8F
:102EE8000AF0000E57EC20F0670EF66EBE0EF76E75
:102EF80045EC0AF0060E57EC20F0680EF66EBE0E92
:102F0800F76E45EC0AF00C0E57EC20F00A0E096E2D
:102F18000001C55100EC27F047EC0FF0120E57ECFA
:102F280020F0116A6DEC0DF0180E57EC20F0C90E68
:102F3800076EB2EC24F074861200050E776EC5C0D9
:102F480005F0040C4A0E056E2E0E066E12000001E6
:102F5800C05118E0C06B0101EF6B11D0EF515CD884
:102F6800DE50DE1006E1EF5167D8010EDE6EDD6A35
:102F780005D0EF5151D8DE06000EDD5AEF2B7950FF
:102F8800EF5DECE30101F06B43D0F05155D8DE045E
:102F9800DE103CE1F05148D8DECFEDF1DDCFEEF1A7
:102FA800F05152D8DE50DE1009E1F0513DD8DECFA5
:102FB80005F0DDCF06F094EC1EF01BD0F0513CD8A4
:102FC800DE6ADD6AF05128D8DE50DE1012E1706842
:102FD8007168F05139D8DECF72F0DDCF73F07050E0
:102FE800722671507322F05117D872C0DEFF73C079
:102FF800DDFF01D80BD005000101FA6EED51FD6E21
:10300800EE51FE6EF850FF6EFA5012000101F02BDF
:103018007950F05DBAE31200080D020EF324D96E60
:10302800010EF420DA6E1200080D000EF324D96E9A
:10303800010EF420DA6E1200080D060EF324D96E84
:10304800010EF420DA6E1200080D040EF324D96E76
:10305800010EF420DA6E120056EC24F0D8EC27F0BA
:10306800AAEC25F096EC27F082EC28F00EEC28F07C
:1030780089EC26F042EC28F05FEC26F070EC1BF0AF
:10308800066A056A20EC28F07A6E066A010E056E5B
:1030980020EC28F0786E780403E10001C86B01D0B9
:1030A8005BD8066A020E056E20EC28F00001C76F97
:1030B800EAEC10F020EC28F0E5EC10F079EC27F0C1
:1030C800C1EC23F07FEC28F03AEC28F08DEC0BF003
:1030D800D2EC1CF0940E056E070E066E086A280ED8
:1030E800076E31D84CEC1EF0160E056E420E2FD826
:1030F8002AD84CEC1EF0066A040E056E20EC28F067
:103108000001C56F066A050E056E20EC28F0000167
:10311800C46F066A060E056E20EC28F00001C36F26
:10312800066A070E056E20EC28F00001C26F066AD9
:10313800080E056E20EC28F00001C16F066A030E28
:10314800056E32EF28F00A6A140E096E140C066E2A
:10315800086A640E076E640C010E0001C86F010C4A
:10316800030E73D82AEC1CF0236E23501F08246E1C
:103178000A0E6BD82AEC1CF0236E23501F08256E0C
:1031880052D8030EDF6404D04ED8090EDF6429D06C
:103198004AD8030EDE1804E152D8DE50245C21E33D
:1031A80042D8030EDE1809E14AD824C0DFFFDF50F9
:1031B80004E03FD8030EDF6014D035D80A0EDE18BD
:1031C80004E13DD82550DE5C0CE32DD80A0EDE184C
:1031D8000EE135D825C0DFFFDF5009E02AD8DF60CF
:1031E80006D02250D96EDA6A010EDF6E04D0225062
:1031F800D96EDA6ADF6A2250D96EDA6ADF50D8B43B
:10320800120017D8170EDE1803E113D8DF6A000C76
:1032180010D82150E16EE26A020EE126E750236ED3
:103228002328DF6E12002150D96EDA6A050ED926DE
:10323800050C2150D96EDA6A020ED926020C2150EB
:10324800D96EDA6A040ED926040C196E2150D96E8B
:10325800DA6A060ED926DF501A6E1F0C27D0640EC4
:10326800056E320E066E94EC1EF0CDEC22F0BAEC30
:1032780010F04CEC1EF0A7EC12F094EC1EF0F8ECF9
:1032880014F029EC28F01CD059D89CEC12F04CEC26
:103298001EF05BD837EC27F013D050D89CEC12F016
:1032A8004CEC1EF052D837EC27F00AD07750010AC0
:1032B800D6E0030AE9E0010AF0E0070AD0E0010AD3
:1032C80074A636D0610EF66EBE0EF76E45EC0AF0A7
:1032D800000E57EC20F0620EF66EBE0EF76E45EC4F
:1032E8000AF0060E57EC20F0630EF66EBE0EF76E6F
:1032F80045EC0AF00C0E57EC20F0640EF66EBE0E8C
:10330800F76E45EC0AF0120E57EC20F00001C1519F
:1033180008E02B0E116E6DEC0DF0180E57EC20F036
:1033280007D02D0E116E6DEC0DF0180E57EC20F035
:10333800C90E076EB2EC24F0748612000001C15168
:10334800010ED8A4000EC16F1200050E776EC1C021
:1033580005F0080C5ED029EC28F012EC10F0FA51B8
:1033680090EC25F000EC27F0000913E1010E5FD87E
:103378001AEC20F061D800EC27F00CEC10F00D0EE0
:1033880002EC1EF0B00E58EC0EF0130E02EC1EF01C
:103398001ED0010E4CD81AEC20F012EC10F0FA51A5
:1033A80090EC25F000EC27F00CEC10F00D0E02EC80
:1033B8001EF042D800EC27F00CEC10F0130E02ECD3
:1033C8001EF0B00E58EC0EF0190E02EC1EF028D8C4
:1033D8006FEC0EF04CEF1EF0050E776E4BEC22F002
:1033E800A7EC12F094EC1EF02CD894EC1EF000011F
:1033F800C35107E0240E056E1B0EBAEC10F04CEF1B
:103408001EF0CDEC22F0BAEC10F04CEC1EF060EFA0
:103418000FF07750040AE0E0010A9DE0030A120069
:10342800060E776E0A0E056E510E066E12000C6EB1
:10343800C90E0D6E0E6A030C0A0E096E0001FA51D0
:1034480012005C0E056E330E066E120068D06ED840
:103458001CE0F0C005F0F1C006F0F2C007F0F3C0C0
:1034680008F0640E096E0A6A0B6A0C6AD0EC20F048
:1034780005C026F006C027F026C01CF027C01DF0A6
:1034880020EC1DF0EBEC21F019D029EC28F0040E0B
:103498001BEC1AF01AEC20F0450E58EC0EF00B0E4F
:1034A80002EC1EF0520E58EC0EF0110E02EC1EF05B
:1034B800520E58EC0EF0170E02EC1EF014EC1AF037
:1034C800010E086E900E076E0A6A096A4CEF1EF02C
:1034D800050E776E2BD80FE076EC0EF0470E136EC4
:1034E800BE0E146E53EC13F0930E0B6E010E0C6EA1
:1034F80076EC25F002D04BEC22F060EC0FF0A7EC54
:1035080012F094EC1EF0540E056E340E066E94EC18
:103518001EF0CDEC22F0BAEC10F04CEF1EF0775014
:10352800040AD6E0010A93E0030A12000001F051F0
:10353800F111F211F31112001C6E216A226A236A3A
:10354800246A256A61D877EC28F0EC0E69EC28F03B
:103558001C5069EC28F07BEC28F0ED0E69EC28F0A3
:10356800010E49EC27F01D6E1E6A1F6A206A010EC3
:1035780049EC27F0216E226A236A246A000E49EC7E
:1035880027F0256E41D873EC28F021C00DF022C039
:103598000EF023C00FF00C6A1DC010F01EC011F011
:1035A8001FC012F020C013F011C013F010C012F0A9
:1035B800116A106A0C501024146E0D501120156EEB
:1035C8000E501220166E0F501320176E255014241B
:1035D800186E26501520196E275016201A6E28507E
:1035E80017201B6E050E05D0D8901B321A321932DF
:1035F8001832E82EF9D718C008F019C009F01AC017
:103608000AF01BC00BF01200266A276A286A12000B
:1036180018C01CF01D6A1E6A17341C3601E31D8091
:103628001C501F6E1F5001E153D01BC01CF01D6AB7
:103638001E6A1A341C3601E31D801C50246E245067
:1036480001E146D024507B0F1F2618C024F01B50E0
:10365800241A800E2416178E1A8E000E1B16206A46
:10366800216A226A070E236E16B02BD8D89018321A
:1036780017321632D89019361A361B36232EF4D73D
:10368800090E236E16B01DD8D8901832173216328C
:10369800D890223221322032232EF4D720C005F0D0
:1036A80021C006F022C007F01FC008F024C009F0AE
:1036B800D9EC1EF005C016F006C017F007C018F0C8
:1036C8001200195020261A5021221B5022221200C3
:1036D800166A176A186A1200880E4FEC23F008C0A1
:1036E80099F009C09AF08A0E4FEC23F008C097F0C1
:1036F80009C098F08C0E4FEC23F008C095F009C073
:1037080096F08E0E4FEC23F008C0F4F009C0F5F0E7
:10371800900E4FEC23F008C093F009C094F0920E7D
:103728004FEC23F008C091F009C092F0940E4FECD2
:1037380023F008C08FF009C090F0960E4FEC23F0EC
:1037480008C08DF009C08EF0980E4FEC23F008C029
:103758008BF009C08CF09A0E4FEC23F008C089F06A
:1037680009C08AF09C0E4FEC23F008C087F009C00E
:1037780088F09E0E4FEC23F008C091F109C092F139
:10378800CC0E076EF50E88EC27F0B70E076EF40E18
:1037980088EF27F027C029F02A6A2B6A26342936B1
:1037A80001E32A802950336E335005E1256A266AE1
:1037B800276A286A1200170E296E25C02AF026C02B
:1037C8002BF027C02CF029282D6E04D0D8902C324D
:1037D8002B322A322D2EFAD72A502E6E268E276AA1
:1037E80025502F6E2650306E2750316E326A8E0E5D
:1037F800335E33AE0CD03350800A8F0FD7E3D890A6
:103808003232313230322F32333EF9D70CD0170EE4
:10381800336407D0CBD7D8902F363036313632368E
:1038280033063350F8E12E5008E0321E311E301EA8
:103838002F6C000E3022312232222FC025F030C0EA
:1038480026F031C027F032C028F012001D6E195042
:103858000E08056E000ED8A0E82A0008066E086A51
:103868000C0E076E94EC20F005501F6E1F501A5C6A
:10387800206E1F500C0DF3501924FE0F1E6E010E02
:10388800086E900E076E20C005F0066A94EC20F0D2
:1038980020501DC01BF01C6A1B26000E1C22204055
:1038A800E8423F0B1B26000E1C2221D8086A0C0E8A
:1038B800076E1E501F0DF3CF05F0F4CF06F094EC01
:1038C80020F015D8640E056E205090EC25F01B5E94
:1038D800000E1C5A580E1B24136E1B0E1C20146E4F
:1038E800166A070E156EB7EC21F01350120005503A
:1038F8001B2606501C221200180EF66E510EF76E8B
:10390800000EF86E01EEE9F010EE04F00900F5CFB4
:10391800EEFFE550E150FAE1140EF66E510EF76E27
:10392800000EF86E00EEFBF010EE04F00900F5CF83
:10393800EEFFE550E150FAE1100EF66E510EF76E0B
:10394800000EF86E00EE75F010EE04F00900F5CFE9
:10395800EEFFE550E150FAE103EE00F0960EEE6A54
:10396800E806FDE102EE00F0FA0EEE6AE806FDE177
:1039780001EE00F0E90EEE6AE806FDE100EE80F0E7
:103988007B0EEE6AE806FDE1746A7A6A796A7B90D2
:103998007B92000EF86E0001A5EF22F00F6E8B846B
:1039A8008B920EC0A3F01F0E0C6EBE0E0D6E6AEC4D
:1039B80027F01A0E0C6EBE0E0D6E17EC28F00FC015
:1039C80007F0050EE3EC27F0076A110EE3EC27F089
:1039D8000EC007F0120EE3EC27F0076A130EE3ECB3
:1039E80027F0076A140EE3EC27F0076A150EE3ECDC
:1039F80027F0076A160EE3EC27F0260E076E060E70
:103A0800E3EC27F0080E076E000EE3EC27F0030E38
:103A1800076E010EE3EC27F0030E076E020EE3ECCF
:103A280027F04F0E076E040EE3EC27F0076A1C0E12
:103A3800E3EC27F05CEF25F01E6AC50E1E2417EC98
:103A480022F0DF6A1E2A200E1E64F7D7040E0C6EC1
:103A5800C50E0D6E010E0E6E030E1AEC20F0086AEC
:103A6800640E32D80DEC24F04EEC07F075EC24F01F
:103A78000C50116E20D80B0E57EC20F0086A0A0E75
:103A880023D80DEC24F04EEC07F075EC24F00C5024
:103A9800116E11D8110E57EC20F01CC00CF01DC08F
:103AA8000DF04FEC13F075EC24F00C50116E03D8A8
:103AB800170E57EF20F075C012F076C013F0C50E40
:103AC800146E010E156E1200076E1CC005F01DC0A5
:103AD80006F01200106A1050CA0FD96EDA6A105038
:103AE80011EC22F0102A1E0E1064F5D7040E000106
:103AF800BA650DD031D807E1BA2B1F0EBA651BD0B5
:103B0800BB6BBA6B1200E86BBA6BBB2B14D024D812
:103B1800050DEA0E0E6EB70E0F6EF3500E26F4501A
:103B28000F22BA510E26000E0F220EC0F6FF0FC04C
:103B3800F7FFD7EC1FF0C90E076EB2EC24F0106A3D
:103B48000D0E0E6EFC0EE82EFED70E2EFCD7102A98
:103B58003B0E1064F5D73B0CBB510B24D96E000EFD
:103B68000C20DA6EDF501200136E156A166A1350B5
:103B7800C90F1624D96EDA6A155007080E6E0D5053
:103B8800030DE40E0F6EBD0E106EF3500F26F450A9
:103B9800102216500F26000E10220FC0F6FF10C07C
:103BA800F7FF0800F5CF11F00E2A02D0D890113295
:103BB8000E2EFCD71350C90F1624E16EE26AE750A7
:103BC800126ED89012341110DF6E162A020E166487
:103BD800CED7146A0D0E0E6EFC0EE82EFED70E2EF2
:103BE800FCD7142A270E1464F5D7C90E076EB2EC59
:103BF80024F0152A070E1564B9D7070C196E1B6A2D
:103C08001C6A1950C90F1C24D96EDA6A1B500708A0
:103C1800146E1150050D12C015F013C016F0F350B4
:103C28001526F45016221C501526000E162215C013
:103C3800F6FF16C0F7FF0800F5CF17F0142A02D0D8
:103C4800D8901732142EFCD71950C90F1C24E16ED6
:103C5800E26AE750186ED89018341710DF6E1C2AE5
:103C6800040E1C64CED71A6A0D0E146EFC0EE82ED4
:103C7800FED7142EFCD71A2A270E1A64F5D7C90EB8
:103C8800076EB2EC24F01B2A070E1B64B9D7070C89
:103C98000550061001E112000D6A1AD00D5018ECFB
:103CA80018F00550DE1813E10650DE1810E1F29EF8
:103CB8000D5010EC18F02FD80D5028EC18F026D81D
:103CC8000D5020EC18F0DE6ADD6AF28E000C0D2A29
:103CD80079500D5CE3E30F0E79600F0CF29E79507A
:103CE80018EC18F005C0DEFF06C0DDFF795010ECB7
:103CF80018F011D8795028EC18F008D8795020EC31
:103D080018F0DE6ADD6A792AF28E000C09C0DEFF3F
:103D18000AC0DDFF120007C0DEFF08C0DDFF120089
:103D28000D6A3FD00D5018EC18F00550DE1838E138
:103D38000650DE1835E1F29E0D50076E086A0968D4
:103D48000A6879500B6E0C6A09500B260A500C222F
:103D580007500B1803E108500C181FE07950076E44
:103D6800086AD89007360836D89007360836D890AB
:103D780007360836F80E0724D96E000E0820DA6ECA
:103D88000D50080D000EF324E16E010EF420E26ED2
:103D9800070EDBCFE3FFE806FCE27906F28E12009D
:103DA8000D2A79500D5CBEE31200085004E005505E
:103DB8000610071006E1056A066A076A1200082A53
:103DC8002DD80A6A0B6AFE0E07142DD807E0F7D71C
:103DD800082A052A000E0622072220D80A6A0B6A3A
:103DE800075021D806E0F4D70806D89005360636DD
:103DF800073606BE03D0020E0860F6D708A0069E56
:103E0800D890083208500712095001E0078E05C003
:103E180005F006C006F007C007F01200D890073278
:103E28000632053212000C6E0A500B100C101200EC
:103E38000D50D96EDA6A060E49EC26F0DF6E0D5089
:103E4800D96EDA6A0D5022D8F9EC27F02DD8050E74
:103E580049EC26F01F0B28D80C5018D8F9EC27F09D
:103E680019D8040E49EC26F03F0B14D80B500ED885
:103E7800F9EC27F014D8030E49EC26F0070B0FD8FD
:103E88000A5004D8F9EC27F0DF6E1200E16EE26AFE
:103E9800E7501200DF6E0B50D96EDA6A1200DF6E3F
:103EA8000A50D96EDA6A1200DF6E0C50D96EDA6ADF
:103EB80012000600D9CF03F0DACF04F0F2BAF2A468
:103EC80003D05AEC28F030D0F2B8F2A211D0F29216
:103ED800010EF1AC000EFF0A026E023A02460246DB
:103EE800F1500218BF0B0218F16E7FEC21F01CD0C4
:103EF8009DB09EA008D09E903C0ECF6EB00ECE6EA8
:103F080004EC28F011D0A0B2A1A208D0A192F00E22
:103F1800B36E600EB26EDCEC1FF006D0F2BC9DAA48
:103F280003D09EBA25EC25F004C0DAFF03C0D9FF00
:103F38007B921100096A0950CA0FD96EDA6A0950D2
:103F480011EC22F0092A1E0E0964F5D7040E0001AF
:103F5800BA650DD020D807E1BA2B1F0EBA65010C3F
:103F6800BB6BBA6B000CE86BBA6BBB2B010C13D89C
:103F7800050DEA0E076EB70E086EF3500726F450CB
:103F88000822BA510726000E082207C0F6FF08C00B
:103F9800F7FF09D8010CBB510524D96E000E062085
:103FA800DA6EDF5012000800F5CFE8F0BA2B1200E5
:103FB8000001AC510AE0A62B1E0EA66103D0800EAC
:103FC8008C1A03D0A66BAC6B8C9EC551D8B412006A
:103FD800B351D8B41200FE6BA4510BE1A52B140EFB
:103FE800A56103D0800E8C1A04D0A56B010EA46FB6
:103FF8008C9EA40502E19B4B9C2B2D0E9B5D010E14
:104008009C5904E39B6B9C6B020EA46F020EA419CF
:10401800D8A41200A52B140EA56103D0800E8C1A0B
:10402800800CA56BA46BB36B8C9E1200126E010EF4
:10403800116E146A136A0C50070D930E0F6EB70EAB
:10404800106EF3500F26F450102214500F26000E55
:1040580010220FC0F6FF10C0F7FF0800F55011142A
:104068000BE013C005F00DC006F00EC007F01250AB
:104078001424D9EC26F00AD013C005F00DC006F0C0
:104088000EC007F01250142433EC26F0D8901136E5
:10409800132A070E1364CFD7010E116E142A060EC9
:1040A8001464C8D7060C196E010E186E1B6A1A6ABA
:1040B8001150050D12C016F013C017F0F350162654
:1040C800F45017221B501626000E172216C0F6FFB2
:1040D80017C0F7FF0800F55018140BE01AC005F0D8
:1040E80014C006F015C007F019501B24D9EC26F0AF
:1040F8000AD01AC005F014C006F015C007F0195010
:104108001B2433EC26F0D89018361A2A070E1A64A6
:10411800CFD7010E186E1B2A040E1B64C8D7040CD7
:104128000A6A08AE06D0076C081ED8B0082A010E25
:104138000A6E06AE06D0056C061ED8B0062A010E19
:104148000A1A0B6A0C6A075008101BE0010E096E68
:1041580004D0D89007360836092A08AEFAD7D8907E
:104168000B360C360750055C0850065805E3075017
:10417800055E0850065A0B80D89008320732092E7F
:10418800EED70A5004E00B6C0C1ED8B00C2A0BC0FA
:1041980005F00CC006F012000D6A0E6A0F6A106A6C
:1041A80009500A100B100C1029E0010E116E06D0F0
:1041B800D89009360A360B360C36112A0CAEF8D7C9
:1041C800D8900D360E360F3610360950055C0A5059
:1041D80006580B5007580C50085809E30950055E5B
:1041E8000A50065A0B50075A0C50085A0D80D8909E
:1041F8000C320B320A320932112EE2D70DC005F00B
:104208000EC006F00FC007F010C008F01200E9C099
:10421800B0F0EAC0AFF02ED81CEC22F0EC0E0A6E1B
:10422800ED0E0B6EEE0E0C6EEF0E0D6E1CEC1FF00D
:104238000001B051E91901E07482030EE91902E1A5
:10424800010EFE6F060EEB650BD0180EEB6108D061
:10425800EA5106E1E95104E1FE5102E0010EB36FB3
:10426800C15106E0E90E216EF60E226EB4EF18F089
:10427800F66B1200EB0E0A6EEA0E0B6EE90E0C6E70
:1042880012000F6A116A106AB60E0B6EB70E0C6E2A
:104298000F500B26000E0C2211500B26000E0C227C
:1042A8000BC0F6FF0CC0F7FF0800F5CF0DF010505B
:1042B800C90FD96EDA6A0D50DF160F2A070E0F6480
:1042C80001D00F6A102A1F0E1064DED7C90E076EC0
:1042D800B2EC24F00E6A0D0E0B6EFC0EE82EFED723
:1042E8000B2EFCD70E2A630E0E64F5D7112A070E83
:1042F8001164C9D7070C0001C851D8B41200B12BFA
:10430800080EB1191BE1B16B19D0360ED86FD96FF1
:10431800360C240E24D0240ED86FD96F240C240E0A
:10432800D86FD96B1200D86BD96B1200120EF8D760
:10433800120ED86FD96F120C120E11D0B151E5E0E0
:10434800010AE7E0030AE7E0010AE9E0070AEBE00F
:10435800010AECE0030AECE0010AEEE01200D86F73
:10436800360ED96F360C186A14AE06D0136C141EAC
:10437800D8B0142A010E186E16AE04D0156C161E8D
:10438800D8B0162A1550161017E0010E176E04D073
:10439800D89015361636172A16AEFAD71550135C6C
:1043A8001650145804E31550135E1650145AD8903A
:1043B80016321532172EF2D7185004E0136C141E5B
:1043C800D8B0142A13C013F014C014F01200100E41
:1043D8000E6E0F0E0F6E0C6AC50E0E2424D80E50EA
:1043E8001CD80E2AC50E0F241ED80F5016D80F063B
:1043F800C90E076EB2EC24F00D6A0D0E0B6EFC0EA2
:10440800E82EFED70B2EFCD70D2A1D0E0D64F5D70E
:104418000C2A0F0E0C64E0D70F0CC90FE16EE26A8C
:10442800DFCFE7FF1200D96EDA6A010EDA22120036
:104438000C501AEC26F049EC26F0DF6E0C50D96EC1
:10444800DA6A0C504AEC1FF0F9EC27F016D8010E86
:1044580049EC26F012D80B504AEC1FF0F9EC27F083
:1044680011D8020E49EC26F03F0B0CD80A504AEC42
:104478001FF0F9EC27F0DF6E1200DF6E0B50D96EDB
:10448800DA6A1200DF6E0A50D96EDA6A12000ED0AC
:1044980027EC23F011C013F012C014F0166A050EB1
:1044A800156EB7EC21F013500001B56F0001B5513E
:1044B800B419EEE0B5C0B4F0B551020DE00EF32426
:1044C800F66EB70EF420F76E0900F5CFA1F00A00DA
:1044D800F5CFA2F00500FA6EA151FD6EA251FE6E55
:1044E800F850FF6EFA5012000E6A26D8DF501FE00F
:1044F8000C6A22D80E50C90FE16EE26AE7500B6EC3
:10450800D8900B34DF6EC90E076EB2EC24F00D6A3A
:104518000D0E0B6EFC0EE82EFED70B2EFCD70D2AC7
:10452800090E0D64F5D70C2A070E0C64E2D70E2A83
:104538001F0E0E64DAD71F0C0E50C90FD96EDA6A37
:104548001200820E0001FF6FDD0EE82EFED7FF2F4E
:10455800FCD700D030EC18F029EC28F00001C86B2B
:10456800010EC86FF29E15D8ABEC18F0A7EC18F046
:104578004CEC1EF0EA0E056E460E066E086A076AD7
:104588000A6A010E096E4CEC1EF0F28EABEC17F0C5
:10459800FDD7BE0E056E140E1200640E0E6E0D6A67
:1045A8000F6A0F50CA0FD96EDA6A0F5011EC22F059
:1045B8000F2A1F0E0F64F5D70001E86BC90E076EAE
:1045C800B2EC24F00C6A08D00D0E0B6EFC0EE82E2F
:1045D800FED70B2EFCD70C2A0E500C5CF5E30A0E06
:1045E8000E6401D00E5E0D2A1F0E0D64D9D71F0C64
:1045F800640E0E6E0D6A1F0E0F6E0F50C80FD96E27
:10460800DA6A0F5011EC22F00F060F50F6E10001A4
:10461800C96BC90E076EB2EC24F00C6A08D00D0EF7
:104628000B6EFC0EE82EFED70B2EFCD70C2A0E5074
:104638000C5CF5E30A0E0E6401D00E5E0D2A1F0E07
:104648000D64D9D71F0CE9C105F0EAC106F0EBC12A
:1046580007F0ECC108F06D0E096E4E0E0A6EC60E1C
:104668000B6E410E0C6EE7EC23F005C0E9F106C0B5
:10467800EAF107C0EBF108C0ECF1390E0101E927B6
:10468800300EEA23000EEB23EC23EB51116E7F0E64
:10469800EC15126E12000C6E0F6A106A77EC28F097
:1046A800EC0E69EC28F00C5069EC28F07BEC28F053
:1046B800ED0E69EC28F0010E49EC27F00F6E106A38
:1046C800000E49EC27F00D6E0E6A73EC28F00D50C1
:1046D8000B6E0A6A0F500A10086E10500B10096E04
:1046E800120081B202D0010E0BD081B402D0020EAA
:1046F80007D081B602D0030E03D081B803D0040ED0
:10470800056E01D0056A05500FE0290E0001AB6166
:10471800290CAB2B280EAB19D8A4120005C077F0D2
:10472800AB6B010EAC6F010C0001AB6B12008E0E6F
:10473800156E06D0D89010320F320E320D32152A6F
:10474800116A126A136A1050146E11501210131065
:104758001410F0E10DC005F00EC006F00FC007F010
:1047680015C008F0000E096ED9EC1EF005C00DF05A
:1047780006C00EF007C00FF0120019D0B20E756E09
:10478800BD0E766E1200800E756EBD0E766E12002E
:104798004E0E756EBD0E766E12001C0E756EBD0E39
:1047A800766E1200EA0E756EBC0E766E12007A50A6
:1047B800010AE4E0030AE7E0010AEAE0070AEDE09B
:1047C800010AF0E012000D6A0E6A0F6A106A05A06D
:1047D80008D009500D260A500E220B500F220C50FB
:1047E8001022D89009360A360B360C36D890083283
:1047F8000732063205320550061007100810E7E1A7
:104808000DC005F00EC006F00FC007F010C008F08C
:1048180012000A6A0B6A075008101BE0010E096EA5
:1048280004D0D89007360836092A08AEFAD7D890A7
:104838000A360B360750055C0850065805E3075042
:10484800055E0850065A0A80D89008320732092EA9
:10485800EED70AC005F00BC006F012000C6A1F0E56
:104868000D6E0E6A0C5019D80C2A0D5016D80D066C
:10487800C90E076EB2EC24F00F6A0D0E0B6EFC0E1B
:10488800E82EFED70B2EFCD70F2A1D0E0F64F5D786
:104898000E2A0F0E0E64E6D70F0CC90FD96EDA6A0E
:1048A800DF6A12008B6A180E946E8A6A1F0E936E66
:1048B800F19E8C6A956A896A010E926EC30EC216C1
:1048C800C150F00B0E09C16ECF0EC116C050F80BC7
:1048D8000209C06EC08EC280F18CF292F28882808A
:1048E80012000E500F1017E0010E106E04D0D89071
:1048F8000E360F36102A0FAEFAD70E500C5C0F503A
:104908000D5804E30E500C5E0F500D5AD8900F321C
:104918000E32102EF2D70CC00CF00DC00DF01200A4
:1049280082909490070E056E7D0EE82EFED7052E18
:10493800FCD700F082809480C80E00D0E82EFDD706
:10494800000E82B0010E066E060E056E800EE82E71
:10495800FED7052EFCD700D0065012000A6A8C90AC
:10496800096A0950F80D0750F3240A24D96EDA6A47
:10497800180ED926DF50086E0A28F0EC25F00850EA
:10498800F0EC25F0092A030E0964EBD78C800A2A7B
:10499800070E0A64E4D7070C156E1550EDEC26F0E7
:1049A800106E030EA4EC27F01250EDEC26F0106EFA
:1049B800040EA4EC27F01350EDEC26F0106E050E53
:1049C800A4EC27F01450EDEC26F0106E060EA4EFC0
:1049D80027F0086E0A6A0AC006F008C007F0062A1F
:1049E80002D0D8900732062EFCD70750096E010E68
:1049F8000916095025EC27F00A2A070E0A64EBD796
:104A0800D20E00D0E82EFDD71200076A086AB2EC71
:104A180027F000090CE008C005F0010E066E052A13
:104A280002D0D8900636052EFCD706500712F00E95
:104A380000D0E82EFDD7082A070E0864E8D70750EB
:104A48001200ABA202D0AB98AB88000E0001A825DB
:104A58000FD8AECFDFFFA82B950EA86501D0A86BA5
:104A6800B22BB205016E950E0164950CB26B120063
:104A7800D96EDA6A030EDA221200056E0001A95116
:104A8800FDE09DB805D09EA8FED705C0ADFF120079
:104A98009D98780EAA25D96EDA6A010EDA2205C029
:104AA800DFFFAA2B0F0EAA6501D0AA6BA907120077
:104AB8008B94E20E74EC26F08B84700E076E070E52
:104AC800E3EC27F08B920B0E076E000EE3EC27F059
:104AD8008B82C00E00D000D0E82EFCD700D000D0CA
:104AE80000D0120010D0C90E076EB2EC24F00E6A86
:104AF8000D0E0D6EFC0EE82EFED70D2EFCD70E2ADD
:104B08003B0E0E64F5D70BC005F00CC006F09EEC0A
:104B18001FF00009E8E11200066E086A055014E06B
:104B2800010E076E03D0D8900536072A05AEFBD7CD
:104B3800D89008360550065C03E30550065E0880E9
:104B4800D8900532072EF4D7085012008C80010E39
:104B5800076E0C0E79EC27F0076A090E79EC27F03E
:104B6800070E076E0B0E79EC27F0020E076E0A0E81
:104B780079EC27F0076A0F0E79EF27F0146E1350BF
:104B8800EDEC26F0106E000EA4EC27F01250EDECC0
:104B980026F0106E010EA4EC27F01450EDEC26F070
:104BA8003F0B106E020EA4EF27F00A6E8B940A508A
:104BB80074EC26F00B6A0BD007C0F6FF08C0F7FFAD
:104BC8000800F55074EC26F0074A082A0B2A095009
:104BD8000B5CF2E38B841200056E066A05AE02D008
:104BE8008C8401D08C948C8200F000F000F000F0EE
:104BF80000F000F000F08C92D8900536062A070ED7
:104C08000664ECD7070C096E8B94095074EC26F0F7
:104C18000A6A07D007500A2409D874EC26F0DF6E18
:104C28000A2A08500A5CF6E38B841200D96EDA6A05
:104C3800000C0001FC5103E1460EFB5D05E3030E89
:104C4800076E0A0E79EF27F0FC5108E1330EFB5D81
:104C5800D8B01200076A0A0E79EC27F012000B6E22
:104C680005C008F0010E096E082A02D0D89009364E
:104C7800082EFCD7091C0A6E0B500624D96E000EAC
:104C88000720DA6E0A50DF161200086E77EC28F05B
:104C9800D00E69EC28F0085069EC28F07BEC28F07D
:104CA800D10E69EC28F0000E49EC27F0096E73EC80
:104CB80028F009501200948C948EAC84AC98AC8A7D
:104CC800AB88AB8EB886040EB06E100EAF6E0001C6
:104CD800AA6B100EA96FA86BA76BB26B9D8A120006
:104CE800056E066A05AE02D08C8801D08C98D890E3
:104CF80005368C8A010E83A6000E05128C9A062AA8
:104D0800070E0664EFD70550120094EC24F0000952
:104D1800D8A41200CC0EEDEC24F04E0EEDEC24F0ED
:104D2800000EEDEC24F0000EEDEC24F07F0EEDEF1C
:104D380024F005C007F006C008F002D0074A082A88
:104D480007C0D9FF08C0DAFFDF50F8E10550075C5B
:104D5800056E06500858066E1200FA0EA0EC1AF0FE
:104D680008C02DF009C02EF00AC02FF00BC030F09B
:104D78002DC029F02EC02AF02FC02BF030C02CF007
:104D88001200F70EA0EC1AF008C02DF009C02EF0A2
:104D98000AC02FF00BC030F02DC029F02EC02AF029
:104DA8002FC02BF030C02CF012000A6E05C008F09E
:104DB800010E096E082A02D0D8900936082EFCD7B1
:104DC8000A500624D96E000E0720DA6E0950DF1249
:104DD80012000F6E0A0E096E0F5000EC27F00D6ED0
:104DE8000F0E0D160A0E056E0F5090EC25F00E6E84
:104DF8000E38F00B0D1012000A6E080E0B6E0C6ABE
:104E0800D8900A340C340C6ED8900A3609500C5CD1
:104E180002E309500C5E0B2EF3D70C501200B2516E
:104E2800FEE0000EA7253CEC25F0DF50056EA72B11
:104E3800950EA76501D0A76B9D9AB2079D8A05506C
:104E48001200056E82909490050406E1060EE82E85
:104E5800FED700D082809480D20E00D0E82EFDD7F5
:104E6800828094801200066EA6B2FED706C0A9FF03
:104E780005C0A8FFA69EA69CA684F29E550EA76E06
:104E8800AA0EA76EA682F28EAA0C066E52EC28F025
:104E9800C58652EC28F0C9CF07F052EC28F006502E
:104EA80002E1C58A01D0C59AC58807501200C2829E
:104EB800C2B2FED7C450066E056AC3500524FB6F04
:104EC800000E0620FC6F00F000F0120007D82A0E32
:104ED800D9EC25F003D8300ED9EF25F00CC007F037
:104EE8000DC008F0050E096E050C086E8C90096A55
:104EF8000850F0EC25F00750F0EC25F0092A030ED5
:104F08000964F6D78C80030C086E77EC28F0EC0E59
:104F180069EC28F0085069EC28F0075069EC28F093
:104F280073EF28F0CD903C0ECF6EB00ECE6E9D8004
:104F3800B192B180A082F00EB36E600EB26E600CBA
:104F4800116E77EC28F0D00E69EC28F0115069EC5E
:104F580028F0105069EC28F073EF28F082909490B4
:104F6800030EE82EFED700F082809480140EE82EFF
:104F7800FED782B0010C000C0BC007F0A3C008F0EC
:104F8800610E07EC26F0400E076E070EE3EF27F0E0
:104F9800076E8B94075074EC26F0000E74EC26F024
:104FA800086E8B8408501200180E9412280EC66ED4
:104FB800C76A630EC86EC584C5A41200FDD7086E03
:104FC8008B940850200974EC26F0075074EC26F0F6
:104FD8008B8412004AEC28F00A6E0ABC010C62ECC1
:104FE80028F00009D8B4010C000C066E06C005F0C4
:104FF8000F0E051606380F0B0A0DF3500524120084
:105008000001F82B950EF865950CF86B010EF76FFB
:10501800CD90010C106A0E0EA4EC27F0080E106E4D
:105028000F0EA4EF27F00CC007F00DC008F0050E16
:10503800096E2B0ED9EF25F0A6B2FED705C0A9FF41
:10504800A69EA69CA680A8501200056A055051ECA1
:1050580024F0052A200E0564F9D7200C05C0E9F1D3
:1050680006C0EAF10101EB6BEC6B1200958695988E
:1050780094929494959A958C8B841200C70ED56E51
:10508800F28AD76A3D0ED66E796A12008B94FF0EAB
:1050980074EC26F0076E8B8407501200C7B4FED755
:1050A800C5CF05F01F0E0516F9E11F0CF294D76A5B
:1050B8003D0ED66E010E0001C06F010C170ECCEC30
:1050C80027F0096E0950010B1200066E52EC28F009
:1050D80006C0C9FF1200A86BA76BB26B120052EC96
:1050E80028F0C584120052EC28F0C580120052EC5A
:1050F80028F0C5821200959E8C9E1200F28EF28CCA
:105108001200040E776E040CB2BD0501F4012B01E8
:045118000100000092
:10B792000000000000000000087C4E4F4E7C0804B0
:10B7A20026473F070604203E7F7F3F3E207E121E33
:10B7B20000701000FDBFEF7FFBDFF7FEFDBFEF7FE4
:10B7C200FBDFF7FE0001010202030404050606077F
:10B7D2000708090901000A006400E80310278A42E9
:10B7E200A245F044F8456448000000000045514578
:10B7F2003E006B6F6B3E003E7C3E1C003C7E3C1864
:10B8020000367F363000000000000000000000001B
:10B812000000000000000000000000000000000026
:10B822000000000000000000000000000000000016
:10B832000000000000000000000000000000000006
:10B8420000000000000000000000000000000000F6
:10B85200000000000000000000000000003636007A
:10B862000000243600000024240000002400000010
:10B872000000000000001200000000121200000090
:10B882001236000000123600000000000000005FC7
:10B8920000000007000700147F147F14242A7F2A67
:10B8A2001223130864623649562050000807030029
:10B8B200001C2241000041221C002A1C7F1C2A0875
:10B8C200083E080800807030000808080808606018
:10B8D20000000020100804023E5149453E00427F0C
:10B8E200400042615149462141454B311814127FB3
:10B8F2001027454545393C4A49493001710905033C
:10B902003649494936064949291E000036360000A3
:10B91200403400000008142241141414141400418D
:10B9220022140802015909063E415D594E7C12114A
:10B93200127C7F494949363E414141227F41414182
:10B942003E7F494949417F090909013E41415172FE
:10B952007F0808087F00417F41002040413F017F6E
:10B96200081422417F404040407F0204027F7F044E
:10B9720008107F3E4141413E7F090909063E41517F
:10B98200215E7F09192946264949493201017F0171
:10B99200013F4040403F1F2040201F3F4038403F72
:10B9A2006314081463030478040361514945430096
:10B9B2007F41410002040810200041417F0004023F
:10B9C2000102044040404040000307080020545454
:10B9D20078407F2844443838444444283844442832
:10B9E2007F3854545418087E09020018A4A49C7885
:10B9F2007F0804047800447D40002040403D007FE1
:10BA02001028440000417F40007C047804787C08C0
:10BA12000404783844444438FC1824241818242494
:10BA220018FC7C04040800485454542400043F4485
:10BA3200203C4040207C1C2040201C3C4030403CAC
:10BA420044281028444C9090907C4464544C440008
:10BA5200083641000000770000004136080002016C
:10BA620002040200000000000000000000000000CC
:10BA720000000000000000000000000000000000C4
:10BA820000400040004000000000000000000000F4
:10BA92003E55554122000000000000000000000059
:10BAA2000000000000000000000000000000000094
:10BAB2000000000000000000000000000000000084
:10BAC2000000000000000000000000000000000074
:10BAD20000000C1E1E0C0000000000000000000010
:10BAE2000000000000000000000000000000000054
:10BAF2000000000000000000000000000000000044
:10BB02000000000000000000000000000000000033
:10BB12000000000000000000000000000000000023
:10BB2200007E02020203000000000000000000008C
:10BB32007E4B4A4B4200000000003E494949220028
:10BB420000000000000000000000000000000000F3
:10BB520000000000417E4100000609090644445FDE
:10BB6200444400417F410000447D4000007C0404C5
:10BB720006000000000000000000000000000000BD
:10BB820038555455180000000000385454544422CB
:10BB9200142A14082040403D00000000000000006C
:10BBA20000000000457C41007E1111117E7F494951
:10BBB20049317F494949367F01010101C07E417EF9
:10BBC200C07F4949494177087F0877224149493670
:10BBD2007F1008047F7E1109057E7F0814224140F0
:10BBE2007E01017F7F020C027F7F0808087F3E41B1
:10BBF20041413E7F0101017F7F090909063E414122
:10BC0200412201017F0101274848483F0E117F115F
:10BC12000E63140814637F40407FC0070808087F42
:10BC22007F407E407F7F407E40FF017F4444387FDB
:10BC32004438007F7F44444438224149493E7F08CA
:10BC42003E413E462919097F20545454783C4A4AC1
:10BC52004A317C54545428007C040404C078447C47
:10BC6200C038545454186C107C106C284454542816
:10BC72007C2010087C7C2111097C7C101028444017
:10BC82003804047C7C0810087C7C1010107C38443A
:10BC92004444387C0404047C7C141414083844445E
:10BCA200442804047C04044C5050503C18247C2446
:10BCB20018006C10106C7C40407CC00C1010107C82
:10BCC2007C4078407C7C407840FC047C5050207C56
:10BCD2005020007C007C50502044545454387C1036
:10BCE200384438485434147C3E41417F3E00427F00
:10BCF2007F406273594F462263497F361814127F80
:10BD02007F2F45457D393E49497B320371790F07C3
:10BD12003649497F362649497F3E3E7F417F3E0074
:10BD2200427F7F406273594F462263497F3618141F
:10BD3200127F7F2F6F457D393E7F497B32037379B6
:10BD42000F07367F497F36266F497F3E7F41417F0D
:10BD52007F00017F7F007151515F5F4149497F7FC1
:10BD62001F10107F7F4F494979797F4949797901BD
:10BD720001017F7F7F49497F7F4F49497F7F7F7FD5
:10BD8200417F7F00017F7F007373515F5F636B4967
:10BD92007F7F1F1F107F7F6F6F4979797F7F497B7C
:10BDA2007B0373790F077F7F497F7F6F6F497F7FA7
:10BDB2007F7F417F7F00017F7F007171515F5F4113
:10BDC20049497F7F1F1F107F7F4F4F4979797F7FBE
:10BDD2004979790171790F077F7F497F7F5F5F51D1
:10BDE2007F7F0000007C447C007C0074545C5454CF
:10BDF2007C1C107C5C54747C547404047C7C547CE5
:10BE02005C547C4170722030332032303138003142
:10BE1200353A35343A343900197927090419792722
:10BE22000904436C6F636B2076332E302E30206210
:10BE320079204976616E5F666400257525752563F4
:10BE42002575256300ECEC2EF0F22EF1F22E002582
:10BE52007320257320257300286E756C6C290044AD
:10BE620053543A00C7E23A00D0EA3A00C4ED3A002D
:10BE7200D2EF3A00D8F03A00CCF13A00D7F13A00CA
:10BE8200DFF13A00C0F23A00D2313A00D2323A003F
:10BE9200D1E100C0E200C6E200CAE200CDE400CF78
:10BEA200ED00CBEF00C1F000C2F000C3F000D1F012
:10BEB20000D2F000D7F000CBF100CFF100C2F200C7
:0DBEC200CBF200CFF200D7F200D1F7000064
:020000040020DA
:080000000109070903000000DB
:020000040030CA
:0E000000FF061E1EFF8181FF0FC00FE00F40A4
:0200000400F00A
:1000000004020102010101010100000000000000E2
:00000001FF
