:020000040000FA
:0400000007EF00F016
:100008007B8237ED22F0A0EF1FF00001A2510DE036
:10001800D3EC29F0176E100E9D25D96EDA6A020E00
:10002800DA2217C0DFFF9D2B1200240E02011019DF
:1000380001E1ABD3D7D33BEC04F00001826F02019E
:1000480041EC04F00001816FF5510CE0825105E1AB
:1000580003EC10F096EC28F009D00CEC10F096ECBC
:1000680028F004D007EC10F096EC28F04F0E15ECB1
:1000780028F04B0E15EC28F00D0E15EC28F00A0EA2
:1000880015EC28F0AFD3B6DB19041A1005E0B2DB83
:10009800020E19181A101EE11251D00F7A6E7AC08A
:1000A80005F0010EF7EC29F0FFEC2AF07A0403E1E1
:1000B8000001B86B01D0CBDBA16B4F0E15EC28F01B
:1000C8004B0E15EC28F00D0E15EC28F00A0E15EC69
:1000D80028F088D3450E15EC28F0520E15EC28F0C0
:1000E8000D0E15EC28F00A0E15EC28F07BD3010E46
:1000F800AADBF7EC29F095EC26F022D0020EA3DB60
:10010800F7EC29F0F8D7030E9EDBF7EC29F0F3D7CC
:10011800040E99DBF7EC29F0EED7050E94DBF7EC2B
:1001280029F0E9D767DB1A500BE11950010ADFE023
:10013800030AE4E0010AE7E0070AEAE0010AEDE061
:10014800D00E176E18680201125167DB1ABE05D06F
:100158001A5007E1060E195C04E24CDB19501A101C
:100168000DE1450E15EC28F0520E15EC28F00D0E99
:1001780015EC28F00A0E15EC28F034D34F0E15ECC8
:1001880028F04B0E15EC28F00D0E15EC28F00A0E91
:1001980015EC28F027D371DB126E16510A0DF350B7
:1001A8001725F00F136E18510A0DF3501925F00F8B
:1001B800146E5DDBA4EC27F04F0E15EC28F04B0E07
:1001C80015EC28F00D0E15EC28F00A0E15EC28F0A9
:1001D80009D310DB19501A1004E00CDB19041A10AB
:1001E8000EE11251D00F0001B76F02011351D00F69
:1001F800756EB7C005F0020EF7EC29F00DD0450E6C
:1002080015EC28F0520E15EC28F00D0E15EC28F020
:100218000A0E15EC28F0E6D20001B75109E175C0C5
:1002280005F0030EF7EC29F04DEC16F039EC2AF046
:100238004F0E15EC28F04B0E15EC28F00D0E15ECB2
:1002480028F00A0E15EC28F0CDD2D4DA19501A107D
:1002580004E0D0DA19041A100AE11251D00F000193
:10026800B66FB6C005F0040EF7EC29F00DD0450EB8
:1002780015EC28F0520E15EC28F00D0E15EC28F0B0
:100288000A0E15EC28F0AED24F0E15EC28F04B0EE6
:1002980015EC28F00D0E15EC28F00A0E15EC28F0D8
:1002A800A1D2A8DA19501A1004E0A4DA19041A1015
:1002B8001EE1C4DAB2DA19501A1005E0BFDAADDA75
:1002C80019041A1014E11251D00F0001B56F020180
:1002D8001351D00F0001B46FB5C005F0050EF7EC4F
:1002E80029F0B4C005F0060EF7EC29F00DD0450E44
:1002F80015EC28F0520E15EC28F00D0E15EC28F030
:100308000A0E15EC28F06ED24F0E15EC28F04B0EA5
:1003180015EC28F00D0E15EC28F00A0E15EC28F057
:1003280061D268DA19501A1004E064DA19041A1054
:100338000AE11251D00F0001B36FB3C005F0070EE8
:10034800F7EC29F00DD0450E15EC28F0520E15ECFF
:1003580028F00D0E15EC28F00A0E15EC28F042D204
:100368004F0E15EC28F04B0E15EC28F00D0E15EC81
:1003780028F00A0E15EC28F035D23CDA19501A107C
:1003880004E038DA19041A100AE11251D00F0001FA
:10039800B26FB2C005F0080EF7EC29F00DD0450E8B
:1003A80015EC28F0520E15EC28F00D0E15EC28F07F
:1003B8000A0E15EC28F016D24F0E15EC28F04B0E4D
:1003C80015EC28F00D0E15EC28F00A0E15EC28F0A7
:1003D80009D210DA19041A1005E00CDA020E1918FD
:1003E8001A100AE11251D00F0001FE6FFEC005F08D
:1003F800090EF7EC29F00DD0450E15EC28F0520E39
:1004080015EC28F00D0E15EC28F00A0E15EC28F066
:10041800E9D14F0E15EC28F04B0E15EC28F00D0E17
:1004280015EC28F00A0E15EC28F0DCD1E3D91904F4
:100438001A1004E0DFD919501A100AE11251D00F2E
:100448000001B16FB1C005F00A0EF7EC29F00DD02C
:10045800450E15EC28F0520E15EC28F00D0E15EC93
:1004680028F00A0E15EC28F0BDD14F0E15EC28F037
:100478004B0E15EC28F00D0E15EC28F00A0E15ECB5
:1004880028F0B0D14F0E15EC28F04B0E15EC28F0E3
:100498000D0E15EC28F00A0E15EC28F0330E186E28
:1004A800BB0E176EE00EE82EFED7172EFCD7182EBF
:1004B800FAD7330E186EBB0E176EE00EE82EFED775
:1004C800172EFCD7182EFAD7330E186EBB0E176EE0
:1004D800E00EE82EFED7172EFCD7182EFAD7330ECB
:1004E800186EBB0E176EE00EE82EFED7172EFCD73F
:1004F800182EFAD7FF0076D1740E121902E1030EF6
:1005080004D0700E121903E1020E796E0DD0450E5B
:1005180015EC28F0520E15EC28F00D0E15EC28F00D
:100528000A0E15EC28F05ED14F0E15EC28F04B0E94
:1005380015EC28F00D0E15EC28F00A0E15EC28F035
:1005480051D1610E121920E11B6A0BD0130E1B2426
:10055800D96EDA6A020EDA22960E1B2480EC14F0A9
:100568001B2AFD0E176E1868100E056E020E066E19
:1005780071EC29F017500526185006221B50055C0F
:10058800000E06581CE3E2D7750E121907E1100E8B
:10059800096E020E0A6EE6EC13F011D06F0E1219F6
:1005A8000EE171924F0E15EC28F04B0E15EC28F069
:1005B8000D0E15EC28F00A0E15EC28F013D14F0E8D
:1005C80015EC28F04B0E15EC28F00D0E15EC28F064
:1005D8000A0E15EC28F0EEC09FF071820001B86B8E
:1005E80052D9B1EC21F054D9B1EC21F056D94AECEA
:1005F80028F0A7EC15F069EC21F029D9F3D0086AA6
:10060800640E2FD9E1EC26F000D949EC27F00C5004
:10061800300F15EC28F0086A0A0E23D9E1EC26F011
:10062800F4D849EC27F00C50300F15EC28F0FAC03C
:100638000CF0FBC00DF0F8D849EC27F00C50300F47
:1006480015EC28F05F0E15EC28F092D01B6A0B0E03
:100658001B6401D00AD0020E1B24F66EF76ABE0E88
:1006680021D915EC28F01B2AF2D70D0E15EC28F02D
:100678000A0E15EC28F01B6A080E1B6401D00AD07C
:100688000E0E1B24F66EF76ABE0E0CD915EC28F078
:100698001B2AF2D70D0E15EC28F00A0E15EC28F0DF
:1006A80067D00001FC5115EC28F0086A640EC0D828
:1006B800E1EC26F0AAD849EC27F00C50300F15ECE5
:1006C80028F0B8EC09F0E1EC26F09FD849EC27F0C7
:1006D8000C50300F15EC28F0ABEC09F049EC27F082
:1006E8000C50300F15EC28F05F0E15EC28F040D0B8
:1006F800086A640EB0D8E1EC26F087D849EC27F0F8
:100708000C50300F15EC28F0086A0A0EA4D8E1EC5A
:1007180026F07BD849EC27F00C50300F15EC28F068
:100728008BC00CF08CC00DF07FD849EC27F00C5032
:10073800300F15EC28F05F0E15EC28F019D0450E97
:1007480015EC28F0520E15EC28F00D0E15EC28F0DB
:100758000A0E15EC28F00CD01251610A01E14FD7AE
:10076800050AC6E0100A9DE0020A01E16FD7E7D743
:100778004F0E15EC28F04B0E15EC28F00D0E15EC6D
:1007880028F00A0E15EC28F02DD01151530A01E17A
:10079800D8D6320A01E185D5030A01E11AD5010A42
:1007A80001E171D4070A01E1F6D4010A01E1B9D5E2
:1007B800030A01E1B7D4170A01E19ED6030ACCE087
:1007C800010A01E142D5070A01E135D4020A01E133
:1007D80000D6010A01E1D1D50E0A01E127D6030AA4
:1007E80001E150D60201106B116B126B00019D6B79
:1007F80045EF2BF0D00E176E18681251196E1A6A51
:100808001750192618501A22120005C00CF006C0FD
:100818000DF00F6A0A0E0E6E0A0C196E1A6A17503E
:10082800192618501A2212000F6A0A0E0E6E0A0CA8
:10083800076E72C005F073C006F01200D00E176E76
:10084800186813511200766E76C005F0000C010E80
:100858000001B86F010C076E8BC005F08CC006F064
:100868001200076EFAC005F0FBC006F01200125124
:100878000A0DF3501325F00F120014510A0DF3500E
:100888001525F00F1200D80E056E3C0E066E1200EC
:10089800320E056E100E066E1200960E0B6E030ECB
:1008A8000C6E1200F7220800F5501200B9EC2AF07D
:1008B80029C053F02AC054F02BC055F02CC056F074
:1008C800C4EC2AF029C047F02AC048F02BC049F0F0
:1008D8002CC04AF00B0E8BDBD8903534396E363489
:1008E8003A6E37343B6E38343C6E030E3D6E53C05F
:1008F8003EF054C03FF055C040F056C041F03D6650
:1009080001D007D04134413240323F323E323D2E91
:10091800F6D739503E5C056E3A503F58066E3B504C
:100928004058076E3C504158086E93C109F094C175
:100938000AF045DBBBEC26F0346601D003D003DBBC
:10094800342EFAD70FDB0C0E52DB040E396E53C06F
:100958003AF054C03BF055C03CF056C03DF0396603
:1009680001D003D04DDB392EFAD735503A5C056EED
:1009780036503B58066E37503C58076E38503D5835
:10098800086E000187513E6E88513F6E406A416A89
:10099800040E426E53C043F054C044F055C045F0B5
:1009A80056C046F0426601D007D04634463245323A
:1009B80044324332422EF6D73E50435C096E3F50D4
:1009C80044580A6E405045580B6E415046580C6EBC
:1009D800BBEC26F0346601D003D0B5DA342EFAD752
:1009E800B8DA0E0E346EFADA91C109F092C10AF043
:1009F800E6DABBEC26F0346601D003D0A4DA342E54
:100A0800FAD7B9DA5B5063244F6E5C506420506E9D
:100A18005D506520516E5E506620526E4FC005F0E5
:100A280050C006F051C007F052C008F0050EF8DAC1
:100A3800BBEC26F0800E0524346E000E0620356EC1
:100A4800000E0720366E000E0820376E35C034F0D1
:100A580036C035F037C036F0376A36BE376834C02E
:100A68004BF035C04CF036C04DF037C04EF032C0B8
:100A7800D9FF33C0DAFF4BC0DEFF4CC0DEFF4DC0EC
:100A8800DEFF4EC0DEFF4FC034F050C035F051C01D
:100A980036F052C037F03734B9DA000E3424636EBA
:100AA800060E3520646EFF0E3620656EFF0E372069
:100AB800666E0B0E0EDABBEC26F0346601D003D05E
:100AC80042DA342EFAD745DA89DA87C109F088C1C3
:100AD8000AF075DABBEC26F04EDA89C105F08AC156
:100AE80006F052DABBEC26F0D8900534346E0634A2
:100AF800356E0734366E0834376E34505B26355001
:100B08005C2236505D2237505E2201018B51346ED3
:100B18008C51356E366A376A35C037F034C036F0D6
:100B2800356A346A020E386E5BC039F05CC03AF040
:100B38005DC03BF05EC03CF0386601D007D03C3465
:100B48003C323B323A323932382EF6D734503924D7
:100B58005B6E35503A205C6E36503B205D6E3750E8
:100B68003C205E6E0D0EB5D9BBEC26F0346601D084
:100B780003D0E9D9342EFAD7ECD9120E346E030E0D
:100B8800356E8DC105F08EC106F0000E0BDABBEC98
:100B980026F005C036F006C037F007C038F008C0A8
:100BA80039F0356601D007D0393439323832373226
:100BB8003632352EF6D78FC105F090C106F0E4D94C
:100BC800BBEC26F0C0D9055036243A6E06503720C3
:100BD8003B6E075038203C6E085039203D6E346615
:100BE80001D003D00DDA342EFAD73AC063F03BC0F7
:100BF80064F03CC065F03DC066F00F0E346E000E28
:100C08006324056E800E6420066E000E6520076E54
:100C1800000E6620086EF0C109F0F1C10AF00B6AF7
:100C28000C6ABBEC26F0346601D003D08CD9342E84
:100C3800FAD798D9635064106510661001E1120064
:100C48000C0E346E5BC035F05CC036F05DC037F01A
:100C58005EC038F0346601D004D03834DCD9342E84
:100C6800F9D747C039F048C03AF049C03BF04AC00C
:100C78003CF0391E3A1E3B1E3C1E392A000E3A2211
:100C88003B223C223550395C3D6E36503A583E6E18
:100C980037503B583F6E38503C58406E000E3D244C
:100CA800056E000E3E20066E100E3F20076E000EE9
:100CB8004020086E350E096E0C0E0A6E0B6A0C6A1F
:100CC800BBEC26F005C05FF006C060F007C061F01D
:100CD80008C062F0800E625C15E2D8905F34116E35
:100CE8006034126E6134136E6234146E6ED9A8ECDF
:100CF80023F011C05FF012C060F013C061F014C09F
:100D080062F014D05FC011F060C012F061C013F03F
:100D180062C014F05AD9A8EC23F0D89011345F6E51
:100D28001234606E1334616E1434626E5FC034F036
:100D380060C035F061C036F062C037F0040E02D0F2
:100D4800D89064D9E82EFCD734C005F035C006F039
:100D580036C007F037C008F05FC038F060C039F01F
:100D680061C03AF062C03BF0040E05D0D8903B3227
:100D78003A3239323832E82EF9D738C009F039C05A
:100D88000AF03AC00BF03BC00CF0BBEC26F00E0E9C
:100D980005D0D8900832073206320532E82EF9D746
:100DA800D8D80C0E346E81C105F082C106F0000E51
:100DB800F9D8BBEC26F0346601D003D0C4D8342E61
:100DC800FAD7D0D80D0E346E5FC035F060C036F05B
:100DD80061C037F062C038F0030E02D0D8901BD93A
:100DE800E82EFCD735C005F036C006F037C007F04E
:100DF80038C008F083C109F084C10AF0E0D8BBEC20
:100E080026F0346601D003D09ED8342EFAD7B3D852
:100E1800040E346E85C135F086C136F0000E36BE3C
:100E2800FF0E376E386E63503524396E64503620A5
:100E38003A6E655037203B6E665038203C6E5B50EA
:100E480039243D6E5C503A203E6E5D503B203F6E2B
:100E58005E503C20406E346601D007D040344032AA
:100E68003F323E323D32342EF6D75F503D245F6E1E
:100E780060503E20606E61503F20616E625040209D
:100E8800626E5FC005F060C006F061C007F062C026
:100E980008F0640EC5D8BBEC26F005C011F006C0FA
:100EA80012F007C013F008C014F0140E156E340EBB
:100EB800166E176A186AA8EC23F03150D96EDA6AF0
:100EC80011C0DEFF12C0DEFF13C0DEFF14C0DEFF5C
:100ED8001200346E020E356E63C036F064C037F00F
:100EE80065C038F066C039F0356601D007D03934AE
:100EF8003932383237323632352EF6D736C005F029
:100F080037C006F038C007F039C008F0020E3A6E54
:100F180063C03BF064C03CF065C03DF066C03EF085
:100F28003A6601D007D03E343E323D323C323B3245
:100F38003A2EF6D73BC009F03CC00AF03DC00BF092
:100F48003EC00CF01200083408320732063205326F
:100F5800120005C057F006C058F007C059F008C085
:100F68005AF0120005C063F006C064F007C065F0CF
:100F780008C066F0120005C05BF006C05CF007C050
:100F88005DF008C05EF01200000E06BEFF0E076E90
:100F9800086E63C009F064C00AF065C00BF066C053
:100FA8000CF0120006BEFF0E076E086E57C009F05F
:100FB80058C00AF059C00BF05AC00CF01200000ECD
:100FC8000ABEFF0E0B6E0C6E120063C015F064C0F3
:100FD80016F065C017F066C018F0120057C005F08B
:100FE80058C006F059C007F05AC008F01200346E15
:100FF80000018751356E8851366E376A386A12009B
:101008003D343D323C323B323A32120037323632CE
:101018003532343212003832373236323532120035
:10102800096E0A6A0B6A0C6A120074D1FFEC2AF086
:1010380071A615D0020E93D9000EB6EC22F0450E1B
:1010480077D9090ED7EC20F0720E72D90F0ED7ECB3
:1010580020F0720E6DD9150ED7EC20F044D172280D
:1010680003E1732801E12BD10001FE0503E0725072
:1010780073106EE16CD949EC27F00C502F6E72C0DA
:1010880005F073C006F086D9E1EC26F005C072F0D1
:1010980006C073F0050E2F6402D0724A732A64D911
:1010A800E1EC26F009EC04F049EC27F00C500D10A7
:1010B8002AE1020E54D9030EB6EC22F072507310D6
:1010C80014E0FCC011F03AD90D0ED7EC20F03FD94E
:1010D80049EC27F00C5026D9130ED7EC20F0B00EAF
:1010E80027D9190ED7EC20F0FED031D949EC27F0DA
:1010F8000C5018D90D0ED7EC20F0B00E19D9130EDC
:10110800D7EC20F0F0D0020E2AD9000EB6EC22F06F
:10111800FCC011F013D9090ED7EC20F025D9E1EC69
:1011280026F009EC04F049EC27F00C50FBD80F0E20
:10113800D7EC20F00CD949EC27F00C50F3D8150E59
:10114800D7EC20F0B00EF4D81B0ED7EC20F0CBD0A3
:10115800200E306E305025EC27F0302A300E3064E7
:10116800F9D7086A640E1CEC04F0E1EC26F009ECEF
:1011780004F049EC27F00CC029F00DC02AF0F4D88F
:10118800E1EC26F009EC04F049EC27F00CC02BF058
:101198000DC02CF0DCD849EC27F00CC02DF00DC0A8
:1011A8002EF08AEC12F0390E136EBE0E146E29C0A2
:1011B80015F02AC016F02BC017F02CC018F0000E3E
:1011C8001A6E2E0E196E2DC01BF02EC01CF0000ECC
:1011D8001E6EB00E1D6E40EC13F0300E0101951915
:1011E8003BE0020EBCD8030EB6EC22F0FCC011F0B6
:1011F800A5D80B0ED7EC20F001019551D00F92D84D
:10120800110ED7EC20F0BFD88DD8170ED7EC20F0F0
:1012180097C111F093D81D0ED7EC20F00101985119
:10122800D00FF5EC0AF0200EF3EC22F099C111F082
:10123800F0EC0FF0260EF3EC22F0330E286EBB0E06
:10124800276EE00EE82EFED7272EFCD7282EFAD7D9
:101258000A0E78EC25F047D0020E81D8010EB6ECC4
:1012680022F0FCC011F06AD80B0ED7EC20F08BD816
:1012780059D8110ED7EC20F097C111F05FD8170E8E
:10128800D7EC20F001019851D00F4CD81A0ED7ECAA
:1012980020F099C111F0F0EC0FF0200EF3EC22F0E1
:1012A800330E286EBB0E276EE00EE82EFED7272ED3
:1012B800FCD7282EFAD7080E78EC25F014D0020EA9
:1012C8004ED8000EB6EC22F02D0E32D8090ED7EC0F
:1012D80020F02D0E2DD80F0ED7EC20F02D0E28D88B
:1012E800150ED7EC20F048D852D82DD869EF21F048
:1012F800050E796E1EEC25F020EC10F085EC12F04E
:10130800B1EC21F04CEC04F0B1EC21F0A7EC15F0B5
:1013180069EF21F07950040AEBE0010A01E186D671
:10132800030A1200116E77C012F078C013F0120091
:10133800116EE70E126EB70E136E1200E70E126EE4
:10134800B70E136E1200076E0A6A096A120072C09D
:101358000CF073C00DF00F6A0A0E0E6E0A0C0C6EBC
:10136800B90E0D6E0E6A1200086A0A0E076E72C078
:1013780005F073C006F00A0C060E796EB60E056EFF
:10138800560E066E120001019651D00F1200020E81
:10139800086E8A0C086A0A0E076E0A0C1F6E19D1AD
:1013A8000001B86B206A39D9EC5164EC28F0C0EC24
:1013B80029F000090AE031D9EC5164EC28F0C0ECBE
:1013C80029F018D9B90F46D903D0205025EC27F0B9
:1013D800F5EC10F0C0EC29F00DD9BF0F3BD91DD9A1
:1013E800EB5164EC28F0C0EC29F004D9C60F32D9CF
:1013F8003CD9C0EC29F0FED8CC0F2CD9202A040EF9
:101408002064D1D7206A09D9EA5164EC28F0C0ECED
:1014180029F01AD907D9D20F1DD9FFEC10F0C0EC6A
:1014280029F012D9FFD8D60F15D9202A020E206428
:10143800EAD70001BE6B800EC46FC56FCB6BD16B52
:10144800D56B1200010E0001B86F0AD964EC28F0C0
:10145800C0EC29F00001AF6F12D9C0EC29F00001EF
:10146800AE6F08D964EC28F0C0EC29F00001AD6F2C
:101478000AD9C0EC29F00001AC6FAF51A91909E1F4
:10148800AE51A81906E1AD51A71903E1AC51A6194F
:101498006FE0AC51A61909E0F6D8C0EC29F096EC3B
:1014A80009F0190ED7EC20F007D0EDD8C0EC29F0E0
:1014B80098D8190EF3EC22F00001AD51A7190BE0F2
:1014C800D9D864EC28F0C0EC29F096EC09F0130E9A
:1014D800D7EC20F009D0CED864EC28F0C0EC29F085
:1014E80080D8130EF3EC22F00001AE51A81909E0E0
:1014F800C6D8C0EC29F096EC09F0070ED7EC20F01E
:1015080007D0BDD8C0EC29F06CD8070EF3EC22F058
:1015180084D8EC5164EC28F0C0EC29F0000919E0FB
:101528000001AF51A9190BE09BD864EC28F0C0EC7E
:1015380029F096EC09F0010ED7EC20F010D090D8E5
:1015480064EC28F0C0EC29F04CD8010EF3EC22F042
:1015580006D0116AA2EC09F0010ED7EC20F0AFC05A
:10156800A9F0AEC0A8F0ADC0A7F0ACC0A6F01200BC
:1015780077D864EC28F0C0EC29F000090BE04DD8CE
:10158800EC5164EC28F0C0EC29F02BD8010EF3ECF8
:1015980022F006D0116AF0EC0FF0010EF3EC22F005
:1015A800F5EC10F0C0EC29F01CD8070EF3EC22F093
:1015B80034D8EB5164EC28F0C0EC29F012D8130EA3
:1015C800F3EC22F052D8C0EC29F00BD8190EF3EF47
:1015D80022F01F50010A01E1E3D6030A01E132D7E4
:1015E8001200116E77C012F078C013F0B90E146EA5
:1015F800156A1200050D77C01DF078C01EF0F35073
:101608001D26F4501E2220501D26000E1E221DC02D
:10161800F6FF1EC0F7FF205012000A0E096E056E75
:1016280000010A0CF3501D26F4501E2220501D26DE
:10163800000E1E22030E1D26000E1E221DC0F6FFE0
:101648001EC0F7FF20501200030DE10E1D6EBD0EE7
:101658001E6E1200D96EDA6A0800F5CFDFFF12009D
:101668000A0E096E056EEC5112000A0E096E000191
:10167800EB5112000A0E096E056EEB5112000A0EAC
:10168800096EEC5112000A0E096EEB5112003FD0A0
:1016980067D9B1EC21F0280E056E310E066EF7EC15
:1016A8000DF069EC21F0F8EC0FF069EC21F01EEC7C
:1016B80019F037D055D9B1EC21F085EC12F0B1EC26
:1016C80021F0A7EC15F069EC21F031EC1AF0FFECF1
:1016D8002AF027D00001852B0C0E856502D0010E5B
:1016E800856FF8EC0FF069EC21F02FD9A4EC27F006
:1016F80018D000018507855102E10C0E856FF8ECC2
:101708000FF069EC21F021D9A4EC27F00AD0795028
:10171800010ABEE0030ADEE0010AEBE0070ACAE0BC
:10172800010A71A801D1770EF66EBE0EF76E02D9C6
:10173800000EF3EC22F0780EF66EBE0EF76EFAD8B5
:10174800060EF3EC22F0790EF66EBE0EF76EF2D8A6
:101758000C0EF3EC22F0C8D0CC0EF66EBE0EF76E6F
:10176800E9D8120EF3EC22F0CD0EF66EBE0EF76E2F
:10177800E1D8180EF3EC22F0D7D0C30EF66EBE0EE9
:10178800F76ED8D8120EF3EC22F0C40EF66EBE0E29
:10179800F76ED0D8180EF3EC22F0C6D0A80EF66E6D
:1017A800BE0EF76EC7D8120EF3EC22F0A90EF66E35
:1017B800BE0EF76EBFD8180EF3EC22F0B5D09C0E13
:1017C800F66EBE0EF76EB6D8120EF3EC22F09D0E32
:1017D800F66EBE0EF76EAED8180EF3EC22F0A4D05B
:1017E800B40EF66EBE0EF76EA5D8120EF3EC22F00C
:1017F800B50EF66EBE0EF76E9DD8180EF3EC22F0FD
:1018080093D0B70EF66EBE0EF76E94D8120EF3ECA8
:1018180022F0B80EF66EBE0EF76E8CD8180EF3ECEA
:1018280022F082D0A50EF66EBE0EF76E83D8120E89
:10183800F3EC22F0A60EF66EBE0EF76E7BD8180EED
:10184800F3EC22F071D015EC0FF074D8120EF3EC13
:1018580022F010EC0FF06ED8180EF3EC22F064D0E2
:10186800AB0EF66EBE0EF76E65D8120EF3EC22F0D4
:10187800AC0EF66EBE0EF76E5DD8180EF3EC22F0C5
:1018880053D0990EF66EBE0EF76E54D8120EF3ECC6
:1018980022F09A0EF66EBE0EF76E4CD8180EF3ECC8
:1018A80022F042D0BA0EF66EBE0EF76E43D8120E74
:1018B800F3EC22F0BB0EF66EBE0EF76E3BD8180E98
:1018C800F3EC22F031D0AE0EF66EBE0EF76E32D8C3
:1018D800120EF3EC22F0AF0EF66EBE0EF76E2AD89B
:1018E800180EF3EC22F020D000018551010A01E125
:1018F80033D7030A01E141D7010A01E14FD7070AAB
:1019080001E15DD7010A01E16BD7030A01E179D74B
:10191800010A88E00F0A97E0010AA2E0030AB1E091
:10192800010AC0E0070ACFE0B90E076E86EC27F07F
:10193800718812000800F5CF11F0E70E126EB70E8D
:10194800136EB90E146E156A1200050E796E84C0F6
:1019580012F085C013F086C014F000018351120004
:10196800960E056E160E066E1200DBD07A50D2EC7B
:1019780009F0020E7A1803E12BEC04F002D0000102
:10198800B86B050EEA650DD0070EEA610AD0F90EAC
:10199800116EF80E126EF60E136EF70E146E55ECED
:1019A80016F00E0E0001EA6505D0100EEA6102D0AD
:1019B800030E796E270EEA65C3D0290EEA61C0D0FE
:1019C800B35104E0EBB102D0020EA2D0030EA0D0B6
:1019D80014D9B1EC21F0080E056E220E1CEC26F08D
:1019E800320E096E69EC21F0F8EC0FF069EC21F089
:1019F80020EEEAF010EE80F0060EDBCFE3FFE806FB
:101A0800FCE2050E796E7198020E7A1801E098D002
:101A18000001EFD8F0EC0FF00D0EF3EC22F090D0AF
:101A28000001B86BE70E076E010E086E21EC21F07D
:101A380000019E6F9E5110E10101E751676EE85168
:101A480000018D6F67C08EF00101E951676EEA51A0
:101A580000018B6F67C08CF0F10E316EEC0E326EA8
:101A6800010E336E5AEC04F0020E7A1807E1170ED5
:101A7800116EF0EC0FF00D0EF3EC22F01EEC25F0D9
:101A88000001B3510DE0B9D8B1EC21F0C40E056ED8
:101A9800230E066EA8D869EC21F031EC1AF050D06C
:101AA800ACD8B1EC21F00E0E056E290E066E9BD84F
:101AB80069EC21F0F2D70001B5511BE0B86BA2D850
:101AC800020E7A1807E1170E116EF0EC0FF00D0EEA
:101AD800F3EC22F01EEC25F090D8B1EC21F0D80EF2
:101AE800056E3C0E066E7FD869EC21F031EC1AF0D9
:101AF8000ED0B4510CE0B86B020E7A18EBE1170E59
:101B0800116EF0EC0FF00D0EF3EC22F0E3D7050E9A
:101B1800796E16D0050E796E85EC12F0B1EC21F0D5
:101B28000FD07950010A01E153D7030A01E178D7B0
:101B3800010AC1E0070AEEE0010A01E117D7030A2A
:101B480071A804D0B90E076E86EC27F00001B751D2
:101B580008E0EAA171A405D071941BEC2AF0F1EC1D
:101B680028F07188AEEC2AF000090EE0690E0B6EC1
:101B780080EC2AF030EC28F045D869C0FCF0000170
:101B88008F6B906B719603D000018F4B902BE90EF1
:101B98008F5D030E905906E3718630EC28F039D832
:101BA800F5EC1FF000019F51EE191BE1050E096EBF
:101BB800EB51C0EC29F00009D8A41200230E000153
:101BC800EA19D8B471A2120014D8F0EC0FF00D0E77
:101BD800F3EC22F051EC04F04AEC28F0010EB86F57
:101BE800010C71921200086A076A0A6A140E096EDB
:101BF800140CB86B170E116E170C720E056E190EB9
:101C0800066E12006B50676E6A50726E67C073F092
:101C18001200040E0E6E780C41D008D9B1EC21F0F8
:101C2800BE0E056E380E066EF7EC0DF069EC21F06D
:101C3800F8EC0FF069EC21F01EEC19F039D0F6D869
:101C4800B1EC21F085EC12F0B1EC21F0A7EC15F025
:101C580069EC21F031EC1AF0FFEC2AF029D00001F0
:101C6800832B070E836502D0010E836FF8EC0FF00B
:101C780069EC21F0A9EC0CF0A4EC27F019D00001D4
:101C88008307835102E1070E836FF8EC0FF069ECCC
:101C980021F0A9EC0CF0A4EC27F00AD07950010A45
:101CA800BCE0030ADCE0010AEAE0070AC8E0010A2E
:101CB80071A8ACD06B0EF66EBE0EF76E9EEC0CF0F3
:101CC800000EF3EC22F06C0EF66EBE0EF76E9EEC74
:101CD8000CF0060EF3EC22F06D0EF66EBE0EF76EEB
:101CE8009EEC0CF00C0EF3EC22F07FD0A20EF66EF8
:101CF800BE0EF76E9EEC0CF0120EF3EC22F0A30E63
:101D0800F66EBE0EF76E9EEC0CF0180EF3EC22F099
:101D18007DD0C00EF66EBE0EF76E9EEC0CF0120E65
:101D2800F3EC22F0C10EF66EBE0EF76E9EEC0CF0D0
:101D3800180EF3EC22F06AD074D89EEC0CF0120E58
:101D4800F3EC22F069D89EEC0CF0180EF3EC22F0BC
:101D58005DD0C90EF66EBE0EF76E9EEC0CF0120E3C
:101D6800F3EC22F0CA0EF66EBE0EF76E9EEC0CF087
:101D7800180EF3EC22F04AD0C60EF66EBE0EF76EC1
:101D88009EEC0CF0120EF3EC22F0C70EF66EBE0EAF
:101D9800F76E9EEC0CF0180EF3EC22F037D0930E91
:101DA800F66EBE0EF76E9EEC0CF0120EF3EC22F0FF
:101DB800940EF66EBE0EF76E9EEC0CF0180EF3EC59
:101DC80022F024D09F0EF66EBE0EF76E9EEC0CF03D
:101DD800120EF3EC22F0A00EF66EBE0EF76E9EEC1D
:101DE8000CF0180EF3EC22F011D000018351010A17
:101DF800E9E0030A01E17AD7010A8BE0070A9CE0CF
:101E0800010AA7E0030AB8E0010AC9E0B90E076EA3
:101E180086EC27F071881200B20EF66EBE0EF76ED1
:101E28001200B10EF66EBE0EF76E1200200E056E91
:101E38001C0E066E120071BA02D0718A58D0719ABF
:101E480056D0EBD8B1EC21F05C0E056E330E066E61
:101E5800F7EC0DF069EC21F0C7D869EC21F0050E1C
:101E6800796EFFEC2AF071984CD0D7D8B1EC21F0FC
:101E780085EC12F0B1EC21F0A7EC15F069EC21F03B
:101E8800050E796EFFEC2AF03CD00001822B170E6C
:101E9800826501D0826BA8D869EC21F0C8D80AE025
:101EA800825104E1ACD896EC28F02BD0B1D896EC4E
:101EB80028F027D0A8D896EC28F023D00001820774
:101EC800822902E1170E826F8FD869EC21F0AFD812
:101ED8000AE0825104E193D896EC28F012D098D801
:101EE80096EC28F00ED08FD896EC28F00AD07950CE
:101EF800010AA7E0030AC9E0010AE0E0070AB5E021
:101F0800010A71A863D071AA4AD07A0424E111ECBD
:101F18000BF0825164EC28F0C0EC29F000090DE0C8
:101F280011EC0BF0825164EC28F0C0EC29F0F5ECD0
:101F38000AF0000EF3EC22F005D0116A4DD8000E1D
:101F4800F3EC22F06FD8C0EC29F0F5EC0AF0060E9D
:101F5800F3EC22F03BD011EC0BF0825164EC28F04A
:101F6800C0EC29F000090DE011EC0BF0825164EC93
:101F780028F0C0EC29F0F5EC0AF0010EF3EC22F0A1
:101F880005D0116A29D8010EF3EC22F04BD8C0EC29
:101F980029F0F5EC0AF0070EF3EC22F017D07A04DA
:101FA8000BE1116A19D8000EF3EC22F0116A14D86B
:101FB800060EF3EC22F00AD0116A0ED8010EF3ECEB
:101FC80022F0116A09D8070EF3EC22F0B90E076E59
:101FD80086EC27F071881200E70E126EB70E136EAA
:101FE800B90E146E156A1200B60E056E560E066E00
:101FF800070E086ED00E076E0A6A096AD00C81C0F7
:1020080012F0136A170C81C012F0136A8251120081
:1020180081C012F0136A820512003E0E056E1E0E74
:10202800066E12000A0E096E000182511200050E9A
:10203800796E0001F5511200FFEC2AF0C4D011ECC2
:102048000BF0EC5164EC28F0C0EC29F000090DE02D
:1020580011EC0BF0EC5164EC28F0C0EC29F096EC94
:1020680009F0000ED7EC20F006D0116AA2EC09F0B6
:10207800000ED7EC20F0B5D8C0EC29F096EC09F0AA
:10208800060ED7EC20F011EC0BF0EB5164EC28F0C5
:10209800C0EC29F096EC09F00D0ED7EC20F039ECE5
:1020A8000BF0C0EC29F096EC09F0130ED7EC20F0F9
:1020B80091D8EFEC24F011EC0BF0EA5164EC28F025
:1020C800C0EC29F0266E26280D6E190E8DEC20F036
:1020D80092D8C0EC29F0266E26280D6E1D0E8DECC8
:1020E80020F00001B25103E081D8F0EC1DF00001AE
:1020F800B86B120011EC0BF0EC5164EC28F0C0EC5A
:1021080029F000090DE011EC0BF0EC5164EC28F01B
:10211800C0EC29F096EC09F0010ED7EC20F006D0BF
:10212800116AA2EC09F0010ED7EC20F05AD8C0ECE5
:1021380029F096EC09F0070ED7EC20F03A0E9CEC4B
:1021480009F00D0ED7EC20F045D8EFEC24F011EC97
:102158000BF0EB5164EC28F0C0EC29F096EC09F098
:10216800130ED7EC20F039EC0BF0C0EC29F096EC0C
:1021780009F0190ED7EC20F00001B25103E036D86F
:10218800F0EC1DF0010E0001B86FA16B34EC0BF000
:1021980064EC28F0C0EC29F00001A96F43EC0BF0C7
:1021A800C0EC29F00001A86F3EEC0BF064EC28F0BD
:1021B800C0EC29F00001A76F47EC0BF0C0EC29F048
:1021C8000001A66F12007A50010A01E138D7030A0C
:1021D80091E01200EC0E0A6EEB0E0B6EEA0E0C6E1E
:1021E80012000A0E096E0001EC511200EA0E216E6F
:1021F800F50E226E12000A0E096E0001EA51120055
:1022080071BA02D0718A6FD0719A6DD0D2D8B1EC00
:1022180021F03E0E056E1E0E1CEC26F0320E096EE5
:1022280069EC21F0F8EC0FF069EC21F07A0415E183
:1022380011EC0BF0815164EC28F0C0EC29F0F5ECBE
:102248000AF00D0EF3EC22F0A9D8C0EC29F0F5EC59
:102258000AF0130EF3EC22F015D011EC0BF0EB5151
:1022680064EC28F0C0EC29F0F5EC0AF0130EF3EC5E
:1022780022F039EC0BF0C0EC29F0F5EC0AF0190E5D
:10228800F3EC22F031EC1AF038D093D8B1EC21F00D
:1022980085EC12F0B1EC21F0A7EC15F069EC21F017
:1022A800050E796EFFEC2AF028D00001812B3B0E39
:1022B800816501D0816BF8EC0FF069EC21F073D8DF
:1022C80096EC28F0050E796E18D000018107812957
:1022D80002E13B0E816FF8EC0FF069EC21F063D856
:1022E80096EC28F0EFD77950010A90E0030ADDE078
:1022F800010AEBE0070AC9E0010A71A849D071AAEE
:102308002CD07A0415E111EC0BF0815164EC28F023
:10231800C0EC29F0F5EC0AF00D0EF3EC22F03ED8F3
:10232800C0EC29F0F5EC0AF0130EF3EC22F030D0F3
:1023380011EC0BF0815164EC28F0C0EC29F0F5ECBD
:102348000AF0130EF3EC22F029D8C0EC29F0F5ECD2
:102358000AF0190EF3EC22F01BD07A040DE1116A91
:10236800F0EC0FF00D0EF3EC22F0116AF0EC0FF028
:10237800130EF3EC22F00CD0116AF0EC0FF0130EF0
:10238800F3EC22F0116AF0EC0FF0190EF3EC22F0E6
:10239800B90E076E86EC27F0718812000A0E096ED6
:1023A80000018151120081C012F0136A00018251AC
:1023B8001200080E056E220E066E12009AD0000159
:1023C800F151F211F311F4114FE0F1C011F0F2C024
:1023D80012F0F3C013F0F4C014F0640E156E166A10
:1023E800176A186AA8EC23F011C029F012C02AF065
:1023F80029C01CF02AC01DF043EC20F0BEEC24F0EC
:10240800200E2B6E2B5025EC27F02B2A300E2B6438
:10241800F9D77CD88F0E136EBE0E146E40EC13F0F5
:1024280095C111F0F0EC0FF0200EF3EC22F096C1FC
:1024380011F0F0EC0FF0260EF3EC22F097C111F03A
:10244800F0EC0FF02C0EF3EC22F0330E286EBB0EDE
:10245800276EE00EE82EFED7272EFCD7282EFAD7B7
:102468000B0E78EC25F01AD0FFEC2AF0040EB3EC32
:1024780009F0030EB6EC22F0450E9CEC09F00B0EA9
:10248800D7EC20F0520E9CEC09F0110ED7EC20F09E
:10249800520E9CEC09F0170ED7EC20F0C0EC09F0B6
:1024A80024EC15F0A7EC09F069EF21F0050E796E20
:1024B8000001B1510CE01EEC25F023D8B1EC21F05D
:1024C8002AD8B1EC21F00E0E056E290E0DD01EECA7
:1024D80025F020EC10F015D8B1EC21F01CD8B1ECA7
:1024E80021F0720E056E190E066EF7EC0DF069EF0D
:1024F80021F07950040ADAE0010A01E160D7030A01
:102508001200B60E056E560E066E1200950E116E6E
:10251800010E126E1200C40E056E230E066E120016
:1025280047D00001B75112E099D8B1EC21F043EC43
:1025380016F0F7EC0DF069EC21F0F8EC0FF069EC0F
:1025480021F031EC1AF0FFEC2AF03CD087D8B1EC3E
:1025580021F0840E056E2B0E066EF7EC0DF069EC7B
:1025680021F086D8F6EC2AF0756E4DEC16F039ECB1
:102578002AF0E3D773D8B1EC21F085EC12F0B1EC76
:1025880021F0A7EC15F069EC21F0DBD760D8F8EC66
:102598000FF069EC21F067D8F7EC29F013D057D881
:1025A800F8EC0FF069EC21F05ED8F7EC29F00AD0CE
:1025B8007950010AB6E0030AE9E0010AF0E0070AE7
:1025C800D9E0010A71A83DD03EEC16F09EEC0CF063
:1025D800000EF3EC22F039EC16F09EEC0CF0060E2F
:1025E800F3EC22F034EC16F09EEC0CF00C0EF3EC4D
:1025F80022F00001B75113E0960EF66EBE0EF76E8C
:102608009EEC0CF0120EF3EC22F0970EF66EBE0E56
:10261800F76E9EEC0CF0180EF3EC22F012D0BD0E03
:10262800F66EBE0EF76E9EEC0CF0120EF3EC22F076
:10263800BE0EF66EBE0EF76E9EEC0CF0180EF3ECA6
:1026480022F0B90E076E86EC27F07188120000019F
:10265800B751010ED8A4000EB76F1200280E056EF0
:10266800250E066E1200050E796EB7C005F0020C35
:10267800066A030E056E030C150E246E79D0250E1E
:10268800251838E08ED825C0DFFF114A122A70D0ED
:102698002450D96EDA6ADECF22F0DDCF23F0020EA5
:1026A80024262250231013E14D0E226EBE0E236EF7
:1026B8000ED07CD876D80F0EF76403D00800F550FA
:1026C80001D07AD8DF6E224A232A114A122A6ED8FC
:1026D8000F0EF76403D00800F55001D06DD800093B
:1026E80047E0E7D72450D96EDA6ADF50256E020E2C
:1026F8002426C8D742D83EE0630AF4E0100AC8E0AE
:10270800060AC0E12450D96EDA6ADECF1FF0DDCFA9
:1027180020F0020E2426010E256E255039D8F550DA
:102728001F5C0900F550205804E3252A050E2518DA
:10273800F4E125C021F019D021502AD8F5CF07F0AF
:102748000A00F5CF08F01FC005F020C006F0E1EC44
:1027580026F009EC04F049EC27F00C50300F256EF8
:1027680020D825C0DFFF114A122A21062128E4E1DA
:1027780004D885E116D8DF6A000C13C0F6FF14C030
:10278800F7FF134A142A0800F5CF25F02550120048
:10279800020DD30EF324F66EB70EF420F76E09007F
:1027A800120011C0D9FF12C0DAFF120022C0F6FFD2
:1027B80023C0F7FFF86A1200F6CFE1FFF7CFE2FF78
:1027C800E7501200146A09C005F00AC006F071EC5F
:1027D80029F00550FD0F126E136A7DD080D8030EC4
:1027E80085D8C00EDF646FD07AD8040E7FD8DF504A
:1027F8000D6E145009240E6E000E0A200F6E030E83
:102808000E24D96E000E0F20DA6EDF50106E0D50B8
:10281800156E10C016F0840E151805E1D00E1618A6
:1028280002E1DA0E0FD0860E151805E1D00E161843
:1028380002E1D40E07D0870E151807E1D00E16183E
:1028480004E1D80E155ECF0E08D0940E151807E1D6
:10285800D10E161804E1DA0E11D0165A28D0960EA9
:10286800151805E1D10E161802E1E30E07D0970EF0
:10287800151807E1D10E161804E1D80E155ED00E12
:10288800ECD7C00E155CD00E165803E2300E152694
:102898000DD0800E155CD10E165809E3900E155C0C
:1028A800D10E165804E2700E15262F0E1622960E1B
:1028B8001324D96EDA6A030EDA2215C0DFFF020E7E
:1028C8001426120607D00BD8030E10D8960E132420
:1028D80013D8142A132A1350125C80E212001450E1
:1028E80009240B6E000E0A200C6E12000B24D96E00
:1028F800000E0C20DA6E1200E16EE26A030EE2228C
:10290800DFCFE7FF12008ED0E80E00018D5D030EC9
:102918008E5939E2050EB3EC09F0010EB6EC22F03F
:10292800086A640E87D8E1EC26F009EC04F049EC5B
:1029380027F00C5096EC09F0090ED7EC20F0086A45
:102948000A0E78D8E1EC26F009EC04F049EC27F0FF
:102958000C5096EC09F00F0ED7EC20F02E0E9CECE4
:1029680009F0150ED7EC20F08DC00CF08EC00DF0DC
:1029780018EC04F049EC27F00C5096EC09F0180E0E
:10298800D7EC20F034D0050EB3EC09F0020EB6EC0B
:1029980022F0030E086EE80E4DD8E1EC26F009ECA3
:1029A80004F049EC27F00C5096EC09F00B0ED7EC2C
:1029B80020F0086A640E3ED8E1EC26F009EC04F039
:1029C80049EC27F00C5096EC09F0110ED7EC20F0EA
:1029D800086A0A0E2FD8E1EC26F009EC04F049EC5D
:1029E80027F00C5096EC09F0170ED7EC20F0C0EC4D
:1029F80009F026D8A7EC09F069EF21F0050E796EE9
:102A08001EEC25F020EC10F085EC12F0B1EC21F072
:102A18000E0E056E290E066EB1EC21F0A7EC15F02E
:102A280069EF21F07950040AE9E0010A01E16CD765
:102A3800030A1200076E8DC005F08EC006F0120062
:102A4800010E086E900C37D094D8B1EC21F07BD8E9
:102A580069EC21F085EC12F0B1EC21F031EC1AF0C0
:102A6800FFEC2AF032D085D8B1EC21F06CD869ECB3
:102A780021F085EC12F0B1EC21F031EC1AF0FFEC0A
:102A88002AF07A0403E10001B86B1FD02BEC04F0A4
:102A98001CD063D8F8EC0FF069EC21F065D8F7EC9E
:102AA80029F013D05AD8F8EC0FF069EC21F05CD873
:102AB800F7EC29F00AD07950010AC6E0030AE9E0E8
:102AC800010AF0E0070ACFE0010A71A836D0590ED2
:102AD800F66EBE0EF76E9EEC0CF0000EF3EC22F0D4
:102AE8005A0EF66EBE0EF76E9EEC0CF0060EF3EC68
:102AF80022F05B0EF66EBE0EF76E9EEC0CF00C0E1E
:102B0800F3EC22F05C0EF66EBE0EF76E9EEC0CF047
:102B1800120EF3EC22F00001B15108E02B0E116EF9
:102B2800F0EC0FF0180EF3EC22F007D02D0E116E1A
:102B3800F0EC0FF0180EF3EC22F0B90E076E86ECED
:102B480027F071881200720E056E190E066E086A5B
:102B5800076A0A6A140E096E140C0001B151010EBD
:102B6800D8A4000EB16F1200050E796EB1C005F041
:102B78000A0C4E0E056E2A0E066E12003DD08CD839
:102B8800B1EC21F07CD8F7EC0DF069EC21F0F8EC11
:102B98000FF069EC21F031EC1AF0FFEC2AF036D096
:102BA8007BD8B1EC21F085EC12F0B1EC21F0A7EC68
:102BB80015F069EC21F0EFD7752A080E756401D07D
:102BC800756AF8EC0FF069EC21F05ED8F7EC29F0A3
:102BD80060D839EC2AF01AD07506752802E1080E7B
:102BE800756EF8EC0FF069EC21F04ED8F7EC29F08F
:102BF80050D839EC2AF00AD07950010AC0E0030A0B
:102C0800DBE0010AE9E0070ACBE0010A71A822D05B
:102C180031D89EEC0CF0000EF3EC22F026D89EEC96
:102C28000CF0060EF3EC22F01BD89EEC0CF00C0E08
:102C3800F3EC22F00A0E096E7550C0EC29F0F5ECA1
:102C48000AF0120EF3EC22F0116AF0EC0FF0180EF5
:102C5800F3EC22F0B90E076E86EC27F071881200AB
:102C6800810EF66EBE0EF76E1200800EF66EBE0E68
:102C7800F76E12007F0EF66EBE0EF76E1200D60EBD
:102C8800056E3A0E066E1200050E796E75C005F0D7
:102C9800030C75C007F00A0C840E056E2B0E066E29
:102CA80012001250D96EDA6A2B0EDF6E82D068ECF1
:102CB80027F00009D8A41200CC0EC1EC27F0440E6E
:102CC800C1EC27F01450D96EDA6ADF6A1350D96E56
:102CD800DA6A020EDF6ECD80020C68EC27F0CC0EAB
:102CE800C1EC27F0BE0EC1EC27F0196A780E192442
:102CF800D96EDA6A010EDA22DDEC27F0DF6E192AC6
:102D0800010E1964F3D701017951156E78511A6EC5
:102D180015C01BF01BAE09D01A6C1B1ED8B01B2A9D
:102D28001250D96EDA6A2D0EDF6E1A500F0B186E1C
:102D3800C30E1824F66EF76AB70EF7220800F5CF0F
:102D480018F01A3A1B3A0F0E1A161B50F00B1A12EB
:102D58000F0E1B161A500A0DF3CF1AF0F4CF1BF002
:102D680018501A26000E1B221AC00CF01BC00DF0BA
:102D780018EC04F049EC27F00C50176E1AC005F057
:102D88001BC006F0CEEC09F0E1EC26F005C01AF005
:102D980006C01BF0050E176402D01A4A1B2A1150F0
:102DA800D96EDA6A1AC0DFFF1350D96EDA6ADF6AA1
:102DB800000C1350D96EDA6ADF5001E178D7010AA6
:102DC8008CE0030A12002AEC27F098EC2AF07EEC3B
:102DD80028F056EC2AF058EC2BF0E4EC2AF05DECE5
:102DE80029F018EC2BF033EC29F077EC17F0066A91
:102DF800056AF6EC2AF0766E066A010E056EF6ECA8
:102E08002AF07A6E7A0403E10001B86B02D02BEC49
:102E180004F0066A020E056EF6EC2AF00001B76FA0
:102E28003CEC13F0F6EC2AF0756E4DEC16F039EC2C
:102E38002AF095EC26F055EC2BF010EC2BF00DEC6D
:102E48000EF0F5EC1FF0120E056E000E066E086A05
:102E5800280E076E3FD869EC21F0AA0E056E480EC1
:102E68003DD838D869EC21F0066A040E056EF6ECF8
:102E78002AF00001B66F066A050E056EF6EC2AF018
:102E88000001B56F066A060E056EF6EC2AF0000121
:102E9800B46F066A070E056EF6EC2AF00001B36FF0
:102EA800066A080E056EF6EC2AF00001B26F066A93
:102EB800090E056EF6EC2AF00001FE6F066A0A0E8E
:102EC800056EF6EC2AF00001B16F066A030E056E76
:102ED80008EF2BF00A6A140E096E140C066E086AC5
:102EE800640E076E640C880E49EC26F008C087F063
:102EF80009C088F08A0E49EC26F008C093F109C091
:102F080094F18C0E49EC26F008C091F109C092F1B9
:102F18008E0E49EC26F008C0F0F109C0F1F1900ED0
:102F280049EC26F008C08FF109C090F1920E49ECE7
:102F380026F008C08DF109C08EF1940E49EC26F0F8
:102F480008C08BF109C08CF1960E49EC26F008C038
:102F580089F109C08AF1980E49EC26F008C087F17A
:102F680009C088F19A0E49EC26F008C085F109C01D
:102F780086F19C0E49EC26F008C083F109C084F163
:102F88009E0E49EC26F008C081F109C082F1CC0EF2
:102F9800076EF50E48EC2AF0B70E076EF40E48ECF3
:102FA8002AF06B0E0001886F700E876F670E0101A3
:102FB800946F430E936FFC0E926F180E916F8E0EE6
:102FC800F16F7D0EF06FD60E906F430E8F6F0B0E64
:102FD8008E6FD00E8D6F0B0E8C6F270E8B6F8A6BDA
:102FE8008C0E896F8869F90E876F3C0E866F8C0E80
:102FF800856FC60E846FF80E836F170E826F700E82
:10300800816F700C46D087D8B1EC21F0280E056E80
:10301800250E066EF7EC0DF069EC21F0F8EC0FF0D8
:1030280069EC21F031EC1AF0FFEC2AF03CD073D8AF
:10303800B1EC21F085EC12F0B1EC21F0A7EC15F021
:1030480069EC21F031EC1AF0FFEC2AF07A0403E184
:103058000001B86B28D02BEC04F025D07A2A020E98
:103068007A6402D0010E7A6EF8EC0FF069EC21F068
:103078004DD8F7EC29F017D07A067A5002E1020E03
:103088007A6EF8EC0FF069EC21F040D8F7EC29F0F3
:103098000AD07950010AB7E0030AE0E0010AECE03F
:1030A800070AC5E0010A71A82BD06F0EF66EBE0E96
:1030B800F76E9EEC0CF0000EF3EC22F0700EF66E3C
:1030C800BE0EF76E9EEC0CF0060EF3EC22F0710EBD
:1030D800F66EBE0EF76E9EEC0CF00C0EF3EC22F0C2
:1030E8000A0E096E7A50C0EC29F0F5EC0AF0120EBF
:1030F800F3EC22F0116AF0EC0FF0180EF3EC22F06A
:10310800B90E076E86EC27F071881200050E796EED
:103118007AC005F0010C0C0E056E300E066E12001A
:1031280040D083D8B1EC21F0200E056E1C0E066E3F
:10313800F7EC0DF069EC21F0F8EC0FF069EC21F0F8
:1031480079D839D072D8B1EC21F085EC12F0B1EC15
:1031580021F0A7EC15F069EC21F031EC1AF0FFEC46
:103168002AF029D00001842B1F0E846502D0010E9D
:10317800846FF8EC0FF069EC21F0A9EC0CF0A4ECEA
:1031880027F019D000018407845102E11F0E846FD3
:10319800F8EC0FF069EC21F0A9EC0CF0A4EC27F0A6
:1031A8000AD07950010ABDE0030ADCE0010AEAE02E
:1031B800070AC8E0010A71A832D07B0EF66EBE0E6F
:1031C800F76E9EEC0CF0000EF3EC22F07C0EF66E1F
:1031D800BE0EF76E9EEC0CF0060EF3EC22F07D0EA0
:1031E800F66EBE0EF76E9EEC0CF00C0EF3EC22F0B1
:1031F80011EC0BF0845164EC28F0C0EC29F0F5ECEC
:103208000AF0120EF3EC22F00A0E096E0001845146
:10321800C0EC29F0F5EC0AF0180EF3EC22F0B90E28
:10322800076E86EC27F071881200280E056E310EA5
:10323800066E1200050E796E7188050C32D085D89D
:10324800B1EC21F0740E056E340E066EF7EC0DF03D
:1032580069EC21F0F8EC0FF069EC21F031EC1AF090
:10326800FFEC2AF028D071D8B1EC21F0A7EC15F0CA
:1032780069EC21F085EC12F0B1EC21F0EFD759D8C8
:10328800F8EC0FF069EC21F05BD8F7EC29F013D0DB
:1032980050D8F8EC0FF069EC21F052D8F7EC29F08F
:1032A8000AD07950010ACBE0030AE9E0010AF0E00C
:1032B800070AD9E0010A71A836D05E0EF66EBE0E76
:1032C800F76E9EEC0CF0000EF3EC22F05F0EF66E3B
:1032D800BE0EF76E9EEC0CF0060EF3EC22F0600EBC
:1032E800F66EBE0EF76E9EEC0CF00C0EF3EC22F0B0
:1032F800610EF66EBE0EF76E9EEC0CF0120EF3EC3D
:1033080022F00001B25108E02B0E116EF0EC0FF024
:10331800180EF3EC22F007D02D0E116EF0EC0FF022
:10332800180EF3EC22F0B90E076E86EC27F07188C0
:1033380012000001B251010ED8A4000EB26F1200A3
:10334800050E796EB2C005F0080C440E056E320EFB
:10335800066E12003ED085D8B1EC21F0960E056EAF
:10336800160E066EF7EC0DF069EC21F0F8EC0FF094
:1033780069EC21F072D837D074D8B1EC21F085EC23
:1033880012F0B1EC21F0A7EC15F069EC21F065D84A
:10339800FFEC2AF028D00001862B630E866501D049
:1033A800866BF8EC0FF069EC21F0A9EC0CF0A4ECBA
:1033B80027F019D000018607862902E1630E866F7F
:1033C800F8EC0FF069EC21F0A9EC0CF0A4EC27F074
:1033D8000AD07950010ABFE0030ADDE0010AEAE0F9
:1033E800070ACAE0010A71A832D0670EF66EBE0E4F
:1033F800F76E9EEC0CF0000EF3EC22F0680EF66E01
:10340800BE0EF76E9EEC0CF0060EF3EC22F0690E81
:10341800F66EBE0EF76E9EEC0CF00C0EF3EC22F07E
:1034280011EC0BF0865164EC28F0C0EC29F0F5ECB7
:103438000AF0120EF3EC22F00A0E096E0001865112
:10344800C0EC29F0F5EC0AF0180EF3EC22F0B90EF6
:10345800076E86EC27F071881200050E796E719858
:10346800050C5C0E056E330E066E12003DD083D837
:10347800B1EC21F04E0E056E2A0E066EF7EC0DF03B
:1034880069EC21F0F8EC0FF069EC21F031EC1AF05E
:10349800FFEC2AF033D06FD8B1EC21F0A7EC15F08F
:1034A80069EC21F085EC12F0B1EC21F0EFD70001C6
:1034B800FE2B030EFE1902E1010EFE6FF8EC0FF071
:1034C80069EC21F053D8F7EC29F018D00001FE0779
:1034D800FE5102E1020EFE6FF8EC0FF069EC21F0EC
:1034E80045D8F7EC29F00AD07950010AC0E0030A60
:1034F800DEE0010AEBE0070ACEE0010A71A830D04D
:10350800540EF66EBE0EF76E9EEC0CF0000EF3EC49
:1035180022F0550EF66EBE0EF76E9EEC0CF0060EFF
:10352800F3EC22F0560EF66EBE0EF76E9EEC0CF023
:103538000C0EF3EC22F0570EF66EBE0EF76E9EECF4
:103548000CF0120EF3EC22F0FEC011F077C012F06E
:1035580078C013F0B90E146E156A180EF3EC22F049
:10356800B90E076E86EC27F071881200050E796E89
:10357800FEC005F0090C740E056E340E066E1200BE
:1035880032D082D8B1EC21F0440E056E320E066EB0
:10359800F7EC0DF069EC21F0F8EC0FF069EC21F094
:1035A80031EC1AF0FFEC2AF028D06ED8B1EC21F0FB
:1035B800A7EC15F069EC21F085EC12F0B1EC21F0E4
:1035C800EFD756D8F8EC0FF069EC21F058D8F7ECA3
:1035D80029F013D04DD8F8EC0FF069EC21F04FD852
:1035E800F7EC29F00AD07950010ACBE0030AE9E0A8
:1035F800010AF0E0070AD9E0010A71A833D0830E66
:10360800F66EBE0EF76E9EEC0CF0000EF3EC22F098
:10361800840EF66EBE0EF76E9EEC0CF0060EF3EC02
:1036280022F0850EF66EBE0EF76E9EEC0CF00C0EB8
:10363800F3EC22F00001B35108E02B0E116EF0EC10
:103648000FF0120EF3EC22F007D02D0E116EF0ECF5
:103658000FF0120EF3EC22F0116AF0EC0FF0180ED6
:10366800F3EC22F0B90E076E86EC27F07188120091
:103678000001B351010ED8A4000EB36F1200050E5D
:10368800796EB3C005F0070C880E056E350E066E10
:10369800120032D082D8B1EC21F0880E056E350EBA
:1036A800066EF7EC0DF069EC21F0F8EC0FF069EC20
:1036B80021F031EC1AF0FFEC2AF028D06ED8B1ECEA
:1036C80021F0A7EC15F069EC21F085EC12F0B1ECD3
:1036D80021F0EFD756D8F8EC0FF069EC21F058D864
:1036E800F7EC29F013D04DD8F8EC0FF069EC21F085
:1036F8004FD8F7EC29F00AD07950010ACBE0030A39
:10370800E9E0010AF0E0070AD9E0010A71A833D01C
:103718008B0EF66EBE0EF76E9EEC0CF0000EF3EC00
:1037280022F08C0EF66EBE0EF76E9EEC0CF0060EB6
:10373800F3EC22F08D0EF66EBE0EF76E9EEC0CF0DA
:103748000C0EF3EC22F00001B45108E02B0E116EC0
:10375800F0EC0FF0120EF3EC22F007D02D0E116EE4
:10376800F0EC0FF0120EF3EC22F0116AF0EC0FF00F
:10377800180EF3EC22F0B90E076E86EC27F071886C
:1037880012000001B451010ED8A4000EB46F12004B
:10379800050E796EB4C005F0060C9A0E056E360E4D
:1037A800066E120032D082D8B1EC21F09A0E056E66
:1037B800360E066EF7EC0DF069EC21F0F8EC0FF020
:1037C80069EC21F031EC1AF0FFEC2AF028D06ED821
:1037D800B1EC21F0A7EC15F069EC21F085EC12F0C2
:1037E800B1EC21F0EFD756D8F8EC0FF069EC21F0E6
:1037F80058D8F7EC29F013D04DD8F8EC0FF069EC55
:1038080021F04FD8F7EC29F00AD07950010ACBE023
:10381800030AE9E0010AF0E0070AD9E0010A71A801
:1038280033D0870EF66EBE0EF76E9EEC0CF0000ECF
:10383800F3EC22F0880EF66EBE0EF76E9EEC0CF0DE
:10384800060EF3EC22F0890EF66EBE0EF76E9EECB5
:103858000CF00C0EF3EC22F00001B55108E02B0E31
:10386800116EF0EC0FF0120EF3EC22F007D02D0ED3
:10387800116EF0EC0FF0120EF3EC22F0116AF0EC7E
:103888000FF0180EF3EC22F0B90E076E86EC27F055
:10389800718812000001B551010ED8A4000EB56F51
:1038A8001200050E796EB5C005F0050CAC0E056E5C
:1038B800370E066E120041D080D8B1EC21F00C0E04
:1038C800056E300E066EF7EC0DF069EC21F0F8ECA1
:1038D8000FF069EC21F031EC1AF0FFEC2AF037D048
:1038E8006CD8B1EC21F085EC12F0B1EC21F0A7EC2A
:1038F80015F069EC21F0EFD7762A050E766402D030
:10390800010E766EF8EC0FF069EC21F0050E796E79
:1039180051D8F7EC29F095EC26F019D076067650B8
:1039280002E1050E766EF8EC0FF069EC21F0050E59
:10393800796E40D8F7EC29F0EED77950010ABCE04F
:10394800030ADAE0010AEAE0070ACAE0010A71A8F4
:103958002BD0730EF66EBE0EF76E9EEC0CF0000EBA
:10396800F3EC22F0740EF66EBE0EF76E9EEC0CF0C1
:10397800060EF3EC22F0750EF66EBE0EF76E9EEC98
:103988000CF00C0EF3EC22F00A0E096E7650C0EC27
:1039980029F0F5EC0AF0120EF3EC22F0116AF0ECC3
:1039A8000FF0180EF3EC22F0B90E076E86EC27F034
:1039B8007188120076C005F0000CBE0E056E380E38
:1039C800066E12000001B05118E0B06B0101F86BEF
:1039D80011D0F8515CD8DE50DE1006E1F85167D8F6
:1039E800010EDE6EDD6A05D0F85151D8DE06000EF4
:1039F800DD5AF82B7450F85DECE30101F96B43D004
:103A0800F95155D8DE04DE103CE1F95148D8DECF33
:103A1800F6F1DDCFF7F1F95152D8DE50DE1009E1A9
:103A2800F9513DD8DECF05F0DDCF06F0B1EC21F03D
:103A38001BD0F9513CD8DE6ADD6AF95128D8DE502E
:103A4800DE1012E16D686E68F95139D8DECF6FF07B
:103A5800DDCF70F06D506F266E507022F95117D877
:103A68006FC0DEFF70C0DDFF01D80BD0050001017B
:103A7800FA6EF651FD6EF751FE6EF850FF6EFA5071
:103A880012000101F92B7450F95DBAE31200080D18
:103A9800020EF324D96E010EF420DA6E1200080D1E
:103AA800000EF324D96E010EF420DA6E1200080D10
:103AB800060EF324D96E010EF420DA6E1200080DFA
:103AC800040EF324D96E010EF420DA6E12003CD0F5
:103AD8007ED8B1EC21F0AC0E056E370E066EF7EC11
:103AE8000DF069EC21F0F8EC0FF069EC21F031EC05
:103AF8001AF0FFEC2AF032D06AD8B1EC21F0A7EC2A
:103B080015F069EC21F085EC12F0B1EC21F0EFD75B
:103B18000001B62B010EB66501D0B66BF8EC0FF0BC
:103B280069EC21F04FD8F7EC29F018D00001B6075E
:103B3800B62902E1010EB66FF8EC0FF069EC21F03E
:103B480041D8F7EC29F00AD07950010AC1E0030AFC
:103B5800DFE0010AEBE0070ACFE0010A71A82CD0E8
:103B6800630EF66EBE0EF76E9EEC0CF0000EF3ECD4
:103B780022F0640EF66EBE0EF76E9EEC0CF0060E8A
:103B8800F3EC22F0650EF66EBE0EF76E9EEC0CF0AE
:103B98000C0EF3EC22F00A0E096E0001B651C0ECCF
:103BA80029F0F5EC0AF0120EF3EC22F0116AF0ECB1
:103BB8000FF0180EF3EC22F0B90E076E86EC27F022
:103BC80071881200050E796EB6C005F0040CD60E89
:103BD800056E3A0E066E1200030E71D84AEC1FF0FD
:103BE800236E23501F08246E0A0E69D84AEC1FF072
:103BF800236E23501F08256E50D8030EDF6404D0AF
:103C08004CD8090EDF6427D048D8030EDE1804E12B
:103C180050D8DE50245C1FE340D8030EDE1808E1BC
:103C280048D82450DE1804E13ED8030EDF6013D0D4
:103C380034D80A0EDE1804E13CD82550DE5C0BE3CC
:103C48002CD80A0EDE180DE134D82550DE1809E10B
:103C58002AD8DF6006D02250D96EDA6A010EDF6EEC
:103C680004D02250D96EDA6ADF6A2250D96EDA6A35
:103C7800DF50D8B4120017D8170EDE1803E113D896
:103C8800DF6A000C10D82150E16EE26A020EE126CC
:103C9800E750236E2328DF6E12002150D96EDA6AAE
:103CA800050ED926050C2150D96EDA6A020ED926DE
:103CB800020C2150D96EDA6A040ED926040C196E4A
:103CC8002150D96EDA6A060ED926DF501A6E1F0CFB
:103CD80065D0FFEC2AF011EC0BF0F95164EC28F0F8
:103CE800C0EC29F0000915E1010EB3EC09F0030E50
:103CF800B6EC22F05AD8C0EC29F096EC09F00D0E7B
:103D0800D7EC20F0B00E9CEC09F0130ED7EC20F0A5
:103D180020D0010EB3EC09F0030EB6EC22F011EC42
:103D28000BF0F95164EC28F0C0EC29F096EC09F09E
:103D38000D0ED7EC20F039D8C0EC29F096EC09F03C
:103D4800130ED7EC20F0B00E9CEC09F0190ED7EC4E
:103D580020F0C0EC09F0CBEC09F0A7EC09F069EF12
:103D680021F0050E796E1EEC25F085EC12F0B1EC11
:103D780021F047EC04F0B1EC21F00001B45108E067
:103D8800320E056E100E066EF7EC0DF069EF21F09D
:103D9800A7EC15F069EC21F020EF10F07950040A37
:103DA800E0E0010A96E0030A12000A0E096E00011B
:103DB800F95112001C6E216A226A236A246A256A54
:103DC80061D84DEC2BF0EC0E3FEC2BF01C503FEC87
:103DD8002BF051EC2BF0ED0E3FEC2BF0010E09EC23
:103DE8002AF01D6E1E6A1F6A206A010E09EC2AF06D
:103DF800216E226A236A246A000E09EC2AF0256ED5
:103E080041D849EC2BF021C00DF022C00EF023C0A0
:103E18000FF00C6A1DC010F01EC011F01FC012F088
:103E280020C013F011C013F010C012F0116A106A0C
:103E38000C501024146E0D501120156E0E501220C7
:103E4800166E0F501320176E25501424186E265026
:103E58001520196E275016201A6E285017201B6E31
:103E6800050E05D0D8901B321A3219321832E82EB6
:103E7800F9D718C008F019C009F01AC00AF01BC019
:103E88000BF01200266A276A286A12001D6E195064
:103E98000E08056E000ED8A0E82A0008066E086A0B
:103EA8000C0E076E6CEC23F005501F6E1F501A5C49
:103EB800206E1F500C0DF3501924FE0F1E6E010EBC
:103EC800086E900E076E20C005F0066A6CEC23F0B1
:103ED80020501DC01BF01C6A1B26000E1C2220400F
:103EE800E8423F0B1B26000E1C2221D8086A0C0E44
:103EF800076E1E501F0DF3CF05F0F4CF06F06CECE3
:103F080023F015D8640E056E205064EC28F01B5E73
:103F1800000E1C5A580E1B24136E1B0E1C20146E08
:103F2800166A070E156E8AEC24F01350120005501D
:103F38001B2606501C221200C50EF66E560EF76E92
:103F4800000EF86E01EEF2F010EE04F00900F5CF65
:103F5800EEFFE550E150FAE1BC0EF66E560EF76E34
:103F6800000EF86E00EEFAF010EE05F00900F5CF3D
:103F7800EEFFE550E150FAE1C10EF66E560EF76E0F
:103F8800000EF86E00EE77F010EE04F00900F5CFA1
:103F9800EEFFE550E150FAE103EE00F0FA0EEE6AAA
:103FA800E806FDE102EE00F0A60EEE6AE806FDE185
:103FB80001EE00F0F20EEE6AE806FDE100EE80F098
:103FC8007A0EEE6AE806FDE1716A766A756A746AC5
:103FD800736A726A7B907B92000EF86E0001F9EFAB
:103FE80025F00F6E8B848B920EC093F01C0E0C6E16
:103FF800BE0E0D6E2AEC2AF0170E0C6EBE0E0D6E5C
:10400800EDEC2AF00FC007F0050EA3EC2AF0076AC2
:10401800110EA3EC2AF00EC007F0120EA3EC2AF042
:10402800076A130EA3EC2AF0076A140EA3EC2AF011
:10403800076A150EA3EC2AF0076A160EA3EC2AF0FD
:10404800260E076E060EA3EC2AF0080E076E000E69
:10405800A3EC2AF0030E076E010EA3EC2AF0030E60
:10406800076E020EA3EC2AF04F0E076E040EA3ECA7
:104078002AF0076A1C0EA3EC2AF030EF28F01E6A1B
:10408800C70E1E24EAEC24F0DF6A1E2A200E1E64E6
:10409800F7D7040E0C6EC70E0D6E010E0E6E040ED1
:1040A800B6EC22F0086A640E2ED8E1EC26F009EC92
:1040B80004F049EC27F01CD80C0EF3EC22F0086A47
:1040C8000A0E21D8E1EC26F009EC04F049EC27F0BF
:1040D8000FD8120EF3EC22F01CC00CF01DC00DF02E
:1040E80018EC04F049EC27F003D8180EF3EF22F08F
:1040F8000C50116E77C012F078C013F0C70E146E12
:10410800010E156E1200076E1CC005F01DC006F0EA
:104118001200136E156A166A1350B90F1624D96E59
:10412800DA6A155007080E6E0D50030DE10E0F6E7A
:10413800BD0E106EF3500F26F450102216500F26A5
:10414800000E10220FC0F6FF10C0F7FF0800F5CFD1
:1041580011F00E2A02D0D89011320E2EFCD713502F
:10416800B90F1624E16EE26AE750126ED890123445
:104178001110DF6E162A020E1664CED7146A0D0EC1
:104188000E6EFC0EE82EFED70E2EFCD7142A270E34
:104198001464F5D7B90E076E86EC27F0152A070EBA
:1041A8001564B9D7070C196E1B6A1C6A1950B90F28
:1041B8001C24D96EDA6A1B500708146E1150050DBD
:1041C80012C015F013C016F0F3501526F45016223D
:1041D8001C501526000E162215C0F6FF16C0F7FF54
:1041E8000800F5CF17F0142A02D0D8901732142EF1
:1041F800FCD71950B90F1C24E16EE26AE750186E1B
:10420800D89018341710DF6E1C2A040E1C64CED701
:104218001A6A0D0E146EFC0EE82EFED7142EFCD76B
:104228001A2A270E1A64F5D7B90E076E86EC27F0FE
:104238001B2A070E1B64B9D7070C0B6A849096904B
:10424800140E096E7A0EE82EFED7092EFCD796803A
:10425800640EE82EFED784B0010CA00E00D0E82E24
:10426800FDD784A0020CA00E00D0E82EFDD70C6A62
:1042780085EC29F007C0D9FF08C0DAFFDF6E074ACE
:10428800082A0C2A040E0C64F3D70C6A0C50072475
:10429800096E000E08200A6EFB0E0924D96EFF0E67
:1042A8000A20DA6EDF500B260C2A030E0C64EED7B8
:1042B8002FEEFFF00750D9260850DA220B50DE18EF
:1042C80002E07180030C7190000C0550061001E1AA
:1042D80012000D6A1AD00D5053EC1DF00550DE186F
:1042E80013E10650DE1810E1F29E0D504BEC1DF064
:1042F8002AD80D5063EC1DF02BD80D505BEC1DF047
:10430800DE6ADD6AF28E000C0D2A74500D5CE3E360
:104318000F0E74600F0CF29E745053EC1DF005C024
:10432800DEFF06C0DDFF74504BEC1DF00CD8745056
:1043380063EC1DF00DD874505BEC1DF0DE6ADD6A8D
:10434800742AF28E000C07C0DEFF08C0DDFF1200E1
:1043580009C0DEFF0AC0DDFF12000D6A3FD00D5014
:1043680053EC1DF00550DE1838E10650DE1835E133
:10437800F29E0D50076E086A09680A6874500B6E41
:104388000C6A09500B260A500C2207500B1803E13F
:1043980008500C181FE07450076E086AD89007364A
:1043A8000836D89007360836D89007360836F80EFB
:1043B8000724D96E000E0820DA6E0D50080D000E85
:1043C800F324E16E010EF420E26E070EDBCFE3FF6B
:1043D800E806FCE27406F28E12000D2A74500D5C99
:1043E800BEE312000D50D96EDA6A060E1DEC29F0F4
:1043F800DF6E0D50D96EDA6A0D5022D8CFEC2AF054
:104408002DD8050E1DEC29F01F0B28D80C5018D8F4
:10441800CFEC2AF019D8040E1DEC29F03F0B14D864
:104428000B500ED8CFEC2AF014D8030E1DEC29F04F
:10443800070B0FD80A5004D8CFEC2AF0DF6E120011
:10444800E16EE26AE7501200DF6E0B50D96EDA6A4D
:104458001200DF6E0A50D96EDA6A1200DF6E0C5055
:10446800D96EDA6A12000600D9CF03F0DACF04F069
:10447800F2BAF2A403D030EC2BF030D0F2B8F2A2AA
:1044880011D0F292010EF1AC000EFF0A026E023A50
:1044980002460246F1500218BF0B0218F16E1DECDD
:1044A80024F01CD09DB09EA008D09E903C0ECF6EEC
:1044B800B00ECE6EDAEC2AF011D0A0B2A1A208D0CC
:1044C800A192F00EB36E600EB26E78EC22F006D0B8
:1044D800F2BC9DAA03D09EBAF9EC27F004C0DAFF1B
:1044E80003C0D9FF7B92110000019C510AE0962B72
:1044F8001E0E966103D0800E8C1A03D0966B9C6BAF
:104508008C9EB651D8B41200A351D8B41200FD6BDA
:1045180094510BE1952B140E956103D0800E8C1AE3
:1045280004D0956B010E946F8C9E940502E1894B23
:104538008A2B2D0E895D010E8A5904E3896B8A6BDB
:10454800020E946F020E9419D8A41200952B140E23
:10455800956103D0800E8C1A800C956B946BA36BBD
:104568008C9E1200126E010E116E146A136A0C50A2
:10457800070D890E0F6EB70E106EF3500F26F4500C
:10458800102214500F26000E10220FC0F6FF10C084
:10459800F7FF0800F55011140BE013C005F00DC02B
:1045A80006F00EC007F01250142499EC29F00AD036
:1045B80013C005F00DC006F00EC007F01250142409
:1045C80007EC29F0D8901136132A070E1364CFD7B9
:1045D800010E116E142A060E1464C8D7060C196E43
:1045E800010E186E1B6A1A6A1150050D12C016F0DA
:1045F80013C017F0F3501626F45017221B50162636
:10460800000E172216C0F6FF17C0F7FF0800F55076
:1046180018140BE01AC005F014C006F015C007F016
:1046280019501B2499EC29F00AD01AC005F014C0BF
:1046380006F015C007F019501B2407EC29F0D89094
:1046480018361A2A070E1A64CFD7010E186E1B2ABD
:10465800040E1B64C8D7040C096A0950BA0FD96E36
:10466800DA6A0950E4EC24F0092A1E0E0964F5D729
:10467800040E0001AA650DD023D807E1AA2B1F0E4E
:10468800AA65010CAB6BAA6B000CD86BAA6BAB2BA1
:10469800010C16D8050DE70E076EB70E086EF3501D
:1046A8000726F4500822AA510726000E082207C040
:1046B800F6FF08C0F7FF0800F5CFD8F0AA2B010CC9
:1046C800AB510524D96E000E0620DA6EDF501200B9
:1046D8000A6A08AE06D0076C081ED8B0082A010E70
:1046E8000A6E06AE06D0056C061ED8B0062A010E64
:1046F8000A1A0B6A0C6A075008101BE0010E096EB3
:1047080004D0D89007360836092A08AEFAD7D890C8
:104718000B360C360750055C0850065805E3075061
:10472800055E0850065A0B80D89008320732092EC9
:10473800EED70A5004E00B6C0C1ED8B00C2A0BC044
:1047480005F00CC006F01200196A1A6A1B6A1C6A86
:10475800155016101710181029E0010E1D6E06D0FE
:10476800D89015361636173618361D2A18AEF8D7CB
:10477800D89019361A361B361C361550115C16504F
:104788001258175013581850145809E31550115E51
:104798001650125A1750135A1850145A1980D89094
:1047A80018321732163215321D2EE2D719C011F001
:1047B8001AC012F01BC013F01CC014F012000F6ACC
:1047C800116A106AB30E0B6EB70E0C6E0F500B26E3
:1047D800000E0C2211500B26000E0C220BC0F6FF07
:1047E8000CC0F7FF0800F5CF0DF01050B90FD96EC7
:1047F800DA6A0D50DF160F2A070E0F6401D00F6A10
:10480800102A1F0E1064DED7B90E076E86EC27F04B
:104818000E6A0D0E0B6EFC0EE82EFED70B2EFCD783
:104828000E2A630E0E64F5D7112A070E1164C9D734
:10483800070C0001B851D8B41200A12B080EA11919
:104848001BE1A16B19D0360EC86FC96F360C240E48
:1048580024D0240EC86FC96F240C240EC86FC96BEE
:104868001200C86BC96B1200120EF8D7120EC86F6F
:10487800C96F120C120E11D0A151E5E0010AE7E050
:10488800030AE7E0010AE9E0070AEBE0010AECE0C5
:10489800030AECE0010AEEE01200C86F360EC96F99
:1048A800360CEAC0A0F0EEEC10F0EFEC24F0ED0EC0
:1048B8000A6EEE0E0B6EEF0E0C6EF00E0D6EF6EC31
:1048C80021F00001A051EA1901E07184030EEA19F0
:1048D80002E1010EFD6FB25105E0FAEC10F0F0ECC8
:1048E8001DF001D0F56B060E0001EC65060C180EE4
:1048F800EC61180CEB51D8A41200EA51D8A41200AC
:10490800FD51D8B41200010EA36F010C186A14AE41
:1049180006D0136C141ED8B0142A010E186E16AEE9
:1049280004D0156C161ED8B0162A1550161017E0AC
:10493800010E176E04D0D89015361636172A16AE03
:10494800FAD71550135C1650145804E31550135E2B
:104958001650145AD89016321532172EF2D718500E
:1049680004E0136C141ED8B0142A13C013F014C03A
:1049780014F01200100E0E6E0F0E0F6E0C6AC70E9A
:104988000E2424D80E501CD80E2AC70E0F241ED869
:104998000F5016D80F06B90E076E86EC27F00D6A71
:1049A8000D0E0B6EFC0EE82EFED70B2EFCD70D2A33
:1049B8001D0E0D64F5D70C2A0F0E0C64E0D70F0CF2
:1049C800B90FE16EE26ADFCFE7FF1200D96EDA6A4B
:1049D800010EDA2212000C50EEEC28F01DEC29F042
:1049E800DF6E0C50D96EDA6A0C5024EC22F0CFEC52
:1049F8002AF016D8010E1DEC29F012D80B5024EC21
:104A080022F0CFEC2AF011D8020E1DEC29F03F0B52
:104A18000CD80A5024EC22F0CFEC2AF0DF6E1200FA
:104A2800DF6E0B50D96EDA6A1200DF6E0A50D96E4B
:104A3800DA6A12000ED021EC26F011C013F012C071
:104A480014F0166A050E156E8AEC24F01350000156
:104A5800A56F0001A551A419EEE0A5C0A4F0A551C9
:104A6800020DDD0EF324F66EB70EF420F76E090082
:104A7800F5CF91F00A00F5CF92F00500FA6E91514A
:104A8800FD6E9251FE6EF850FF6EFA5012000E6ADB
:104A980026D8DF501FE00C6A22D80E50B90FE16EFD
:104AA800E26AE7500B6ED8900B34DF6EB90E076ED2
:104AB80086EC27F00D6A0D0E0B6EFC0EE82EFED765
:104AC8000B2EFCD70D2A090E0D64F5D70C2A070EFC
:104AD8000C64E2D70E2A1F0E0E64DAD71F0C0E5094
:104AE800B90FD96EDA6A12000C6E0E6A24D00F6AFA
:104AF8000F50BA0FD96EDA6A0F50E4EC24F00F2A7F
:104B08001E0E0F64F5D70E50D90FD96EDA6ADF5032
:104B18000001D86FB90E076E86EC27F00D6A0D0EEE
:104B28000B6EFC0EE82EFED70B2EFCD70D2A270E97
:104B38000D64F5D70E2A0E500C5CD9E21200640EF3
:104B48000E6E0D6A0F6A0F50BA0FD96EDA6A0F50DF
:104B5800E4EC24F00F2A1F0E0F64F5D70001D86B80
:104B6800B90E076E86EC27F00C6A08D00D0E0B6E96
:104B7800FC0EE82EFED70B2EFCD70C2A0E500C5C30
:104B8800F5E30A0E0E6401D00E5E0D2A1F0E0D64A9
:104B9800D9D71F0C640E0E6E0D6A1F0E0F6E0F50C4
:104BA800B80FD96EDA6A0F50E4EC24F00F060F50F4
:104BB800F6E10001B96BB90E076E86EC27F00C6AB6
:104BC80008D00D0E0B6EFC0EE82EFED70B2EFCD770
:104BD8000C2A0E500C5CF5E30A0E0E6401D00E5E32
:104BE8000D2A1F0E0D64D9D71F0C820E0001FF6F0E
:104BF800DD0EE82EFED7FF2FFCD700D0E7EC16F02D
:104C0800FFEC2AF0F29E720E056E190E72EC17F088
:104C18006EEC17F069EC21F0DE0E056E4C0E08D82C
:104C2800010E096E69EC21F0F28EE6EC1CF0FDD75E
:104C3800066E086A076A0A6A1200F2C105F0F3C133
:104C480006F0F4C107F0F5C108F06D0E096E4E0EBE
:104C58000A6EC60E0B6E410E0C6EBBEC26F005C03C
:104C6800F2F106C0F3F107C0F4F108C0F5F1390E0E
:104C78000101F227300EF323000EF423F523F4513B
:104C8800116E7F0EF515126E12000C6E0F6A106A07
:104C98004DEC2BF0EC0E3FEC2BF00C503FEC2BF0D6
:104CA80051EC2BF0ED0E3FEC2BF0010E09EC2AF045
:104CB8000F6E106A000E09EC2AF00D6E0E6A49ECB0
:104CC8002BF00D500B6E0A6A0F500A10086E105028
:104CD8000B10096E120081B202D0010E0BD081B404
:104CE80002D0020E07D081B602D0030E03D081B8DD
:104CF80003D0040E056E01D0056A05500FE0290E99
:104D080000019B61290C9B2B280E9B19D8A412002B
:104D180005C079F09B6B010E9C6F010C00019B6B29
:104D2800120019D0AF0E776EBD0E786E12007D0E90
:104D3800776EBD0E786E12004B0E776EBD0E786ED4
:104D48001200190E776EBD0E786E1200E70E776EA0
:104D5800BC0E786E12007650010AE4E0030AE7E020
:104D6800010AEAE0070AEDE0010AF0E012000D6A24
:104D78000E6A0F6A106A05A008D009500D260A505D
:104D88000E220B500F220C501022D89009360A36EA
:104D98000B360C36D89008320732063205320550E9
:104DA800061007100810E7E10DC005F00EC006F068
:104DB8000FC007F010C008F012000A6A0B6A07500B
:104DC80008101BE0010E096E04D0D890073608368B
:104DD800092A08AEFAD7D8900A360B360750055C70
:104DE8000850065805E30750055E0850065A0A8021
:104DF800D89008320732092EEED70AC005F00BC04A
:104E080006F012000C6A1F0E0D6E0E6A0C5019D8AF
:104E18000C2A0D5016D80D06B90E076E86EC27F031
:104E28000F6A0D0E0B6EFC0EE82EFED70B2EFCD76C
:104E38000F2A1D0E0F64F5D70E2A0F0E0E64E6D743
:104E48000F0CB90FD96EDA6ADF6A12008B6A180E76
:104E5800946E8A6A1F0E936EF19E8C6A956A896AAF
:104E6800010E926EC30EC216C150F00B0E09C16E30
:104E7800CF0EC116C050F80B0209C06EC08EC2809A
:104E8800F18CF292F288828012000E500F1017E017
:104E9800010E106E04D0D8900E360F36102A0FAEC1
:104EA800FAD70E500C5C0F500D5804E30E500C5EF0
:104EB8000F500D5AD8900F320E32102EF2D70CC068
:104EC8000CF00DC00DF0120082909490070E056E44
:104ED8007D0EE82EFED7052EFCD700F08280948048
:104EE800C80E00D0E82EFDD7000E82B0010E066E67
:104EF800060E056E800EE82EFED7052EFCD700D0D4
:104F0800065012000A6A8C90096A0950F80D075079
:104F1800F3240A24D96EDA6A180ED926DF50086EEF
:104F28000A28C4EC28F00850C4EC28F0092A030E1B
:104F38000964EBD78C800A2A070E0A64E4D7070CA9
:104F4800156E1550ADEC29F0106E030E64EC2AF0C6
:104F58001250ADEC29F0106E040E64EC2AF01350D8
:104F6800ADEC29F0106E050E64EC2AF01450ADEC8F
:104F780029F0106E060E64EF2AF0086E0A6A0AC05D
:104F880006F008C007F0062A02D0D8900732062E8D
:104F9800FCD70750096E010E09160950E5EC29F0F7
:104FA8000A2A070E0A64EBD7D20E00D0E82EFDD7E6
:104FB8001200076A086A72EC2AF000090CE008C0BF
:104FC80005F0010E066E052A02D0D8900636052E89
:104FD800FCD706500712F00E00D0E82EFDD7082A9D
:104FE800070E0864E8D707501200ABA202D0AB98AE
:104FF800AB88000E000198250FD8AECFDFFF982BA5
:10500800950E986501D0986BA22BA205016E950E9E
:105018000164950CA26B1200D96EDA6A030EDA22CB
:105028001200056E00019951FDE09DB805D09EA8BB
:10503800FED705C0ADFF12009D98000E9A25D96EC7
:10504800DA6A020EDA2205C0DFFF9A2B0F0E9A6584
:1050580001D09A6B990712008B94E20E48EC29F064
:105068008B84700E076E070EA3EC2AF08B920B0E42
:10507800076E000EA3EC2AF08B82C00E00D000D081
:10508800E82EFCD700D000D000D0120010D0B90E06
:10509800076E86EC27F00E6A0D0E0D6EFC0EE82EDC
:1050A800FED70D2EFCD70E2A3B0E0E64F5D70BC08B
:1050B80005F00CC006F030EC23F00009E8E112001E
:1050C800066E086A055014E0010E076E03D0D890EA
:1050D8000536072A05AEFBD7D89008360550065C7A
:1050E80003E30550065E0880D8900532072EF4D7F2
:1050F800085012008C80010E076E0C0E39EC2AF055
:10510800076A090E39EC2AF0070E076E0B0E39EC08
:105118002AF0020E076E0A0E39EC2AF0076A0F0E03
:1051280039EF2AF0146E1350ADEC29F0106E000E12
:1051380064EC2AF01250ADEC29F0106E010E64EC0C
:105148002AF01450ADEC29F03F0B106E020E64EFFC
:105158002AF00A6E8B940A5048EC29F00B6A0BD09F
:1051680007C0F6FF08C0F7FF0800F55048EC29F023
:10517800074A082A0B2A09500B5CF2E38B841200B9
:10518800056E066A05AE02D08C8401D08C948C82A0
:1051980000F000F000F000F000F000F000F08C9259
:1051A800D8900536062A070E0664ECD7070C096E58
:1051B8008B94095048EC29F00A6A07D007500A2452
:1051C80009D848EC29F0DF6E0A2A08500A5CF6E391
:1051D8008B841200D96EDA6A000C0001FB5103E1DE
:1051E8003A0EFA5D05E3030E076E0A0E39EF2AF050
:1051F800FB5108E1330EFA5DD8B01200076A0A0EB7
:1052080039EC2AF012000B6E05C008F0010E096E89
:10521800082A02D0D8900936082EFCD7091C0A6E35
:105228000B500624D96E000E0720DA6E0A50DF16DE
:105238001200086E4DEC2BF0D00E3FEC2BF008500E
:105248003FEC2BF051EC2BF0D10E3FEC2BF0000E85
:1052580009EC2AF0096E49EC2BF009501200948CE5
:10526800948EAC98AC8AAB88AB8EAC84B886040EAE
:10527800B06E100EAF6E00019A6B100E996F986B9E
:10528800976BA26B9D8A1200056E066A05AE02D066
:105298008C8801D08C98D89005368C8A010E83A60C
:1052A800000E05128C9A062A070E0664EFD70550E1
:1052B800120068EC27F00009D8A41200CC0EC1EC4B
:1052C80027F04E0EC1EC27F0000EC1EC27F0000EBF
:1052D800C1EC27F07F0EC1EF27F005C007F006C02C
:1052E80008F002D0074A082A07C0D9FF08C0DAFF29
:1052F800DF50F8E10550075C056E06500858066E49
:105308001200056A066AD8900536968084A0FED7F2
:10531800640EE82EFED784B0058084B0FED7062A36
:10532800070E0664F0D7055012000A6E05C008F093
:10533800010E096E082A02D0D8900936082EFCD72B
:105348000A500624D96E000E0720DA6E0950DF12C3
:1053580012000F6E0A0E096E0F50C0EC29F00D6E88
:105368000F0E0D160A0E056E0F5064EC28F00E6E27
:105378000E38F00B0D1012000A6E080E0B6E0C6A38
:10538800D8900A340C340C6ED8900A3609500C5C4C
:1053980002E309500C5E0B2EF3D70C501200A251F9
:1053A800FEE0000E972510EC28F0DF50056E972BD5
:1053B800950E976501D0976B9D9AA2079D8A055017
:1053C8001200056E82909490050406E1060EE82E00
:1053D800FED700D082809480D20E00D0E82EFDD770
:1053E800828094801200066EA6B2FED706C0A9FF7E
:1053F80005C0A8FFA69EA69CA684F29E550EA76E81
:10540800AA0EA76EA682F28EAA0C066E28EC2BF0C6
:10541800C58628EC2BF0C9CF07F028EC2BF00650F6
:1054280002E1C58A01D0C59AC58807501200C28218
:10543800C2B2FED7C450066E056AC3500524FA6F7F
:10544800000E0620FB6F00F000F0120007D82A0EAD
:10545800ADEC28F003D8300EADEF28F00CC007F003
:105468000DC008F0050E096E050C086E8C90096ACF
:105478000850C4EC28F00750C4EC28F0092A030EA1
:105488000964F6D78C80030C086E4DEC2BF0EC0EFB
:105498003FEC2BF008503FEC2BF007503FEC2BF083
:1054A80049EF2BF0CD903C0ECF6EB00ECE6E9D80A6
:1054B800B192B180A082F00EB36E600EB26E600C35
:1054C800116E4DEC2BF0D00E3FEC2BF011503FEC51
:1054D8002BF010503FEC2BF049EF2BF0829094907A
:1054E800030EE82EFED700F082809480140EE82E7A
:1054F800FED782B0010C000C0BC007F093C008F077
:10550800610EDBEC28F0400E076E070EA3EF2AF0C1
:10551800076E8B94075048EC29F0000E48EC29F0F0
:10552800086E8B8408501200180E9412280EC66E4E
:10553800C76A630EC86EC584C5A41200FDD7086E7D
:105548008B940850200948EC29F0075048EC29F0C2
:105558008B84120020EC2BF00A6E0ABC010C38EC8C
:105568002BF00009D8B4010C000CFA0EDEEC1EF08A
:10557800D00E296EEE0E2A6E070E2B6E2C6A000CCA
:10558800F70EDEEC1EF0AC0E296E550E2A6E060ED6
:105598002B6E2C6A000C066E06C005F00F0E051661
:1055A80006380F0B0A0DF350052412000001F72BE3
:1055B800950EF765950CF76B010EF66FCD90010C03
:1055C800106A0E0E64EC2AF0080E106E0F0E64EFCF
:1055D8002AF00CC007F00DC008F0050E096E2B0E5E
:1055E800ADEF28F0A6B2FED705C0A9FFA69EA69CDF
:1055F800A680A8501200056A055025EC27F0052A58
:105608001F0E0564F9D71F0C05C0F2F106C0F3F1AF
:105618000101F46BF56B1200958695989492949419
:10562800959A958C8B841200C70ED56EF28AD76A2C
:105638003D0ED66E746A12008B94FF0E48EC29F06A
:10564800076E8B8407501200C7B4FED7C5CF05F08C
:105658001F0E0516F9E11F0CF294D76A3D0ED66E9F
:10566800010E0001B06F010C170E8CEC2AF0096EC8
:105678000950010B1200066E28EC2BF006C0C9FF7A
:105688001200986B976BA26B120028EC2BF0C58464
:10569800120028EC2BF0C580120028EC2BF0C582F4
:1056A8001200959E8C9E1200F28EF28C1200040E4F
:1056B800796E040CF4012B0102AFBD050101000055
:0156C80000E1
:10B788000000000000000000087C4E4F4E7C0804BA
:10B7980026473F070604203E7F7F3F3E207E121E3D
:10B7A800007010004C6C30186C6400FDBFEF7FFB1C
:10B7B800DFF7FEFDBFEF7FFBDFF7FE0001010202AE
:10B7C800030404050606070708090901000A0064BE
:10B7D80000E8031027C647464B9C4B0C4E964A0080
:10B7E800000000004551453E006B6F6B3E003E7CFB
:10B7F8003E1C003C7E3C1800367F363000000000BE
:10B808000000000000000000000000000000000030
:10B818000000000000000000000000000000000020
:10B828000000000000000000000000000000000010
:10B838000000000000000000000000000000000000
:10B8480000000000000000000000000000000000F0
:10B8580000000000363600000024360000002424D2
:10B86800000000240000000000000000001200009A
:10B87800000012120000001236000000123600000C
:10B888000000000000005F00000007000700147FB0
:10B89800147F14242A7F2A12231308646236495617
:10B8A80020500008070300001C2241000041221C10
:10B8B800002A1C7F1C2A08083E08080080703000F7
:10B8C8000808080808606000000020100804023E0C
:10B8D8005149453E00427F4000426151494621415D
:10B8E800454B311814127F1027454545393C4A49C4
:10B8F800493001710905033649494936064949293C
:10B908001E000036360000403400000008142241B2
:10B918001414141414004122140802015909063E93
:10B92800415D594E7C1211127C7F494949363E418E
:10B938004141227F4141413E7F494949417F0909AF
:10B9480009013E414151727F0808087F00417F414B
:10B95800002040413F017F081422417F4040404081
:10B968007F0204027F7F0408107F3E4141413E7FF1
:10B97800090909063E4151215E7F091929462649D0
:10B9880049493201017F01013F4040403F1F2040AB
:10B99800201F3F4038403F631408146303047804B1
:10B9A800036151494543007F4141000204081020CA
:10B9B8000041417F00040201020440404040400031
:10B9C8000307080020545478407F284444383844FA
:10B9D800444428384444287F3854545418087E096D
:10B9E800020018A4A49C787F0804047800447D40D1
:10B9F800002040403D007F1028440000417F400067
:10BA08007C047804787C080404783844444438FC7E
:10BA18001824241818242418FC7C0404080048540A
:10BA280054542400043F44203C4040207C1C2040C7
:10BA3800201C3C4030403C44281028444C909090B6
:10BA48007C4464544C4400083641000000770000F0
:10BA58000041360800020102040200000000000054
:10BA680000000000000000000000000000000000CE
:10BA780000000000000000004000400040000000FE
:10BA8800000000000000003E555541220000000063
:10BA9800000000000000000000000000000000009E
:10BAA800000000000000000000000000000000008E
:10BAB800000000000000000000000000000000007E
:10BAC8000000000000000000000C1E1E0C0000001A
:10BAD800000000000000000000000000000000005E
:10BAE800000000000000000000000000000000004E
:10BAF800000000000000000000000000000000003E
:10BB0800000000000000000000000000000000002D
:10BB180000000000000000007E0202020300000096
:10BB2800000000000000007E4B4A4B42000000006D
:10BB3800003E4949492200000000000000000000C2
:10BB48000000000000000000000000417E410000ED
:10BB58000609090644445F444400417F410000440B
:10BB68007D4000007C040406000000000000000086
:10BB7800000000000000003855545518000000006F
:10BB880000385454544422142A14082040403D00DC
