:0400000007EF00F016
:100008007B82A4ED1AF09FEF1BF061EC21F029C070
:1000180055F02AC056F02BC057F02CC058F075EC9C
:1000280021F029C049F02AC04AF02BC04BF02CC05F
:100038004CF00B0E7FDBD89037343B6E38343C6E77
:1000480039343D6E3A343E6E030E3F6E55C040F073
:1000580056C041F057C042F058C043F03F6601D047
:1000680007D0433443324232413240323F2EF6D732
:100078003B50405C056E3C504158066E3D5042581E
:10008800076E3E504358086EB2C009F0B3C00AF07C
:100098004BDB9BEC1EF0366601D003D009DB362E15
:1000A800FAD715DB0C0E46DB040E3B6E55C03CF050
:1000B80056C03DF057C03EF058C03FF03B6601D0F7
:1000C80003D053DB3B2EFAD737503C5C056E3850D3
:1000D8003D58066E39503E58076E3A503F58086EE4
:1000E8000001B451406EB551416E426A436A040E34
:1000F800446E55C045F056C046F057C047F058C04A
:1001080048F0446601D007D0483448324732463276
:100118004532442EF6D74050455C096E415046584A
:100128000A6E425047580B6E435048580C6E9BEC71
:100138001EF0366601D003D0BBDA362EFAD7BEDA07
:100148000E0E366E09DBB0C009F0B1C00AF0ECDA69
:100158009BEC1EF0366601D003D0AADA362EFAD709
:10016800BFDA5D506524516E5E506620526E5F5056
:100178006720536E60506820546E51C005F052C01D
:1001880006F053C007F054C008F0050E096E0A6A5D
:100198000B6A0C6A9BEC1EF0800E0524366E000E6E
:1001A8000620376E000E0720386E000E0820396EC4
:1001B80037C036F038C037F039C038F0396A38BE41
:1001C800396836C04DF037C04EF038C04FF039C0EE
:1001D80050F03550D96EDA6A4DC0DEFF4EC0DEFFF2
:1001E8004FC0DEFF50C0DEFF51C036F052C037F0BE
:1001F80053C038F054C039F03934BDDA000E362413
:10020800656E060E3720666EFF0E3820676EFF0E8D
:100218003920686E0B0E12DA9BEC1EF0366601D0A0
:1002280003D046DA362EFAD749DA96DAA6C009F0AC
:10023800A7C00AF079DA9BEC1EF052DAA8C005F0E4
:10024800A9C006F056DA9BEC1EF0D8900534366E3D
:100258000634376E0734386E0834396E36505D26EA
:1002680037505E2238505F22395060220001AA516F
:10027800366EAB51376E386A396A37C039F036C0D6
:1002880038F0376A366A020E3A6E5DC03BF05EC0DF
:100298003CF05FC03DF060C03EF03A6601D007D048
:1002A8003E343E323D323C323B323A2EF6D736505F
:1002B8003B245D6E37503C205E6E38503D205F6EAB
:1002C80039503E20606E0D0EB9D99BEC1EF0366693
:1002D80001D003D0EDD9362EFAD7F0D9120E366EEA
:1002E800030E376EACC005F0ADC006F0000E0FDA95
:1002F8009BEC1EF005C038F006C039F007C03AF094
:1003080008C03BF0376601D007D03B343B323A3265
:1003180039323832372EF6D7AEC005F0AFC006F006
:10032800E8D99BEC1EF0C4D9055038243C6E065021
:1003380039203D6E07503A203E6E08503B203F6EF4
:10034800366601D003D011DA362EFAD73CC065F0F4
:100358003DC066F03EC067F03FC068F00F0E366ED5
:10036800000E6524056E800E6620066E000E67205E
:10037800076E000E6820086EEEC009F0EFC00AF0A4
:100388000B6A0C6A9BEC1EF0366601D003D090D93C
:10039800362EFAD79CD9655066106710681001E1AF
:1003A80012000C0E366E5DC037F05EC038F05FC0CC
:1003B80039F060C03AF0366601D004D03A34E0D95A
:1003C800362EF9D749C03BF04AC03CF04BC03DF04F
:1003D8004CC03EF03B1E3C1E3D1E3E1E3B2A000EFE
:1003E8003C223D223E2237503B5C3F6E38503C5801
:1003F800406E39503D58416E3A503E58426E000E9C
:100408003F24056E000E4020066E100E4120076E38
:10041800000E4220086E350E096E0C0E0A6E0B6A2D
:100428000C6A9BEC1EF005C061F006C062F007C0C4
:1004380063F008C064F0800E645C15E2D890613403
:10044800056E6234066E6334076E6434086E7BD9B9
:10045800DBEC1BF005C061F006C062F007C063F07A
:1004680008C064F014D061C005F062C006F063C033
:1004780007F064C008F067D9DBEC1BF0D8900534AE
:10048800616E0634626E0734636E0834646E61C050
:1004980036F062C037F063C038F064C039F0040E3B
:1004A80002D0D89068D9E82EFCD736C005F037C0FE
:1004B80006F038C007F039C008F061C03AF062C0F1
:1004C8003BF063C03CF064C03DF0040E05D0D8900A
:1004D8003D323C323B323A32E82EF9D73AC009F085
:1004E8003BC00AF03CC00BF03DC00CF09BEC1EF08A
:1004F8000E0E05D0D8900832073206320532E82EA3
:10050800F9D7DCD80C0E366EA0C005F0A1C006F0F5
:10051800000EFDD89BEC1EF0366601D003D0C8D87B
:10052800362EFAD7D4D80D0E366E61C037F062C0B9
:1005380038F063C039F064C03AF0030E02D0D890A6
:100548001FD9E82EFCD737C005F038C006F039C0EF
:1005580007F03AC008F0A2C009F0A3C00AF0E4D836
:100568009BEC1EF0366601D003D0A2D8362EFAD7FF
:10057800B7D8040E366EA4C037F0A5C038F0000E08
:1005880038BEFF0E396E3A6E655037243B6E6650A2
:1005980038203C6E675039203D6E68503A203E6ED8
:1005A8005D503B243F6E5E503C20406E5F503D20C6
:1005B800416E60503E20426E366601D007D042340C
:1005C8004232413240323F32362EF6D761503F2414
:1005D800616E62504020626E63504120636E6450C9
:1005E8004220646E070E196E400E1A6E3F0E1B6E87
:1005F80061C00DF062C00EF063C00FF064C010F06F
:100608004FEC1EF00DC016F00EC017F00FC018F01A
:100618006BEC17F016C025F017C026F018C027F0AD
:100628008DEC18F03450D96EDA6A25C0DEFF26C08A
:10063800DEFF27C0DEFF28C0DEFF1200366E020E86
:10064800376E65C038F066C039F067C03AF068C0E8
:100658003BF0376601D007D03B343B323A3239326F
:100668003832372EF6D738C005F039C006F03AC010
:1006780007F03BC008F0020E3C6E65C03DF066C056
:100688003EF067C03FF068C040F03C6601D007D03C
:10069800403440323F323E323D323C2EF6D73DC0E8
:1006A80009F03EC00AF03FC00BF040C00CF0120049
:1006B80008340832073206320532120005C059F0F4
:1006C80006C05AF007C05BF008C05CF0120005C015
:1006D80065F006C066F007C067F008C068F0120051
:1006E80005C05DF006C05EF007C05FF008C060F0AE
:1006F8001200000E06BEFF0E076E086E65C009F0F8
:1007080066C00AF067C00BF068C00CF0120006BEA5
:10071800FF0E076E086E59C009F05AC00AF05BC098
:100728000BF05CC00CF01200000E0ABEFF0E0B6E40
:100738000C6E1200366E0001B451376EB551386E2A
:10074800396A3A6A120065C009F066C00AF067C0E3
:100758000BF068C00CF0120059C005F05AC006F042
:100768005BC007F05CC008F012003F343F323E32F5
:100778003D323C32120039323832373236321200CA
:100788003A323932383237321200CB510BE0B5ECFD
:1007980020F0166EC851800FD96EDA6A16C0DFFFD6
:1007A800C82B1200240E801901E123D23DD26BDA46
:1007B8009B6F6FDA9A6F9AC012F0136A9B5170ECB4
:1007C80020F04F0ED8EC1FF04B0ED8EC1FF00D0E9A
:1007D800D8EC1FF00A0ED8EC1FF026D22CDA180439
:1007E800191005E028DA020E181819101FE18251B5
:1007F800D00F786E78C005F0010ED5EC21F0A9EC89
:1008080022F0780403E10001DE6B02D053EC0BF018
:10081800CA6B4F0ED8EC1FF04B0ED8EC1FF00D0E24
:10082800D8EC1FF00A0ED8EC1FF0FED1450ED8EC1C
:100838001FF0520ED8EC1FF00D0ED8EC1FF00A0E68
:10084800D8EC1FF0F1D1010E1ADAD5EC21F075ECD5
:100858001EF022D0020E13DAD5EC21F0F8D7030EE1
:100868000EDAD5EC21F0F3D7040E09DAD5EC21F035
:10087800EED7050E04DAD5EC21F0E9D7DCD919500A
:100888000BE11850010ADFE0030AE4E0010AE7E09F
:10089800070AEAE0010AEDE0D00E166E17680001BB
:1008A8008251D4D919BE05D0195007E1060E185C3B
:1008B80004E2C1D9185019100DE1450ED8EC1FF00B
:1008C800520ED8EC1FF00D0ED8EC1FF00A0ED8EC23
:1008D8001FF0AAD14F0ED8EC1FF04B0ED8EC1FF02A
:1008E8000D0ED8EC1FF00A0ED8EC1FF09DD1D1D90F
:1008F800126E86510A0DF3508725F00F136E88513A
:100908000A0DF3508925F00F146EBDD966EC1FF05F
:100918004F0ED8EC1FF04B0ED8EC1FF00D0ED8EC94
:100928001FF00A0ED8EC1FF07FD185D91850191086
:1009380004E081D9180419100CE18251D00FDD6F41
:100948008351D00FDC6FDDC005F0020ED5EC21F02D
:100958000DD0450ED8EC1FF0520ED8EC1FF00D0E3E
:10096800D8EC1FF00A0ED8EC1FF05ED10001DD5163
:1009780009E1DCC005F0030ED5EC21F085EC14F09C
:1009880029EC22F04F0ED8EC1FF04B0ED8EC1FF0DC
:100998000D0ED8EC1FF00A0ED8EC1FF045D14BD93C
:1009A8001850191004E047D91804191009E18251A8
:1009B800D00FDB6FDBC005F0040ED5EC21F00DD0B5
:1009C800450ED8EC1FF0520ED8EC1FF00D0ED8ECE7
:1009D8001FF00A0ED8EC1FF027D14F0ED8EC1FF0ED
:1009E8004B0ED8EC1FF00D0ED8EC1FF00A0ED8EC09
:1009F8001FF01AD120D91850191004E01CD9180476
:100A080019101BE132D922D91850191005E02DD937
:100A18001DD91804191011E18251D00FDA6F8351D2
:100A2800D00FD96FDAC005F0050ED5EC21F0D9C08A
:100A380005F0060ED5EC21F00DD0450ED8EC1FF0D0
:100A4800520ED8EC1FF00D0ED8EC1FF00A0ED8ECA1
:100A58001FF0EAD04F0ED8EC1FF04B0ED8EC1FF069
:100A68000D0ED8EC1FF00A0ED8EC1FF0DDD0E3D83D
:100A78001850191004E0DFD81804191009E1825140
:100A8800D00FD86FD8C005F0070ED5EC21F00DD0E7
:100A9800450ED8EC1FF0520ED8EC1FF00D0ED8EC16
:100AA8001FF00A0ED8EC1FF0BFD04F0ED8EC1FF085
:100AB8004B0ED8EC1FF00D0ED8EC1FF00A0ED8EC38
:100AC8001FF0B2D0086A640EEAD8C1EC1EF0C5D88F
:100AD80029EC1FF00C50300FD8EC1FF0086A0A0EF2
:100AE800DED8C1EC1EF0B9D829EC1FF00C50300F3D
:100AF800D8EC1FF0F8C00CF0F9C00DF011EC10F0B4
:100B080029EC1FF00C50300FD8EC1FF065D01A6A92
:100B18000B0E1A6401D00AD0280E1A24F66EF76A52
:100B2800B90EC3D8D8EC1FF01A2AF2D70D0ED8EC9C
:100B38001FF00A0ED8EC1FF01A6A080E1A6401D0CA
:100B48000AD0340E1A24F66EF76AB90EAED8D8EC6D
:100B58001FF01A2AF2D70D0ED8EC1FF00A0ED8ECA7
:100B68001FF03AD0FA51D8EC1FF0086A640E076EED
:100B780081D8C1EC1EF071D829EC1FF00C50300F51
:100B8800D8EC1FF02CEC0CF0C1EC1EF066D829EC68
:100B98001FF00C50300FD8EC1FF024EC0CF029ECAF
:100BA8001FF00C50300FD8EC1FF016D0450ED8ECC3
:100BB8001FF0520ED8EC1FF00D0ED8EC1FF00A0EE5
:100BC800D8EC1FF009D08251610A01E17BD7150AE0
:100BD800C9E0020A9CE0EAD74F0ED8EC1FF04B0E92
:100BE800D8EC1FF00D0ED8EC1FF00A0ED8EC1FF051
:100BF8001BD08151610A01E1FDD6030A01E195D6B6
:100C0800010A01E1EBD5070A01E171D6010A01E108
:100C18002ED7030A01E132D6140AD5E0010A01E110
:100C2800BED6070A01E1C3D50001806B816B826BD8
:100C3800C86B24EF23F0D00E166E17688251186E19
:100C4800196A16501826175019221200186E196AB8
:100C58001650182617501922120005C00CF006C0AD
:100C68000DF00F6A0A0E0E6E0A0CD00E166E17687B
:100C780083511200BAC005F0BBC006F012007A6EAC
:100C88007AC005F0000C82510A0DF3508325F00F4D
:100C9800120084510A0DF3508525F00F1200076EDB
:100CA800F8C005F0F9C006F01200F7220800F55068
:100CB8001200236E45D10001DE6B246AA3EC0EF00E
:100CC800E1510DEC20F0B0EC21F0000910E0A3ECAC
:100CD8000EF0E1510DEC20F0B0EC21F039D9980E6E
:100CE8002424D5EC1DF00800F5CFDFFF05D0980EC1
:100CF8002424D5EC1DF0DF6AB2EC0EF0B0EC21F044
:100D080027D99E0E2424D96EDA6A010E4AD9A3EC9B
:100D18000EF0E0510DEC20F0B0EC21F019D9A50E41
:100D28002424D96EDA6A010E3CD9ADEC0EF0B0EC91
:100D380021F00ED9AB0E2424D96EDA6A010E31D90E
:100D4800242A040E2464BAD7246AA3EC0EF0DF51D7
:100D58000DEC20F0B0EC21F01ED90CD9B10E2424F2
:100D6800D96EDA6A010E1DD9B7EC0EF0B0EC21F09D
:100D780012D900D9B50E2424D96EDA6A010E11D918
:100D8800242A020E2464E1D701019D6B800EA36F13
:100D9800A46FAA6BB06BB46B1200010E0001DE6F7A
:100DA80005D90DEC20F0B0EC21F00001D66F08D980
:100DB800B0EC21F00001D56FFED80DEC20F0B0ECBE
:100DC80021F00001D46F00D9B0EC21F00001D36FFD
:100DD800D651D01909E1D551CF1906E1D451CE1910
:100DE80003E1D351CD1974E0D351CD1909E0ECD802
:100DF800B0EC21F09DEC0EF0190EE9EC18F008D0DB
:100E0800E3D8B0EC21F009EC0DF0190EBBEC1CF0A6
:100E18000001D451CE190BE0CED80DEC20F0B0EC87
:100E280021F09DEC0EF0130EE9EC18F00AD0C3D8AF
:100E38000DEC20F0B0EC21F009EC0DF0130EBBEC3A
:100E48001CF00001D551CF1909E0BAD8B0EC21F057
:100E58009DEC0EF0070EE9EC18F008D0B1D8B0EC14
:100E680021F009EC0DF0070EBBEC1CF0A3EC0EF022
:100E7800E1510DEC20F0B0EC21F000091AE000017E
:100E8800D651D0190BE092D80DEC20F0B0EC21F03F
:100E98009DEC0EF0010EE9EC18F011D087D80DEC9E
:100EA80020F0B0EC21F009EC0DF0010EBBEC1CF0C9
:100EB80006D0116AA8EC0EF0010EE9EC18F0D6C0C5
:100EC800D0F0D5C0CFF0D4C0CEF0D3C0CDF0120052
:100ED8006DD80DEC20F0B0EC21F000090DE0A3EC8A
:100EE8000EF0E1510DEC20F0B0EC21F009EC0DF022
:100EF800010EBBEC1CF006D00D6AE2EC0DF0010E01
:100F0800BBEC1CF0B2EC0EF0B0EC21F009EC0DF0EB
:100F1800070EBBEC1CF0A3EC0EF0E0510DEC20F03A
:100F2800B0EC21F009EC0DF0130EBBEC1CF0ADECAD
:100F38000EF0B0EC21F009EC0DF0190EBBEF1CF02F
:100F48002350010A01E1B7D6030A01E126D71200AE
:100F5800050D75C021F076C022F0F3502126F4501B
:100F6800222224502126000E222221C0F6FF22C070
:100F7800F7FF000CF3502126F4502222245021269A
:100F8800000E2222030E2126000E222221C0F6FF87
:100F980022C0F7FF000C030D3F0E216EBF0E226E1C
:100FA8001200DA220800F5CFDFFF12000A0E096EE0
:100FB800056EE15112000A0E096E056EE05112002D
:100FC8000A0E096EE15112000A0E096EE051120074
:100FD80040D062D9DBEC19F0460E056E200E4AECC3
:100FE8000FF093EC19F02EEC11F093EC19F0B5EC2E
:100FF80010F039D051D9DBEC19F039EC11F0DBECF9
:1010080019F000EC16F04AEC0FF093EC19F0EDEC47
:1010180012F0A9EC22F027D09E2B0C0E9E6502D070
:10102800010E9E6F2EEC11F093EC19F0A5EC10F068
:1010380066EC1FF018D09E079E5102E10C0E9E6FC1
:101048002EEC11F093EC19F0A5EC10F066EC1FF003
:101058000AD07750010ABDE0030ADEE0010AEBE09E
:10106800070AC8E0010A74A4FFD0AB0EF66EBF0EE3
:10107800F76E00D9000EBBEC1CF0AC0EF66EBF0E7E
:10108800F76EF8D8060EBBEC1CF0AD0EF66EBF0E70
:10109800F76EF0D80C0EBBEC1CF0C6D0FC0EF66E4A
:1010A800BF0EF76EE7D8120EBBEC1CF0FD0EF66E05
:1010B800BF0EF76EDFD8180EBBEC1CF0D5D0F30EC0
:1010C800F66EBF0EF76ED6D8120EBBEC1CF0F40EFF
:1010D800F66EBF0EF76ECED8180EBBEC1CF0C4D05F
:1010E800D80EF66EBF0EF76EC5D8120EBBEC1CF00C
:1010F800D90EF66EBF0EF76EBDD8180EBBEC1CF0FD
:10110800B3D0CC0EF66EBF0EF76EB4D8120EBBEC91
:101118001CF0CD0EF66EBF0EF76EACD8180EBBECF9
:101128001CF0A2D0E40EF66EBF0EF76EA3D8120E16
:10113800BBEC1CF0E50EF66EBF0EF76E9BD8180ED2
:10114800BBEC1CF091D0E70EF66EBF0EF76E92D88E
:10115800120EBBEC1CF0E80EF66EBF0EF76E8AD8C6
:10116800180EBBEC1CF080D0D50EF66EBF0EF76ED5
:1011780081D8120EBBEC1CF0D60EF66EBF0EF76EC1
:1011880079D8180EBBEC1CF06FD07CD873D8120E2F
:10119800BBEC1CF07CD86ED8180EBBEC1CF064D0ED
:1011A800DB0EF66EBF0EF76E65D8120EBBEC1CF0A8
:1011B800DC0EF66EBF0EF76E5DD8180EBBEC1CF099
:1011C80053D0C90EF66EBF0EF76E54D8120EBBEC94
:1011D8001CF0CA0EF66EBF0EF76E4CD8180EBBEC9C
:1011E8001CF042D0EA0EF66EBF0EF76E43D8120E10
:1011F800BBEC1CF0EB0EF66EBF0EF76E3BD8180E6C
:10120800BBEC1CF031D0DE0EF66EBF0EF76E32D896
:10121800120EBBEC1CF0DF0EF66EBF0EF76E2AD86E
:10122800180EBBEC1CF020D000019E51010A01E110
:1012380035D7030A01E143D7010A01E151D7070A6B
:1012480001E15FD7010A01E16DD7030A01E17BD70C
:10125800010A8AE00F0A99E0010AA2E0030AB1E054
:10126800010AC0E0070ACFE02AEC18F0F0EC1CF005
:10127800748412000800F5CF0DF0450E0E6EB90EFD
:101288000F6E1200E10EF66EBF0EF76E1200E20E40
:10129800F66EBF0EF76E1200D80E056E0F0E066EB4
:1012A800120040D0FFD8DBEC19F0FE0E056E260EBA
:1012B8004AEC0FF093EC19F02EEC11F093EC19F0C6
:1012C800B5EC10F039D0EED8DBEC19F039EC11F0B0
:1012D800DBEC19F000EC16F04AEC0FF093EC19F087
:1012E800EDEC12F0A9EC22F027D09C2B070E9C65A0
:1012F80002D0010E9C6F2EEC11F093EC19F0A5ECC6
:1013080010F066EC1FF018D09C079C5102E1070E04
:101318009C6F2EEC11F093EC19F0A5EC10F066EC34
:101328001FF00AD07750010ABDE0030ADEE0010A87
:10133800EBE0070AC8E0010A74A4AED09F0EF66E6F
:10134800BF0EF76E3EEC09F0000EBBEC1CF0A00ED1
:10135800F66EBF0EF76E3EEC09F0060EBBEC1CF005
:10136800A10EF66EBF0EF76E3EEC09F00C0EBBEC4C
:101378001CF081D0D20EF66EBF0EF76E3EEC09F06F
:10138800120EBBEC1CF0D30EF66EBF0EF76E3EECE1
:1013980009F0180EBBEC1CF07FD0F00EF66EBF0EF5
:1013A800F76E3EEC09F0120EBBEC1CF0F10EF66E77
:1013B800BF0EF76E3EEC09F0180EBBEC1CF06CD0BB
:1013C80046EC09F03EEC09F0120EBBEC1CF04BECBD
:1013D80009F03EEC09F0180EBBEC1CF05DD0F90EDC
:1013E800F66EBF0EF76E3EEC09F0120EBBEC1CF069
:1013F800FA0EF66EBF0EF76E3EEC09F0180EBBEC57
:101408001CF04AD0F60EF66EBF0EF76E3EEC09F0F1
:10141800120EBBEC1CF0F70EF66EBF0EF76E3EEC2C
:1014280009F0180EBBEC1CF037D0C30EF66EBF0ED9
:10143800F76E3EEC09F0120EBBEC1CF0C40EF66E13
:10144800BF0EF76E3EEC09F0180EBBEC1CF024D072
:10145800CF0EF66EBF0EF76E3EEC09F0120EBBEC27
:101468001CF0D00EF66EBF0EF76E3EEC09F0180EAB
:10147800BBEC1CF011D000019C51010AE9E0030A01
:1014880001E178D7010A89E0070A9AE0010AA7E092
:10149800030AB8E0010AC9E02AEC18F0F0EC1CF0E5
:1014A80074841200AA0E056E120E066E1200A7D0E2
:1014B80078505DEC06F0020E781801E1F0D8050EC0
:1014C8000001DF650DD0070EDF610AD0F30E116E43
:1014D800F20E126EF00E136EF10E146E4EEC11F049
:1014E8000E0E0001DF6505D0100EDF6102D0030E7D
:1014F800776ED85101E190D0270EDF658DD0290E87
:10150800DF618AD0020E72D0BFD8DBEC19F0840EEE
:10151800056E180E066EBDD893EC19F02EEC11F07E
:1015280093EC19F020EEDFF010EE99F0060EDBCF09
:10153800E3FFE806FCE2050E776E7494020E781855
:101548006BE10001DE6B170E0D6EE2EC0DF00D0E77
:10155800BBEC1CF061D0DE6BEA0E346EE60E356E25
:1015680009EC00F0020E781807E1170E0D6EE2EC98
:101578000DF00D0EBBEC1CF083EC1FF085D8DBECF6
:1015880019F0FA0E056E1E0E4AEC0FF093EC19F0E6
:10159800EDEC12F041D0DA511AE0DE6B020E781849
:1015A80007E1170E0D6EE2EC0DF00D0EBBEC1CF012
:1015B80083EC1FF069D8DBEC19F0120E056E2D0EC6
:1015C8004AEC0FF093EC19F0EDEC12F00ED0D95173
:1015D8000CE0DE6B020E7818EBE1170E0D6EE2ECF4
:1015E8000DF00D0EBBEC1CF0E3D7050E776E14D092
:1015F800050E776E39EC11F0DBEC19F00DD0775051
:10160800010A82E0030AA7E0010AC5E0070AF0E040
:10161800010A01E14DD7030A74A404D02AEC18F09A
:10162800F0EC1CF00001DD5108E0DFA174A005D04A
:1016380074900BEC22F0E1EC20F074849EEC22F024
:10164800000913E06B0E0B6E70EC22F0F3EC1FF048
:101658006D50696E6C500001BA6F69C0BBF06BC009
:10166800FAF0B86BB96B749203D00001B84BB92B80
:10167800E90EB85D030EB959D8A012007482F3ECD4
:101688001FF011D845EF19F0B60E056E140E066E50
:101698001200086A076A0A6A320E096E320C010ED5
:1016A8000001DE6F010C040E0E6E780CBBD0A9ECA5
:1016B80022F074A213D0DBD886EC1CF0450EBAD801
:1016C800090EE9EC18F0720EB5D80F0EE9EC18F017
:1016D800720EB0D8150EE9EC18F089D00001BA29BD
:1016E80002E1BB2972E0ACD829EC1FF00C50226E45
:1016F8003EEC06F0BFD8C1EC1EF005C0BAF006C03B
:10170800BBF0050E226403D00001BA4BBB2BA0D856
:10171800C1EC1EF031EC06F029EC1FF00C500D1056
:101728002EE1020E0A6E030E86EC1CF00001BA517F
:10173800BB1116E0FAC011F0A8EC0EF00D0EE9ECA2
:1017480018F07ED829EC1FF00C509DEC0EF0130E0B
:10175800E9EC18F0B00E6ED8190EE9EC18F047D085
:101768006FD829EC1FF00C509DEC0EF00D0EE9EC33
:1017780018F0B00E5FD8130EE9EC18F038D077D80F
:1017880086EC1CF0FAC011F0A8EC0EF0090EE9EC9A
:1017980018F05ED8C1EC1EF031EC06F029EC1FF011
:1017A8000C509DEC0EF00F0EE9EC18F049D829EC1E
:1017B8001FF00C509DEC0EF0160EE9EC18F0B00E70
:1017C80039D81B0EE9EC18F012D051D886EC1CF071
:1017D8002D0E30D8090EE9EC18F02D0E2BD80F0E6F
:1017E800E9EC18F02D0E26D8160EE9EC18F0F0ECFE
:1017F80016F036D893EF19F0050E776E83EC1FF0CC
:10180800F1EC0DF039EC11F0DBEC19F0B40E056ECB
:10181800160E066EDBEC19F000EC16F04AEC0FF031
:1018280093EF19F07750040AE7E0010A01E13FD786
:10183800030A1200116E450E126EB90E136E1200D5
:10184800BAC00CF0BBC00DF00F6A0A0E0E6E0A0C7F
:10185800086A0A0E076EBAC005F0BBC006F00A0C8B
:10186800020E086E8A0E076E0A6A096A8A0C020E50
:101878000A6E000C086A0A0E076E0A0C74B602D0CB
:1018880074866CD074966AD0D1D8DBEC19F03E0E11
:10189800056E1A0E066E4DEC0BF093EC19F02EEC5B
:1018A80011F093EC19F0780413E1A3EC0EF09A51BF
:1018B8000DEC20F0B0EC21F0A8D80D0EBBEC1CF01C
:1018C800B0D8B0EC21F0A1D8130EBBEC1CF013D0AB
:1018D800A3EC0EF0E0510DEC20F0B0EC21F095D81F
:1018E800130EBBEC1CF0ADEC0EF0B0EC21F08DD873
:1018F800190EBBEC1CF0EDEC12F03AD097D8DBECEB
:1019080019F039EC11F0DBEC19F000EC16F04AECA8
:101918000FF093EC19F0050E776EA9EC22F028D0A1
:1019280000019A2B3B0E9A6501D09A6B2EEC11F0B0
:1019380093EC19F070D870EC20F0050E776E18D083
:1019480000019A079A2902E13B0E9A6F2EEC11F0DA
:1019580093EC19F060D870EC20F0EFD77750010ABB
:1019680093E0030ADDE0010AEBE0070AC7E0010A99
:1019780074A445D074A628D0780413E1A3EC0EF023
:101988009A510DEC20F0B0EC21F03FD80D0EBBECD5
:101998001CF047D8B0EC21F038D8130EBBEC1CF083
:1019A8002ED0A3EC0EF09A510DEC20F0B0EC21F003
:1019B8002CD8130EBBEC1CF034D8B0EC21F025D891
:1019C800190EBBEC1CF01BD078040DE10D6AE2EC9B
:1019D8000DF00D0EBBEC1CF00D6AE2EC0DF0130ED1
:1019E800BBEC1CF00CD00D6AE2EC0DF0130EBBEC56
:1019F8001CF00D6AE2EC0DF0190EBBEC1CF02AECA1
:101A080018F0F0EC1CF0748412000D6E75C00EF026
:101A180076C00FF012009AC012F0136A00019B51B1
:101A280012000A0E096E00019A511200840E056E0A
:101A3800180E066E120074B602D074864AD07496D8
:101A480048D0C1D8DBEC19F0D60E056E240E4AEC4E
:101A58000FF093EC19F02EEC11F093EC19F0050E41
:101A6800776EA9EC22F074943ED0ADD8DBEC19F077
:101A780039EC11F0DBEC19F000EC16F04AEC0FF041
:101A880093EC19F0050E776EA9EC22F02CD000012A
:101A98009B2B170E9B6501D09B6B2EEC11F093ECE2
:101AA80019F0050E776E0FEC0DF070EC20F01BD0DE
:101AB80000019B079B2902E1170E9B6F2EEC11F08A
:101AC80093EC19F0050E776E0FEC0DF070EC20F02A
:101AD8000AD07750010AB5E0030AD9E0010AE8E024
:101AE800070AC3E0010A74A463D074A64AD0780434
:101AF80024E1A3EC0EF09B510DEC20F0B0EC21F0AA
:101B080000090DE0A3EC0EF09B510DEC20F0B0ECB9
:101B180021F009EC0DF0000EBBEC1CF005D00D6AAD
:101B28004DD8000EBBEC1CF053D8B0EC21F009ECFA
:101B38000DF0060EBBEC1CF03BD0A3EC0EF09B5155
:101B48000DEC20F0B0EC21F000090DE0A3EC0EF054
:101B58009B510DEC20F0B0EC21F009EC0DF0010EDA
:101B6800BBEC1CF005D00D6A29D8010EBBEC1CF0AB
:101B78002FD8B0EC21F009EC0DF0070EBBEC1CF0EF
:101B880017D078040BE10D6A19D8000EBBEC1CF0D5
:101B98000D6A14D8060EBBEC1CF00AD00D6A0ED8DC
:101BA800010EBBEC1CF00D6A09D8070EBBEC1CF04B
:101BB8002AEC18F0F0EC1CF074841200450E0E6E3E
:101BC800B90E0F6E12003E0E056E1A0E066E12004A
:101BD8000A0E096E00019B511200A9EC22F0A2D056
:101BE800AED8E1510DEC20F0B0EC21F000090BE08B
:101BF800A6D8E1510DEC20F0B0EC21F09AD8000EF7
:101C0800E9EC18F005D0116A9FD8000EE9EC18F03D
:101C1800A5D8B0EC21F08DD8060EE9EC18F08FD8D5
:101C2800E0510DEC20F0B0EC21F083D80D0EE9EC7A
:101C380018F08FD8B0EC21F07CD8130EE9EC18F02E
:101C48004EEC1DF055EC1DF07AD8DF510DEC20F06C
:101C5800B0EC21F0216E2128106E190ECFEC17F090
:101C680082D8B0EC21F0216E2128106E1D0ECFEC29
:101C780017F068EF12F063D8E1510DEC20F0B0ECEA
:101C880021F000090BE05BD8E1510DEC20F0B0EC3D
:101C980021F04FD8010EE9EC18F005D0116A54D89C
:101CA800010EE9EC18F05AD8B0EC21F042D8070E32
:101CB800E9EC18F03A0E1EEC0CF00D0EE9EC18F0F9
:101CC8003ED8E0510DEC20F0B0EC21F032D8130EE4
:101CD800E9EC18F03ED8B0EC21F02BD8190EE9EC5D
:101CE80018F0010E0001DE6FCA6BDAEC07F00DEC9C
:101CF80020F0B0EC21F00001D06FE4EC07F0B0EC7C
:101D080021F00001CF6FDFEC07F00DEC20F0B0EC14
:101D180021F00001CE6FE8EC07F0B0EC21F00001F3
:101D2800CD6F12007850010A01E15AD7030AA3E0E7
:101D38001200116E75C012F076C013F012000A0E70
:101D4800096E056E00010A0C450E126EB90E136E6F
:101D580012000A0E096E0001E05112000A0E096E07
:101D68000001E15112000A0E096E0001DF51120054
:101D780041D0DD5110E0AAD8DBEC19F0A3D886D801
:101D880093EC19F02EEC11F093EC19F0EDEC12F045
:101D9800A9EC22F039D09AD8DBEC19F00E0E056EBA
:101DA800280E74D893EC19F0A0D8DBEC22F098D860
:101DB80029EC22F0E7D78AD8DBEC19F039EC11F0DE
:101DC800DBEC19F000EC16F061D893EC19F0DED7D3
:101DD80064D82EEC11F093EC19F07DD8D5EC21F0F5
:101DE80013D05BD82EEC11F093EC19F074D8D5EC25
:101DF80021F00AD07750010ABCE0030AE9E0010AA1
:101E0800F0E0070AD8E0010A74A43AD056D83EECAC
:101E180009F0000EBBEC1CF046D83EEC09F0060EAB
:101E2800BBEC1CF045D83EEC09F00C0EBBEC1CF0EA
:101E38000001DD5113E0C60EF66EBF0EF76E3EECE4
:101E480009F0120EBBEC1CF0C70EF66EBF0EF76E53
:101E58003EEC09F0180EBBEC1CF012D0ED0EF66E3D
:101E6800BF0EF76E3EEC09F0120EBBEC1CF0EE0E46
:101E7800F66EBF0EF76E3EEC09F0180EBBEC1CF0C8
:101E88002AEC18F0F0EC1CF074841200066E086A54
:101E9800076A0A6A140E096E140CDD51010ED8A4E3
:101EA800000EDD6F1200B40EF66EBF0EF76E120054
:101EB800B50EF66EBF0EF76E1200B30EF66EBF0EBD
:101EC800F76E12001A0E056E290E1200780E056EB6
:101ED8001D0E066E1200050E776EDDC005F0020CB1
:101EE8000001DC6FDCC007F00A0C066A030E056E01
:101EF800030C8BD0A9EC22F0000199D842E0EAC08B
:101F080005F0EBC006F0ECC007F0EDC008F0640E79
:101F1800096E0A6A0B6A0C6ADBEC1BF005C022F03A
:101F280006C023F089D886EC1CF0086A640E79D8BC
:101F3800C1EC1EF031EC06F029EC1FF00C509DECC2
:101F48000EF00B0EE9EC18F0086A0A0E6AD8C1EC1C
:101F58001EF031EC06F029EC1FF00C509DEC0EF051
:101F6800110EE9EC18F022C00CF023C00DF055D882
:101F780029EC1FF00C509DEC0EF0170EE9EC18F050
:101F880015D05AD886EC1CF0450E1EEC0CF00B0E42
:101F9800E9EC18F0520E1EEC0CF0110EE9EC18F0FA
:101FA800520E1EEC0CF0170EE9EC18F0F0EC16F0DF
:101FB800010E086E900E076E0A6A096A93EF19F00F
:101FC800050E776E34D80DE0000E056E020E066E13
:101FD8008D0E076EBF0E086E27EC20F0F7EC20F090
:101FE80002D083EC1FF0F1EC0DF039EC11F0DBECD2
:101FF80019F0FA0E056E1E0E066EDBEC19F000ECF9
:1020080016F04AEC0FF093EF19F07750040AD8E075
:10201800010A01E16FD7030A12000F6A0A0E0E6E59
:102028000A0C076E22C005F023C006F01200EA5120
:10203800EB11EC11ED111200040E0A6E030C3DD0E9
:102048008BD8DBEC19F0AA0E056E120E4AEC0FF0D5
:1020580093EC19F02EEC11F093EC19F082D837D0EC
:102068007BD8DBEC19F039EC11F0DBEC19F000EC63
:1020780016F04AEC0FF093EC19F0EDEC12F0A9EC25
:1020880022F025D09D2B1F0E9D6502D0010E9D6F5D
:102098002EEC11F093EC19F054D866EC1FF017D021
:1020A8009D079D5102E11F0E9D6F2EEC11F093ECE0
:1020B80019F047D866EC1FF00AD07750010AC0E043
:1020C800030AE0E0010AECE0070ACAE0010A74A486
:1020D80032D0AF0EF66EBF0EF76E3EEC09F0000E72
:1020E800BBEC1CF0B00EF66EBF0EF76E3EEC09F0BE
:1020F800060EBBEC1CF0B10EF66EBF0EF76E3EEC92
:1021080009F00C0EBBEC1CF0A3EC0EF09D510DEC8D
:1021180020F0B0EC21F009EC0DF0120EBBEC1CF035
:102128000A0E096E00019D51B0EC21F009EC0DF08A
:10213800180EBBEC1CF02AEC18F0F0EC1CF07484C0
:102148001200050E776E9DC012F09EC013F09FC05E
:1021580014F000019C511200460E056E200E066E0A
:102168001200050E776E7484050C2FD08ED8DBEC28
:1021780019F0280E056E2B0E4AEC0FF093EC19F0AF
:1021880069D893EC19F0EDEC12F0A9EC22F027D005
:102198007CD8DBEC19F000EC16F04AEC0FF093EC6D
:1021A80019F063D8DBEC19F0EED764D853D893EC68
:1021B80019F066D8D5EC21F012D05CD84BD893EC46
:1021C80019F05ED8D5EC21F00AD07750010ACEE09C
:1021D800030AEBE0010AF1E0070ADAE0010A74A455
:1021E80033D0BF0EF66EBF0EF76E3EEC09F0000E50
:1021F800BBEC1CF0C00EF66EBF0EF76E3EEC09F09D
:10220800060EBBEC1CF0C10EF66EBF0EF76E3EEC70
:1022180009F00C0EBBEC1CF00001D95108E02B0EA4
:102228000D6EE2EC0DF0120EBBEC1CF007D02D0E7B
:102238000D6EE2EC0DF0120EBBEC1CF00D6AE2EC38
:102248000DF0180EBBEC1CF02AEC18F0F0EC1CF0AA
:1022580074841200740E056E460E066E070E086E24
:10226800D00E076E0A6A096AD00C740E056E460E07
:10227800066E1200D951010ED8A4000ED96F1200B3
:10228800050E776ED9C005F0060C720E056E210E8C
:10229800066E12001250D96EDA6A2B0EDF6E80D0ED
:1022A80048EC1FF00009D8A41200CC0EA0EC1FF0D7
:1022B800440EA0EC1FF01450D96EDA6ADF6A13508E
:1022C800D96EDA6A020EDF6ECD80020C48EC1FF080
:1022D800CC0EA0EC1FF0BE0EA0EC1FF0196A19502E
:1022E800900FD96EDA6ABCEC1FF0DF6E192A010E66
:1022F8001964F5D700019151156E90511A6E15C0E9
:102308001BF01BAE09D01A6C1B1ED8B01B2A12502A
:10231800D96EDA6A2D0EDF6E1A500F0B186E180E72
:102328001824F66EF76AB90EF7220800F5CF18F0F0
:102338001A3A1B3A0F0E1A161B50F00B1A120F0EF0
:102348001B161A500A0DF3CF1AF0F4CF1BF01850D1
:102358001A26000E1B221AC00CF01BC00DF011EC3F
:1023680010F029EC1FF00C50176E1AC005F01BC0B6
:1023780006F03EEC0CF0C1EC1EF005C01AF006C0E9
:102388001BF0050E176402D01A4A1B2A1150D96E89
:10239800DA6A1AC0DFFF1350D96EDA6ADF6A000CF6
:1023A8001350D96EDA6ADF5001E17AD7010A8EE05C
:1023B800030A12003CD083D8DBEC19F0780E056EC6
:1023C8001D0E4AEC0FF093EC19F02EEC11F093EC83
:1023D80019F0EDEC12F0A9EC22F033D070D8DBEC58
:1023E80019F039EC11F0DBEC19F000EC16F04AECBE
:1023F8000FF093EC19F0EDD7782A020E786402D02A
:10240800010E786E2EEC11F093EC19F053D8D5EC40
:1024180021F017D07806785002E1020E786E2EEC83
:1024280011F093EC19F046D8D5EC21F00AD077508A
:10243800010AC1E0030AE0E0010AECE0070ACEE085
:10244800010A74A42BD0A30EF66EBF0EF76E3EECF5
:1024580009F0000EBBEC1CF0A40EF66EBF0EF76E72
:102468003EEC09F0060EBBEC1CF0A50EF66EBF0E96
:10247800F76E3EEC09F00C0EBBEC1CF00A0E096E70
:102488007850B0EC21F009EC0DF0120EBBEC1CF00A
:102498000D6AE2EC0DF0180EBBEC1CF02AEC18F0FB
:1024A800F0EC1CF07484780401E10ED0010E0001F8
:1024B800DE6F010C050E776E78C005F0010CBC0EBE
:1024C800056E230E066E12000001DE6B12003DD071
:1024D80084D8DBEC19F0D80E056E0F0E4AEC0FF01D
:1024E80093EC19F02EEC11F093EC19F072D837D068
:1024F80074D8DBEC19F039EC11F0DBEC19F000ECD6
:1025080016F04AEC0FF093EC19F063D8A9EC22F01E
:1025180026D09F2B630E9F6501D09F6B2EEC11F088
:1025280093EC19F0A5EC10F066EC1FF018D09F079B
:102538009F2902E1630E9F6F2EEC11F093EC19F0C6
:10254800A5EC10F066EC1FF00AD07750010AC0E045
:10255800030ADFE0010AEBE0070ACAE0010A74A4F3
:1025680032D09B0EF66EBF0EF76E3EEC09F0000EF1
:10257800BBEC1CF09C0EF66EBF0EF76E3EEC09F03D
:10258800060EBBEC1CF09D0EF66EBF0EF76E3EEC11
:1025980009F00C0EBBEC1CF0A3EC0EF09F510DECF7
:1025A80020F0B0EC21F009EC0DF0120EBBEC1CF0A1
:1025B8000A0E096E00019F51B0EC21F009EC0DF0F4
:1025C800180EBBEC1CF02AEC18F0F0EC1CF074842C
:1025D8001200050E776E7494050CD60E056E240E47
:1025E800066E120033D07DD8DBEC19F0720E056E42
:1025F800210E4AEC0FF093EC19F02EEC11F093EC4D
:1026080019F0EDEC12F0A9EC22F02AD06AD8DBEC34
:1026180019F000EC16F04AEC0FF093EC19F039ECD5
:1026280011F0DBEC19F0EDD756D82EEC11F093EC45
:1026380019F05CD8D5EC21F013D04DD82EEC11F060
:1026480093EC19F053D8D5EC21F00AD07750010A51
:10265800CAE0030AE9E0010AF0E0070AD7E0010A44
:1026680074A433D0BB0EF66EBF0EF76E3EEC09F0C5
:10267800000EBBEC1CF0BC0EF66EBF0EF76E3EEC07
:1026880009F0060EBBEC1CF0BD0EF66EBF0EF76E21
:102698003EEC09F00C0EBBEC1CF00001DA5108E02E
:1026A8002B0E0D6EE2EC0DF0120EBBEC1CF007D0F9
:1026B8002D0E0D6EE2EC0DF0120EBBEC1CF00D6A47
:1026C800E2EC0DF0180EBBEC1CF02AEC18F0F0EC64
:1026D8001CF074841200DA51010ED8A4000EDA6FCF
:1026E8001200EC0E056E250E066E1200050E776EB2
:1026F800DAC005F0050C42D081D8DBEC19F0BC0E2D
:10270800056E230E4AEC0FF093EC19F02EEC11F045
:1027180093EC19F0EDEC12F0A9EC22F039D06ED858
:10272800DBEC19F039EC11F0DBEC19F000EC16F0E9
:102738004AEC0FF093EC19F0EDD77A2A050E7A647B
:1027480002D0010E7A6E2EEC11F093EC19F0050E02
:10275800776E51D8D5EC21F075EC1EF019D07A06B9
:102768007A5002E1050E7A6E2EEC11F093EC19F016
:10277800050E776E40D8D5EC21F0EED77750010AD8
:10278800BBE0030ADAE0010AEAE0070AC8E0010A46
:1027980074A42BD0A70EF66EBF0EF76E3EEC09F0B0
:1027A800000EBBEC1CF0A80EF66EBF0EF76E3EECEA
:1027B80009F0060EBBEC1CF0A90EF66EBF0EF76E04
:1027C8003EEC09F00C0EBBEC1CF00A0E096E7A50B8
:1027D800B0EC21F009EC0DF0120EBBEC1CF00D6A08
:1027E800E2EC0DF0180EBBEC1CF02AEC18F0F0EC43
:1027F8001CF0748412007AC005F0000CFE0E056E01
:10280800260E066E120040D07FD8DBEC19F066EC7D
:102818000FF04AEC0FF093EC19F02EEC11F093EC5A
:1028280019F0EDEC12F0A9EC22F038D06DD8DBEC01
:1028380019F039EC11F0DBEC19F000EC16F04AEC69
:102848000FF093EC19F0EDD7DC2B080EDC6501D006
:10285800DC6B2EEC11F093EC19F04ED8D5EC21F08E
:1028680050D829EC22F01AD0DC07DC2902E1080E46
:10287800DC6F2EEC11F093EC19F03ED8D5EC21F07A
:1028880040D829EC22F00AD07750010ABDE0030AAB
:10289800DBE0010AE9E0070AC9E0010A74A426D0CE
:1028A80061EC0FF03EEC09F0000EBBEC1CF057ECAD
:1028B8000FF03EEC09F0060EBBEC1CF05CEC0FF0E0
:1028C8003EEC09F00C0EBBEC1CF00A0E096E000180
:1028D800DC51B0EC21F009EC0DF0120EBBEC1CF051
:1028E8000D6AE2EC0DF0180EBBEC1CF02AEC18F0A7
:1028F800F0EC1CF074841200050E776EDCC005F055
:10290800030CDCC007F00A0C0E0E056E280E066ECE
:1029180012003BD07DD8DBEC19F0EC0E056E250ECD
:102928004AEC0FF093EC19F02EEC11F093EC19F03F
:10293800EDEC12F0A9EC22F032D06AD8DBEC19F0F9
:1029480000EC16F04AEC0FF093EC19F039EC11F0AA
:10295800DBEC19F0EDD7DB2B010EDB6501D0DB6B6F
:102968002EEC11F093EC19F04ED8D5EC21F017D0DD
:10297800DB07DB2902E1010EDB6F2EEC11F093EC93
:1029880019F041D8D5EC21F00AD07750010AC2E0FD
:10299800030AE1E0010AECE0070ACFE0010A74A4A7
:1029A8002CD0970EF66EBF0EF76E3EEC09F0000EB7
:1029B800BBEC1CF0980EF66EBF0EF76E3EEC09F0FD
:1029C800060EBBEC1CF0990EF66EBF0EF76E3EECD1
:1029D80009F00C0EBBEC1CF00A0E096E0001DB516D
:1029E800B0EC21F009EC0DF0120EBBEC1CF00D6AF6
:1029F800E2EC0DF0180EBBEC1CF02AEC18F0F0EC31
:102A08001CF074841200050E776EDBC005F0040C10
:102A18001A0E056E290E066E12000001D75117E036
:102A2800D76BFE6B11D0FE515BD8DE50DE1006E18D
:102A3800FE5166D8010EDE6EDD6A05D0FE5150D813
:102A4800DE06000EDD5AFE2B7950FE5DECE3FF6BCF
:102A580043D0FF5155D8DE04DE103CE1FF5148D881
:102A6800DECFFCF0DDCFFDF0FF5152D8DE50DE1096
:102A780009E1FF513DD8DECF05F0DDCF06F0DBECF4
:102A880019F01BD0FF513CD8DE6ADD6AFF5128D807
:102A9800DE50DE1012E16F687068FF5139D8DECF62
:102AA80071F0DDCF72F06F50712670507222FF51B5
:102AB80017D871C0DEFF72C0DDFF01D80BD005004A
:102AC8000001FA6EFC51FD6EFD51FE6EF850FF6E6E
:102AD800FA5012000001FF2B7950FF5DBAE3120093
:102AE800080D020EF324D96E010EF420DA6E1200DE
:102AF800080D000EF324D96E010EF420DA6E1200D0
:102B0800080D060EF324D96E010EF420DA6E1200B9
:102B1800080D040EF324D96E010EF420DA6E1200AB
:102B280026D0280E056E2B0E066EDBEC19F064D845
:102B38004AEC0FF093EC19F039EC11F0DBEC19F0DA
:102B4800EDEC12F0A9EC22F01CD05AD82EEC11F0C2
:102B580093EC19F05BD8D5EC21F013D051D82EECBA
:102B680011F093EC19F052D8D5EC21F00AD0775037
:102B7800010AD7E0030AE9E0010AF0E0070AD1E018
:102B8800010A74A433D0B70EF66EBF0EF76E3EEC92
:102B980009F0000EBBEC1CF0B80EF66EBF0EF76E17
:102BA8003EEC09F0060EBBEC1CF0B90EF66EBF0E3B
:102BB800F76E3EEC09F00C0EBBEC1CF00001D8518E
:102BC80008E02B0E0D6EE2EC0DF0120EBBEC1CF0C3
:102BD80007D02D0E0D6EE2EC0DF0120EBBEC1CF0C2
:102BE8000D6AE2EC0DF0180EBBEC1CF02AEC18F0A4
:102BF800F0EC1CF074841200B60E056E140E120070
:102C0800D851010ED8A4000ED86F1200050E776EA9
:102C1800D8C005F0070C0AEC1FF088EC22F040EC55
:102C280020F046EC22F037EC23F0C9EC22F04DEC12
:102C380021F0ECEC22F023EC21F02FEC18F0066ADE
:102C4800056ADBEC22F07A6E066A010E056EDBEC93
:102C580022F0786E780403E10001DE6B02D053ECB9
:102C68000BF0066A020E056EDBEC22F00001DD6F48
:102C780079EC0FF0DBEC22F074EC0FF029EC22F089
:102C880075EC1EF034EC23F0E4EC22F057EC0BF07A
:102C980045EC19F0920E056E070E066E086A280EAE
:102CA800076E2AD893EC19F0460E056E3A0E28D80E
:102CB80023D893EC19F0066A040E056EDBEC22F0BB
:102CC8000001DB6F066A050E056EDBEC22F00001E1
:102CD800DA6F066A060E056EDBEC22F00001D96F8A
:102CE800066A070E056EDBEC22F00001D86F066A53
:102CF800030E056E0CEF23F00A6A140E096E140C0D
:102D0800066E086A640E076E640C5FD0A9EC22F0A8
:102D1800A3EC0EF0F3510DEC20F0B0EC21F000091B
:102D280012E166D886EC1CF05ED8B0EC21F09DEC80
:102D38000EF00D0EE9EC18F0B00E1EEC0CF0130EB0
:102D4800E9EC18F01DD054D886EC1CF0A3EC0EF07A
:102D5800F3510DEC20F0B0EC21F09DEC0EF00D0ECF
:102D6800E9EC18F040D8B0EC21F09DEC0EF0130E11
:102D7800E9EC18F0B00E1EEC0CF0190EE9EC18F0A6
:102D88002BD834EC0CF093EF19F0050E776E83EC2A
:102D98001FF039EC11F0DBEC19F0120E056E2D0E58
:102DA800066EDBEC19F00001D95107E0B40E056E90
:102DB800160E4AEC0FF093EF19F000EC16F04AECFF
:102DC8000FF093EC19F0F1EF0DF07750040ADDE005
:102DD800010A9CE0030A1200060E776E740E056E57
:102DE800460E066E12000A0E096E0001F35112001B
:102DF800010E0A6E030C1C6E216A226A236A246A79
:102E0800256A61D82CEC23F0EC0E1AEC23F01C5048
:102E18001AEC23F030EC23F0ED0E1AEC23F0010E3F
:102E2800F9EC21F01D6E1E6A1F6A206A010EF9EC8A
:102E380021F0216E226A236A246A000EF9EC21F03F
:102E4800256E41D828EC23F021C00DF022C00EF0E9
:102E580023C00FF00C6A1DC010F01EC011F01FC077
:102E680012F020C013F011C013F010C012F0116A54
:102E7800106A0C501024146E0D501120156E0E504F
:102E88001220166E0F501320176E25501424186E3A
:102E980026501520196E275016201A6E2850172014
:102EA8001B6E050E05D0D8901B321A321932183213
:102EB800E82EF9D718C008F019C009F01AC00AF0AE
:102EC8001BC00BF01200266A276A286A120018C075
:102ED8001CF01D6A1E6A17341C3601E31D801C5045
:102EE8001F6E1F5001E153D01BC01CF01D6A1E6AE3
:102EF8001A341C3601E31D801C50246E245001E155
:102F080046D024507B0F1F2618C024F01B50241ACB
:102F1800800E2416178E1A8E000E1B16206A216A40
:102F2800226A070E236E16B02BD8D89018321732A3
:102F38001632D89019361A361B36232EF4D7090EB6
:102F4800236E16B01DD8D890183217321632D89082
:102F5800223221322032232EF4D720C005F021C09E
:102F680006F022C007F01FC008F024C009F020ECCA
:102F78001AF005C016F006C017F007C018F01200C6
:102F8800195020261A5021221B5022221200166A9C
:102F9800176A186A12001A6E1C6A1D6A980E116E5A
:102FA800010E126E1A501126000E12221D50112405
:102FB800D96E000E1220DA6E1C500708136E1050DE
:102FC800030D3F0E146EBF0E156EF3501426F45009
:102FD80015221D501426000E152214C0F6FF15C028
:102FE800F7FF0800F5CF16F0132A02D0D890163252
:102FF800132EFCD7980E176E010E186E1A5017264E
:10300800000E18221D501724E16E000E1820E26EE3
:10301800E750196ED89019341610DF6E1D2A020E6B
:103028001D64BCD71B6A0D0E116EFC0EE82EFED770
:10303800112EFCD71B2A270E1B64F5D707D8F0ECF6
:103048001CF01C2A070E1C64A8D7070C980E076EE4
:10305800010E086E1200880E29EC1EF008C0B4F0AC
:1030680009C0B5F08A0E29EC1EF008C0B2F009C0FC
:10307800B3F08C0E29EC1EF008C0B0F009C0B1F016
:103088008E0E29EC1EF008C0EEF009C0EFF0900E8D
:1030980029EC1EF008C0AEF009C0AFF0920E29EC82
:1030A8001EF008C0ACF009C0ADF0940E29EC1EF07B
:1030B80008C0AAF009C0ABF0960E29EC1EF008C0B3
:1030C800A8F009C0A9F0980E29EC1EF008C0A6F0D7
:1030D80009C0A7F09A0E29EC1EF008C0A4F009C098
:1030E800A5F09C0E29EC1EF008C0A2F009C0A3F0C0
:1030F8009E0E29EC1EF008C0A0F009C0A1F0CC0E6D
:10310800076EF50E38EC22F0B70E076EF40E38EFA6
:1031180022F027C029F02A6A2B6A2634293601E3CF
:103128002A802950336E335005E1256A266A276ABA
:10313800286A1200170E296E25C02AF026C02BF027
:1031480027C02CF029282D6E04D0D8902C322B3291
:103158002A322D2EFAD72A502E6E268E276A25500F
:103168002F6E2650306E2750316E326A8E0E335EC7
:1031780033AE0CD03350800A8F0FD7E3D890323259
:10318800313230322F32333EF9D70CD0170E336438
:1031980007D0CBD7D8902F36303631363236330673
:1031A8003350F8E12E5008E0321E311E301E2F6CCD
:1031B800000E3022312232222FC025F030C026F0F6
:1031C80031C027F032C028F012001D6E1F6A206A35
:1031D800980E146E010E156E1D501426000E152241
:1031E80020501424D96E000E1520DA6E1F500708DF
:1031F800166E1150050D12C017F013C018F0F350D9
:103208001726F450182220501726000E182217C02F
:10321800F6FF18C0F7FF0800F5CF19F0162A02D0FC
:10322800D8901932162EFCD7980E1A6E010E1B6E06
:103238001D501A26000E1B2220501A24E16E000E83
:103248001B20E26EE7501C6ED8901C341910DF6EFC
:10325800202A040E2064BCD71E6A0D0E146EFC0EC4
:10326800E82EFED7142EFCD71E2A270E1E64F5D78B
:103278002AEC18F0F0EC1CF01F2A070E1F64A7D7E1
:10328800070C0F6E8B848B920EC0BEF0650E0C6E11
:10329800BF0E0D6E1AEC22F0600E0C6EBF0E0D6E96
:1032A800D2EC22F00FC007F0050E93EC22F0076A6B
:1032B800110E93EC22F00EC007F0120E93EC22F0E0
:1032C800076A130E93EC22F0076A140E93EC22F0AF
:1032D800076A150E93EC22F0076A160E93EC22F09B
:1032E800260E076E060E93EC22F0080E076E000EEF
:1032F80093EC22F0030E076E010E93EC22F0030EFE
:10330800076E020E93EC22F04F0E076E040E93EC3C
:1033180022F0076A1C0E93EC22F0F3EF1FF0055021
:10332800061001E112000D6A1AD00D507CEC15F060
:103338000550DE1813E10650DE1810E1F29E0D501C
:1033480074EC15F02FD80D508CEC15F026D80D50D4
:1033580084EC15F0DE6ADD6AF28E000C0D2A7950D5
:103368000D5CE3E30F0E79600F0CF29E79507CEC54
:1033780015F005C0DEFF06C0DDFF795074EC15F0CE
:1033880011D879508CEC15F008D8795084EC15F0E8
:10339800DE6ADD6A792AF28E000C09C0DEFF0AC0F7
:1033A800DDFF120007C0DEFF08C0DDFF12000D6A56
:1033B8003FD00D507CEC15F00550DE1838E1065072
:1033C800DE1835E1F29E0D50076E086A09680A6832
:1033D80079500B6E0C6A09500B260A500C220750C4
:1033E8000B1803E108500C181FE07950076E086AA3
:1033F800D89007360836D89007360836D89007365A
:103408000836F80E0724D96E000E0820DA6E0D5023
:10341800080D000EF324E16E010EF420E26E070E93
:10342800DBCFE3FFE806FCE27906F28E12000D2AF4
:1034380079500D5CBEE31200085004E005500610F8
:10344800071006E1056A066A076A1200082A2DD8DD
:103458000A6A0B6AFE0E07142DD807E0F7D7082A68
:10346800052A000E0622072220D80A6A0B6A07508E
:1034780021D806E0F4D70806D89005360636073670
:1034880006BE03D0020E0860F6D708A0069ED890A4
:10349800083208500712095001E0078E05C005F0F0
:1034A80006C006F007C007F01200D89007320632AF
:1034B800053212000C6E0A500B100C1012000D5041
:1034C800D96EDA6A060E0DEC21F0DF6E0D50D96E5A
:1034D800DA6A0D5022D8B4EC22F02DD8050E0DEC86
:1034E80021F01F0B28D80C5018D8B4EC22F019D8AA
:1034F800040E0DEC21F03F0B14D80B500ED8B4EC91
:1035080022F014D8030E0DEC21F0070B0FD80A5047
:1035180004D8B4EC22F0DF6E1200E16EE26AE750E4
:103528001200DF6E0B50D96EDA6A1200DF6E0A5095
:10353800D96EDA6A1200DF6E0C50D96EDA6A1200A0
:103548000600D9CF03F0DACF04F0F2BAF2A403D020
:1035580004EC23F030D0F2B8F2A211D0F292010EAE
:10356800F1AC000EFF0A026E023A02460246F15022
:103578000218BF0B0218F16E61EC1BF01CD09DB055
:103588009EA008D09E903C0ECF6EB00ECE6EBFECC3
:1035980022F011D0A0B2A1A208D0A192F00EB36E71
:1035A800600EB26E23EC1BF006D0F2BC9DAA03D0CD
:1035B8009EBA58EC20F004C0DAFF03C0D9FF7B9212
:1035C8001100076A990E072480EC1CF0072479EC97
:1035D8001CF0072A1E0E0764F5D7040E0001D165FA
:1035E8000FD025D807E1D12B1F0ED165010CD26B66
:1035F800D16B000C0101B76B0001D16BD22B010C10
:1036080016D8050D450E056EB90E066EF350052643
:10361800F4500622D1510526000E062205C0F6FFF9
:1036280006C0F7FF0800F5CFB7F1D12B010C000E4B
:10363800D225D96EDA6A020EDA22DF5012000001B2
:10364800C7510AE0C12B1E0EC16103D0800E8C1A2F
:1036580003D0C16BC76B8C9EDB51D8B41200CC5120
:10366800D8B41200FB6BBF510BE1C02B140EC06124
:1036780003D0800E8C1A04D0C06B010EBF6F8C9ED5
:10368800BF0502E1B64BB72B2D0EB65D010EB7593B
:1036980004E3B66BB76B020EBF6F020EBF19D8A456
:1036A8001200C02B140EC06103D0800E8C1A800C3F
:1036B800C06BBF6BCC6B8C9E12000001DE51D8B47E
:1036C8001200CA2B080ECA1920E1CA6B1ED0360E8A
:1036D8000101A76FA86F360C240E28D0240E010113
:1036E800A76FA86F240C240E0101A76FA86B120006
:1036F8000101A76BA86B1200120EF6D7120E01017A
:10370800A76FA86F120C120E11D0CA51E0E0010A7F
:10371800E3E0030AE3E0010AE6E0070AE9E0010A58
:10372800EBE0030AEBE0010AEEE012000101A76FEB
:10373800360EA86F360C400EF66E460EF76E000E6B
:10374800F86E00EEF4F010EE08F00900F5CFEEFF89
:10375800E550E150FAE17A0EF66E460EF76E000E6D
:10376800F86E00EE75F010EE04F00900F5CFEEFFEC
:10377800E550E150FAE102EE00F0640EEE6AE80668
:10378800FDE101EE00F0B80EEE6AE806FDE100EE9C
:1037980080F0740EEE6AE806FDE1746A7A6A796A66
:1037A8007B907B92000EF86E000102EF1EF00D6A0E
:1037B8000E6A0F6A106A09500A100B100C1029E0E3
:1037C800010E116E06D0D89009360A360B360C3623
:1037D800112A0CAEF8D7D8900D360E360F361036A3
:1037E8000950055C0A5006580B5007580C500858E9
:1037F80009E30950055E0A50065A0B50075A0C5047
:10380800085A0D80D8900C320B320A320932112E28
:10381800E2D70DC005F00EC006F00FC007F010C0CB
:1038280008F01200146A166A156A080E106EB90EAE
:10383800116E14501026000E112216501026000E7C
:10384800112210C0F6FF11C0F7FF0800F5CF12F0E3
:10385800980E1524D5EC1DF01250DF16142A070E09
:10386800146401D0146A152A1F0E1564DED72AECD9
:1038780018F0F0EC1CF0136A0D0E106EFC0EE82E1A
:10388800FED7102EFCD7132A630E1364F5D7162A19
:10389800070E1664C9D7070C640E136E126A146AF1
:1038A800990E142429D8142420D8142A1F0E14641D
:1038B800F7D70101B76B2AEC18F0F0EC1CF0116A8D
:1038C80008D00D0E106EFC0EE82EFED7102EFCD779
:1038D800112A1350115CF5E30A0E136401D0135E2C
:1038E800122A1F0E1264DBD71F0CE16EE26A010E6A
:1038F800E222DFCFE7FF1200D96EDA6A010EDA2280
:10390800980E12000E6E010E0D6E106A0F6A0A50A4
:10391800070DE50E0B6EB80E0C6EF3500B26F45027
:103928000C2210500B26000E0C220BC0F6FF0CC008
:10393800F7FF0800F5500D1407E00FC005F00E5012
:103948001024E7EC21F006D00FC005F00E5010242B
:1039580089EC21F0D8900D360F2A070E0F64D7D7BF
:10396800010E0D6E102A060E1064D0D7060C136EC9
:10397800010E126E156A146A0D50050D0EC010F076
:103988000FC011F0F3501026F450112215501026D4
:10399800000E112210C0F6FF11C0F7FF0800F55005
:1039A800121407E014C005F013501524E7EC21F0B9
:1039B80006D014C005F01350152489EC21F0D890D6
:1039C8001236142A070E1464D7D7010E126E152A60
:1039D800040E1564D0D7040C0F6A8C900E6A030E7F
:1039E800096E0A6A0E50095E000E0A5AD890093606
:1039F8000A36D89009360A36D89009360A3607C0EA
:103A08000BF008C00CF009500B260A500C220F507E
:103A18000B24D96E000E0C20DA6EDF500D6E0F28C5
:103A28009EEC20F00D509EEC20F00E2A030E0E6442
:103A3800D6D78C800F2A070E0F64CFD7070CDFC0AC
:103A4800C9F028D855EC1DF0E20E0A6EE30E0B6E95
:103A5800E40E0C6EE50E0D6E63EC1AF00001C95110
:103A6800DF1901E07480030EDF1902E1010EFB6F1C
:103A7800060EE165060C180EE161180CE051D8A499
:103A88001200DF51D8A41200FB51D8B41200010E65
:103A9800CC6F010CE10E0A6EE00E0B6EDF0E0C6EA1
:103AA80012000C50DEEC20F00DEC21F0DF6E0C5013
:103AB800D96EDA6A0C5091EC1AF0B4EC22F016D8F0
:103AC800010E0DEC21F012D80B5091EC1AF0B4EC69
:103AD80022F011D8020E0DEC21F03F0B0CD80A5041
:103AE80091EC1AF0B4EC22F0DF6E1200DF6E0B508E
:103AF800D96EDA6A1200DF6E0A50D96EDA6A1200DD
:103B0800640E136E126A1F0E146E970E1424D96E6B
:103B1800DA6A010EDA22980E142479EC1CF01406E5
:103B28001450F3E10101986B2AEC18F0F0EC1CF04A
:103B3800116A08D00D0E106EFC0EE82EFED7102E5E
:103B4800FCD7112A1350115CF5E30A0E136401D057
:103B5800135E122A1F0E1264D6D71F0C116A1F0E8D
:103B6800126E136A980E11241CD8DF6A112A980E57
:103B7800122417D8DF6A12062AEC18F0F0EC1CF0B1
:103B8800146A0D0E106EFC0EE82EFED7102EFCD710
:103B9800142A1D0E1464F5D7132A0F0E1364E2D7E6
:103BA8000F0CD96EDA6A010EDA221200F4C005F0A1
:103BB800F5C006F0F6C007F0F7C008F06D0E096E04
:103BC8004E0E0A6EC60E0B6E410E0C6E9BEC1EF06E
:103BD80005C0F4F006C0F5F007C0F6F008C0F7F02D
:103BE800390E0001F427300EF523000EF623F723D3
:103BF800F651116E7F0EF715126E1200820E736E5B
:103C0800DE0EE82EFED7732EFCD70FEC16F0A9ECCB
:103C180022F00001DE6B010EDE6FF29E00EC16F062
:103C280084EC16F080EC16F093EC19F0CC0E056ECF
:103C38003D0E066E086A076A0A6A010E096E93EC61
:103C480019F0F28E11EC15F0FDD70C6E0F6A106AA0
:103C58002CEC23F0EC0E1AEC23F00C501AEC23F0A9
:103C680030EC23F0ED0E1AEC23F0010EF9EC21F004
:103C78000F6E106A000EF9EC21F00D6E0E6A28EC3A
:103C880023F00D500B6E0A6A0F500A10086E105080
:103C98000B10096E12008E0E156E06D0D8901032D9
:103CA8000F320E320D32152A116A126A136A105039
:103CB800146E1150121013101410F0E10DC005F01D
:103CC8000EC006F00FC007F015C008F0000E096E10
:103CD80020EC1AF005C00DF006C00EF007C00FF07A
:103CE800120019D00D0E756EBF0E766E1200DB0E27
:103CF800756EBE0E766E1200A90E756EBE0E766ECD
:103D08001200770E756EBE0E766E1200450E756E39
:103D1800BE0E766E12007A50010AE4E0030AE7E06C
:103D2800010AEAE0070AEDE0010AF0E012000D6A74
:103D38000E6A0F6A106A05A008D009500D260A50AD
:103D48000E220B500F220C501022D89009360A363A
:103D58000B360C36D8900832073206320532055039
:103D6800061007100810E7E10DC005F00EC006F0B8
:103D78000FC007F010C008F012000A6A0B6A07505B
:103D880008101BE0010E096E04D0D89007360836DB
:103D9800092A08AEFAD7D8900A360B360750055CC0
:103DA8000850065805E30750055E0850065A0A8071
:103DB800D89008320732092EEED70AC005F00BC09A
:103DC80006F0120081B202D0010E0BD081B402D0ED
:103DD800020E07D081B602D0030E03D081B803D0FB
:103DE800040E056E01D0056A05500EE0290EC66165
:103DF800290CC62B280EC619D8A4120005C077F0C6
:103E0800C66B010EC76F010CC66B12008B6A180EC9
:103E1800946E8A6A1F0E936EF19E8C6A956A896AFF
:103E2800010E926EC30EC216C150F00B0E09C16E80
:103E3800CF0EC116C050F80B0209C06EC08EC280EA
:103E4800F18CF292F288828012000E500F1017E067
:103E5800010E106E04D0D8900E360F36102A0FAE11
:103E6800FAD70E500C5C0F500D5804E30E500C5E40
:103E78000F500D5AD8900F320E32102EF2D70CC0B8
:103E88000CF00DC00DF0120082909490070E056E94
:103E98007D0EE82EFED7052EFCD700F08280948098
:103EA800C80E00D0E82EFDD7000E82B0010E066EB7
:103EB800060E056E800EE82EFED7052EFCD700D024
:103EC80006501200156E15509DEC21F0106E030E71
:103ED80054EC22F012509DEC21F0106E040E54ECBC
:103EE80022F013509DEC21F0106E050E54EC22F0D8
:103EF80014509DEC21F0106E060E54EF22F0DAEC0F
:103F08001DF01150030B176E1750020D3D0EF324D0
:103F1800F66EB90EF420F76E0900F5CFBCF00A0072
:103F2800F5CFBDF00500FA6EBC51FD6EBD51FE6EB9
:103F3800F850FF6EFA501200086E0A6A0AC006F0BE
:103F480008C007F0062A02D0D8900732062EFCD700
:103F58000750096E010E09160950C3EC21F00A2A10
:103F6800070E0A64EBD7D20E00D0E82EFDD7120058
:103F7800076A086A62EC22F000090CE008C005F044
:103F8800010E066E052A02D0D8900636052EFCD7FB
:103F980006500712F00E00D0E82EFDD7082A070EAB
:103FA8000864E8D707501200056E0001C451FDE00F
:103FB8009DB805D09EA8FED705C0ADFF12009D98FC
:103FC800880EC525D96EDA6A010EDA2205C0DFFF30
:103FD800C52B0F0EC56501D0C56BC40712008B94A5
:103FE800E20E38EC21F08B84700E076E070E93EC0E
:103FF80022F08B920B0E076E000E93EC22F08B8250
:10400800C00E00D000D0E82EFCD700D000D000D0E1
:104018001200066E086A055014E0010E076E03D000
:10402800D8900536072A05AEFBD7D8900836055034
:10403800065C03E30550065E0880D8900532072E1B
:10404800F4D70850120005D012D809C0DFFF054A7E
:10405800062A07C0F6FF08C0F7FF074A082A080023
:10406800F5CF09F00950F0E102D8DF6A000C05C06D
:10407800D9FF06C0DAFF12008C80010E076E0C0E05
:1040880029EC22F0076A090E29EC22F0070E076EC8
:104098000B0E29EC22F0020E076E0A0E29EC22F014
:1040A800076A0F0E29EF22F0ABA202D0AB98AB88BB
:1040B800780E0001C325C6EC20F0AECFDFFFC32B7E
:1040C8000F0EC36501D0C36BCB2BCB05016E0F0E52
:1040D80001640F0CCB6B1200146E13509DEC21F091
:1040E800106E000E54EC22F012509DEC21F0106E70
:1040F800010E54EC22F014509DEC21F03F0B106E91
:10410800020E54EF22F00A6E8B940A5038EC21F01C
:104118000B6A0BD007C0F6FF08C0F7FF0800F55080
:1041280038EC21F0074A082A0B2A09500B5CF2E305
:104138008B841200056E066A05AE02D08C8401D00D
:104148008C948C8200F000F000F000F000F000F099
:1041580000F08C92D8900536062A070E0664ECD734
:10416800070CCB51FEE0780EC2250CD8DF50056E47
:10417800C22B0F0EC26501D0C26B9D9ACB079D8AD8
:1041880005501200D96EDA6A010EDA221200096EA1
:104198008B94095038EC21F00A6A07D007500A249A
:1041A80009D838EC21F0DF6E0A2A08500A5CF6E3D9
:1041B8008B841200D96EDA6A000C0001F95103E110
:1041C800460EF85D05E3030E076E0A0E29EF22F08E
:1041D800F95108E1330EF85DD8B01200076A0A0EEB
:1041E80029EC22F0120010D02AEC18F0F0EC1CF0A8
:1041F800116A0D0E106EFC0EE82EFED7102EFCD79D
:10420800112A3B0E1164F5D7E5EC1AF00009ECE130
:104218001200086E2CEC23F0D00E1AEC23F0085094
:104228001AEC23F030EC23F0D10E1AEC23F0000E38
:10423800F9EC21F0096E28EC23F009501200948C57
:10424800948EAC84AC98AC8AAB88AB8EB886040EDE
:10425800B06E100EAF6E0001C56B100EC46FC36B4D
:10426800C26BCB6B9D8A1200056E066A05AE02D042
:104278008C8801D08C98D89005368C8A010E83A63C
:10428800000E05128C9A062A070E0664EFD7055011
:10429800120048EC1FF00009D8A41200CC0EA0ECC4
:1042A8001FF04E0EA0EC1FF0000EA0EC1FF0000E49
:1042B800A0EC1FF07F0EA0EF1FF0FA0EFFEC16F037
:1042C80008C02DF009C02EF00AC02FF00BC030F046
:1042D8002DC029F02EC02AF02FC02BF030C02CF0B2
:1042E8001200F70EFFEC16F008C02DF009C02EF0F2
:1042F8000AC02FF00BC030F02DC029F02EC02AF0D4
:104308002FC02BF030C02CF01200096E05C006F04B
:10431800010E076E062A02D0D8900736062EFCD763
:10432800071C086E980E0924D5EC1DF00850DF16FE
:1043380012000F6E0A0E096E0F50B0EC21F00D6ED0
:104348000F0E0D160A0E056E0F500DEC20F00E6EB6
:104358000E38F00B0D1012000A6E080E0B6E0C6A68
:10436800D8900A340C340C6ED8900A3609500C5C7C
:1043780002E309500C5E0B2EF3D70C501200056EA9
:1043880082909490050406E1060EE82EFED700D030
:1043980082809480D20E00D0E82EFDD7828094804F
:1043A8001200066EA6B2FED706C0A9FF05C0A8FF78
:1043B800A69EA69CA684F29E550EA76EAA0EA76E70
:1043C800A682F28EAA0C086E05C006F0010E076ED2
:1043D800062A02D0D8900736062EFCD7980E082455
:1043E800D5EC1DF00750DF121200066EFCEC22F02F
:1043F800C586FCEC22F0C9CF07F0FCEC22F0065091
:1044080002E1C58A01D0C59AC58807501200C28248
:10441800C2B2FED7C450066E056AC3500524F86FB1
:10442800000E0620F96F00F000F0120007D82A0EDF
:1044380087EC20F003D8300E87EF20F00CC007F08F
:104448000DC008F0050E096E050C086E8C90096AFF
:1044580008509EEC20F007509EEC20F0092A030E2D
:104468000964F6D78C80030C086E2CEC23F0EC0E54
:104478001AEC23F008501AEC23F007501AEC23F03A
:1044880028EF23F0CD903C0ECF6EB00ECE6E9D80FF
:10449800B192B180A082F00EB36E600EB26E600C65
:1044A800116E2CEC23F0D00E1AEC23F011501AECFC
:1044B80023F010501AEC23F028EF23F08290949008
:1044C800030EE82EFED700F082809480140EE82EAA
:1044D800FED782B0010C000C0BC007F0BEC008F07C
:1044E800610ECBEC20F0400E076E070E93EF22F022
:1044F800076E8B94075038EC21F0000E38EC21F051
:10450800086E8B8408501200180E9412280EC66E7E
:10451800C76A630EC86EC584C5A41200FDD7086EAD
:104528008B940850200938EC21F0075038EC21F022
:104538008B841200F4EC22F00A6E0ABC010C13EC16
:1045480023F00009D8B4010C000C056A980E052464
:10455800D5EC1DF0DF6A052A200E0564F7D7200C7C
:10456800066E06C005F00F0E051606380F0B0A0D6D
:10457800F350052412000001F12B950EF165950CFE
:10458800F16B010EF06FCD90010C106A0E0E54EC19
:1045980022F0080E106E0F0E54EF22F00CC007F038
:1045A8000DC008F0050E096E2B0E87EF20F0A6B29D
:1045B800FED705C0A9FFA69EA69CA680A8501200FB
:1045C8009586959894929494959A958C8B841200DC
:1045D800C70ED56EF28AD76A3D0ED66E796A12007A
:1045E8008B94FF0E38EC21F0076E8B840750120075
:1045F800C7B4FED7C5CF05F01F0E0516F9E11F0C8D
:10460800F294D76A3D0ED66E010E0001D76F010CE9
:1046180005C0F4F006C0F5F0F66BF76B1200170E44
:104628007CEC22F0096E0950010B1200066EFCECBE
:1046380022F006C0C9FF120001000000F4012B019E
:10464800C36BC26BCB6B1200FCEC22F0C58412006A
:10465800FCEC22F0C5801200FCEC22F0C5821200AE
:10466800959E8C9E1200F28EF28C1200040E776ECC
:06467800040C0DBF05015A
:10B8E4000000000000000000087C4E4F4E7C08045D
:10B8F40026473F070604203E7F7F3F3E207E121EE0
:10B9040000701000FDBFEF7FFBDFF7FEFDBFEF7F90
:10B91400FBDFF7FE0001010202030404050606072B
:10B92400070809094A616E2031322032303138006B
:10B9340031333A31353A3132002C38A038083B647F
:10B944003B00000000004551453E006B6F6B3E001C
:10B954003E7C3E1C003C7E3C1800367F36300000A6
:10B9640000000000000000000000000000000000D3
:10B9740000000000000000000000000000000000C3
:10B9840000000000000000000000000000000000B3
:10B9940000000000000000000000000000000000A3
:10B9A4000000000000000000000000000000000093
:10B9B40000000000000036360000002436000000BD
:10B9C40024240000002400000000000000000012F5
:10B9D40000000000121200000012360000001236AF
:10B9E40000000000000000005F00000007000700E6
:10B9F400147F147F14242A7F2A12231308646236C6
:10BA0400495620500008070300001C224100004151
:10BA1400221C002A1C7F1C2A08083E08080080708B
:10BA240030000808080808606000000020100804BE
:10BA3400023E5149453E00427F4000426151494621
:10BA44002141454B311814127F1027454545393C97
:10BA54004A494930017109050336494949360649BD
:10BA640049291E0000363600004034000000081446
:10BA74002241141414141400412214080201590917
:10BA8400063E415D594E7C1211127C7F494949366C
:10BA94003E414141227F4141413E7F494949417FE5
:10BAA400090909013E414151727F0808087F00419C
:10BAB4007F41002040413F017F081422417F4040E4
:10BAC40040407F0204027F7F0408107F3E414141D1
:10BAD4003E7F090909063E4151215E7F0919294625
:10BAE400264949493201017F01013F4040403F1F3F
:10BAF4002040201F3F4038403F6314081463030470
:10BB04007804036151494543007F41410002040820
:10BB140010200041417F00040201020440404040E3
:10BB240040000307080020545478407F28444438D8
:10BB34003844444428384444287F3854545418081A
:10BB44007E09020018A4A49C787F080404780044A9
:10BB54007D40002040403D007F1028440000417F8C
:10BB640040007C047804787C080404783844444415
:10BB740038FC1824241818242418FC7C0404080015
:10BB8400485454542400043F44203C4040207C1C2E
:10BB94002040201C3C4030403C44281028444C9019
:10BBA40090907C4464544C44000836410000007773
:10BBB40000000041360800020102040200000000F7
:10BBC4000000000000000000000000000000000071
:10BBD40000000000000000000000400040004000A1
:10BBE4000000000000000000003E55554122000006
:10BBF4000000000000000000000000000000000041
:10BC04000000000000000000000000000000000030
:10BC14000000000000000000000000000000000020
:10BC240000000000000000000000000C1E1E0C00BC
:10BC34000000000000000000000000000000000000
:10BC440000000000000000000000000000000000F0
:10BC540000000000000000000000000000000000E0
:10BC640000000000000000000000000000000000D0
:10BC7400000000000000000000007E020202030039
:10BC84000000000000000000007E4B4A4B42000010
:10BC94000000003E49494922000000000000000065
:10BCA40000000000000000000000000000417E4190
:10BCB40000000609090644445F444400417F4100F2
:10BCC40000447D4000007C040406000000000000E5
:10BCD4000000000000000000003855545518000012
:10BCE400000000385454544422142A1408204040BC
:10BCF4003D000000000000000000000000457C4101
:10BD0400007E1111117E7F494949317F49494936E5
:10BD14007F01010101C07E417EC07F4949494177CD
:10BD2400087F087722414949367F1008047F7E1135
:10BD340009057E7F08142241407E01017F7F020CA9
:10BD4400027F7F0808087F3E4141413E7F01010197
:10BD54007F7F090909063E4141412201017F01011A
:10BD6400274848483F0E117F110E63140814637F5F
:10BD740040407FC0070808087F7F407E407F7F40A7
:10BD84007E40FF017F4444387F4438007F7F444431
:10BD94004438224149493E7F083E413E462919091B
:10BDA4007F20545454783C4A4A4A317C5454542891
:10BDB400007C040404C078447CC038545454186C87
:10BDC400107C106C28445454287C2010087C7C215E
:10BDD40011097C7C10102844403804047C7C081031
:10BDE400087C7C1010107C38444444387C040404DF
:10BDF4007C7C14141408384444442804047C04044B
:10BE04004C5050503C18247C2418006C10106C7C4E
:10BE140040407CC00C1010107C7C4078407C7C40FE
:10BE24007840FC047C5050207C5020007C007C50E6
:10BE3400502044545454387C1038443848543414F2
:10BE44007C3E41417F3E00427F7F406273594F46B2
:10BE54002263497F361814127F7F2F45457D393E72
:10BE640049497B320371790F073649497F362649A0
:10BE7400497F3E3E7F417F3E00427F7F406273594F
:10BE84004F462263497F361814127F7F2F6F457DFA
:10BE9400393E7F497B320373790F07367F497F36FA
:10BEA400266F497F3E7F41417F7F00017F7F007184
:10BEB40051515F5F4149497F7F1F10107F7F4F4978
:10BEC4004979797F494979790101017F7F7F49491E
:10BED4007F7F4F49497F7F7F7F417F7F00017F7F45
:10BEE400007373515F5F636B497F7F1F1F107F7FF8
:10BEF4006F6F4979797F7F497B7B0373790F077F64
:10BF04007F497F7F6F6F497F7F7F7F417F7F000104
:10BF14007F7F006171594F474149497F7F1F1F103F
:10BF24007F7F4F4F4979797F7F4979790171790F03
:10BF3400077F7F497F7F5F5F517F7F0000007C44E4
:10BF44007C007C0074545C54547C1C107C5C5474E1
:10BF54007C547404047C7C547C5C547C19792709DB
:10BF6400041979270904436C6F636B2076332E30F0
:10BF74002E30206279204976616E5F66642030330A
:10BF84002E30312E3230313800ECEC2EF0F22EF11E
:10BF9400F22E00C7E23A00D0EA3A00C4ED3A00D2E9
:10BFA400EF3A00D8F03A00CCF13A00D7F13A00DF8A
:10BFB400F13A00C0F23A00D2313A00D2323A00D11A
:10BFC400E100C0E200C6E200CAE200CDE400CFED29
:10BFD40000CBEF00C1F000C2F000C3F000D1F000CC
:10BFE400D2F000D7F000CBF100CFF100C2F200CBC9
:0CBFF400F200CFF200D7F200D1F70000FD
:020000040020DA
:080000000109070903000000DB
:020000040030CA
:0E000000FF061E1EFF8181FF0FC00FE00F40A4
:0200000400F00A
:080000000502010201010101EA
:00000001FF
