:0400000007EF00F016
:100008007B8205ED23F0B8EF20F00001A4510DE04C
:10001800D5EC2AF0176E000E9F25D96EDA6A020E0B
:10002800DA2217C0DFFF9F2B1200240E02010019ED
:1000380001E134D360D38FDB0001826F020197DBCB
:100048000001816F020199DB0001806FF7510CE01C
:10005800825105E17BDB170E87EC29F009D076DBAE
:10006800820587EC29F004D071DB825187EC29F0F6
:100078004F0E20EC29F04B0E20EC29F03CD343DB4B
:1000880019041A1005E03FDB020E19181A1019E1BD
:100098000251D00F7A6E7AC005F0010EF9EC2AF001
:1000A800FCEC2BF07A0403E10001B86B02D0CCEC35
:1000B80018F0A36B4F0E20EC29F04B0E20EC29F022
:1000C8001AD3450E20EC29F0520E20EC29F013D358
:1000D800010E38DBF9EC2AF068EC27F022D0020E8A
:1000E80031DBF9EC2AF0F8D7030E2CDBF9EC2AF017
:1000F800F3D7040E27DBF9EC2AF0EED7050E22DB46
:10010800F9EC2AF0E9D7FFDA1A500BE11950010A85
:10011800DFE0030AE4E0010AE7E0070AEAE0010A8F
:10012800EDE0D00E176E186802010251FFDA1ABE10
:1001380005D01A5007E1060E195C04E2E4DA1950FA
:100148001A1007E1450E20EC29F0520E20EC29F098
:10015800D2D24F0E20EC29F04B0E20EC29F0CBD256
:1001680006DB126E0ADB136E08510A0DF3500925DF
:10017800F00F146EF0DA77EC28F04F0E20EC29F02F
:100188004B0E20EC29F0B7D2BEDA19501A1004E051
:10019800BADA19041A100CE10251D00F756E035126
:1001A800D00F746E75C005F0020EF9EC2AF007D076
:1001B800450E20EC29F0520E20EC29F09CD2755007
:1001C80009E174C005F0030EF9EC2AF0B5EC1EF055
:1001D8004CEC2BF04F0E20EC29F04B0E20EC29F0C4
:1001E8008AD291DA19501A1004E08DDA19041A101B
:1001F8000AE10251D00F0001B76FB7C005F0040E35
:10020800F9EC2AF007D0450E20EC29F0520E20EC2C
:1002180029F071D24F0E20EC29F04B0E20EC29F07A
:100228006AD271DA19501A1004E06DDA19041A103A
:100238001EE183DA7BDA19501A1005E07EDA76DAE5
:1002480019041A1014E10251D00F0001B66F02010F
:100258000351D00F0001B56FB6C005F0050EF9ECDB
:100268002AF0B5C005F0060EF9EC2AF007D0450EC5
:1002780020EC29F0520E20EC29F03DD24F0E20EC54
:1002880029F04B0E20EC29F036D23DDA19501A101D
:1002980004E039DA19041A100AE10251D00F0001FA
:1002A800B46FB4C005F0070EF9EC2AF007D0450E7C
:1002B80020EC29F0520E20EC29F01DD24F0E20EC34
:1002C80029F04B0E20EC29F016D21DDA19501A101D
:1002D80004E019DA19041A1009E10251D00F736EFB
:1002E80073C005F0080EF9EC2AF007D0450E20EC93
:1002F80029F0520E20EC29F0FED14F0E20EC29F007
:100308004B0E20EC29F0F7D1FED919041A1005E09C
:10031800FAD9020E19181A100AE10251D00F000179
:10032800FF6FFFC005F0090EF9EC2AF007D0450E63
:1003380020EC29F0520E20EC29F0DDD14F0E20ECF4
:1003480029F04B0E20EC29F0D6D1DDD919041A106A
:1003580004E0D9D919501A100AE10251D00F00014E
:10036800B36FB3C005F00A0EF9EC2AF007D0450EBA
:1003780020EC29F0520E20EC29F0BDD14F0E20ECD4
:1003880029F04B0E20EC29F0B6D14F0E20EC29F0C5
:100398004B0E20EC29F0330E186EBB0E176EE00ED4
:1003A800E82EFED7172EFCD7182EFAD7330E186E64
:1003B800BB0E176EE00EE82EFED7172EFCD7182EB0
:1003C800FAD7330E186EBB0E176EE00EE82EFED766
:1003D800172EFCD7182EFAD7330E186EBB0E176ED1
:1003E800E00EE82EFED7172EFCD7182EFAD7FF00FE
:1003F80082D1740E021902E1030E04D0700E0219A4
:1004080003E1020E796E07D0450E20EC29F0520E5A
:1004180020EC29F070D14F0E20EC29F04B0E20EC87
:1004280029F069D1610E021920E11B6A0BD0030E75
:100438001B24D96EDA6A020EDA22960E1B2478EC97
:1004480016F01B2AFD0E176E1868000E056E020EB8
:10045800066E4BEC2AF017500526185006221B5042
:10046800055C000E065816E3E2D7750E021907E17F
:10047800000E096E020E0A6EDEEC15F00BD06F0E40
:10048800021908E171924F0E20EC29F04B0E20EC76
:1004980029F031D14F0E20EC29F04B0E20EC29F039
:1004A800EEC0A1F071820001B86BEFEC0EF07FECAA
:1004B80022F058EC09F07FEC22F0ECEC19F07FEC1C
:1004C80022F0D9EC15F07FEC22F09EEC0DF0E8EC70
:1004D80028F003EC17F008EC15F037EC22F0CCEC20
:1004E80018F009D1086A640E4ED9B4EC27F016D971
:1004F8001CEC28F00C50300F20EC29F0086A0A0E8A
:1005080042D9B4EC27F00AD91CEC28F00C50300F73
:1005180020EC29F0FBC00CF0FCC00DF01FEC09F03A
:100528001CEC28F00C50300F20EC29F05F0E20EC6A
:1005380029F0ADD01B6A0B0E1B6401D00AD0360E11
:100548001B24F66EF76ABF0E24D920EC29F01B2A6B
:10055800F2D71B6A080E1B6401D099D0420E1B24E7
:10056800F66EF76ABF0E15D920EC29F01B2AF2D7D0
:100578000001FD5120EC29F0086A640E36EC09F000
:10058800B4EC27F0CBD81CEC28F00C50300F20EC42
:1005980029F0086A0A0E36EC09F0B4EC27F0BED848
:1005A8001CEC28F00C50300F20EC29F02CEC09F052
:1005B8001FEC09F01CEC28F00C50300F20EC29F04F
:1005C8005F0E20EC29F0086A640EE9EC0EF0B4EC3A
:1005D80027F0A4D81CEC28F00C50300F20EC29F0A0
:1005E800086A0A0EE9EC0EF0B4EC27F097D81CEC78
:1005F80028F00C50300F20EC29F0E4EC0EF01FEC42
:1006080009F01CEC28F00C50300F20EC29F05F0E9C
:1006180020EC29F03CD0086A640EA3D8B4EC27F08B
:100628007DD81CEC28F00C50300F20EC29F0086A1B
:100638000A0E97D8B4EC27F071D81CEC28F00C50AF
:10064800300F20EC29F08BC00CF08CC00DF01FECA3
:1006580009F01CEC28F00C50300F20EC29F05F0E4C
:1006680020EC29F014D0450E20EC29F0520E20EC95
:1006780029F00DD00251610A01E134D7050ACBE017
:10068800100A01E175D7020A01E154D7ECD74F0EE1
:1006980020EC29F04B0E20EC29F02DD00151530A03
:1006A80001E1C0D6320A01E1BCD5030A01E16CD5EB
:1006B800010A01E1E4D4070A01E152D5010A01E186
:1006C800E4D5030A01E11FD5170A01E192D6030A0E
:1006D800D1E0010A01E185D5070A01E1ACD4020A9B
:1006E80001E112D6010A01E1F0D50E0A01E12DD689
:1006F800030A01E14AD60201006B016B026B00019B
:100708009F6B4AEF2CF0D00E176E18680251196EC5
:100718001A6A1750192618501A22120005C00CF030
:1007280006C00DF00F6A0A0E0E6E0A0C196E1A6AD0
:100738001750192618501A221200D00E176E186872
:1007480003511200766E76C005F0000C81C012F0DD
:1007580080C013F0120002510A0DF3500325F00F68
:100768001200076E8BC005F08CC006F01200045111
:100778000A0DF3500525F00F120006510A0DF3502B
:100788000725F00F1200076EFBC005F0FCC006F04D
:100798001200F7220800F55012005FEC2AF029C079
:1007A80053F02AC054F02BC055F02CC056F073EC0F
:1007B8002AF029C047F02AC048F02BC049F02CC0C5
:1007C8004AF00B0E8EDBD8903534396E36343A6EDB
:1007D80037343B6E38343C6E030E3D6E53C03EF0EA
:1007E80054C03FF055C040F056C041F03D6601D0BE
:1007F80007D04134413240323F323E323D2EF6D7A7
:1008080039503E5C056E3A503F58066E3B50405892
:10081800076E3C504158086EA3C109F0A4C10AF004
:1008280048DB8EEC27F0346601D003D006DB342E8B
:10083800FAD712DB0C0E55DB040E396E53C03AF0B2
:1008480054C03BF055C03CF056C03DF0396601D06D
:1008580003D050DB392EFAD735503A5C056E365046
:100868003B58066E37503C58076E38503D58086E56
:10087800000187513E6E88513F6E406A416A040EFE
:10088800426E53C043F054C044F055C045F056C0C2
:1008980046F0426601D007D04634463245324432EB
:1008A8004332422EF6D73E50435C096E3F504458BF
:1008B8000A6E405045580B6E415046580C6E8EECEF
:1008C80027F0346601D003D0B8DA342EFAD7BBDA71
:1008D8000E0E346EF4DAA1C109F0A2C10AF0E9DA09
:1008E8008EEC27F0346601D003D0A7DA342EFAD77D
:1008F800BCDA5B5063244F6E5C506420506E5D50D0
:100908006520516E5E506620526E4FC005F050C093
:1009180006F051C007F052C008F0050E096E0A6AC9
:100928000B6A0C6A8EEC27F0800E0524346E000EDC
:100938000620356E000E0720366E000E0820376E32
:1009480035C034F036C035F037C036F0376A36BEB9
:10095800376834C04BF035C04CF036C04DF037C066
:100968004EF032C0D9FF33C0DAFF4BC0DEFF4CC0B7
:10097800DEFF4DC0DEFF4EC0DEFF4FC034F050C07A
:1009880035F051C036F052C037F03734B9DA000EBE
:100998003424636E060E3520646EFF0E3620656EB5
:1009A800FF0E3720666E0B0E0EDA8EEC27F03466DB
:1009B80001D003D042DA342EFAD745DA80DA97C16B
:1009C80009F098C10AF075DA8EEC27F04EDA99C171
:1009D80005F09AC106F052DA8EEC27F0D89005346B
:1009E800346E0634356E0734366E0834376E34503C
:1009F8005B2635505C2236505D2237505E2201015D
:100A08009B51346E9C51356E366A376A35C037F063
:100A180034C036F0356A346A020E386E5BC039F07D
:100A28005CC03AF05DC03BF05EC03CF0386601D077
:100A380007D03C343C323B323A323932382EF6D782
:100A4800345039245B6E35503A205C6E36503B206A
:100A58005D6E37503C205E6E0D0EB5D98EEC27F0DA
:100A6800346601D003D0E9D9342EFAD7ECD9120E66
:100A7800346E030E356E9DC105F09EC106F0000E62
:100A88000BDA8EEC27F005C036F006C037F007C049
:100A980038F008C039F0356601D007D0393439321A
:100AA800383237323632352EF6D79FC105F0A0C11D
:100AB80006F0E4D98EEC27F0C0D9055036243A6EFA
:100AC800065037203B6E075038203C6E08503920BE
:100AD8003D6E346601D003D00DDA342EFAD73AC011
:100AE80063F03BC064F03CC065F03DC066F00F0E9B
:100AF800346E000E6324056E800E6420066E000EB0
:100B08006520076E000E6620086EE0C109F0E1C19D
:100B18000AF00B6A0C6A8EEC27F0346601D003D019
:100B28008CD9342EFAD798D96350641065106610A2
:100B380001E112000C0E346E5BC035F05CC036F07B
:100B48005DC037F05EC038F0346601D004D0383468
:100B5800DCD9342EF9D747C039F048C03AF049C03B
:100B68003BF04AC03CF0391E3A1E3B1E3C1E392A57
:100B7800000E3A223B223C223550395C3D6E3650FD
:100B88003A583E6E37503B583F6E38503C58406E8E
:100B9800000E3D24056E000E3E20066E100E3F200E
:100BA800076E000E4020086E350E096E0C0EB2D985
:100BB8008EEC27F005C05FF006C060F007C061F05A
:100BC80008C062F0800E625C15E2D8905F34116E46
:100BD8006034126E6134136E6234146E79D9B2ECDB
:100BE80024F011C05FF012C060F013C061F014C0AF
:100BF80062F014D05FC011F060C012F061C013F051
:100C080062C014F065D9B2EC24F0D89011345F6E4C
:100C18001234606E1334616E1434626E5FC034F047
:100C280060C035F061C036F062C037F0040E02D003
:100C3800D89066D9E82EFCD734C005F035C006F048
:100C480036C007F037C008F05FC038F060C039F030
:100C580061C03AF062C03BF0040E05D0D8903B3238
:100C68003A3239323832E82EF9D738C009F039C06B
:100C78000AF03AC00BF03BC00CF08EEC27F00E0ED9
:100C880005D0D8900832073206320532E82EF9D757
:100C9800DAD80C0E346E91C105F092C106F0000E40
:100CA800FBD88EEC27F0346601D003D0C6D8342E9A
:100CB800FAD7D2D80D0E346E5FC035F060C036F06A
:100CC80061C037F062C038F0030E02D0D8901DD949
:100CD800E82EFCD735C005F036C006F037C007F05F
:100CE80038C008F093C109F094C10AF0E2D88EEC3C
:100CF80027F0346601D003D0A0D8342EFAD7B5D85F
:100D0800040E346E95C135F096C136F0000E36BE2D
:100D1800FF0E376E386E63503524396E64503620B6
:100D28003A6E655037203B6E665038203C6E5B50FB
:100D380039243D6E5C503A203E6E5D503B203F6E3C
:100D48005E503C20406E346601D007D040344032BB
:100D58003F323E323D32342EF6D75F503D245F6E2F
:100D680060503E20606E61503F20616E62504020AE
:100D7800626E5FC005F060C006F061C007F062C037
:100D880008F0E80E096E030EC5D88EEC27F005C0F2
:100D980011F006C012F007C013F008C014F0140ECA
:100DA800156E340E166E176A186AB2EC24F03150BC
:100DB800D96EDA6A11C0DEFF12C0DEFF13C0DEFF93
:100DC80014C0DEFF1200346E020E356E63C036F0BA
:100DD80064C037F065C038F066C039F0356601D0B8
:100DE80007D039343932383237323632352EF6D7E1
:100DF80036C005F037C006F038C007F039C008F033
:100E0800020E3A6E63C03BF064C03CF065C03DF032
:100E180066C03EF03A6601D007D03E343E323D32DD
:100E28003C323B323A2EF6D73BC009F03CC00AF0C0
:100E38003DC00BF03EC00CF01200083408320732F7
:100E480006320532120005C057F006C058F007C038
:100E580059F008C05AF0120005C063F006C064F0EB
:100E680007C065F008C066F0120005C05BF006C058
:100E78005CF007C05DF008C05EF01200000E06BE10
:100E8800FF0E076E086E63C009F064C00AF065C003
:100E98000BF066C00CF0120006BEFF0E076E086E5F
:100EA80057C009F058C00AF059C00BF05AC00CF0EE
:100EB8001200000E0ABEFF0E0B6E0C6E120057C019
:100EC80005F058C006F059C007F05AC008F01200E3
:100ED80063C015F064C016F065C017F066C018F05E
:100EE8001200346E00018751356E8851366E376AAC
:100EF800386A12003D343D323C323B323A321200FD
:100F080037323632353234321200383237323632EE
:100F1800353212000A6E0B6A0C6A12007FD1FCECA3
:100F28002BF071A618D0020E8AD9000E84EC23F09B
:100F3800450E116E7BD9090EA5EC21F0720E116ECB
:100F480075D90F0EA5EC21F0720E116E6FD9150E22
:100F5800A5EC21F04BD10001912903E1922901E18F
:100F68002ED1FF0503E09151921179E171D963D92E
:100F78001CEC28F00C50326E91C005F092C006F0BF
:100F88008AD9B4EC27F005C034F006C035F0050E58
:100F9800326402D0344A352A91D97DD9B4EC27F08D
:100FA8000550061030E1020E4AD9030E84EC23F0F6
:100FB8003450351017E0FDC011F038D90D0EA5ECEE
:100FC80021F04BD938D91CEC28F00C509BEC12F0CE
:100FD800130EA5EC21F0B00E116E28D9190EA5EC50
:100FE80021F004D13AD927D91CEC28F00C509BECFD
:100FF80012F00D0EA5EC21F0B00E116E17D9130EDC
:10100800A5EC21F0F3D0020E1AD9000E84EC23F0DF
:10101800FDC011F00BD9090EA5EC21F0086A0A0EE3
:10102800076E4CD9B4EC27F092EC03F01CEC28F0D6
:101038000C509BEC12F00F0EA5EC21F00ED9FBD84A
:101048001CEC28F00C509BEC12F0150EA5EC21F0CE
:10105800B00E116EEBD81B0EA5EC21F0C7D0200EF8
:10106800336E3350F8EC27F0332A300E3364F9D757
:10107800086A640EF7D8B4EC27F092EC03F01CEC85
:1010880028F00CC02CF00DC02DF0086A0A0EEAD822
:10109800B4EC27F092EC03F01CEC28F00CC02EF016
:1010A8000DC02FF0D5D8C7D81CEC28F00CC030F0F4
:1010B8000DC031F0A50EE0D82CC015F02DC016F0EB
:1010C8002EC017F02FC018F0F4D830C01BF031C074
:1010D8001CF0E5D818EC17F0300E0101A5193BE01B
:1010E800020EADD8030E84EC23F0FDC011F09ED89B
:1010F8000B0EA5EC21F0BCD89BEC12F0110EA5EC60
:1011080021F0A2D89BEC12F0170EA5EC21F0A7C194
:1011180011F08CD81D0EA5EC21F00101A851D00FBB
:1011280088EC13F0200EC1EC23F0A9C111F0D6EC25
:1011380010F0260EC1EC23F0330E2B6EBB0E2A6E78
:10114800E00EE82EFED72A2EFCD72B2EFAD70A0E51
:1011580073EC26F04BD0020E72D8010E84EC23F00B
:10116800FDC011F063D80B0EA5EC21F06DD89BECF7
:1011780012F0110EA5EC21F0A7C111F057D8170EE7
:10118800A5EC21F0D9EC0EF09BEC12F01A0EA5ECB0
:1011980021F0A9C111F0D6EC10F0200EC1EC23F01B
:1011A800330E2B6EBB0E2A6EE00EE82EFED72A2ECB
:1011B800FCD72B2EFAD7080E73EC26F017D0020EA8
:1011C8003ED8000E84EC23F02D0E116E2FD8090E98
:1011D800A5EC21F02D0E116E29D80F0EA5EC21F0EB
:1011E8002D0E116E23D8150EA5EC21F0DDEC0EF0B6
:1011F8004BD837EF22F0050E796EEEEC25F0DFECD8
:1012080011F0E7EC19F07FEC22F04ED87FEC22F0D9
:1012180003EC17F008EC15F037EF22F07950040AC8
:10122800EAE0010A01E17BD6030A12001B0E126EE6
:10123800B90E136E12000F6A0A0E0E6E0A0C0C6EAF
:10124800B90E0D6E0E6A12000101A651D00F1200E0
:1012580091C00CF092C00DF0120034C00CF035C0F3
:101268000DF01200076E91C005F092C006F0120052
:101278000101A551D00F1200116E010E126E6D0EF4
:10128800136EBF0E146E1200020E086E8A0E076EE1
:101298000A6A096A8A0C086A0A0E076E0A0C000EA6
:1012A8001E6EB00E1D6EB00C240E056E0F0E066E6F
:1012B8001200000E1A6E2E0E196E2E0C34C005F098
:1012C80035C006F012001F6E2AD10001B86B206AE3
:1012D800A1EC12F0EC5155EC29F0C2EC2AF000090F
:1012E8000BE0A1EC12F0EC5155EC29F0C2EC2AF01D
:1012F8001ED9B90F47D903D02050F8EC27F0B2EC2B
:1013080012F0C2EC2AF013D9BF0F3CD9A1EC12F0AD
:10131800EB5155EC29F0C2EC2AF009D9C60F32D9A5
:10132800ADEC12F0C2EC2AF002D9CC0F2BD9202A4E
:10133800040E2064CDD7206AA1EC12F0EA5155ECD6
:1013480029F0C2EC2AF018D905D9D20F1BD9BCEC68
:1013580012F0C2EC2AF010D9FDD8D60F13D9202AE2
:10136800020E2064E9D70001BE6B800EC46FC56F02
:10137800CB6BD16BD56B1200010E0001B86F08D989
:1013880055EC29F0C2EC2AF00001B16F0BD9C2EC80
:101398002AF00001B06F01D955EC29F0C2EC2AF00F
:1013A8000001AF6F03D9C2EC2AF00001AE6FB15152
:1013B800AD1909E1B051AC1906E1AF51AB1903E120
:1013C800AE51AA1974E0AE51AA1909E0EFD8C2ECDF
:1013D8002AF09BEC12F0190EA5EC21F008D0E6D803
:1013E800C2EC2AF088EC13F0190EC1EC23F00001CE
:1013F800AF51AB190BE0D1D855EC29F0C2EC2AF06B
:101408009BEC12F0130EA5EC21F00AD0C6D855ECCF
:1014180029F0C2EC2AF088EC13F0130EC1EC23F08B
:101428000001B051AC1909E0BDD8C2EC2AF09BEC20
:1014380012F0070EA5EC21F008D0B4D8C2EC2AF0BF
:1014480088EC13F0070EC1EC23F0A1EC12F0EC517C
:1014580055EC29F0C2EC2AF000091AE00001B1515C
:10146800AD190BE095D855EC29F0C2EC2AF09BECAD
:1014780012F0010EA5EC21F011D08AD855EC29F014
:10148800C2EC2AF088EC13F0010EC1EC23F006D070
:10149800116A1AEC09F0010EA5EC21F0B1C0ADF00B
:1014A800B0C0ACF0AFC0ABF0AEC0AAF0120070D8BC
:1014B80055EC29F0C2EC2AF000090DE0A1EC12F07D
:1014C800EC5155EC29F0C2EC2AF088EC13F0010E2F
:1014D800C1EC23F006D0116AD6EC10F0010EC1EC75
:1014E80023F0B2EC12F0C2EC2AF088EC13F0070EED
:1014F800C1EC23F0A1EC12F0EB5155EC29F0C2EC51
:101508002AF088EC13F0130EC1EC23F0ADEC12F0C6
:10151800C2EC2AF088EC13F0190EC1EF23F01F502B
:10152800010A01E1D2D6030A01E126D71200050D0E
:1015380077C01DF078C01EF0F3501D26F4501E220F
:1015480020501D26000E1E221DC0F6FF1EC0F7FFEC
:1015580020501200F3501D26F4501E2220501D2644
:10156800000E1E22030E1D26000E1E221DC0F6FFB1
:101578001EC0F7FF20501200030D150E1D6EBF0E82
:101588001E6E1200D96EDA6A0800F5CFDFFF12006E
:101598000A0E096E056EEC5112000A0E096E056EF0
:1015A800EB5112000A0E096EEC5112000A0E096E78
:1015B800EB51120042D067D97FEC22F0420E056E43
:1015C800270E08EC15F037EC22F02AEC18F037EC6F
:1015D80022F075EC14F03BD056D97FEC22F0E7EC02
:1015E80019F07FEC22F003EC17F008EC15F037EC5B
:1015F80022F053EC19F0FCEC2BF029D00001852BDC
:101608000C0E856502D0010E856F2AEC18F037ECB8
:1016180022F059EC14F077EC28F019D00001850776
:10162800855102E10C0E856F2AEC18F037EC22F098
:1016380059EC14F077EC28F00AD07950010ABBE095
:10164800030ADCE0010AEAE0070AC6E0010A71A819
:10165800FFD0AB0EF66EBF0EF76E00D9000EC1ECD0
:1016680023F0AC0EF66EBF0EF76EF8D8060EC1EC7E
:1016780023F0AD0EF66EBF0EF76EF0D80C0EC1EC6F
:1016880023F0C6D0FC0EF66EBF0EF76EE7D8120E2A
:10169800C1EC23F0FD0EF66EBF0EF76EDFD8180E04
:1016A800C1EC23F0D5D0F30EF66EBF0EF76ED6D888
:1016B800120EC1EC23F0F40EF66EBF0EF76ECED804
:1016C800180EC1EC23F0C4D0D80EF66EBF0EF76E1C
:1016D800C5D8120EC1EC23F0D90EF66EBF0EF76E08
:1016E800BDD8180EC1EC23F0B3D0CC0EF66EBF0EE9
:1016F800F76EB4D8120EC1EC23F0CD0EF66EBF0E05
:10170800F76EACD8180EC1EC23F0A2D0E40EF66E3A
:10171800BF0EF76EA3D8120EC1EC23F0E50EF66EDD
:10172800BF0EF76E9BD8180EC1EC23F091D0E70ED0
:10173800F66EBF0EF76E92D8120EC1EC23F0E80ECB
:10174800F66EBF0EF76E8AD8180EC1EC23F080D063
:10175800D50EF66EBF0EF76E81D8120EC1EC23F0CF
:10176800D60EF66EBF0EF76E79D8180EC1EC23F0C0
:101778006FD07FD873D8120EC1EC23F07FD86ED803
:10178800180EC1EC23F064D0DB0EF66EBF0EF76EB8
:1017980065D8120EC1EC23F0DC0EF66EBF0EF76EA4
:1017A8005DD8180EC1EC23F053D0C90EF66EBF0EEB
:1017B800F76E54D8120EC1EC23F0CA0EF66EBF0EA7
:1017C800F76E4CD8180EC1EC23F042D0EA0EF66E34
:1017D800BF0EF76E43D8120EC1EC23F0EB0EF66E77
:1017E800BF0EF76E3BD8180EC1EC23F031D0DE0ED9
:1017F800F66EBF0EF76E32D8120EC1EC23F0DF0E74
:10180800F66EBF0EF76E2AD8180EC1EC23F020D062
:1018180000018551010A01E135D7030A01E143D7E7
:10182800010A01E151D7070A01E15FD7010A01E185
:101838006DD7030A01E17BD7010A8AE00F0A99E014
:10184800010AA2E0030AB1E0010AC0E0070ACFE0FA
:10185800B90E076E59EC28F0718812000800F5CF10
:1018680011F01B0E126EB90E136EB90E146E156AB6
:101878001200E10EF66EBF0EF76E1200E20EF66E63
:10188800BF0EF76E1200BC0E056E150E066E120026
:10189800696A6A6A6B6A6C6AD8D07A5067EC09F030
:1018A800020E7A1803E1CCEC18F002D00001B86BF4
:1018B800050EEA650DD0070EEA610AD0F50E0B6E2B
:1018C800FA0E0C6EF80E0D6EF90E0E6EBDEC1EF0D3
:1018D8000E0E0001EA6505D0100EEA6102D0030E73
:1018E800796E270EEA65C0D0290EEA61BDD0B451E1
:1018F80004E0EBB102D0020E9FD0030E9DD00FD9A9
:101908007FEC22F0820E056E250E066E0DD937EC9F
:1019180022F02AEC18F037EC22F020EEEAF010EE74
:1019280080F0060EDBCFE3FFE806FCE2050E796ED9
:101938007198020E7A1801E097D00001ECD8D6EC25
:1019480010F00D0EC1EC23F08FD00001B86BD70E4C
:10195800076E010E086EEFEC21F00001A06FA05198
:1019680010E10101D751676ED85100018D6F67C032
:101978008EF00101D951676EDA5100018B6F67C093
:101988008CF0F10E316EDC0E326E010E336ED1EC3E
:1019980003F0020E7A1807E1170E116ED6EC10F05C
:1019A8000D0EC1EC23F0EEEC25F00001B4510DE072
:1019B800B6D87FEC22F0C20E056E320E08EC15F098
:1019C80037EC22F053EC19F04FD0A9D87FEC22F075
:1019D8006C0E056E2A0E08EC15F037EC22F0F2D7E3
:1019E8000001B6511AE0B86B020E7A1807E1170E1B
:1019F800116ED6EC10F00D0EC1EC23F0EEEC25F0D4
:101A08008ED87FEC22F04C0E056E1B0E08EC15F0FC
:101A180037EC22F053EC19F00ED0B5510CE0B86B4E
:101A2800020E7A18EBE1170E116ED6EC10F00D0EBF
:101A3800C1EC23F0E3D7050E796E16D0050E796E4A
:101A4800E7EC19F07FEC22F00FD07950010A01E1A0
:101A580056D7030A01E179D7010AC2E0070AEEE086
:101A6800010A01E11AD7030A71A804D0B90E076E5A
:101A780059EC28F0755009E00001EAA171A405D0DD
:101A880071942EEC2BF0CBEC29F07188C1EC2BF083
:101A9800000913E0690E0B6E93EC2BF03BEC29F078
:101AA8006B50676E6A500001916F67C092F069C011
:101AB800FDF08F6B906B719603D000018F4B902BCC
:101AC800E90E8F5D030E905906E371863BEC29F011
:101AD80036D80DEC21F00001A151EE191AE1050EDE
:101AE800096EEB51C2EC2AF00009D8A41200230EAB
:101AF8000001EA19D8B471A212000DD8D6EC10F082
:101B08000D0EC1EC23F016D8E8EC28F0010EB86FE2
:101B1800010C71921200B86B170E116E170C980E0B
:101B2800056E180E066E1200086A076A0A6A320EF7
:101B3800096E320C960E0B6E030E0C6E1200040E1C
:101B48000E6E780C2AD1FCEC2BF00001FF0503E0A7
:101B5800F551F61163E134D91FEC09F01CEC28F0BB
:101B68000C50326EF5C005F0F6C006F04FEC09F0E7
:101B7800B4EC27F005C034F006C035F0050E326429
:101B880002D0344A352A2CD94FEC09F0B4EC27F0AE
:101B98000550061017E1010E23EC09F0030E84EC42
:101BA80023F034C011F077C012F078C013F00D0E96
:101BB800A5EC21F0B00E116E1AEC09F0130EA5EC8D
:101BC80021F0C9D0010E23EC09F0030E84EC23F0B8
:101BD800086A0A0E076E04D9B4EC27F092EC03F0F9
:101BE8001CEC28F00C509BEC12F00B0EA5EC21F02D
:101BF80034C00CF035C00DF01FEC09F01CEC28F0D7
:101C08000C509BEC12F0110EA5EC21F0B00E116EE9
:101C18001AEC09F0170EA5EC21F09DD0200E336EBA
:101C28003350F8EC27F0332A300E3364F9D7086ABA
:101C3800640ECBD8B4EC27F092EC03F01CEC28F03F
:101C48000CC02CF00DC02DF0086A0A0EBED8B4ECFA
:101C580027F092EC03F01CEC28F00CC02EF00DC01D
:101C68002FF0AED81FEC09F01CEC28F00CC030F0B7
:101C78000DC031F0A50E40EC09F02CC015F02DC0B8
:101C880016F02EC017F02FC018F05DEC09F030C028
:101C98001BF031C01CF053EC09F018EC17F0300EB3
:101CA8000101A51937E0010E23EC09F0020E84ECBE
:101CB80023F03CEC09F09BEC12F00B0EA5EC21F0A4
:101CC80028EC09F09BEC12F0110EA5EC21F0A7C14D
:101CD80011F01AEC09F0170EA5EC21F066D89BEC70
:101CE80012F01A0EA5EC21F0A9C111F0D6EC10F0F3
:101CF800200EC1EC23F0330E2B6EBB0E2A6EE00EC5
:101D0800E82EFED72A2EFCD72B2EFAD7080E73EC16
:101D180026F021D0010E23EC09F0020E84EC23F00A
:101D280028EC09F09BEC12F00B0EA5EC21F0A7C1F2
:101D380011F01AEC09F0110EA5EC21F036D89BEC45
:101D480012F0140EA5EC21F0A9C111F01AEC09F05B
:101D58001A0EA5EC21F02DD848EC09F037EF22F047
:101D6800050E796EEEEC25F0E7EC19F07FEC22F029
:101D780032D87FEC22F00001B55107E0240E056E41
:101D88000F0E08EC15F037EF22F003EC17F008EC13
:101D980015F037EC22F0DFEF11F07950040AE0E09B
:101DA800010A01E1D0D6030A12000101A851D00F9F
:101DB8001200060E796EC00E056E580E066E1200E1
:101DC800F5C00CF0F6C00DF01200076EF5C005F076
:101DD800F6C006F012004C0E056E1B0E066E1200C1
:101DE80034C005F035C006F0120042D001D97FECAE
:101DF80022F04A0E056E390E08EC15F037EC22F089
:101E08002AEC18F037EC22F075EC14F03BD0F0D83F
:101E18007FEC22F0E7EC19F07FEC22F003EC17F0EE
:101E280008EC15F037EC22F053EC19F0FCEC2BF031
:101E380029D00001832B070E836502D0010E836F22
:101E48002AEC18F037EC22F059EC14F077EC28F073
:101E580019D000018307835102E1070E836F2AEC32
:101E680018F037EC22F059EC14F077EC28F00AD08F
:101E78007950010ABBE0030ADCE0010AEAE0070A3C
:101E8800C6E0010A71A8AED09F0EF66EBF0EF76EBF
:101E980032EC0CF0000EC1EC23F0A00EF66EBF0E73
:101EA800F76E32EC0CF0060EC1EC23F0A10EF66EC4
:101EB800BF0EF76E32EC0CF00C0EC1EC23F081D0A3
:101EC800D20EF66EBF0EF76E32EC0CF0120EC1ECAD
:101ED80023F0D30EF66EBF0EF76E32EC0CF0180E30
:101EE800C1EC23F07FD0F00EF66EBF0EF76E32EC29
:101EF8000CF0120EC1EC23F0F10EF66EBF0EF76E69
:101F080032EC0CF0180EC1EC23F06CD03DEC0CF068
:101F180032EC0CF0120EC1EC23F042EC0CF032EC77
:101F28000CF0180EC1EC23F05DD0F90EF66EBF0E62
:101F3800F76E32EC0CF0120EC1EC23F0FA0EF66ECE
:101F4800BF0EF76E32EC0CF0180EC1EC23F04AD03D
:101F5800F60EF66EBF0EF76E32EC0CF0120EC1ECF8
:101F680023F0F70EF66EBF0EF76E32EC0CF0180E7B
:101F7800C1EC23F037D0C30EF66EBF0EF76E32EC0D
:101F88000CF0120EC1EC23F0C40EF66EBF0EF76E05
:101F980032EC0CF0180EC1EC23F024D0CF0EF66E04
:101FA800BF0EF76E32EC0CF0120EC1EC23F0D00E1F
:101FB800F66EBF0EF76E32EC0CF0180EC1EC23F083
:101FC80011D000018351010AE9E0030A01E178D741
:101FD800010A89E0070A9AE0010AA7E0030AB8E0C3
:101FE800010AC9E0B90E076E59EC28F07188120091
:101FF800F20E056E1D0E066E120071BA02D0718ABD
:102008005CD0719A5AD0DFD87FEC22F0F80E056EBA
:10201800340E08EC15F037EC22F02AEC18F037EC07
:1020280022F0050E796EFCEC2BF0719850D0CBD8CD
:102038007FEC22F0E7EC19F07FEC22F003EC17F0CC
:1020480008EC15F037EC22F0050E796EFCEC2BF05D
:102058003ED00001822B170E826501D0826B2AECDC
:1020680018F037EC22F0A6D80AE0825104E1A7D88C
:1020780087EC29F02CD0B6D887EC29F028D0A8D83E
:1020880087EC29F024D000018207822902E1170E8B
:10209800826F2AEC18F037EC22F08CD80AE08251D3
:1020A80004E18DD887EC29F012D09CD887EC29F070
:1020B8000ED08ED887EC29F00AD07950010AA3E017
:1020C800030AC7E0010ADFE0070AB1E0010A71A8C4
:1020D80063D071AA4AD07A0424E1A1EC12F08251AB
:1020E80055EC29F0C2EC2AF000090DE0A1EC12F041
:1020F800825155EC29F0C2EC2AF088EC13F0000E5E
:10210800C1EC23F005D0116A4DD8000EC1EC23F0C4
:1021180064D8C2EC2AF088EC13F0060EC1EC23F068
:102128003BD0A1EC12F0825155EC29F0C2EC2AF018
:1021380000090DE0A1EC12F0825155EC29F0C2EC37
:102148002AF088EC13F0010EC1EC23F005D0116AD7
:1021580029D8010EC1EC23F040D8C2EC2AF088EC53
:1021680013F0070EC1EC23F017D07A040BE1116AC3
:1021780019D8000EC1EC23F0116A14D8060EC1EC70
:1021880023F00AD0116A0ED8010EC1EC23F0116AAF
:1021980009D8070EC1EC23F0B90E076E59EC28F0E8
:1021A800718812001B0E126EB90E136EB90E146EE2
:1021B800156A1200050E796E0001F751120081C0F0
:1021C80012F0136A170C020E056E200E066E12002E
:1021D80081C012F0136A825112000A0E096E0001C2
:1021E8008251120081C012F0136A82051200030E98
:1021F800196ECBD81A6E1F0E62EC20F0236E235096
:102208001F08276E0A0E196EC0D81A6E1F0E62ECD0
:1022180020F0236E23501F08286E95D8030EDF6424
:1022280004D091D8090EDF6427D08DD8030EDE18AC
:1022380004E18FD8DE50275C1FE385D8030EDE1833
:1022480008E187D82750DE1804E1A6D8030EDF601E
:1022580013D079D80A0EDE1804E17BD82850DE5C4A
:102268000BE371D80A0EDE180DE173D82850DE187A
:1022780009E192D8DF6006D02250D96EDA6A010EE1
:10228800DF6E04D02250D96EDA6ADF6A2250D96E26
:10229800DA6ADF50D8B412007FD8170EDE1848E18A
:1022A8007BD8DF6A7FD8DF2A7DD8080EDE1803E1E5
:1022B80079D8010EDF6E69D8236E030E231620E04D
:1022C80042D852D808E03FD8020EDE1816E141D8AD
:1022D8001C0EDE1812E137D80C0EDE1808E121506A
:1022E800D96E3DD836D8010EDF6E2DD861D031D8E1
:1022F800010EDF6E28D8DF2A050C2BD8DF2A040C44
:1023080022D832D812E11FD80C0EDE1808E121506D
:10231800D96E25D81ED8010EDF6E15D849D019D828
:10232800010EDF6E10D8DF2A050C13D8DF2A040C43
:1023380033D82150E16EE26A020EE126E750236E9F
:102348002328DF6E12002150D96EDA6A050ED926CD
:10235800050C2150D96EDA6A040ED926040CDA6A03
:10236800060ED926DF2A060CDF50236E246AE10EFA
:102378002324D96E010E2420DA6E2150E16EE26A20
:10238800040EE126DE50E61812002150D96EDA6AF2
:10239800060ED926DF5012002150D96EDA6A020ED5
:1023A800D926020C2150D96EDA6A030ED926030CFD
:1023B800010EDF6E010CFCEC2BF0B2D0BED8EC5154
:1023C80055EC29F0C2EC2AF000090BE0B6D8EC5124
:1023D80055EC29F0C2EC2AF0AAD8000EA5EC21F0A1
:1023E80006D0116A1AEC09F0000EA5EC21F0B6D857
:1023F800C2EC2AF09CD8060EA5EC21F09ED8EB5131
:1024080055EC29F0C2EC2AF092D80D0EA5EC21F07B
:10241800A0D8C2EC2AF08BD8130EA5EC21F092D8E4
:10242800BFEC25F08AD8EA5155EC29F0C2EC2AF025
:10243800296E29280D6E190E5BEC21F099D8C2EC93
:102448002AF0296E29280D6E1D0E5BEC21F07350C1
:1024580003E089D8FBEC10F00001B86B12006DD8CE
:10246800EC5155EC29F0C2EC2AF000090BE065D8D4
:10247800EC5155EC29F0C2EC2AF059D8010EA5EC24
:1024880021F006D0116A1AEC09F0010EA5EC21F032
:1024980065D8C2EC2AF04BD8070EA5EC21F03A0E0D
:1024A800116E1AEC09F00D0EA5EC21F04BD8BFEC1B
:1024B80025F043D8EB5155EC29F0C2EC2AF037D877
:1024C800130EA5EC21F045D8C2EC2AF030D8190E2D
:1024D800A5EC21F0735003E046D8FBEC10F0010E98
:1024E8000001B86FA36BCCEC0AF055EC29F0C2ECF4
:1024F8002AF00001AD6FD6EC0AF0C2EC2AF0000118
:10250800AC6FD1EC0AF055EC29F0C2EC2AF00001CE
:10251800AB6FDAEC0AF0C2EC2AF00001AA6F1200E5
:102528007A50010A01E14AD7030A99E01200116EB4
:1025380077C012F078C013F012000A0E096E056E0B
:1025480000010A0CEC0E0A6EEB0E0B6EEA0E0C6E16
:1025580012000A0E096E0001EB5112000A0E096EF4
:102568000001EC511200EA0E216EF70E226E1200E5
:102578000A0E096E0001EA51120071BA02D0718A7E
:102588006CD0719A6AD0D4D87FEC22F0020E056E16
:10259800200E066E98EC0DF037EC22F02AEC18F0BD
:1025A80037EC22F07A0413E1A1EC12F0815155ECDA
:1025B80029F0C2EC2AF0A8D80D0EC1EC23F0ADD852
:1025C800C2EC2AF0A1D8130EC1EC23F013D0A1EC71
:1025D80012F0EB5155EC29F0C2EC2AF095D8130E05
:1025E800C1EC23F0ADEC12F0C2EC2AF08DD8190E34
:1025F800C1EC23F053EC19F03AD09AD87FEC22F0D2
:10260800E7EC19F07FEC22F003EC17F008EC15F07A
:1026180037EC22F0050E796EFCEC2BF028D0000187
:10262800812B3B0E816501D0816B2AEC18F037ECC9
:1026380022F078D887EC29F0050E796E18D00001C1
:102648008107812902E13B0E816F2AEC18F037ECF3
:1026580022F068D887EC29F0EFD77950010A93E087
:10266800030ADDE0010AEBE0070AC7E0010A71A8E6
:1026780045D071AA28D07A0413E1A1EC12F0815157
:1026880055EC29F0C2EC2AF03FD80D0EC1EC23F02E
:1026980044D8C2EC2AF038D8130EC1EC23F02ED05F
:1026A800A1EC12F0815155EC29F0C2EC2AF02CD89B
:1026B800130EC1EC23F031D8C2EC2AF025D8190E3C
:1026C800C1EC23F01BD07A040DE1116AD6EC10F0AE
:1026D8000D0EC1EC23F0116AD6EC10F0130EC1EC0C
:1026E80023F00CD0116AD6EC10F0130EC1EC23F0D5
:1026F800116AD6EC10F0190EC1EC23F0B90E076E72
:1027080059EC28F071881200116E77C012F078C069
:1027180013F0B90E146E156A12000A0E096E000144
:102728008151120081C012F0136A00018251120017
:10273800820E056E250E066E120073D0CDD87FEC82
:1027480022F0F20E056E1D0E08EC15F037EC22F0A3
:102758002AEC18F037EC22F0C4D86DD0BDD87FEC45
:1027680022F0E7EC19F07FEC22F003EC17F008EC0C
:1027780015F037EC22F053EC19F0FCEC2BF05BD0A1
:102788000001842BA4D820E09BD88451DE5C19E397
:10279800020E85191DE184511C6E1D6A1E681F6892
:1027A8008FD8DF50206E216A1E5020261F5021220C
:1027B8001C50205C2150800A226E1D50800A22582D
:1027C80007E2010E846F04D07BD88451DE5CF9E304
:1027D8002AEC18F037EC22F068D877EC28F02BD0E8
:1027E8000001840774D813E0845106E1020E8519AC
:1027F80003E066D8DF5009D0020E85190AE184513A
:1028080008E15ED8DF501C6E1C04846F02D084512E
:10281800F0E02AEC18F037EC22F047D877EC28F0F3
:102828000AD07950010A8AE0030AAAE0010AD8E02E
:10283800070A94E0010A71A832D0AF0EF66EBF0EF7
:10284800F76E32EC0CF0000EC1EC23F0B00EF66E11
:10285800BF0EF76E32EC0CF0060EC1EC23F0B10E91
:10286800F66EBF0EF76E32EC0CF00C0EC1EC23F0D6
:10287800A1EC12F0845155EC29F0C2EC2AF088EC56
:1028880013F0120EC1EC23F00A0E096E00018451F8
:10289800C2EC2AF088EC13F0180EC1EC23F0B90E44
:1028A800076E59EC28F071881200050E796E84C005
:1028B80012F085C013F086C014F000018351120095
:1028C800E10E8525D96EDA6A010EDA22120086C079
:1028D8001CF0030E1C16030C420E056E270E066E26
:1028E8001200050E796E7188050C43D0755010E002
:1028F800ABD87FEC22F0A4D887D837EC22F02AECAA
:1029080018F037EC22F053EC19F0FCEC2BF03BD02C
:102918009BD87FEC22F0700E056E3C0E75D837EC14
:1029280022F09CD8F3EC2BF0746EB5EC1EF04CEC56
:102938002BF0E5D789D87FEC22F0E7EC19F07FEC93
:1029480022F003EC17F060D837EC22F0DCD772D80D
:102958002AEC18F037EC22F07CD8F9EC2AF013D0E6
:1029680069D82AEC18F037EC22F073D8F9EC2AF081
:102978000AD07950010ABAE0030AE9E0010AF0E056
:10298800070AD8E0010A71A839D04FD832EC0CF008
:10299800000EC1EC23F044D832EC0CF0060EC1EC6A
:1029A80023F039D832EC0CF00C0EC1EC23F0755042
:1029B80013E0C60EF66EBF0EF76E32EC0CF0120E78
:1029C800C1EC23F0C70EF66EBF0EF76E32EC0CF0BA
:1029D800180EC1EC23F012D0ED0EF66EBF0EF76E96
:1029E80032EC0CF0120EC1EC23F0EE0EF66EBF0EB8
:1029F800F76E32EC0CF0180EC1EC23F0B90E076E2E
:102A080059EC28F071881200066E086A076A0A6A8B
:102A1800140E096E140CB50EF66EBF0EF76E12008A
:102A2800B40EF66EBF0EF76E1200B30EF66EBF0E42
:102A3800F76E12007550010ED8A4000E756E1200C4
:102A48005A0E056E3A0E1200F20E056E280E066E2C
:102A58001200050E796E75C005F0020C066A030EA9
:102A6800056E030C8AD0E80E00018D5D030E8E59A9
:102A78003AE2050E23EC09F0010E84EC23F0086A13
:102A8800640E83D8B4EC27F092EC03F01CEC28F029
:102A98000C509BEC12F0090EA5EC21F0086A0A0E06
:102AA80074D8B4EC27F092EC03F01CEC28F00C502E
:102AB8009BEC12F00F0EA5EC21F02E0E116E1AEC05
:102AC80009F0150EA5EC21F08DC00CF08EC00DF0AC
:102AD8001FEC09F01CEC28F00C509BEC12F0180EBF
:102AE800A5EC21F032D0050E23EC09F0020E84EC9F
:102AF80023F058D84AD8B4EC27F092EC03F01CEC39
:102B080028F00C509BEC12F00B0EA5EC21F0086A93
:102B1800640E3BD8B4EC27F092EC03F01CEC28F0E0
:102B28000C509BEC12F0110EA5EC21F0086A0A0E6D
:102B38002CD8B4EC27F092EC03F01CEC28F00C50E5
:102B48009BEC12F0170EA5EC21F0DDEC0EF023D86B
:102B580037EF22F0050E796EEEEC25F0DFEC11F080
:102B6800E7EC19F07FEC22F020D87FEC22F003ECA0
:102B780017F008EC15F037EF22F07950040AEAE074
:102B8800010A01E170D7030A1200076E8DC005F033
:102B98008EC006F01200010E086E900E076E0A6ACB
:102BA800096A900C030E086EE80C6C0E056E2A0E6E
:102BB800066E1200146A09C005F00AC006F04BEC54
:102BC8002AF00550FD0F126E136A7DD080D8030ECF
:102BD80085D8C00EDF646FD07AD8040E7FD8DF5056
:102BE8000D6E145009240E6E000E0A200F6E030E8F
:102BF8000E24D96E000E0F20DA6EDF50106E0D50C5
:102C0800156E10C016F0840E151805E1D00E1618B2
:102C180002E1DA0E0FD0860E151805E1D00E16184F
:102C280002E1D40E07D0870E151807E1D00E16184A
:102C380004E1D80E155ECF0E08D0940E151807E1E2
:102C4800D10E161804E1DA0E11D0165A28D0960EB5
:102C5800151805E1D10E161802E1E30E07D0970EFC
:102C6800151807E1D10E161804E1D80E155ED00E1E
:102C7800ECD7C00E155CD00E165803E2300E1526A0
:102C88000DD0800E155CD10E165809E3900E155C18
:102C9800D10E165804E2700E15262F0E1622960E27
:102CA8001324D96EDA6A030EDA2215C0DFFF020E8A
:102CB8001426120607D00BD8030E10D8960E13242C
:102CC80013D8142A132A1350125C80E212001450ED
:102CD80009240B6E000E0A200C6E12000B24D96E0C
:102CE800000E0C20DA6E1200E16EE26A030EE22298
:102CF800DFCFE7FF12003BD092D87FEC22F07FD8DD
:102D080008EC15F037EC22F0E7EC19F07FEC22F034
:102D180053EC19F0FCEC2BF034D081D87FEC22F086
:102D28006ED808EC15F037EC22F0E7EC19F07FECE0
:102D380022F053EC19F0FCEC2BF07A0403E10001CB
:102D4800B86B1FD0CCEC18F01CD05DD82AEC18F06A
:102D580037EC22F05FD8F9EC2AF013D054D82AECDB
:102D680018F037EC22F056D8F9EC2AF00AD079504E
:102D7800010AC2E0030AE9E0010AF0E0070ACDE02F
:102D8800010A71A836D08D0EF66EBF0EF76E32ECC2
:102D98000CF0000EC1EC23F08E0EF66EBF0EF76E2F
:102DA80032EC0CF0060EC1EC23F08F0EF66EBF0E5F
:102DB800F76E32EC0CF00C0EC1EC23F0900EF66EB0
:102DC800BF0EF76E32EC0CF0120EC1EC23F00001CE
:102DD800B35108E02B0E116ED6EC10F0180EC1ECB2
:102DE80023F007D02D0E116ED6EC10F0180EC1ECA2
:102DF80023F0B90E076E59EC28F071881200980E6E
:102E0800056E180E12000001B351010ED8A4000E71
:102E1800B36F1200050E796EB3C005F00A0CFE0EF2
:102E2800056E2C0E066E1200150E246E6ED0250E41
:102E380025182DE083D825C0DFFF114A122A65D056
:102E48002450D96EDA6ADECF22F0DDCF23F0020EED
:102E58002426225023100EE1810E226EBF0E236E0F
:102E680009D071D86BD80800F5CFDFFF224A232A92
:102E7800114A122A68D80800F55047E0F2D72450C2
:102E8800D96EDA6ADF50256E020E2426D3D742D8CF
:102E98003EE0630AF4E0100AD3E0060ACBE12450CE
:102EA800D96EDA6ADECF1FF0DDCF20F0020E2426BD
:102EB800010E256E255039D8F5501F5C0900F550D4
:102EC800205804E3252A050E2518F4E125C021F031
:102ED80019D021502AD8F5CF07F00A00F5CF08F00D
:102EE8001FC005F020C006F0B4EC27F092EC03F008
:102EF8001CEC28F00C50300F256E20D825C0DFFFC1
:102F0800114A122A21062128E4E104D890E116D8B2
:102F1800DF6A000C13C0F6FF14C0F7FF134A142A27
:102F28000800F5CF25F025501200020DFF0EF324FE
:102F3800F66EB80EF420F76E0900120011C0D9FF22
:102F480012C0DAFF120022C0F6FF23C0F7FF1200FA
:102F58003BD08CD87FEC22F0FE0E056E2C0E08ECD0
:102F680015F037EC22F072D837EC22F053EC19F058
:102F7800FCEC2BF033D07AD87FEC22F003EC17F07E
:102F880008EC15F037EC22F0E7EC19F07FEC22F0B2
:102F9800EDD70001FF2B030EFF1902E1010EFF6FB1
:102FA80055D837EC22F05DD8F9EC2AF017D000019B
:102FB800FF07FF5102E1020EFF6F48D837EC22F0FD
:102FC80050D8F9EC2AF00AD07950010AC2E0030A75
:102FD800E0E0010AECE0070ACEE0010A71A830D06F
:102FE800880EF66EBF0EF76E32EC0CF0000EC1ECD8
:102FF80023F0890EF66EBF0EF76E32EC0CF0060E5B
:10300800C1EC23F08A0EF66EBF0EF76E32EC0CF0B0
:103018000C0EC1EC23F08B0EF66EBF0EF76E32EC81
:103028000CF0120EC1EC23F0FFC011F077C012F0C3
:1030380078C013F0B90E146E156A180EC1EC23F09F
:10304800B90E076E59EC28F071881200C00E056E93
:10305800580E066E070E086ED00E076E0A6A096AC9
:10306800D00C050E796EFFC005F0090C580E056EE0
:103078002F0E066E1200FDEC27F0ABEC2BF06FEC78
:1030880029F069EC2BF05DEC2CF0E1EC2BF037EC3F
:103098002AF01DEC2CF00DEC2AF0A8EC1FF0066AC3
:1030A800056AF3EC2BF0766E066A010E056EF3ECFA
:1030B8002BF07A6E7A0403E10001B86B01D068D86E
:1030C800066A020E056EF3EC2BF0756E32EC15F005
:1030D800F3EC2BF0746EB5EC1EF04CEC2BF068ECB6
:1030E80027F05AEC2CF015EC2CF0A3EC0DF00DECBD
:1030F80021F0120E056E000E066E086A280E076E85
:103108003ED837EC22F04A0E056E4A0E3CD837D826
:1031180037EC22F0066A040E056EF3EC2BF0000182
:10312800B76F066A050E056EF3EC2BF00001B66F5B
:10313800066A060E056EF3EC2BF00001B56F066A01
:10314800070E056EF3EC2BF00001B46F066A080E4B
:10315800056EF3EC2BF0736E066A090E056EF3EC40
:103168002BF00001FF6F066A0A0E056EF3EC2BF0D8
:103178000001B36F066A030E056E0DEF2CF00A6AA4
:10318800140E096E140C066E086A640E076E640C41
:10319800010E0001B86F010C45D08AD87FEC22F0EF
:1031A800F20E056E280E08EC15F037EC22F02AEC2A
:1031B80018F037EC22F073D8FCEC2BF03DD078D81F
:1031C8007FEC22F0E7EC19F07FEC22F003EC17F02B
:1031D80008EC15F037EC22F062D8FCEC2BF07A04FE
:1031E80003E10001B86B28D0CCEC18F025D07A2A7E
:1031F800020E7A6402D0010E7A6E2AEC18F037ECCF
:1032080022F051D8F9EC2AF017D07A067A5002E168
:10321800020E7A6E2AEC18F037EC22F044D8F9EC5A
:103228002AF00AD07950010AB8E0030AE0E0010A5E
:10323800ECE0070AC4E0010A71A82BD0A30EF66ED1
:10324800BF0EF76E32EC0CF0000EC1EC23F0A40EAA
:10325800F66EBF0EF76E32EC0CF0060EC1EC23F0E2
:10326800A50EF66EBF0EF76E32EC0CF00C0EC1EC2C
:1032780023F00A0E096E7A50C2EC2AF088EC13F09B
:10328800120EC1EC23F0116AD6EC10F0180EC1EC46
:1032980023F0B90E076E59EC28F071881200050E5C
:1032A800796E7198050C050E796E7AC005F0010CDF
:1032B800A00E056E310E066E12007DD00001F15190
:1032C800F211F311F41132E0F1C02CF0F2C02DF03C
:1032D8002CC01CF02DC01DF006EC20F08EEC25F063
:1032E800200E2E6E2E50F8EC27F02E2A300E2E646B
:1032F800F9D72CC00CF02DC00DF01FEC09F01CEC18
:1033080028F00C5088EC13F0200EC1EC23F0330E9B
:103318002B6EBB0E2A6EE00EE82EFED72A2EFCD7A7
:103328002B2EFAD7080E73EC26F01DD0FCEC2BF0F0
:10333800040E23EC09F0030E84EC23F0450E116E05
:103348001AEC09F00B0EA5EC21F0520E116E1AECD6
:1033580009F0110EA5EC21F0520E116E1AEC09F0CD
:10336800170EA5EC21F0DDEC0EF0CFEC15F037EFE1
:1033780022F0050E796E0001B3510CE0EEEC25F059
:1033880022D87FEC22F024D87FEC22F06C0E056E58
:103398002A0E0DD0EEEC25F0DFEC11F014D87FECFE
:1033A80022F016D87FEC22F0980E056E180E08EC65
:1033B80015F037EF22F07950040ADBE0010A01E149
:1033C8007DD7030A1200C00E056E580E066E120055
:1033D800C20E056E320E066E120033D084D87FEC12
:1033E80022F0580E056E2F0E08EC15F037EC22F07F
:1033F8002AEC18F037EC22F053EC19F0FCEC2BF027
:103408002AD071D87FEC22F003EC17F008EC15F005
:1034180037EC22F0E7EC19F07FEC22F0EDD758D822
:103428002AEC18F037EC22F059D8F9EC2AF013D02E
:103438004FD82AEC18F037EC22F050D8F9EC2AF0E3
:103448000AD07950010ACAE0030AE9E0010AF0E06B
:10345800070AD7E0010A71A835D0920EF66EBF0EA2
:10346800F76E32EC0CF0000EC1EC23F0930EF66E02
:10347800BF0EF76E32EC0CF0060EC1EC23F0940E82
:10348800F66EBF0EF76E32EC0CF00C0EC1EC23F0AA
:10349800950EF66EBF0EF76E32EC0CF0120EC1EC04
:1034A80023F0735008E02B0E116ED6EC10F0180EB6
:1034B800C1EC23F007D02D0E116ED6EC10F0180ECB
:1034C800C1EC23F0B90E076E59EC28F07188120090
:1034D8007350010ED8A4000E736E1200050E796E9B
:1034E80073C005F0080CE20E056E330E066E12006E
:1034F80041D084D87FEC22F0BC0E056E150E08EC86
:1035080015F037EC22F02AEC18F037EC22F053ECE7
:1035180019F03AD073D87FEC22F0E7EC19F07FEC81
:1035280022F003EC17F008EC15F037EC22F053EC1E
:1035380019F0FCEC2BF028D00001862B630E866571
:1035480001D0866B2AEC18F037EC22F059EC14F015
:1035580077EC28F019D000018607862902E1630E6E
:10356800866F2AEC18F037EC22F059EC14F077EC5F
:1035780028F00AD07950010ABCE0030ADDE0010A0C
:10358800EAE0070AC7E0010A71A832D09B0EF66E7E
:10359800BF0EF76E32EC0CF0000EC1EC23F09C0E5F
:1035A800F66EBF0EF76E32EC0CF0060EC1EC23F08F
:1035B8009D0EF66EBF0EF76E32EC0CF00C0EC1ECE1
:1035C80023F0A1EC12F0865155EC29F0C2EC2AF058
:1035D80088EC13F0120EC1EC23F00A0E096E0001FC
:1035E8008651C2EC2AF088EC13F0180EC1EC23F0D7
:1035F800B90E076E59EC28F071881200F80E056EA6
:10360800340E066E120033D083D87FEC22F0E20E1F
:10361800056E330E08EC15F037EC22F02AEC18F0A2
:1036280037EC22F053EC19F0FCEC2BF02AD070D8D0
:103638007FEC22F003EC17F008EC15F037EC22F0E1
:10364800E7EC19F07FEC22F0EDD756D82AEC18F009
:1036580037EC22F058D8F9EC2AF013D04DD82AECE0
:1036680018F037EC22F04FD8F9EC2AF00AD079504C
:10367800010ACAE0030AE9E0010AF0E0070AD7E014
:10368800010A71A833D0B70EF66EBF0EF76E32EC92
:103698000CF0000EC1EC23F0B80EF66EBF0EF76EFC
:1036A80032EC0CF0060EC1EC23F0B90EF66EBF0E2C
:1036B800F76E32EC0CF00C0EC1EC23F00001B451A3
:1036C80008E02B0E116ED6EC10F0120EC1EC23F0B0
:1036D80007D02D0E116ED6EC10F0120EC1EC23F0AF
:1036E800116AD6EC10F0180EC1EC23F0B90E076E73
:1036F80059EC28F0718812000001B451010ED8A4C9
:10370800000EB46F1200050E796EB4C005F0070CF8
:103718000E0E056E360E066E120033D083D87FEC7F
:1037280022F00E0E056E360E08EC15F037EC22F07E
:103738002AEC18F037EC22F053EC19F0FCEC2BF0E3
:103748002AD070D87FEC22F003EC17F008EC15F0C3
:1037580037EC22F0E7EC19F07FEC22F0EDD756D8E1
:103768002AEC18F037EC22F058D8F9EC2AF013D0EC
:103778004DD82AEC18F037EC22F04FD8F9EC2AF0A3
:103788000AD07950010ACAE0030AE9E0010AF0E028
:10379800070AD7E0010A71A833D0BF0EF66EBF0E34
:1037A800F76E32EC0CF0000EC1EC23F0C00EF66E92
:1037B800BF0EF76E32EC0CF0060EC1EC23F0C10E12
:1037C800F66EBF0EF76E32EC0CF00C0EC1EC23F067
:1037D8000001B55108E02B0E116ED6EC10F0120E58
:1037E800C1EC23F007D02D0E116ED6EC10F0120E9E
:1037F800C1EC23F0116AD6EC10F0180EC1EC23F0DE
:10380800B90E076E59EC28F0718812000001B55105
:10381800010ED8A4000EB56F1200050E796EB5C062
:1038280005F0060C220E056E370E066E120033D018
:1038380083D87FEC22F0220E056E370E08EC15F0C7
:1038480037EC22F02AEC18F037EC22F053EC19F0A0
:10385800FCEC2BF02AD070D87FEC22F003EC17F0A8
:1038680008EC15F037EC22F0E7EC19F07FEC22F0C9
:10387800EDD756D82AEC18F037EC22F058D8F9ECE6
:103888002AF013D04DD82AEC18F037EC22F04FD894
:10389800F9EC2AF00AD07950010ACAE0030AE9E0F3
:1038A800010AF0E0070AD7E0010A71A833D0BB0E7D
:1038B800F66EBF0EF76E32EC0CF0000EC1EC23F082
:1038C800BC0EF66EBF0EF76E32EC0CF0060EC1ECB5
:1038D80023F0BD0EF66EBF0EF76E32EC0CF00C0E38
:1038E800C1EC23F00001B65108E02B0E116ED6ECA6
:1038F80010F0120EC1EC23F007D02D0E116ED6EC8D
:1039080010F0120EC1EC23F0116AD6EC10F0180E6C
:10391800C1EC23F0B90E076E59EC28F0718812003B
:103928000001B651010ED8A4000EB66F1200050EA4
:10393800796EB6C005F0050C360E056E380E066EAB
:10394800120042D081D87FEC22F0A00E056E310E15
:1039580008EC15F037EC22F02AEC18F037EC22F0DE
:1039680053EC19F0FCEC2BF039D06ED87FEC22F038
:10397800E7EC19F07FEC22F003EC17F008EC15F0F7
:1039880037EC22F0EDD7762A050E766402D0010EC8
:10399800766E2AEC18F037EC22F0050E796E51D8C5
:1039A800F9EC2AF068EC27F019D07606765002E197
:1039B800050E766E2AEC18F037EC22F0050E796EBB
:1039C80040D8F9EC2AF0EED77950010ABBE0030A97
:1039D800DAE0010AEAE0070AC8E0010A71A82BD078
:1039E800A70EF66EBF0EF76E32EC0CF0000EC1ECAF
:1039F80023F0A80EF66EBF0EF76E32EC0CF0060E32
:103A0800C1EC23F0A90EF66EBF0EF76E32EC0CF087
:103A18000C0EC1EC23F00A0E096E7650C2EC2AF0A7
:103A280088EC13F0120EC1EC23F0116AD6EC10F0FA
:103A3800180EC1EC23F0B90E076E59EC28F0718806
:103A4800120076C005F0000C4A0E056E390E066E9F
:103A580012003DD07FD87FEC22F0360E056E380E6E
:103A680008EC15F037EC22F02AEC18F037EC22F0CD
:103A780053EC19F0FCEC2BF034D06CD87FEC22F02E
:103A880003EC17F008EC15F037EC22F0E7EC19F02E
:103A98007FEC22F0EDD70001B72B010EB76501D0FE
:103AA800B76B2AEC18F037EC22F04FD8F9EC2AF073
:103AB80018D00001B707B72902E1010EB76F2AEC49
:103AC80018F037EC22F041D8F9EC2AF00AD07950F6
:103AD800010AC0E0030ADFE0010AEBE0070ACDE0D3
:103AE800010A71A82CD0970EF66EBF0EF76E32EC55
:103AF8000CF0000EC1EC23F0980EF66EBF0EF76EB8
:103B080032EC0CF0060EC1EC23F0990EF66EBF0EE7
:103B1800F76E32EC0CF00C0EC1EC23F00A0E096EB5
:103B28000001B751C2EC2AF088EC13F0120EC1EC78
:103B380023F0116AD6EC10F0180EC1EC23F0B90E80
:103B4800076E59EC28F071881200050E796EB7C01F
:103B580005F0040C5A0E056E3A0E066E12000001AE
:103B6800B25118E0B26B0101F46B11D0F4515CD87A
:103B7800DE50DE1006E1F45167D8010EDE6EDD6A14
:103B880005D0F45151D8DE06000EDD5AF42B7250E0
:103B9800F45DECE30101F56B43D0F55155D8DE0433
:103BA800DE103CE1F55148D8DECFF2F1DDCFF3F17C
:103BB800F55152D8DE50DE1009E1F5513DD8DECF7F
:103BC80005F0DDCF06F07FEC22F01BD0F5513CD894
:103BD800DE6ADD6AF55128D8DE50DE1012E16D6824
:103BE8006E68F55139D8DECF6FF0DDCF70F06D50CB
:103BF8006F266E507022F55117D86FC0DEFF70C067
:103C0800DDFF01D80BD005000101FA6EF251FD6EFF
:103C1800F351FE6EF850FF6EFA5012000101F52BB9
:103C28007250F55DBAE31200080D020EF324D96E46
:103C3800010EF420DA6E1200080D000EF324D96E7E
:103C4800010EF420DA6E1200080D060EF324D96E68
:103C5800010EF420DA6E1200080D040EF324D96E5A
:103C6800010EF420DA6E120040D07ED87FEC22F0EC
:103C780024EC15F008EC15F037EC22F02AEC18F0DB
:103C880037EC22F053EC19F0FCEC2BF038D06CD860
:103C98007FEC22F0E7EC19F07FEC22F003EC17F050
:103CA80008EC15F037EC22F0EDD7742A080E74648E
:103CB80001D0746A2AEC18F037EC22F04DD8F9ECF0
:103CC8002AF04FD84CEC2BF01AD07406742802E175
:103CD800080E746E2AEC18F037EC22F03DD8F9EC97
:103CE8002AF03FD84CEC2BF00AD07950010ABDE0FD
:103CF800030ADBE0010AE9E0070AC9E0010A71A842
:103D080025D019EC15F032EC0CF0000EC1EC23F0C4
:103D180014EC15F032EC0CF0060EC1EC23F00FECAD
:103D280015F032EC0CF00C0EC1EC23F00A0E096E03
:103D38007450C2EC2AF088EC13F0120EC1EC23F098
:103D4800116AD6EC10F0180EC1EC23F0B90E076E0C
:103D580059EC28F071881200050E796E74C005F0D0
:103D6800030C74C007F00A0C700E056E3C0E066E4C
:103D78001200EF0EF66EB80EF76E20EE11F00F0E71
:103D880071EC24F0FDE20C50D96EDA6A2B0EDF6E6E
:103D980066D03BEC28F00009D8A41200CC0EB0EC99
:103DA80028F0440EB0EC28F00E50D96EDA6ADF6ABB
:103DB8000D50D96EDA6A020EDF6ECD80020C3BEC34
:103DC80028F0CC0EB0EC28F0BE0EB0EC28F0226A39
:103DD800880E2224D96EDA6A010EDA22CCEC28F099
:103DE800DF6E222A010E2264F3D7010189510F6E7A
:103DF8008851236E0FC024F024AE09D0236C241EF2
:103E0800D8B0242A0C50D96EDA6A2D0EDF6E2350F2
:103E18000F0B216E2150110FD96EDA6ADF50216E17
:103E2800233A243A0F0E23162450F00B23120F0EB8
:103E3800241623500A0DF3CF23F0F4CF24F0215099
:103E48002326000E24220B50D96EDA6A23C0DEFF27
:103E580024C0DDFF0D50D96EDA6ADF6A000C0D5000
:103E6800D96EDA6ADF5095E0010AA9E0030A120068
:103E78001C6E216A226A236A246A256A61D852EC78
:103E88002CF0EC0E44EC2CF01C5044EC2CF056ECCE
:103E98002CF0ED0E44EC2CF0010E0BEC2BF01D6E0B
:103EA8001E6A1F6A206A010E0BEC2BF0216E226A33
:103EB800236A246A000E0BEC2BF0256E41D84EECD9
:103EC8002CF021C00DF022C00EF023C00FF00C6AB8
:103ED8001DC010F01EC011F01FC012F020C013F05A
:103EE80011C013F010C012F0116A106A0C5010249F
:103EF800146E0D501120156E0E501220166E0F50B4
:103F08001320176E25501424186E26501520196E8C
:103F1800275016201A6E285017201B6E050E05D044
:103F2800D8901B321A3219321832E82EF9D718C035
:103F380008F019C009F01AC00AF01BC00BF01200F3
:103F4800266A276A286A1200880E1CEC27F008C027
:103F580087F009C088F08A0E1CEC27F008C0A3F18E
:103F680009C0A4F18C0E1CEC27F008C0A1F109C00F
:103F7800A2F18E0E1CEC27F008C0E0F109C0E1F1B7
:103F8800900E1CEC27F008C09FF109C0A0F1920E1A
:103F98001CEC27F008C09DF109C09EF1940E1CECA2
:103FA80027F008C09BF109C09CF1960E1CEC27F085
:103FB80008C099F109C09AF1980E1CEC27F008C0C6
:103FC80097F109C098F19A0E1CEC27F008C095F1FA
:103FD80009C096F19C0E1CEC27F008C093F109C0AB
:103FE80094F19E0E1CEC27F008C091F109C092F1E3
:103FF800CC0E076EF50E5BEC2BF0B70E076EF40EC9
:104008005BEF2BF01E6A960E1E24BAEC25F0DF6AD1
:104018001E2A200E1E64F7D7040E0C6E960E0D6E27
:10402800020E0E6E030E84EC23F0D6EC15F040D889
:10403800B4EC27F092EC03F01CEC28F00C50116E55
:104048002ED80B0EC1EC23F0086A640E31D8B4ECFC
:1040580027F092EC03F01CEC28F00C50116E1FD8DE
:10406800110EC1EC23F0086A0A0E22D8B4EC27F02E
:1040780092EC03F01CEC28F00C50116E10D8170EBF
:10408800C1EC23F02E0E116E1B0E126EB90E136EBC
:10409800960E146E020E156E1D0EC1EF23F077C03A
:1040A80012F078C013F0960E146E020E156E120000
:1040B800076E1CC005F01DC006F012001D6E1950D9
:1040C8000E08056E000ED8A0E82A0008066E086AD9
:1040D8000C0E076E76EC24F005501F6E1F501A5C0C
:1040E800206E1F500C0DF3501924FE0F1E6E010E8A
:1040F800086E900E076E20C005F0066A76EC24F074
:1041080020501DC01BF01C6A1B26000E1C222040DC
:10411800E8423F0B1B26000E1C2221D8086A0C0E11
:10412800076E1E501F0DF3CF05F0F4CF06F076ECA6
:1041380024F015D8640E056E205055EC29F01B5E4E
:10414800000E1C5A580E1B24136E1B0E1C20146ED6
:10415800166A070E156E5AEC25F01350120005501A
:104168001B2606501C2212000A0EF66E580EF76E19
:10417800000EF86E01EEE2F010EE10F00900F5CF37
:10418800EEFFE550E150FAE1C60EF66E580EF76EF6
:10419800000EF86E00EEFBF010EE05F00900F5CF0A
:1041A800EEFFE550E150FAE1CB0EF66E580EF76ED1
:1041B800000EF86E00EE77F010EE04F00900F5CF6F
:1041C800EEFFE550E150FAE103EE00F0FA0EEE6A78
:1041D800E806FDE102EE00F0B60EEE6AE806FDE143
:1041E80001EE00F0E20EEE6AE806FDE100EE80F076
:1041F8007B0EEE6AE806FDE1716A766A756A746A92
:10420800736A726A7B907B92000EF86E000148EF29
:1042180026F00F6E8B848B920EC095F0500E0C6EAC
:10422800BF0E0D6E3DEC2BF04B0E0C6EBF0E0D6EDF
:10423800EAEC2BF00FC007F0050EB6EC2BF0076A7E
:10424800110EB6EC2BF00EC007F0120EB6EC2BF0E8
:10425800076A130EB6EC2BF0076A140EB6EC2BF0B7
:10426800076A150EB6EC2BF0076A160EB6EC2BF0A3
:10427800260E076E060EB6EC2BF0080E076E000E23
:10428800B6EC2BF0030E076E010EB6EC2BF0030E06
:10429800076E020EB6EC2BF04F0E076E040EB6EC4E
:1042A8002BF0076A1C0EB6EC2BF03BEF29F0136ECF
:1042B800156A166A1350B90F1624D96EDA6A1550A2
:1042C80007080E6E0D50030D150E0F6EBF0E106E03
:1042D800F3500F26F450102216500F26000E10220D
:1042E8000FC0F6FF10C0F7FF0800F5CF11F00E2A37
:1042F80002D0D89011320E2EFCD71350B90F1624C5
:10430800E16EE26AE750126ED89012341110DF6E37
:10431800162A020E1664CED7146A0D0E0E6EFC0E07
:10432800E82EFED70E2EFCD7142A220E1464F5D7D9
:10433800B90E076E59EC28F0152A070E1564B9D77F
:10434800070C196E1B6A1C6A1950B90F1C24D96E08
:10435800DA6A1B500708146E1150050D12C015F0CB
:1043680013C016F0F3501526F45016221C501526CB
:10437800000E162215C0F6FF16C0F7FF0800F5CF8D
:1043880017F0142A02D0D8901732142EFCD71950DF
:10439800B90F1C24E16EE26AE750186ED890183401
:1043A8001710DF6E1C2A040E1C64CED71A6A0D0E75
:1043B800146EFC0EE82EFED7142EFCD71A2A220EF5
:1043C8001A64F5D7B90E076E59EC28F01B2A070EA8
:1043D8001B64B9D7070C0B6A84909690140E096E6B
:1043E8007A0EE82EFED7092EFCD79680640EE82EAA
:1043F800FED784B0010CA00E00D0E82EFDD784A013
:10440800020CA00E00D0E82EFDD70C6A87EC2AF02B
:1044180007C0D9FF08C0DAFFDF6E074A082A0C2A4E
:10442800040E0C64F3D70C6A0C500724096E000EB6
:1044380008200A6EFB0E0924D96EFF0E0A20DA6ED8
:10444800DF500B260C2A030E0C64EED72FEEFFF07C
:104458000750D9260850DA220B50DE1802E0718086
:10446800030C7190000C0550061001E112000D6A52
:104478001AD00D5020EC1EF00550DE1813E106503E
:10448800DE1810E1F29E0D5018EC1EF02AD80D50DF
:1044980030EC1EF02BD80D5028EC1EF0DE6ADD6AD9
:1044A800F28E000C0D2A72500D5CE3E30F0E726061
:1044B8000F0CF29E725020EC1EF005C0DEFF06C005
:1044C800DDFF725018EC1EF00CD8725030EC1EF064
:1044D8000DD8725028EC1EF0DE6ADD6A722AF28E60
:1044E800000C07C0DEFF08C0DDFF120009C0DEFFB8
:1044F8000AC0DDFF12000D6A3FD00D5020EC1EF0FF
:104508000550DE1838E10650DE1835E1F29E0D50F0
:10451800076E086A09680A6872500B6E0C6A0950BF
:104528000B260A500C2207500B1803E108500C18F0
:104538001FE07250076E086AD89007360836D89080
:1045480007360836D89007360836F80E0724D96E8D
:10455800000E0820DA6E0D50080D000EF324E16EEF
:10456800010EF420E26E070EDBCFE3FFE806FCE263
:104578007206F28E12000D2A72500D5CBEE3120014
:104588000D50D96EDA6A060EF7EC29F0DF6E0D5081
:10459800D96EDA6A0D5022D8CCEC2BF023D8050E50
:1045A800F7EC29F01F0B1ED80C5018D8CCEC2BF0C8
:1045B8001ED8040EF7EC29F03F0B19D80B500ED873
:1045C800CCEC2BF019D8030EF7EC29F0070B14D814
:1045D8000A5004D8CCEC2BF0DF6E1200E16EE26AD0
:1045E800E7501200DF6E0C50D96EDA6A1200DF6EE7
:1045F8000B50D96EDA6A1200DF6E0A50D96EDA6A89
:1046080012000600D9CF03F0DACF04F0F2BAF2A410
:1046180003D035EC2CF030D0F2B8F2A211D0F292DF
:10462800010EF1AC000EFF0A026E023A0246024683
:10463800F1500218BF0B0218F16EEDEC24F01CD0FB
:104648009DB09EA008D09E903C0ECF6EB00ECE6E50
:10465800D7EC2BF011D0A0B2A1A208D0A192F00EF5
:10466800B36E600EB26E46EC23F006D0F2BC9DAA83
:1046780003D09EBA04EC29F004C0DAFF03C0D9FFC6
:104688007B92110000019E510AE0982B1E0E986142
:1046980003D0800E8C1A03D0986B9E6B8C9EB751FA
:1046A800D8B41200A551D8B41200FE6B96510BE194
:1046B800972B140E976103D0800E8C1A04D0976B39
:1046C800010E966F8C9E960502E1894B8A2B2D0E62
:1046D800895D010E8A5904E3896B8A6B020E966F15
:1046E800020E9619D8A41200972B140E976103D0C6
:1046F800800E8C1A800C976B966BA56B8C9E1200A3
:10470800126E010E116E146A136A0C50080DAF0E6A
:104718000F6EB80E106EF3500F26F450102214507E
:104728000F26000E10220FC0F6FF10C0F7FF08007A
:10473800F55011140BE013C005F00DC006F00EC0C3
:1047480007F0125014249BEC2AF00AD013C005F08D
:104758000DC006F00EC007F012501424E1EC29F049
:10476800D8901136132A070E1364CFD7010E116E95
:10477800142A060E1464C8D7060C196E010E186E9A
:104788001B6A1A6A1150050D12C016F013C017F0F3
:10479800F3501626F45017221B501626000E172227
:1047A80016C0F6FF17C0F7FF0800F55018140BE005
:1047B8001AC005F014C006F015C007F019501B24E4
:1047C8009BEC2AF00AD01AC005F014C006F015C0F8
:1047D80007F019501B24E1EC29F0D89018361A2A52
:1047E800070E1A64CFD7010E186E1B2A040E1B641D
:1047F800C8D7040C096A0950BA0FD96EDA6A095089
:10480800B4EC25F0092A1E0E0964F5D7040E000140
:10481800A8650DD023D807E1A82B1F0EA865010CA9
:10482800A96BA86B000CD86BA86BA92B010C16D828
:10483800050D1B0E076EB90E086EF3500726F450CF
:104848000822A8510726000E082207C0F6FF08C054
:10485800F7FF0800F5CFD8F0A82B010CA9510524C3
:10486800D96E000E0620DA6EDF501200156A130E9C
:10487800F66EB90EF76E20EE0CF0070E2ED8FEE29B
:10488800176A166A15500C0F1724D96EDA6ADF50AA
:104898000B6E1650B90FD96EDA6A0B50DF16152A4F
:1048A800070E156401D0156A162A1F0E1664EAD77A
:1048B800B90E076E59EC28F0146A0D0E0B6EFC0E3B
:1048C800E82EFED70B2EFCD7142A630E1464F5D7F6
:1048D800172A070E1764D5D7070C0900F5CFDEFF96
:1048E800E80612000A6A08AE06D0076C081ED8B09F
:1048F800082A010E0A6E06AE06D0056C061ED8B050
:10490800062A010E0A1A0B6A0C6A075008101BE0E7
:10491800010E096E04D0D89007360836092A08AE69
:10492800FAD7D8900B360C360750055C0850065855
:1049380005E30750055E0850065A0B80D8900832E8
:104948000732092EEED70A5004E00B6C0C1ED8B0C3
:104958000C2A0BC005F00CC006F01200196A1A6A7E
:104968001B6A1C6A155016101710181029E0010E42
:104978001D6E06D0D89015361636173618361D2AED
:1049880018AEF8D7D89019361A361B361C3615507B
:10499800115C16501258175013581850145809E340
:1049A8001550115E1650125A1750135A1850145AAF
:1049B8001980D89018321732163215321D2EE2D7C8
:1049C80019C011F01AC012F01BC013F01CC014F06B
:1049D80012000001B851D8B41200A32B080EA31975
:1049E8001BE1A36B19D0360EC86FC96F360C240EA5
:1049F80024D0240EC86FC96F240C240EC86FC96B4D
:104A08001200C86BC96B1200120EF8D7120EC86FCD
:104A1800C96F120C120E11D0A351E5E0010AE7E0AC
:104A2800030AE7E0010AE9E0070AEBE0010AECE023
:104A3800030AECE0010AEEE01200C86F360EC96FF7
:104A4800360CEAC0A2F0A6EC12F0BFEC25F0ED0E91
:104A58000A6EEE0E0B6EEF0E0C6EF00E0D6EC4ECC1
:104A680022F00001A251EA1901E07184030EEA194B
:104A780002E1010EFE6F735005E0B7EC12F0FBEC9B
:104A880010F001D0F76B060E0001EC65060C180E4D
:104A9800EC61180CEB51D8A41200EA51D8A412000A
:104AA800FE51D8B41200010EA56F010C186A14AE9D
:104AB80006D0136C141ED8B0142A010E186E16AE48
:104AC80004D0156C161ED8B0162A1550161017E00B
:104AD800010E176E04D0D89015361636172A16AE62
:104AE800FAD71550135C1650145804E31550135E8A
:104AF8001650145AD89016321532172EF2D718506D
:104B080004E0136C141ED8B0142A13C013F014C098
:104B180014F01200100E0E6E0F0E0F6E0C6A960E29
:104B28000E2424D80E501CD80E2A960E0F241ED8F8
:104B38000F5016D80F06B90E076E59EC28F00D6AFB
:104B48000D0E0B6EFC0EE82EFED70B2EFCD70D2A91
:104B58001D0E0D64F5D70C2A0F0E0C64E0D70F0C50
:104B6800B90FE16EE26ADFCFE7FF1200D96EDA6AA9
:104B7800020EDA2212000C50C8EC29F0F7EC29F0EA
:104B8800DF6E0C50D96EDA6A0C50F2EC22F0CCECE5
:104B98002BF016D8010EF7EC29F012D80B50F2ECD6
:104BA80022F0CCEC2BF011D8020EF7EC29F03F0BD9
:104BB8000CD80A50F2EC22F0CCEC2BF0DF6E12008D
:104BC800DF6E0B50D96EDA6A1200DF6E0A50D96EAA
:104BD800DA6A12000ED0F4EC26F011C013F012C0FD
:104BE80014F0166A050E156E5AEC25F013500001E4
:104BF800A76F0001A751A619EEE0A7C0A6F0A7511C
:104C0800020D090EF324F66EB90EF420F76E0900B2
:104C1800F5CF93F00A00F5CF94F00500FA6E9351A2
:104C2800FD6E9451FE6EF850FF6EFA5012000E6A37
:104C380026D8DF501FE00C6A22D80E50B90FE16E5B
:104C4800E26AE7500B6ED8900B34DF6EB90E076E30
:104C580059EC28F00D6A0D0E0B6EFC0EE82EFED7EF
:104C68000B2EFCD70D2A040E0D64F5D70C2A070E5F
:104C78000C64E2D70E2A1F0E0E64DAD71F0C0E50F2
:104C8800B90FD96EDA6A1200820E0101F66FDD0ED5
:104C9800E82EFED7F62FFCD700D03FEC18F0FCEC3E
:104CA8002BF00001B86B94EC28F0010EB86FF29E5F
:104CB80003EC17F0C7EC18F0C3EC18F037EC22F04F
:104CC800840E056E4E0E066E086A076A0A6A010EA1
:104CD800096E37EC22F0F28EB3EC1DF0FDD70C6EA6
:104CE8000E6A24D00F6A0F50BA0FD96EDA6A0F50C5
:104CF800B4EC25F00F2A1E0E0F64F5D70E50D90F0D
:104D0800D96EDA6ADF500001D86FB90E076E59EC18
:104D180028F00D6A0D0E0B6EFC0EE82EFED70B2E3A
:104D2800FCD70D2A310E0D64F5D70E2A0E500C5CF7
:104D3800D9E21200640E0E6E0D6A0F6A0F50BA0F98
:104D4800D96EDA6A0F50B4EC25F00F2A1F0E0F64E3
:104D5800F5D70001D86BB90E076E59EC28F00C6A2C
:104D680008D00D0E0B6EFC0EE82EFED70B2EFCD7CE
:104D78000C2A0E500C5CF5E30A0E0E6401D00E5E90
:104D88000D2A1F0E0D64D9D71F0C640E0E6E0D6A06
:104D98001F0E0F6E0F50B80FD96EDA6A0F50B4ECB1
:104DA80025F00F060F50F6E10001B96BB90E076E3A
:104DB80059EC28F00C6A08D00D0E0B6EFC0EE82E8C
:104DC800FED70B2EFCD70C2A0E500C5CF5E30A0E0E
:104DD8000E6401D00E5E0D2A1F0E0D64D9D71F0C6C
:104DE800EEC105F0EFC106F0F0C107F0F1C108F01F
:104DF8006D0E096E4E0E0A6EC60E0B6E410E0C6ECF
:104E08008EEC27F005C0EEF106C0EFF107C0F0F117
:104E180008C0F1F1390E0101EE27300EEF23000E24
:104E2800F023F123F051116E7F0EF115126E12006E
:104E38000C6E0F6A106A52EC2CF0EC0E44EC2CF05D
:104E48000C5044EC2CF056EC2CF0ED0E44EC2CF00D
:104E5800010E0BEC2BF00F6E106A000E0BEC2BF012
:104E68000D6E0E6A4EEC2CF00D500B6E0A6A0F5048
:104E78000A10086E10500B10096E120081B202D091
:104E8800010E0BD081B402D0020E07D081B602D039
:104E9800030E03D081B803D0040E056E01D0056A55
:104EA80005500FE0290E00019D61290C9D2B280E4D
:104EB8009D19D8A4120005C079F09D6B010E9E6F54
:104EC800010C00019D6B120019D0E30E776EBE0E27
:104ED800786E1200B10E776EBE0E786E12007F0EDD
:104EE800776EBE0E786E12004D0E776EBE0E786E1F
:104EF80012001B0E776EBE0E786E12007650010AF5
:104F0800E4E0030AE7E0010AEAE0070AEDE0010A43
:104F1800F0E012000D6A0E6A0F6A106A05A008D048
:104F280009500D260A500E220B500F220C50102249
:104F3800D89009360A360B360C36D8900832073224
:104F4800063205320550061007100810E7E10DC0BB
:104F580005F00EC006F00FC007F010C008F01200F0
:104F68000A6A0B6A075008101BE0010E096E04D08C
:104F7800D89007360836092A08AEFAD7D8900A36E4
:104F88000B360750055C0850065805E30750055EC8
:104F98000850065A0A80D89008320732092EEED7F0
:104FA8000AC005F00BC006F012000C6A1F0E0D6E49
:104FB8000E6A0C5019D80C2A0D5016D80D06B90EC9
:104FC800076E59EC28F00F6A0D0E0B6EFC0EE82EDA
:104FD800FED70B2EFCD70F2A1D0E0F64F5D70E2A0D
:104FE8000F0E0E64E6D70F0CB90FD96EDA6ADF6AB6
:104FF80012008B6A180E946E8A6A1F0E936EF19EC9
:105008008C6A956A896A010E926EC30EC216C150E7
:10501800F00B0E09C16ECF0EC116C050F80B020975
:10502800C06EC08EC280F18CF292F288828012002B
:105038000E500F1017E0010E106E04D0D8900E36E7
:105048000F36102A0FAEFAD70E500C5C0F500D58C1
:1050580004E30E500C5E0F500D5AD8900F320E32EA
:10506800102EF2D70CC00CF00DC00DF0120082907B
:105078009490070E056E7D0EE82EFED7052EFCD700
:1050880000F082809480C80E00D0E82EFDD7000E74
:1050980082B0010E066E060E056E800EE82EFED753
:1050A800052EFCD700D0065012000A6A8C90096AB7
:1050B8000950F80D0750F3240A24D96EDA6A180E3D
:1050C800D926DF50086E0A281DEC2BF008501DEC7D
:1050D8002BF0092A030E0964EBD78C800A2A070EE5
:1050E8000A64E4D7070C156E1550AFEC2AF0106E61
:1050F800030E77EC2BF01250AFEC2AF0106E040E72
:1051080077EC2BF01350AFEC2AF0106E050E77EC0D
:105118002BF01450AFEC2AF0106E060E77EF2BF040
:10512800A50E116E010E126E780E136EBF0E146E60
:10513800550E156EBF0E166E360E176EBF0E186E14
:10514800420E196EBF0E1A6E18EC17F0A50E0B6EF4
:10515800010E0C6EE8EF28F0086E0A6A0AC006F025
:1051680008C007F0062A02D0D8900732062EFCD7CE
:105178000750096E010E09160950E7EC2AF00A2AB1
:10518800070E0A64EBD7D20E00D0E82EFDD7120026
:10519800076A086A85EC2BF000090CE008C005F0E6
:1051A800010E066E052A02D0D8900636052EFCD7C9
:1051B80006500712F00E00D0E82EFDD7082A070E79
:1051C8000864E8D707501200F29E10D0B90E076E97
:1051D80059EC28F00E6A0D0E0D6EFC0EE82EFED767
:1051E8000D2EFCD70E2A450E0E64F5D70BC005F020
:1051F8000CC006F0FEEC23F00009E8E1F28E120084
:10520800ABA202D0AB98AB88000E00019A250FD84C
:10521800AECFDFFF9A2B950E9A6501D09A6BA42B1F
:10522800A405016E950E0164950CA46B1200D96E4D
:10523800DA6A030EDA221200056E00019B51FDE0C6
:105248009DB805D09EA8FED705C0ADFF12009D9859
:10525800780E9C25D96EDA6A010EDA2205C0DFFFC6
:105268009C2B0F0E9C6501D09C6B9B0712008B94A6
:10527800E20E22EC2AF08B84700E076E070EB6EC55
:105288002BF08B920B0E076E000EB6EC2BF08B8278
:10529800C00E00D000D0E82EFCD700D000D000D03F
:1052A8001200066E086A055014E0010E076E03D05E
:1052B800D8900536072A05AEFBD7D8900836055092
:1052C800065C03E30550065E0880D8900532072E79
:1052D800F4D7085012008C80010E076E0C0E4CECAF
:1052E8002BF0076A090E4CEC2BF0070E076E0B0E1D
:1052F8004CEC2BF0020E076E0A0E4CEC2BF0076AF2
:105308000F0E4CEF2BF0146E1350AFEC2AF0106E0A
:10531800000E77EC2BF01250AFEC2AF0106E010E55
:1053280077EC2BF01450AFEC2AF03F0B106E020E06
:1053380077EF2BF00A6E8B940A5022EC2AF00B6A56
:105348000BD007C0F6FF08C0F7FF0800F55022ECA5
:105358002AF0074A082A0B2A09500B5CF2E38B84CF
:105368001200096E8B94095022EC2AF00A6A07D0C1
:1053780007500A2409D822EC2AF0DF6E0A2A0850BE
:105388000A5CF6E38B841200D96EDA6A000C00011D
:10539800FC5103E13A0EFB5D05E3030E076E0A0EAE
:1053A8004CEF2BF0FC5108E1330EFB5DD8B0120036
:1053B800076A0A0E4CEC2BF012000B6E05C008F0C1
:1053C800010E096E082A02D0D8900936082EFCD79B
:1053D800091C0A6E0B500624D96E000E0720DA6EDF
:1053E8000A50DF161200086E52EC2CF0D00E44EC76
:1053F8002CF0085044EC2CF056EC2CF0D10E44EC78
:105408002CF0000E0BEC2BF0096E4EEC2CF0095032
:105418001200948C948EAC98AC8AAB88AB8EAC841A
:10542800B886040EB06E100EAF6E00019C6B100EA5
:105438009B6F9A6B996BA46B9D8A1200056E066A26
:1054480005AE02D08C8801D08C98D89005368C8A0D
:10545800010E83A6000E05128C9A062A070E066412
:10546800EFD7055012003BEC28F00009D8A4120031
:10547800CC0EB0EC28F04E0EB0EC28F0000EB0ECDC
:1054880028F0000EB0EC28F07F0EB0EF28F005C031
:1054980007F006C008F002D0074A082A07C0D9FF5B
:1054A80008C0DAFFDF50F8E10550075C056E0650CA
:1054B8000858066E1200FA0E3CEC1FF008C02DF0DA
:1054C80009C02EF00AC02FF00BC030F02DC029F013
:1054D8002EC02AF02FC02BF030C02CF01200F70E8F
:1054E8003CEC1FF008C02DF009C02EF00AC02FF0C8
:1054F8000BC030F02DC029F02EC02AF02FC02BF0A1
:1055080030C02CF01200056A066AD89005369680DD
:1055180084A0FED7640EE82EFED784B0058084B040
:10552800FED7062A070E0664F0D7055012000A6E49
:1055380005C008F0010E096E082A02D0D890093675
:10554800082EFCD70A500624D96E000E0720DA6E02
:105558000950DF1212000F6E0A0E096E0F50C2ECCE
:105568002AF00D6E0F0E0D160A0E056E0F5055EC33
:1055780029F00E6E0E38F00B0D1012000A6E080E90
:105588000B6E0C6AD8900A340C340C6ED8900A361C
:1055980009500C5C02E309500C5E0B2EF3D70C503B
:1055A8001200A451FEE0000E99251BEC29F0DF50F3
:1055B800056E992B950E996501D0996B9D9AA40754
:1055C8009D8A05501200056E82909490050406E1AC
:1055D800060EE82EFED700D082809480D20E00D02E
:1055E800E82EFDD7828094801200066EA6B2FED700
:1055F80006C0A9FF05C0A8FFA69EA69CA684F29E89
:10560800550EA76EAA0EA76EA682F28EAA0C066E7B
:105618002DEC2CF0C5862DEC2CF0C9CF07F02DEC25
:105628002CF0065002E1C58A01D0C59AC5880750FA
:105638001200056E066A05AE02D08C8401D08C94E7
:105648008C8200F08C92D8900536062A070E0664E4
:10565800F2D7070CC282C2B2FED7C450066E056AE2
:10566800C3500524FB6F000E0620FC6F00F000F00D
:10567800120007D82A0E9EEC29F003D8300E9EEFB0
:1056880029F00CC007F00DC008F0050E096E050CD6
:10569800086E8C90096A08501DEC2BF007501DEC21
:1056A8002BF0092A030E0964F6D78C80030C086EC8
:1056B80052EC2CF0EC0E44EC2CF0085044EC2CF09E
:1056C800075044EC2CF04EEF2CF0CD903C0ECF6EF2
:1056D800B00ECE6E9D80B192B180A082F00EB36EF6
:1056E800600EB26E600C116E52EC2CF0D00E44ECD1
:1056F8002CF0115044EC2CF0105044EC2CF04EEFF0
:105708002CF082909490030EE82EFED700F0828051
:105718009480140EE82EFED782B0010C000C0BC04A
:1057280007F095C008F0610EB5EC29F0400E076E41
:10573800070EB6EF2BF0076E8B94075022EC2AF079
:10574800000E22EC2AF0086E8B8408501200180E06
:105758009412280EC66EC76A630EC86EC584C5A4A7
:105768001200FDD7086E8B940850200922EC2AF00D
:10577800075022EC2AF08B84120025EC2CF00A6EDC
:105788000ABC010C3DEC2CF00009D8B4010C000C4B
:10579800066E06C005F00F0E051606380F0B0A0D2B
:1057A800F350052412000001F92B950EF965950CAC
:1057B800F96B010EF86FCD90010C106A0E0E77ECA4
:1057C8002BF0080E106E0F0E77EF2BF00CC007F0C1
:1057D8000DC008F0050E096E2B0E9EEF29F0A6B23B
:1057E800FED705C0A9FFA69EA69CA680A8501200B9
:1057F800056A0550F8EC27F0052A1F0E0564F9D74D
:105808001F0C1F1D1F1E1F1E1F1F1E1F1E1F0100F6
:10581800000005C0EEF106C0EFF10101F06BF16B7D
:1058280012009586959894929494959A958C8B8469
:105838001200C70ED56EF28AD76A3D0ED66E726A0E
:1058480012008B94FF0E22EC2AF0076E8B8407500F
:105858001200C7B4FED7C5CF05F01F0E0516F9E133
:105868001F0CF294D76A3D0ED66E010E0001B26F7E
:10587800010C170E9FEC2BF0096E0950010B12005A
:10588800066E2DEC2CF006C0C9FF12009A6B996BBE
:10589800A46B12002DEC2CF0C58412002DEC2CF01A
:1058A800C58012002DEC2CF0C5821200959E8C9EAE
:1058B8001200F28EF28C1200040E796E040CF401C0
:0758C8002B0102E3BE050104
:10B8AE00000000000000000000087C4E4F4E7C0897
:10B8BE00000426473F07060400203E7F7F3F3E20C0
:10B8CE00007E121E00701000004C6C30186C64006C
:10B8DE0000771166116600440041516B454100002E
:10B8EE000000010102020304040506060707080909
:10B8FE000901000A006400E803102774483C4D92C9
:10B90E004DB24F364CFDBFEF7FFBDFF7FE00000060
:10B91E0000004551453E006B6F6B3E003E7C3E1C69
:10B92E00003C7E3C1800367F3630000000000000E0
:10B93E0000000000000000000000000000000000F9
:10B94E0000000000000000000000000000000000E9
:10B95E0000000000000000000000000000000000D9
:10B96E0000000000000000000000000000000000C9
:10B97E0000000000000000000000000000000000B9
:10B98E00000036360000002436000000242400009B
:10B99E000024000000000000000000120000000063
:10B9AE0012120000001236000000123600000000D5
:10B9BE00000000005F00000007000700147F147FE6
:10B9CE0014242A7F2A122313086462364956205003
:10B9DE000008070300001C2241000041221C002A1F
:10B9EE001C7F1C2A08083E080800807030000808DA
:10B9FE00080808606000000020100804023E51494B
:10BA0E00453E00427F400042615149462141454B2F
:10BA1E00311814127F1027454545393C4A494930A3
:10BA2E0001710905033649494936064949291E005F
:10BA3E000036360000403400000008142241141471
:10BA4E00141414004122140802015909063E415DE6
:10BA5E00594E7C1211127C7F494949363E41414173
:10BA6E00227F4141413E7F494949417F09090901F0
:10BA7E003E414151727F0808087F00417F410020FE
:10BA8E0040413F017F081422417F404040407F02E9
:10BA9E0004027F7F0408107F3E4141413E7F090929
:10BAAE0009063E4151215E7F091929462649494919
